{
	"remix_ide/LOOPS/for_loop_1.sol": {
		"mehan": {
			"abi": [
				{
					"inputs": [],
					"name": "a",
					"outputs": [
						{
							"internalType": "uint256",
							"name": "",
							"type": "uint256"
						}
					],
					"stateMutability": "view",
					"type": "function"
				},
				{
					"inputs": [],
					"name": "for_while",
					"outputs": [
						{
							"internalType": "uint256",
							"name": "",
							"type": "uint256"
						}
					],
					"stateMutability": "nonpayable",
					"type": "function"
				}
			],
			"devdoc": {
				"kind": "dev",
				"methods": {},
				"version": 1
			},
			"evm": {
				"assembly": "    /* \"remix_ide/LOOPS/for_loop_1.sol\":56:341  contract mehan... */\n  mstore(0x40, 0x80)\n    /* \"remix_ide/LOOPS/for_loop_1.sol\":90:91  0 */\n  0x00\n    /* \"remix_ide/LOOPS/for_loop_1.sol\":76:91  uint public a=0 */\n  dup1\n  sstore\n    /* \"remix_ide/LOOPS/for_loop_1.sol\":56:341  contract mehan... */\n  callvalue\n  dup1\n  iszero\n  tag_1\n  jumpi\n  0x00\n  dup1\n  revert\ntag_1:\n  pop\n  dataSize(sub_0)\n  dup1\n  dataOffset(sub_0)\n  0x00\n  codecopy\n  0x00\n  return\nstop\n\nsub_0: assembly {\n        /* \"remix_ide/LOOPS/for_loop_1.sol\":56:341  contract mehan... */\n      mstore(0x40, 0x80)\n      callvalue\n      dup1\n      iszero\n      tag_1\n      jumpi\n      0x00\n      dup1\n      revert\n    tag_1:\n      pop\n      jumpi(tag_2, lt(calldatasize, 0x04))\n      shr(0xe0, calldataload(0x00))\n      dup1\n      0x0dbe671f\n      eq\n      tag_3\n      jumpi\n      dup1\n      0xf69a1566\n      eq\n      tag_4\n      jumpi\n    tag_2:\n      0x00\n      dup1\n      revert\n        /* \"remix_ide/LOOPS/for_loop_1.sol\":76:91  uint public a=0 */\n    tag_3:\n      tag_5\n      tag_6\n      jump\t// in\n    tag_5:\n      mload(0x40)\n      tag_7\n      swap2\n      swap1\n      tag_8\n      jump\t// in\n    tag_7:\n      mload(0x40)\n      dup1\n      swap2\n      sub\n      swap1\n      return\n        /* \"remix_ide/LOOPS/for_loop_1.sol\":94:338  function for_while() public returns(uint)... */\n    tag_4:\n      tag_9\n      tag_10\n      jump\t// in\n    tag_9:\n      mload(0x40)\n      tag_11\n      swap2\n      swap1\n      tag_8\n      jump\t// in\n    tag_11:\n      mload(0x40)\n      dup1\n      swap2\n      sub\n      swap1\n      return\n        /* \"remix_ide/LOOPS/for_loop_1.sol\":76:91  uint public a=0 */\n    tag_6:\n      sload(0x00)\n      dup2\n      jump\t// out\n        /* \"remix_ide/LOOPS/for_loop_1.sol\":94:338  function for_while() public returns(uint)... */\n    tag_10:\n        /* \"remix_ide/LOOPS/for_loop_1.sol\":130:134  uint */\n      0x00\n        /* \"remix_ide/LOOPS/for_loop_1.sol\":150:156  uint i */\n      dup1\n        /* \"remix_ide/LOOPS/for_loop_1.sol\":157:158  0 */\n      0x00\n        /* \"remix_ide/LOOPS/for_loop_1.sol\":150:158  uint i=0 */\n      swap1\n      pop\n        /* \"remix_ide/LOOPS/for_loop_1.sol\":146:320  for(uint i=0;i<10;i++)... */\n    tag_13:\n        /* \"remix_ide/LOOPS/for_loop_1.sol\":161:163  10 */\n      0x0a\n        /* \"remix_ide/LOOPS/for_loop_1.sol\":159:160  i */\n      dup2\n        /* \"remix_ide/LOOPS/for_loop_1.sol\":159:163  i<10 */\n      lt\n        /* \"remix_ide/LOOPS/for_loop_1.sol\":146:320  for(uint i=0;i<10;i++)... */\n      iszero\n      tag_14\n      jumpi\n        /* \"remix_ide/LOOPS/for_loop_1.sol\":188:189  1 */\n      0x01\n        /* \"remix_ide/LOOPS/for_loop_1.sol\":185:186  a */\n      0x00\n      dup1\n        /* \"remix_ide/LOOPS/for_loop_1.sol\":185:189  a+=1 */\n      dup3\n      dup3\n      sload\n      tag_16\n      swap2\n      swap1\n      tag_17\n      jump\t// in\n    tag_16:\n      swap3\n      pop\n      pop\n      dup2\n      swap1\n      sstore\n      pop\n        /* \"remix_ide/LOOPS/for_loop_1.sol\":206:207  5 */\n      0x05\n        /* \"remix_ide/LOOPS/for_loop_1.sol\":203:204  i */\n      dup2\n        /* \"remix_ide/LOOPS/for_loop_1.sol\":203:207  i==5 */\n      sub\n        /* \"remix_ide/LOOPS/for_loop_1.sol\":200:253  if(i==5)... */\n      iszero\n        /* \"remix_ide/LOOPS/for_loop_1.sol\":233:241  continue */\n      tag_15\n        /* \"remix_ide/LOOPS/for_loop_1.sol\":200:253  if(i==5)... */\n      jumpi\n        /* \"remix_ide/LOOPS/for_loop_1.sol\":269:270  7 */\n      0x07\n        /* \"remix_ide/LOOPS/for_loop_1.sol\":266:267  i */\n      dup2\n        /* \"remix_ide/LOOPS/for_loop_1.sol\":266:270  i==7 */\n      sub\n        /* \"remix_ide/LOOPS/for_loop_1.sol\":263:313  if(i==7)... */\n      iszero\n        /* \"remix_ide/LOOPS/for_loop_1.sol\":296:301  break */\n      tag_14\n        /* \"remix_ide/LOOPS/for_loop_1.sol\":263:313  if(i==7)... */\n      jumpi\n        /* \"remix_ide/LOOPS/for_loop_1.sol\":146:320  for(uint i=0;i<10;i++)... */\n    tag_15:\n        /* \"remix_ide/LOOPS/for_loop_1.sol\":164:167  i++ */\n      dup1\n      dup1\n      tag_20\n      swap1\n      tag_21\n      jump\t// in\n    tag_20:\n      swap2\n      pop\n      pop\n        /* \"remix_ide/LOOPS/for_loop_1.sol\":146:320  for(uint i=0;i<10;i++)... */\n      jump(tag_13)\n    tag_14:\n      pop\n        /* \"remix_ide/LOOPS/for_loop_1.sol\":333:334  a */\n      sload(0x00)\n        /* \"remix_ide/LOOPS/for_loop_1.sol\":326:334  return a */\n      swap1\n      pop\n        /* \"remix_ide/LOOPS/for_loop_1.sol\":94:338  function for_while() public returns(uint)... */\n      swap1\n      jump\t// out\n        /* \"#utility.yul\":7:84   */\n    tag_22:\n        /* \"#utility.yul\":44:51   */\n      0x00\n        /* \"#utility.yul\":73:78   */\n      dup2\n        /* \"#utility.yul\":62:78   */\n      swap1\n      pop\n        /* \"#utility.yul\":7:84   */\n      swap2\n      swap1\n      pop\n      jump\t// out\n        /* \"#utility.yul\":90:208   */\n    tag_23:\n        /* \"#utility.yul\":177:201   */\n      tag_28\n        /* \"#utility.yul\":195:200   */\n      dup2\n        /* \"#utility.yul\":177:201   */\n      tag_22\n      jump\t// in\n    tag_28:\n        /* \"#utility.yul\":172:175   */\n      dup3\n        /* \"#utility.yul\":165:202   */\n      mstore\n        /* \"#utility.yul\":90:208   */\n      pop\n      pop\n      jump\t// out\n        /* \"#utility.yul\":214:436   */\n    tag_8:\n        /* \"#utility.yul\":307:311   */\n      0x00\n        /* \"#utility.yul\":345:347   */\n      0x20\n        /* \"#utility.yul\":334:343   */\n      dup3\n        /* \"#utility.yul\":330:348   */\n      add\n        /* \"#utility.yul\":322:348   */\n      swap1\n      pop\n        /* \"#utility.yul\":358:429   */\n      tag_30\n        /* \"#utility.yul\":426:427   */\n      0x00\n        /* \"#utility.yul\":415:424   */\n      dup4\n        /* \"#utility.yul\":411:428   */\n      add\n        /* \"#utility.yul\":402:408   */\n      dup5\n        /* \"#utility.yul\":358:429   */\n      tag_23\n      jump\t// in\n    tag_30:\n        /* \"#utility.yul\":214:436   */\n      swap3\n      swap2\n      pop\n      pop\n      jump\t// out\n        /* \"#utility.yul\":442:622   */\n    tag_24:\n        /* \"#utility.yul\":490:567   */\n      0x4e487b7100000000000000000000000000000000000000000000000000000000\n        /* \"#utility.yul\":487:488   */\n      0x00\n        /* \"#utility.yul\":480:568   */\n      mstore\n        /* \"#utility.yul\":587:591   */\n      0x11\n        /* \"#utility.yul\":584:585   */\n      0x04\n        /* \"#utility.yul\":577:592   */\n      mstore\n        /* \"#utility.yul\":611:615   */\n      0x24\n        /* \"#utility.yul\":608:609   */\n      0x00\n        /* \"#utility.yul\":601:616   */\n      revert\n        /* \"#utility.yul\":628:819   */\n    tag_17:\n        /* \"#utility.yul\":668:671   */\n      0x00\n        /* \"#utility.yul\":687:707   */\n      tag_33\n        /* \"#utility.yul\":705:706   */\n      dup3\n        /* \"#utility.yul\":687:707   */\n      tag_22\n      jump\t// in\n    tag_33:\n        /* \"#utility.yul\":682:707   */\n      swap2\n      pop\n        /* \"#utility.yul\":721:741   */\n      tag_34\n        /* \"#utility.yul\":739:740   */\n      dup4\n        /* \"#utility.yul\":721:741   */\n      tag_22\n      jump\t// in\n    tag_34:\n        /* \"#utility.yul\":716:741   */\n      swap3\n      pop\n        /* \"#utility.yul\":764:765   */\n      dup3\n        /* \"#utility.yul\":761:762   */\n      dup3\n        /* \"#utility.yul\":757:766   */\n      add\n        /* \"#utility.yul\":750:766   */\n      swap1\n      pop\n        /* \"#utility.yul\":785:788   */\n      dup1\n        /* \"#utility.yul\":782:783   */\n      dup3\n        /* \"#utility.yul\":779:789   */\n      gt\n        /* \"#utility.yul\":776:812   */\n      iszero\n      tag_35\n      jumpi\n        /* \"#utility.yul\":792:810   */\n      tag_36\n      tag_24\n      jump\t// in\n    tag_36:\n        /* \"#utility.yul\":776:812   */\n    tag_35:\n        /* \"#utility.yul\":628:819   */\n      swap3\n      swap2\n      pop\n      pop\n      jump\t// out\n        /* \"#utility.yul\":825:1058   */\n    tag_21:\n        /* \"#utility.yul\":864:867   */\n      0x00\n        /* \"#utility.yul\":887:911   */\n      tag_38\n        /* \"#utility.yul\":905:910   */\n      dup3\n        /* \"#utility.yul\":887:911   */\n      tag_22\n      jump\t// in\n    tag_38:\n        /* \"#utility.yul\":878:911   */\n      swap2\n      pop\n        /* \"#utility.yul\":933:999   */\n      0xffffffffffffffffffffffffffffffffffffffffffffffffffffffffffffffff\n        /* \"#utility.yul\":926:931   */\n      dup3\n        /* \"#utility.yul\":923:1000   */\n      sub\n        /* \"#utility.yul\":920:1023   */\n      tag_39\n      jumpi\n        /* \"#utility.yul\":1003:1021   */\n      tag_40\n      tag_24\n      jump\t// in\n    tag_40:\n        /* \"#utility.yul\":920:1023   */\n    tag_39:\n        /* \"#utility.yul\":1050:1051   */\n      0x01\n        /* \"#utility.yul\":1043:1048   */\n      dup3\n        /* \"#utility.yul\":1039:1052   */\n      add\n        /* \"#utility.yul\":1032:1052   */\n      swap1\n      pop\n        /* \"#utility.yul\":825:1058   */\n      swap2\n      swap1\n      pop\n      jump\t// out\n\n    auxdata: 0xa2646970667358221220b0b8a2af4965a748f869b64110c659de88211299e64f988ccdd522d31057228c64736f6c63430008110033\n}\n",
				"bytecode": {
					"linkReferences": {},
					"object": "60806040526000805534801561001457600080fd5b506101eb806100246000396000f3fe608060405234801561001057600080fd5b50600436106100365760003560e01c80630dbe671f1461003b578063f69a156614610059575b600080fd5b610043610077565b60405161005091906100ef565b60405180910390f35b61006161007d565b60405161006e91906100ef565b60405180910390f35b60005481565b600080600090505b600a8110156100cd5760016000808282546100a09190610139565b9250508190555060058103156100ba5760078103156100cd575b80806100c59061016d565b915050610085565b50600054905090565b6000819050919050565b6100e9816100d6565b82525050565b600060208201905061010460008301846100e0565b92915050565b7f4e487b7100000000000000000000000000000000000000000000000000000000600052601160045260246000fd5b6000610144826100d6565b915061014f836100d6565b92508282019050808211156101675761016661010a565b5b92915050565b6000610178826100d6565b91507fffffffffffffffffffffffffffffffffffffffffffffffffffffffffffffffff82036101aa576101a961010a565b5b60018201905091905056fea2646970667358221220b0b8a2af4965a748f869b64110c659de88211299e64f988ccdd522d31057228c64736f6c63430008110033",
					"opcodes": "PUSH1 0x80 PUSH1 0x40 MSTORE PUSH1 0x0 DUP1 SSTORE CALLVALUE DUP1 ISZERO PUSH2 0x14 JUMPI PUSH1 0x0 DUP1 REVERT JUMPDEST POP PUSH2 0x1EB DUP1 PUSH2 0x24 PUSH1 0x0 CODECOPY PUSH1 0x0 RETURN INVALID PUSH1 0x80 PUSH1 0x40 MSTORE CALLVALUE DUP1 ISZERO PUSH2 0x10 JUMPI PUSH1 0x0 DUP1 REVERT JUMPDEST POP PUSH1 0x4 CALLDATASIZE LT PUSH2 0x36 JUMPI PUSH1 0x0 CALLDATALOAD PUSH1 0xE0 SHR DUP1 PUSH4 0xDBE671F EQ PUSH2 0x3B JUMPI DUP1 PUSH4 0xF69A1566 EQ PUSH2 0x59 JUMPI JUMPDEST PUSH1 0x0 DUP1 REVERT JUMPDEST PUSH2 0x43 PUSH2 0x77 JUMP JUMPDEST PUSH1 0x40 MLOAD PUSH2 0x50 SWAP2 SWAP1 PUSH2 0xEF JUMP JUMPDEST PUSH1 0x40 MLOAD DUP1 SWAP2 SUB SWAP1 RETURN JUMPDEST PUSH2 0x61 PUSH2 0x7D JUMP JUMPDEST PUSH1 0x40 MLOAD PUSH2 0x6E SWAP2 SWAP1 PUSH2 0xEF JUMP JUMPDEST PUSH1 0x40 MLOAD DUP1 SWAP2 SUB SWAP1 RETURN JUMPDEST PUSH1 0x0 SLOAD DUP2 JUMP JUMPDEST PUSH1 0x0 DUP1 PUSH1 0x0 SWAP1 POP JUMPDEST PUSH1 0xA DUP2 LT ISZERO PUSH2 0xCD JUMPI PUSH1 0x1 PUSH1 0x0 DUP1 DUP3 DUP3 SLOAD PUSH2 0xA0 SWAP2 SWAP1 PUSH2 0x139 JUMP JUMPDEST SWAP3 POP POP DUP2 SWAP1 SSTORE POP PUSH1 0x5 DUP2 SUB ISZERO PUSH2 0xBA JUMPI PUSH1 0x7 DUP2 SUB ISZERO PUSH2 0xCD JUMPI JUMPDEST DUP1 DUP1 PUSH2 0xC5 SWAP1 PUSH2 0x16D JUMP JUMPDEST SWAP2 POP POP PUSH2 0x85 JUMP JUMPDEST POP PUSH1 0x0 SLOAD SWAP1 POP SWAP1 JUMP JUMPDEST PUSH1 0x0 DUP2 SWAP1 POP SWAP2 SWAP1 POP JUMP JUMPDEST PUSH2 0xE9 DUP2 PUSH2 0xD6 JUMP JUMPDEST DUP3 MSTORE POP POP JUMP JUMPDEST PUSH1 0x0 PUSH1 0x20 DUP3 ADD SWAP1 POP PUSH2 0x104 PUSH1 0x0 DUP4 ADD DUP5 PUSH2 0xE0 JUMP JUMPDEST SWAP3 SWAP2 POP POP JUMP JUMPDEST PUSH32 0x4E487B7100000000000000000000000000000000000000000000000000000000 PUSH1 0x0 MSTORE PUSH1 0x11 PUSH1 0x4 MSTORE PUSH1 0x24 PUSH1 0x0 REVERT JUMPDEST PUSH1 0x0 PUSH2 0x144 DUP3 PUSH2 0xD6 JUMP JUMPDEST SWAP2 POP PUSH2 0x14F DUP4 PUSH2 0xD6 JUMP JUMPDEST SWAP3 POP DUP3 DUP3 ADD SWAP1 POP DUP1 DUP3 GT ISZERO PUSH2 0x167 JUMPI PUSH2 0x166 PUSH2 0x10A JUMP JUMPDEST JUMPDEST SWAP3 SWAP2 POP POP JUMP JUMPDEST PUSH1 0x0 PUSH2 0x178 DUP3 PUSH2 0xD6 JUMP JUMPDEST SWAP2 POP PUSH32 0xFFFFFFFFFFFFFFFFFFFFFFFFFFFFFFFFFFFFFFFFFFFFFFFFFFFFFFFFFFFFFFFF DUP3 SUB PUSH2 0x1AA JUMPI PUSH2 0x1A9 PUSH2 0x10A JUMP JUMPDEST JUMPDEST PUSH1 0x1 DUP3 ADD SWAP1 POP SWAP2 SWAP1 POP JUMP INVALID LOG2 PUSH5 0x6970667358 0x22 SLT KECCAK256 0xB0 0xB8 LOG2 0xAF 0x49 PUSH6 0xA748F869B641 LT 0xC6 MSIZE 0xDE DUP9 0x21 SLT SWAP10 0xE6 0x4F SWAP9 DUP13 0xCD 0xD5 0x22 0xD3 LT JUMPI 0x22 DUP13 PUSH5 0x736F6C6343 STOP ADDMOD GT STOP CALLER "
				},
				"gasEstimates": {
					"creation": {
						"codeDepositCost": "98200",
						"executionCost": "5153",
						"totalCost": "103353"
					},
					"external": {
						"a()": "2407",
						"for_while()": "infinite"
					}
				},
				"methodIdentifiers": {
					"a()": "0dbe671f",
					"for_while()": "f69a1566"
				}
			},
			"storageLayout": {
				"storage": [
					{
						"astId": 4,
						"contract": "remix_ide/LOOPS/for_loop_1.sol:mehan",
						"label": "a",
						"offset": 0,
						"slot": "0",
						"type": "t_uint256"
					}
				],
				"types": {
					"t_uint256": {
						"encoding": "inplace",
						"label": "uint256",
						"numberOfBytes": "32"
					}
				}
			},
			"userdoc": {
				"kind": "user",
				"methods": {},
				"version": 1
			}
		}
	}
}