{
	"remix_ide/struct.sol": {
		"Mehan": {
			"abi": [
				{
					"inputs": [],
					"name": "bio_data",
					"outputs": [],
					"stateMutability": "nonpayable",
					"type": "function"
				},
				{
					"inputs": [],
					"name": "mega",
					"outputs": [
						{
							"internalType": "string",
							"name": "name",
							"type": "string"
						},
						{
							"internalType": "uint256",
							"name": "age",
							"type": "uint256"
						},
						{
							"internalType": "string",
							"name": "gender",
							"type": "string"
						}
					],
					"stateMutability": "view",
					"type": "function"
				},
				{
					"inputs": [],
					"name": "mehan",
					"outputs": [
						{
							"internalType": "string",
							"name": "name",
							"type": "string"
						},
						{
							"internalType": "uint256",
							"name": "age",
							"type": "uint256"
						},
						{
							"internalType": "string",
							"name": "gender",
							"type": "string"
						}
					],
					"stateMutability": "view",
					"type": "function"
				}
			],
			"devdoc": {
				"kind": "dev",
				"methods": {},
				"version": 1
			},
			"evm": {
				"assembly": "    /* \"remix_ide/struct.sol\":56:371  contract Mehan{... */\n  mstore(0x40, 0x80)\n  callvalue\n  dup1\n  iszero\n  tag_1\n  jumpi\n  0x00\n  dup1\n  revert\ntag_1:\n  pop\n  dataSize(sub_0)\n  dup1\n  dataOffset(sub_0)\n  0x00\n  codecopy\n  0x00\n  return\nstop\n\nsub_0: assembly {\n        /* \"remix_ide/struct.sol\":56:371  contract Mehan{... */\n      mstore(0x40, 0x80)\n      callvalue\n      dup1\n      iszero\n      tag_1\n      jumpi\n      0x00\n      dup1\n      revert\n    tag_1:\n      pop\n      jumpi(tag_2, lt(calldatasize, 0x04))\n      shr(0xe0, calldataload(0x00))\n      dup1\n      0x3c9daad5\n      eq\n      tag_3\n      jumpi\n      dup1\n      0x8ab8f200\n      eq\n      tag_4\n      jumpi\n      dup1\n      0xc5f98a3f\n      eq\n      tag_5\n      jumpi\n    tag_2:\n      0x00\n      dup1\n      revert\n        /* \"remix_ide/struct.sol\":216:362  function bio_data() public{... */\n    tag_3:\n      tag_6\n      tag_7\n      jump\t// in\n    tag_6:\n      stop\n        /* \"remix_ide/struct.sol\":169:186  bio  public mehan */\n    tag_4:\n      tag_8\n      tag_9\n      jump\t// in\n    tag_8:\n      mload(0x40)\n      tag_10\n      swap4\n      swap3\n      swap2\n      swap1\n      tag_11\n      jump\t// in\n    tag_10:\n      mload(0x40)\n      dup1\n      swap2\n      sub\n      swap1\n      return\n        /* \"remix_ide/struct.sol\":193:209  bio public  mega */\n    tag_5:\n      tag_12\n      tag_13\n      jump\t// in\n    tag_12:\n      mload(0x40)\n      tag_14\n      swap4\n      swap3\n      swap2\n      swap1\n      tag_11\n      jump\t// in\n    tag_14:\n      mload(0x40)\n      dup1\n      swap2\n      sub\n      swap1\n      return\n        /* \"remix_ide/struct.sol\":216:362  function bio_data() public{... */\n    tag_7:\n        /* \"remix_ide/struct.sol\":249:269  mehan.name = \"mehan\" */\n      mload(0x40)\n      dup1\n      0x40\n      add\n      0x40\n      mstore\n      dup1\n      0x05\n      dup2\n      mstore\n      0x20\n      add\n      0x6d6568616e000000000000000000000000000000000000000000000000000000\n      dup2\n      mstore\n      pop\n        /* \"remix_ide/struct.sol\":249:254  mehan */\n      0x00\n        /* \"remix_ide/struct.sol\":249:259  mehan.name */\n      dup1\n      add\n        /* \"remix_ide/struct.sol\":249:269  mehan.name = \"mehan\" */\n      swap1\n      dup2\n      tag_16\n      swap2\n      swap1\n      tag_17\n      jump\t// in\n    tag_16:\n      pop\n        /* \"remix_ide/struct.sol\":288:290  17 */\n      0x11\n        /* \"remix_ide/struct.sol\":276:281  mehan */\n      0x00\n        /* \"remix_ide/struct.sol\":276:285  mehan.age */\n      0x01\n      add\n        /* \"remix_ide/struct.sol\":276:290  mehan.age = 17 */\n      dup2\n      swap1\n      sstore\n      pop\n        /* \"remix_ide/struct.sol\":297:317  mehan.gender =\"male\" */\n      mload(0x40)\n      dup1\n      0x40\n      add\n      0x40\n      mstore\n      dup1\n      0x04\n      dup2\n      mstore\n      0x20\n      add\n      0x6d616c6500000000000000000000000000000000000000000000000000000000\n      dup2\n      mstore\n      pop\n        /* \"remix_ide/struct.sol\":297:302  mehan */\n      0x00\n        /* \"remix_ide/struct.sol\":297:309  mehan.gender */\n      0x02\n      add\n        /* \"remix_ide/struct.sol\":297:317  mehan.gender =\"male\" */\n      swap1\n      dup2\n      tag_18\n      swap2\n      swap1\n      tag_17\n      jump\t// in\n    tag_18:\n      pop\n        /* \"remix_ide/struct.sol\":329:354  bio(\"megari\",17,\"female\") */\n      mload(0x40)\n      dup1\n      0x60\n      add\n      0x40\n      mstore\n      dup1\n      mload(0x40)\n      dup1\n      0x40\n      add\n      0x40\n      mstore\n      dup1\n      0x06\n      dup2\n      mstore\n      0x20\n      add\n      0x6d65676172690000000000000000000000000000000000000000000000000000\n      dup2\n      mstore\n      pop\n      dup2\n      mstore\n      0x20\n      add\n        /* \"remix_ide/struct.sol\":342:344  17 */\n      0x11\n        /* \"remix_ide/struct.sol\":329:354  bio(\"megari\",17,\"female\") */\n      dup2\n      mstore\n      0x20\n      add\n      mload(0x40)\n      dup1\n      0x40\n      add\n      0x40\n      mstore\n      dup1\n      0x06\n      dup2\n      mstore\n      0x20\n      add\n      0x66656d616c650000000000000000000000000000000000000000000000000000\n      dup2\n      mstore\n      pop\n      dup2\n      mstore\n      pop\n        /* \"remix_ide/struct.sol\":324:328  mega */\n      0x03\n        /* \"remix_ide/struct.sol\":324:354  mega=bio(\"megari\",17,\"female\") */\n      0x00\n      dup3\n      add\n      mload\n      dup2\n      0x00\n      add\n      swap1\n      dup2\n      tag_19\n      swap2\n      swap1\n      tag_17\n      jump\t// in\n    tag_19:\n      pop\n      0x20\n      dup3\n      add\n      mload\n      dup2\n      0x01\n      add\n      sstore\n      0x40\n      dup3\n      add\n      mload\n      dup2\n      0x02\n      add\n      swap1\n      dup2\n      tag_20\n      swap2\n      swap1\n      tag_17\n      jump\t// in\n    tag_20:\n      pop\n      swap1\n      pop\n      pop\n        /* \"remix_ide/struct.sol\":216:362  function bio_data() public{... */\n      jump\t// out\n        /* \"remix_ide/struct.sol\":169:186  bio  public mehan */\n    tag_9:\n      0x00\n      dup1\n      0x00\n      add\n      dup1\n      sload\n      tag_21\n      swap1\n      tag_22\n      jump\t// in\n    tag_21:\n      dup1\n      0x1f\n      add\n      0x20\n      dup1\n      swap2\n      div\n      mul\n      0x20\n      add\n      mload(0x40)\n      swap1\n      dup2\n      add\n      0x40\n      mstore\n      dup1\n      swap3\n      swap2\n      swap1\n      dup2\n      dup2\n      mstore\n      0x20\n      add\n      dup3\n      dup1\n      sload\n      tag_23\n      swap1\n      tag_22\n      jump\t// in\n    tag_23:\n      dup1\n      iszero\n      tag_24\n      jumpi\n      dup1\n      0x1f\n      lt\n      tag_25\n      jumpi\n      0x0100\n      dup1\n      dup4\n      sload\n      div\n      mul\n      dup4\n      mstore\n      swap2\n      0x20\n      add\n      swap2\n      jump(tag_24)\n    tag_25:\n      dup3\n      add\n      swap2\n      swap1\n      0x00\n      mstore\n      keccak256(0x00, 0x20)\n      swap1\n    tag_26:\n      dup2\n      sload\n      dup2\n      mstore\n      swap1\n      0x01\n      add\n      swap1\n      0x20\n      add\n      dup1\n      dup4\n      gt\n      tag_26\n      jumpi\n      dup3\n      swap1\n      sub\n      0x1f\n      and\n      dup3\n      add\n      swap2\n    tag_24:\n      pop\n      pop\n      pop\n      pop\n      pop\n      swap1\n      dup1\n      0x01\n      add\n      sload\n      swap1\n      dup1\n      0x02\n      add\n      dup1\n      sload\n      tag_27\n      swap1\n      tag_22\n      jump\t// in\n    tag_27:\n      dup1\n      0x1f\n      add\n      0x20\n      dup1\n      swap2\n      div\n      mul\n      0x20\n      add\n      mload(0x40)\n      swap1\n      dup2\n      add\n      0x40\n      mstore\n      dup1\n      swap3\n      swap2\n      swap1\n      dup2\n      dup2\n      mstore\n      0x20\n      add\n      dup3\n      dup1\n      sload\n      tag_28\n      swap1\n      tag_22\n      jump\t// in\n    tag_28:\n      dup1\n      iszero\n      tag_29\n      jumpi\n      dup1\n      0x1f\n      lt\n      tag_30\n      jumpi\n      0x0100\n      dup1\n      dup4\n      sload\n      div\n      mul\n      dup4\n      mstore\n      swap2\n      0x20\n      add\n      swap2\n      jump(tag_29)\n    tag_30:\n      dup3\n      add\n      swap2\n      swap1\n      0x00\n      mstore\n      keccak256(0x00, 0x20)\n      swap1\n    tag_31:\n      dup2\n      sload\n      dup2\n      mstore\n      swap1\n      0x01\n      add\n      swap1\n      0x20\n      add\n      dup1\n      dup4\n      gt\n      tag_31\n      jumpi\n      dup3\n      swap1\n      sub\n      0x1f\n      and\n      dup3\n      add\n      swap2\n    tag_29:\n      pop\n      pop\n      pop\n      pop\n      pop\n      swap1\n      pop\n      dup4\n      jump\t// out\n        /* \"remix_ide/struct.sol\":193:209  bio public  mega */\n    tag_13:\n      0x03\n      dup1\n      0x00\n      add\n      dup1\n      sload\n      tag_32\n      swap1\n      tag_22\n      jump\t// in\n    tag_32:\n      dup1\n      0x1f\n      add\n      0x20\n      dup1\n      swap2\n      div\n      mul\n      0x20\n      add\n      mload(0x40)\n      swap1\n      dup2\n      add\n      0x40\n      mstore\n      dup1\n      swap3\n      swap2\n      swap1\n      dup2\n      dup2\n      mstore\n      0x20\n      add\n      dup3\n      dup1\n      sload\n      tag_33\n      swap1\n      tag_22\n      jump\t// in\n    tag_33:\n      dup1\n      iszero\n      tag_34\n      jumpi\n      dup1\n      0x1f\n      lt\n      tag_35\n      jumpi\n      0x0100\n      dup1\n      dup4\n      sload\n      div\n      mul\n      dup4\n      mstore\n      swap2\n      0x20\n      add\n      swap2\n      jump(tag_34)\n    tag_35:\n      dup3\n      add\n      swap2\n      swap1\n      0x00\n      mstore\n      keccak256(0x00, 0x20)\n      swap1\n    tag_36:\n      dup2\n      sload\n      dup2\n      mstore\n      swap1\n      0x01\n      add\n      swap1\n      0x20\n      add\n      dup1\n      dup4\n      gt\n      tag_36\n      jumpi\n      dup3\n      swap1\n      sub\n      0x1f\n      and\n      dup3\n      add\n      swap2\n    tag_34:\n      pop\n      pop\n      pop\n      pop\n      pop\n      swap1\n      dup1\n      0x01\n      add\n      sload\n      swap1\n      dup1\n      0x02\n      add\n      dup1\n      sload\n      tag_37\n      swap1\n      tag_22\n      jump\t// in\n    tag_37:\n      dup1\n      0x1f\n      add\n      0x20\n      dup1\n      swap2\n      div\n      mul\n      0x20\n      add\n      mload(0x40)\n      swap1\n      dup2\n      add\n      0x40\n      mstore\n      dup1\n      swap3\n      swap2\n      swap1\n      dup2\n      dup2\n      mstore\n      0x20\n      add\n      dup3\n      dup1\n      sload\n      tag_38\n      swap1\n      tag_22\n      jump\t// in\n    tag_38:\n      dup1\n      iszero\n      tag_39\n      jumpi\n      dup1\n      0x1f\n      lt\n      tag_40\n      jumpi\n      0x0100\n      dup1\n      dup4\n      sload\n      div\n      mul\n      dup4\n      mstore\n      swap2\n      0x20\n      add\n      swap2\n      jump(tag_39)\n    tag_40:\n      dup3\n      add\n      swap2\n      swap1\n      0x00\n      mstore\n      keccak256(0x00, 0x20)\n      swap1\n    tag_41:\n      dup2\n      sload\n      dup2\n      mstore\n      swap1\n      0x01\n      add\n      swap1\n      0x20\n      add\n      dup1\n      dup4\n      gt\n      tag_41\n      jumpi\n      dup3\n      swap1\n      sub\n      0x1f\n      and\n      dup3\n      add\n      swap2\n    tag_39:\n      pop\n      pop\n      pop\n      pop\n      pop\n      swap1\n      pop\n      dup4\n      jump\t// out\n        /* \"#utility.yul\":7:106   */\n    tag_42:\n        /* \"#utility.yul\":59:65   */\n      0x00\n        /* \"#utility.yul\":93:98   */\n      dup2\n        /* \"#utility.yul\":87:99   */\n      mload\n        /* \"#utility.yul\":77:99   */\n      swap1\n      pop\n        /* \"#utility.yul\":7:106   */\n      swap2\n      swap1\n      pop\n      jump\t// out\n        /* \"#utility.yul\":112:281   */\n    tag_43:\n        /* \"#utility.yul\":196:207   */\n      0x00\n        /* \"#utility.yul\":230:236   */\n      dup3\n        /* \"#utility.yul\":225:228   */\n      dup3\n        /* \"#utility.yul\":218:237   */\n      mstore\n        /* \"#utility.yul\":270:274   */\n      0x20\n        /* \"#utility.yul\":265:268   */\n      dup3\n        /* \"#utility.yul\":261:275   */\n      add\n        /* \"#utility.yul\":246:275   */\n      swap1\n      pop\n        /* \"#utility.yul\":112:281   */\n      swap3\n      swap2\n      pop\n      pop\n      jump\t// out\n        /* \"#utility.yul\":287:533   */\n    tag_44:\n        /* \"#utility.yul\":368:369   */\n      0x00\n        /* \"#utility.yul\":378:491   */\n    tag_70:\n        /* \"#utility.yul\":392:398   */\n      dup4\n        /* \"#utility.yul\":389:390   */\n      dup2\n        /* \"#utility.yul\":386:399   */\n      lt\n        /* \"#utility.yul\":378:491   */\n      iszero\n      tag_72\n      jumpi\n        /* \"#utility.yul\":477:478   */\n      dup1\n        /* \"#utility.yul\":472:475   */\n      dup3\n        /* \"#utility.yul\":468:479   */\n      add\n        /* \"#utility.yul\":462:480   */\n      mload\n        /* \"#utility.yul\":458:459   */\n      dup2\n        /* \"#utility.yul\":453:456   */\n      dup5\n        /* \"#utility.yul\":449:460   */\n      add\n        /* \"#utility.yul\":442:481   */\n      mstore\n        /* \"#utility.yul\":414:416   */\n      0x20\n        /* \"#utility.yul\":411:412   */\n      dup2\n        /* \"#utility.yul\":407:417   */\n      add\n        /* \"#utility.yul\":402:417   */\n      swap1\n      pop\n        /* \"#utility.yul\":378:491   */\n      jump(tag_70)\n    tag_72:\n        /* \"#utility.yul\":525:526   */\n      0x00\n        /* \"#utility.yul\":516:522   */\n      dup5\n        /* \"#utility.yul\":511:514   */\n      dup5\n        /* \"#utility.yul\":507:523   */\n      add\n        /* \"#utility.yul\":500:527   */\n      mstore\n        /* \"#utility.yul\":349:533   */\n      pop\n        /* \"#utility.yul\":287:533   */\n      pop\n      pop\n      pop\n      jump\t// out\n        /* \"#utility.yul\":539:641   */\n    tag_45:\n        /* \"#utility.yul\":580:586   */\n      0x00\n        /* \"#utility.yul\":631:633   */\n      0x1f\n        /* \"#utility.yul\":627:634   */\n      not\n        /* \"#utility.yul\":622:624   */\n      0x1f\n        /* \"#utility.yul\":615:620   */\n      dup4\n        /* \"#utility.yul\":611:625   */\n      add\n        /* \"#utility.yul\":607:635   */\n      and\n        /* \"#utility.yul\":597:635   */\n      swap1\n      pop\n        /* \"#utility.yul\":539:641   */\n      swap2\n      swap1\n      pop\n      jump\t// out\n        /* \"#utility.yul\":647:1024   */\n    tag_46:\n        /* \"#utility.yul\":735:738   */\n      0x00\n        /* \"#utility.yul\":763:802   */\n      tag_75\n        /* \"#utility.yul\":796:801   */\n      dup3\n        /* \"#utility.yul\":763:802   */\n      tag_42\n      jump\t// in\n    tag_75:\n        /* \"#utility.yul\":818:889   */\n      tag_76\n        /* \"#utility.yul\":882:888   */\n      dup2\n        /* \"#utility.yul\":877:880   */\n      dup6\n        /* \"#utility.yul\":818:889   */\n      tag_43\n      jump\t// in\n    tag_76:\n        /* \"#utility.yul\":811:889   */\n      swap4\n      pop\n        /* \"#utility.yul\":898:963   */\n      tag_77\n        /* \"#utility.yul\":956:962   */\n      dup2\n        /* \"#utility.yul\":951:954   */\n      dup6\n        /* \"#utility.yul\":944:948   */\n      0x20\n        /* \"#utility.yul\":937:942   */\n      dup7\n        /* \"#utility.yul\":933:949   */\n      add\n        /* \"#utility.yul\":898:963   */\n      tag_44\n      jump\t// in\n    tag_77:\n        /* \"#utility.yul\":988:1017   */\n      tag_78\n        /* \"#utility.yul\":1010:1016   */\n      dup2\n        /* \"#utility.yul\":988:1017   */\n      tag_45\n      jump\t// in\n    tag_78:\n        /* \"#utility.yul\":983:986   */\n      dup5\n        /* \"#utility.yul\":979:1018   */\n      add\n        /* \"#utility.yul\":972:1018   */\n      swap2\n      pop\n        /* \"#utility.yul\":739:1024   */\n      pop\n        /* \"#utility.yul\":647:1024   */\n      swap3\n      swap2\n      pop\n      pop\n      jump\t// out\n        /* \"#utility.yul\":1030:1107   */\n    tag_47:\n        /* \"#utility.yul\":1067:1074   */\n      0x00\n        /* \"#utility.yul\":1096:1101   */\n      dup2\n        /* \"#utility.yul\":1085:1101   */\n      swap1\n      pop\n        /* \"#utility.yul\":1030:1107   */\n      swap2\n      swap1\n      pop\n      jump\t// out\n        /* \"#utility.yul\":1113:1231   */\n    tag_48:\n        /* \"#utility.yul\":1200:1224   */\n      tag_81\n        /* \"#utility.yul\":1218:1223   */\n      dup2\n        /* \"#utility.yul\":1200:1224   */\n      tag_47\n      jump\t// in\n    tag_81:\n        /* \"#utility.yul\":1195:1198   */\n      dup3\n        /* \"#utility.yul\":1188:1225   */\n      mstore\n        /* \"#utility.yul\":1113:1231   */\n      pop\n      pop\n      jump\t// out\n        /* \"#utility.yul\":1237:1861   */\n    tag_11:\n        /* \"#utility.yul\":1426:1430   */\n      0x00\n        /* \"#utility.yul\":1464:1466   */\n      0x60\n        /* \"#utility.yul\":1453:1462   */\n      dup3\n        /* \"#utility.yul\":1449:1467   */\n      add\n        /* \"#utility.yul\":1441:1467   */\n      swap1\n      pop\n        /* \"#utility.yul\":1513:1522   */\n      dup2\n        /* \"#utility.yul\":1507:1511   */\n      dup2\n        /* \"#utility.yul\":1503:1523   */\n      sub\n        /* \"#utility.yul\":1499:1500   */\n      0x00\n        /* \"#utility.yul\":1488:1497   */\n      dup4\n        /* \"#utility.yul\":1484:1501   */\n      add\n        /* \"#utility.yul\":1477:1524   */\n      mstore\n        /* \"#utility.yul\":1541:1619   */\n      tag_83\n        /* \"#utility.yul\":1614:1618   */\n      dup2\n        /* \"#utility.yul\":1605:1611   */\n      dup7\n        /* \"#utility.yul\":1541:1619   */\n      tag_46\n      jump\t// in\n    tag_83:\n        /* \"#utility.yul\":1533:1619   */\n      swap1\n      pop\n        /* \"#utility.yul\":1629:1701   */\n      tag_84\n        /* \"#utility.yul\":1697:1699   */\n      0x20\n        /* \"#utility.yul\":1686:1695   */\n      dup4\n        /* \"#utility.yul\":1682:1700   */\n      add\n        /* \"#utility.yul\":1673:1679   */\n      dup6\n        /* \"#utility.yul\":1629:1701   */\n      tag_48\n      jump\t// in\n    tag_84:\n        /* \"#utility.yul\":1748:1757   */\n      dup2\n        /* \"#utility.yul\":1742:1746   */\n      dup2\n        /* \"#utility.yul\":1738:1758   */\n      sub\n        /* \"#utility.yul\":1733:1735   */\n      0x40\n        /* \"#utility.yul\":1722:1731   */\n      dup4\n        /* \"#utility.yul\":1718:1736   */\n      add\n        /* \"#utility.yul\":1711:1759   */\n      mstore\n        /* \"#utility.yul\":1776:1854   */\n      tag_85\n        /* \"#utility.yul\":1849:1853   */\n      dup2\n        /* \"#utility.yul\":1840:1846   */\n      dup5\n        /* \"#utility.yul\":1776:1854   */\n      tag_46\n      jump\t// in\n    tag_85:\n        /* \"#utility.yul\":1768:1854   */\n      swap1\n      pop\n        /* \"#utility.yul\":1237:1861   */\n      swap5\n      swap4\n      pop\n      pop\n      pop\n      pop\n      jump\t// out\n        /* \"#utility.yul\":1867:2047   */\n    tag_49:\n        /* \"#utility.yul\":1915:1992   */\n      0x4e487b7100000000000000000000000000000000000000000000000000000000\n        /* \"#utility.yul\":1912:1913   */\n      0x00\n        /* \"#utility.yul\":1905:1993   */\n      mstore\n        /* \"#utility.yul\":2012:2016   */\n      0x41\n        /* \"#utility.yul\":2009:2010   */\n      0x04\n        /* \"#utility.yul\":2002:2017   */\n      mstore\n        /* \"#utility.yul\":2036:2040   */\n      0x24\n        /* \"#utility.yul\":2033:2034   */\n      0x00\n        /* \"#utility.yul\":2026:2041   */\n      revert\n        /* \"#utility.yul\":2053:2233   */\n    tag_50:\n        /* \"#utility.yul\":2101:2178   */\n      0x4e487b7100000000000000000000000000000000000000000000000000000000\n        /* \"#utility.yul\":2098:2099   */\n      0x00\n        /* \"#utility.yul\":2091:2179   */\n      mstore\n        /* \"#utility.yul\":2198:2202   */\n      0x22\n        /* \"#utility.yul\":2195:2196   */\n      0x04\n        /* \"#utility.yul\":2188:2203   */\n      mstore\n        /* \"#utility.yul\":2222:2226   */\n      0x24\n        /* \"#utility.yul\":2219:2220   */\n      0x00\n        /* \"#utility.yul\":2212:2227   */\n      revert\n        /* \"#utility.yul\":2239:2559   */\n    tag_22:\n        /* \"#utility.yul\":2283:2289   */\n      0x00\n        /* \"#utility.yul\":2320:2321   */\n      0x02\n        /* \"#utility.yul\":2314:2318   */\n      dup3\n        /* \"#utility.yul\":2310:2322   */\n      div\n        /* \"#utility.yul\":2300:2322   */\n      swap1\n      pop\n        /* \"#utility.yul\":2367:2368   */\n      0x01\n        /* \"#utility.yul\":2361:2365   */\n      dup3\n        /* \"#utility.yul\":2357:2369   */\n      and\n        /* \"#utility.yul\":2388:2406   */\n      dup1\n        /* \"#utility.yul\":2378:2459   */\n      tag_89\n      jumpi\n        /* \"#utility.yul\":2444:2448   */\n      0x7f\n        /* \"#utility.yul\":2436:2442   */\n      dup3\n        /* \"#utility.yul\":2432:2449   */\n      and\n        /* \"#utility.yul\":2422:2449   */\n      swap2\n      pop\n        /* \"#utility.yul\":2378:2459   */\n    tag_89:\n        /* \"#utility.yul\":2506:2508   */\n      0x20\n        /* \"#utility.yul\":2498:2504   */\n      dup3\n        /* \"#utility.yul\":2495:2509   */\n      lt\n        /* \"#utility.yul\":2475:2493   */\n      dup2\n        /* \"#utility.yul\":2472:2510   */\n      sub\n        /* \"#utility.yul\":2469:2553   */\n      tag_90\n      jumpi\n        /* \"#utility.yul\":2525:2543   */\n      tag_91\n      tag_50\n      jump\t// in\n    tag_91:\n        /* \"#utility.yul\":2469:2553   */\n    tag_90:\n        /* \"#utility.yul\":2290:2559   */\n      pop\n        /* \"#utility.yul\":2239:2559   */\n      swap2\n      swap1\n      pop\n      jump\t// out\n        /* \"#utility.yul\":2565:2706   */\n    tag_51:\n        /* \"#utility.yul\":2614:2618   */\n      0x00\n        /* \"#utility.yul\":2637:2640   */\n      dup2\n        /* \"#utility.yul\":2629:2640   */\n      swap1\n      pop\n        /* \"#utility.yul\":2660:2663   */\n      dup2\n        /* \"#utility.yul\":2657:2658   */\n      0x00\n        /* \"#utility.yul\":2650:2664   */\n      mstore\n        /* \"#utility.yul\":2694:2698   */\n      0x20\n        /* \"#utility.yul\":2691:2692   */\n      0x00\n        /* \"#utility.yul\":2681:2699   */\n      keccak256\n        /* \"#utility.yul\":2673:2699   */\n      swap1\n      pop\n        /* \"#utility.yul\":2565:2706   */\n      swap2\n      swap1\n      pop\n      jump\t// out\n        /* \"#utility.yul\":2712:2805   */\n    tag_52:\n        /* \"#utility.yul\":2749:2755   */\n      0x00\n        /* \"#utility.yul\":2796:2798   */\n      0x20\n        /* \"#utility.yul\":2791:2793   */\n      0x1f\n        /* \"#utility.yul\":2784:2789   */\n      dup4\n        /* \"#utility.yul\":2780:2794   */\n      add\n        /* \"#utility.yul\":2776:2799   */\n      div\n        /* \"#utility.yul\":2766:2799   */\n      swap1\n      pop\n        /* \"#utility.yul\":2712:2805   */\n      swap2\n      swap1\n      pop\n      jump\t// out\n        /* \"#utility.yul\":2811:2918   */\n    tag_53:\n        /* \"#utility.yul\":2855:2863   */\n      0x00\n        /* \"#utility.yul\":2905:2910   */\n      dup3\n        /* \"#utility.yul\":2899:2903   */\n      dup3\n        /* \"#utility.yul\":2895:2911   */\n      shl\n        /* \"#utility.yul\":2874:2911   */\n      swap1\n      pop\n        /* \"#utility.yul\":2811:2918   */\n      swap3\n      swap2\n      pop\n      pop\n      jump\t// out\n        /* \"#utility.yul\":2924:3317   */\n    tag_54:\n        /* \"#utility.yul\":2993:2999   */\n      0x00\n        /* \"#utility.yul\":3043:3044   */\n      0x08\n        /* \"#utility.yul\":3031:3041   */\n      dup4\n        /* \"#utility.yul\":3027:3045   */\n      mul\n        /* \"#utility.yul\":3066:3163   */\n      tag_96\n        /* \"#utility.yul\":3096:3162   */\n      0xffffffffffffffffffffffffffffffffffffffffffffffffffffffffffffffff\n        /* \"#utility.yul\":3085:3094   */\n      dup3\n        /* \"#utility.yul\":3066:3163   */\n      tag_53\n      jump\t// in\n    tag_96:\n        /* \"#utility.yul\":3184:3223   */\n      tag_97\n        /* \"#utility.yul\":3214:3222   */\n      dup7\n        /* \"#utility.yul\":3203:3212   */\n      dup4\n        /* \"#utility.yul\":3184:3223   */\n      tag_53\n      jump\t// in\n    tag_97:\n        /* \"#utility.yul\":3172:3223   */\n      swap6\n      pop\n        /* \"#utility.yul\":3256:3260   */\n      dup1\n        /* \"#utility.yul\":3252:3261   */\n      not\n        /* \"#utility.yul\":3245:3250   */\n      dup5\n        /* \"#utility.yul\":3241:3262   */\n      and\n        /* \"#utility.yul\":3232:3262   */\n      swap4\n      pop\n        /* \"#utility.yul\":3305:3309   */\n      dup1\n        /* \"#utility.yul\":3295:3303   */\n      dup7\n        /* \"#utility.yul\":3291:3310   */\n      and\n        /* \"#utility.yul\":3284:3289   */\n      dup5\n        /* \"#utility.yul\":3281:3311   */\n      or\n        /* \"#utility.yul\":3271:3311   */\n      swap3\n      pop\n        /* \"#utility.yul\":3000:3317   */\n      pop\n      pop\n        /* \"#utility.yul\":2924:3317   */\n      swap4\n      swap3\n      pop\n      pop\n      pop\n      jump\t// out\n        /* \"#utility.yul\":3323:3383   */\n    tag_55:\n        /* \"#utility.yul\":3351:3354   */\n      0x00\n        /* \"#utility.yul\":3372:3377   */\n      dup2\n        /* \"#utility.yul\":3365:3377   */\n      swap1\n      pop\n        /* \"#utility.yul\":3323:3383   */\n      swap2\n      swap1\n      pop\n      jump\t// out\n        /* \"#utility.yul\":3389:3531   */\n    tag_56:\n        /* \"#utility.yul\":3439:3448   */\n      0x00\n        /* \"#utility.yul\":3472:3525   */\n      tag_100\n        /* \"#utility.yul\":3490:3524   */\n      tag_101\n        /* \"#utility.yul\":3499:3523   */\n      tag_102\n        /* \"#utility.yul\":3517:3522   */\n      dup5\n        /* \"#utility.yul\":3499:3523   */\n      tag_47\n      jump\t// in\n    tag_102:\n        /* \"#utility.yul\":3490:3524   */\n      tag_55\n      jump\t// in\n    tag_101:\n        /* \"#utility.yul\":3472:3525   */\n      tag_47\n      jump\t// in\n    tag_100:\n        /* \"#utility.yul\":3459:3525   */\n      swap1\n      pop\n        /* \"#utility.yul\":3389:3531   */\n      swap2\n      swap1\n      pop\n      jump\t// out\n        /* \"#utility.yul\":3537:3612   */\n    tag_57:\n        /* \"#utility.yul\":3580:3583   */\n      0x00\n        /* \"#utility.yul\":3601:3606   */\n      dup2\n        /* \"#utility.yul\":3594:3606   */\n      swap1\n      pop\n        /* \"#utility.yul\":3537:3612   */\n      swap2\n      swap1\n      pop\n      jump\t// out\n        /* \"#utility.yul\":3618:3887   */\n    tag_58:\n        /* \"#utility.yul\":3728:3767   */\n      tag_105\n        /* \"#utility.yul\":3759:3766   */\n      dup4\n        /* \"#utility.yul\":3728:3767   */\n      tag_56\n      jump\t// in\n    tag_105:\n        /* \"#utility.yul\":3789:3880   */\n      tag_106\n        /* \"#utility.yul\":3838:3879   */\n      tag_107\n        /* \"#utility.yul\":3862:3878   */\n      dup3\n        /* \"#utility.yul\":3838:3879   */\n      tag_57\n      jump\t// in\n    tag_107:\n        /* \"#utility.yul\":3830:3836   */\n      dup5\n        /* \"#utility.yul\":3823:3827   */\n      dup5\n        /* \"#utility.yul\":3817:3828   */\n      sload\n        /* \"#utility.yul\":3789:3880   */\n      tag_54\n      jump\t// in\n    tag_106:\n        /* \"#utility.yul\":3783:3787   */\n      dup3\n        /* \"#utility.yul\":3776:3881   */\n      sstore\n        /* \"#utility.yul\":3694:3887   */\n      pop\n        /* \"#utility.yul\":3618:3887   */\n      pop\n      pop\n      pop\n      jump\t// out\n        /* \"#utility.yul\":3893:3966   */\n    tag_59:\n        /* \"#utility.yul\":3938:3941   */\n      0x00\n        /* \"#utility.yul\":3893:3966   */\n      swap1\n      jump\t// out\n        /* \"#utility.yul\":3972:4161   */\n    tag_60:\n        /* \"#utility.yul\":4049:4081   */\n      tag_110\n      tag_59\n      jump\t// in\n    tag_110:\n        /* \"#utility.yul\":4090:4155   */\n      tag_111\n        /* \"#utility.yul\":4148:4154   */\n      dup2\n        /* \"#utility.yul\":4140:4146   */\n      dup5\n        /* \"#utility.yul\":4134:4138   */\n      dup5\n        /* \"#utility.yul\":4090:4155   */\n      tag_58\n      jump\t// in\n    tag_111:\n        /* \"#utility.yul\":4025:4161   */\n      pop\n        /* \"#utility.yul\":3972:4161   */\n      pop\n      pop\n      jump\t// out\n        /* \"#utility.yul\":4167:4353   */\n    tag_61:\n        /* \"#utility.yul\":4227:4347   */\n    tag_113:\n        /* \"#utility.yul\":4244:4247   */\n      dup2\n        /* \"#utility.yul\":4237:4242   */\n      dup2\n        /* \"#utility.yul\":4234:4248   */\n      lt\n        /* \"#utility.yul\":4227:4347   */\n      iszero\n      tag_115\n      jumpi\n        /* \"#utility.yul\":4298:4337   */\n      tag_116\n        /* \"#utility.yul\":4335:4336   */\n      0x00\n        /* \"#utility.yul\":4328:4333   */\n      dup3\n        /* \"#utility.yul\":4298:4337   */\n      tag_60\n      jump\t// in\n    tag_116:\n        /* \"#utility.yul\":4271:4272   */\n      0x01\n        /* \"#utility.yul\":4264:4269   */\n      dup2\n        /* \"#utility.yul\":4260:4273   */\n      add\n        /* \"#utility.yul\":4251:4273   */\n      swap1\n      pop\n        /* \"#utility.yul\":4227:4347   */\n      jump(tag_113)\n    tag_115:\n        /* \"#utility.yul\":4167:4353   */\n      pop\n      pop\n      jump\t// out\n        /* \"#utility.yul\":4359:4902   */\n    tag_62:\n        /* \"#utility.yul\":4460:4462   */\n      0x1f\n        /* \"#utility.yul\":4455:4458   */\n      dup3\n        /* \"#utility.yul\":4452:4463   */\n      gt\n        /* \"#utility.yul\":4449:4895   */\n      iszero\n      tag_118\n      jumpi\n        /* \"#utility.yul\":4494:4532   */\n      tag_119\n        /* \"#utility.yul\":4526:4531   */\n      dup2\n        /* \"#utility.yul\":4494:4532   */\n      tag_51\n      jump\t// in\n    tag_119:\n        /* \"#utility.yul\":4578:4607   */\n      tag_120\n        /* \"#utility.yul\":4596:4606   */\n      dup5\n        /* \"#utility.yul\":4578:4607   */\n      tag_52\n      jump\t// in\n    tag_120:\n        /* \"#utility.yul\":4568:4576   */\n      dup2\n        /* \"#utility.yul\":4564:4608   */\n      add\n        /* \"#utility.yul\":4761:4763   */\n      0x20\n        /* \"#utility.yul\":4749:4759   */\n      dup6\n        /* \"#utility.yul\":4746:4764   */\n      lt\n        /* \"#utility.yul\":4743:4792   */\n      iszero\n      tag_121\n      jumpi\n        /* \"#utility.yul\":4782:4790   */\n      dup2\n        /* \"#utility.yul\":4767:4790   */\n      swap1\n      pop\n        /* \"#utility.yul\":4743:4792   */\n    tag_121:\n        /* \"#utility.yul\":4805:4885   */\n      tag_122\n        /* \"#utility.yul\":4861:4883   */\n      tag_123\n        /* \"#utility.yul\":4879:4882   */\n      dup6\n        /* \"#utility.yul\":4861:4883   */\n      tag_52\n      jump\t// in\n    tag_123:\n        /* \"#utility.yul\":4851:4859   */\n      dup4\n        /* \"#utility.yul\":4847:4884   */\n      add\n        /* \"#utility.yul\":4834:4845   */\n      dup3\n        /* \"#utility.yul\":4805:4885   */\n      tag_61\n      jump\t// in\n    tag_122:\n        /* \"#utility.yul\":4464:4895   */\n      pop\n      pop\n        /* \"#utility.yul\":4449:4895   */\n    tag_118:\n        /* \"#utility.yul\":4359:4902   */\n      pop\n      pop\n      pop\n      jump\t// out\n        /* \"#utility.yul\":4908:5025   */\n    tag_63:\n        /* \"#utility.yul\":4962:4970   */\n      0x00\n        /* \"#utility.yul\":5012:5017   */\n      dup3\n        /* \"#utility.yul\":5006:5010   */\n      dup3\n        /* \"#utility.yul\":5002:5018   */\n      shr\n        /* \"#utility.yul\":4981:5018   */\n      swap1\n      pop\n        /* \"#utility.yul\":4908:5025   */\n      swap3\n      swap2\n      pop\n      pop\n      jump\t// out\n        /* \"#utility.yul\":5031:5200   */\n    tag_64:\n        /* \"#utility.yul\":5075:5081   */\n      0x00\n        /* \"#utility.yul\":5108:5159   */\n      tag_126\n        /* \"#utility.yul\":5156:5157   */\n      0x00\n        /* \"#utility.yul\":5152:5158   */\n      not\n        /* \"#utility.yul\":5144:5149   */\n      dup5\n        /* \"#utility.yul\":5141:5142   */\n      0x08\n        /* \"#utility.yul\":5137:5150   */\n      mul\n        /* \"#utility.yul\":5108:5159   */\n      tag_63\n      jump\t// in\n    tag_126:\n        /* \"#utility.yul\":5104:5160   */\n      not\n        /* \"#utility.yul\":5189:5193   */\n      dup1\n        /* \"#utility.yul\":5183:5187   */\n      dup4\n        /* \"#utility.yul\":5179:5194   */\n      and\n        /* \"#utility.yul\":5169:5194   */\n      swap2\n      pop\n        /* \"#utility.yul\":5082:5200   */\n      pop\n        /* \"#utility.yul\":5031:5200   */\n      swap3\n      swap2\n      pop\n      pop\n      jump\t// out\n        /* \"#utility.yul\":5205:5500   */\n    tag_65:\n        /* \"#utility.yul\":5281:5285   */\n      0x00\n        /* \"#utility.yul\":5427:5456   */\n      tag_128\n        /* \"#utility.yul\":5452:5455   */\n      dup4\n        /* \"#utility.yul\":5446:5450   */\n      dup4\n        /* \"#utility.yul\":5427:5456   */\n      tag_64\n      jump\t// in\n    tag_128:\n        /* \"#utility.yul\":5419:5456   */\n      swap2\n      pop\n        /* \"#utility.yul\":5489:5492   */\n      dup3\n        /* \"#utility.yul\":5486:5487   */\n      0x02\n        /* \"#utility.yul\":5482:5493   */\n      mul\n        /* \"#utility.yul\":5476:5480   */\n      dup3\n        /* \"#utility.yul\":5473:5494   */\n      or\n        /* \"#utility.yul\":5465:5494   */\n      swap1\n      pop\n        /* \"#utility.yul\":5205:5500   */\n      swap3\n      swap2\n      pop\n      pop\n      jump\t// out\n        /* \"#utility.yul\":5505:6900   */\n    tag_17:\n        /* \"#utility.yul\":5622:5659   */\n      tag_130\n        /* \"#utility.yul\":5655:5658   */\n      dup3\n        /* \"#utility.yul\":5622:5659   */\n      tag_42\n      jump\t// in\n    tag_130:\n        /* \"#utility.yul\":5724:5742   */\n      0xffffffffffffffff\n        /* \"#utility.yul\":5716:5722   */\n      dup2\n        /* \"#utility.yul\":5713:5743   */\n      gt\n        /* \"#utility.yul\":5710:5766   */\n      iszero\n      tag_131\n      jumpi\n        /* \"#utility.yul\":5746:5764   */\n      tag_132\n      tag_49\n      jump\t// in\n    tag_132:\n        /* \"#utility.yul\":5710:5766   */\n    tag_131:\n        /* \"#utility.yul\":5790:5828   */\n      tag_133\n        /* \"#utility.yul\":5822:5826   */\n      dup3\n        /* \"#utility.yul\":5816:5827   */\n      sload\n        /* \"#utility.yul\":5790:5828   */\n      tag_22\n      jump\t// in\n    tag_133:\n        /* \"#utility.yul\":5875:5942   */\n      tag_134\n        /* \"#utility.yul\":5935:5941   */\n      dup3\n        /* \"#utility.yul\":5927:5933   */\n      dup3\n        /* \"#utility.yul\":5921:5925   */\n      dup6\n        /* \"#utility.yul\":5875:5942   */\n      tag_62\n      jump\t// in\n    tag_134:\n        /* \"#utility.yul\":5969:5970   */\n      0x00\n        /* \"#utility.yul\":5993:5997   */\n      0x20\n        /* \"#utility.yul\":5980:5997   */\n      swap1\n      pop\n        /* \"#utility.yul\":6025:6027   */\n      0x1f\n        /* \"#utility.yul\":6017:6023   */\n      dup4\n        /* \"#utility.yul\":6014:6028   */\n      gt\n        /* \"#utility.yul\":6042:6043   */\n      0x01\n        /* \"#utility.yul\":6037:6655   */\n      dup2\n      eq\n      tag_136\n      jumpi\n        /* \"#utility.yul\":6699:6700   */\n      0x00\n        /* \"#utility.yul\":6716:6722   */\n      dup5\n        /* \"#utility.yul\":6713:6790   */\n      iszero\n      tag_137\n      jumpi\n        /* \"#utility.yul\":6765:6774   */\n      dup3\n        /* \"#utility.yul\":6760:6763   */\n      dup8\n        /* \"#utility.yul\":6756:6775   */\n      add\n        /* \"#utility.yul\":6750:6776   */\n      mload\n        /* \"#utility.yul\":6741:6776   */\n      swap1\n      pop\n        /* \"#utility.yul\":6713:6790   */\n    tag_137:\n        /* \"#utility.yul\":6816:6883   */\n      tag_138\n        /* \"#utility.yul\":6876:6882   */\n      dup6\n        /* \"#utility.yul\":6869:6874   */\n      dup3\n        /* \"#utility.yul\":6816:6883   */\n      tag_65\n      jump\t// in\n    tag_138:\n        /* \"#utility.yul\":6810:6814   */\n      dup7\n        /* \"#utility.yul\":6803:6884   */\n      sstore\n        /* \"#utility.yul\":6672:6894   */\n      pop\n        /* \"#utility.yul\":6007:6894   */\n      jump(tag_135)\n        /* \"#utility.yul\":6037:6655   */\n    tag_136:\n        /* \"#utility.yul\":6089:6093   */\n      0x1f\n        /* \"#utility.yul\":6085:6094   */\n      not\n        /* \"#utility.yul\":6077:6083   */\n      dup5\n        /* \"#utility.yul\":6073:6095   */\n      and\n        /* \"#utility.yul\":6123:6160   */\n      tag_139\n        /* \"#utility.yul\":6155:6159   */\n      dup7\n        /* \"#utility.yul\":6123:6160   */\n      tag_51\n      jump\t// in\n    tag_139:\n        /* \"#utility.yul\":6182:6183   */\n      0x00\n        /* \"#utility.yul\":6196:6404   */\n    tag_140:\n        /* \"#utility.yul\":6210:6217   */\n      dup3\n        /* \"#utility.yul\":6207:6208   */\n      dup2\n        /* \"#utility.yul\":6204:6218   */\n      lt\n        /* \"#utility.yul\":6196:6404   */\n      iszero\n      tag_142\n      jumpi\n        /* \"#utility.yul\":6289:6298   */\n      dup5\n        /* \"#utility.yul\":6284:6287   */\n      dup10\n        /* \"#utility.yul\":6280:6299   */\n      add\n        /* \"#utility.yul\":6274:6300   */\n      mload\n        /* \"#utility.yul\":6266:6272   */\n      dup3\n        /* \"#utility.yul\":6259:6301   */\n      sstore\n        /* \"#utility.yul\":6340:6341   */\n      0x01\n        /* \"#utility.yul\":6332:6338   */\n      dup3\n        /* \"#utility.yul\":6328:6342   */\n      add\n        /* \"#utility.yul\":6318:6342   */\n      swap2\n      pop\n        /* \"#utility.yul\":6387:6389   */\n      0x20\n        /* \"#utility.yul\":6376:6385   */\n      dup6\n        /* \"#utility.yul\":6372:6390   */\n      add\n        /* \"#utility.yul\":6359:6390   */\n      swap5\n      pop\n        /* \"#utility.yul\":6233:6237   */\n      0x20\n        /* \"#utility.yul\":6230:6231   */\n      dup2\n        /* \"#utility.yul\":6226:6238   */\n      add\n        /* \"#utility.yul\":6221:6238   */\n      swap1\n      pop\n        /* \"#utility.yul\":6196:6404   */\n      jump(tag_140)\n    tag_142:\n        /* \"#utility.yul\":6432:6438   */\n      dup7\n        /* \"#utility.yul\":6423:6430   */\n      dup4\n        /* \"#utility.yul\":6420:6439   */\n      lt\n        /* \"#utility.yul\":6417:6596   */\n      iszero\n      tag_143\n      jumpi\n        /* \"#utility.yul\":6490:6499   */\n      dup5\n        /* \"#utility.yul\":6485:6488   */\n      dup10\n        /* \"#utility.yul\":6481:6500   */\n      add\n        /* \"#utility.yul\":6475:6501   */\n      mload\n        /* \"#utility.yul\":6533:6581   */\n      tag_144\n        /* \"#utility.yul\":6575:6579   */\n      0x1f\n        /* \"#utility.yul\":6567:6573   */\n      dup10\n        /* \"#utility.yul\":6563:6580   */\n      and\n        /* \"#utility.yul\":6552:6561   */\n      dup3\n        /* \"#utility.yul\":6533:6581   */\n      tag_64\n      jump\t// in\n    tag_144:\n        /* \"#utility.yul\":6525:6531   */\n      dup4\n        /* \"#utility.yul\":6518:6582   */\n      sstore\n        /* \"#utility.yul\":6440:6596   */\n      pop\n        /* \"#utility.yul\":6417:6596   */\n    tag_143:\n        /* \"#utility.yul\":6642:6643   */\n      0x01\n        /* \"#utility.yul\":6638:6639   */\n      0x02\n        /* \"#utility.yul\":6630:6636   */\n      dup9\n        /* \"#utility.yul\":6626:6640   */\n      mul\n        /* \"#utility.yul\":6622:6644   */\n      add\n        /* \"#utility.yul\":6616:6620   */\n      dup9\n        /* \"#utility.yul\":6609:6645   */\n      sstore\n        /* \"#utility.yul\":6044:6655   */\n      pop\n      pop\n      pop\n        /* \"#utility.yul\":6007:6894   */\n    tag_135:\n      pop\n        /* \"#utility.yul\":5597:6900   */\n      pop\n      pop\n      pop\n        /* \"#utility.yul\":5505:6900   */\n      pop\n      pop\n      jump\t// out\n\n    auxdata: 0xa264697066735822122000044d70564cf618916d3e40404a07e60230db1af0fd79712fbbb1298da17b6564736f6c63430008110033\n}\n",
				"bytecode": {
					"linkReferences": {},
					"object": "608060405234801561001057600080fd5b5061086e806100206000396000f3fe608060405234801561001057600080fd5b50600436106100415760003560e01c80633c9daad5146100465780638ab8f20014610050578063c5f98a3f14610070575b600080fd5b61004e610090565b005b6100586101ed565b604051610067939291906104e6565b60405180910390f35b610078610315565b604051610087939291906104e6565b60405180910390f35b6040518060400160405280600581526020017f6d6568616e0000000000000000000000000000000000000000000000000000008152506000800190816100d69190610766565b5060116000600101819055506040518060400160405280600481526020017f6d616c6500000000000000000000000000000000000000000000000000000000815250600060020190816101299190610766565b5060405180606001604052806040518060400160405280600681526020017f6d656761726900000000000000000000000000000000000000000000000000008152508152602001601181526020016040518060400160405280600681526020017f66656d616c650000000000000000000000000000000000000000000000000000815250815250600360008201518160000190816101c79190610766565b506020820151816001015560408201518160020190816101e79190610766565b50905050565b60008060000180546101fe90610589565b80601f016020809104026020016040519081016040528092919081815260200182805461022a90610589565b80156102775780601f1061024c57610100808354040283529160200191610277565b820191906000526020600020905b81548152906001019060200180831161025a57829003601f168201915b50505050509080600101549080600201805461029290610589565b80601f01602080910402602001604051908101604052809291908181526020018280546102be90610589565b801561030b5780601f106102e05761010080835404028352916020019161030b565b820191906000526020600020905b8154815290600101906020018083116102ee57829003601f168201915b5050505050905083565b600380600001805461032690610589565b80601f016020809104026020016040519081016040528092919081815260200182805461035290610589565b801561039f5780601f106103745761010080835404028352916020019161039f565b820191906000526020600020905b81548152906001019060200180831161038257829003601f168201915b5050505050908060010154908060020180546103ba90610589565b80601f01602080910402602001604051908101604052809291908181526020018280546103e690610589565b80156104335780601f1061040857610100808354040283529160200191610433565b820191906000526020600020905b81548152906001019060200180831161041657829003601f168201915b5050505050905083565b600081519050919050565b600082825260208201905092915050565b60005b8381101561047757808201518184015260208101905061045c565b60008484015250505050565b6000601f19601f8301169050919050565b600061049f8261043d565b6104a98185610448565b93506104b9818560208601610459565b6104c281610483565b840191505092915050565b6000819050919050565b6104e0816104cd565b82525050565b600060608201905081810360008301526105008186610494565b905061050f60208301856104d7565b81810360408301526105218184610494565b9050949350505050565b7f4e487b7100000000000000000000000000000000000000000000000000000000600052604160045260246000fd5b7f4e487b7100000000000000000000000000000000000000000000000000000000600052602260045260246000fd5b600060028204905060018216806105a157607f821691505b6020821081036105b4576105b361055a565b5b50919050565b60008190508160005260206000209050919050565b60006020601f8301049050919050565b600082821b905092915050565b60006008830261061c7fffffffffffffffffffffffffffffffffffffffffffffffffffffffffffffffff826105df565b61062686836105df565b95508019841693508086168417925050509392505050565b6000819050919050565b600061066361065e610659846104cd565b61063e565b6104cd565b9050919050565b6000819050919050565b61067d83610648565b6106916106898261066a565b8484546105ec565b825550505050565b600090565b6106a6610699565b6106b1818484610674565b505050565b5b818110156106d5576106ca60008261069e565b6001810190506106b7565b5050565b601f82111561071a576106eb816105ba565b6106f4846105cf565b81016020851015610703578190505b61071761070f856105cf565b8301826106b6565b50505b505050565b600082821c905092915050565b600061073d6000198460080261071f565b1980831691505092915050565b6000610756838361072c565b9150826002028217905092915050565b61076f8261043d565b67ffffffffffffffff8111156107885761078761052b565b5b6107928254610589565b61079d8282856106d9565b600060209050601f8311600181146107d057600084156107be578287015190505b6107c8858261074a565b865550610830565b601f1984166107de866105ba565b60005b82811015610806578489015182556001820191506020850194506020810190506107e1565b86831015610823578489015161081f601f89168261072c565b8355505b6001600288020188555050505b50505050505056fea264697066735822122000044d70564cf618916d3e40404a07e60230db1af0fd79712fbbb1298da17b6564736f6c63430008110033",
					"opcodes": "PUSH1 0x80 PUSH1 0x40 MSTORE CALLVALUE DUP1 ISZERO PUSH2 0x10 JUMPI PUSH1 0x0 DUP1 REVERT JUMPDEST POP PUSH2 0x86E DUP1 PUSH2 0x20 PUSH1 0x0 CODECOPY PUSH1 0x0 RETURN INVALID PUSH1 0x80 PUSH1 0x40 MSTORE CALLVALUE DUP1 ISZERO PUSH2 0x10 JUMPI PUSH1 0x0 DUP1 REVERT JUMPDEST POP PUSH1 0x4 CALLDATASIZE LT PUSH2 0x41 JUMPI PUSH1 0x0 CALLDATALOAD PUSH1 0xE0 SHR DUP1 PUSH4 0x3C9DAAD5 EQ PUSH2 0x46 JUMPI DUP1 PUSH4 0x8AB8F200 EQ PUSH2 0x50 JUMPI DUP1 PUSH4 0xC5F98A3F EQ PUSH2 0x70 JUMPI JUMPDEST PUSH1 0x0 DUP1 REVERT JUMPDEST PUSH2 0x4E PUSH2 0x90 JUMP JUMPDEST STOP JUMPDEST PUSH2 0x58 PUSH2 0x1ED JUMP JUMPDEST PUSH1 0x40 MLOAD PUSH2 0x67 SWAP4 SWAP3 SWAP2 SWAP1 PUSH2 0x4E6 JUMP JUMPDEST PUSH1 0x40 MLOAD DUP1 SWAP2 SUB SWAP1 RETURN JUMPDEST PUSH2 0x78 PUSH2 0x315 JUMP JUMPDEST PUSH1 0x40 MLOAD PUSH2 0x87 SWAP4 SWAP3 SWAP2 SWAP1 PUSH2 0x4E6 JUMP JUMPDEST PUSH1 0x40 MLOAD DUP1 SWAP2 SUB SWAP1 RETURN JUMPDEST PUSH1 0x40 MLOAD DUP1 PUSH1 0x40 ADD PUSH1 0x40 MSTORE DUP1 PUSH1 0x5 DUP2 MSTORE PUSH1 0x20 ADD PUSH32 0x6D6568616E000000000000000000000000000000000000000000000000000000 DUP2 MSTORE POP PUSH1 0x0 DUP1 ADD SWAP1 DUP2 PUSH2 0xD6 SWAP2 SWAP1 PUSH2 0x766 JUMP JUMPDEST POP PUSH1 0x11 PUSH1 0x0 PUSH1 0x1 ADD DUP2 SWAP1 SSTORE POP PUSH1 0x40 MLOAD DUP1 PUSH1 0x40 ADD PUSH1 0x40 MSTORE DUP1 PUSH1 0x4 DUP2 MSTORE PUSH1 0x20 ADD PUSH32 0x6D616C6500000000000000000000000000000000000000000000000000000000 DUP2 MSTORE POP PUSH1 0x0 PUSH1 0x2 ADD SWAP1 DUP2 PUSH2 0x129 SWAP2 SWAP1 PUSH2 0x766 JUMP JUMPDEST POP PUSH1 0x40 MLOAD DUP1 PUSH1 0x60 ADD PUSH1 0x40 MSTORE DUP1 PUSH1 0x40 MLOAD DUP1 PUSH1 0x40 ADD PUSH1 0x40 MSTORE DUP1 PUSH1 0x6 DUP2 MSTORE PUSH1 0x20 ADD PUSH32 0x6D65676172690000000000000000000000000000000000000000000000000000 DUP2 MSTORE POP DUP2 MSTORE PUSH1 0x20 ADD PUSH1 0x11 DUP2 MSTORE PUSH1 0x20 ADD PUSH1 0x40 MLOAD DUP1 PUSH1 0x40 ADD PUSH1 0x40 MSTORE DUP1 PUSH1 0x6 DUP2 MSTORE PUSH1 0x20 ADD PUSH32 0x66656D616C650000000000000000000000000000000000000000000000000000 DUP2 MSTORE POP DUP2 MSTORE POP PUSH1 0x3 PUSH1 0x0 DUP3 ADD MLOAD DUP2 PUSH1 0x0 ADD SWAP1 DUP2 PUSH2 0x1C7 SWAP2 SWAP1 PUSH2 0x766 JUMP JUMPDEST POP PUSH1 0x20 DUP3 ADD MLOAD DUP2 PUSH1 0x1 ADD SSTORE PUSH1 0x40 DUP3 ADD MLOAD DUP2 PUSH1 0x2 ADD SWAP1 DUP2 PUSH2 0x1E7 SWAP2 SWAP1 PUSH2 0x766 JUMP JUMPDEST POP SWAP1 POP POP JUMP JUMPDEST PUSH1 0x0 DUP1 PUSH1 0x0 ADD DUP1 SLOAD PUSH2 0x1FE SWAP1 PUSH2 0x589 JUMP JUMPDEST DUP1 PUSH1 0x1F ADD PUSH1 0x20 DUP1 SWAP2 DIV MUL PUSH1 0x20 ADD PUSH1 0x40 MLOAD SWAP1 DUP2 ADD PUSH1 0x40 MSTORE DUP1 SWAP3 SWAP2 SWAP1 DUP2 DUP2 MSTORE PUSH1 0x20 ADD DUP3 DUP1 SLOAD PUSH2 0x22A SWAP1 PUSH2 0x589 JUMP JUMPDEST DUP1 ISZERO PUSH2 0x277 JUMPI DUP1 PUSH1 0x1F LT PUSH2 0x24C JUMPI PUSH2 0x100 DUP1 DUP4 SLOAD DIV MUL DUP4 MSTORE SWAP2 PUSH1 0x20 ADD SWAP2 PUSH2 0x277 JUMP JUMPDEST DUP3 ADD SWAP2 SWAP1 PUSH1 0x0 MSTORE PUSH1 0x20 PUSH1 0x0 KECCAK256 SWAP1 JUMPDEST DUP2 SLOAD DUP2 MSTORE SWAP1 PUSH1 0x1 ADD SWAP1 PUSH1 0x20 ADD DUP1 DUP4 GT PUSH2 0x25A JUMPI DUP3 SWAP1 SUB PUSH1 0x1F AND DUP3 ADD SWAP2 JUMPDEST POP POP POP POP POP SWAP1 DUP1 PUSH1 0x1 ADD SLOAD SWAP1 DUP1 PUSH1 0x2 ADD DUP1 SLOAD PUSH2 0x292 SWAP1 PUSH2 0x589 JUMP JUMPDEST DUP1 PUSH1 0x1F ADD PUSH1 0x20 DUP1 SWAP2 DIV MUL PUSH1 0x20 ADD PUSH1 0x40 MLOAD SWAP1 DUP2 ADD PUSH1 0x40 MSTORE DUP1 SWAP3 SWAP2 SWAP1 DUP2 DUP2 MSTORE PUSH1 0x20 ADD DUP3 DUP1 SLOAD PUSH2 0x2BE SWAP1 PUSH2 0x589 JUMP JUMPDEST DUP1 ISZERO PUSH2 0x30B JUMPI DUP1 PUSH1 0x1F LT PUSH2 0x2E0 JUMPI PUSH2 0x100 DUP1 DUP4 SLOAD DIV MUL DUP4 MSTORE SWAP2 PUSH1 0x20 ADD SWAP2 PUSH2 0x30B JUMP JUMPDEST DUP3 ADD SWAP2 SWAP1 PUSH1 0x0 MSTORE PUSH1 0x20 PUSH1 0x0 KECCAK256 SWAP1 JUMPDEST DUP2 SLOAD DUP2 MSTORE SWAP1 PUSH1 0x1 ADD SWAP1 PUSH1 0x20 ADD DUP1 DUP4 GT PUSH2 0x2EE JUMPI DUP3 SWAP1 SUB PUSH1 0x1F AND DUP3 ADD SWAP2 JUMPDEST POP POP POP POP POP SWAP1 POP DUP4 JUMP JUMPDEST PUSH1 0x3 DUP1 PUSH1 0x0 ADD DUP1 SLOAD PUSH2 0x326 SWAP1 PUSH2 0x589 JUMP JUMPDEST DUP1 PUSH1 0x1F ADD PUSH1 0x20 DUP1 SWAP2 DIV MUL PUSH1 0x20 ADD PUSH1 0x40 MLOAD SWAP1 DUP2 ADD PUSH1 0x40 MSTORE DUP1 SWAP3 SWAP2 SWAP1 DUP2 DUP2 MSTORE PUSH1 0x20 ADD DUP3 DUP1 SLOAD PUSH2 0x352 SWAP1 PUSH2 0x589 JUMP JUMPDEST DUP1 ISZERO PUSH2 0x39F JUMPI DUP1 PUSH1 0x1F LT PUSH2 0x374 JUMPI PUSH2 0x100 DUP1 DUP4 SLOAD DIV MUL DUP4 MSTORE SWAP2 PUSH1 0x20 ADD SWAP2 PUSH2 0x39F JUMP JUMPDEST DUP3 ADD SWAP2 SWAP1 PUSH1 0x0 MSTORE PUSH1 0x20 PUSH1 0x0 KECCAK256 SWAP1 JUMPDEST DUP2 SLOAD DUP2 MSTORE SWAP1 PUSH1 0x1 ADD SWAP1 PUSH1 0x20 ADD DUP1 DUP4 GT PUSH2 0x382 JUMPI DUP3 SWAP1 SUB PUSH1 0x1F AND DUP3 ADD SWAP2 JUMPDEST POP POP POP POP POP SWAP1 DUP1 PUSH1 0x1 ADD SLOAD SWAP1 DUP1 PUSH1 0x2 ADD DUP1 SLOAD PUSH2 0x3BA SWAP1 PUSH2 0x589 JUMP JUMPDEST DUP1 PUSH1 0x1F ADD PUSH1 0x20 DUP1 SWAP2 DIV MUL PUSH1 0x20 ADD PUSH1 0x40 MLOAD SWAP1 DUP2 ADD PUSH1 0x40 MSTORE DUP1 SWAP3 SWAP2 SWAP1 DUP2 DUP2 MSTORE PUSH1 0x20 ADD DUP3 DUP1 SLOAD PUSH2 0x3E6 SWAP1 PUSH2 0x589 JUMP JUMPDEST DUP1 ISZERO PUSH2 0x433 JUMPI DUP1 PUSH1 0x1F LT PUSH2 0x408 JUMPI PUSH2 0x100 DUP1 DUP4 SLOAD DIV MUL DUP4 MSTORE SWAP2 PUSH1 0x20 ADD SWAP2 PUSH2 0x433 JUMP JUMPDEST DUP3 ADD SWAP2 SWAP1 PUSH1 0x0 MSTORE PUSH1 0x20 PUSH1 0x0 KECCAK256 SWAP1 JUMPDEST DUP2 SLOAD DUP2 MSTORE SWAP1 PUSH1 0x1 ADD SWAP1 PUSH1 0x20 ADD DUP1 DUP4 GT PUSH2 0x416 JUMPI DUP3 SWAP1 SUB PUSH1 0x1F AND DUP3 ADD SWAP2 JUMPDEST POP POP POP POP POP SWAP1 POP DUP4 JUMP JUMPDEST PUSH1 0x0 DUP2 MLOAD SWAP1 POP SWAP2 SWAP1 POP JUMP JUMPDEST PUSH1 0x0 DUP3 DUP3 MSTORE PUSH1 0x20 DUP3 ADD SWAP1 POP SWAP3 SWAP2 POP POP JUMP JUMPDEST PUSH1 0x0 JUMPDEST DUP4 DUP2 LT ISZERO PUSH2 0x477 JUMPI DUP1 DUP3 ADD MLOAD DUP2 DUP5 ADD MSTORE PUSH1 0x20 DUP2 ADD SWAP1 POP PUSH2 0x45C JUMP JUMPDEST PUSH1 0x0 DUP5 DUP5 ADD MSTORE POP POP POP POP JUMP JUMPDEST PUSH1 0x0 PUSH1 0x1F NOT PUSH1 0x1F DUP4 ADD AND SWAP1 POP SWAP2 SWAP1 POP JUMP JUMPDEST PUSH1 0x0 PUSH2 0x49F DUP3 PUSH2 0x43D JUMP JUMPDEST PUSH2 0x4A9 DUP2 DUP6 PUSH2 0x448 JUMP JUMPDEST SWAP4 POP PUSH2 0x4B9 DUP2 DUP6 PUSH1 0x20 DUP7 ADD PUSH2 0x459 JUMP JUMPDEST PUSH2 0x4C2 DUP2 PUSH2 0x483 JUMP JUMPDEST DUP5 ADD SWAP2 POP POP SWAP3 SWAP2 POP POP JUMP JUMPDEST PUSH1 0x0 DUP2 SWAP1 POP SWAP2 SWAP1 POP JUMP JUMPDEST PUSH2 0x4E0 DUP2 PUSH2 0x4CD JUMP JUMPDEST DUP3 MSTORE POP POP JUMP JUMPDEST PUSH1 0x0 PUSH1 0x60 DUP3 ADD SWAP1 POP DUP2 DUP2 SUB PUSH1 0x0 DUP4 ADD MSTORE PUSH2 0x500 DUP2 DUP7 PUSH2 0x494 JUMP JUMPDEST SWAP1 POP PUSH2 0x50F PUSH1 0x20 DUP4 ADD DUP6 PUSH2 0x4D7 JUMP JUMPDEST DUP2 DUP2 SUB PUSH1 0x40 DUP4 ADD MSTORE PUSH2 0x521 DUP2 DUP5 PUSH2 0x494 JUMP JUMPDEST SWAP1 POP SWAP5 SWAP4 POP POP POP POP JUMP JUMPDEST PUSH32 0x4E487B7100000000000000000000000000000000000000000000000000000000 PUSH1 0x0 MSTORE PUSH1 0x41 PUSH1 0x4 MSTORE PUSH1 0x24 PUSH1 0x0 REVERT JUMPDEST PUSH32 0x4E487B7100000000000000000000000000000000000000000000000000000000 PUSH1 0x0 MSTORE PUSH1 0x22 PUSH1 0x4 MSTORE PUSH1 0x24 PUSH1 0x0 REVERT JUMPDEST PUSH1 0x0 PUSH1 0x2 DUP3 DIV SWAP1 POP PUSH1 0x1 DUP3 AND DUP1 PUSH2 0x5A1 JUMPI PUSH1 0x7F DUP3 AND SWAP2 POP JUMPDEST PUSH1 0x20 DUP3 LT DUP2 SUB PUSH2 0x5B4 JUMPI PUSH2 0x5B3 PUSH2 0x55A JUMP JUMPDEST JUMPDEST POP SWAP2 SWAP1 POP JUMP JUMPDEST PUSH1 0x0 DUP2 SWAP1 POP DUP2 PUSH1 0x0 MSTORE PUSH1 0x20 PUSH1 0x0 KECCAK256 SWAP1 POP SWAP2 SWAP1 POP JUMP JUMPDEST PUSH1 0x0 PUSH1 0x20 PUSH1 0x1F DUP4 ADD DIV SWAP1 POP SWAP2 SWAP1 POP JUMP JUMPDEST PUSH1 0x0 DUP3 DUP3 SHL SWAP1 POP SWAP3 SWAP2 POP POP JUMP JUMPDEST PUSH1 0x0 PUSH1 0x8 DUP4 MUL PUSH2 0x61C PUSH32 0xFFFFFFFFFFFFFFFFFFFFFFFFFFFFFFFFFFFFFFFFFFFFFFFFFFFFFFFFFFFFFFFF DUP3 PUSH2 0x5DF JUMP JUMPDEST PUSH2 0x626 DUP7 DUP4 PUSH2 0x5DF JUMP JUMPDEST SWAP6 POP DUP1 NOT DUP5 AND SWAP4 POP DUP1 DUP7 AND DUP5 OR SWAP3 POP POP POP SWAP4 SWAP3 POP POP POP JUMP JUMPDEST PUSH1 0x0 DUP2 SWAP1 POP SWAP2 SWAP1 POP JUMP JUMPDEST PUSH1 0x0 PUSH2 0x663 PUSH2 0x65E PUSH2 0x659 DUP5 PUSH2 0x4CD JUMP JUMPDEST PUSH2 0x63E JUMP JUMPDEST PUSH2 0x4CD JUMP JUMPDEST SWAP1 POP SWAP2 SWAP1 POP JUMP JUMPDEST PUSH1 0x0 DUP2 SWAP1 POP SWAP2 SWAP1 POP JUMP JUMPDEST PUSH2 0x67D DUP4 PUSH2 0x648 JUMP JUMPDEST PUSH2 0x691 PUSH2 0x689 DUP3 PUSH2 0x66A JUMP JUMPDEST DUP5 DUP5 SLOAD PUSH2 0x5EC JUMP JUMPDEST DUP3 SSTORE POP POP POP POP JUMP JUMPDEST PUSH1 0x0 SWAP1 JUMP JUMPDEST PUSH2 0x6A6 PUSH2 0x699 JUMP JUMPDEST PUSH2 0x6B1 DUP2 DUP5 DUP5 PUSH2 0x674 JUMP JUMPDEST POP POP POP JUMP JUMPDEST JUMPDEST DUP2 DUP2 LT ISZERO PUSH2 0x6D5 JUMPI PUSH2 0x6CA PUSH1 0x0 DUP3 PUSH2 0x69E JUMP JUMPDEST PUSH1 0x1 DUP2 ADD SWAP1 POP PUSH2 0x6B7 JUMP JUMPDEST POP POP JUMP JUMPDEST PUSH1 0x1F DUP3 GT ISZERO PUSH2 0x71A JUMPI PUSH2 0x6EB DUP2 PUSH2 0x5BA JUMP JUMPDEST PUSH2 0x6F4 DUP5 PUSH2 0x5CF JUMP JUMPDEST DUP2 ADD PUSH1 0x20 DUP6 LT ISZERO PUSH2 0x703 JUMPI DUP2 SWAP1 POP JUMPDEST PUSH2 0x717 PUSH2 0x70F DUP6 PUSH2 0x5CF JUMP JUMPDEST DUP4 ADD DUP3 PUSH2 0x6B6 JUMP JUMPDEST POP POP JUMPDEST POP POP POP JUMP JUMPDEST PUSH1 0x0 DUP3 DUP3 SHR SWAP1 POP SWAP3 SWAP2 POP POP JUMP JUMPDEST PUSH1 0x0 PUSH2 0x73D PUSH1 0x0 NOT DUP5 PUSH1 0x8 MUL PUSH2 0x71F JUMP JUMPDEST NOT DUP1 DUP4 AND SWAP2 POP POP SWAP3 SWAP2 POP POP JUMP JUMPDEST PUSH1 0x0 PUSH2 0x756 DUP4 DUP4 PUSH2 0x72C JUMP JUMPDEST SWAP2 POP DUP3 PUSH1 0x2 MUL DUP3 OR SWAP1 POP SWAP3 SWAP2 POP POP JUMP JUMPDEST PUSH2 0x76F DUP3 PUSH2 0x43D JUMP JUMPDEST PUSH8 0xFFFFFFFFFFFFFFFF DUP2 GT ISZERO PUSH2 0x788 JUMPI PUSH2 0x787 PUSH2 0x52B JUMP JUMPDEST JUMPDEST PUSH2 0x792 DUP3 SLOAD PUSH2 0x589 JUMP JUMPDEST PUSH2 0x79D DUP3 DUP3 DUP6 PUSH2 0x6D9 JUMP JUMPDEST PUSH1 0x0 PUSH1 0x20 SWAP1 POP PUSH1 0x1F DUP4 GT PUSH1 0x1 DUP2 EQ PUSH2 0x7D0 JUMPI PUSH1 0x0 DUP5 ISZERO PUSH2 0x7BE JUMPI DUP3 DUP8 ADD MLOAD SWAP1 POP JUMPDEST PUSH2 0x7C8 DUP6 DUP3 PUSH2 0x74A JUMP JUMPDEST DUP7 SSTORE POP PUSH2 0x830 JUMP JUMPDEST PUSH1 0x1F NOT DUP5 AND PUSH2 0x7DE DUP7 PUSH2 0x5BA JUMP JUMPDEST PUSH1 0x0 JUMPDEST DUP3 DUP2 LT ISZERO PUSH2 0x806 JUMPI DUP5 DUP10 ADD MLOAD DUP3 SSTORE PUSH1 0x1 DUP3 ADD SWAP2 POP PUSH1 0x20 DUP6 ADD SWAP5 POP PUSH1 0x20 DUP2 ADD SWAP1 POP PUSH2 0x7E1 JUMP JUMPDEST DUP7 DUP4 LT ISZERO PUSH2 0x823 JUMPI DUP5 DUP10 ADD MLOAD PUSH2 0x81F PUSH1 0x1F DUP10 AND DUP3 PUSH2 0x72C JUMP JUMPDEST DUP4 SSTORE POP JUMPDEST PUSH1 0x1 PUSH1 0x2 DUP9 MUL ADD DUP9 SSTORE POP POP POP JUMPDEST POP POP POP POP POP POP JUMP INVALID LOG2 PUSH5 0x6970667358 0x22 SLT KECCAK256 STOP DIV 0x4D PUSH17 0x564CF618916D3E40404A07E60230DB1AF0 REVERT PUSH26 0x712FBBB1298DA17B6564736F6C63430008110033000000000000 "
				},
				"gasEstimates": {
					"creation": {
						"codeDepositCost": "431600",
						"executionCost": "468",
						"totalCost": "432068"
					},
					"external": {
						"bio_data()": "infinite",
						"mega()": "infinite",
						"mehan()": "infinite"
					}
				},
				"methodIdentifiers": {
					"bio_data()": "3c9daad5",
					"mega()": "c5f98a3f",
					"mehan()": "8ab8f200"
				}
			},
			"storageLayout": {
				"storage": [
					{
						"astId": 11,
						"contract": "remix_ide/struct.sol:Mehan",
						"label": "mehan",
						"offset": 0,
						"slot": "0",
						"type": "t_struct(bio)8_storage"
					},
					{
						"astId": 14,
						"contract": "remix_ide/struct.sol:Mehan",
						"label": "mega",
						"offset": 0,
						"slot": "3",
						"type": "t_struct(bio)8_storage"
					}
				],
				"types": {
					"t_string_storage": {
						"encoding": "bytes",
						"label": "string",
						"numberOfBytes": "32"
					},
					"t_struct(bio)8_storage": {
						"encoding": "inplace",
						"label": "struct Mehan.bio",
						"members": [
							{
								"astId": 3,
								"contract": "remix_ide/struct.sol:Mehan",
								"label": "name",
								"offset": 0,
								"slot": "0",
								"type": "t_string_storage"
							},
							{
								"astId": 5,
								"contract": "remix_ide/struct.sol:Mehan",
								"label": "age",
								"offset": 0,
								"slot": "1",
								"type": "t_uint256"
							},
							{
								"astId": 7,
								"contract": "remix_ide/struct.sol:Mehan",
								"label": "gender",
								"offset": 0,
								"slot": "2",
								"type": "t_string_storage"
							}
						],
						"numberOfBytes": "96"
					},
					"t_uint256": {
						"encoding": "inplace",
						"label": "uint256",
						"numberOfBytes": "32"
					}
				}
			},
			"userdoc": {
				"kind": "user",
				"methods": {},
				"version": 1
			}
		}
	}
}