{
	"remix ide/do-while.sol": {
		"name": {
			"abi": [
				{
					"inputs": [],
					"name": "b",
					"outputs": [
						{
							"internalType": "uint256",
							"name": "",
							"type": "uint256"
						}
					],
					"stateMutability": "view",
					"type": "function"
				},
				{
					"inputs": [],
					"name": "dowhile",
					"outputs": [
						{
							"internalType": "uint256",
							"name": "",
							"type": "uint256"
						}
					],
					"stateMutability": "nonpayable",
					"type": "function"
				}
			],
			"devdoc": {
				"kind": "dev",
				"methods": {},
				"version": 1
			},
			"evm": {
				"assembly": "    /* \"remix ide/do-while.sol\":56:280  contract name{\r... */\n  mstore(0x40, 0x80)\n    /* \"remix ide/do-while.sol\":83:84  0 */\n  0x00\n    /* \"remix ide/do-while.sol\":76:84  uint a=0 */\n  dup1\n  sstore\n    /* \"remix ide/do-while.sol\":105:106  0 */\n  0x00\n    /* \"remix ide/do-while.sol\":91:106  uint public b=0 */\n  0x01\n  sstore\n    /* \"remix ide/do-while.sol\":56:280  contract name{\r... */\n  callvalue\n  dup1\n  iszero\n  tag_1\n  jumpi\n  0x00\n  dup1\n  revert\ntag_1:\n  pop\n  dataSize(sub_0)\n  dup1\n  dataOffset(sub_0)\n  0x00\n  codecopy\n  0x00\n  return\nstop\n\nsub_0: assembly {\n        /* \"remix ide/do-while.sol\":56:280  contract name{\r... */\n      mstore(0x40, 0x80)\n      callvalue\n      dup1\n      iszero\n      tag_1\n      jumpi\n      0x00\n      dup1\n      revert\n    tag_1:\n      pop\n      jumpi(tag_2, lt(calldatasize, 0x04))\n      shr(0xe0, calldataload(0x00))\n      dup1\n      0x02a2cf0b\n      eq\n      tag_3\n      jumpi\n      dup1\n      0x4df7e3d0\n      eq\n      tag_4\n      jumpi\n    tag_2:\n      0x00\n      dup1\n      revert\n        /* \"remix ide/do-while.sol\":113:273  function dowhile() public returns(uint){\r... */\n    tag_3:\n      tag_5\n      tag_6\n      jump\t// in\n    tag_5:\n      mload(0x40)\n      tag_7\n      swap2\n      swap1\n      tag_8\n      jump\t// in\n    tag_7:\n      mload(0x40)\n      dup1\n      swap2\n      sub\n      swap1\n      return\n        /* \"remix ide/do-while.sol\":91:106  uint public b=0 */\n    tag_4:\n      tag_9\n      tag_10\n      jump\t// in\n    tag_9:\n      mload(0x40)\n      tag_11\n      swap2\n      swap1\n      tag_8\n      jump\t// in\n    tag_11:\n      mload(0x40)\n      dup1\n      swap2\n      sub\n      swap1\n      return\n        /* \"remix ide/do-while.sol\":113:273  function dowhile() public returns(uint){\r... */\n    tag_6:\n        /* \"remix ide/do-while.sol\":147:151  uint */\n      0x00\n        /* \"remix ide/do-while.sol\":163:249  do{\r... */\n    tag_13:\n        /* \"remix ide/do-while.sol\":176:177  b */\n      0x01\n      0x00\n        /* \"remix ide/do-while.sol\":176:179  b++ */\n      dup2\n      sload\n      dup1\n      swap3\n      swap2\n      swap1\n      tag_16\n      swap1\n      tag_17\n      jump\t// in\n    tag_16:\n      swap2\n      swap1\n      pop\n      sstore\n      pop\n        /* \"remix ide/do-while.sol\":196:197  5 */\n      0x05\n        /* \"remix ide/do-while.sol\":193:194  b */\n      sload(0x01)\n        /* \"remix ide/do-while.sol\":193:197  b==5 */\n      eq\n        /* \"remix ide/do-while.sol\":190:228  if(b==5){\r... */\n      iszero\n      tag_18\n      jumpi\n        /* \"remix ide/do-while.sol\":211:216  break */\n      jump(tag_14)\n        /* \"remix ide/do-while.sol\":190:228  if(b==5){\r... */\n    tag_18:\n        /* \"remix ide/do-while.sol\":246:247  0 */\n      0x00\n        /* \"remix ide/do-while.sol\":243:244  a */\n      dup1\n      sload\n        /* \"remix ide/do-while.sol\":243:247  a==0 */\n      eq\n        /* \"remix ide/do-while.sol\":163:249  do{\r... */\n      tag_13\n      jumpi\n    tag_14:\n        /* \"remix ide/do-while.sol\":264:265  b */\n      sload(0x01)\n        /* \"remix ide/do-while.sol\":257:265  return b */\n      swap1\n      pop\n        /* \"remix ide/do-while.sol\":113:273  function dowhile() public returns(uint){\r... */\n      swap1\n      jump\t// out\n        /* \"remix ide/do-while.sol\":91:106  uint public b=0 */\n    tag_10:\n      sload(0x01)\n      dup2\n      jump\t// out\n        /* \"#utility.yul\":7:125   */\n    tag_20:\n        /* \"#utility.yul\":94:118   */\n      tag_22\n        /* \"#utility.yul\":112:117   */\n      dup2\n        /* \"#utility.yul\":94:118   */\n      tag_23\n      jump\t// in\n    tag_22:\n        /* \"#utility.yul\":89:92   */\n      dup3\n        /* \"#utility.yul\":82:119   */\n      mstore\n        /* \"#utility.yul\":7:125   */\n      pop\n      pop\n      jump\t// out\n        /* \"#utility.yul\":131:353   */\n    tag_8:\n        /* \"#utility.yul\":224:228   */\n      0x00\n        /* \"#utility.yul\":262:264   */\n      0x20\n        /* \"#utility.yul\":251:260   */\n      dup3\n        /* \"#utility.yul\":247:265   */\n      add\n        /* \"#utility.yul\":239:265   */\n      swap1\n      pop\n        /* \"#utility.yul\":275:346   */\n      tag_25\n        /* \"#utility.yul\":343:344   */\n      0x00\n        /* \"#utility.yul\":332:341   */\n      dup4\n        /* \"#utility.yul\":328:345   */\n      add\n        /* \"#utility.yul\":319:325   */\n      dup5\n        /* \"#utility.yul\":275:346   */\n      tag_20\n      jump\t// in\n    tag_25:\n        /* \"#utility.yul\":131:353   */\n      swap3\n      swap2\n      pop\n      pop\n      jump\t// out\n        /* \"#utility.yul\":359:436   */\n    tag_23:\n        /* \"#utility.yul\":396:403   */\n      0x00\n        /* \"#utility.yul\":425:430   */\n      dup2\n        /* \"#utility.yul\":414:430   */\n      swap1\n      pop\n        /* \"#utility.yul\":359:436   */\n      swap2\n      swap1\n      pop\n      jump\t// out\n        /* \"#utility.yul\":442:675   */\n    tag_17:\n        /* \"#utility.yul\":481:484   */\n      0x00\n        /* \"#utility.yul\":504:528   */\n      tag_28\n        /* \"#utility.yul\":522:527   */\n      dup3\n        /* \"#utility.yul\":504:528   */\n      tag_23\n      jump\t// in\n    tag_28:\n        /* \"#utility.yul\":495:528   */\n      swap2\n      pop\n        /* \"#utility.yul\":550:616   */\n      0xffffffffffffffffffffffffffffffffffffffffffffffffffffffffffffffff\n        /* \"#utility.yul\":543:548   */\n      dup3\n        /* \"#utility.yul\":540:617   */\n      eq\n        /* \"#utility.yul\":537:640   */\n      iszero\n      tag_29\n      jumpi\n        /* \"#utility.yul\":620:638   */\n      tag_30\n      tag_31\n      jump\t// in\n    tag_30:\n        /* \"#utility.yul\":537:640   */\n    tag_29:\n        /* \"#utility.yul\":667:668   */\n      0x01\n        /* \"#utility.yul\":660:665   */\n      dup3\n        /* \"#utility.yul\":656:669   */\n      add\n        /* \"#utility.yul\":649:669   */\n      swap1\n      pop\n        /* \"#utility.yul\":442:675   */\n      swap2\n      swap1\n      pop\n      jump\t// out\n        /* \"#utility.yul\":681:861   */\n    tag_31:\n        /* \"#utility.yul\":729:806   */\n      0x4e487b7100000000000000000000000000000000000000000000000000000000\n        /* \"#utility.yul\":726:727   */\n      0x00\n        /* \"#utility.yul\":719:807   */\n      mstore\n        /* \"#utility.yul\":826:830   */\n      0x11\n        /* \"#utility.yul\":823:824   */\n      0x04\n        /* \"#utility.yul\":816:831   */\n      mstore\n        /* \"#utility.yul\":850:854   */\n      0x24\n        /* \"#utility.yul\":847:848   */\n      0x00\n        /* \"#utility.yul\":840:855   */\n      revert\n\n    auxdata: 0xa2646970667358221220fc82d72fb08e0ae5775f5c6de37cf4ad7c4d57305d2f8e623ed7e8ef0770276a64736f6c63430008070033\n}\n",
				"bytecode": {
					"linkReferences": {},
					"object": "608060405260008055600060015534801561001957600080fd5b5061019c806100296000396000f3fe608060405234801561001057600080fd5b50600436106100365760003560e01c806302a2cf0b1461003b5780634df7e3d014610059575b600080fd5b610043610077565b60405161005091906100c9565b60405180910390f35b6100616100b4565b60405161006e91906100c9565b60405180910390f35b60005b6001600081548092919061008d906100ee565b9190505550600560015414156100a2576100ac565b600080541461007a575b600154905090565b60015481565b6100c3816100e4565b82525050565b60006020820190506100de60008301846100ba565b92915050565b6000819050919050565b60006100f9826100e4565b91507fffffffffffffffffffffffffffffffffffffffffffffffffffffffffffffffff82141561012c5761012b610137565b5b600182019050919050565b7f4e487b7100000000000000000000000000000000000000000000000000000000600052601160045260246000fdfea2646970667358221220fc82d72fb08e0ae5775f5c6de37cf4ad7c4d57305d2f8e623ed7e8ef0770276a64736f6c63430008070033",
					"opcodes": "PUSH1 0x80 PUSH1 0x40 MSTORE PUSH1 0x0 DUP1 SSTORE PUSH1 0x0 PUSH1 0x1 SSTORE CALLVALUE DUP1 ISZERO PUSH2 0x19 JUMPI PUSH1 0x0 DUP1 REVERT JUMPDEST POP PUSH2 0x19C DUP1 PUSH2 0x29 PUSH1 0x0 CODECOPY PUSH1 0x0 RETURN INVALID PUSH1 0x80 PUSH1 0x40 MSTORE CALLVALUE DUP1 ISZERO PUSH2 0x10 JUMPI PUSH1 0x0 DUP1 REVERT JUMPDEST POP PUSH1 0x4 CALLDATASIZE LT PUSH2 0x36 JUMPI PUSH1 0x0 CALLDATALOAD PUSH1 0xE0 SHR DUP1 PUSH4 0x2A2CF0B EQ PUSH2 0x3B JUMPI DUP1 PUSH4 0x4DF7E3D0 EQ PUSH2 0x59 JUMPI JUMPDEST PUSH1 0x0 DUP1 REVERT JUMPDEST PUSH2 0x43 PUSH2 0x77 JUMP JUMPDEST PUSH1 0x40 MLOAD PUSH2 0x50 SWAP2 SWAP1 PUSH2 0xC9 JUMP JUMPDEST PUSH1 0x40 MLOAD DUP1 SWAP2 SUB SWAP1 RETURN JUMPDEST PUSH2 0x61 PUSH2 0xB4 JUMP JUMPDEST PUSH1 0x40 MLOAD PUSH2 0x6E SWAP2 SWAP1 PUSH2 0xC9 JUMP JUMPDEST PUSH1 0x40 MLOAD DUP1 SWAP2 SUB SWAP1 RETURN JUMPDEST PUSH1 0x0 JUMPDEST PUSH1 0x1 PUSH1 0x0 DUP2 SLOAD DUP1 SWAP3 SWAP2 SWAP1 PUSH2 0x8D SWAP1 PUSH2 0xEE JUMP JUMPDEST SWAP2 SWAP1 POP SSTORE POP PUSH1 0x5 PUSH1 0x1 SLOAD EQ ISZERO PUSH2 0xA2 JUMPI PUSH2 0xAC JUMP JUMPDEST PUSH1 0x0 DUP1 SLOAD EQ PUSH2 0x7A JUMPI JUMPDEST PUSH1 0x1 SLOAD SWAP1 POP SWAP1 JUMP JUMPDEST PUSH1 0x1 SLOAD DUP2 JUMP JUMPDEST PUSH2 0xC3 DUP2 PUSH2 0xE4 JUMP JUMPDEST DUP3 MSTORE POP POP JUMP JUMPDEST PUSH1 0x0 PUSH1 0x20 DUP3 ADD SWAP1 POP PUSH2 0xDE PUSH1 0x0 DUP4 ADD DUP5 PUSH2 0xBA JUMP JUMPDEST SWAP3 SWAP2 POP POP JUMP JUMPDEST PUSH1 0x0 DUP2 SWAP1 POP SWAP2 SWAP1 POP JUMP JUMPDEST PUSH1 0x0 PUSH2 0xF9 DUP3 PUSH2 0xE4 JUMP JUMPDEST SWAP2 POP PUSH32 0xFFFFFFFFFFFFFFFFFFFFFFFFFFFFFFFFFFFFFFFFFFFFFFFFFFFFFFFFFFFFFFFF DUP3 EQ ISZERO PUSH2 0x12C JUMPI PUSH2 0x12B PUSH2 0x137 JUMP JUMPDEST JUMPDEST PUSH1 0x1 DUP3 ADD SWAP1 POP SWAP2 SWAP1 POP JUMP JUMPDEST PUSH32 0x4E487B7100000000000000000000000000000000000000000000000000000000 PUSH1 0x0 MSTORE PUSH1 0x11 PUSH1 0x4 MSTORE PUSH1 0x24 PUSH1 0x0 REVERT INVALID LOG2 PUSH5 0x6970667358 0x22 SLT KECCAK256 0xFC DUP3 0xD7 0x2F 0xB0 DUP15 EXP 0xE5 PUSH24 0x5F5C6DE37CF4AD7C4D57305D2F8E623ED7E8EF0770276A64 PUSH20 0x6F6C634300080700330000000000000000000000 "
				},
				"gasEstimates": {
					"creation": {
						"codeDepositCost": "82400",
						"executionCost": "10141",
						"totalCost": "92541"
					},
					"external": {
						"b()": "2429",
						"dowhile()": "infinite"
					}
				},
				"methodIdentifiers": {
					"b()": "4df7e3d0",
					"dowhile()": "02a2cf0b"
				}
			},
			"storageLayout": {
				"storage": [
					{
						"astId": 4,
						"contract": "remix ide/do-while.sol:name",
						"label": "a",
						"offset": 0,
						"slot": "0",
						"type": "t_uint256"
					},
					{
						"astId": 7,
						"contract": "remix ide/do-while.sol:name",
						"label": "b",
						"offset": 0,
						"slot": "1",
						"type": "t_uint256"
					}
				],
				"types": {
					"t_uint256": {
						"encoding": "inplace",
						"label": "uint256",
						"numberOfBytes": "32"
					}
				}
			},
			"userdoc": {
				"kind": "user",
				"methods": {},
				"version": 1
			}
		}
	}
}