{
	"remix ide/forloop.sol": {
		"Mehan": {
			"abi": [
				{
					"inputs": [],
					"name": "a",
					"outputs": [
						{
							"internalType": "uint256",
							"name": "",
							"type": "uint256"
						}
					],
					"stateMutability": "view",
					"type": "function"
				},
				{
					"inputs": [],
					"name": "forr",
					"outputs": [],
					"stateMutability": "nonpayable",
					"type": "function"
				}
			],
			"devdoc": {
				"kind": "dev",
				"methods": {},
				"version": 1
			},
			"evm": {
				"assembly": "    /* \"remix ide/forloop.sol\":56:197  contract Mehan{\r... */\n  mstore(0x40, 0x80)\n    /* \"remix ide/forloop.sol\":91:92  0 */\n  0x00\n    /* \"remix ide/forloop.sol\":77:92  uint public a=0 */\n  dup1\n  sstore\n    /* \"remix ide/forloop.sol\":56:197  contract Mehan{\r... */\n  callvalue\n  dup1\n  iszero\n  tag_1\n  jumpi\n  0x00\n  dup1\n  revert\ntag_1:\n  pop\n  dataSize(sub_0)\n  dup1\n  dataOffset(sub_0)\n  0x00\n  codecopy\n  0x00\n  return\nstop\n\nsub_0: assembly {\n        /* \"remix ide/forloop.sol\":56:197  contract Mehan{\r... */\n      mstore(0x40, 0x80)\n      callvalue\n      dup1\n      iszero\n      tag_1\n      jumpi\n      0x00\n      dup1\n      revert\n    tag_1:\n      pop\n      jumpi(tag_2, lt(calldatasize, 0x04))\n      shr(0xe0, calldataload(0x00))\n      dup1\n      0x0dbe671f\n      eq\n      tag_3\n      jumpi\n      dup1\n      0xc2d7cd40\n      eq\n      tag_4\n      jumpi\n    tag_2:\n      0x00\n      dup1\n      revert\n        /* \"remix ide/forloop.sol\":77:92  uint public a=0 */\n    tag_3:\n      tag_5\n      tag_6\n      jump\t// in\n    tag_5:\n      mload(0x40)\n      tag_7\n      swap2\n      swap1\n      tag_8\n      jump\t// in\n    tag_7:\n      mload(0x40)\n      dup1\n      swap2\n      sub\n      swap1\n      return\n        /* \"remix ide/forloop.sol\":99:194  function forr() public  {\r... */\n    tag_4:\n      tag_9\n      tag_10\n      jump\t// in\n    tag_9:\n      stop\n        /* \"remix ide/forloop.sol\":77:92  uint public a=0 */\n    tag_6:\n      sload(0x00)\n      dup2\n      jump\t// out\n        /* \"remix ide/forloop.sol\":99:194  function forr() public  {\r... */\n    tag_10:\n        /* \"remix ide/forloop.sol\":138:144  uint i */\n      0x00\n        /* \"remix ide/forloop.sol\":134:187  for(uint i=0;i<=10;i++){\r... */\n    tag_12:\n        /* \"remix ide/forloop.sol\":150:152  10 */\n      0x0a\n        /* \"remix ide/forloop.sol\":147:148  i */\n      dup2\n        /* \"remix ide/forloop.sol\":147:152  i<=10 */\n      gt\n        /* \"remix ide/forloop.sol\":134:187  for(uint i=0;i<=10;i++){\r... */\n      tag_13\n      jumpi\n        /* \"remix ide/forloop.sol\":172:173  a */\n      0x00\n      dup1\n        /* \"remix ide/forloop.sol\":172:175  a++ */\n      dup2\n      sload\n      dup1\n      swap3\n      swap2\n      swap1\n      tag_15\n      swap1\n      tag_16\n      jump\t// in\n    tag_15:\n      swap2\n      swap1\n      pop\n      sstore\n      pop\n        /* \"remix ide/forloop.sol\":153:156  i++ */\n      dup1\n      dup1\n      tag_17\n      swap1\n      tag_16\n      jump\t// in\n    tag_17:\n      swap2\n      pop\n      pop\n        /* \"remix ide/forloop.sol\":134:187  for(uint i=0;i<=10;i++){\r... */\n      jump(tag_12)\n    tag_13:\n      pop\n        /* \"remix ide/forloop.sol\":99:194  function forr() public  {\r... */\n      jump\t// out\n        /* \"#utility.yul\":7:125   */\n    tag_19:\n        /* \"#utility.yul\":94:118   */\n      tag_21\n        /* \"#utility.yul\":112:117   */\n      dup2\n        /* \"#utility.yul\":94:118   */\n      tag_22\n      jump\t// in\n    tag_21:\n        /* \"#utility.yul\":89:92   */\n      dup3\n        /* \"#utility.yul\":82:119   */\n      mstore\n        /* \"#utility.yul\":7:125   */\n      pop\n      pop\n      jump\t// out\n        /* \"#utility.yul\":131:353   */\n    tag_8:\n        /* \"#utility.yul\":224:228   */\n      0x00\n        /* \"#utility.yul\":262:264   */\n      0x20\n        /* \"#utility.yul\":251:260   */\n      dup3\n        /* \"#utility.yul\":247:265   */\n      add\n        /* \"#utility.yul\":239:265   */\n      swap1\n      pop\n        /* \"#utility.yul\":275:346   */\n      tag_24\n        /* \"#utility.yul\":343:344   */\n      0x00\n        /* \"#utility.yul\":332:341   */\n      dup4\n        /* \"#utility.yul\":328:345   */\n      add\n        /* \"#utility.yul\":319:325   */\n      dup5\n        /* \"#utility.yul\":275:346   */\n      tag_19\n      jump\t// in\n    tag_24:\n        /* \"#utility.yul\":131:353   */\n      swap3\n      swap2\n      pop\n      pop\n      jump\t// out\n        /* \"#utility.yul\":359:436   */\n    tag_22:\n        /* \"#utility.yul\":396:403   */\n      0x00\n        /* \"#utility.yul\":425:430   */\n      dup2\n        /* \"#utility.yul\":414:430   */\n      swap1\n      pop\n        /* \"#utility.yul\":359:436   */\n      swap2\n      swap1\n      pop\n      jump\t// out\n        /* \"#utility.yul\":442:675   */\n    tag_16:\n        /* \"#utility.yul\":481:484   */\n      0x00\n        /* \"#utility.yul\":504:528   */\n      tag_27\n        /* \"#utility.yul\":522:527   */\n      dup3\n        /* \"#utility.yul\":504:528   */\n      tag_22\n      jump\t// in\n    tag_27:\n        /* \"#utility.yul\":495:528   */\n      swap2\n      pop\n        /* \"#utility.yul\":550:616   */\n      0xffffffffffffffffffffffffffffffffffffffffffffffffffffffffffffffff\n        /* \"#utility.yul\":543:548   */\n      dup3\n        /* \"#utility.yul\":540:617   */\n      eq\n        /* \"#utility.yul\":537:640   */\n      iszero\n      tag_28\n      jumpi\n        /* \"#utility.yul\":620:638   */\n      tag_29\n      tag_30\n      jump\t// in\n    tag_29:\n        /* \"#utility.yul\":537:640   */\n    tag_28:\n        /* \"#utility.yul\":667:668   */\n      0x01\n        /* \"#utility.yul\":660:665   */\n      dup3\n        /* \"#utility.yul\":656:669   */\n      add\n        /* \"#utility.yul\":649:669   */\n      swap1\n      pop\n        /* \"#utility.yul\":442:675   */\n      swap2\n      swap1\n      pop\n      jump\t// out\n        /* \"#utility.yul\":681:861   */\n    tag_30:\n        /* \"#utility.yul\":729:806   */\n      0x4e487b7100000000000000000000000000000000000000000000000000000000\n        /* \"#utility.yul\":726:727   */\n      0x00\n        /* \"#utility.yul\":719:807   */\n      mstore\n        /* \"#utility.yul\":826:830   */\n      0x11\n        /* \"#utility.yul\":823:824   */\n      0x04\n        /* \"#utility.yul\":816:831   */\n      mstore\n        /* \"#utility.yul\":850:854   */\n      0x24\n        /* \"#utility.yul\":847:848   */\n      0x00\n        /* \"#utility.yul\":840:855   */\n      revert\n\n    auxdata: 0xa2646970667358221220c46dc4aa4cf72326efb5e372420315ac61e3491e86f429adc90c5ff098467acc64736f6c63430008070033\n}\n",
				"bytecode": {
					"linkReferences": {},
					"object": "60806040526000805534801561001457600080fd5b50610183806100246000396000f3fe608060405234801561001057600080fd5b50600436106100365760003560e01c80630dbe671f1461003b578063c2d7cd4014610059575b600080fd5b610043610063565b60405161005091906100b0565b60405180910390f35b610061610069565b005b60005481565b60005b600a811161009e57600080815480929190610086906100d5565b91905055508080610096906100d5565b91505061006c565b50565b6100aa816100cb565b82525050565b60006020820190506100c560008301846100a1565b92915050565b6000819050919050565b60006100e0826100cb565b91507fffffffffffffffffffffffffffffffffffffffffffffffffffffffffffffffff8214156101135761011261011e565b5b600182019050919050565b7f4e487b7100000000000000000000000000000000000000000000000000000000600052601160045260246000fdfea2646970667358221220c46dc4aa4cf72326efb5e372420315ac61e3491e86f429adc90c5ff098467acc64736f6c63430008070033",
					"opcodes": "PUSH1 0x80 PUSH1 0x40 MSTORE PUSH1 0x0 DUP1 SSTORE CALLVALUE DUP1 ISZERO PUSH2 0x14 JUMPI PUSH1 0x0 DUP1 REVERT JUMPDEST POP PUSH2 0x183 DUP1 PUSH2 0x24 PUSH1 0x0 CODECOPY PUSH1 0x0 RETURN INVALID PUSH1 0x80 PUSH1 0x40 MSTORE CALLVALUE DUP1 ISZERO PUSH2 0x10 JUMPI PUSH1 0x0 DUP1 REVERT JUMPDEST POP PUSH1 0x4 CALLDATASIZE LT PUSH2 0x36 JUMPI PUSH1 0x0 CALLDATALOAD PUSH1 0xE0 SHR DUP1 PUSH4 0xDBE671F EQ PUSH2 0x3B JUMPI DUP1 PUSH4 0xC2D7CD40 EQ PUSH2 0x59 JUMPI JUMPDEST PUSH1 0x0 DUP1 REVERT JUMPDEST PUSH2 0x43 PUSH2 0x63 JUMP JUMPDEST PUSH1 0x40 MLOAD PUSH2 0x50 SWAP2 SWAP1 PUSH2 0xB0 JUMP JUMPDEST PUSH1 0x40 MLOAD DUP1 SWAP2 SUB SWAP1 RETURN JUMPDEST PUSH2 0x61 PUSH2 0x69 JUMP JUMPDEST STOP JUMPDEST PUSH1 0x0 SLOAD DUP2 JUMP JUMPDEST PUSH1 0x0 JUMPDEST PUSH1 0xA DUP2 GT PUSH2 0x9E JUMPI PUSH1 0x0 DUP1 DUP2 SLOAD DUP1 SWAP3 SWAP2 SWAP1 PUSH2 0x86 SWAP1 PUSH2 0xD5 JUMP JUMPDEST SWAP2 SWAP1 POP SSTORE POP DUP1 DUP1 PUSH2 0x96 SWAP1 PUSH2 0xD5 JUMP JUMPDEST SWAP2 POP POP PUSH2 0x6C JUMP JUMPDEST POP JUMP JUMPDEST PUSH2 0xAA DUP2 PUSH2 0xCB JUMP JUMPDEST DUP3 MSTORE POP POP JUMP JUMPDEST PUSH1 0x0 PUSH1 0x20 DUP3 ADD SWAP1 POP PUSH2 0xC5 PUSH1 0x0 DUP4 ADD DUP5 PUSH2 0xA1 JUMP JUMPDEST SWAP3 SWAP2 POP POP JUMP JUMPDEST PUSH1 0x0 DUP2 SWAP1 POP SWAP2 SWAP1 POP JUMP JUMPDEST PUSH1 0x0 PUSH2 0xE0 DUP3 PUSH2 0xCB JUMP JUMPDEST SWAP2 POP PUSH32 0xFFFFFFFFFFFFFFFFFFFFFFFFFFFFFFFFFFFFFFFFFFFFFFFFFFFFFFFFFFFFFFFF DUP3 EQ ISZERO PUSH2 0x113 JUMPI PUSH2 0x112 PUSH2 0x11E JUMP JUMPDEST JUMPDEST PUSH1 0x1 DUP3 ADD SWAP1 POP SWAP2 SWAP1 POP JUMP JUMPDEST PUSH32 0x4E487B7100000000000000000000000000000000000000000000000000000000 PUSH1 0x0 MSTORE PUSH1 0x11 PUSH1 0x4 MSTORE PUSH1 0x24 PUSH1 0x0 REVERT INVALID LOG2 PUSH5 0x6970667358 0x22 SLT KECCAK256 0xC4 PUSH14 0xC4AA4CF72326EFB5E372420315AC PUSH2 0xE349 0x1E DUP7 DELEGATECALL 0x29 0xAD 0xC9 0xC 0x5F CREATE SWAP9 CHAINID PUSH27 0xCC64736F6C63430008070033000000000000000000000000000000 "
				},
				"gasEstimates": {
					"creation": {
						"codeDepositCost": "77400",
						"executionCost": "5135",
						"totalCost": "82535"
					},
					"external": {
						"a()": "2407",
						"forr()": "infinite"
					}
				},
				"methodIdentifiers": {
					"a()": "0dbe671f",
					"forr()": "c2d7cd40"
				}
			},
			"storageLayout": {
				"storage": [
					{
						"astId": 4,
						"contract": "remix ide/forloop.sol:Mehan",
						"label": "a",
						"offset": 0,
						"slot": "0",
						"type": "t_uint256"
					}
				],
				"types": {
					"t_uint256": {
						"encoding": "inplace",
						"label": "uint256",
						"numberOfBytes": "32"
					}
				}
			},
			"userdoc": {
				"kind": "user",
				"methods": {},
				"version": 1
			}
		}
	}
}