{
	"remix_ide/TRANSACTION_func.sol": {
		"trans": {
			"abi": [
				{
					"inputs": [
						{
							"internalType": "address",
							"name": "_to",
							"type": "address"
						}
					],
					"name": "cal",
					"outputs": [],
					"stateMutability": "nonpayable",
					"type": "function"
				},
				{
					"inputs": [
						{
							"internalType": "address",
							"name": "_to",
							"type": "address"
						}
					],
					"name": "sen",
					"outputs": [],
					"stateMutability": "nonpayable",
					"type": "function"
				},
				{
					"inputs": [
						{
							"internalType": "address",
							"name": "_to",
							"type": "address"
						}
					],
					"name": "tra",
					"outputs": [],
					"stateMutability": "nonpayable",
					"type": "function"
				},
				{
					"stateMutability": "payable",
					"type": "receive"
				}
			],
			"devdoc": {
				"kind": "dev",
				"methods": {},
				"version": 1
			},
			"evm": {
				"assembly": "    /* \"remix_ide/TRANSACTION_func.sol\":56:515  contract trans{... */\n  mstore(0x40, 0x80)\n  callvalue\n  dup1\n  iszero\n  tag_1\n  jumpi\n  0x00\n  dup1\n  revert\ntag_1:\n  pop\n  dataSize(sub_0)\n  dup1\n  dataOffset(sub_0)\n  0x00\n  codecopy\n  0x00\n  return\nstop\n\nsub_0: assembly {\n        /* \"remix_ide/TRANSACTION_func.sol\":56:515  contract trans{... */\n      mstore(0x40, 0x80)\n      jumpi(tag_1, lt(calldatasize, 0x04))\n      shr(0xe0, calldataload(0x00))\n      dup1\n      0x378e1526\n      eq\n      tag_3\n      jumpi\n      dup1\n      0x498eeefb\n      eq\n      tag_4\n      jumpi\n      dup1\n      0xcea7edb8\n      eq\n      tag_5\n      jumpi\n      jump(tag_2)\n    tag_1:\n      jumpi(tag_2, calldatasize)\n      stop\n    tag_2:\n      0x00\n      dup1\n      revert\n        /* \"remix_ide/TRANSACTION_func.sol\":357:512  function cal(address _to) external{... */\n    tag_3:\n      callvalue\n      dup1\n      iszero\n      tag_8\n      jumpi\n      0x00\n      dup1\n      revert\n    tag_8:\n      pop\n      tag_9\n      0x04\n      dup1\n      calldatasize\n      sub\n      dup2\n      add\n      swap1\n      tag_10\n      swap2\n      swap1\n      tag_11\n      jump\t// in\n    tag_10:\n      tag_12\n      jump\t// in\n    tag_9:\n      stop\n        /* \"remix_ide/TRANSACTION_func.sol\":112:210  function tra(address _to)  external{... */\n    tag_4:\n      callvalue\n      dup1\n      iszero\n      tag_13\n      jumpi\n      0x00\n      dup1\n      revert\n    tag_13:\n      pop\n      tag_14\n      0x04\n      dup1\n      calldatasize\n      sub\n      dup2\n      add\n      swap1\n      tag_15\n      swap2\n      swap1\n      tag_11\n      jump\t// in\n    tag_15:\n      tag_16\n      jump\t// in\n    tag_14:\n      stop\n        /* \"remix_ide/TRANSACTION_func.sol\":216:351  function sen(address _to) external{... */\n    tag_5:\n      callvalue\n      dup1\n      iszero\n      tag_17\n      jumpi\n      0x00\n      dup1\n      revert\n    tag_17:\n      pop\n      tag_18\n      0x04\n      dup1\n      calldatasize\n      sub\n      dup2\n      add\n      swap1\n      tag_19\n      swap2\n      swap1\n      tag_11\n      jump\t// in\n    tag_19:\n      tag_20\n      jump\t// in\n    tag_18:\n      stop\n        /* \"remix_ide/TRANSACTION_func.sol\":357:512  function cal(address _to) external{... */\n    tag_12:\n        /* \"remix_ide/TRANSACTION_func.sol\":403:415  bool success */\n      0x00\n        /* \"remix_ide/TRANSACTION_func.sol\":426:429  _to */\n      dup2\n        /* \"remix_ide/TRANSACTION_func.sol\":418:435  payable(_to).call */\n      0xffffffffffffffffffffffffffffffffffffffff\n      and\n        /* \"remix_ide/TRANSACTION_func.sol\":443:464  address(this).balance */\n      selfbalance\n        /* \"remix_ide/TRANSACTION_func.sol\":418:469  payable(_to).call{value: address(this).balance}(\"\") */\n      mload(0x40)\n      tag_22\n      swap1\n      tag_23\n      jump\t// in\n    tag_22:\n      0x00\n      mload(0x40)\n      dup1\n      dup4\n      sub\n      dup2\n      dup6\n      dup8\n      gas\n      call\n      swap3\n      pop\n      pop\n      pop\n      returndatasize\n      dup1\n      0x00\n      dup2\n      eq\n      tag_26\n      jumpi\n      mload(0x40)\n      swap2\n      pop\n      and(add(returndatasize, 0x3f), not(0x1f))\n      dup3\n      add\n      0x40\n      mstore\n      returndatasize\n      dup3\n      mstore\n      returndatasize\n      0x00\n      0x20\n      dup5\n      add\n      returndatacopy\n      jump(tag_25)\n    tag_26:\n      0x60\n      swap2\n      pop\n    tag_25:\n      pop\n        /* \"remix_ide/TRANSACTION_func.sol\":402:469  (bool success,)=payable(_to).call{value: address(this).balance}(\"\") */\n      pop\n      swap1\n      pop\n        /* \"remix_ide/TRANSACTION_func.sol\":488:495  success */\n      dup1\n        /* \"remix_ide/TRANSACTION_func.sol\":480:504  require(success,\"false\") */\n      tag_27\n      jumpi\n      mload(0x40)\n      0x08c379a000000000000000000000000000000000000000000000000000000000\n      dup2\n      mstore\n      0x04\n      add\n      tag_28\n      swap1\n      tag_29\n      jump\t// in\n    tag_28:\n      mload(0x40)\n      dup1\n      swap2\n      sub\n      swap1\n      revert\n    tag_27:\n        /* \"remix_ide/TRANSACTION_func.sol\":391:512  {... */\n      pop\n        /* \"remix_ide/TRANSACTION_func.sol\":357:512  function cal(address _to) external{... */\n      pop\n      jump\t// out\n        /* \"remix_ide/TRANSACTION_func.sol\":112:210  function tra(address _to)  external{... */\n    tag_16:\n        /* \"remix_ide/TRANSACTION_func.sol\":166:169  _to */\n      dup1\n        /* \"remix_ide/TRANSACTION_func.sol\":158:179  payable(_to).transfer */\n      0xffffffffffffffffffffffffffffffffffffffff\n      and\n        /* \"remix_ide/TRANSACTION_func.sol\":158:202  payable(_to).transfer(address(this).balance) */\n      0x08fc\n        /* \"remix_ide/TRANSACTION_func.sol\":180:201  address(this).balance */\n      selfbalance\n        /* \"remix_ide/TRANSACTION_func.sol\":158:202  payable(_to).transfer(address(this).balance) */\n      swap1\n      dup2\n      iszero\n      mul\n      swap1\n      mload(0x40)\n      0x00\n      mload(0x40)\n      dup1\n      dup4\n      sub\n      dup2\n      dup6\n      dup9\n      dup9\n      call\n      swap4\n      pop\n      pop\n      pop\n      pop\n      iszero\n      dup1\n      iszero\n      tag_32\n      jumpi\n      returndatasize\n      0x00\n      dup1\n      returndatacopy\n      revert(0x00, returndatasize)\n    tag_32:\n      pop\n        /* \"remix_ide/TRANSACTION_func.sol\":112:210  function tra(address _to)  external{... */\n      pop\n      jump\t// out\n        /* \"remix_ide/TRANSACTION_func.sol\":216:351  function sen(address _to) external{... */\n    tag_20:\n        /* \"remix_ide/TRANSACTION_func.sol\":261:269  bool res */\n      0x00\n        /* \"remix_ide/TRANSACTION_func.sol\":279:282  _to */\n      dup2\n        /* \"remix_ide/TRANSACTION_func.sol\":271:288  payable(_to).send */\n      0xffffffffffffffffffffffffffffffffffffffff\n      and\n        /* \"remix_ide/TRANSACTION_func.sol\":271:311  payable(_to).send(address(this).balance) */\n      0x08fc\n        /* \"remix_ide/TRANSACTION_func.sol\":289:310  address(this).balance */\n      selfbalance\n        /* \"remix_ide/TRANSACTION_func.sol\":271:311  payable(_to).send(address(this).balance) */\n      swap1\n      dup2\n      iszero\n      mul\n      swap1\n      mload(0x40)\n      0x00\n      mload(0x40)\n      dup1\n      dup4\n      sub\n      dup2\n      dup6\n      dup9\n      dup9\n      call\n      swap4\n      pop\n      pop\n      pop\n      pop\n        /* \"remix_ide/TRANSACTION_func.sol\":261:311  bool res= payable(_to).send(address(this).balance) */\n      swap1\n      pop\n        /* \"remix_ide/TRANSACTION_func.sol\":330:333  res */\n      dup1\n        /* \"remix_ide/TRANSACTION_func.sol\":322:343  require(res, \"FALSE\") */\n      tag_35\n      jumpi\n      mload(0x40)\n      0x08c379a000000000000000000000000000000000000000000000000000000000\n      dup2\n      mstore\n      0x04\n      add\n      tag_36\n      swap1\n      tag_37\n      jump\t// in\n    tag_36:\n      mload(0x40)\n      dup1\n      swap2\n      sub\n      swap1\n      revert\n    tag_35:\n        /* \"remix_ide/TRANSACTION_func.sol\":250:351  {... */\n      pop\n        /* \"remix_ide/TRANSACTION_func.sol\":216:351  function sen(address _to) external{... */\n      pop\n      jump\t// out\n        /* \"#utility.yul\":88:205   */\n    tag_39:\n        /* \"#utility.yul\":197:198   */\n      0x00\n        /* \"#utility.yul\":194:195   */\n      dup1\n        /* \"#utility.yul\":187:199   */\n      revert\n        /* \"#utility.yul\":334:460   */\n    tag_41:\n        /* \"#utility.yul\":371:378   */\n      0x00\n        /* \"#utility.yul\":411:453   */\n      0xffffffffffffffffffffffffffffffffffffffff\n        /* \"#utility.yul\":404:409   */\n      dup3\n        /* \"#utility.yul\":400:454   */\n      and\n        /* \"#utility.yul\":389:454   */\n      swap1\n      pop\n        /* \"#utility.yul\":334:460   */\n      swap2\n      swap1\n      pop\n      jump\t// out\n        /* \"#utility.yul\":466:562   */\n    tag_42:\n        /* \"#utility.yul\":503:510   */\n      0x00\n        /* \"#utility.yul\":532:556   */\n      tag_59\n        /* \"#utility.yul\":550:555   */\n      dup3\n        /* \"#utility.yul\":532:556   */\n      tag_41\n      jump\t// in\n    tag_59:\n        /* \"#utility.yul\":521:556   */\n      swap1\n      pop\n        /* \"#utility.yul\":466:562   */\n      swap2\n      swap1\n      pop\n      jump\t// out\n        /* \"#utility.yul\":568:690   */\n    tag_43:\n        /* \"#utility.yul\":641:665   */\n      tag_61\n        /* \"#utility.yul\":659:664   */\n      dup2\n        /* \"#utility.yul\":641:665   */\n      tag_42\n      jump\t// in\n    tag_61:\n        /* \"#utility.yul\":634:639   */\n      dup2\n        /* \"#utility.yul\":631:666   */\n      eq\n        /* \"#utility.yul\":621:684   */\n      tag_62\n      jumpi\n        /* \"#utility.yul\":680:681   */\n      0x00\n        /* \"#utility.yul\":677:678   */\n      dup1\n        /* \"#utility.yul\":670:682   */\n      revert\n        /* \"#utility.yul\":621:684   */\n    tag_62:\n        /* \"#utility.yul\":568:690   */\n      pop\n      jump\t// out\n        /* \"#utility.yul\":696:835   */\n    tag_44:\n        /* \"#utility.yul\":742:747   */\n      0x00\n        /* \"#utility.yul\":780:786   */\n      dup2\n        /* \"#utility.yul\":767:787   */\n      calldataload\n        /* \"#utility.yul\":758:787   */\n      swap1\n      pop\n        /* \"#utility.yul\":796:829   */\n      tag_64\n        /* \"#utility.yul\":823:828   */\n      dup2\n        /* \"#utility.yul\":796:829   */\n      tag_43\n      jump\t// in\n    tag_64:\n        /* \"#utility.yul\":696:835   */\n      swap3\n      swap2\n      pop\n      pop\n      jump\t// out\n        /* \"#utility.yul\":841:1170   */\n    tag_11:\n        /* \"#utility.yul\":900:906   */\n      0x00\n        /* \"#utility.yul\":949:951   */\n      0x20\n        /* \"#utility.yul\":937:946   */\n      dup3\n        /* \"#utility.yul\":928:935   */\n      dup5\n        /* \"#utility.yul\":924:947   */\n      sub\n        /* \"#utility.yul\":920:952   */\n      slt\n        /* \"#utility.yul\":917:1036   */\n      iszero\n      tag_66\n      jumpi\n        /* \"#utility.yul\":955:1034   */\n      tag_67\n      tag_39\n      jump\t// in\n    tag_67:\n        /* \"#utility.yul\":917:1036   */\n    tag_66:\n        /* \"#utility.yul\":1075:1076   */\n      0x00\n        /* \"#utility.yul\":1100:1153   */\n      tag_68\n        /* \"#utility.yul\":1145:1152   */\n      dup5\n        /* \"#utility.yul\":1136:1142   */\n      dup3\n        /* \"#utility.yul\":1125:1134   */\n      dup6\n        /* \"#utility.yul\":1121:1143   */\n      add\n        /* \"#utility.yul\":1100:1153   */\n      tag_44\n      jump\t// in\n    tag_68:\n        /* \"#utility.yul\":1090:1153   */\n      swap2\n      pop\n        /* \"#utility.yul\":1046:1163   */\n      pop\n        /* \"#utility.yul\":841:1170   */\n      swap3\n      swap2\n      pop\n      pop\n      jump\t// out\n        /* \"#utility.yul\":1176:1323   */\n    tag_45:\n        /* \"#utility.yul\":1277:1288   */\n      0x00\n        /* \"#utility.yul\":1314:1317   */\n      dup2\n        /* \"#utility.yul\":1299:1317   */\n      swap1\n      pop\n        /* \"#utility.yul\":1176:1323   */\n      swap3\n      swap2\n      pop\n      pop\n      jump\t// out\n        /* \"#utility.yul\":1329:1443   */\n    tag_46:\n      pop\n      jump\t// out\n        /* \"#utility.yul\":1449:1847   */\n    tag_47:\n        /* \"#utility.yul\":1608:1611   */\n      0x00\n        /* \"#utility.yul\":1629:1712   */\n      tag_72\n        /* \"#utility.yul\":1710:1711   */\n      0x00\n        /* \"#utility.yul\":1705:1708   */\n      dup4\n        /* \"#utility.yul\":1629:1712   */\n      tag_45\n      jump\t// in\n    tag_72:\n        /* \"#utility.yul\":1622:1712   */\n      swap2\n      pop\n        /* \"#utility.yul\":1721:1814   */\n      tag_73\n        /* \"#utility.yul\":1810:1813   */\n      dup3\n        /* \"#utility.yul\":1721:1814   */\n      tag_46\n      jump\t// in\n    tag_73:\n        /* \"#utility.yul\":1839:1840   */\n      0x00\n        /* \"#utility.yul\":1834:1837   */\n      dup3\n        /* \"#utility.yul\":1830:1841   */\n      add\n        /* \"#utility.yul\":1823:1841   */\n      swap1\n      pop\n        /* \"#utility.yul\":1449:1847   */\n      swap2\n      swap1\n      pop\n      jump\t// out\n        /* \"#utility.yul\":1853:2232   */\n    tag_23:\n        /* \"#utility.yul\":2037:2040   */\n      0x00\n        /* \"#utility.yul\":2059:2206   */\n      tag_75\n        /* \"#utility.yul\":2202:2205   */\n      dup3\n        /* \"#utility.yul\":2059:2206   */\n      tag_47\n      jump\t// in\n    tag_75:\n        /* \"#utility.yul\":2052:2206   */\n      swap2\n      pop\n        /* \"#utility.yul\":2223:2226   */\n      dup2\n        /* \"#utility.yul\":2216:2226   */\n      swap1\n      pop\n        /* \"#utility.yul\":1853:2232   */\n      swap2\n      swap1\n      pop\n      jump\t// out\n        /* \"#utility.yul\":2238:2407   */\n    tag_48:\n        /* \"#utility.yul\":2322:2333   */\n      0x00\n        /* \"#utility.yul\":2356:2362   */\n      dup3\n        /* \"#utility.yul\":2351:2354   */\n      dup3\n        /* \"#utility.yul\":2344:2363   */\n      mstore\n        /* \"#utility.yul\":2396:2400   */\n      0x20\n        /* \"#utility.yul\":2391:2394   */\n      dup3\n        /* \"#utility.yul\":2387:2401   */\n      add\n        /* \"#utility.yul\":2372:2401   */\n      swap1\n      pop\n        /* \"#utility.yul\":2238:2407   */\n      swap3\n      swap2\n      pop\n      pop\n      jump\t// out\n        /* \"#utility.yul\":2413:2568   */\n    tag_49:\n        /* \"#utility.yul\":2553:2560   */\n      0x66616c7365000000000000000000000000000000000000000000000000000000\n        /* \"#utility.yul\":2549:2550   */\n      0x00\n        /* \"#utility.yul\":2541:2547   */\n      dup3\n        /* \"#utility.yul\":2537:2551   */\n      add\n        /* \"#utility.yul\":2530:2561   */\n      mstore\n        /* \"#utility.yul\":2413:2568   */\n      pop\n      jump\t// out\n        /* \"#utility.yul\":2574:2939   */\n    tag_50:\n        /* \"#utility.yul\":2716:2719   */\n      0x00\n        /* \"#utility.yul\":2737:2803   */\n      tag_79\n        /* \"#utility.yul\":2801:2802   */\n      0x05\n        /* \"#utility.yul\":2796:2799   */\n      dup4\n        /* \"#utility.yul\":2737:2803   */\n      tag_48\n      jump\t// in\n    tag_79:\n        /* \"#utility.yul\":2730:2803   */\n      swap2\n      pop\n        /* \"#utility.yul\":2812:2905   */\n      tag_80\n        /* \"#utility.yul\":2901:2904   */\n      dup3\n        /* \"#utility.yul\":2812:2905   */\n      tag_49\n      jump\t// in\n    tag_80:\n        /* \"#utility.yul\":2930:2932   */\n      0x20\n        /* \"#utility.yul\":2925:2928   */\n      dup3\n        /* \"#utility.yul\":2921:2933   */\n      add\n        /* \"#utility.yul\":2914:2933   */\n      swap1\n      pop\n        /* \"#utility.yul\":2574:2939   */\n      swap2\n      swap1\n      pop\n      jump\t// out\n        /* \"#utility.yul\":2945:3364   */\n    tag_29:\n        /* \"#utility.yul\":3111:3115   */\n      0x00\n        /* \"#utility.yul\":3149:3151   */\n      0x20\n        /* \"#utility.yul\":3138:3147   */\n      dup3\n        /* \"#utility.yul\":3134:3152   */\n      add\n        /* \"#utility.yul\":3126:3152   */\n      swap1\n      pop\n        /* \"#utility.yul\":3198:3207   */\n      dup2\n        /* \"#utility.yul\":3192:3196   */\n      dup2\n        /* \"#utility.yul\":3188:3208   */\n      sub\n        /* \"#utility.yul\":3184:3185   */\n      0x00\n        /* \"#utility.yul\":3173:3182   */\n      dup4\n        /* \"#utility.yul\":3169:3186   */\n      add\n        /* \"#utility.yul\":3162:3209   */\n      mstore\n        /* \"#utility.yul\":3226:3357   */\n      tag_82\n        /* \"#utility.yul\":3352:3356   */\n      dup2\n        /* \"#utility.yul\":3226:3357   */\n      tag_50\n      jump\t// in\n    tag_82:\n        /* \"#utility.yul\":3218:3357   */\n      swap1\n      pop\n        /* \"#utility.yul\":2945:3364   */\n      swap2\n      swap1\n      pop\n      jump\t// out\n        /* \"#utility.yul\":3370:3525   */\n    tag_51:\n        /* \"#utility.yul\":3510:3517   */\n      0x46414c5345000000000000000000000000000000000000000000000000000000\n        /* \"#utility.yul\":3506:3507   */\n      0x00\n        /* \"#utility.yul\":3498:3504   */\n      dup3\n        /* \"#utility.yul\":3494:3508   */\n      add\n        /* \"#utility.yul\":3487:3518   */\n      mstore\n        /* \"#utility.yul\":3370:3525   */\n      pop\n      jump\t// out\n        /* \"#utility.yul\":3531:3896   */\n    tag_52:\n        /* \"#utility.yul\":3673:3676   */\n      0x00\n        /* \"#utility.yul\":3694:3760   */\n      tag_85\n        /* \"#utility.yul\":3758:3759   */\n      0x05\n        /* \"#utility.yul\":3753:3756   */\n      dup4\n        /* \"#utility.yul\":3694:3760   */\n      tag_48\n      jump\t// in\n    tag_85:\n        /* \"#utility.yul\":3687:3760   */\n      swap2\n      pop\n        /* \"#utility.yul\":3769:3862   */\n      tag_86\n        /* \"#utility.yul\":3858:3861   */\n      dup3\n        /* \"#utility.yul\":3769:3862   */\n      tag_51\n      jump\t// in\n    tag_86:\n        /* \"#utility.yul\":3887:3889   */\n      0x20\n        /* \"#utility.yul\":3882:3885   */\n      dup3\n        /* \"#utility.yul\":3878:3890   */\n      add\n        /* \"#utility.yul\":3871:3890   */\n      swap1\n      pop\n        /* \"#utility.yul\":3531:3896   */\n      swap2\n      swap1\n      pop\n      jump\t// out\n        /* \"#utility.yul\":3902:4321   */\n    tag_37:\n        /* \"#utility.yul\":4068:4072   */\n      0x00\n        /* \"#utility.yul\":4106:4108   */\n      0x20\n        /* \"#utility.yul\":4095:4104   */\n      dup3\n        /* \"#utility.yul\":4091:4109   */\n      add\n        /* \"#utility.yul\":4083:4109   */\n      swap1\n      pop\n        /* \"#utility.yul\":4155:4164   */\n      dup2\n        /* \"#utility.yul\":4149:4153   */\n      dup2\n        /* \"#utility.yul\":4145:4165   */\n      sub\n        /* \"#utility.yul\":4141:4142   */\n      0x00\n        /* \"#utility.yul\":4130:4139   */\n      dup4\n        /* \"#utility.yul\":4126:4143   */\n      add\n        /* \"#utility.yul\":4119:4166   */\n      mstore\n        /* \"#utility.yul\":4183:4314   */\n      tag_88\n        /* \"#utility.yul\":4309:4313   */\n      dup2\n        /* \"#utility.yul\":4183:4314   */\n      tag_52\n      jump\t// in\n    tag_88:\n        /* \"#utility.yul\":4175:4314   */\n      swap1\n      pop\n        /* \"#utility.yul\":3902:4321   */\n      swap2\n      swap1\n      pop\n      jump\t// out\n\n    auxdata: 0xa26469706673582212204d1bfab6c59b820d9ec29d28f922bfe1e8ec0c60fdda8d1b582945d53b1d4a1c64736f6c63430008110033\n}\n",
				"bytecode": {
					"linkReferences": {},
					"object": "608060405234801561001057600080fd5b5061042b806100206000396000f3fe6080604052600436106100385760003560e01c8063378e152614610044578063498eeefb1461006d578063cea7edb8146100965761003f565b3661003f57005b600080fd5b34801561005057600080fd5b5061006b60048036038101906100669190610299565b6100bf565b005b34801561007957600080fd5b50610094600480360381019061008f9190610299565b61016f565b005b3480156100a257600080fd5b506100bd60048036038101906100b89190610299565b6101b9565b005b60008173ffffffffffffffffffffffffffffffffffffffff16476040516100e5906102f7565b60006040518083038185875af1925050503d8060008114610122576040519150601f19603f3d011682016040523d82523d6000602084013e610127565b606091505b505090508061016b576040517f08c379a000000000000000000000000000000000000000000000000000000000815260040161016290610369565b60405180910390fd5b5050565b8073ffffffffffffffffffffffffffffffffffffffff166108fc479081150290604051600060405180830381858888f193505050501580156101b5573d6000803e3d6000fd5b5050565b60008173ffffffffffffffffffffffffffffffffffffffff166108fc479081150290604051600060405180830381858888f19350505050905080610232576040517f08c379a0000000000000000000000000000000000000000000000000000000008152600401610229906103d5565b60405180910390fd5b5050565b600080fd5b600073ffffffffffffffffffffffffffffffffffffffff82169050919050565b60006102668261023b565b9050919050565b6102768161025b565b811461028157600080fd5b50565b6000813590506102938161026d565b92915050565b6000602082840312156102af576102ae610236565b5b60006102bd84828501610284565b91505092915050565b600081905092915050565b50565b60006102e16000836102c6565b91506102ec826102d1565b600082019050919050565b6000610302826102d4565b9150819050919050565b600082825260208201905092915050565b7f66616c7365000000000000000000000000000000000000000000000000000000600082015250565b600061035360058361030c565b915061035e8261031d565b602082019050919050565b6000602082019050818103600083015261038281610346565b9050919050565b7f46414c5345000000000000000000000000000000000000000000000000000000600082015250565b60006103bf60058361030c565b91506103ca82610389565b602082019050919050565b600060208201905081810360008301526103ee816103b2565b905091905056fea26469706673582212204d1bfab6c59b820d9ec29d28f922bfe1e8ec0c60fdda8d1b582945d53b1d4a1c64736f6c63430008110033",
					"opcodes": "PUSH1 0x80 PUSH1 0x40 MSTORE CALLVALUE DUP1 ISZERO PUSH2 0x10 JUMPI PUSH1 0x0 DUP1 REVERT JUMPDEST POP PUSH2 0x42B DUP1 PUSH2 0x20 PUSH1 0x0 CODECOPY PUSH1 0x0 RETURN INVALID PUSH1 0x80 PUSH1 0x40 MSTORE PUSH1 0x4 CALLDATASIZE LT PUSH2 0x38 JUMPI PUSH1 0x0 CALLDATALOAD PUSH1 0xE0 SHR DUP1 PUSH4 0x378E1526 EQ PUSH2 0x44 JUMPI DUP1 PUSH4 0x498EEEFB EQ PUSH2 0x6D JUMPI DUP1 PUSH4 0xCEA7EDB8 EQ PUSH2 0x96 JUMPI PUSH2 0x3F JUMP JUMPDEST CALLDATASIZE PUSH2 0x3F JUMPI STOP JUMPDEST PUSH1 0x0 DUP1 REVERT JUMPDEST CALLVALUE DUP1 ISZERO PUSH2 0x50 JUMPI PUSH1 0x0 DUP1 REVERT JUMPDEST POP PUSH2 0x6B PUSH1 0x4 DUP1 CALLDATASIZE SUB DUP2 ADD SWAP1 PUSH2 0x66 SWAP2 SWAP1 PUSH2 0x299 JUMP JUMPDEST PUSH2 0xBF JUMP JUMPDEST STOP JUMPDEST CALLVALUE DUP1 ISZERO PUSH2 0x79 JUMPI PUSH1 0x0 DUP1 REVERT JUMPDEST POP PUSH2 0x94 PUSH1 0x4 DUP1 CALLDATASIZE SUB DUP2 ADD SWAP1 PUSH2 0x8F SWAP2 SWAP1 PUSH2 0x299 JUMP JUMPDEST PUSH2 0x16F JUMP JUMPDEST STOP JUMPDEST CALLVALUE DUP1 ISZERO PUSH2 0xA2 JUMPI PUSH1 0x0 DUP1 REVERT JUMPDEST POP PUSH2 0xBD PUSH1 0x4 DUP1 CALLDATASIZE SUB DUP2 ADD SWAP1 PUSH2 0xB8 SWAP2 SWAP1 PUSH2 0x299 JUMP JUMPDEST PUSH2 0x1B9 JUMP JUMPDEST STOP JUMPDEST PUSH1 0x0 DUP2 PUSH20 0xFFFFFFFFFFFFFFFFFFFFFFFFFFFFFFFFFFFFFFFF AND SELFBALANCE PUSH1 0x40 MLOAD PUSH2 0xE5 SWAP1 PUSH2 0x2F7 JUMP JUMPDEST PUSH1 0x0 PUSH1 0x40 MLOAD DUP1 DUP4 SUB DUP2 DUP6 DUP8 GAS CALL SWAP3 POP POP POP RETURNDATASIZE DUP1 PUSH1 0x0 DUP2 EQ PUSH2 0x122 JUMPI PUSH1 0x40 MLOAD SWAP2 POP PUSH1 0x1F NOT PUSH1 0x3F RETURNDATASIZE ADD AND DUP3 ADD PUSH1 0x40 MSTORE RETURNDATASIZE DUP3 MSTORE RETURNDATASIZE PUSH1 0x0 PUSH1 0x20 DUP5 ADD RETURNDATACOPY PUSH2 0x127 JUMP JUMPDEST PUSH1 0x60 SWAP2 POP JUMPDEST POP POP SWAP1 POP DUP1 PUSH2 0x16B JUMPI PUSH1 0x40 MLOAD PUSH32 0x8C379A000000000000000000000000000000000000000000000000000000000 DUP2 MSTORE PUSH1 0x4 ADD PUSH2 0x162 SWAP1 PUSH2 0x369 JUMP JUMPDEST PUSH1 0x40 MLOAD DUP1 SWAP2 SUB SWAP1 REVERT JUMPDEST POP POP JUMP JUMPDEST DUP1 PUSH20 0xFFFFFFFFFFFFFFFFFFFFFFFFFFFFFFFFFFFFFFFF AND PUSH2 0x8FC SELFBALANCE SWAP1 DUP2 ISZERO MUL SWAP1 PUSH1 0x40 MLOAD PUSH1 0x0 PUSH1 0x40 MLOAD DUP1 DUP4 SUB DUP2 DUP6 DUP9 DUP9 CALL SWAP4 POP POP POP POP ISZERO DUP1 ISZERO PUSH2 0x1B5 JUMPI RETURNDATASIZE PUSH1 0x0 DUP1 RETURNDATACOPY RETURNDATASIZE PUSH1 0x0 REVERT JUMPDEST POP POP JUMP JUMPDEST PUSH1 0x0 DUP2 PUSH20 0xFFFFFFFFFFFFFFFFFFFFFFFFFFFFFFFFFFFFFFFF AND PUSH2 0x8FC SELFBALANCE SWAP1 DUP2 ISZERO MUL SWAP1 PUSH1 0x40 MLOAD PUSH1 0x0 PUSH1 0x40 MLOAD DUP1 DUP4 SUB DUP2 DUP6 DUP9 DUP9 CALL SWAP4 POP POP POP POP SWAP1 POP DUP1 PUSH2 0x232 JUMPI PUSH1 0x40 MLOAD PUSH32 0x8C379A000000000000000000000000000000000000000000000000000000000 DUP2 MSTORE PUSH1 0x4 ADD PUSH2 0x229 SWAP1 PUSH2 0x3D5 JUMP JUMPDEST PUSH1 0x40 MLOAD DUP1 SWAP2 SUB SWAP1 REVERT JUMPDEST POP POP JUMP JUMPDEST PUSH1 0x0 DUP1 REVERT JUMPDEST PUSH1 0x0 PUSH20 0xFFFFFFFFFFFFFFFFFFFFFFFFFFFFFFFFFFFFFFFF DUP3 AND SWAP1 POP SWAP2 SWAP1 POP JUMP JUMPDEST PUSH1 0x0 PUSH2 0x266 DUP3 PUSH2 0x23B JUMP JUMPDEST SWAP1 POP SWAP2 SWAP1 POP JUMP JUMPDEST PUSH2 0x276 DUP2 PUSH2 0x25B JUMP JUMPDEST DUP2 EQ PUSH2 0x281 JUMPI PUSH1 0x0 DUP1 REVERT JUMPDEST POP JUMP JUMPDEST PUSH1 0x0 DUP2 CALLDATALOAD SWAP1 POP PUSH2 0x293 DUP2 PUSH2 0x26D JUMP JUMPDEST SWAP3 SWAP2 POP POP JUMP JUMPDEST PUSH1 0x0 PUSH1 0x20 DUP3 DUP5 SUB SLT ISZERO PUSH2 0x2AF JUMPI PUSH2 0x2AE PUSH2 0x236 JUMP JUMPDEST JUMPDEST PUSH1 0x0 PUSH2 0x2BD DUP5 DUP3 DUP6 ADD PUSH2 0x284 JUMP JUMPDEST SWAP2 POP POP SWAP3 SWAP2 POP POP JUMP JUMPDEST PUSH1 0x0 DUP2 SWAP1 POP SWAP3 SWAP2 POP POP JUMP JUMPDEST POP JUMP JUMPDEST PUSH1 0x0 PUSH2 0x2E1 PUSH1 0x0 DUP4 PUSH2 0x2C6 JUMP JUMPDEST SWAP2 POP PUSH2 0x2EC DUP3 PUSH2 0x2D1 JUMP JUMPDEST PUSH1 0x0 DUP3 ADD SWAP1 POP SWAP2 SWAP1 POP JUMP JUMPDEST PUSH1 0x0 PUSH2 0x302 DUP3 PUSH2 0x2D4 JUMP JUMPDEST SWAP2 POP DUP2 SWAP1 POP SWAP2 SWAP1 POP JUMP JUMPDEST PUSH1 0x0 DUP3 DUP3 MSTORE PUSH1 0x20 DUP3 ADD SWAP1 POP SWAP3 SWAP2 POP POP JUMP JUMPDEST PUSH32 0x66616C7365000000000000000000000000000000000000000000000000000000 PUSH1 0x0 DUP3 ADD MSTORE POP JUMP JUMPDEST PUSH1 0x0 PUSH2 0x353 PUSH1 0x5 DUP4 PUSH2 0x30C JUMP JUMPDEST SWAP2 POP PUSH2 0x35E DUP3 PUSH2 0x31D JUMP JUMPDEST PUSH1 0x20 DUP3 ADD SWAP1 POP SWAP2 SWAP1 POP JUMP JUMPDEST PUSH1 0x0 PUSH1 0x20 DUP3 ADD SWAP1 POP DUP2 DUP2 SUB PUSH1 0x0 DUP4 ADD MSTORE PUSH2 0x382 DUP2 PUSH2 0x346 JUMP JUMPDEST SWAP1 POP SWAP2 SWAP1 POP JUMP JUMPDEST PUSH32 0x46414C5345000000000000000000000000000000000000000000000000000000 PUSH1 0x0 DUP3 ADD MSTORE POP JUMP JUMPDEST PUSH1 0x0 PUSH2 0x3BF PUSH1 0x5 DUP4 PUSH2 0x30C JUMP JUMPDEST SWAP2 POP PUSH2 0x3CA DUP3 PUSH2 0x389 JUMP JUMPDEST PUSH1 0x20 DUP3 ADD SWAP1 POP SWAP2 SWAP1 POP JUMP JUMPDEST PUSH1 0x0 PUSH1 0x20 DUP3 ADD SWAP1 POP DUP2 DUP2 SUB PUSH1 0x0 DUP4 ADD MSTORE PUSH2 0x3EE DUP2 PUSH2 0x3B2 JUMP JUMPDEST SWAP1 POP SWAP2 SWAP1 POP JUMP INVALID LOG2 PUSH5 0x6970667358 0x22 SLT KECCAK256 0x4D SHL STATICCALL 0xB6 0xC5 SWAP12 DUP3 0xD SWAP15 0xC2 SWAP14 0x28 0xF9 0x22 0xBF 0xE1 0xE8 0xEC 0xC PUSH1 0xFD 0xDA DUP14 SHL PC 0x29 GASLIMIT 0xD5 EXTCODESIZE SAR 0x4A SHR PUSH5 0x736F6C6343 STOP ADDMOD GT STOP CALLER "
				},
				"gasEstimates": {
					"creation": {
						"codeDepositCost": "213400",
						"executionCost": "257",
						"totalCost": "213657"
					},
					"external": {
						"cal(address)": "infinite",
						"sen(address)": "infinite",
						"tra(address)": "infinite"
					}
				},
				"methodIdentifiers": {
					"cal(address)": "378e1526",
					"sen(address)": "cea7edb8",
					"tra(address)": "498eeefb"
				}
			},
			"storageLayout": {
				"storage": [],
				"types": null
			},
			"userdoc": {
				"kind": "user",
				"methods": {},
				"version": 1
			}
		}
	}
}