{
	"remix_ide/if_elseif_else.sol": {
		"mehan": {
			"abi": [
				{
					"inputs": [],
					"name": "a",
					"outputs": [
						{
							"internalType": "uint256",
							"name": "",
							"type": "uint256"
						}
					],
					"stateMutability": "view",
					"type": "function"
				},
				{
					"inputs": [],
					"name": "b",
					"outputs": [
						{
							"internalType": "string",
							"name": "",
							"type": "string"
						}
					],
					"stateMutability": "view",
					"type": "function"
				},
				{
					"inputs": [],
					"name": "ifelse",
					"outputs": [
						{
							"internalType": "string",
							"name": "",
							"type": "string"
						}
					],
					"stateMutability": "nonpayable",
					"type": "function"
				}
			],
			"devdoc": {
				"kind": "dev",
				"methods": {},
				"version": 1
			},
			"evm": {
				"assembly": "    /* \"remix_ide/if_elseif_else.sol\":56:399  contract mehan... */\n  mstore(0x40, 0x80)\n    /* \"remix_ide/if_elseif_else.sol\":112:113  1 */\n  0x01\n    /* \"remix_ide/if_elseif_else.sol\":98:113  uint public a=1 */\n  dup1\n  sstore\n    /* \"remix_ide/if_elseif_else.sol\":56:399  contract mehan... */\n  callvalue\n  dup1\n  iszero\n  tag_1\n  jumpi\n  0x00\n  dup1\n  revert\ntag_1:\n  pop\n  dataSize(sub_0)\n  dup1\n  dataOffset(sub_0)\n  0x00\n  codecopy\n  0x00\n  return\nstop\n\nsub_0: assembly {\n        /* \"remix_ide/if_elseif_else.sol\":56:399  contract mehan... */\n      mstore(0x40, 0x80)\n      callvalue\n      dup1\n      iszero\n      tag_1\n      jumpi\n      0x00\n      dup1\n      revert\n    tag_1:\n      pop\n      jumpi(tag_2, lt(calldatasize, 0x04))\n      shr(0xe0, calldataload(0x00))\n      dup1\n      0x0dbe671f\n      eq\n      tag_3\n      jumpi\n      dup1\n      0x4df7e3d0\n      eq\n      tag_4\n      jumpi\n      dup1\n      0xe4501d1c\n      eq\n      tag_5\n      jumpi\n    tag_2:\n      0x00\n      dup1\n      revert\n        /* \"remix_ide/if_elseif_else.sol\":98:113  uint public a=1 */\n    tag_3:\n      tag_6\n      tag_7\n      jump\t// in\n    tag_6:\n      mload(0x40)\n      tag_8\n      swap2\n      swap1\n      tag_9\n      jump\t// in\n    tag_8:\n      mload(0x40)\n      dup1\n      swap2\n      sub\n      swap1\n      return\n        /* \"remix_ide/if_elseif_else.sol\":76:91  string public b */\n    tag_4:\n      tag_10\n      tag_11\n      jump\t// in\n    tag_10:\n      mload(0x40)\n      tag_12\n      swap2\n      swap1\n      tag_13\n      jump\t// in\n    tag_12:\n      mload(0x40)\n      dup1\n      swap2\n      sub\n      swap1\n      return\n        /* \"remix_ide/if_elseif_else.sol\":120:394  function ifelse() public returns(string memory)... */\n    tag_5:\n      tag_14\n      tag_15\n      jump\t// in\n    tag_14:\n      mload(0x40)\n      tag_16\n      swap2\n      swap1\n      tag_13\n      jump\t// in\n    tag_16:\n      mload(0x40)\n      dup1\n      swap2\n      sub\n      swap1\n      return\n        /* \"remix_ide/if_elseif_else.sol\":98:113  uint public a=1 */\n    tag_7:\n      sload(0x01)\n      dup2\n      jump\t// out\n        /* \"remix_ide/if_elseif_else.sol\":76:91  string public b */\n    tag_11:\n      0x00\n      dup1\n      sload\n      tag_17\n      swap1\n      tag_18\n      jump\t// in\n    tag_17:\n      dup1\n      0x1f\n      add\n      0x20\n      dup1\n      swap2\n      div\n      mul\n      0x20\n      add\n      mload(0x40)\n      swap1\n      dup2\n      add\n      0x40\n      mstore\n      dup1\n      swap3\n      swap2\n      swap1\n      dup2\n      dup2\n      mstore\n      0x20\n      add\n      dup3\n      dup1\n      sload\n      tag_19\n      swap1\n      tag_18\n      jump\t// in\n    tag_19:\n      dup1\n      iszero\n      tag_20\n      jumpi\n      dup1\n      0x1f\n      lt\n      tag_21\n      jumpi\n      0x0100\n      dup1\n      dup4\n      sload\n      div\n      mul\n      dup4\n      mstore\n      swap2\n      0x20\n      add\n      swap2\n      jump(tag_20)\n    tag_21:\n      dup3\n      add\n      swap2\n      swap1\n      0x00\n      mstore\n      keccak256(0x00, 0x20)\n      swap1\n    tag_22:\n      dup2\n      sload\n      dup2\n      mstore\n      swap1\n      0x01\n      add\n      swap1\n      0x20\n      add\n      dup1\n      dup4\n      gt\n      tag_22\n      jumpi\n      dup3\n      swap1\n      sub\n      0x1f\n      and\n      dup3\n      add\n      swap2\n    tag_20:\n      pop\n      pop\n      pop\n      pop\n      pop\n      dup2\n      jump\t// out\n        /* \"remix_ide/if_elseif_else.sol\":120:394  function ifelse() public returns(string memory)... */\n    tag_15:\n        /* \"remix_ide/if_elseif_else.sol\":153:166  string memory */\n      0x60\n        /* \"remix_ide/if_elseif_else.sol\":186:187  0 */\n      0x00\n        /* \"remix_ide/if_elseif_else.sol\":183:184  a */\n      sload(0x01)\n        /* \"remix_ide/if_elseif_else.sol\":183:187  a==0 */\n      sub\n        /* \"remix_ide/if_elseif_else.sol\":180:382  if(a==0)... */\n      tag_24\n      jumpi\n        /* \"remix_ide/if_elseif_else.sol\":205:214  b=\"mehan\" */\n      mload(0x40)\n      dup1\n      0x40\n      add\n      0x40\n      mstore\n      dup1\n      0x05\n      dup2\n      mstore\n      0x20\n      add\n      0x6d6568616e000000000000000000000000000000000000000000000000000000\n      dup2\n      mstore\n      pop\n        /* \"remix_ide/if_elseif_else.sol\":205:206  b */\n      0x00\n        /* \"remix_ide/if_elseif_else.sol\":205:214  b=\"mehan\" */\n      swap1\n      dup2\n      tag_25\n      swap2\n      swap1\n      tag_26\n      jump\t// in\n    tag_25:\n      pop\n        /* \"remix_ide/if_elseif_else.sol\":233:234  b */\n      0x00\n        /* \"remix_ide/if_elseif_else.sol\":226:234  return b */\n      dup1\n      sload\n      tag_27\n      swap1\n      tag_18\n      jump\t// in\n    tag_27:\n      dup1\n      0x1f\n      add\n      0x20\n      dup1\n      swap2\n      div\n      mul\n      0x20\n      add\n      mload(0x40)\n      swap1\n      dup2\n      add\n      0x40\n      mstore\n      dup1\n      swap3\n      swap2\n      swap1\n      dup2\n      dup2\n      mstore\n      0x20\n      add\n      dup3\n      dup1\n      sload\n      tag_28\n      swap1\n      tag_18\n      jump\t// in\n    tag_28:\n      dup1\n      iszero\n      tag_29\n      jumpi\n      dup1\n      0x1f\n      lt\n      tag_30\n      jumpi\n      0x0100\n      dup1\n      dup4\n      sload\n      div\n      mul\n      dup4\n      mstore\n      swap2\n      0x20\n      add\n      swap2\n      jump(tag_29)\n    tag_30:\n      dup3\n      add\n      swap2\n      swap1\n      0x00\n      mstore\n      keccak256(0x00, 0x20)\n      swap1\n    tag_31:\n      dup2\n      sload\n      dup2\n      mstore\n      swap1\n      0x01\n      add\n      swap1\n      0x20\n      add\n      dup1\n      dup4\n      gt\n      tag_31\n      jumpi\n      dup3\n      swap1\n      sub\n      0x1f\n      and\n      dup3\n      add\n      swap2\n    tag_29:\n      pop\n      pop\n      pop\n      pop\n      pop\n      swap1\n      pop\n      jump(tag_23)\n        /* \"remix_ide/if_elseif_else.sol\":180:382  if(a==0)... */\n    tag_24:\n        /* \"remix_ide/if_elseif_else.sol\":259:260  1 */\n      0x01\n        /* \"remix_ide/if_elseif_else.sol\":256:257  a */\n      dup1\n      sload\n        /* \"remix_ide/if_elseif_else.sol\":256:260  a==1 */\n      sub\n        /* \"remix_ide/if_elseif_else.sol\":253:382  if(a==1)... */\n      tag_33\n      jumpi\n        /* \"remix_ide/if_elseif_else.sol\":278:286  b=\"hhhh\" */\n      mload(0x40)\n      dup1\n      0x40\n      add\n      0x40\n      mstore\n      dup1\n      0x04\n      dup2\n      mstore\n      0x20\n      add\n      0x6868686800000000000000000000000000000000000000000000000000000000\n      dup2\n      mstore\n      pop\n        /* \"remix_ide/if_elseif_else.sol\":278:279  b */\n      0x00\n        /* \"remix_ide/if_elseif_else.sol\":278:286  b=\"hhhh\" */\n      swap1\n      dup2\n      tag_34\n      swap2\n      swap1\n      tag_26\n      jump\t// in\n    tag_34:\n      pop\n        /* \"remix_ide/if_elseif_else.sol\":304:305  b */\n      0x00\n        /* \"remix_ide/if_elseif_else.sol\":297:305  return b */\n      dup1\n      sload\n      tag_35\n      swap1\n      tag_18\n      jump\t// in\n    tag_35:\n      dup1\n      0x1f\n      add\n      0x20\n      dup1\n      swap2\n      div\n      mul\n      0x20\n      add\n      mload(0x40)\n      swap1\n      dup2\n      add\n      0x40\n      mstore\n      dup1\n      swap3\n      swap2\n      swap1\n      dup2\n      dup2\n      mstore\n      0x20\n      add\n      dup3\n      dup1\n      sload\n      tag_36\n      swap1\n      tag_18\n      jump\t// in\n    tag_36:\n      dup1\n      iszero\n      tag_37\n      jumpi\n      dup1\n      0x1f\n      lt\n      tag_38\n      jumpi\n      0x0100\n      dup1\n      dup4\n      sload\n      div\n      mul\n      dup4\n      mstore\n      swap2\n      0x20\n      add\n      swap2\n      jump(tag_37)\n    tag_38:\n      dup3\n      add\n      swap2\n      swap1\n      0x00\n      mstore\n      keccak256(0x00, 0x20)\n      swap1\n    tag_39:\n      dup2\n      sload\n      dup2\n      mstore\n      swap1\n      0x01\n      add\n      swap1\n      0x20\n      add\n      dup1\n      dup4\n      gt\n      tag_39\n      jumpi\n      dup3\n      swap1\n      sub\n      0x1f\n      and\n      dup3\n      add\n      swap2\n    tag_37:\n      pop\n      pop\n      pop\n      pop\n      pop\n      swap1\n      pop\n      jump(tag_23)\n        /* \"remix_ide/if_elseif_else.sol\":253:382  if(a==1)... */\n    tag_33:\n        /* \"remix_ide/if_elseif_else.sol\":340:355  b=\"mehan123445\" */\n      mload(0x40)\n      dup1\n      0x40\n      add\n      0x40\n      mstore\n      dup1\n      0x0b\n      dup2\n      mstore\n      0x20\n      add\n      0x6d6568616e313233343435000000000000000000000000000000000000000000\n      dup2\n      mstore\n      pop\n        /* \"remix_ide/if_elseif_else.sol\":340:341  b */\n      0x00\n        /* \"remix_ide/if_elseif_else.sol\":340:355  b=\"mehan123445\" */\n      swap1\n      dup2\n      tag_41\n      swap2\n      swap1\n      tag_26\n      jump\t// in\n    tag_41:\n      pop\n        /* \"remix_ide/if_elseif_else.sol\":373:374  b */\n      0x00\n        /* \"remix_ide/if_elseif_else.sol\":366:374  return b */\n      dup1\n      sload\n      tag_42\n      swap1\n      tag_18\n      jump\t// in\n    tag_42:\n      dup1\n      0x1f\n      add\n      0x20\n      dup1\n      swap2\n      div\n      mul\n      0x20\n      add\n      mload(0x40)\n      swap1\n      dup2\n      add\n      0x40\n      mstore\n      dup1\n      swap3\n      swap2\n      swap1\n      dup2\n      dup2\n      mstore\n      0x20\n      add\n      dup3\n      dup1\n      sload\n      tag_43\n      swap1\n      tag_18\n      jump\t// in\n    tag_43:\n      dup1\n      iszero\n      tag_44\n      jumpi\n      dup1\n      0x1f\n      lt\n      tag_45\n      jumpi\n      0x0100\n      dup1\n      dup4\n      sload\n      div\n      mul\n      dup4\n      mstore\n      swap2\n      0x20\n      add\n      swap2\n      jump(tag_44)\n    tag_45:\n      dup3\n      add\n      swap2\n      swap1\n      0x00\n      mstore\n      keccak256(0x00, 0x20)\n      swap1\n    tag_46:\n      dup2\n      sload\n      dup2\n      mstore\n      swap1\n      0x01\n      add\n      swap1\n      0x20\n      add\n      dup1\n      dup4\n      gt\n      tag_46\n      jumpi\n      dup3\n      swap1\n      sub\n      0x1f\n      and\n      dup3\n      add\n      swap2\n    tag_44:\n      pop\n      pop\n      pop\n      pop\n      pop\n      swap1\n      pop\n        /* \"remix_ide/if_elseif_else.sol\":120:394  function ifelse() public returns(string memory)... */\n    tag_23:\n      swap1\n      jump\t// out\n        /* \"#utility.yul\":7:84   */\n    tag_47:\n        /* \"#utility.yul\":44:51   */\n      0x00\n        /* \"#utility.yul\":73:78   */\n      dup2\n        /* \"#utility.yul\":62:78   */\n      swap1\n      pop\n        /* \"#utility.yul\":7:84   */\n      swap2\n      swap1\n      pop\n      jump\t// out\n        /* \"#utility.yul\":90:208   */\n    tag_48:\n        /* \"#utility.yul\":177:201   */\n      tag_74\n        /* \"#utility.yul\":195:200   */\n      dup2\n        /* \"#utility.yul\":177:201   */\n      tag_47\n      jump\t// in\n    tag_74:\n        /* \"#utility.yul\":172:175   */\n      dup3\n        /* \"#utility.yul\":165:202   */\n      mstore\n        /* \"#utility.yul\":90:208   */\n      pop\n      pop\n      jump\t// out\n        /* \"#utility.yul\":214:436   */\n    tag_9:\n        /* \"#utility.yul\":307:311   */\n      0x00\n        /* \"#utility.yul\":345:347   */\n      0x20\n        /* \"#utility.yul\":334:343   */\n      dup3\n        /* \"#utility.yul\":330:348   */\n      add\n        /* \"#utility.yul\":322:348   */\n      swap1\n      pop\n        /* \"#utility.yul\":358:429   */\n      tag_76\n        /* \"#utility.yul\":426:427   */\n      0x00\n        /* \"#utility.yul\":415:424   */\n      dup4\n        /* \"#utility.yul\":411:428   */\n      add\n        /* \"#utility.yul\":402:408   */\n      dup5\n        /* \"#utility.yul\":358:429   */\n      tag_48\n      jump\t// in\n    tag_76:\n        /* \"#utility.yul\":214:436   */\n      swap3\n      swap2\n      pop\n      pop\n      jump\t// out\n        /* \"#utility.yul\":442:541   */\n    tag_49:\n        /* \"#utility.yul\":494:500   */\n      0x00\n        /* \"#utility.yul\":528:533   */\n      dup2\n        /* \"#utility.yul\":522:534   */\n      mload\n        /* \"#utility.yul\":512:534   */\n      swap1\n      pop\n        /* \"#utility.yul\":442:541   */\n      swap2\n      swap1\n      pop\n      jump\t// out\n        /* \"#utility.yul\":547:716   */\n    tag_50:\n        /* \"#utility.yul\":631:642   */\n      0x00\n        /* \"#utility.yul\":665:671   */\n      dup3\n        /* \"#utility.yul\":660:663   */\n      dup3\n        /* \"#utility.yul\":653:672   */\n      mstore\n        /* \"#utility.yul\":705:709   */\n      0x20\n        /* \"#utility.yul\":700:703   */\n      dup3\n        /* \"#utility.yul\":696:710   */\n      add\n        /* \"#utility.yul\":681:710   */\n      swap1\n      pop\n        /* \"#utility.yul\":547:716   */\n      swap3\n      swap2\n      pop\n      pop\n      jump\t// out\n        /* \"#utility.yul\":722:968   */\n    tag_51:\n        /* \"#utility.yul\":803:804   */\n      0x00\n        /* \"#utility.yul\":813:926   */\n    tag_80:\n        /* \"#utility.yul\":827:833   */\n      dup4\n        /* \"#utility.yul\":824:825   */\n      dup2\n        /* \"#utility.yul\":821:834   */\n      lt\n        /* \"#utility.yul\":813:926   */\n      iszero\n      tag_82\n      jumpi\n        /* \"#utility.yul\":912:913   */\n      dup1\n        /* \"#utility.yul\":907:910   */\n      dup3\n        /* \"#utility.yul\":903:914   */\n      add\n        /* \"#utility.yul\":897:915   */\n      mload\n        /* \"#utility.yul\":893:894   */\n      dup2\n        /* \"#utility.yul\":888:891   */\n      dup5\n        /* \"#utility.yul\":884:895   */\n      add\n        /* \"#utility.yul\":877:916   */\n      mstore\n        /* \"#utility.yul\":849:851   */\n      0x20\n        /* \"#utility.yul\":846:847   */\n      dup2\n        /* \"#utility.yul\":842:852   */\n      add\n        /* \"#utility.yul\":837:852   */\n      swap1\n      pop\n        /* \"#utility.yul\":813:926   */\n      jump(tag_80)\n    tag_82:\n        /* \"#utility.yul\":960:961   */\n      0x00\n        /* \"#utility.yul\":951:957   */\n      dup5\n        /* \"#utility.yul\":946:949   */\n      dup5\n        /* \"#utility.yul\":942:958   */\n      add\n        /* \"#utility.yul\":935:962   */\n      mstore\n        /* \"#utility.yul\":784:968   */\n      pop\n        /* \"#utility.yul\":722:968   */\n      pop\n      pop\n      pop\n      jump\t// out\n        /* \"#utility.yul\":974:1076   */\n    tag_52:\n        /* \"#utility.yul\":1015:1021   */\n      0x00\n        /* \"#utility.yul\":1066:1068   */\n      0x1f\n        /* \"#utility.yul\":1062:1069   */\n      not\n        /* \"#utility.yul\":1057:1059   */\n      0x1f\n        /* \"#utility.yul\":1050:1055   */\n      dup4\n        /* \"#utility.yul\":1046:1060   */\n      add\n        /* \"#utility.yul\":1042:1070   */\n      and\n        /* \"#utility.yul\":1032:1070   */\n      swap1\n      pop\n        /* \"#utility.yul\":974:1076   */\n      swap2\n      swap1\n      pop\n      jump\t// out\n        /* \"#utility.yul\":1082:1459   */\n    tag_53:\n        /* \"#utility.yul\":1170:1173   */\n      0x00\n        /* \"#utility.yul\":1198:1237   */\n      tag_85\n        /* \"#utility.yul\":1231:1236   */\n      dup3\n        /* \"#utility.yul\":1198:1237   */\n      tag_49\n      jump\t// in\n    tag_85:\n        /* \"#utility.yul\":1253:1324   */\n      tag_86\n        /* \"#utility.yul\":1317:1323   */\n      dup2\n        /* \"#utility.yul\":1312:1315   */\n      dup6\n        /* \"#utility.yul\":1253:1324   */\n      tag_50\n      jump\t// in\n    tag_86:\n        /* \"#utility.yul\":1246:1324   */\n      swap4\n      pop\n        /* \"#utility.yul\":1333:1398   */\n      tag_87\n        /* \"#utility.yul\":1391:1397   */\n      dup2\n        /* \"#utility.yul\":1386:1389   */\n      dup6\n        /* \"#utility.yul\":1379:1383   */\n      0x20\n        /* \"#utility.yul\":1372:1377   */\n      dup7\n        /* \"#utility.yul\":1368:1384   */\n      add\n        /* \"#utility.yul\":1333:1398   */\n      tag_51\n      jump\t// in\n    tag_87:\n        /* \"#utility.yul\":1423:1452   */\n      tag_88\n        /* \"#utility.yul\":1445:1451   */\n      dup2\n        /* \"#utility.yul\":1423:1452   */\n      tag_52\n      jump\t// in\n    tag_88:\n        /* \"#utility.yul\":1418:1421   */\n      dup5\n        /* \"#utility.yul\":1414:1453   */\n      add\n        /* \"#utility.yul\":1407:1453   */\n      swap2\n      pop\n        /* \"#utility.yul\":1174:1459   */\n      pop\n        /* \"#utility.yul\":1082:1459   */\n      swap3\n      swap2\n      pop\n      pop\n      jump\t// out\n        /* \"#utility.yul\":1465:1778   */\n    tag_13:\n        /* \"#utility.yul\":1578:1582   */\n      0x00\n        /* \"#utility.yul\":1616:1618   */\n      0x20\n        /* \"#utility.yul\":1605:1614   */\n      dup3\n        /* \"#utility.yul\":1601:1619   */\n      add\n        /* \"#utility.yul\":1593:1619   */\n      swap1\n      pop\n        /* \"#utility.yul\":1665:1674   */\n      dup2\n        /* \"#utility.yul\":1659:1663   */\n      dup2\n        /* \"#utility.yul\":1655:1675   */\n      sub\n        /* \"#utility.yul\":1651:1652   */\n      0x00\n        /* \"#utility.yul\":1640:1649   */\n      dup4\n        /* \"#utility.yul\":1636:1653   */\n      add\n        /* \"#utility.yul\":1629:1676   */\n      mstore\n        /* \"#utility.yul\":1693:1771   */\n      tag_90\n        /* \"#utility.yul\":1766:1770   */\n      dup2\n        /* \"#utility.yul\":1757:1763   */\n      dup5\n        /* \"#utility.yul\":1693:1771   */\n      tag_53\n      jump\t// in\n    tag_90:\n        /* \"#utility.yul\":1685:1771   */\n      swap1\n      pop\n        /* \"#utility.yul\":1465:1778   */\n      swap3\n      swap2\n      pop\n      pop\n      jump\t// out\n        /* \"#utility.yul\":1784:1964   */\n    tag_54:\n        /* \"#utility.yul\":1832:1909   */\n      0x4e487b7100000000000000000000000000000000000000000000000000000000\n        /* \"#utility.yul\":1829:1830   */\n      0x00\n        /* \"#utility.yul\":1822:1910   */\n      mstore\n        /* \"#utility.yul\":1929:1933   */\n      0x22\n        /* \"#utility.yul\":1926:1927   */\n      0x04\n        /* \"#utility.yul\":1919:1934   */\n      mstore\n        /* \"#utility.yul\":1953:1957   */\n      0x24\n        /* \"#utility.yul\":1950:1951   */\n      0x00\n        /* \"#utility.yul\":1943:1958   */\n      revert\n        /* \"#utility.yul\":1970:2290   */\n    tag_18:\n        /* \"#utility.yul\":2014:2020   */\n      0x00\n        /* \"#utility.yul\":2051:2052   */\n      0x02\n        /* \"#utility.yul\":2045:2049   */\n      dup3\n        /* \"#utility.yul\":2041:2053   */\n      div\n        /* \"#utility.yul\":2031:2053   */\n      swap1\n      pop\n        /* \"#utility.yul\":2098:2099   */\n      0x01\n        /* \"#utility.yul\":2092:2096   */\n      dup3\n        /* \"#utility.yul\":2088:2100   */\n      and\n        /* \"#utility.yul\":2119:2137   */\n      dup1\n        /* \"#utility.yul\":2109:2190   */\n      tag_93\n      jumpi\n        /* \"#utility.yul\":2175:2179   */\n      0x7f\n        /* \"#utility.yul\":2167:2173   */\n      dup3\n        /* \"#utility.yul\":2163:2180   */\n      and\n        /* \"#utility.yul\":2153:2180   */\n      swap2\n      pop\n        /* \"#utility.yul\":2109:2190   */\n    tag_93:\n        /* \"#utility.yul\":2237:2239   */\n      0x20\n        /* \"#utility.yul\":2229:2235   */\n      dup3\n        /* \"#utility.yul\":2226:2240   */\n      lt\n        /* \"#utility.yul\":2206:2224   */\n      dup2\n        /* \"#utility.yul\":2203:2241   */\n      sub\n        /* \"#utility.yul\":2200:2284   */\n      tag_94\n      jumpi\n        /* \"#utility.yul\":2256:2274   */\n      tag_95\n      tag_54\n      jump\t// in\n    tag_95:\n        /* \"#utility.yul\":2200:2284   */\n    tag_94:\n        /* \"#utility.yul\":2021:2290   */\n      pop\n        /* \"#utility.yul\":1970:2290   */\n      swap2\n      swap1\n      pop\n      jump\t// out\n        /* \"#utility.yul\":2296:2476   */\n    tag_55:\n        /* \"#utility.yul\":2344:2421   */\n      0x4e487b7100000000000000000000000000000000000000000000000000000000\n        /* \"#utility.yul\":2341:2342   */\n      0x00\n        /* \"#utility.yul\":2334:2422   */\n      mstore\n        /* \"#utility.yul\":2441:2445   */\n      0x41\n        /* \"#utility.yul\":2438:2439   */\n      0x04\n        /* \"#utility.yul\":2431:2446   */\n      mstore\n        /* \"#utility.yul\":2465:2469   */\n      0x24\n        /* \"#utility.yul\":2462:2463   */\n      0x00\n        /* \"#utility.yul\":2455:2470   */\n      revert\n        /* \"#utility.yul\":2482:2623   */\n    tag_56:\n        /* \"#utility.yul\":2531:2535   */\n      0x00\n        /* \"#utility.yul\":2554:2557   */\n      dup2\n        /* \"#utility.yul\":2546:2557   */\n      swap1\n      pop\n        /* \"#utility.yul\":2577:2580   */\n      dup2\n        /* \"#utility.yul\":2574:2575   */\n      0x00\n        /* \"#utility.yul\":2567:2581   */\n      mstore\n        /* \"#utility.yul\":2611:2615   */\n      0x20\n        /* \"#utility.yul\":2608:2609   */\n      0x00\n        /* \"#utility.yul\":2598:2616   */\n      keccak256\n        /* \"#utility.yul\":2590:2616   */\n      swap1\n      pop\n        /* \"#utility.yul\":2482:2623   */\n      swap2\n      swap1\n      pop\n      jump\t// out\n        /* \"#utility.yul\":2629:2722   */\n    tag_57:\n        /* \"#utility.yul\":2666:2672   */\n      0x00\n        /* \"#utility.yul\":2713:2715   */\n      0x20\n        /* \"#utility.yul\":2708:2710   */\n      0x1f\n        /* \"#utility.yul\":2701:2706   */\n      dup4\n        /* \"#utility.yul\":2697:2711   */\n      add\n        /* \"#utility.yul\":2693:2716   */\n      div\n        /* \"#utility.yul\":2683:2716   */\n      swap1\n      pop\n        /* \"#utility.yul\":2629:2722   */\n      swap2\n      swap1\n      pop\n      jump\t// out\n        /* \"#utility.yul\":2728:2835   */\n    tag_58:\n        /* \"#utility.yul\":2772:2780   */\n      0x00\n        /* \"#utility.yul\":2822:2827   */\n      dup3\n        /* \"#utility.yul\":2816:2820   */\n      dup3\n        /* \"#utility.yul\":2812:2828   */\n      shl\n        /* \"#utility.yul\":2791:2828   */\n      swap1\n      pop\n        /* \"#utility.yul\":2728:2835   */\n      swap3\n      swap2\n      pop\n      pop\n      jump\t// out\n        /* \"#utility.yul\":2841:3234   */\n    tag_59:\n        /* \"#utility.yul\":2910:2916   */\n      0x00\n        /* \"#utility.yul\":2960:2961   */\n      0x08\n        /* \"#utility.yul\":2948:2958   */\n      dup4\n        /* \"#utility.yul\":2944:2962   */\n      mul\n        /* \"#utility.yul\":2983:3080   */\n      tag_101\n        /* \"#utility.yul\":3013:3079   */\n      0xffffffffffffffffffffffffffffffffffffffffffffffffffffffffffffffff\n        /* \"#utility.yul\":3002:3011   */\n      dup3\n        /* \"#utility.yul\":2983:3080   */\n      tag_58\n      jump\t// in\n    tag_101:\n        /* \"#utility.yul\":3101:3140   */\n      tag_102\n        /* \"#utility.yul\":3131:3139   */\n      dup7\n        /* \"#utility.yul\":3120:3129   */\n      dup4\n        /* \"#utility.yul\":3101:3140   */\n      tag_58\n      jump\t// in\n    tag_102:\n        /* \"#utility.yul\":3089:3140   */\n      swap6\n      pop\n        /* \"#utility.yul\":3173:3177   */\n      dup1\n        /* \"#utility.yul\":3169:3178   */\n      not\n        /* \"#utility.yul\":3162:3167   */\n      dup5\n        /* \"#utility.yul\":3158:3179   */\n      and\n        /* \"#utility.yul\":3149:3179   */\n      swap4\n      pop\n        /* \"#utility.yul\":3222:3226   */\n      dup1\n        /* \"#utility.yul\":3212:3220   */\n      dup7\n        /* \"#utility.yul\":3208:3227   */\n      and\n        /* \"#utility.yul\":3201:3206   */\n      dup5\n        /* \"#utility.yul\":3198:3228   */\n      or\n        /* \"#utility.yul\":3188:3228   */\n      swap3\n      pop\n        /* \"#utility.yul\":2917:3234   */\n      pop\n      pop\n        /* \"#utility.yul\":2841:3234   */\n      swap4\n      swap3\n      pop\n      pop\n      pop\n      jump\t// out\n        /* \"#utility.yul\":3240:3300   */\n    tag_60:\n        /* \"#utility.yul\":3268:3271   */\n      0x00\n        /* \"#utility.yul\":3289:3294   */\n      dup2\n        /* \"#utility.yul\":3282:3294   */\n      swap1\n      pop\n        /* \"#utility.yul\":3240:3300   */\n      swap2\n      swap1\n      pop\n      jump\t// out\n        /* \"#utility.yul\":3306:3448   */\n    tag_61:\n        /* \"#utility.yul\":3356:3365   */\n      0x00\n        /* \"#utility.yul\":3389:3442   */\n      tag_105\n        /* \"#utility.yul\":3407:3441   */\n      tag_106\n        /* \"#utility.yul\":3416:3440   */\n      tag_107\n        /* \"#utility.yul\":3434:3439   */\n      dup5\n        /* \"#utility.yul\":3416:3440   */\n      tag_47\n      jump\t// in\n    tag_107:\n        /* \"#utility.yul\":3407:3441   */\n      tag_60\n      jump\t// in\n    tag_106:\n        /* \"#utility.yul\":3389:3442   */\n      tag_47\n      jump\t// in\n    tag_105:\n        /* \"#utility.yul\":3376:3442   */\n      swap1\n      pop\n        /* \"#utility.yul\":3306:3448   */\n      swap2\n      swap1\n      pop\n      jump\t// out\n        /* \"#utility.yul\":3454:3529   */\n    tag_62:\n        /* \"#utility.yul\":3497:3500   */\n      0x00\n        /* \"#utility.yul\":3518:3523   */\n      dup2\n        /* \"#utility.yul\":3511:3523   */\n      swap1\n      pop\n        /* \"#utility.yul\":3454:3529   */\n      swap2\n      swap1\n      pop\n      jump\t// out\n        /* \"#utility.yul\":3535:3804   */\n    tag_63:\n        /* \"#utility.yul\":3645:3684   */\n      tag_110\n        /* \"#utility.yul\":3676:3683   */\n      dup4\n        /* \"#utility.yul\":3645:3684   */\n      tag_61\n      jump\t// in\n    tag_110:\n        /* \"#utility.yul\":3706:3797   */\n      tag_111\n        /* \"#utility.yul\":3755:3796   */\n      tag_112\n        /* \"#utility.yul\":3779:3795   */\n      dup3\n        /* \"#utility.yul\":3755:3796   */\n      tag_62\n      jump\t// in\n    tag_112:\n        /* \"#utility.yul\":3747:3753   */\n      dup5\n        /* \"#utility.yul\":3740:3744   */\n      dup5\n        /* \"#utility.yul\":3734:3745   */\n      sload\n        /* \"#utility.yul\":3706:3797   */\n      tag_59\n      jump\t// in\n    tag_111:\n        /* \"#utility.yul\":3700:3704   */\n      dup3\n        /* \"#utility.yul\":3693:3798   */\n      sstore\n        /* \"#utility.yul\":3611:3804   */\n      pop\n        /* \"#utility.yul\":3535:3804   */\n      pop\n      pop\n      pop\n      jump\t// out\n        /* \"#utility.yul\":3810:3883   */\n    tag_64:\n        /* \"#utility.yul\":3855:3858   */\n      0x00\n        /* \"#utility.yul\":3810:3883   */\n      swap1\n      jump\t// out\n        /* \"#utility.yul\":3889:4078   */\n    tag_65:\n        /* \"#utility.yul\":3966:3998   */\n      tag_115\n      tag_64\n      jump\t// in\n    tag_115:\n        /* \"#utility.yul\":4007:4072   */\n      tag_116\n        /* \"#utility.yul\":4065:4071   */\n      dup2\n        /* \"#utility.yul\":4057:4063   */\n      dup5\n        /* \"#utility.yul\":4051:4055   */\n      dup5\n        /* \"#utility.yul\":4007:4072   */\n      tag_63\n      jump\t// in\n    tag_116:\n        /* \"#utility.yul\":3942:4078   */\n      pop\n        /* \"#utility.yul\":3889:4078   */\n      pop\n      pop\n      jump\t// out\n        /* \"#utility.yul\":4084:4270   */\n    tag_66:\n        /* \"#utility.yul\":4144:4264   */\n    tag_118:\n        /* \"#utility.yul\":4161:4164   */\n      dup2\n        /* \"#utility.yul\":4154:4159   */\n      dup2\n        /* \"#utility.yul\":4151:4165   */\n      lt\n        /* \"#utility.yul\":4144:4264   */\n      iszero\n      tag_120\n      jumpi\n        /* \"#utility.yul\":4215:4254   */\n      tag_121\n        /* \"#utility.yul\":4252:4253   */\n      0x00\n        /* \"#utility.yul\":4245:4250   */\n      dup3\n        /* \"#utility.yul\":4215:4254   */\n      tag_65\n      jump\t// in\n    tag_121:\n        /* \"#utility.yul\":4188:4189   */\n      0x01\n        /* \"#utility.yul\":4181:4186   */\n      dup2\n        /* \"#utility.yul\":4177:4190   */\n      add\n        /* \"#utility.yul\":4168:4190   */\n      swap1\n      pop\n        /* \"#utility.yul\":4144:4264   */\n      jump(tag_118)\n    tag_120:\n        /* \"#utility.yul\":4084:4270   */\n      pop\n      pop\n      jump\t// out\n        /* \"#utility.yul\":4276:4819   */\n    tag_67:\n        /* \"#utility.yul\":4377:4379   */\n      0x1f\n        /* \"#utility.yul\":4372:4375   */\n      dup3\n        /* \"#utility.yul\":4369:4380   */\n      gt\n        /* \"#utility.yul\":4366:4812   */\n      iszero\n      tag_123\n      jumpi\n        /* \"#utility.yul\":4411:4449   */\n      tag_124\n        /* \"#utility.yul\":4443:4448   */\n      dup2\n        /* \"#utility.yul\":4411:4449   */\n      tag_56\n      jump\t// in\n    tag_124:\n        /* \"#utility.yul\":4495:4524   */\n      tag_125\n        /* \"#utility.yul\":4513:4523   */\n      dup5\n        /* \"#utility.yul\":4495:4524   */\n      tag_57\n      jump\t// in\n    tag_125:\n        /* \"#utility.yul\":4485:4493   */\n      dup2\n        /* \"#utility.yul\":4481:4525   */\n      add\n        /* \"#utility.yul\":4678:4680   */\n      0x20\n        /* \"#utility.yul\":4666:4676   */\n      dup6\n        /* \"#utility.yul\":4663:4681   */\n      lt\n        /* \"#utility.yul\":4660:4709   */\n      iszero\n      tag_126\n      jumpi\n        /* \"#utility.yul\":4699:4707   */\n      dup2\n        /* \"#utility.yul\":4684:4707   */\n      swap1\n      pop\n        /* \"#utility.yul\":4660:4709   */\n    tag_126:\n        /* \"#utility.yul\":4722:4802   */\n      tag_127\n        /* \"#utility.yul\":4778:4800   */\n      tag_128\n        /* \"#utility.yul\":4796:4799   */\n      dup6\n        /* \"#utility.yul\":4778:4800   */\n      tag_57\n      jump\t// in\n    tag_128:\n        /* \"#utility.yul\":4768:4776   */\n      dup4\n        /* \"#utility.yul\":4764:4801   */\n      add\n        /* \"#utility.yul\":4751:4762   */\n      dup3\n        /* \"#utility.yul\":4722:4802   */\n      tag_66\n      jump\t// in\n    tag_127:\n        /* \"#utility.yul\":4381:4812   */\n      pop\n      pop\n        /* \"#utility.yul\":4366:4812   */\n    tag_123:\n        /* \"#utility.yul\":4276:4819   */\n      pop\n      pop\n      pop\n      jump\t// out\n        /* \"#utility.yul\":4825:4942   */\n    tag_68:\n        /* \"#utility.yul\":4879:4887   */\n      0x00\n        /* \"#utility.yul\":4929:4934   */\n      dup3\n        /* \"#utility.yul\":4923:4927   */\n      dup3\n        /* \"#utility.yul\":4919:4935   */\n      shr\n        /* \"#utility.yul\":4898:4935   */\n      swap1\n      pop\n        /* \"#utility.yul\":4825:4942   */\n      swap3\n      swap2\n      pop\n      pop\n      jump\t// out\n        /* \"#utility.yul\":4948:5117   */\n    tag_69:\n        /* \"#utility.yul\":4992:4998   */\n      0x00\n        /* \"#utility.yul\":5025:5076   */\n      tag_131\n        /* \"#utility.yul\":5073:5074   */\n      0x00\n        /* \"#utility.yul\":5069:5075   */\n      not\n        /* \"#utility.yul\":5061:5066   */\n      dup5\n        /* \"#utility.yul\":5058:5059   */\n      0x08\n        /* \"#utility.yul\":5054:5067   */\n      mul\n        /* \"#utility.yul\":5025:5076   */\n      tag_68\n      jump\t// in\n    tag_131:\n        /* \"#utility.yul\":5021:5077   */\n      not\n        /* \"#utility.yul\":5106:5110   */\n      dup1\n        /* \"#utility.yul\":5100:5104   */\n      dup4\n        /* \"#utility.yul\":5096:5111   */\n      and\n        /* \"#utility.yul\":5086:5111   */\n      swap2\n      pop\n        /* \"#utility.yul\":4999:5117   */\n      pop\n        /* \"#utility.yul\":4948:5117   */\n      swap3\n      swap2\n      pop\n      pop\n      jump\t// out\n        /* \"#utility.yul\":5122:5417   */\n    tag_70:\n        /* \"#utility.yul\":5198:5202   */\n      0x00\n        /* \"#utility.yul\":5344:5373   */\n      tag_133\n        /* \"#utility.yul\":5369:5372   */\n      dup4\n        /* \"#utility.yul\":5363:5367   */\n      dup4\n        /* \"#utility.yul\":5344:5373   */\n      tag_69\n      jump\t// in\n    tag_133:\n        /* \"#utility.yul\":5336:5373   */\n      swap2\n      pop\n        /* \"#utility.yul\":5406:5409   */\n      dup3\n        /* \"#utility.yul\":5403:5404   */\n      0x02\n        /* \"#utility.yul\":5399:5410   */\n      mul\n        /* \"#utility.yul\":5393:5397   */\n      dup3\n        /* \"#utility.yul\":5390:5411   */\n      or\n        /* \"#utility.yul\":5382:5411   */\n      swap1\n      pop\n        /* \"#utility.yul\":5122:5417   */\n      swap3\n      swap2\n      pop\n      pop\n      jump\t// out\n        /* \"#utility.yul\":5422:6817   */\n    tag_26:\n        /* \"#utility.yul\":5539:5576   */\n      tag_135\n        /* \"#utility.yul\":5572:5575   */\n      dup3\n        /* \"#utility.yul\":5539:5576   */\n      tag_49\n      jump\t// in\n    tag_135:\n        /* \"#utility.yul\":5641:5659   */\n      0xffffffffffffffff\n        /* \"#utility.yul\":5633:5639   */\n      dup2\n        /* \"#utility.yul\":5630:5660   */\n      gt\n        /* \"#utility.yul\":5627:5683   */\n      iszero\n      tag_136\n      jumpi\n        /* \"#utility.yul\":5663:5681   */\n      tag_137\n      tag_55\n      jump\t// in\n    tag_137:\n        /* \"#utility.yul\":5627:5683   */\n    tag_136:\n        /* \"#utility.yul\":5707:5745   */\n      tag_138\n        /* \"#utility.yul\":5739:5743   */\n      dup3\n        /* \"#utility.yul\":5733:5744   */\n      sload\n        /* \"#utility.yul\":5707:5745   */\n      tag_18\n      jump\t// in\n    tag_138:\n        /* \"#utility.yul\":5792:5859   */\n      tag_139\n        /* \"#utility.yul\":5852:5858   */\n      dup3\n        /* \"#utility.yul\":5844:5850   */\n      dup3\n        /* \"#utility.yul\":5838:5842   */\n      dup6\n        /* \"#utility.yul\":5792:5859   */\n      tag_67\n      jump\t// in\n    tag_139:\n        /* \"#utility.yul\":5886:5887   */\n      0x00\n        /* \"#utility.yul\":5910:5914   */\n      0x20\n        /* \"#utility.yul\":5897:5914   */\n      swap1\n      pop\n        /* \"#utility.yul\":5942:5944   */\n      0x1f\n        /* \"#utility.yul\":5934:5940   */\n      dup4\n        /* \"#utility.yul\":5931:5945   */\n      gt\n        /* \"#utility.yul\":5959:5960   */\n      0x01\n        /* \"#utility.yul\":5954:6572   */\n      dup2\n      eq\n      tag_141\n      jumpi\n        /* \"#utility.yul\":6616:6617   */\n      0x00\n        /* \"#utility.yul\":6633:6639   */\n      dup5\n        /* \"#utility.yul\":6630:6707   */\n      iszero\n      tag_142\n      jumpi\n        /* \"#utility.yul\":6682:6691   */\n      dup3\n        /* \"#utility.yul\":6677:6680   */\n      dup8\n        /* \"#utility.yul\":6673:6692   */\n      add\n        /* \"#utility.yul\":6667:6693   */\n      mload\n        /* \"#utility.yul\":6658:6693   */\n      swap1\n      pop\n        /* \"#utility.yul\":6630:6707   */\n    tag_142:\n        /* \"#utility.yul\":6733:6800   */\n      tag_143\n        /* \"#utility.yul\":6793:6799   */\n      dup6\n        /* \"#utility.yul\":6786:6791   */\n      dup3\n        /* \"#utility.yul\":6733:6800   */\n      tag_70\n      jump\t// in\n    tag_143:\n        /* \"#utility.yul\":6727:6731   */\n      dup7\n        /* \"#utility.yul\":6720:6801   */\n      sstore\n        /* \"#utility.yul\":6589:6811   */\n      pop\n        /* \"#utility.yul\":5924:6811   */\n      jump(tag_140)\n        /* \"#utility.yul\":5954:6572   */\n    tag_141:\n        /* \"#utility.yul\":6006:6010   */\n      0x1f\n        /* \"#utility.yul\":6002:6011   */\n      not\n        /* \"#utility.yul\":5994:6000   */\n      dup5\n        /* \"#utility.yul\":5990:6012   */\n      and\n        /* \"#utility.yul\":6040:6077   */\n      tag_144\n        /* \"#utility.yul\":6072:6076   */\n      dup7\n        /* \"#utility.yul\":6040:6077   */\n      tag_56\n      jump\t// in\n    tag_144:\n        /* \"#utility.yul\":6099:6100   */\n      0x00\n        /* \"#utility.yul\":6113:6321   */\n    tag_145:\n        /* \"#utility.yul\":6127:6134   */\n      dup3\n        /* \"#utility.yul\":6124:6125   */\n      dup2\n        /* \"#utility.yul\":6121:6135   */\n      lt\n        /* \"#utility.yul\":6113:6321   */\n      iszero\n      tag_147\n      jumpi\n        /* \"#utility.yul\":6206:6215   */\n      dup5\n        /* \"#utility.yul\":6201:6204   */\n      dup10\n        /* \"#utility.yul\":6197:6216   */\n      add\n        /* \"#utility.yul\":6191:6217   */\n      mload\n        /* \"#utility.yul\":6183:6189   */\n      dup3\n        /* \"#utility.yul\":6176:6218   */\n      sstore\n        /* \"#utility.yul\":6257:6258   */\n      0x01\n        /* \"#utility.yul\":6249:6255   */\n      dup3\n        /* \"#utility.yul\":6245:6259   */\n      add\n        /* \"#utility.yul\":6235:6259   */\n      swap2\n      pop\n        /* \"#utility.yul\":6304:6306   */\n      0x20\n        /* \"#utility.yul\":6293:6302   */\n      dup6\n        /* \"#utility.yul\":6289:6307   */\n      add\n        /* \"#utility.yul\":6276:6307   */\n      swap5\n      pop\n        /* \"#utility.yul\":6150:6154   */\n      0x20\n        /* \"#utility.yul\":6147:6148   */\n      dup2\n        /* \"#utility.yul\":6143:6155   */\n      add\n        /* \"#utility.yul\":6138:6155   */\n      swap1\n      pop\n        /* \"#utility.yul\":6113:6321   */\n      jump(tag_145)\n    tag_147:\n        /* \"#utility.yul\":6349:6355   */\n      dup7\n        /* \"#utility.yul\":6340:6347   */\n      dup4\n        /* \"#utility.yul\":6337:6356   */\n      lt\n        /* \"#utility.yul\":6334:6513   */\n      iszero\n      tag_148\n      jumpi\n        /* \"#utility.yul\":6407:6416   */\n      dup5\n        /* \"#utility.yul\":6402:6405   */\n      dup10\n        /* \"#utility.yul\":6398:6417   */\n      add\n        /* \"#utility.yul\":6392:6418   */\n      mload\n        /* \"#utility.yul\":6450:6498   */\n      tag_149\n        /* \"#utility.yul\":6492:6496   */\n      0x1f\n        /* \"#utility.yul\":6484:6490   */\n      dup10\n        /* \"#utility.yul\":6480:6497   */\n      and\n        /* \"#utility.yul\":6469:6478   */\n      dup3\n        /* \"#utility.yul\":6450:6498   */\n      tag_69\n      jump\t// in\n    tag_149:\n        /* \"#utility.yul\":6442:6448   */\n      dup4\n        /* \"#utility.yul\":6435:6499   */\n      sstore\n        /* \"#utility.yul\":6357:6513   */\n      pop\n        /* \"#utility.yul\":6334:6513   */\n    tag_148:\n        /* \"#utility.yul\":6559:6560   */\n      0x01\n        /* \"#utility.yul\":6555:6556   */\n      0x02\n        /* \"#utility.yul\":6547:6553   */\n      dup9\n        /* \"#utility.yul\":6543:6557   */\n      mul\n        /* \"#utility.yul\":6539:6561   */\n      add\n        /* \"#utility.yul\":6533:6537   */\n      dup9\n        /* \"#utility.yul\":6526:6562   */\n      sstore\n        /* \"#utility.yul\":5961:6572   */\n      pop\n      pop\n      pop\n        /* \"#utility.yul\":5924:6811   */\n    tag_140:\n      pop\n        /* \"#utility.yul\":5514:6817   */\n      pop\n      pop\n      pop\n        /* \"#utility.yul\":5422:6817   */\n      pop\n      pop\n      jump\t// out\n\n    auxdata: 0xa2646970667358221220bf6a961a195c935e2eebe494da5415c770b6671fcb356234ac93e0f6513d3d3564736f6c63430008110033\n}\n",
				"bytecode": {
					"linkReferences": {},
					"object": "60806040526001805534801561001457600080fd5b506107f6806100246000396000f3fe608060405234801561001057600080fd5b50600436106100415760003560e01c80630dbe671f146100465780634df7e3d014610064578063e4501d1c14610082575b600080fd5b61004e6100a0565b60405161005b91906103e6565b60405180910390f35b61006c6100a6565b6040516100799190610491565b60405180910390f35b61008a610134565b6040516100979190610491565b60405180910390f35b60015481565b600080546100b3906104e2565b80601f01602080910402602001604051908101604052809291908181526020018280546100df906104e2565b801561012c5780601f106101015761010080835404028352916020019161012c565b820191906000526020600020905b81548152906001019060200180831161010f57829003601f168201915b505050505081565b6060600060015403610217576040518060400160405280600581526020017f6d6568616e0000000000000000000000000000000000000000000000000000008152506000908161018491906106ee565b5060008054610192906104e2565b80601f01602080910402602001604051908101604052809291908181526020018280546101be906104e2565b801561020b5780601f106101e05761010080835404028352916020019161020b565b820191906000526020600020905b8154815290600101906020018083116101ee57829003601f168201915b505050505090506103ca565b60018054036102f7576040518060400160405280600481526020017f68686868000000000000000000000000000000000000000000000000000000008152506000908161026491906106ee565b5060008054610272906104e2565b80601f016020809104026020016040519081016040528092919081815260200182805461029e906104e2565b80156102eb5780601f106102c0576101008083540402835291602001916102eb565b820191906000526020600020905b8154815290600101906020018083116102ce57829003601f168201915b505050505090506103ca565b6040518060400160405280600b81526020017f6d6568616e3132333434350000000000000000000000000000000000000000008152506000908161033b91906106ee565b5060008054610349906104e2565b80601f0160208091040260200160405190810160405280929190818152602001828054610375906104e2565b80156103c25780601f10610397576101008083540402835291602001916103c2565b820191906000526020600020905b8154815290600101906020018083116103a557829003601f168201915b505050505090505b90565b6000819050919050565b6103e0816103cd565b82525050565b60006020820190506103fb60008301846103d7565b92915050565b600081519050919050565b600082825260208201905092915050565b60005b8381101561043b578082015181840152602081019050610420565b60008484015250505050565b6000601f19601f8301169050919050565b600061046382610401565b61046d818561040c565b935061047d81856020860161041d565b61048681610447565b840191505092915050565b600060208201905081810360008301526104ab8184610458565b905092915050565b7f4e487b7100000000000000000000000000000000000000000000000000000000600052602260045260246000fd5b600060028204905060018216806104fa57607f821691505b60208210810361050d5761050c6104b3565b5b50919050565b7f4e487b7100000000000000000000000000000000000000000000000000000000600052604160045260246000fd5b60008190508160005260206000209050919050565b60006020601f8301049050919050565b600082821b905092915050565b6000600883026105a47fffffffffffffffffffffffffffffffffffffffffffffffffffffffffffffffff82610567565b6105ae8683610567565b95508019841693508086168417925050509392505050565b6000819050919050565b60006105eb6105e66105e1846103cd565b6105c6565b6103cd565b9050919050565b6000819050919050565b610605836105d0565b610619610611826105f2565b848454610574565b825550505050565b600090565b61062e610621565b6106398184846105fc565b505050565b5b8181101561065d57610652600082610626565b60018101905061063f565b5050565b601f8211156106a25761067381610542565b61067c84610557565b8101602085101561068b578190505b61069f61069785610557565b83018261063e565b50505b505050565b600082821c905092915050565b60006106c5600019846008026106a7565b1980831691505092915050565b60006106de83836106b4565b9150826002028217905092915050565b6106f782610401565b67ffffffffffffffff8111156107105761070f610513565b5b61071a82546104e2565b610725828285610661565b600060209050601f8311600181146107585760008415610746578287015190505b61075085826106d2565b8655506107b8565b601f19841661076686610542565b60005b8281101561078e57848901518255600182019150602085019450602081019050610769565b868310156107ab57848901516107a7601f8916826106b4565b8355505b6001600288020188555050505b50505050505056fea2646970667358221220bf6a961a195c935e2eebe494da5415c770b6671fcb356234ac93e0f6513d3d3564736f6c63430008110033",
					"opcodes": "PUSH1 0x80 PUSH1 0x40 MSTORE PUSH1 0x1 DUP1 SSTORE CALLVALUE DUP1 ISZERO PUSH2 0x14 JUMPI PUSH1 0x0 DUP1 REVERT JUMPDEST POP PUSH2 0x7F6 DUP1 PUSH2 0x24 PUSH1 0x0 CODECOPY PUSH1 0x0 RETURN INVALID PUSH1 0x80 PUSH1 0x40 MSTORE CALLVALUE DUP1 ISZERO PUSH2 0x10 JUMPI PUSH1 0x0 DUP1 REVERT JUMPDEST POP PUSH1 0x4 CALLDATASIZE LT PUSH2 0x41 JUMPI PUSH1 0x0 CALLDATALOAD PUSH1 0xE0 SHR DUP1 PUSH4 0xDBE671F EQ PUSH2 0x46 JUMPI DUP1 PUSH4 0x4DF7E3D0 EQ PUSH2 0x64 JUMPI DUP1 PUSH4 0xE4501D1C EQ PUSH2 0x82 JUMPI JUMPDEST PUSH1 0x0 DUP1 REVERT JUMPDEST PUSH2 0x4E PUSH2 0xA0 JUMP JUMPDEST PUSH1 0x40 MLOAD PUSH2 0x5B SWAP2 SWAP1 PUSH2 0x3E6 JUMP JUMPDEST PUSH1 0x40 MLOAD DUP1 SWAP2 SUB SWAP1 RETURN JUMPDEST PUSH2 0x6C PUSH2 0xA6 JUMP JUMPDEST PUSH1 0x40 MLOAD PUSH2 0x79 SWAP2 SWAP1 PUSH2 0x491 JUMP JUMPDEST PUSH1 0x40 MLOAD DUP1 SWAP2 SUB SWAP1 RETURN JUMPDEST PUSH2 0x8A PUSH2 0x134 JUMP JUMPDEST PUSH1 0x40 MLOAD PUSH2 0x97 SWAP2 SWAP1 PUSH2 0x491 JUMP JUMPDEST PUSH1 0x40 MLOAD DUP1 SWAP2 SUB SWAP1 RETURN JUMPDEST PUSH1 0x1 SLOAD DUP2 JUMP JUMPDEST PUSH1 0x0 DUP1 SLOAD PUSH2 0xB3 SWAP1 PUSH2 0x4E2 JUMP JUMPDEST DUP1 PUSH1 0x1F ADD PUSH1 0x20 DUP1 SWAP2 DIV MUL PUSH1 0x20 ADD PUSH1 0x40 MLOAD SWAP1 DUP2 ADD PUSH1 0x40 MSTORE DUP1 SWAP3 SWAP2 SWAP1 DUP2 DUP2 MSTORE PUSH1 0x20 ADD DUP3 DUP1 SLOAD PUSH2 0xDF SWAP1 PUSH2 0x4E2 JUMP JUMPDEST DUP1 ISZERO PUSH2 0x12C JUMPI DUP1 PUSH1 0x1F LT PUSH2 0x101 JUMPI PUSH2 0x100 DUP1 DUP4 SLOAD DIV MUL DUP4 MSTORE SWAP2 PUSH1 0x20 ADD SWAP2 PUSH2 0x12C JUMP JUMPDEST DUP3 ADD SWAP2 SWAP1 PUSH1 0x0 MSTORE PUSH1 0x20 PUSH1 0x0 KECCAK256 SWAP1 JUMPDEST DUP2 SLOAD DUP2 MSTORE SWAP1 PUSH1 0x1 ADD SWAP1 PUSH1 0x20 ADD DUP1 DUP4 GT PUSH2 0x10F JUMPI DUP3 SWAP1 SUB PUSH1 0x1F AND DUP3 ADD SWAP2 JUMPDEST POP POP POP POP POP DUP2 JUMP JUMPDEST PUSH1 0x60 PUSH1 0x0 PUSH1 0x1 SLOAD SUB PUSH2 0x217 JUMPI PUSH1 0x40 MLOAD DUP1 PUSH1 0x40 ADD PUSH1 0x40 MSTORE DUP1 PUSH1 0x5 DUP2 MSTORE PUSH1 0x20 ADD PUSH32 0x6D6568616E000000000000000000000000000000000000000000000000000000 DUP2 MSTORE POP PUSH1 0x0 SWAP1 DUP2 PUSH2 0x184 SWAP2 SWAP1 PUSH2 0x6EE JUMP JUMPDEST POP PUSH1 0x0 DUP1 SLOAD PUSH2 0x192 SWAP1 PUSH2 0x4E2 JUMP JUMPDEST DUP1 PUSH1 0x1F ADD PUSH1 0x20 DUP1 SWAP2 DIV MUL PUSH1 0x20 ADD PUSH1 0x40 MLOAD SWAP1 DUP2 ADD PUSH1 0x40 MSTORE DUP1 SWAP3 SWAP2 SWAP1 DUP2 DUP2 MSTORE PUSH1 0x20 ADD DUP3 DUP1 SLOAD PUSH2 0x1BE SWAP1 PUSH2 0x4E2 JUMP JUMPDEST DUP1 ISZERO PUSH2 0x20B JUMPI DUP1 PUSH1 0x1F LT PUSH2 0x1E0 JUMPI PUSH2 0x100 DUP1 DUP4 SLOAD DIV MUL DUP4 MSTORE SWAP2 PUSH1 0x20 ADD SWAP2 PUSH2 0x20B JUMP JUMPDEST DUP3 ADD SWAP2 SWAP1 PUSH1 0x0 MSTORE PUSH1 0x20 PUSH1 0x0 KECCAK256 SWAP1 JUMPDEST DUP2 SLOAD DUP2 MSTORE SWAP1 PUSH1 0x1 ADD SWAP1 PUSH1 0x20 ADD DUP1 DUP4 GT PUSH2 0x1EE JUMPI DUP3 SWAP1 SUB PUSH1 0x1F AND DUP3 ADD SWAP2 JUMPDEST POP POP POP POP POP SWAP1 POP PUSH2 0x3CA JUMP JUMPDEST PUSH1 0x1 DUP1 SLOAD SUB PUSH2 0x2F7 JUMPI PUSH1 0x40 MLOAD DUP1 PUSH1 0x40 ADD PUSH1 0x40 MSTORE DUP1 PUSH1 0x4 DUP2 MSTORE PUSH1 0x20 ADD PUSH32 0x6868686800000000000000000000000000000000000000000000000000000000 DUP2 MSTORE POP PUSH1 0x0 SWAP1 DUP2 PUSH2 0x264 SWAP2 SWAP1 PUSH2 0x6EE JUMP JUMPDEST POP PUSH1 0x0 DUP1 SLOAD PUSH2 0x272 SWAP1 PUSH2 0x4E2 JUMP JUMPDEST DUP1 PUSH1 0x1F ADD PUSH1 0x20 DUP1 SWAP2 DIV MUL PUSH1 0x20 ADD PUSH1 0x40 MLOAD SWAP1 DUP2 ADD PUSH1 0x40 MSTORE DUP1 SWAP3 SWAP2 SWAP1 DUP2 DUP2 MSTORE PUSH1 0x20 ADD DUP3 DUP1 SLOAD PUSH2 0x29E SWAP1 PUSH2 0x4E2 JUMP JUMPDEST DUP1 ISZERO PUSH2 0x2EB JUMPI DUP1 PUSH1 0x1F LT PUSH2 0x2C0 JUMPI PUSH2 0x100 DUP1 DUP4 SLOAD DIV MUL DUP4 MSTORE SWAP2 PUSH1 0x20 ADD SWAP2 PUSH2 0x2EB JUMP JUMPDEST DUP3 ADD SWAP2 SWAP1 PUSH1 0x0 MSTORE PUSH1 0x20 PUSH1 0x0 KECCAK256 SWAP1 JUMPDEST DUP2 SLOAD DUP2 MSTORE SWAP1 PUSH1 0x1 ADD SWAP1 PUSH1 0x20 ADD DUP1 DUP4 GT PUSH2 0x2CE JUMPI DUP3 SWAP1 SUB PUSH1 0x1F AND DUP3 ADD SWAP2 JUMPDEST POP POP POP POP POP SWAP1 POP PUSH2 0x3CA JUMP JUMPDEST PUSH1 0x40 MLOAD DUP1 PUSH1 0x40 ADD PUSH1 0x40 MSTORE DUP1 PUSH1 0xB DUP2 MSTORE PUSH1 0x20 ADD PUSH32 0x6D6568616E313233343435000000000000000000000000000000000000000000 DUP2 MSTORE POP PUSH1 0x0 SWAP1 DUP2 PUSH2 0x33B SWAP2 SWAP1 PUSH2 0x6EE JUMP JUMPDEST POP PUSH1 0x0 DUP1 SLOAD PUSH2 0x349 SWAP1 PUSH2 0x4E2 JUMP JUMPDEST DUP1 PUSH1 0x1F ADD PUSH1 0x20 DUP1 SWAP2 DIV MUL PUSH1 0x20 ADD PUSH1 0x40 MLOAD SWAP1 DUP2 ADD PUSH1 0x40 MSTORE DUP1 SWAP3 SWAP2 SWAP1 DUP2 DUP2 MSTORE PUSH1 0x20 ADD DUP3 DUP1 SLOAD PUSH2 0x375 SWAP1 PUSH2 0x4E2 JUMP JUMPDEST DUP1 ISZERO PUSH2 0x3C2 JUMPI DUP1 PUSH1 0x1F LT PUSH2 0x397 JUMPI PUSH2 0x100 DUP1 DUP4 SLOAD DIV MUL DUP4 MSTORE SWAP2 PUSH1 0x20 ADD SWAP2 PUSH2 0x3C2 JUMP JUMPDEST DUP3 ADD SWAP2 SWAP1 PUSH1 0x0 MSTORE PUSH1 0x20 PUSH1 0x0 KECCAK256 SWAP1 JUMPDEST DUP2 SLOAD DUP2 MSTORE SWAP1 PUSH1 0x1 ADD SWAP1 PUSH1 0x20 ADD DUP1 DUP4 GT PUSH2 0x3A5 JUMPI DUP3 SWAP1 SUB PUSH1 0x1F AND DUP3 ADD SWAP2 JUMPDEST POP POP POP POP POP SWAP1 POP JUMPDEST SWAP1 JUMP JUMPDEST PUSH1 0x0 DUP2 SWAP1 POP SWAP2 SWAP1 POP JUMP JUMPDEST PUSH2 0x3E0 DUP2 PUSH2 0x3CD JUMP JUMPDEST DUP3 MSTORE POP POP JUMP JUMPDEST PUSH1 0x0 PUSH1 0x20 DUP3 ADD SWAP1 POP PUSH2 0x3FB PUSH1 0x0 DUP4 ADD DUP5 PUSH2 0x3D7 JUMP JUMPDEST SWAP3 SWAP2 POP POP JUMP JUMPDEST PUSH1 0x0 DUP2 MLOAD SWAP1 POP SWAP2 SWAP1 POP JUMP JUMPDEST PUSH1 0x0 DUP3 DUP3 MSTORE PUSH1 0x20 DUP3 ADD SWAP1 POP SWAP3 SWAP2 POP POP JUMP JUMPDEST PUSH1 0x0 JUMPDEST DUP4 DUP2 LT ISZERO PUSH2 0x43B JUMPI DUP1 DUP3 ADD MLOAD DUP2 DUP5 ADD MSTORE PUSH1 0x20 DUP2 ADD SWAP1 POP PUSH2 0x420 JUMP JUMPDEST PUSH1 0x0 DUP5 DUP5 ADD MSTORE POP POP POP POP JUMP JUMPDEST PUSH1 0x0 PUSH1 0x1F NOT PUSH1 0x1F DUP4 ADD AND SWAP1 POP SWAP2 SWAP1 POP JUMP JUMPDEST PUSH1 0x0 PUSH2 0x463 DUP3 PUSH2 0x401 JUMP JUMPDEST PUSH2 0x46D DUP2 DUP6 PUSH2 0x40C JUMP JUMPDEST SWAP4 POP PUSH2 0x47D DUP2 DUP6 PUSH1 0x20 DUP7 ADD PUSH2 0x41D JUMP JUMPDEST PUSH2 0x486 DUP2 PUSH2 0x447 JUMP JUMPDEST DUP5 ADD SWAP2 POP POP SWAP3 SWAP2 POP POP JUMP JUMPDEST PUSH1 0x0 PUSH1 0x20 DUP3 ADD SWAP1 POP DUP2 DUP2 SUB PUSH1 0x0 DUP4 ADD MSTORE PUSH2 0x4AB DUP2 DUP5 PUSH2 0x458 JUMP JUMPDEST SWAP1 POP SWAP3 SWAP2 POP POP JUMP JUMPDEST PUSH32 0x4E487B7100000000000000000000000000000000000000000000000000000000 PUSH1 0x0 MSTORE PUSH1 0x22 PUSH1 0x4 MSTORE PUSH1 0x24 PUSH1 0x0 REVERT JUMPDEST PUSH1 0x0 PUSH1 0x2 DUP3 DIV SWAP1 POP PUSH1 0x1 DUP3 AND DUP1 PUSH2 0x4FA JUMPI PUSH1 0x7F DUP3 AND SWAP2 POP JUMPDEST PUSH1 0x20 DUP3 LT DUP2 SUB PUSH2 0x50D JUMPI PUSH2 0x50C PUSH2 0x4B3 JUMP JUMPDEST JUMPDEST POP SWAP2 SWAP1 POP JUMP JUMPDEST PUSH32 0x4E487B7100000000000000000000000000000000000000000000000000000000 PUSH1 0x0 MSTORE PUSH1 0x41 PUSH1 0x4 MSTORE PUSH1 0x24 PUSH1 0x0 REVERT JUMPDEST PUSH1 0x0 DUP2 SWAP1 POP DUP2 PUSH1 0x0 MSTORE PUSH1 0x20 PUSH1 0x0 KECCAK256 SWAP1 POP SWAP2 SWAP1 POP JUMP JUMPDEST PUSH1 0x0 PUSH1 0x20 PUSH1 0x1F DUP4 ADD DIV SWAP1 POP SWAP2 SWAP1 POP JUMP JUMPDEST PUSH1 0x0 DUP3 DUP3 SHL SWAP1 POP SWAP3 SWAP2 POP POP JUMP JUMPDEST PUSH1 0x0 PUSH1 0x8 DUP4 MUL PUSH2 0x5A4 PUSH32 0xFFFFFFFFFFFFFFFFFFFFFFFFFFFFFFFFFFFFFFFFFFFFFFFFFFFFFFFFFFFFFFFF DUP3 PUSH2 0x567 JUMP JUMPDEST PUSH2 0x5AE DUP7 DUP4 PUSH2 0x567 JUMP JUMPDEST SWAP6 POP DUP1 NOT DUP5 AND SWAP4 POP DUP1 DUP7 AND DUP5 OR SWAP3 POP POP POP SWAP4 SWAP3 POP POP POP JUMP JUMPDEST PUSH1 0x0 DUP2 SWAP1 POP SWAP2 SWAP1 POP JUMP JUMPDEST PUSH1 0x0 PUSH2 0x5EB PUSH2 0x5E6 PUSH2 0x5E1 DUP5 PUSH2 0x3CD JUMP JUMPDEST PUSH2 0x5C6 JUMP JUMPDEST PUSH2 0x3CD JUMP JUMPDEST SWAP1 POP SWAP2 SWAP1 POP JUMP JUMPDEST PUSH1 0x0 DUP2 SWAP1 POP SWAP2 SWAP1 POP JUMP JUMPDEST PUSH2 0x605 DUP4 PUSH2 0x5D0 JUMP JUMPDEST PUSH2 0x619 PUSH2 0x611 DUP3 PUSH2 0x5F2 JUMP JUMPDEST DUP5 DUP5 SLOAD PUSH2 0x574 JUMP JUMPDEST DUP3 SSTORE POP POP POP POP JUMP JUMPDEST PUSH1 0x0 SWAP1 JUMP JUMPDEST PUSH2 0x62E PUSH2 0x621 JUMP JUMPDEST PUSH2 0x639 DUP2 DUP5 DUP5 PUSH2 0x5FC JUMP JUMPDEST POP POP POP JUMP JUMPDEST JUMPDEST DUP2 DUP2 LT ISZERO PUSH2 0x65D JUMPI PUSH2 0x652 PUSH1 0x0 DUP3 PUSH2 0x626 JUMP JUMPDEST PUSH1 0x1 DUP2 ADD SWAP1 POP PUSH2 0x63F JUMP JUMPDEST POP POP JUMP JUMPDEST PUSH1 0x1F DUP3 GT ISZERO PUSH2 0x6A2 JUMPI PUSH2 0x673 DUP2 PUSH2 0x542 JUMP JUMPDEST PUSH2 0x67C DUP5 PUSH2 0x557 JUMP JUMPDEST DUP2 ADD PUSH1 0x20 DUP6 LT ISZERO PUSH2 0x68B JUMPI DUP2 SWAP1 POP JUMPDEST PUSH2 0x69F PUSH2 0x697 DUP6 PUSH2 0x557 JUMP JUMPDEST DUP4 ADD DUP3 PUSH2 0x63E JUMP JUMPDEST POP POP JUMPDEST POP POP POP JUMP JUMPDEST PUSH1 0x0 DUP3 DUP3 SHR SWAP1 POP SWAP3 SWAP2 POP POP JUMP JUMPDEST PUSH1 0x0 PUSH2 0x6C5 PUSH1 0x0 NOT DUP5 PUSH1 0x8 MUL PUSH2 0x6A7 JUMP JUMPDEST NOT DUP1 DUP4 AND SWAP2 POP POP SWAP3 SWAP2 POP POP JUMP JUMPDEST PUSH1 0x0 PUSH2 0x6DE DUP4 DUP4 PUSH2 0x6B4 JUMP JUMPDEST SWAP2 POP DUP3 PUSH1 0x2 MUL DUP3 OR SWAP1 POP SWAP3 SWAP2 POP POP JUMP JUMPDEST PUSH2 0x6F7 DUP3 PUSH2 0x401 JUMP JUMPDEST PUSH8 0xFFFFFFFFFFFFFFFF DUP2 GT ISZERO PUSH2 0x710 JUMPI PUSH2 0x70F PUSH2 0x513 JUMP JUMPDEST JUMPDEST PUSH2 0x71A DUP3 SLOAD PUSH2 0x4E2 JUMP JUMPDEST PUSH2 0x725 DUP3 DUP3 DUP6 PUSH2 0x661 JUMP JUMPDEST PUSH1 0x0 PUSH1 0x20 SWAP1 POP PUSH1 0x1F DUP4 GT PUSH1 0x1 DUP2 EQ PUSH2 0x758 JUMPI PUSH1 0x0 DUP5 ISZERO PUSH2 0x746 JUMPI DUP3 DUP8 ADD MLOAD SWAP1 POP JUMPDEST PUSH2 0x750 DUP6 DUP3 PUSH2 0x6D2 JUMP JUMPDEST DUP7 SSTORE POP PUSH2 0x7B8 JUMP JUMPDEST PUSH1 0x1F NOT DUP5 AND PUSH2 0x766 DUP7 PUSH2 0x542 JUMP JUMPDEST PUSH1 0x0 JUMPDEST DUP3 DUP2 LT ISZERO PUSH2 0x78E JUMPI DUP5 DUP10 ADD MLOAD DUP3 SSTORE PUSH1 0x1 DUP3 ADD SWAP2 POP PUSH1 0x20 DUP6 ADD SWAP5 POP PUSH1 0x20 DUP2 ADD SWAP1 POP PUSH2 0x769 JUMP JUMPDEST DUP7 DUP4 LT ISZERO PUSH2 0x7AB JUMPI DUP5 DUP10 ADD MLOAD PUSH2 0x7A7 PUSH1 0x1F DUP10 AND DUP3 PUSH2 0x6B4 JUMP JUMPDEST DUP4 SSTORE POP JUMPDEST PUSH1 0x1 PUSH1 0x2 DUP9 MUL ADD DUP9 SSTORE POP POP POP JUMPDEST POP POP POP POP POP POP JUMP INVALID LOG2 PUSH5 0x6970667358 0x22 SLT KECCAK256 0xBF PUSH11 0x961A195C935E2EEBE494DA SLOAD ISZERO 0xC7 PUSH17 0xB6671FCB356234AC93E0F6513D3D356473 PUSH16 0x6C634300081100330000000000000000 "
				},
				"gasEstimates": {
					"creation": {
						"codeDepositCost": "407600",
						"executionCost": "22549",
						"totalCost": "430149"
					},
					"external": {
						"a()": "2407",
						"b()": "infinite",
						"ifelse()": "infinite"
					}
				},
				"methodIdentifiers": {
					"a()": "0dbe671f",
					"b()": "4df7e3d0",
					"ifelse()": "e4501d1c"
				}
			},
			"storageLayout": {
				"storage": [
					{
						"astId": 3,
						"contract": "remix_ide/if_elseif_else.sol:mehan",
						"label": "b",
						"offset": 0,
						"slot": "0",
						"type": "t_string_storage"
					},
					{
						"astId": 6,
						"contract": "remix_ide/if_elseif_else.sol:mehan",
						"label": "a",
						"offset": 0,
						"slot": "1",
						"type": "t_uint256"
					}
				],
				"types": {
					"t_string_storage": {
						"encoding": "bytes",
						"label": "string",
						"numberOfBytes": "32"
					},
					"t_uint256": {
						"encoding": "inplace",
						"label": "uint256",
						"numberOfBytes": "32"
					}
				}
			},
			"userdoc": {
				"kind": "user",
				"methods": {},
				"version": 1
			}
		}
	}
}