{
	"data": {
		"bytecode": {
			"linkReferences": {},
			"object": "60806040526000805534801561001457600080fd5b50610182806100246000396000f3fe608060405234801561001057600080fd5b50600436106100365760003560e01c80630dbe671f1461003b578063c2d7cd4014610059575b600080fd5b610043610063565b60405161005091906100ba565b60405180910390f35b610061610069565b005b60005481565b60005b600a811161009e5760008081548092919061008690610104565b9190505550808061009690610104565b91505061006c565b50565b6000819050919050565b6100b4816100a1565b82525050565b60006020820190506100cf60008301846100ab565b92915050565b7f4e487b7100000000000000000000000000000000000000000000000000000000600052601160045260246000fd5b600061010f826100a1565b91507fffffffffffffffffffffffffffffffffffffffffffffffffffffffffffffffff8203610141576101406100d5565b5b60018201905091905056fea264697066735822122065736025747e5e96ba7b65b7cb7247186a1975696f3563a34841c17c64427a8864736f6c63430008110033",
			"opcodes": "PUSH1 0x80 PUSH1 0x40 MSTORE PUSH1 0x0 DUP1 SSTORE CALLVALUE DUP1 ISZERO PUSH2 0x14 JUMPI PUSH1 0x0 DUP1 REVERT JUMPDEST POP PUSH2 0x182 DUP1 PUSH2 0x24 PUSH1 0x0 CODECOPY PUSH1 0x0 RETURN INVALID PUSH1 0x80 PUSH1 0x40 MSTORE CALLVALUE DUP1 ISZERO PUSH2 0x10 JUMPI PUSH1 0x0 DUP1 REVERT JUMPDEST POP PUSH1 0x4 CALLDATASIZE LT PUSH2 0x36 JUMPI PUSH1 0x0 CALLDATALOAD PUSH1 0xE0 SHR DUP1 PUSH4 0xDBE671F EQ PUSH2 0x3B JUMPI DUP1 PUSH4 0xC2D7CD40 EQ PUSH2 0x59 JUMPI JUMPDEST PUSH1 0x0 DUP1 REVERT JUMPDEST PUSH2 0x43 PUSH2 0x63 JUMP JUMPDEST PUSH1 0x40 MLOAD PUSH2 0x50 SWAP2 SWAP1 PUSH2 0xBA JUMP JUMPDEST PUSH1 0x40 MLOAD DUP1 SWAP2 SUB SWAP1 RETURN JUMPDEST PUSH2 0x61 PUSH2 0x69 JUMP JUMPDEST STOP JUMPDEST PUSH1 0x0 SLOAD DUP2 JUMP JUMPDEST PUSH1 0x0 JUMPDEST PUSH1 0xA DUP2 GT PUSH2 0x9E JUMPI PUSH1 0x0 DUP1 DUP2 SLOAD DUP1 SWAP3 SWAP2 SWAP1 PUSH2 0x86 SWAP1 PUSH2 0x104 JUMP JUMPDEST SWAP2 SWAP1 POP SSTORE POP DUP1 DUP1 PUSH2 0x96 SWAP1 PUSH2 0x104 JUMP JUMPDEST SWAP2 POP POP PUSH2 0x6C JUMP JUMPDEST POP JUMP JUMPDEST PUSH1 0x0 DUP2 SWAP1 POP SWAP2 SWAP1 POP JUMP JUMPDEST PUSH2 0xB4 DUP2 PUSH2 0xA1 JUMP JUMPDEST DUP3 MSTORE POP POP JUMP JUMPDEST PUSH1 0x0 PUSH1 0x20 DUP3 ADD SWAP1 POP PUSH2 0xCF PUSH1 0x0 DUP4 ADD DUP5 PUSH2 0xAB JUMP JUMPDEST SWAP3 SWAP2 POP POP JUMP JUMPDEST PUSH32 0x4E487B7100000000000000000000000000000000000000000000000000000000 PUSH1 0x0 MSTORE PUSH1 0x11 PUSH1 0x4 MSTORE PUSH1 0x24 PUSH1 0x0 REVERT JUMPDEST PUSH1 0x0 PUSH2 0x10F DUP3 PUSH2 0xA1 JUMP JUMPDEST SWAP2 POP PUSH32 0xFFFFFFFFFFFFFFFFFFFFFFFFFFFFFFFFFFFFFFFFFFFFFFFFFFFFFFFFFFFFFFFF DUP3 SUB PUSH2 0x141 JUMPI PUSH2 0x140 PUSH2 0xD5 JUMP JUMPDEST JUMPDEST PUSH1 0x1 DUP3 ADD SWAP1 POP SWAP2 SWAP1 POP JUMP INVALID LOG2 PUSH5 0x6970667358 0x22 SLT KECCAK256 PUSH6 0x736025747E5E SWAP7 0xBA PUSH28 0x65B7CB7247186A1975696F3563A34841C17C64427A8864736F6C6343 STOP ADDMOD GT STOP CALLER "
		},
		"gasEstimates": {
			"creation": {
				"codeDepositCost": "77200",
				"executionCost": "5135",
				"totalCost": "82335"
			},
			"external": {
				"a()": "2407",
				"forr()": "infinite"
			}
		},
		"methodIdentifiers": {
			"a()": "0dbe671f",
			"forr()": "c2d7cd40"
		}
	},
	"abi": [
		{
			"inputs": [],
			"name": "a",
			"outputs": [
				{
					"internalType": "uint256",
					"name": "",
					"type": "uint256"
				}
			],
			"stateMutability": "view",
			"type": "function"
		},
		{
			"inputs": [],
			"name": "forr",
			"outputs": [],
			"stateMutability": "nonpayable",
			"type": "function"
		}
	]
}