{
	"remix ide/ARRAY/ARRAY OPERATIONS.sol": {
		"Mehan": {
			"abi": [
				{
					"inputs": [
						{
							"internalType": "uint256",
							"name": "a",
							"type": "uint256"
						}
					],
					"name": "add",
					"outputs": [],
					"stateMutability": "nonpayable",
					"type": "function"
				},
				{
					"inputs": [
						{
							"internalType": "uint256",
							"name": "",
							"type": "uint256"
						}
					],
					"name": "data",
					"outputs": [
						{
							"internalType": "uint256",
							"name": "",
							"type": "uint256"
						}
					],
					"stateMutability": "view",
					"type": "function"
				},
				{
					"inputs": [
						{
							"internalType": "uint256",
							"name": "d",
							"type": "uint256"
						}
					],
					"name": "delete_element",
					"outputs": [],
					"stateMutability": "nonpayable",
					"type": "function"
				},
				{
					"inputs": [
						{
							"internalType": "uint256",
							"name": "b",
							"type": "uint256"
						}
					],
					"name": "getelement",
					"outputs": [],
					"stateMutability": "nonpayable",
					"type": "function"
				},
				{
					"inputs": [],
					"name": "getelements",
					"outputs": [
						{
							"internalType": "uint256",
							"name": "",
							"type": "uint256"
						}
					],
					"stateMutability": "view",
					"type": "function"
				},
				{
					"inputs": [],
					"name": "length_element",
					"outputs": [
						{
							"internalType": "uint256",
							"name": "",
							"type": "uint256"
						}
					],
					"stateMutability": "view",
					"type": "function"
				},
				{
					"inputs": [],
					"name": "popfunc",
					"outputs": [],
					"stateMutability": "nonpayable",
					"type": "function"
				}
			],
			"devdoc": {
				"kind": "dev",
				"methods": {},
				"version": 1
			},
			"evm": {
				"assembly": "    /* \"remix ide/ARRAY/ARRAY OPERATIONS.sol\":56:600  contract Mehan{\r... */\n  mstore(0x40, 0x80)\n    /* \"remix ide/ARRAY/ARRAY OPERATIONS.sol\":77:113  uint[] public data=[1,2,3,4,5,6,7,8] */\n  mload(0x40)\n  dup1\n  0x0100\n  add\n  0x40\n  mstore\n  dup1\n    /* \"remix ide/ARRAY/ARRAY OPERATIONS.sol\":97:98  1 */\n  0x01\n    /* \"remix ide/ARRAY/ARRAY OPERATIONS.sol\":77:113  uint[] public data=[1,2,3,4,5,6,7,8] */\n  0xff\n  and\n  dup2\n  mstore\n  0x20\n  add\n    /* \"remix ide/ARRAY/ARRAY OPERATIONS.sol\":99:100  2 */\n  0x02\n    /* \"remix ide/ARRAY/ARRAY OPERATIONS.sol\":77:113  uint[] public data=[1,2,3,4,5,6,7,8] */\n  0xff\n  and\n  dup2\n  mstore\n  0x20\n  add\n    /* \"remix ide/ARRAY/ARRAY OPERATIONS.sol\":101:102  3 */\n  0x03\n    /* \"remix ide/ARRAY/ARRAY OPERATIONS.sol\":77:113  uint[] public data=[1,2,3,4,5,6,7,8] */\n  0xff\n  and\n  dup2\n  mstore\n  0x20\n  add\n    /* \"remix ide/ARRAY/ARRAY OPERATIONS.sol\":103:104  4 */\n  0x04\n    /* \"remix ide/ARRAY/ARRAY OPERATIONS.sol\":77:113  uint[] public data=[1,2,3,4,5,6,7,8] */\n  0xff\n  and\n  dup2\n  mstore\n  0x20\n  add\n    /* \"remix ide/ARRAY/ARRAY OPERATIONS.sol\":105:106  5 */\n  0x05\n    /* \"remix ide/ARRAY/ARRAY OPERATIONS.sol\":77:113  uint[] public data=[1,2,3,4,5,6,7,8] */\n  0xff\n  and\n  dup2\n  mstore\n  0x20\n  add\n    /* \"remix ide/ARRAY/ARRAY OPERATIONS.sol\":107:108  6 */\n  0x06\n    /* \"remix ide/ARRAY/ARRAY OPERATIONS.sol\":77:113  uint[] public data=[1,2,3,4,5,6,7,8] */\n  0xff\n  and\n  dup2\n  mstore\n  0x20\n  add\n    /* \"remix ide/ARRAY/ARRAY OPERATIONS.sol\":109:110  7 */\n  0x07\n    /* \"remix ide/ARRAY/ARRAY OPERATIONS.sol\":77:113  uint[] public data=[1,2,3,4,5,6,7,8] */\n  0xff\n  and\n  dup2\n  mstore\n  0x20\n  add\n    /* \"remix ide/ARRAY/ARRAY OPERATIONS.sol\":111:112  8 */\n  0x08\n    /* \"remix ide/ARRAY/ARRAY OPERATIONS.sol\":77:113  uint[] public data=[1,2,3,4,5,6,7,8] */\n  0xff\n  and\n  dup2\n  mstore\n  pop\n  0x00\n  swap1\n  0x08\n  tag_1\n  swap3\n  swap2\n  swap1\n  tag_2\n  jump\t// in\ntag_1:\n  pop\n    /* \"remix ide/ARRAY/ARRAY OPERATIONS.sol\":56:600  contract Mehan{\r... */\n  callvalue\n  dup1\n  iszero\n  tag_3\n  jumpi\n  0x00\n  dup1\n  revert\ntag_3:\n  pop\n  jump(tag_4)\ntag_2:\n  dup3\n  dup1\n  sload\n  dup3\n  dup3\n  sstore\n  swap1\n  0x00\n  mstore\n  keccak256(0x00, 0x20)\n  swap1\n  dup2\n  add\n  swap3\n  dup3\n  iszero\n  tag_5\n  jumpi\n  swap2\n  0x20\n  mul\n  dup3\n  add\ntag_6:\n  dup3\n  dup2\n  gt\n  iszero\n  tag_7\n  jumpi\n  dup3\n  mload\n  dup3\n  swap1\n  0xff\n  and\n  swap1\n  sstore\n  swap2\n  0x20\n  add\n  swap2\n  swap1\n  0x01\n  add\n  swap1\n  jump(tag_6)\ntag_7:\ntag_5:\n  pop\n  swap1\n  pop\n  tag_8\n  swap2\n  swap1\n  tag_9\n  jump\t// in\ntag_8:\n  pop\n  swap1\n  jump\t// out\ntag_9:\ntag_10:\n  dup1\n  dup3\n  gt\n  iszero\n  tag_11\n  jumpi\n  0x00\n  dup2\n  0x00\n  swap1\n  sstore\n  pop\n  0x01\n  add\n  jump(tag_10)\ntag_11:\n  pop\n  swap1\n  jump\t// out\ntag_4:\n  dataSize(sub_0)\n  dup1\n  dataOffset(sub_0)\n  0x00\n  codecopy\n  0x00\n  return\nstop\n\nsub_0: assembly {\n        /* \"remix ide/ARRAY/ARRAY OPERATIONS.sol\":56:600  contract Mehan{\r... */\n      mstore(0x40, 0x80)\n      callvalue\n      dup1\n      iszero\n      tag_1\n      jumpi\n      0x00\n      dup1\n      revert\n    tag_1:\n      pop\n      jumpi(tag_2, lt(calldatasize, 0x04))\n      shr(0xe0, calldataload(0x00))\n      dup1\n      0x4d965d32\n      gt\n      tag_10\n      jumpi\n      dup1\n      0x4d965d32\n      eq\n      tag_6\n      jumpi\n      dup1\n      0xb6793239\n      eq\n      tag_7\n      jumpi\n      dup1\n      0xcb353bcf\n      eq\n      tag_8\n      jumpi\n      dup1\n      0xf0ba8440\n      eq\n      tag_9\n      jumpi\n      jump(tag_2)\n    tag_10:\n      dup1\n      0x1003e2d2\n      eq\n      tag_3\n      jumpi\n      dup1\n      0x1d175b9b\n      eq\n      tag_4\n      jumpi\n      dup1\n      0x374b09a9\n      eq\n      tag_5\n      jumpi\n    tag_2:\n      0x00\n      dup1\n      revert\n        /* \"remix ide/ARRAY/ARRAY OPERATIONS.sol\":175:234  function add(uint a) public {\r... */\n    tag_3:\n      tag_11\n      0x04\n      dup1\n      calldatasize\n      sub\n      dup2\n      add\n      swap1\n      tag_12\n      swap2\n      swap1\n      tag_13\n      jump\t// in\n    tag_12:\n      tag_14\n      jump\t// in\n    tag_11:\n      stop\n        /* \"remix ide/ARRAY/ARRAY OPERATIONS.sol\":508:597  function length_element() public view returns(uint) {\r... */\n    tag_4:\n      tag_15\n      tag_16\n      jump\t// in\n    tag_15:\n      mload(0x40)\n      tag_17\n      swap2\n      swap1\n      tag_18\n      jump\t// in\n    tag_17:\n      mload(0x40)\n      dup1\n      swap2\n      sub\n      swap1\n      return\n        /* \"remix ide/ARRAY/ARRAY OPERATIONS.sol\":413:502  function delete_element(uint d) public { //it can't works\r... */\n    tag_5:\n      tag_19\n      0x04\n      dup1\n      calldatasize\n      sub\n      dup2\n      add\n      swap1\n      tag_20\n      swap2\n      swap1\n      tag_13\n      jump\t// in\n    tag_20:\n      tag_21\n      jump\t// in\n    tag_19:\n      stop\n        /* \"remix ide/ARRAY/ARRAY OPERATIONS.sol\":240:313  function getelement(uint b) public{\r... */\n    tag_6:\n      tag_22\n      0x04\n      dup1\n      calldatasize\n      sub\n      dup2\n      add\n      swap1\n      tag_23\n      swap2\n      swap1\n      tag_13\n      jump\t// in\n    tag_23:\n      tag_24\n      jump\t// in\n    tag_22:\n      stop\n        /* \"remix ide/ARRAY/ARRAY OPERATIONS.sol\":144:168  uint public  getelements */\n    tag_7:\n      tag_25\n      tag_26\n      jump\t// in\n    tag_25:\n      mload(0x40)\n      tag_27\n      swap2\n      swap1\n      tag_18\n      jump\t// in\n    tag_27:\n      mload(0x40)\n      dup1\n      swap2\n      sub\n      swap1\n      return\n        /* \"remix ide/ARRAY/ARRAY OPERATIONS.sol\":321:407  function popfunc() public { //used to delete last element.\r... */\n    tag_8:\n      tag_28\n      tag_29\n      jump\t// in\n    tag_28:\n      stop\n        /* \"remix ide/ARRAY/ARRAY OPERATIONS.sol\":77:113  uint[] public data=[1,2,3,4,5,6,7,8] */\n    tag_9:\n      tag_30\n      0x04\n      dup1\n      calldatasize\n      sub\n      dup2\n      add\n      swap1\n      tag_31\n      swap2\n      swap1\n      tag_13\n      jump\t// in\n    tag_31:\n      tag_32\n      jump\t// in\n    tag_30:\n      mload(0x40)\n      tag_33\n      swap2\n      swap1\n      tag_18\n      jump\t// in\n    tag_33:\n      mload(0x40)\n      dup1\n      swap2\n      sub\n      swap1\n      return\n        /* \"remix ide/ARRAY/ARRAY OPERATIONS.sol\":175:234  function add(uint a) public {\r... */\n    tag_14:\n        /* \"remix ide/ARRAY/ARRAY OPERATIONS.sol\":214:218  data */\n      0x00\n        /* \"remix ide/ARRAY/ARRAY OPERATIONS.sol\":224:225  a */\n      dup2\n        /* \"remix ide/ARRAY/ARRAY OPERATIONS.sol\":214:226  data.push(a) */\n      swap1\n      dup1\n      0x01\n      dup2\n      sload\n      add\n      dup1\n      dup3\n      sstore\n      dup1\n      swap2\n      pop\n      pop\n      0x01\n      swap1\n      sub\n      swap1\n      0x00\n      mstore\n      keccak256(0x00, 0x20)\n      add\n      0x00\n      swap1\n      swap2\n      swap1\n      swap2\n      swap1\n      swap2\n      pop\n      sstore\n        /* \"remix ide/ARRAY/ARRAY OPERATIONS.sol\":175:234  function add(uint a) public {\r... */\n      pop\n      jump\t// out\n        /* \"remix ide/ARRAY/ARRAY OPERATIONS.sol\":508:597  function length_element() public view returns(uint) {\r... */\n    tag_16:\n        /* \"remix ide/ARRAY/ARRAY OPERATIONS.sol\":554:558  uint */\n      0x00\n        /* \"remix ide/ARRAY/ARRAY OPERATIONS.sol\":578:582  data */\n      dup1\n        /* \"remix ide/ARRAY/ARRAY OPERATIONS.sol\":578:589  data.length */\n      dup1\n      sload\n      swap1\n      pop\n        /* \"remix ide/ARRAY/ARRAY OPERATIONS.sol\":571:589  return data.length */\n      swap1\n      pop\n        /* \"remix ide/ARRAY/ARRAY OPERATIONS.sol\":508:597  function length_element() public view returns(uint) {\r... */\n      swap1\n      jump\t// out\n        /* \"remix ide/ARRAY/ARRAY OPERATIONS.sol\":413:502  function delete_element(uint d) public { //it can't works\r... */\n    tag_21:\n        /* \"remix ide/ARRAY/ARRAY OPERATIONS.sol\":487:491  data */\n      0x00\n        /* \"remix ide/ARRAY/ARRAY OPERATIONS.sol\":492:493  d */\n      dup2\n        /* \"remix ide/ARRAY/ARRAY OPERATIONS.sol\":487:494  data[d] */\n      dup2\n      sload\n      dup2\n      lt\n      tag_38\n      jumpi\n      tag_39\n      tag_40\n      jump\t// in\n    tag_39:\n    tag_38:\n      swap1\n      0x00\n      mstore\n      keccak256(0x00, 0x20)\n      add\n        /* \"remix ide/ARRAY/ARRAY OPERATIONS.sol\":480:494  delete data[d] */\n      0x00\n      swap1\n      sstore\n        /* \"remix ide/ARRAY/ARRAY OPERATIONS.sol\":413:502  function delete_element(uint d) public { //it can't works\r... */\n      pop\n      jump\t// out\n        /* \"remix ide/ARRAY/ARRAY OPERATIONS.sol\":240:313  function getelement(uint b) public{\r... */\n    tag_24:\n        /* \"remix ide/ARRAY/ARRAY OPERATIONS.sol\":298:302  data */\n      0x00\n        /* \"remix ide/ARRAY/ARRAY OPERATIONS.sol\":303:304  b */\n      dup2\n        /* \"remix ide/ARRAY/ARRAY OPERATIONS.sol\":298:305  data[b] */\n      dup2\n      sload\n      dup2\n      lt\n      tag_43\n      jumpi\n      tag_44\n      tag_40\n      jump\t// in\n    tag_44:\n    tag_43:\n      swap1\n      0x00\n      mstore\n      keccak256(0x00, 0x20)\n      add\n      sload\n        /* \"remix ide/ARRAY/ARRAY OPERATIONS.sol\":285:296  getelements */\n      0x01\n        /* \"remix ide/ARRAY/ARRAY OPERATIONS.sol\":285:305  getelements= data[b] */\n      dup2\n      swap1\n      sstore\n      pop\n        /* \"remix ide/ARRAY/ARRAY OPERATIONS.sol\":240:313  function getelement(uint b) public{\r... */\n      pop\n      jump\t// out\n        /* \"remix ide/ARRAY/ARRAY OPERATIONS.sol\":144:168  uint public  getelements */\n    tag_26:\n      sload(0x01)\n      dup2\n      jump\t// out\n        /* \"remix ide/ARRAY/ARRAY OPERATIONS.sol\":321:407  function popfunc() public { //used to delete last element.\r... */\n    tag_29:\n        /* \"remix ide/ARRAY/ARRAY OPERATIONS.sol\":389:393  data */\n      0x00\n        /* \"remix ide/ARRAY/ARRAY OPERATIONS.sol\":389:399  data.pop() */\n      dup1\n      sload\n      dup1\n      tag_47\n      jumpi\n      tag_48\n      tag_49\n      jump\t// in\n    tag_48:\n    tag_47:\n      0x01\n      swap1\n      sub\n      dup2\n      dup2\n      swap1\n      0x00\n      mstore\n      keccak256(0x00, 0x20)\n      add\n      0x00\n      swap1\n      sstore\n      swap1\n      sstore\n        /* \"remix ide/ARRAY/ARRAY OPERATIONS.sol\":321:407  function popfunc() public { //used to delete last element.\r... */\n      jump\t// out\n        /* \"remix ide/ARRAY/ARRAY OPERATIONS.sol\":77:113  uint[] public data=[1,2,3,4,5,6,7,8] */\n    tag_32:\n      0x00\n      dup2\n      dup2\n      sload\n      dup2\n      lt\n      tag_51\n      jumpi\n      0x00\n      dup1\n      revert\n    tag_51:\n      swap1\n      0x00\n      mstore\n      keccak256(0x00, 0x20)\n      add\n      0x00\n      swap2\n      pop\n      swap1\n      pop\n      sload\n      dup2\n      jump\t// out\n        /* \"#utility.yul\":7:146   */\n    tag_54:\n        /* \"#utility.yul\":53:58   */\n      0x00\n        /* \"#utility.yul\":91:97   */\n      dup2\n        /* \"#utility.yul\":78:98   */\n      calldataload\n        /* \"#utility.yul\":69:98   */\n      swap1\n      pop\n        /* \"#utility.yul\":107:140   */\n      tag_56\n        /* \"#utility.yul\":134:139   */\n      dup2\n        /* \"#utility.yul\":107:140   */\n      tag_57\n      jump\t// in\n    tag_56:\n        /* \"#utility.yul\":7:146   */\n      swap3\n      swap2\n      pop\n      pop\n      jump\t// out\n        /* \"#utility.yul\":152:481   */\n    tag_13:\n        /* \"#utility.yul\":211:217   */\n      0x00\n        /* \"#utility.yul\":260:262   */\n      0x20\n        /* \"#utility.yul\":248:257   */\n      dup3\n        /* \"#utility.yul\":239:246   */\n      dup5\n        /* \"#utility.yul\":235:258   */\n      sub\n        /* \"#utility.yul\":231:263   */\n      slt\n        /* \"#utility.yul\":228:347   */\n      iszero\n      tag_59\n      jumpi\n        /* \"#utility.yul\":266:345   */\n      tag_60\n      tag_61\n      jump\t// in\n    tag_60:\n        /* \"#utility.yul\":228:347   */\n    tag_59:\n        /* \"#utility.yul\":386:387   */\n      0x00\n        /* \"#utility.yul\":411:464   */\n      tag_62\n        /* \"#utility.yul\":456:463   */\n      dup5\n        /* \"#utility.yul\":447:453   */\n      dup3\n        /* \"#utility.yul\":436:445   */\n      dup6\n        /* \"#utility.yul\":432:454   */\n      add\n        /* \"#utility.yul\":411:464   */\n      tag_54\n      jump\t// in\n    tag_62:\n        /* \"#utility.yul\":401:464   */\n      swap2\n      pop\n        /* \"#utility.yul\":357:474   */\n      pop\n        /* \"#utility.yul\":152:481   */\n      swap3\n      swap2\n      pop\n      pop\n      jump\t// out\n        /* \"#utility.yul\":487:605   */\n    tag_63:\n        /* \"#utility.yul\":574:598   */\n      tag_65\n        /* \"#utility.yul\":592:597   */\n      dup2\n        /* \"#utility.yul\":574:598   */\n      tag_66\n      jump\t// in\n    tag_65:\n        /* \"#utility.yul\":569:572   */\n      dup3\n        /* \"#utility.yul\":562:599   */\n      mstore\n        /* \"#utility.yul\":487:605   */\n      pop\n      pop\n      jump\t// out\n        /* \"#utility.yul\":611:833   */\n    tag_18:\n        /* \"#utility.yul\":704:708   */\n      0x00\n        /* \"#utility.yul\":742:744   */\n      0x20\n        /* \"#utility.yul\":731:740   */\n      dup3\n        /* \"#utility.yul\":727:745   */\n      add\n        /* \"#utility.yul\":719:745   */\n      swap1\n      pop\n        /* \"#utility.yul\":755:826   */\n      tag_68\n        /* \"#utility.yul\":823:824   */\n      0x00\n        /* \"#utility.yul\":812:821   */\n      dup4\n        /* \"#utility.yul\":808:825   */\n      add\n        /* \"#utility.yul\":799:805   */\n      dup5\n        /* \"#utility.yul\":755:826   */\n      tag_63\n      jump\t// in\n    tag_68:\n        /* \"#utility.yul\":611:833   */\n      swap3\n      swap2\n      pop\n      pop\n      jump\t// out\n        /* \"#utility.yul\":920:997   */\n    tag_66:\n        /* \"#utility.yul\":957:964   */\n      0x00\n        /* \"#utility.yul\":986:991   */\n      dup2\n        /* \"#utility.yul\":975:991   */\n      swap1\n      pop\n        /* \"#utility.yul\":920:997   */\n      swap2\n      swap1\n      pop\n      jump\t// out\n        /* \"#utility.yul\":1003:1183   */\n    tag_49:\n        /* \"#utility.yul\":1051:1128   */\n      0x4e487b7100000000000000000000000000000000000000000000000000000000\n        /* \"#utility.yul\":1048:1049   */\n      0x00\n        /* \"#utility.yul\":1041:1129   */\n      mstore\n        /* \"#utility.yul\":1148:1152   */\n      0x31\n        /* \"#utility.yul\":1145:1146   */\n      0x04\n        /* \"#utility.yul\":1138:1153   */\n      mstore\n        /* \"#utility.yul\":1172:1176   */\n      0x24\n        /* \"#utility.yul\":1169:1170   */\n      0x00\n        /* \"#utility.yul\":1162:1177   */\n      revert\n        /* \"#utility.yul\":1189:1369   */\n    tag_40:\n        /* \"#utility.yul\":1237:1314   */\n      0x4e487b7100000000000000000000000000000000000000000000000000000000\n        /* \"#utility.yul\":1234:1235   */\n      0x00\n        /* \"#utility.yul\":1227:1315   */\n      mstore\n        /* \"#utility.yul\":1334:1338   */\n      0x32\n        /* \"#utility.yul\":1331:1332   */\n      0x04\n        /* \"#utility.yul\":1324:1339   */\n      mstore\n        /* \"#utility.yul\":1358:1362   */\n      0x24\n        /* \"#utility.yul\":1355:1356   */\n      0x00\n        /* \"#utility.yul\":1348:1363   */\n      revert\n        /* \"#utility.yul\":1498:1615   */\n    tag_61:\n        /* \"#utility.yul\":1607:1608   */\n      0x00\n        /* \"#utility.yul\":1604:1605   */\n      dup1\n        /* \"#utility.yul\":1597:1609   */\n      revert\n        /* \"#utility.yul\":1621:1743   */\n    tag_57:\n        /* \"#utility.yul\":1694:1718   */\n      tag_78\n        /* \"#utility.yul\":1712:1717   */\n      dup2\n        /* \"#utility.yul\":1694:1718   */\n      tag_66\n      jump\t// in\n    tag_78:\n        /* \"#utility.yul\":1687:1692   */\n      dup2\n        /* \"#utility.yul\":1684:1719   */\n      eq\n        /* \"#utility.yul\":1674:1737   */\n      tag_79\n      jumpi\n        /* \"#utility.yul\":1733:1734   */\n      0x00\n        /* \"#utility.yul\":1730:1731   */\n      dup1\n        /* \"#utility.yul\":1723:1735   */\n      revert\n        /* \"#utility.yul\":1674:1737   */\n    tag_79:\n        /* \"#utility.yul\":1621:1743   */\n      pop\n      jump\t// out\n\n    auxdata: 0xa26469706673582212205cdc8e41fc62a7ecc35a3536cc04ea27d2077dce30a20e5c0fafff9d8e4733c064736f6c63430008070033\n}\n",
				"bytecode": {
					"linkReferences": {},
					"object": "6080604052604051806101000160405280600160ff168152602001600260ff168152602001600360ff168152602001600460ff168152602001600560ff168152602001600660ff168152602001600760ff168152602001600860ff16815250600090600861006e929190610081565b5034801561007b57600080fd5b506100f0565b8280548282559060005260206000209081019282156100c2579160200282015b828111156100c1578251829060ff169055916020019190600101906100a1565b5b5090506100cf91906100d3565b5090565b5b808211156100ec5760008160009055506001016100d4565b5090565b61034b806100ff6000396000f3fe608060405234801561001057600080fd5b506004361061007d5760003560e01c80634d965d321161005b5780634d965d32146100d8578063b6793239146100f4578063cb353bcf14610112578063f0ba84401461011c5761007d565b80631003e2d2146100825780631d175b9b1461009e578063374b09a9146100bc575b600080fd5b61009c6004803603810190610097919061023a565b61014c565b005b6100a6610178565b6040516100b39190610276565b60405180910390f35b6100d660048036038101906100d1919061023a565b610184565b005b6100f260048036038101906100ed919061023a565b6101a9565b005b6100fc6101d1565b6040516101099190610276565b60405180910390f35b61011a6101d7565b005b6101366004803603810190610131919061023a565b610201565b6040516101439190610276565b60405180910390f35b600081908060018154018082558091505060019003906000526020600020016000909190919091505550565b60008080549050905090565b60008181548110610198576101976102ca565b5b906000526020600020016000905550565b600081815481106101bd576101bc6102ca565b5b906000526020600020015460018190555050565b60015481565b60008054806101e9576101e861029b565b5b60019003818190600052602060002001600090559055565b6000818154811061021157600080fd5b906000526020600020016000915090505481565b600081359050610234816102fe565b92915050565b6000602082840312156102505761024f6102f9565b5b600061025e84828501610225565b91505092915050565b61027081610291565b82525050565b600060208201905061028b6000830184610267565b92915050565b6000819050919050565b7f4e487b7100000000000000000000000000000000000000000000000000000000600052603160045260246000fd5b7f4e487b7100000000000000000000000000000000000000000000000000000000600052603260045260246000fd5b600080fd5b61030781610291565b811461031257600080fd5b5056fea26469706673582212205cdc8e41fc62a7ecc35a3536cc04ea27d2077dce30a20e5c0fafff9d8e4733c064736f6c63430008070033",
					"opcodes": "PUSH1 0x80 PUSH1 0x40 MSTORE PUSH1 0x40 MLOAD DUP1 PUSH2 0x100 ADD PUSH1 0x40 MSTORE DUP1 PUSH1 0x1 PUSH1 0xFF AND DUP2 MSTORE PUSH1 0x20 ADD PUSH1 0x2 PUSH1 0xFF AND DUP2 MSTORE PUSH1 0x20 ADD PUSH1 0x3 PUSH1 0xFF AND DUP2 MSTORE PUSH1 0x20 ADD PUSH1 0x4 PUSH1 0xFF AND DUP2 MSTORE PUSH1 0x20 ADD PUSH1 0x5 PUSH1 0xFF AND DUP2 MSTORE PUSH1 0x20 ADD PUSH1 0x6 PUSH1 0xFF AND DUP2 MSTORE PUSH1 0x20 ADD PUSH1 0x7 PUSH1 0xFF AND DUP2 MSTORE PUSH1 0x20 ADD PUSH1 0x8 PUSH1 0xFF AND DUP2 MSTORE POP PUSH1 0x0 SWAP1 PUSH1 0x8 PUSH2 0x6E SWAP3 SWAP2 SWAP1 PUSH2 0x81 JUMP JUMPDEST POP CALLVALUE DUP1 ISZERO PUSH2 0x7B JUMPI PUSH1 0x0 DUP1 REVERT JUMPDEST POP PUSH2 0xF0 JUMP JUMPDEST DUP3 DUP1 SLOAD DUP3 DUP3 SSTORE SWAP1 PUSH1 0x0 MSTORE PUSH1 0x20 PUSH1 0x0 KECCAK256 SWAP1 DUP2 ADD SWAP3 DUP3 ISZERO PUSH2 0xC2 JUMPI SWAP2 PUSH1 0x20 MUL DUP3 ADD JUMPDEST DUP3 DUP2 GT ISZERO PUSH2 0xC1 JUMPI DUP3 MLOAD DUP3 SWAP1 PUSH1 0xFF AND SWAP1 SSTORE SWAP2 PUSH1 0x20 ADD SWAP2 SWAP1 PUSH1 0x1 ADD SWAP1 PUSH2 0xA1 JUMP JUMPDEST JUMPDEST POP SWAP1 POP PUSH2 0xCF SWAP2 SWAP1 PUSH2 0xD3 JUMP JUMPDEST POP SWAP1 JUMP JUMPDEST JUMPDEST DUP1 DUP3 GT ISZERO PUSH2 0xEC JUMPI PUSH1 0x0 DUP2 PUSH1 0x0 SWAP1 SSTORE POP PUSH1 0x1 ADD PUSH2 0xD4 JUMP JUMPDEST POP SWAP1 JUMP JUMPDEST PUSH2 0x34B DUP1 PUSH2 0xFF PUSH1 0x0 CODECOPY PUSH1 0x0 RETURN INVALID PUSH1 0x80 PUSH1 0x40 MSTORE CALLVALUE DUP1 ISZERO PUSH2 0x10 JUMPI PUSH1 0x0 DUP1 REVERT JUMPDEST POP PUSH1 0x4 CALLDATASIZE LT PUSH2 0x7D JUMPI PUSH1 0x0 CALLDATALOAD PUSH1 0xE0 SHR DUP1 PUSH4 0x4D965D32 GT PUSH2 0x5B JUMPI DUP1 PUSH4 0x4D965D32 EQ PUSH2 0xD8 JUMPI DUP1 PUSH4 0xB6793239 EQ PUSH2 0xF4 JUMPI DUP1 PUSH4 0xCB353BCF EQ PUSH2 0x112 JUMPI DUP1 PUSH4 0xF0BA8440 EQ PUSH2 0x11C JUMPI PUSH2 0x7D JUMP JUMPDEST DUP1 PUSH4 0x1003E2D2 EQ PUSH2 0x82 JUMPI DUP1 PUSH4 0x1D175B9B EQ PUSH2 0x9E JUMPI DUP1 PUSH4 0x374B09A9 EQ PUSH2 0xBC JUMPI JUMPDEST PUSH1 0x0 DUP1 REVERT JUMPDEST PUSH2 0x9C PUSH1 0x4 DUP1 CALLDATASIZE SUB DUP2 ADD SWAP1 PUSH2 0x97 SWAP2 SWAP1 PUSH2 0x23A JUMP JUMPDEST PUSH2 0x14C JUMP JUMPDEST STOP JUMPDEST PUSH2 0xA6 PUSH2 0x178 JUMP JUMPDEST PUSH1 0x40 MLOAD PUSH2 0xB3 SWAP2 SWAP1 PUSH2 0x276 JUMP JUMPDEST PUSH1 0x40 MLOAD DUP1 SWAP2 SUB SWAP1 RETURN JUMPDEST PUSH2 0xD6 PUSH1 0x4 DUP1 CALLDATASIZE SUB DUP2 ADD SWAP1 PUSH2 0xD1 SWAP2 SWAP1 PUSH2 0x23A JUMP JUMPDEST PUSH2 0x184 JUMP JUMPDEST STOP JUMPDEST PUSH2 0xF2 PUSH1 0x4 DUP1 CALLDATASIZE SUB DUP2 ADD SWAP1 PUSH2 0xED SWAP2 SWAP1 PUSH2 0x23A JUMP JUMPDEST PUSH2 0x1A9 JUMP JUMPDEST STOP JUMPDEST PUSH2 0xFC PUSH2 0x1D1 JUMP JUMPDEST PUSH1 0x40 MLOAD PUSH2 0x109 SWAP2 SWAP1 PUSH2 0x276 JUMP JUMPDEST PUSH1 0x40 MLOAD DUP1 SWAP2 SUB SWAP1 RETURN JUMPDEST PUSH2 0x11A PUSH2 0x1D7 JUMP JUMPDEST STOP JUMPDEST PUSH2 0x136 PUSH1 0x4 DUP1 CALLDATASIZE SUB DUP2 ADD SWAP1 PUSH2 0x131 SWAP2 SWAP1 PUSH2 0x23A JUMP JUMPDEST PUSH2 0x201 JUMP JUMPDEST PUSH1 0x40 MLOAD PUSH2 0x143 SWAP2 SWAP1 PUSH2 0x276 JUMP JUMPDEST PUSH1 0x40 MLOAD DUP1 SWAP2 SUB SWAP1 RETURN JUMPDEST PUSH1 0x0 DUP2 SWAP1 DUP1 PUSH1 0x1 DUP2 SLOAD ADD DUP1 DUP3 SSTORE DUP1 SWAP2 POP POP PUSH1 0x1 SWAP1 SUB SWAP1 PUSH1 0x0 MSTORE PUSH1 0x20 PUSH1 0x0 KECCAK256 ADD PUSH1 0x0 SWAP1 SWAP2 SWAP1 SWAP2 SWAP1 SWAP2 POP SSTORE POP JUMP JUMPDEST PUSH1 0x0 DUP1 DUP1 SLOAD SWAP1 POP SWAP1 POP SWAP1 JUMP JUMPDEST PUSH1 0x0 DUP2 DUP2 SLOAD DUP2 LT PUSH2 0x198 JUMPI PUSH2 0x197 PUSH2 0x2CA JUMP JUMPDEST JUMPDEST SWAP1 PUSH1 0x0 MSTORE PUSH1 0x20 PUSH1 0x0 KECCAK256 ADD PUSH1 0x0 SWAP1 SSTORE POP JUMP JUMPDEST PUSH1 0x0 DUP2 DUP2 SLOAD DUP2 LT PUSH2 0x1BD JUMPI PUSH2 0x1BC PUSH2 0x2CA JUMP JUMPDEST JUMPDEST SWAP1 PUSH1 0x0 MSTORE PUSH1 0x20 PUSH1 0x0 KECCAK256 ADD SLOAD PUSH1 0x1 DUP2 SWAP1 SSTORE POP POP JUMP JUMPDEST PUSH1 0x1 SLOAD DUP2 JUMP JUMPDEST PUSH1 0x0 DUP1 SLOAD DUP1 PUSH2 0x1E9 JUMPI PUSH2 0x1E8 PUSH2 0x29B JUMP JUMPDEST JUMPDEST PUSH1 0x1 SWAP1 SUB DUP2 DUP2 SWAP1 PUSH1 0x0 MSTORE PUSH1 0x20 PUSH1 0x0 KECCAK256 ADD PUSH1 0x0 SWAP1 SSTORE SWAP1 SSTORE JUMP JUMPDEST PUSH1 0x0 DUP2 DUP2 SLOAD DUP2 LT PUSH2 0x211 JUMPI PUSH1 0x0 DUP1 REVERT JUMPDEST SWAP1 PUSH1 0x0 MSTORE PUSH1 0x20 PUSH1 0x0 KECCAK256 ADD PUSH1 0x0 SWAP2 POP SWAP1 POP SLOAD DUP2 JUMP JUMPDEST PUSH1 0x0 DUP2 CALLDATALOAD SWAP1 POP PUSH2 0x234 DUP2 PUSH2 0x2FE JUMP JUMPDEST SWAP3 SWAP2 POP POP JUMP JUMPDEST PUSH1 0x0 PUSH1 0x20 DUP3 DUP5 SUB SLT ISZERO PUSH2 0x250 JUMPI PUSH2 0x24F PUSH2 0x2F9 JUMP JUMPDEST JUMPDEST PUSH1 0x0 PUSH2 0x25E DUP5 DUP3 DUP6 ADD PUSH2 0x225 JUMP JUMPDEST SWAP2 POP POP SWAP3 SWAP2 POP POP JUMP JUMPDEST PUSH2 0x270 DUP2 PUSH2 0x291 JUMP JUMPDEST DUP3 MSTORE POP POP JUMP JUMPDEST PUSH1 0x0 PUSH1 0x20 DUP3 ADD SWAP1 POP PUSH2 0x28B PUSH1 0x0 DUP4 ADD DUP5 PUSH2 0x267 JUMP JUMPDEST SWAP3 SWAP2 POP POP JUMP JUMPDEST PUSH1 0x0 DUP2 SWAP1 POP SWAP2 SWAP1 POP JUMP JUMPDEST PUSH32 0x4E487B7100000000000000000000000000000000000000000000000000000000 PUSH1 0x0 MSTORE PUSH1 0x31 PUSH1 0x4 MSTORE PUSH1 0x24 PUSH1 0x0 REVERT JUMPDEST PUSH32 0x4E487B7100000000000000000000000000000000000000000000000000000000 PUSH1 0x0 MSTORE PUSH1 0x32 PUSH1 0x4 MSTORE PUSH1 0x24 PUSH1 0x0 REVERT JUMPDEST PUSH1 0x0 DUP1 REVERT JUMPDEST PUSH2 0x307 DUP2 PUSH2 0x291 JUMP JUMPDEST DUP2 EQ PUSH2 0x312 JUMPI PUSH1 0x0 DUP1 REVERT JUMPDEST POP JUMP INVALID LOG2 PUSH5 0x6970667358 0x22 SLT KECCAK256 0x5C 0xDC DUP15 COINBASE 0xFC PUSH3 0xA7ECC3 GAS CALLDATALOAD CALLDATASIZE 0xCC DIV 0xEA 0x27 0xD2 SMOD PUSH30 0xCE30A20E5C0FAFFF9D8E4733C064736F6C63430008070033000000000000 "
				},
				"gasEstimates": {
					"creation": {
						"codeDepositCost": "168600",
						"executionCost": "infinite",
						"totalCost": "infinite"
					},
					"external": {
						"add(uint256)": "46830",
						"data(uint256)": "infinite",
						"delete_element(uint256)": "7640",
						"getelement(uint256)": "26800",
						"getelements()": "2451",
						"length_element()": "2468",
						"popfunc()": "29489"
					}
				},
				"methodIdentifiers": {
					"add(uint256)": "1003e2d2",
					"data(uint256)": "f0ba8440",
					"delete_element(uint256)": "374b09a9",
					"getelement(uint256)": "4d965d32",
					"getelements()": "b6793239",
					"length_element()": "1d175b9b",
					"popfunc()": "cb353bcf"
				}
			},
			"storageLayout": {
				"storage": [
					{
						"astId": 13,
						"contract": "remix ide/ARRAY/ARRAY OPERATIONS.sol:Mehan",
						"label": "data",
						"offset": 0,
						"slot": "0",
						"type": "t_array(t_uint256)dyn_storage"
					},
					{
						"astId": 15,
						"contract": "remix ide/ARRAY/ARRAY OPERATIONS.sol:Mehan",
						"label": "getelements",
						"offset": 0,
						"slot": "1",
						"type": "t_uint256"
					}
				],
				"types": {
					"t_array(t_uint256)dyn_storage": {
						"base": "t_uint256",
						"encoding": "dynamic_array",
						"label": "uint256[]",
						"numberOfBytes": "32"
					},
					"t_uint256": {
						"encoding": "inplace",
						"label": "uint256",
						"numberOfBytes": "32"
					}
				}
			},
			"userdoc": {
				"kind": "user",
				"methods": {},
				"version": 1
			}
		}
	}
}