{
	"remix_ide/ARRAY/ARRAY OPERATIONS.sol": {
		"Mehan": {
			"abi": [
				{
					"inputs": [
						{
							"internalType": "uint256",
							"name": "a",
							"type": "uint256"
						}
					],
					"name": "add",
					"outputs": [],
					"stateMutability": "nonpayable",
					"type": "function"
				},
				{
					"inputs": [
						{
							"internalType": "uint256",
							"name": "",
							"type": "uint256"
						}
					],
					"name": "data",
					"outputs": [
						{
							"internalType": "uint256",
							"name": "",
							"type": "uint256"
						}
					],
					"stateMutability": "view",
					"type": "function"
				},
				{
					"inputs": [
						{
							"internalType": "uint256",
							"name": "d",
							"type": "uint256"
						}
					],
					"name": "delete_element",
					"outputs": [],
					"stateMutability": "nonpayable",
					"type": "function"
				},
				{
					"inputs": [
						{
							"internalType": "uint256",
							"name": "b",
							"type": "uint256"
						}
					],
					"name": "getelement",
					"outputs": [],
					"stateMutability": "nonpayable",
					"type": "function"
				},
				{
					"inputs": [],
					"name": "getelements",
					"outputs": [
						{
							"internalType": "uint256",
							"name": "",
							"type": "uint256"
						}
					],
					"stateMutability": "view",
					"type": "function"
				},
				{
					"inputs": [],
					"name": "length_element",
					"outputs": [
						{
							"internalType": "uint256",
							"name": "",
							"type": "uint256"
						}
					],
					"stateMutability": "view",
					"type": "function"
				},
				{
					"inputs": [],
					"name": "popfunc",
					"outputs": [],
					"stateMutability": "nonpayable",
					"type": "function"
				}
			],
			"devdoc": {
				"kind": "dev",
				"methods": {},
				"version": 1
			},
			"evm": {
				"assembly": "    /* \"remix_ide/ARRAY/ARRAY OPERATIONS.sol\":56:600  contract Mehan{... */\n  mstore(0x40, 0x80)\n    /* \"remix_ide/ARRAY/ARRAY OPERATIONS.sol\":77:113  uint[] public data=[1,2,3,4,5,6,7,8] */\n  mload(0x40)\n  dup1\n  0x0100\n  add\n  0x40\n  mstore\n  dup1\n    /* \"remix_ide/ARRAY/ARRAY OPERATIONS.sol\":97:98  1 */\n  0x01\n    /* \"remix_ide/ARRAY/ARRAY OPERATIONS.sol\":77:113  uint[] public data=[1,2,3,4,5,6,7,8] */\n  0xff\n  and\n  dup2\n  mstore\n  0x20\n  add\n    /* \"remix_ide/ARRAY/ARRAY OPERATIONS.sol\":99:100  2 */\n  0x02\n    /* \"remix_ide/ARRAY/ARRAY OPERATIONS.sol\":77:113  uint[] public data=[1,2,3,4,5,6,7,8] */\n  0xff\n  and\n  dup2\n  mstore\n  0x20\n  add\n    /* \"remix_ide/ARRAY/ARRAY OPERATIONS.sol\":101:102  3 */\n  0x03\n    /* \"remix_ide/ARRAY/ARRAY OPERATIONS.sol\":77:113  uint[] public data=[1,2,3,4,5,6,7,8] */\n  0xff\n  and\n  dup2\n  mstore\n  0x20\n  add\n    /* \"remix_ide/ARRAY/ARRAY OPERATIONS.sol\":103:104  4 */\n  0x04\n    /* \"remix_ide/ARRAY/ARRAY OPERATIONS.sol\":77:113  uint[] public data=[1,2,3,4,5,6,7,8] */\n  0xff\n  and\n  dup2\n  mstore\n  0x20\n  add\n    /* \"remix_ide/ARRAY/ARRAY OPERATIONS.sol\":105:106  5 */\n  0x05\n    /* \"remix_ide/ARRAY/ARRAY OPERATIONS.sol\":77:113  uint[] public data=[1,2,3,4,5,6,7,8] */\n  0xff\n  and\n  dup2\n  mstore\n  0x20\n  add\n    /* \"remix_ide/ARRAY/ARRAY OPERATIONS.sol\":107:108  6 */\n  0x06\n    /* \"remix_ide/ARRAY/ARRAY OPERATIONS.sol\":77:113  uint[] public data=[1,2,3,4,5,6,7,8] */\n  0xff\n  and\n  dup2\n  mstore\n  0x20\n  add\n    /* \"remix_ide/ARRAY/ARRAY OPERATIONS.sol\":109:110  7 */\n  0x07\n    /* \"remix_ide/ARRAY/ARRAY OPERATIONS.sol\":77:113  uint[] public data=[1,2,3,4,5,6,7,8] */\n  0xff\n  and\n  dup2\n  mstore\n  0x20\n  add\n    /* \"remix_ide/ARRAY/ARRAY OPERATIONS.sol\":111:112  8 */\n  0x08\n    /* \"remix_ide/ARRAY/ARRAY OPERATIONS.sol\":77:113  uint[] public data=[1,2,3,4,5,6,7,8] */\n  0xff\n  and\n  dup2\n  mstore\n  pop\n  0x00\n  swap1\n  0x08\n  tag_1\n  swap3\n  swap2\n  swap1\n  tag_2\n  jump\t// in\ntag_1:\n  pop\n    /* \"remix_ide/ARRAY/ARRAY OPERATIONS.sol\":56:600  contract Mehan{... */\n  callvalue\n  dup1\n  iszero\n  tag_3\n  jumpi\n  0x00\n  dup1\n  revert\ntag_3:\n  pop\n  jump(tag_4)\ntag_2:\n  dup3\n  dup1\n  sload\n  dup3\n  dup3\n  sstore\n  swap1\n  0x00\n  mstore\n  keccak256(0x00, 0x20)\n  swap1\n  dup2\n  add\n  swap3\n  dup3\n  iszero\n  tag_5\n  jumpi\n  swap2\n  0x20\n  mul\n  dup3\n  add\ntag_6:\n  dup3\n  dup2\n  gt\n  iszero\n  tag_7\n  jumpi\n  dup3\n  mload\n  dup3\n  swap1\n  0xff\n  and\n  swap1\n  sstore\n  swap2\n  0x20\n  add\n  swap2\n  swap1\n  0x01\n  add\n  swap1\n  jump(tag_6)\ntag_7:\ntag_5:\n  pop\n  swap1\n  pop\n  tag_8\n  swap2\n  swap1\n  tag_9\n  jump\t// in\ntag_8:\n  pop\n  swap1\n  jump\t// out\ntag_9:\ntag_10:\n  dup1\n  dup3\n  gt\n  iszero\n  tag_11\n  jumpi\n  0x00\n  dup2\n  0x00\n  swap1\n  sstore\n  pop\n  0x01\n  add\n  jump(tag_10)\ntag_11:\n  pop\n  swap1\n  jump\t// out\ntag_4:\n  dataSize(sub_0)\n  dup1\n  dataOffset(sub_0)\n  0x00\n  codecopy\n  0x00\n  return\nstop\n\nsub_0: assembly {\n        /* \"remix_ide/ARRAY/ARRAY OPERATIONS.sol\":56:600  contract Mehan{... */\n      mstore(0x40, 0x80)\n      callvalue\n      dup1\n      iszero\n      tag_1\n      jumpi\n      0x00\n      dup1\n      revert\n    tag_1:\n      pop\n      jumpi(tag_2, lt(calldatasize, 0x04))\n      shr(0xe0, calldataload(0x00))\n      dup1\n      0x4d965d32\n      gt\n      tag_10\n      jumpi\n      dup1\n      0x4d965d32\n      eq\n      tag_6\n      jumpi\n      dup1\n      0xb6793239\n      eq\n      tag_7\n      jumpi\n      dup1\n      0xcb353bcf\n      eq\n      tag_8\n      jumpi\n      dup1\n      0xf0ba8440\n      eq\n      tag_9\n      jumpi\n      jump(tag_2)\n    tag_10:\n      dup1\n      0x1003e2d2\n      eq\n      tag_3\n      jumpi\n      dup1\n      0x1d175b9b\n      eq\n      tag_4\n      jumpi\n      dup1\n      0x374b09a9\n      eq\n      tag_5\n      jumpi\n    tag_2:\n      0x00\n      dup1\n      revert\n        /* \"remix_ide/ARRAY/ARRAY OPERATIONS.sol\":175:234  function add(uint a) public {... */\n    tag_3:\n      tag_11\n      0x04\n      dup1\n      calldatasize\n      sub\n      dup2\n      add\n      swap1\n      tag_12\n      swap2\n      swap1\n      tag_13\n      jump\t// in\n    tag_12:\n      tag_14\n      jump\t// in\n    tag_11:\n      stop\n        /* \"remix_ide/ARRAY/ARRAY OPERATIONS.sol\":508:597  function length_element() public view returns(uint) {... */\n    tag_4:\n      tag_15\n      tag_16\n      jump\t// in\n    tag_15:\n      mload(0x40)\n      tag_17\n      swap2\n      swap1\n      tag_18\n      jump\t// in\n    tag_17:\n      mload(0x40)\n      dup1\n      swap2\n      sub\n      swap1\n      return\n        /* \"remix_ide/ARRAY/ARRAY OPERATIONS.sol\":413:502  function delete_element(uint d) public { //it can't works... */\n    tag_5:\n      tag_19\n      0x04\n      dup1\n      calldatasize\n      sub\n      dup2\n      add\n      swap1\n      tag_20\n      swap2\n      swap1\n      tag_13\n      jump\t// in\n    tag_20:\n      tag_21\n      jump\t// in\n    tag_19:\n      stop\n        /* \"remix_ide/ARRAY/ARRAY OPERATIONS.sol\":240:313  function getelement(uint b) public{... */\n    tag_6:\n      tag_22\n      0x04\n      dup1\n      calldatasize\n      sub\n      dup2\n      add\n      swap1\n      tag_23\n      swap2\n      swap1\n      tag_13\n      jump\t// in\n    tag_23:\n      tag_24\n      jump\t// in\n    tag_22:\n      stop\n        /* \"remix_ide/ARRAY/ARRAY OPERATIONS.sol\":144:168  uint public  getelements */\n    tag_7:\n      tag_25\n      tag_26\n      jump\t// in\n    tag_25:\n      mload(0x40)\n      tag_27\n      swap2\n      swap1\n      tag_18\n      jump\t// in\n    tag_27:\n      mload(0x40)\n      dup1\n      swap2\n      sub\n      swap1\n      return\n        /* \"remix_ide/ARRAY/ARRAY OPERATIONS.sol\":321:407  function popfunc() public { //used to delete last element.... */\n    tag_8:\n      tag_28\n      tag_29\n      jump\t// in\n    tag_28:\n      stop\n        /* \"remix_ide/ARRAY/ARRAY OPERATIONS.sol\":77:113  uint[] public data=[1,2,3,4,5,6,7,8] */\n    tag_9:\n      tag_30\n      0x04\n      dup1\n      calldatasize\n      sub\n      dup2\n      add\n      swap1\n      tag_31\n      swap2\n      swap1\n      tag_13\n      jump\t// in\n    tag_31:\n      tag_32\n      jump\t// in\n    tag_30:\n      mload(0x40)\n      tag_33\n      swap2\n      swap1\n      tag_18\n      jump\t// in\n    tag_33:\n      mload(0x40)\n      dup1\n      swap2\n      sub\n      swap1\n      return\n        /* \"remix_ide/ARRAY/ARRAY OPERATIONS.sol\":175:234  function add(uint a) public {... */\n    tag_14:\n        /* \"remix_ide/ARRAY/ARRAY OPERATIONS.sol\":214:218  data */\n      0x00\n        /* \"remix_ide/ARRAY/ARRAY OPERATIONS.sol\":224:225  a */\n      dup2\n        /* \"remix_ide/ARRAY/ARRAY OPERATIONS.sol\":214:226  data.push(a) */\n      swap1\n      dup1\n      0x01\n      dup2\n      sload\n      add\n      dup1\n      dup3\n      sstore\n      dup1\n      swap2\n      pop\n      pop\n      0x01\n      swap1\n      sub\n      swap1\n      0x00\n      mstore\n      keccak256(0x00, 0x20)\n      add\n      0x00\n      swap1\n      swap2\n      swap1\n      swap2\n      swap1\n      swap2\n      pop\n      sstore\n        /* \"remix_ide/ARRAY/ARRAY OPERATIONS.sol\":175:234  function add(uint a) public {... */\n      pop\n      jump\t// out\n        /* \"remix_ide/ARRAY/ARRAY OPERATIONS.sol\":508:597  function length_element() public view returns(uint) {... */\n    tag_16:\n        /* \"remix_ide/ARRAY/ARRAY OPERATIONS.sol\":554:558  uint */\n      0x00\n        /* \"remix_ide/ARRAY/ARRAY OPERATIONS.sol\":578:582  data */\n      dup1\n        /* \"remix_ide/ARRAY/ARRAY OPERATIONS.sol\":578:589  data.length */\n      dup1\n      sload\n      swap1\n      pop\n        /* \"remix_ide/ARRAY/ARRAY OPERATIONS.sol\":571:589  return data.length */\n      swap1\n      pop\n        /* \"remix_ide/ARRAY/ARRAY OPERATIONS.sol\":508:597  function length_element() public view returns(uint) {... */\n      swap1\n      jump\t// out\n        /* \"remix_ide/ARRAY/ARRAY OPERATIONS.sol\":413:502  function delete_element(uint d) public { //it can't works... */\n    tag_21:\n        /* \"remix_ide/ARRAY/ARRAY OPERATIONS.sol\":487:491  data */\n      0x00\n        /* \"remix_ide/ARRAY/ARRAY OPERATIONS.sol\":492:493  d */\n      dup2\n        /* \"remix_ide/ARRAY/ARRAY OPERATIONS.sol\":487:494  data[d] */\n      dup2\n      sload\n      dup2\n      lt\n      tag_38\n      jumpi\n      tag_39\n      tag_40\n      jump\t// in\n    tag_39:\n    tag_38:\n      swap1\n      0x00\n      mstore\n      keccak256(0x00, 0x20)\n      add\n        /* \"remix_ide/ARRAY/ARRAY OPERATIONS.sol\":480:494  delete data[d] */\n      0x00\n      swap1\n      sstore\n        /* \"remix_ide/ARRAY/ARRAY OPERATIONS.sol\":413:502  function delete_element(uint d) public { //it can't works... */\n      pop\n      jump\t// out\n        /* \"remix_ide/ARRAY/ARRAY OPERATIONS.sol\":240:313  function getelement(uint b) public{... */\n    tag_24:\n        /* \"remix_ide/ARRAY/ARRAY OPERATIONS.sol\":298:302  data */\n      0x00\n        /* \"remix_ide/ARRAY/ARRAY OPERATIONS.sol\":303:304  b */\n      dup2\n        /* \"remix_ide/ARRAY/ARRAY OPERATIONS.sol\":298:305  data[b] */\n      dup2\n      sload\n      dup2\n      lt\n      tag_43\n      jumpi\n      tag_44\n      tag_40\n      jump\t// in\n    tag_44:\n    tag_43:\n      swap1\n      0x00\n      mstore\n      keccak256(0x00, 0x20)\n      add\n      sload\n        /* \"remix_ide/ARRAY/ARRAY OPERATIONS.sol\":285:296  getelements */\n      0x01\n        /* \"remix_ide/ARRAY/ARRAY OPERATIONS.sol\":285:305  getelements= data[b] */\n      dup2\n      swap1\n      sstore\n      pop\n        /* \"remix_ide/ARRAY/ARRAY OPERATIONS.sol\":240:313  function getelement(uint b) public{... */\n      pop\n      jump\t// out\n        /* \"remix_ide/ARRAY/ARRAY OPERATIONS.sol\":144:168  uint public  getelements */\n    tag_26:\n      sload(0x01)\n      dup2\n      jump\t// out\n        /* \"remix_ide/ARRAY/ARRAY OPERATIONS.sol\":321:407  function popfunc() public { //used to delete last element.... */\n    tag_29:\n        /* \"remix_ide/ARRAY/ARRAY OPERATIONS.sol\":389:393  data */\n      0x00\n        /* \"remix_ide/ARRAY/ARRAY OPERATIONS.sol\":389:399  data.pop() */\n      dup1\n      sload\n      dup1\n      tag_47\n      jumpi\n      tag_48\n      tag_49\n      jump\t// in\n    tag_48:\n    tag_47:\n      0x01\n      swap1\n      sub\n      dup2\n      dup2\n      swap1\n      0x00\n      mstore\n      keccak256(0x00, 0x20)\n      add\n      0x00\n      swap1\n      sstore\n      swap1\n      sstore\n        /* \"remix_ide/ARRAY/ARRAY OPERATIONS.sol\":321:407  function popfunc() public { //used to delete last element.... */\n      jump\t// out\n        /* \"remix_ide/ARRAY/ARRAY OPERATIONS.sol\":77:113  uint[] public data=[1,2,3,4,5,6,7,8] */\n    tag_32:\n      0x00\n      dup2\n      dup2\n      sload\n      dup2\n      lt\n      tag_51\n      jumpi\n      0x00\n      dup1\n      revert\n    tag_51:\n      swap1\n      0x00\n      mstore\n      keccak256(0x00, 0x20)\n      add\n      0x00\n      swap2\n      pop\n      swap1\n      pop\n      sload\n      dup2\n      jump\t// out\n        /* \"#utility.yul\":88:205   */\n    tag_54:\n        /* \"#utility.yul\":197:198   */\n      0x00\n        /* \"#utility.yul\":194:195   */\n      dup1\n        /* \"#utility.yul\":187:199   */\n      revert\n        /* \"#utility.yul\":334:411   */\n    tag_56:\n        /* \"#utility.yul\":371:378   */\n      0x00\n        /* \"#utility.yul\":400:405   */\n      dup2\n        /* \"#utility.yul\":389:405   */\n      swap1\n      pop\n        /* \"#utility.yul\":334:411   */\n      swap2\n      swap1\n      pop\n      jump\t// out\n        /* \"#utility.yul\":417:539   */\n    tag_57:\n        /* \"#utility.yul\":490:514   */\n      tag_66\n        /* \"#utility.yul\":508:513   */\n      dup2\n        /* \"#utility.yul\":490:514   */\n      tag_56\n      jump\t// in\n    tag_66:\n        /* \"#utility.yul\":483:488   */\n      dup2\n        /* \"#utility.yul\":480:515   */\n      eq\n        /* \"#utility.yul\":470:533   */\n      tag_67\n      jumpi\n        /* \"#utility.yul\":529:530   */\n      0x00\n        /* \"#utility.yul\":526:527   */\n      dup1\n        /* \"#utility.yul\":519:531   */\n      revert\n        /* \"#utility.yul\":470:533   */\n    tag_67:\n        /* \"#utility.yul\":417:539   */\n      pop\n      jump\t// out\n        /* \"#utility.yul\":545:684   */\n    tag_58:\n        /* \"#utility.yul\":591:596   */\n      0x00\n        /* \"#utility.yul\":629:635   */\n      dup2\n        /* \"#utility.yul\":616:636   */\n      calldataload\n        /* \"#utility.yul\":607:636   */\n      swap1\n      pop\n        /* \"#utility.yul\":645:678   */\n      tag_69\n        /* \"#utility.yul\":672:677   */\n      dup2\n        /* \"#utility.yul\":645:678   */\n      tag_57\n      jump\t// in\n    tag_69:\n        /* \"#utility.yul\":545:684   */\n      swap3\n      swap2\n      pop\n      pop\n      jump\t// out\n        /* \"#utility.yul\":690:1019   */\n    tag_13:\n        /* \"#utility.yul\":749:755   */\n      0x00\n        /* \"#utility.yul\":798:800   */\n      0x20\n        /* \"#utility.yul\":786:795   */\n      dup3\n        /* \"#utility.yul\":777:784   */\n      dup5\n        /* \"#utility.yul\":773:796   */\n      sub\n        /* \"#utility.yul\":769:801   */\n      slt\n        /* \"#utility.yul\":766:885   */\n      iszero\n      tag_71\n      jumpi\n        /* \"#utility.yul\":804:883   */\n      tag_72\n      tag_54\n      jump\t// in\n    tag_72:\n        /* \"#utility.yul\":766:885   */\n    tag_71:\n        /* \"#utility.yul\":924:925   */\n      0x00\n        /* \"#utility.yul\":949:1002   */\n      tag_73\n        /* \"#utility.yul\":994:1001   */\n      dup5\n        /* \"#utility.yul\":985:991   */\n      dup3\n        /* \"#utility.yul\":974:983   */\n      dup6\n        /* \"#utility.yul\":970:992   */\n      add\n        /* \"#utility.yul\":949:1002   */\n      tag_58\n      jump\t// in\n    tag_73:\n        /* \"#utility.yul\":939:1002   */\n      swap2\n      pop\n        /* \"#utility.yul\":895:1012   */\n      pop\n        /* \"#utility.yul\":690:1019   */\n      swap3\n      swap2\n      pop\n      pop\n      jump\t// out\n        /* \"#utility.yul\":1025:1143   */\n    tag_59:\n        /* \"#utility.yul\":1112:1136   */\n      tag_75\n        /* \"#utility.yul\":1130:1135   */\n      dup2\n        /* \"#utility.yul\":1112:1136   */\n      tag_56\n      jump\t// in\n    tag_75:\n        /* \"#utility.yul\":1107:1110   */\n      dup3\n        /* \"#utility.yul\":1100:1137   */\n      mstore\n        /* \"#utility.yul\":1025:1143   */\n      pop\n      pop\n      jump\t// out\n        /* \"#utility.yul\":1149:1371   */\n    tag_18:\n        /* \"#utility.yul\":1242:1246   */\n      0x00\n        /* \"#utility.yul\":1280:1282   */\n      0x20\n        /* \"#utility.yul\":1269:1278   */\n      dup3\n        /* \"#utility.yul\":1265:1283   */\n      add\n        /* \"#utility.yul\":1257:1283   */\n      swap1\n      pop\n        /* \"#utility.yul\":1293:1364   */\n      tag_77\n        /* \"#utility.yul\":1361:1362   */\n      0x00\n        /* \"#utility.yul\":1350:1359   */\n      dup4\n        /* \"#utility.yul\":1346:1363   */\n      add\n        /* \"#utility.yul\":1337:1343   */\n      dup5\n        /* \"#utility.yul\":1293:1364   */\n      tag_59\n      jump\t// in\n    tag_77:\n        /* \"#utility.yul\":1149:1371   */\n      swap3\n      swap2\n      pop\n      pop\n      jump\t// out\n        /* \"#utility.yul\":1377:1557   */\n    tag_40:\n        /* \"#utility.yul\":1425:1502   */\n      0x4e487b7100000000000000000000000000000000000000000000000000000000\n        /* \"#utility.yul\":1422:1423   */\n      0x00\n        /* \"#utility.yul\":1415:1503   */\n      mstore\n        /* \"#utility.yul\":1522:1526   */\n      0x32\n        /* \"#utility.yul\":1519:1520   */\n      0x04\n        /* \"#utility.yul\":1512:1527   */\n      mstore\n        /* \"#utility.yul\":1546:1550   */\n      0x24\n        /* \"#utility.yul\":1543:1544   */\n      0x00\n        /* \"#utility.yul\":1536:1551   */\n      revert\n        /* \"#utility.yul\":1563:1743   */\n    tag_49:\n        /* \"#utility.yul\":1611:1688   */\n      0x4e487b7100000000000000000000000000000000000000000000000000000000\n        /* \"#utility.yul\":1608:1609   */\n      0x00\n        /* \"#utility.yul\":1601:1689   */\n      mstore\n        /* \"#utility.yul\":1708:1712   */\n      0x31\n        /* \"#utility.yul\":1705:1706   */\n      0x04\n        /* \"#utility.yul\":1698:1713   */\n      mstore\n        /* \"#utility.yul\":1732:1736   */\n      0x24\n        /* \"#utility.yul\":1729:1730   */\n      0x00\n        /* \"#utility.yul\":1722:1737   */\n      revert\n\n    auxdata: 0xa2646970667358221220f0654ba1f20dc9e8553894dab33138a614819d92bf92fa5640ffbc0a97da0d8364736f6c63430008120033\n}\n",
				"bytecode": {
					"linkReferences": {},
					"object": "6080604052604051806101000160405280600160ff168152602001600260ff168152602001600360ff168152602001600460ff168152602001600560ff168152602001600660ff168152602001600760ff168152602001600860ff16815250600090600861006e929190610081565b5034801561007b57600080fd5b506100f0565b8280548282559060005260206000209081019282156100c2579160200282015b828111156100c1578251829060ff169055916020019190600101906100a1565b5b5090506100cf91906100d3565b5090565b5b808211156100ec5760008160009055506001016100d4565b5090565b61034b806100ff6000396000f3fe608060405234801561001057600080fd5b506004361061007d5760003560e01c80634d965d321161005b5780634d965d32146100d8578063b6793239146100f4578063cb353bcf14610112578063f0ba84401461011c5761007d565b80631003e2d2146100825780631d175b9b1461009e578063374b09a9146100bc575b600080fd5b61009c60048036038101906100979190610260565b61014c565b005b6100a6610178565b6040516100b3919061029c565b60405180910390f35b6100d660048036038101906100d19190610260565b610184565b005b6100f260048036038101906100ed9190610260565b6101a9565b005b6100fc6101d1565b604051610109919061029c565b60405180910390f35b61011a6101d7565b005b61013660048036038101906101319190610260565b610201565b604051610143919061029c565b60405180910390f35b600081908060018154018082558091505060019003906000526020600020016000909190919091505550565b60008080549050905090565b60008181548110610198576101976102b7565b5b906000526020600020016000905550565b600081815481106101bd576101bc6102b7565b5b906000526020600020015460018190555050565b60015481565b60008054806101e9576101e86102e6565b5b60019003818190600052602060002001600090559055565b6000818154811061021157600080fd5b906000526020600020016000915090505481565b600080fd5b6000819050919050565b61023d8161022a565b811461024857600080fd5b50565b60008135905061025a81610234565b92915050565b60006020828403121561027657610275610225565b5b60006102848482850161024b565b91505092915050565b6102968161022a565b82525050565b60006020820190506102b1600083018461028d565b92915050565b7f4e487b7100000000000000000000000000000000000000000000000000000000600052603260045260246000fd5b7f4e487b7100000000000000000000000000000000000000000000000000000000600052603160045260246000fdfea2646970667358221220f0654ba1f20dc9e8553894dab33138a614819d92bf92fa5640ffbc0a97da0d8364736f6c63430008120033",
					"opcodes": "PUSH1 0x80 PUSH1 0x40 MSTORE PUSH1 0x40 MLOAD DUP1 PUSH2 0x100 ADD PUSH1 0x40 MSTORE DUP1 PUSH1 0x1 PUSH1 0xFF AND DUP2 MSTORE PUSH1 0x20 ADD PUSH1 0x2 PUSH1 0xFF AND DUP2 MSTORE PUSH1 0x20 ADD PUSH1 0x3 PUSH1 0xFF AND DUP2 MSTORE PUSH1 0x20 ADD PUSH1 0x4 PUSH1 0xFF AND DUP2 MSTORE PUSH1 0x20 ADD PUSH1 0x5 PUSH1 0xFF AND DUP2 MSTORE PUSH1 0x20 ADD PUSH1 0x6 PUSH1 0xFF AND DUP2 MSTORE PUSH1 0x20 ADD PUSH1 0x7 PUSH1 0xFF AND DUP2 MSTORE PUSH1 0x20 ADD PUSH1 0x8 PUSH1 0xFF AND DUP2 MSTORE POP PUSH1 0x0 SWAP1 PUSH1 0x8 PUSH2 0x6E SWAP3 SWAP2 SWAP1 PUSH2 0x81 JUMP JUMPDEST POP CALLVALUE DUP1 ISZERO PUSH2 0x7B JUMPI PUSH1 0x0 DUP1 REVERT JUMPDEST POP PUSH2 0xF0 JUMP JUMPDEST DUP3 DUP1 SLOAD DUP3 DUP3 SSTORE SWAP1 PUSH1 0x0 MSTORE PUSH1 0x20 PUSH1 0x0 KECCAK256 SWAP1 DUP2 ADD SWAP3 DUP3 ISZERO PUSH2 0xC2 JUMPI SWAP2 PUSH1 0x20 MUL DUP3 ADD JUMPDEST DUP3 DUP2 GT ISZERO PUSH2 0xC1 JUMPI DUP3 MLOAD DUP3 SWAP1 PUSH1 0xFF AND SWAP1 SSTORE SWAP2 PUSH1 0x20 ADD SWAP2 SWAP1 PUSH1 0x1 ADD SWAP1 PUSH2 0xA1 JUMP JUMPDEST JUMPDEST POP SWAP1 POP PUSH2 0xCF SWAP2 SWAP1 PUSH2 0xD3 JUMP JUMPDEST POP SWAP1 JUMP JUMPDEST JUMPDEST DUP1 DUP3 GT ISZERO PUSH2 0xEC JUMPI PUSH1 0x0 DUP2 PUSH1 0x0 SWAP1 SSTORE POP PUSH1 0x1 ADD PUSH2 0xD4 JUMP JUMPDEST POP SWAP1 JUMP JUMPDEST PUSH2 0x34B DUP1 PUSH2 0xFF PUSH1 0x0 CODECOPY PUSH1 0x0 RETURN INVALID PUSH1 0x80 PUSH1 0x40 MSTORE CALLVALUE DUP1 ISZERO PUSH2 0x10 JUMPI PUSH1 0x0 DUP1 REVERT JUMPDEST POP PUSH1 0x4 CALLDATASIZE LT PUSH2 0x7D JUMPI PUSH1 0x0 CALLDATALOAD PUSH1 0xE0 SHR DUP1 PUSH4 0x4D965D32 GT PUSH2 0x5B JUMPI DUP1 PUSH4 0x4D965D32 EQ PUSH2 0xD8 JUMPI DUP1 PUSH4 0xB6793239 EQ PUSH2 0xF4 JUMPI DUP1 PUSH4 0xCB353BCF EQ PUSH2 0x112 JUMPI DUP1 PUSH4 0xF0BA8440 EQ PUSH2 0x11C JUMPI PUSH2 0x7D JUMP JUMPDEST DUP1 PUSH4 0x1003E2D2 EQ PUSH2 0x82 JUMPI DUP1 PUSH4 0x1D175B9B EQ PUSH2 0x9E JUMPI DUP1 PUSH4 0x374B09A9 EQ PUSH2 0xBC JUMPI JUMPDEST PUSH1 0x0 DUP1 REVERT JUMPDEST PUSH2 0x9C PUSH1 0x4 DUP1 CALLDATASIZE SUB DUP2 ADD SWAP1 PUSH2 0x97 SWAP2 SWAP1 PUSH2 0x260 JUMP JUMPDEST PUSH2 0x14C JUMP JUMPDEST STOP JUMPDEST PUSH2 0xA6 PUSH2 0x178 JUMP JUMPDEST PUSH1 0x40 MLOAD PUSH2 0xB3 SWAP2 SWAP1 PUSH2 0x29C JUMP JUMPDEST PUSH1 0x40 MLOAD DUP1 SWAP2 SUB SWAP1 RETURN JUMPDEST PUSH2 0xD6 PUSH1 0x4 DUP1 CALLDATASIZE SUB DUP2 ADD SWAP1 PUSH2 0xD1 SWAP2 SWAP1 PUSH2 0x260 JUMP JUMPDEST PUSH2 0x184 JUMP JUMPDEST STOP JUMPDEST PUSH2 0xF2 PUSH1 0x4 DUP1 CALLDATASIZE SUB DUP2 ADD SWAP1 PUSH2 0xED SWAP2 SWAP1 PUSH2 0x260 JUMP JUMPDEST PUSH2 0x1A9 JUMP JUMPDEST STOP JUMPDEST PUSH2 0xFC PUSH2 0x1D1 JUMP JUMPDEST PUSH1 0x40 MLOAD PUSH2 0x109 SWAP2 SWAP1 PUSH2 0x29C JUMP JUMPDEST PUSH1 0x40 MLOAD DUP1 SWAP2 SUB SWAP1 RETURN JUMPDEST PUSH2 0x11A PUSH2 0x1D7 JUMP JUMPDEST STOP JUMPDEST PUSH2 0x136 PUSH1 0x4 DUP1 CALLDATASIZE SUB DUP2 ADD SWAP1 PUSH2 0x131 SWAP2 SWAP1 PUSH2 0x260 JUMP JUMPDEST PUSH2 0x201 JUMP JUMPDEST PUSH1 0x40 MLOAD PUSH2 0x143 SWAP2 SWAP1 PUSH2 0x29C JUMP JUMPDEST PUSH1 0x40 MLOAD DUP1 SWAP2 SUB SWAP1 RETURN JUMPDEST PUSH1 0x0 DUP2 SWAP1 DUP1 PUSH1 0x1 DUP2 SLOAD ADD DUP1 DUP3 SSTORE DUP1 SWAP2 POP POP PUSH1 0x1 SWAP1 SUB SWAP1 PUSH1 0x0 MSTORE PUSH1 0x20 PUSH1 0x0 KECCAK256 ADD PUSH1 0x0 SWAP1 SWAP2 SWAP1 SWAP2 SWAP1 SWAP2 POP SSTORE POP JUMP JUMPDEST PUSH1 0x0 DUP1 DUP1 SLOAD SWAP1 POP SWAP1 POP SWAP1 JUMP JUMPDEST PUSH1 0x0 DUP2 DUP2 SLOAD DUP2 LT PUSH2 0x198 JUMPI PUSH2 0x197 PUSH2 0x2B7 JUMP JUMPDEST JUMPDEST SWAP1 PUSH1 0x0 MSTORE PUSH1 0x20 PUSH1 0x0 KECCAK256 ADD PUSH1 0x0 SWAP1 SSTORE POP JUMP JUMPDEST PUSH1 0x0 DUP2 DUP2 SLOAD DUP2 LT PUSH2 0x1BD JUMPI PUSH2 0x1BC PUSH2 0x2B7 JUMP JUMPDEST JUMPDEST SWAP1 PUSH1 0x0 MSTORE PUSH1 0x20 PUSH1 0x0 KECCAK256 ADD SLOAD PUSH1 0x1 DUP2 SWAP1 SSTORE POP POP JUMP JUMPDEST PUSH1 0x1 SLOAD DUP2 JUMP JUMPDEST PUSH1 0x0 DUP1 SLOAD DUP1 PUSH2 0x1E9 JUMPI PUSH2 0x1E8 PUSH2 0x2E6 JUMP JUMPDEST JUMPDEST PUSH1 0x1 SWAP1 SUB DUP2 DUP2 SWAP1 PUSH1 0x0 MSTORE PUSH1 0x20 PUSH1 0x0 KECCAK256 ADD PUSH1 0x0 SWAP1 SSTORE SWAP1 SSTORE JUMP JUMPDEST PUSH1 0x0 DUP2 DUP2 SLOAD DUP2 LT PUSH2 0x211 JUMPI PUSH1 0x0 DUP1 REVERT JUMPDEST SWAP1 PUSH1 0x0 MSTORE PUSH1 0x20 PUSH1 0x0 KECCAK256 ADD PUSH1 0x0 SWAP2 POP SWAP1 POP SLOAD DUP2 JUMP JUMPDEST PUSH1 0x0 DUP1 REVERT JUMPDEST PUSH1 0x0 DUP2 SWAP1 POP SWAP2 SWAP1 POP JUMP JUMPDEST PUSH2 0x23D DUP2 PUSH2 0x22A JUMP JUMPDEST DUP2 EQ PUSH2 0x248 JUMPI PUSH1 0x0 DUP1 REVERT JUMPDEST POP JUMP JUMPDEST PUSH1 0x0 DUP2 CALLDATALOAD SWAP1 POP PUSH2 0x25A DUP2 PUSH2 0x234 JUMP JUMPDEST SWAP3 SWAP2 POP POP JUMP JUMPDEST PUSH1 0x0 PUSH1 0x20 DUP3 DUP5 SUB SLT ISZERO PUSH2 0x276 JUMPI PUSH2 0x275 PUSH2 0x225 JUMP JUMPDEST JUMPDEST PUSH1 0x0 PUSH2 0x284 DUP5 DUP3 DUP6 ADD PUSH2 0x24B JUMP JUMPDEST SWAP2 POP POP SWAP3 SWAP2 POP POP JUMP JUMPDEST PUSH2 0x296 DUP2 PUSH2 0x22A JUMP JUMPDEST DUP3 MSTORE POP POP JUMP JUMPDEST PUSH1 0x0 PUSH1 0x20 DUP3 ADD SWAP1 POP PUSH2 0x2B1 PUSH1 0x0 DUP4 ADD DUP5 PUSH2 0x28D JUMP JUMPDEST SWAP3 SWAP2 POP POP JUMP JUMPDEST PUSH32 0x4E487B7100000000000000000000000000000000000000000000000000000000 PUSH1 0x0 MSTORE PUSH1 0x32 PUSH1 0x4 MSTORE PUSH1 0x24 PUSH1 0x0 REVERT JUMPDEST PUSH32 0x4E487B7100000000000000000000000000000000000000000000000000000000 PUSH1 0x0 MSTORE PUSH1 0x31 PUSH1 0x4 MSTORE PUSH1 0x24 PUSH1 0x0 REVERT INVALID LOG2 PUSH5 0x6970667358 0x22 SLT KECCAK256 CREATE PUSH6 0x4BA1F20DC9E8 SSTORE CODESIZE SWAP5 0xDA 0xB3 BALANCE CODESIZE 0xA6 EQ DUP2 SWAP14 SWAP3 0xBF SWAP3 STATICCALL JUMP BLOCKHASH SELFDESTRUCT 0xBC EXP SWAP8 0xDA 0xD DUP4 PUSH5 0x736F6C6343 STOP ADDMOD SLT STOP CALLER "
				},
				"gasEstimates": {
					"creation": {
						"codeDepositCost": "168600",
						"executionCost": "infinite",
						"totalCost": "infinite"
					},
					"external": {
						"add(uint256)": "46830",
						"data(uint256)": "infinite",
						"delete_element(uint256)": "7640",
						"getelement(uint256)": "26800",
						"getelements()": "2451",
						"length_element()": "2468",
						"popfunc()": "29489"
					}
				},
				"methodIdentifiers": {
					"add(uint256)": "1003e2d2",
					"data(uint256)": "f0ba8440",
					"delete_element(uint256)": "374b09a9",
					"getelement(uint256)": "4d965d32",
					"getelements()": "b6793239",
					"length_element()": "1d175b9b",
					"popfunc()": "cb353bcf"
				}
			},
			"storageLayout": {
				"storage": [
					{
						"astId": 13,
						"contract": "remix_ide/ARRAY/ARRAY OPERATIONS.sol:Mehan",
						"label": "data",
						"offset": 0,
						"slot": "0",
						"type": "t_array(t_uint256)dyn_storage"
					},
					{
						"astId": 15,
						"contract": "remix_ide/ARRAY/ARRAY OPERATIONS.sol:Mehan",
						"label": "getelements",
						"offset": 0,
						"slot": "1",
						"type": "t_uint256"
					}
				],
				"types": {
					"t_array(t_uint256)dyn_storage": {
						"base": "t_uint256",
						"encoding": "dynamic_array",
						"label": "uint256[]",
						"numberOfBytes": "32"
					},
					"t_uint256": {
						"encoding": "inplace",
						"label": "uint256",
						"numberOfBytes": "32"
					}
				}
			},
			"userdoc": {
				"kind": "user",
				"methods": {},
				"version": 1
			}
		}
	}
}