{
	"data": {
		"bytecode": {
			"linkReferences": {},
			"object": "60806040526040518060c00160405280600160ff168152602001600260ff168152602001600360ff168152602001600460ff168152602001600560ff168152602001600660ff16815250600090600661005992919061006c565b5034801561006657600080fd5b506100db565b8280548282559060005260206000209081019282156100ad579160200282015b828111156100ac578251829060ff1690559160200191906001019061008c565b5b5090506100ba91906100be565b5090565b5b808211156100d75760008160009055506001016100bf565b5090565b610379806100ea6000396000f3fe608060405234801561001057600080fd5b506004361061002b5760003560e01c80634cc8221514610030575b600080fd5b61004a60048036038101906100459190610147565b61004c565b005b6000805490508110610093576040517f08c379a000000000000000000000000000000000000000000000000000000000815260040161008a90610197565b60405180910390fd5b60008190505b6000805490508110156101065760006001826100b591906101c8565b815481106100c6576100c56102cf565b5b9060005260206000200154600082815481106100e5576100e46102cf565b5b906000526020600020018190555080806100fe90610228565b915050610099565b506000805480610119576101186102a0565b5b6001900381819060005260206000200160009055905550565b6000813590506101418161032c565b92915050565b60006020828403121561015d5761015c6102fe565b5b600061016b84828501610132565b91505092915050565b6000610181600c836101b7565b915061018c82610303565b602082019050919050565b600060208201905081810360008301526101b081610174565b9050919050565b600082825260208201905092915050565b60006101d38261021e565b91506101de8361021e565b9250827fffffffffffffffffffffffffffffffffffffffffffffffffffffffffffffffff0382111561021357610212610271565b5b828201905092915050565b6000819050919050565b60006102338261021e565b91507fffffffffffffffffffffffffffffffffffffffffffffffffffffffffffffffff82141561026657610265610271565b5b600182019050919050565b7f4e487b7100000000000000000000000000000000000000000000000000000000600052601160045260246000fd5b7f4e487b7100000000000000000000000000000000000000000000000000000000600052603160045260246000fd5b7f4e487b7100000000000000000000000000000000000000000000000000000000600052603260045260246000fd5b600080fd5b7f6f7574206f6620696e6465780000000000000000000000000000000000000000600082015250565b6103358161021e565b811461034057600080fd5b5056fea2646970667358221220ef3839c69c22fadfe47d4bfed82b6c82aaeaaa4cbbc3b466545b4e2c9339015364736f6c63430008070033",
			"opcodes": "PUSH1 0x80 PUSH1 0x40 MSTORE PUSH1 0x40 MLOAD DUP1 PUSH1 0xC0 ADD PUSH1 0x40 MSTORE DUP1 PUSH1 0x1 PUSH1 0xFF AND DUP2 MSTORE PUSH1 0x20 ADD PUSH1 0x2 PUSH1 0xFF AND DUP2 MSTORE PUSH1 0x20 ADD PUSH1 0x3 PUSH1 0xFF AND DUP2 MSTORE PUSH1 0x20 ADD PUSH1 0x4 PUSH1 0xFF AND DUP2 MSTORE PUSH1 0x20 ADD PUSH1 0x5 PUSH1 0xFF AND DUP2 MSTORE PUSH1 0x20 ADD PUSH1 0x6 PUSH1 0xFF AND DUP2 MSTORE POP PUSH1 0x0 SWAP1 PUSH1 0x6 PUSH2 0x59 SWAP3 SWAP2 SWAP1 PUSH2 0x6C JUMP JUMPDEST POP CALLVALUE DUP1 ISZERO PUSH2 0x66 JUMPI PUSH1 0x0 DUP1 REVERT JUMPDEST POP PUSH2 0xDB JUMP JUMPDEST DUP3 DUP1 SLOAD DUP3 DUP3 SSTORE SWAP1 PUSH1 0x0 MSTORE PUSH1 0x20 PUSH1 0x0 KECCAK256 SWAP1 DUP2 ADD SWAP3 DUP3 ISZERO PUSH2 0xAD JUMPI SWAP2 PUSH1 0x20 MUL DUP3 ADD JUMPDEST DUP3 DUP2 GT ISZERO PUSH2 0xAC JUMPI DUP3 MLOAD DUP3 SWAP1 PUSH1 0xFF AND SWAP1 SSTORE SWAP2 PUSH1 0x20 ADD SWAP2 SWAP1 PUSH1 0x1 ADD SWAP1 PUSH2 0x8C JUMP JUMPDEST JUMPDEST POP SWAP1 POP PUSH2 0xBA SWAP2 SWAP1 PUSH2 0xBE JUMP JUMPDEST POP SWAP1 JUMP JUMPDEST JUMPDEST DUP1 DUP3 GT ISZERO PUSH2 0xD7 JUMPI PUSH1 0x0 DUP2 PUSH1 0x0 SWAP1 SSTORE POP PUSH1 0x1 ADD PUSH2 0xBF JUMP JUMPDEST POP SWAP1 JUMP JUMPDEST PUSH2 0x379 DUP1 PUSH2 0xEA PUSH1 0x0 CODECOPY PUSH1 0x0 RETURN INVALID PUSH1 0x80 PUSH1 0x40 MSTORE CALLVALUE DUP1 ISZERO PUSH2 0x10 JUMPI PUSH1 0x0 DUP1 REVERT JUMPDEST POP PUSH1 0x4 CALLDATASIZE LT PUSH2 0x2B JUMPI PUSH1 0x0 CALLDATALOAD PUSH1 0xE0 SHR DUP1 PUSH4 0x4CC82215 EQ PUSH2 0x30 JUMPI JUMPDEST PUSH1 0x0 DUP1 REVERT JUMPDEST PUSH2 0x4A PUSH1 0x4 DUP1 CALLDATASIZE SUB DUP2 ADD SWAP1 PUSH2 0x45 SWAP2 SWAP1 PUSH2 0x147 JUMP JUMPDEST PUSH2 0x4C JUMP JUMPDEST STOP JUMPDEST PUSH1 0x0 DUP1 SLOAD SWAP1 POP DUP2 LT PUSH2 0x93 JUMPI PUSH1 0x40 MLOAD PUSH32 0x8C379A000000000000000000000000000000000000000000000000000000000 DUP2 MSTORE PUSH1 0x4 ADD PUSH2 0x8A SWAP1 PUSH2 0x197 JUMP JUMPDEST PUSH1 0x40 MLOAD DUP1 SWAP2 SUB SWAP1 REVERT JUMPDEST PUSH1 0x0 DUP2 SWAP1 POP JUMPDEST PUSH1 0x0 DUP1 SLOAD SWAP1 POP DUP2 LT ISZERO PUSH2 0x106 JUMPI PUSH1 0x0 PUSH1 0x1 DUP3 PUSH2 0xB5 SWAP2 SWAP1 PUSH2 0x1C8 JUMP JUMPDEST DUP2 SLOAD DUP2 LT PUSH2 0xC6 JUMPI PUSH2 0xC5 PUSH2 0x2CF JUMP JUMPDEST JUMPDEST SWAP1 PUSH1 0x0 MSTORE PUSH1 0x20 PUSH1 0x0 KECCAK256 ADD SLOAD PUSH1 0x0 DUP3 DUP2 SLOAD DUP2 LT PUSH2 0xE5 JUMPI PUSH2 0xE4 PUSH2 0x2CF JUMP JUMPDEST JUMPDEST SWAP1 PUSH1 0x0 MSTORE PUSH1 0x20 PUSH1 0x0 KECCAK256 ADD DUP2 SWAP1 SSTORE POP DUP1 DUP1 PUSH2 0xFE SWAP1 PUSH2 0x228 JUMP JUMPDEST SWAP2 POP POP PUSH2 0x99 JUMP JUMPDEST POP PUSH1 0x0 DUP1 SLOAD DUP1 PUSH2 0x119 JUMPI PUSH2 0x118 PUSH2 0x2A0 JUMP JUMPDEST JUMPDEST PUSH1 0x1 SWAP1 SUB DUP2 DUP2 SWAP1 PUSH1 0x0 MSTORE PUSH1 0x20 PUSH1 0x0 KECCAK256 ADD PUSH1 0x0 SWAP1 SSTORE SWAP1 SSTORE POP JUMP JUMPDEST PUSH1 0x0 DUP2 CALLDATALOAD SWAP1 POP PUSH2 0x141 DUP2 PUSH2 0x32C JUMP JUMPDEST SWAP3 SWAP2 POP POP JUMP JUMPDEST PUSH1 0x0 PUSH1 0x20 DUP3 DUP5 SUB SLT ISZERO PUSH2 0x15D JUMPI PUSH2 0x15C PUSH2 0x2FE JUMP JUMPDEST JUMPDEST PUSH1 0x0 PUSH2 0x16B DUP5 DUP3 DUP6 ADD PUSH2 0x132 JUMP JUMPDEST SWAP2 POP POP SWAP3 SWAP2 POP POP JUMP JUMPDEST PUSH1 0x0 PUSH2 0x181 PUSH1 0xC DUP4 PUSH2 0x1B7 JUMP JUMPDEST SWAP2 POP PUSH2 0x18C DUP3 PUSH2 0x303 JUMP JUMPDEST PUSH1 0x20 DUP3 ADD SWAP1 POP SWAP2 SWAP1 POP JUMP JUMPDEST PUSH1 0x0 PUSH1 0x20 DUP3 ADD SWAP1 POP DUP2 DUP2 SUB PUSH1 0x0 DUP4 ADD MSTORE PUSH2 0x1B0 DUP2 PUSH2 0x174 JUMP JUMPDEST SWAP1 POP SWAP2 SWAP1 POP JUMP JUMPDEST PUSH1 0x0 DUP3 DUP3 MSTORE PUSH1 0x20 DUP3 ADD SWAP1 POP SWAP3 SWAP2 POP POP JUMP JUMPDEST PUSH1 0x0 PUSH2 0x1D3 DUP3 PUSH2 0x21E JUMP JUMPDEST SWAP2 POP PUSH2 0x1DE DUP4 PUSH2 0x21E JUMP JUMPDEST SWAP3 POP DUP3 PUSH32 0xFFFFFFFFFFFFFFFFFFFFFFFFFFFFFFFFFFFFFFFFFFFFFFFFFFFFFFFFFFFFFFFF SUB DUP3 GT ISZERO PUSH2 0x213 JUMPI PUSH2 0x212 PUSH2 0x271 JUMP JUMPDEST JUMPDEST DUP3 DUP3 ADD SWAP1 POP SWAP3 SWAP2 POP POP JUMP JUMPDEST PUSH1 0x0 DUP2 SWAP1 POP SWAP2 SWAP1 POP JUMP JUMPDEST PUSH1 0x0 PUSH2 0x233 DUP3 PUSH2 0x21E JUMP JUMPDEST SWAP2 POP PUSH32 0xFFFFFFFFFFFFFFFFFFFFFFFFFFFFFFFFFFFFFFFFFFFFFFFFFFFFFFFFFFFFFFFF DUP3 EQ ISZERO PUSH2 0x266 JUMPI PUSH2 0x265 PUSH2 0x271 JUMP JUMPDEST JUMPDEST PUSH1 0x1 DUP3 ADD SWAP1 POP SWAP2 SWAP1 POP JUMP JUMPDEST PUSH32 0x4E487B7100000000000000000000000000000000000000000000000000000000 PUSH1 0x0 MSTORE PUSH1 0x11 PUSH1 0x4 MSTORE PUSH1 0x24 PUSH1 0x0 REVERT JUMPDEST PUSH32 0x4E487B7100000000000000000000000000000000000000000000000000000000 PUSH1 0x0 MSTORE PUSH1 0x31 PUSH1 0x4 MSTORE PUSH1 0x24 PUSH1 0x0 REVERT JUMPDEST PUSH32 0x4E487B7100000000000000000000000000000000000000000000000000000000 PUSH1 0x0 MSTORE PUSH1 0x32 PUSH1 0x4 MSTORE PUSH1 0x24 PUSH1 0x0 REVERT JUMPDEST PUSH1 0x0 DUP1 REVERT JUMPDEST PUSH32 0x6F7574206F6620696E6465780000000000000000000000000000000000000000 PUSH1 0x0 DUP3 ADD MSTORE POP JUMP JUMPDEST PUSH2 0x335 DUP2 PUSH2 0x21E JUMP JUMPDEST DUP2 EQ PUSH2 0x340 JUMPI PUSH1 0x0 DUP1 REVERT JUMPDEST POP JUMP INVALID LOG2 PUSH5 0x6970667358 0x22 SLT KECCAK256 0xEF CODESIZE CODECOPY 0xC6 SWAP13 0x22 STATICCALL 0xDF 0xE4 PUSH30 0x4BFED82B6C82AAEAAA4CBBC3B466545B4E2C9339015364736F6C63430008 SMOD STOP CALLER "
		},
		"gasEstimates": {
			"creation": {
				"codeDepositCost": "177800",
				"executionCost": "infinite",
				"totalCost": "infinite"
			},
			"external": {
				"remove(uint256)": "infinite"
			}
		},
		"methodIdentifiers": {
			"remove(uint256)": "4cc82215"
		}
	},
	"abi": [
		{
			"inputs": [
				{
					"internalType": "uint256",
					"name": "index",
					"type": "uint256"
				}
			],
			"name": "remove",
			"outputs": [],
			"stateMutability": "nonpayable",
			"type": "function"
		}
	]
}