{
	"remix ide/PROJECT/MARK-1.sol": {
		"receive_ether": {
			"abi": [
				{
					"inputs": [],
					"stateMutability": "payable",
					"type": "constructor"
				},
				{
					"inputs": [],
					"name": "balance",
					"outputs": [
						{
							"internalType": "uint256",
							"name": "",
							"type": "uint256"
						}
					],
					"stateMutability": "view",
					"type": "function"
				},
				{
					"inputs": [
						{
							"internalType": "address payable",
							"name": "_add",
							"type": "address"
						},
						{
							"internalType": "uint256",
							"name": "amount",
							"type": "uint256"
						}
					],
					"name": "sendd",
					"outputs": [],
					"stateMutability": "payable",
					"type": "function"
				},
				{
					"stateMutability": "payable",
					"type": "receive"
				}
			],
			"devdoc": {
				"kind": "dev",
				"methods": {},
				"version": 1
			},
			"evm": {
				"assembly": "    /* \"remix ide/PROJECT/MARK-1.sol\":1110:1625  contract receive_ether{... */\n  mstore(0x40, 0x80)\n    /* \"remix ide/PROJECT/MARK-1.sol\":1270:1280  msg.sender */\n  caller\n    /* \"remix ide/PROJECT/MARK-1.sol\":1255:1269  owner_contract */\n  0x00\n  dup1\n    /* \"remix ide/PROJECT/MARK-1.sol\":1255:1280  owner_contract=msg.sender */\n  0x0100\n  exp\n  dup2\n  sload\n  dup2\n  0xffffffffffffffffffffffffffffffffffffffff\n  mul\n  not\n  and\n  swap1\n  dup4\n  0xffffffffffffffffffffffffffffffffffffffff\n  and\n  mul\n  or\n  swap1\n  sstore\n  pop\n    /* \"remix ide/PROJECT/MARK-1.sol\":1110:1625  contract receive_ether{... */\n  dataSize(sub_0)\n  dup1\n  dataOffset(sub_0)\n  0x00\n  codecopy\n  0x00\n  return\nstop\n\nsub_0: assembly {\n        /* \"remix ide/PROJECT/MARK-1.sol\":1110:1625  contract receive_ether{... */\n      mstore(0x40, 0x80)\n      jumpi(tag_1, lt(calldatasize, 0x04))\n      shr(0xe0, calldataload(0x00))\n      dup1\n      0xb69ef8a8\n      eq\n      tag_3\n      jumpi\n      dup1\n      0xd7781801\n      eq\n      tag_4\n      jumpi\n      jump(tag_2)\n    tag_1:\n      jumpi(tag_2, calldatasize)\n      stop\n    tag_2:\n      0x00\n      dup1\n      revert\n        /* \"remix ide/PROJECT/MARK-1.sol\":1522:1616  function balance() external view returns(uint){... */\n    tag_3:\n      callvalue\n      dup1\n      iszero\n      tag_7\n      jumpi\n      0x00\n      dup1\n      revert\n    tag_7:\n      pop\n      tag_8\n      tag_9\n      jump\t// in\n    tag_8:\n      mload(0x40)\n      tag_10\n      swap2\n      swap1\n      tag_11\n      jump\t// in\n    tag_10:\n      mload(0x40)\n      dup1\n      swap2\n      sub\n      swap1\n      return\n        /* \"remix ide/PROJECT/MARK-1.sol\":1294:1516  function sendd(address payable _add,uint amount) external payable{... */\n    tag_4:\n      tag_12\n      0x04\n      dup1\n      calldatasize\n      sub\n      dup2\n      add\n      swap1\n      tag_13\n      swap2\n      swap1\n      tag_14\n      jump\t// in\n    tag_13:\n      tag_15\n      jump\t// in\n    tag_12:\n      stop\n        /* \"remix ide/PROJECT/MARK-1.sol\":1522:1616  function balance() external view returns(uint){... */\n    tag_9:\n        /* \"remix ide/PROJECT/MARK-1.sol\":1563:1567  uint */\n      0x00\n        /* \"remix ide/PROJECT/MARK-1.sol\":1586:1607  address(this).balance */\n      selfbalance\n        /* \"remix ide/PROJECT/MARK-1.sol\":1579:1608  return(address(this).balance) */\n      swap1\n      pop\n        /* \"remix ide/PROJECT/MARK-1.sol\":1522:1616  function balance() external view returns(uint){... */\n      swap1\n      jump\t// out\n        /* \"remix ide/PROJECT/MARK-1.sol\":1294:1516  function sendd(address payable _add,uint amount) external payable{... */\n    tag_15:\n        /* \"remix ide/PROJECT/MARK-1.sol\":1403:1404  1 */\n      0x01\n        /* \"remix ide/PROJECT/MARK-1.sol\":1378:1399  address(this).balance */\n      selfbalance\n        /* \"remix ide/PROJECT/MARK-1.sol\":1378:1404  address(this).balance >= 1 */\n      lt\n      iszero\n        /* \"remix ide/PROJECT/MARK-1.sol\":1370:1418  require(address(this).balance >= 1,\"no balance\") */\n      tag_18\n      jumpi\n      mload(0x40)\n      0x08c379a000000000000000000000000000000000000000000000000000000000\n      dup2\n      mstore\n      0x04\n      add\n      tag_19\n      swap1\n      tag_20\n      jump\t// in\n    tag_19:\n      mload(0x40)\n      dup1\n      swap2\n      sub\n      swap1\n      revert\n    tag_18:\n        /* \"remix ide/PROJECT/MARK-1.sol\":1449:1463  owner_contract */\n      0x00\n      dup1\n      sload\n      swap1\n      0x0100\n      exp\n      swap1\n      div\n      0xffffffffffffffffffffffffffffffffffffffff\n      and\n        /* \"remix ide/PROJECT/MARK-1.sol\":1437:1463  msg.sender==owner_contract */\n      0xffffffffffffffffffffffffffffffffffffffff\n      and\n        /* \"remix ide/PROJECT/MARK-1.sol\":1437:1447  msg.sender */\n      caller\n        /* \"remix ide/PROJECT/MARK-1.sol\":1437:1463  msg.sender==owner_contract */\n      0xffffffffffffffffffffffffffffffffffffffff\n      and\n      eq\n        /* \"remix ide/PROJECT/MARK-1.sol\":1429:1476  require(msg.sender==owner_contract,\"not owner\") */\n      tag_21\n      jumpi\n      mload(0x40)\n      0x08c379a000000000000000000000000000000000000000000000000000000000\n      dup2\n      mstore\n      0x04\n      add\n      tag_22\n      swap1\n      tag_23\n      jump\t// in\n    tag_22:\n      mload(0x40)\n      dup1\n      swap2\n      sub\n      swap1\n      revert\n    tag_21:\n        /* \"remix ide/PROJECT/MARK-1.sol\":1487:1491  _add */\n      dup2\n        /* \"remix ide/PROJECT/MARK-1.sol\":1487:1500  _add.transfer */\n      0xffffffffffffffffffffffffffffffffffffffff\n      and\n        /* \"remix ide/PROJECT/MARK-1.sol\":1487:1508  _add.transfer(amount) */\n      0x08fc\n        /* \"remix ide/PROJECT/MARK-1.sol\":1501:1507  amount */\n      dup3\n        /* \"remix ide/PROJECT/MARK-1.sol\":1487:1508  _add.transfer(amount) */\n      swap1\n      dup2\n      iszero\n      mul\n      swap1\n      mload(0x40)\n      0x00\n      mload(0x40)\n      dup1\n      dup4\n      sub\n      dup2\n      dup6\n      dup9\n      dup9\n      call\n      swap4\n      pop\n      pop\n      pop\n      pop\n      iszero\n      dup1\n      iszero\n      tag_25\n      jumpi\n      returndatasize\n      0x00\n      dup1\n      returndatacopy\n      revert(0x00, returndatasize)\n    tag_25:\n      pop\n        /* \"remix ide/PROJECT/MARK-1.sol\":1294:1516  function sendd(address payable _add,uint amount) external payable{... */\n      pop\n      pop\n      jump\t// out\n        /* \"#utility.yul\":7:84   */\n    tag_26:\n        /* \"#utility.yul\":44:51   */\n      0x00\n        /* \"#utility.yul\":73:78   */\n      dup2\n        /* \"#utility.yul\":62:78   */\n      swap1\n      pop\n        /* \"#utility.yul\":7:84   */\n      swap2\n      swap1\n      pop\n      jump\t// out\n        /* \"#utility.yul\":90:208   */\n    tag_27:\n        /* \"#utility.yul\":177:201   */\n      tag_45\n        /* \"#utility.yul\":195:200   */\n      dup2\n        /* \"#utility.yul\":177:201   */\n      tag_26\n      jump\t// in\n    tag_45:\n        /* \"#utility.yul\":172:175   */\n      dup3\n        /* \"#utility.yul\":165:202   */\n      mstore\n        /* \"#utility.yul\":90:208   */\n      pop\n      pop\n      jump\t// out\n        /* \"#utility.yul\":214:436   */\n    tag_11:\n        /* \"#utility.yul\":307:311   */\n      0x00\n        /* \"#utility.yul\":345:347   */\n      0x20\n        /* \"#utility.yul\":334:343   */\n      dup3\n        /* \"#utility.yul\":330:348   */\n      add\n        /* \"#utility.yul\":322:348   */\n      swap1\n      pop\n        /* \"#utility.yul\":358:429   */\n      tag_47\n        /* \"#utility.yul\":426:427   */\n      0x00\n        /* \"#utility.yul\":415:424   */\n      dup4\n        /* \"#utility.yul\":411:428   */\n      add\n        /* \"#utility.yul\":402:408   */\n      dup5\n        /* \"#utility.yul\":358:429   */\n      tag_27\n      jump\t// in\n    tag_47:\n        /* \"#utility.yul\":214:436   */\n      swap3\n      swap2\n      pop\n      pop\n      jump\t// out\n        /* \"#utility.yul\":523:640   */\n    tag_29:\n        /* \"#utility.yul\":632:633   */\n      0x00\n        /* \"#utility.yul\":629:630   */\n      dup1\n        /* \"#utility.yul\":622:634   */\n      revert\n        /* \"#utility.yul\":769:895   */\n    tag_31:\n        /* \"#utility.yul\":806:813   */\n      0x00\n        /* \"#utility.yul\":846:888   */\n      0xffffffffffffffffffffffffffffffffffffffff\n        /* \"#utility.yul\":839:844   */\n      dup3\n        /* \"#utility.yul\":835:889   */\n      and\n        /* \"#utility.yul\":824:889   */\n      swap1\n      pop\n        /* \"#utility.yul\":769:895   */\n      swap2\n      swap1\n      pop\n      jump\t// out\n        /* \"#utility.yul\":901:1005   */\n    tag_32:\n        /* \"#utility.yul\":946:953   */\n      0x00\n        /* \"#utility.yul\":975:999   */\n      tag_53\n        /* \"#utility.yul\":993:998   */\n      dup3\n        /* \"#utility.yul\":975:999   */\n      tag_31\n      jump\t// in\n    tag_53:\n        /* \"#utility.yul\":964:999   */\n      swap1\n      pop\n        /* \"#utility.yul\":901:1005   */\n      swap2\n      swap1\n      pop\n      jump\t// out\n        /* \"#utility.yul\":1011:1149   */\n    tag_33:\n        /* \"#utility.yul\":1092:1124   */\n      tag_55\n        /* \"#utility.yul\":1118:1123   */\n      dup2\n        /* \"#utility.yul\":1092:1124   */\n      tag_32\n      jump\t// in\n    tag_55:\n        /* \"#utility.yul\":1085:1090   */\n      dup2\n        /* \"#utility.yul\":1082:1125   */\n      eq\n        /* \"#utility.yul\":1072:1143   */\n      tag_56\n      jumpi\n        /* \"#utility.yul\":1139:1140   */\n      0x00\n        /* \"#utility.yul\":1136:1137   */\n      dup1\n        /* \"#utility.yul\":1129:1141   */\n      revert\n        /* \"#utility.yul\":1072:1143   */\n    tag_56:\n        /* \"#utility.yul\":1011:1149   */\n      pop\n      jump\t// out\n        /* \"#utility.yul\":1155:1310   */\n    tag_34:\n        /* \"#utility.yul\":1209:1214   */\n      0x00\n        /* \"#utility.yul\":1247:1253   */\n      dup2\n        /* \"#utility.yul\":1234:1254   */\n      calldataload\n        /* \"#utility.yul\":1225:1254   */\n      swap1\n      pop\n        /* \"#utility.yul\":1263:1304   */\n      tag_58\n        /* \"#utility.yul\":1298:1303   */\n      dup2\n        /* \"#utility.yul\":1263:1304   */\n      tag_33\n      jump\t// in\n    tag_58:\n        /* \"#utility.yul\":1155:1310   */\n      swap3\n      swap2\n      pop\n      pop\n      jump\t// out\n        /* \"#utility.yul\":1316:1438   */\n    tag_35:\n        /* \"#utility.yul\":1389:1413   */\n      tag_60\n        /* \"#utility.yul\":1407:1412   */\n      dup2\n        /* \"#utility.yul\":1389:1413   */\n      tag_26\n      jump\t// in\n    tag_60:\n        /* \"#utility.yul\":1382:1387   */\n      dup2\n        /* \"#utility.yul\":1379:1414   */\n      eq\n        /* \"#utility.yul\":1369:1432   */\n      tag_61\n      jumpi\n        /* \"#utility.yul\":1428:1429   */\n      0x00\n        /* \"#utility.yul\":1425:1426   */\n      dup1\n        /* \"#utility.yul\":1418:1430   */\n      revert\n        /* \"#utility.yul\":1369:1432   */\n    tag_61:\n        /* \"#utility.yul\":1316:1438   */\n      pop\n      jump\t// out\n        /* \"#utility.yul\":1444:1583   */\n    tag_36:\n        /* \"#utility.yul\":1490:1495   */\n      0x00\n        /* \"#utility.yul\":1528:1534   */\n      dup2\n        /* \"#utility.yul\":1515:1535   */\n      calldataload\n        /* \"#utility.yul\":1506:1535   */\n      swap1\n      pop\n        /* \"#utility.yul\":1544:1577   */\n      tag_63\n        /* \"#utility.yul\":1571:1576   */\n      dup2\n        /* \"#utility.yul\":1544:1577   */\n      tag_35\n      jump\t// in\n    tag_63:\n        /* \"#utility.yul\":1444:1583   */\n      swap3\n      swap2\n      pop\n      pop\n      jump\t// out\n        /* \"#utility.yul\":1589:2079   */\n    tag_14:\n        /* \"#utility.yul\":1665:1671   */\n      0x00\n        /* \"#utility.yul\":1673:1679   */\n      dup1\n        /* \"#utility.yul\":1722:1724   */\n      0x40\n        /* \"#utility.yul\":1710:1719   */\n      dup4\n        /* \"#utility.yul\":1701:1708   */\n      dup6\n        /* \"#utility.yul\":1697:1720   */\n      sub\n        /* \"#utility.yul\":1693:1725   */\n      slt\n        /* \"#utility.yul\":1690:1809   */\n      iszero\n      tag_65\n      jumpi\n        /* \"#utility.yul\":1728:1807   */\n      tag_66\n      tag_29\n      jump\t// in\n    tag_66:\n        /* \"#utility.yul\":1690:1809   */\n    tag_65:\n        /* \"#utility.yul\":1848:1849   */\n      0x00\n        /* \"#utility.yul\":1873:1934   */\n      tag_67\n        /* \"#utility.yul\":1926:1933   */\n      dup6\n        /* \"#utility.yul\":1917:1923   */\n      dup3\n        /* \"#utility.yul\":1906:1915   */\n      dup7\n        /* \"#utility.yul\":1902:1924   */\n      add\n        /* \"#utility.yul\":1873:1934   */\n      tag_34\n      jump\t// in\n    tag_67:\n        /* \"#utility.yul\":1863:1934   */\n      swap3\n      pop\n        /* \"#utility.yul\":1819:1944   */\n      pop\n        /* \"#utility.yul\":1983:1985   */\n      0x20\n        /* \"#utility.yul\":2009:2062   */\n      tag_68\n        /* \"#utility.yul\":2054:2061   */\n      dup6\n        /* \"#utility.yul\":2045:2051   */\n      dup3\n        /* \"#utility.yul\":2034:2043   */\n      dup7\n        /* \"#utility.yul\":2030:2052   */\n      add\n        /* \"#utility.yul\":2009:2062   */\n      tag_36\n      jump\t// in\n    tag_68:\n        /* \"#utility.yul\":1999:2062   */\n      swap2\n      pop\n        /* \"#utility.yul\":1954:2072   */\n      pop\n        /* \"#utility.yul\":1589:2079   */\n      swap3\n      pop\n      swap3\n      swap1\n      pop\n      jump\t// out\n        /* \"#utility.yul\":2085:2254   */\n    tag_37:\n        /* \"#utility.yul\":2169:2180   */\n      0x00\n        /* \"#utility.yul\":2203:2209   */\n      dup3\n        /* \"#utility.yul\":2198:2201   */\n      dup3\n        /* \"#utility.yul\":2191:2210   */\n      mstore\n        /* \"#utility.yul\":2243:2247   */\n      0x20\n        /* \"#utility.yul\":2238:2241   */\n      dup3\n        /* \"#utility.yul\":2234:2248   */\n      add\n        /* \"#utility.yul\":2219:2248   */\n      swap1\n      pop\n        /* \"#utility.yul\":2085:2254   */\n      swap3\n      swap2\n      pop\n      pop\n      jump\t// out\n        /* \"#utility.yul\":2260:2420   */\n    tag_38:\n        /* \"#utility.yul\":2400:2412   */\n      0x6e6f2062616c616e636500000000000000000000000000000000000000000000\n        /* \"#utility.yul\":2396:2397   */\n      0x00\n        /* \"#utility.yul\":2388:2394   */\n      dup3\n        /* \"#utility.yul\":2384:2398   */\n      add\n        /* \"#utility.yul\":2377:2413   */\n      mstore\n        /* \"#utility.yul\":2260:2420   */\n      pop\n      jump\t// out\n        /* \"#utility.yul\":2426:2792   */\n    tag_39:\n        /* \"#utility.yul\":2568:2571   */\n      0x00\n        /* \"#utility.yul\":2589:2656   */\n      tag_72\n        /* \"#utility.yul\":2653:2655   */\n      0x0a\n        /* \"#utility.yul\":2648:2651   */\n      dup4\n        /* \"#utility.yul\":2589:2656   */\n      tag_37\n      jump\t// in\n    tag_72:\n        /* \"#utility.yul\":2582:2656   */\n      swap2\n      pop\n        /* \"#utility.yul\":2665:2758   */\n      tag_73\n        /* \"#utility.yul\":2754:2757   */\n      dup3\n        /* \"#utility.yul\":2665:2758   */\n      tag_38\n      jump\t// in\n    tag_73:\n        /* \"#utility.yul\":2783:2785   */\n      0x20\n        /* \"#utility.yul\":2778:2781   */\n      dup3\n        /* \"#utility.yul\":2774:2786   */\n      add\n        /* \"#utility.yul\":2767:2786   */\n      swap1\n      pop\n        /* \"#utility.yul\":2426:2792   */\n      swap2\n      swap1\n      pop\n      jump\t// out\n        /* \"#utility.yul\":2798:3217   */\n    tag_20:\n        /* \"#utility.yul\":2964:2968   */\n      0x00\n        /* \"#utility.yul\":3002:3004   */\n      0x20\n        /* \"#utility.yul\":2991:3000   */\n      dup3\n        /* \"#utility.yul\":2987:3005   */\n      add\n        /* \"#utility.yul\":2979:3005   */\n      swap1\n      pop\n        /* \"#utility.yul\":3051:3060   */\n      dup2\n        /* \"#utility.yul\":3045:3049   */\n      dup2\n        /* \"#utility.yul\":3041:3061   */\n      sub\n        /* \"#utility.yul\":3037:3038   */\n      0x00\n        /* \"#utility.yul\":3026:3035   */\n      dup4\n        /* \"#utility.yul\":3022:3039   */\n      add\n        /* \"#utility.yul\":3015:3062   */\n      mstore\n        /* \"#utility.yul\":3079:3210   */\n      tag_75\n        /* \"#utility.yul\":3205:3209   */\n      dup2\n        /* \"#utility.yul\":3079:3210   */\n      tag_39\n      jump\t// in\n    tag_75:\n        /* \"#utility.yul\":3071:3210   */\n      swap1\n      pop\n        /* \"#utility.yul\":2798:3217   */\n      swap2\n      swap1\n      pop\n      jump\t// out\n        /* \"#utility.yul\":3223:3382   */\n    tag_40:\n        /* \"#utility.yul\":3363:3374   */\n      0x6e6f74206f776e65720000000000000000000000000000000000000000000000\n        /* \"#utility.yul\":3359:3360   */\n      0x00\n        /* \"#utility.yul\":3351:3357   */\n      dup3\n        /* \"#utility.yul\":3347:3361   */\n      add\n        /* \"#utility.yul\":3340:3375   */\n      mstore\n        /* \"#utility.yul\":3223:3382   */\n      pop\n      jump\t// out\n        /* \"#utility.yul\":3388:3753   */\n    tag_41:\n        /* \"#utility.yul\":3530:3533   */\n      0x00\n        /* \"#utility.yul\":3551:3617   */\n      tag_78\n        /* \"#utility.yul\":3615:3616   */\n      0x09\n        /* \"#utility.yul\":3610:3613   */\n      dup4\n        /* \"#utility.yul\":3551:3617   */\n      tag_37\n      jump\t// in\n    tag_78:\n        /* \"#utility.yul\":3544:3617   */\n      swap2\n      pop\n        /* \"#utility.yul\":3626:3719   */\n      tag_79\n        /* \"#utility.yul\":3715:3718   */\n      dup3\n        /* \"#utility.yul\":3626:3719   */\n      tag_40\n      jump\t// in\n    tag_79:\n        /* \"#utility.yul\":3744:3746   */\n      0x20\n        /* \"#utility.yul\":3739:3742   */\n      dup3\n        /* \"#utility.yul\":3735:3747   */\n      add\n        /* \"#utility.yul\":3728:3747   */\n      swap1\n      pop\n        /* \"#utility.yul\":3388:3753   */\n      swap2\n      swap1\n      pop\n      jump\t// out\n        /* \"#utility.yul\":3759:4178   */\n    tag_23:\n        /* \"#utility.yul\":3925:3929   */\n      0x00\n        /* \"#utility.yul\":3963:3965   */\n      0x20\n        /* \"#utility.yul\":3952:3961   */\n      dup3\n        /* \"#utility.yul\":3948:3966   */\n      add\n        /* \"#utility.yul\":3940:3966   */\n      swap1\n      pop\n        /* \"#utility.yul\":4012:4021   */\n      dup2\n        /* \"#utility.yul\":4006:4010   */\n      dup2\n        /* \"#utility.yul\":4002:4022   */\n      sub\n        /* \"#utility.yul\":3998:3999   */\n      0x00\n        /* \"#utility.yul\":3987:3996   */\n      dup4\n        /* \"#utility.yul\":3983:4000   */\n      add\n        /* \"#utility.yul\":3976:4023   */\n      mstore\n        /* \"#utility.yul\":4040:4171   */\n      tag_81\n        /* \"#utility.yul\":4166:4170   */\n      dup2\n        /* \"#utility.yul\":4040:4171   */\n      tag_41\n      jump\t// in\n    tag_81:\n        /* \"#utility.yul\":4032:4171   */\n      swap1\n      pop\n        /* \"#utility.yul\":3759:4178   */\n      swap2\n      swap1\n      pop\n      jump\t// out\n\n    auxdata: 0xa2646970667358221220002a3d36c84261bbaafcc096b7102752a58de51305c65263ab9ead97bfdde3ef64736f6c63430008110033\n}\n",
				"bytecode": {
					"linkReferences": {},
					"object": "6080604052336000806101000a81548173ffffffffffffffffffffffffffffffffffffffff021916908373ffffffffffffffffffffffffffffffffffffffff1602179055506103c7806100536000396000f3fe60806040526004361061002d5760003560e01c8063b69ef8a814610039578063d77818011461006457610034565b3661003457005b600080fd5b34801561004557600080fd5b5061004e610080565b60405161005b91906101be565b60405180910390f35b61007e60048036038101906100799190610268565b610088565b005b600047905090565b60014710156100cc576040517f08c379a00000000000000000000000000000000000000000000000000000000081526004016100c390610305565b60405180910390fd5b60008054906101000a900473ffffffffffffffffffffffffffffffffffffffff1673ffffffffffffffffffffffffffffffffffffffff163373ffffffffffffffffffffffffffffffffffffffff161461015a576040517f08c379a000000000000000000000000000000000000000000000000000000000815260040161015190610371565b60405180910390fd5b8173ffffffffffffffffffffffffffffffffffffffff166108fc829081150290604051600060405180830381858888f193505050501580156101a0573d6000803e3d6000fd5b505050565b6000819050919050565b6101b8816101a5565b82525050565b60006020820190506101d360008301846101af565b92915050565b600080fd5b600073ffffffffffffffffffffffffffffffffffffffff82169050919050565b6000610209826101de565b9050919050565b610219816101fe565b811461022457600080fd5b50565b60008135905061023681610210565b92915050565b610245816101a5565b811461025057600080fd5b50565b6000813590506102628161023c565b92915050565b6000806040838503121561027f5761027e6101d9565b5b600061028d85828601610227565b925050602061029e85828601610253565b9150509250929050565b600082825260208201905092915050565b7f6e6f2062616c616e636500000000000000000000000000000000000000000000600082015250565b60006102ef600a836102a8565b91506102fa826102b9565b602082019050919050565b6000602082019050818103600083015261031e816102e2565b9050919050565b7f6e6f74206f776e65720000000000000000000000000000000000000000000000600082015250565b600061035b6009836102a8565b915061036682610325565b602082019050919050565b6000602082019050818103600083015261038a8161034e565b905091905056fea2646970667358221220002a3d36c84261bbaafcc096b7102752a58de51305c65263ab9ead97bfdde3ef64736f6c63430008110033",
					"opcodes": "PUSH1 0x80 PUSH1 0x40 MSTORE CALLER PUSH1 0x0 DUP1 PUSH2 0x100 EXP DUP2 SLOAD DUP2 PUSH20 0xFFFFFFFFFFFFFFFFFFFFFFFFFFFFFFFFFFFFFFFF MUL NOT AND SWAP1 DUP4 PUSH20 0xFFFFFFFFFFFFFFFFFFFFFFFFFFFFFFFFFFFFFFFF AND MUL OR SWAP1 SSTORE POP PUSH2 0x3C7 DUP1 PUSH2 0x53 PUSH1 0x0 CODECOPY PUSH1 0x0 RETURN INVALID PUSH1 0x80 PUSH1 0x40 MSTORE PUSH1 0x4 CALLDATASIZE LT PUSH2 0x2D JUMPI PUSH1 0x0 CALLDATALOAD PUSH1 0xE0 SHR DUP1 PUSH4 0xB69EF8A8 EQ PUSH2 0x39 JUMPI DUP1 PUSH4 0xD7781801 EQ PUSH2 0x64 JUMPI PUSH2 0x34 JUMP JUMPDEST CALLDATASIZE PUSH2 0x34 JUMPI STOP JUMPDEST PUSH1 0x0 DUP1 REVERT JUMPDEST CALLVALUE DUP1 ISZERO PUSH2 0x45 JUMPI PUSH1 0x0 DUP1 REVERT JUMPDEST POP PUSH2 0x4E PUSH2 0x80 JUMP JUMPDEST PUSH1 0x40 MLOAD PUSH2 0x5B SWAP2 SWAP1 PUSH2 0x1BE JUMP JUMPDEST PUSH1 0x40 MLOAD DUP1 SWAP2 SUB SWAP1 RETURN JUMPDEST PUSH2 0x7E PUSH1 0x4 DUP1 CALLDATASIZE SUB DUP2 ADD SWAP1 PUSH2 0x79 SWAP2 SWAP1 PUSH2 0x268 JUMP JUMPDEST PUSH2 0x88 JUMP JUMPDEST STOP JUMPDEST PUSH1 0x0 SELFBALANCE SWAP1 POP SWAP1 JUMP JUMPDEST PUSH1 0x1 SELFBALANCE LT ISZERO PUSH2 0xCC JUMPI PUSH1 0x40 MLOAD PUSH32 0x8C379A000000000000000000000000000000000000000000000000000000000 DUP2 MSTORE PUSH1 0x4 ADD PUSH2 0xC3 SWAP1 PUSH2 0x305 JUMP JUMPDEST PUSH1 0x40 MLOAD DUP1 SWAP2 SUB SWAP1 REVERT JUMPDEST PUSH1 0x0 DUP1 SLOAD SWAP1 PUSH2 0x100 EXP SWAP1 DIV PUSH20 0xFFFFFFFFFFFFFFFFFFFFFFFFFFFFFFFFFFFFFFFF AND PUSH20 0xFFFFFFFFFFFFFFFFFFFFFFFFFFFFFFFFFFFFFFFF AND CALLER PUSH20 0xFFFFFFFFFFFFFFFFFFFFFFFFFFFFFFFFFFFFFFFF AND EQ PUSH2 0x15A JUMPI PUSH1 0x40 MLOAD PUSH32 0x8C379A000000000000000000000000000000000000000000000000000000000 DUP2 MSTORE PUSH1 0x4 ADD PUSH2 0x151 SWAP1 PUSH2 0x371 JUMP JUMPDEST PUSH1 0x40 MLOAD DUP1 SWAP2 SUB SWAP1 REVERT JUMPDEST DUP2 PUSH20 0xFFFFFFFFFFFFFFFFFFFFFFFFFFFFFFFFFFFFFFFF AND PUSH2 0x8FC DUP3 SWAP1 DUP2 ISZERO MUL SWAP1 PUSH1 0x40 MLOAD PUSH1 0x0 PUSH1 0x40 MLOAD DUP1 DUP4 SUB DUP2 DUP6 DUP9 DUP9 CALL SWAP4 POP POP POP POP ISZERO DUP1 ISZERO PUSH2 0x1A0 JUMPI RETURNDATASIZE PUSH1 0x0 DUP1 RETURNDATACOPY RETURNDATASIZE PUSH1 0x0 REVERT JUMPDEST POP POP POP JUMP JUMPDEST PUSH1 0x0 DUP2 SWAP1 POP SWAP2 SWAP1 POP JUMP JUMPDEST PUSH2 0x1B8 DUP2 PUSH2 0x1A5 JUMP JUMPDEST DUP3 MSTORE POP POP JUMP JUMPDEST PUSH1 0x0 PUSH1 0x20 DUP3 ADD SWAP1 POP PUSH2 0x1D3 PUSH1 0x0 DUP4 ADD DUP5 PUSH2 0x1AF JUMP JUMPDEST SWAP3 SWAP2 POP POP JUMP JUMPDEST PUSH1 0x0 DUP1 REVERT JUMPDEST PUSH1 0x0 PUSH20 0xFFFFFFFFFFFFFFFFFFFFFFFFFFFFFFFFFFFFFFFF DUP3 AND SWAP1 POP SWAP2 SWAP1 POP JUMP JUMPDEST PUSH1 0x0 PUSH2 0x209 DUP3 PUSH2 0x1DE JUMP JUMPDEST SWAP1 POP SWAP2 SWAP1 POP JUMP JUMPDEST PUSH2 0x219 DUP2 PUSH2 0x1FE JUMP JUMPDEST DUP2 EQ PUSH2 0x224 JUMPI PUSH1 0x0 DUP1 REVERT JUMPDEST POP JUMP JUMPDEST PUSH1 0x0 DUP2 CALLDATALOAD SWAP1 POP PUSH2 0x236 DUP2 PUSH2 0x210 JUMP JUMPDEST SWAP3 SWAP2 POP POP JUMP JUMPDEST PUSH2 0x245 DUP2 PUSH2 0x1A5 JUMP JUMPDEST DUP2 EQ PUSH2 0x250 JUMPI PUSH1 0x0 DUP1 REVERT JUMPDEST POP JUMP JUMPDEST PUSH1 0x0 DUP2 CALLDATALOAD SWAP1 POP PUSH2 0x262 DUP2 PUSH2 0x23C JUMP JUMPDEST SWAP3 SWAP2 POP POP JUMP JUMPDEST PUSH1 0x0 DUP1 PUSH1 0x40 DUP4 DUP6 SUB SLT ISZERO PUSH2 0x27F JUMPI PUSH2 0x27E PUSH2 0x1D9 JUMP JUMPDEST JUMPDEST PUSH1 0x0 PUSH2 0x28D DUP6 DUP3 DUP7 ADD PUSH2 0x227 JUMP JUMPDEST SWAP3 POP POP PUSH1 0x20 PUSH2 0x29E DUP6 DUP3 DUP7 ADD PUSH2 0x253 JUMP JUMPDEST SWAP2 POP POP SWAP3 POP SWAP3 SWAP1 POP JUMP JUMPDEST PUSH1 0x0 DUP3 DUP3 MSTORE PUSH1 0x20 DUP3 ADD SWAP1 POP SWAP3 SWAP2 POP POP JUMP JUMPDEST PUSH32 0x6E6F2062616C616E636500000000000000000000000000000000000000000000 PUSH1 0x0 DUP3 ADD MSTORE POP JUMP JUMPDEST PUSH1 0x0 PUSH2 0x2EF PUSH1 0xA DUP4 PUSH2 0x2A8 JUMP JUMPDEST SWAP2 POP PUSH2 0x2FA DUP3 PUSH2 0x2B9 JUMP JUMPDEST PUSH1 0x20 DUP3 ADD SWAP1 POP SWAP2 SWAP1 POP JUMP JUMPDEST PUSH1 0x0 PUSH1 0x20 DUP3 ADD SWAP1 POP DUP2 DUP2 SUB PUSH1 0x0 DUP4 ADD MSTORE PUSH2 0x31E DUP2 PUSH2 0x2E2 JUMP JUMPDEST SWAP1 POP SWAP2 SWAP1 POP JUMP JUMPDEST PUSH32 0x6E6F74206F776E65720000000000000000000000000000000000000000000000 PUSH1 0x0 DUP3 ADD MSTORE POP JUMP JUMPDEST PUSH1 0x0 PUSH2 0x35B PUSH1 0x9 DUP4 PUSH2 0x2A8 JUMP JUMPDEST SWAP2 POP PUSH2 0x366 DUP3 PUSH2 0x325 JUMP JUMPDEST PUSH1 0x20 DUP3 ADD SWAP1 POP SWAP2 SWAP1 POP JUMP JUMPDEST PUSH1 0x0 PUSH1 0x20 DUP3 ADD SWAP1 POP DUP2 DUP2 SUB PUSH1 0x0 DUP4 ADD MSTORE PUSH2 0x38A DUP2 PUSH2 0x34E JUMP JUMPDEST SWAP1 POP SWAP2 SWAP1 POP JUMP INVALID LOG2 PUSH5 0x6970667358 0x22 SLT KECCAK256 STOP 0x2A RETURNDATASIZE CALLDATASIZE 0xC8 TIMESTAMP PUSH2 0xBBAA 0xFC 0xC0 SWAP7 0xB7 LT 0x27 MSTORE 0xA5 DUP14 0xE5 SGT SDIV 0xC6 MSTORE PUSH4 0xAB9EAD97 0xBF 0xDD 0xE3 0xEF PUSH5 0x736F6C6343 STOP ADDMOD GT STOP CALLER "
				},
				"gasEstimates": {
					"creation": {
						"codeDepositCost": "193400",
						"executionCost": "24480",
						"totalCost": "217880"
					},
					"external": {
						"balance()": "317",
						"sendd(address,uint256)": "infinite"
					}
				},
				"methodIdentifiers": {
					"balance()": "b69ef8a8",
					"sendd(address,uint256)": "d7781801"
				}
			},
			"storageLayout": {
				"storage": [
					{
						"astId": 119,
						"contract": "remix ide/PROJECT/MARK-1.sol:receive_ether",
						"label": "owner_contract",
						"offset": 0,
						"slot": "0",
						"type": "t_address"
					}
				],
				"types": {
					"t_address": {
						"encoding": "inplace",
						"label": "address",
						"numberOfBytes": "20"
					}
				}
			},
			"userdoc": {
				"kind": "user",
				"methods": {},
				"version": 1
			}
		}
	}
}