{
	"remix ide/PROJECT/MARK-1.sol": {
		"send_ether": {
			"abi": [
				{
					"inputs": [],
					"stateMutability": "payable",
					"type": "constructor"
				},
				{
					"anonymous": false,
					"inputs": [
						{
							"indexed": false,
							"internalType": "address",
							"name": "",
							"type": "address"
						},
						{
							"indexed": false,
							"internalType": "uint256",
							"name": "",
							"type": "uint256"
						}
					],
					"name": "deposit",
					"type": "event"
				},
				{
					"anonymous": false,
					"inputs": [
						{
							"indexed": false,
							"internalType": "address",
							"name": "",
							"type": "address"
						},
						{
							"indexed": false,
							"internalType": "uint256",
							"name": "",
							"type": "uint256"
						}
					],
					"name": "withdraw",
					"type": "event"
				},
				{
					"inputs": [],
					"name": "balance",
					"outputs": [
						{
							"internalType": "uint256",
							"name": "",
							"type": "uint256"
						}
					],
					"stateMutability": "view",
					"type": "function"
				},
				{
					"inputs": [],
					"name": "result",
					"outputs": [
						{
							"internalType": "enum send_ether.results",
							"name": "",
							"type": "uint8"
						}
					],
					"stateMutability": "view",
					"type": "function"
				},
				{
					"inputs": [
						{
							"internalType": "address payable",
							"name": "_add",
							"type": "address"
						},
						{
							"internalType": "uint256",
							"name": "amount",
							"type": "uint256"
						}
					],
					"name": "sendd",
					"outputs": [],
					"stateMutability": "payable",
					"type": "function"
				},
				{
					"inputs": [
						{
							"internalType": "address",
							"name": "_address",
							"type": "address"
						},
						{
							"internalType": "uint256",
							"name": "_amount",
							"type": "uint256"
						}
					],
					"name": "withraw",
					"outputs": [],
					"stateMutability": "nonpayable",
					"type": "function"
				},
				{
					"stateMutability": "payable",
					"type": "receive"
				}
			],
			"devdoc": {
				"kind": "dev",
				"methods": {},
				"version": 1
			},
			"evm": {
				"assembly": "    /* \"remix ide/PROJECT/MARK-1.sol\":56:1108  contract send_ether{... */\n  mstore(0x40, 0x80)\n    /* \"remix ide/PROJECT/MARK-1.sol\":529:539  msg.sender */\n  caller\n    /* \"remix ide/PROJECT/MARK-1.sol\":514:528  owner_contract */\n  0x00\n  dup1\n    /* \"remix ide/PROJECT/MARK-1.sol\":514:539  owner_contract=msg.sender */\n  0x0100\n  exp\n  dup2\n  sload\n  dup2\n  0xffffffffffffffffffffffffffffffffffffffff\n  mul\n  not\n  and\n  swap1\n  dup4\n  0xffffffffffffffffffffffffffffffffffffffff\n  and\n  mul\n  or\n  swap1\n  sstore\n  pop\n    /* \"remix ide/PROJECT/MARK-1.sol\":56:1108  contract send_ether{... */\n  dataSize(sub_0)\n  dup1\n  dataOffset(sub_0)\n  0x00\n  codecopy\n  0x00\n  return\nstop\n\nsub_0: assembly {\n        /* \"remix ide/PROJECT/MARK-1.sol\":56:1108  contract send_ether{... */\n      mstore(0x40, 0x80)\n      jumpi(tag_1, lt(calldatasize, 0x04))\n      shr(0xe0, calldataload(0x00))\n      dup1\n      0x65372147\n      eq\n      tag_3\n      jumpi\n      dup1\n      0xb69ef8a8\n      eq\n      tag_4\n      jumpi\n      dup1\n      0xd7781801\n      eq\n      tag_5\n      jumpi\n      dup1\n      0xe1af091e\n      eq\n      tag_6\n      jumpi\n      jump(tag_2)\n    tag_1:\n      jumpi(tag_2, calldatasize)\n        /* \"remix ide/PROJECT/MARK-1.sol\":390:419  deposit(msg.sender,msg.value) */\n      0x47e7ef24b3022e382e65b1298581281f0ae273ac4f76464efcf5b06769264f2f\n        /* \"remix ide/PROJECT/MARK-1.sol\":398:408  msg.sender */\n      caller\n        /* \"remix ide/PROJECT/MARK-1.sol\":409:418  msg.value */\n      callvalue\n        /* \"remix ide/PROJECT/MARK-1.sol\":390:419  deposit(msg.sender,msg.value) */\n      mload(0x40)\n      tag_9\n      swap3\n      swap2\n      swap1\n      tag_10\n      jump\t// in\n    tag_9:\n      mload(0x40)\n      dup1\n      swap2\n      sub\n      swap1\n      log1\n        /* \"remix ide/PROJECT/MARK-1.sol\":437:461  results.amount_deposited */\n      0x00\n        /* \"remix ide/PROJECT/MARK-1.sol\":430:436  result */\n      dup1\n      0x14\n        /* \"remix ide/PROJECT/MARK-1.sol\":430:461  result=results.amount_deposited */\n      0x0100\n      exp\n      dup2\n      sload\n      dup2\n      0xff\n      mul\n      not\n      and\n      swap1\n      dup4\n      0x02\n      dup2\n      gt\n      iszero\n      tag_11\n      jumpi\n      tag_12\n      tag_13\n      jump\t// in\n    tag_12:\n    tag_11:\n      mul\n      or\n      swap1\n      sstore\n      stop\n        /* \"remix ide/PROJECT/MARK-1.sol\":56:1108  contract send_ether{... */\n    tag_2:\n      0x00\n      dup1\n      revert\n        /* \"remix ide/PROJECT/MARK-1.sol\":294:315  results public result */\n    tag_3:\n      callvalue\n      dup1\n      iszero\n      tag_14\n      jumpi\n      0x00\n      dup1\n      revert\n    tag_14:\n      pop\n      tag_15\n      tag_16\n      jump\t// in\n    tag_15:\n      mload(0x40)\n      tag_17\n      swap2\n      swap1\n      tag_18\n      jump\t// in\n    tag_17:\n      mload(0x40)\n      dup1\n      swap2\n      sub\n      swap1\n      return\n        /* \"remix ide/PROJECT/MARK-1.sol\":1011:1105  function balance() external view returns(uint){... */\n    tag_4:\n      callvalue\n      dup1\n      iszero\n      tag_19\n      jumpi\n      0x00\n      dup1\n      revert\n    tag_19:\n      pop\n      tag_20\n      tag_21\n      jump\t// in\n    tag_20:\n      mload(0x40)\n      tag_22\n      swap2\n      swap1\n      tag_23\n      jump\t// in\n    tag_22:\n      mload(0x40)\n      dup1\n      swap2\n      sub\n      swap1\n      return\n        /* \"remix ide/PROJECT/MARK-1.sol\":728:1003  function sendd(address payable _add,uint amount) external payable ... */\n    tag_5:\n      tag_24\n      0x04\n      dup1\n      calldatasize\n      sub\n      dup2\n      add\n      swap1\n      tag_25\n      swap2\n      swap1\n      tag_26\n      jump\t// in\n    tag_25:\n      tag_27\n      jump\t// in\n    tag_24:\n      stop\n        /* \"remix ide/PROJECT/MARK-1.sol\":553:722  function withraw(address _address, uint _amount) public ... */\n    tag_6:\n      callvalue\n      dup1\n      iszero\n      tag_28\n      jumpi\n      0x00\n      dup1\n      revert\n    tag_28:\n      pop\n      tag_29\n      0x04\n      dup1\n      calldatasize\n      sub\n      dup2\n      add\n      swap1\n      tag_30\n      swap2\n      swap1\n      tag_31\n      jump\t// in\n    tag_30:\n      tag_32\n      jump\t// in\n    tag_29:\n      stop\n        /* \"remix ide/PROJECT/MARK-1.sol\":294:315  results public result */\n    tag_16:\n      0x00\n      0x14\n      swap1\n      sload\n      swap1\n      0x0100\n      exp\n      swap1\n      div\n      0xff\n      and\n      dup2\n      jump\t// out\n        /* \"remix ide/PROJECT/MARK-1.sol\":1011:1105  function balance() external view returns(uint){... */\n    tag_21:\n        /* \"remix ide/PROJECT/MARK-1.sol\":1052:1056  uint */\n      0x00\n        /* \"remix ide/PROJECT/MARK-1.sol\":1075:1096  address(this).balance */\n      selfbalance\n        /* \"remix ide/PROJECT/MARK-1.sol\":1068:1097  return(address(this).balance) */\n      swap1\n      pop\n        /* \"remix ide/PROJECT/MARK-1.sol\":1011:1105  function balance() external view returns(uint){... */\n      swap1\n      jump\t// out\n        /* \"remix ide/PROJECT/MARK-1.sol\":728:1003  function sendd(address payable _add,uint amount) external payable ... */\n    tag_27:\n        /* \"remix ide/PROJECT/MARK-1.sol\":844:845  1 */\n      0x01\n        /* \"remix ide/PROJECT/MARK-1.sol\":819:840  address(this).balance */\n      selfbalance\n        /* \"remix ide/PROJECT/MARK-1.sol\":819:845  address(this).balance >= 1 */\n      lt\n      iszero\n        /* \"remix ide/PROJECT/MARK-1.sol\":811:859  require(address(this).balance >= 1,\"no balance\") */\n      tag_35\n      jumpi\n      mload(0x40)\n      0x08c379a000000000000000000000000000000000000000000000000000000000\n      dup2\n      mstore\n      0x04\n      add\n      tag_36\n      swap1\n      tag_37\n      jump\t// in\n    tag_36:\n      mload(0x40)\n      dup1\n      swap2\n      sub\n      swap1\n      revert\n    tag_35:\n        /* \"remix ide/PROJECT/MARK-1.sol\":890:904  owner_contract */\n      0x00\n      dup1\n      sload\n      swap1\n      0x0100\n      exp\n      swap1\n      div\n      0xffffffffffffffffffffffffffffffffffffffff\n      and\n        /* \"remix ide/PROJECT/MARK-1.sol\":878:904  msg.sender==owner_contract */\n      0xffffffffffffffffffffffffffffffffffffffff\n      and\n        /* \"remix ide/PROJECT/MARK-1.sol\":878:888  msg.sender */\n      caller\n        /* \"remix ide/PROJECT/MARK-1.sol\":878:904  msg.sender==owner_contract */\n      0xffffffffffffffffffffffffffffffffffffffff\n      and\n      eq\n        /* \"remix ide/PROJECT/MARK-1.sol\":870:917  require(msg.sender==owner_contract,\"not owner\") */\n      tag_38\n      jumpi\n      mload(0x40)\n      0x08c379a000000000000000000000000000000000000000000000000000000000\n      dup2\n      mstore\n      0x04\n      add\n      tag_39\n      swap1\n      tag_40\n      jump\t// in\n    tag_39:\n      mload(0x40)\n      dup1\n      swap2\n      sub\n      swap1\n      revert\n    tag_38:\n        /* \"remix ide/PROJECT/MARK-1.sol\":928:932  _add */\n      dup2\n        /* \"remix ide/PROJECT/MARK-1.sol\":928:941  _add.transfer */\n      0xffffffffffffffffffffffffffffffffffffffff\n      and\n        /* \"remix ide/PROJECT/MARK-1.sol\":928:949  _add.transfer(amount) */\n      0x08fc\n        /* \"remix ide/PROJECT/MARK-1.sol\":942:948  amount */\n      dup3\n        /* \"remix ide/PROJECT/MARK-1.sol\":928:949  _add.transfer(amount) */\n      swap1\n      dup2\n      iszero\n      mul\n      swap1\n      mload(0x40)\n      0x00\n      mload(0x40)\n      dup1\n      dup4\n      sub\n      dup2\n      dup6\n      dup9\n      dup9\n      call\n      swap4\n      pop\n      pop\n      pop\n      pop\n      iszero\n      dup1\n      iszero\n      tag_42\n      jumpi\n      returndatasize\n      0x00\n      dup1\n      returndatacopy\n      revert(0x00, returndatasize)\n    tag_42:\n      pop\n        /* \"remix ide/PROJECT/MARK-1.sol\":967:986  results.amount_sent */\n      0x02\n        /* \"remix ide/PROJECT/MARK-1.sol\":960:966  result */\n      0x00\n      0x14\n        /* \"remix ide/PROJECT/MARK-1.sol\":960:986  result=results.amount_sent */\n      0x0100\n      exp\n      dup2\n      sload\n      dup2\n      0xff\n      mul\n      not\n      and\n      swap1\n      dup4\n      0x02\n      dup2\n      gt\n      iszero\n      tag_43\n      jumpi\n      tag_44\n      tag_13\n      jump\t// in\n    tag_44:\n    tag_43:\n      mul\n      or\n      swap1\n      sstore\n      pop\n        /* \"remix ide/PROJECT/MARK-1.sol\":728:1003  function sendd(address payable _add,uint amount) external payable ... */\n      pop\n      pop\n      jump\t// out\n        /* \"remix ide/PROJECT/MARK-1.sol\":553:722  function withraw(address _address, uint _amount) public ... */\n    tag_32:\n        /* \"remix ide/PROJECT/MARK-1.sol\":631:657  withdraw(_address,_amount) */\n      0xf3fef3a3f44f9c277339b67d54f015748bd8d6b77a985b0ab6e71126b018c34a\n        /* \"remix ide/PROJECT/MARK-1.sol\":640:648  _address */\n      dup3\n        /* \"remix ide/PROJECT/MARK-1.sol\":649:656  _amount */\n      dup3\n        /* \"remix ide/PROJECT/MARK-1.sol\":631:657  withdraw(_address,_amount) */\n      mload(0x40)\n      tag_46\n      swap3\n      swap2\n      swap1\n      tag_10\n      jump\t// in\n    tag_46:\n      mload(0x40)\n      dup1\n      swap2\n      sub\n      swap1\n      log1\n        /* \"remix ide/PROJECT/MARK-1.sol\":675:712  results.amount_successfully_withdrawl */\n      0x01\n        /* \"remix ide/PROJECT/MARK-1.sol\":668:674  result */\n      0x00\n      0x14\n        /* \"remix ide/PROJECT/MARK-1.sol\":668:712  result=results.amount_successfully_withdrawl */\n      0x0100\n      exp\n      dup2\n      sload\n      dup2\n      0xff\n      mul\n      not\n      and\n      swap1\n      dup4\n      0x02\n      dup2\n      gt\n      iszero\n      tag_47\n      jumpi\n      tag_48\n      tag_13\n      jump\t// in\n    tag_48:\n    tag_47:\n      mul\n      or\n      swap1\n      sstore\n      pop\n        /* \"remix ide/PROJECT/MARK-1.sol\":553:722  function withraw(address _address, uint _amount) public ... */\n      pop\n      pop\n      jump\t// out\n        /* \"#utility.yul\":7:133   */\n    tag_49:\n        /* \"#utility.yul\":44:51   */\n      0x00\n        /* \"#utility.yul\":84:126   */\n      0xffffffffffffffffffffffffffffffffffffffff\n        /* \"#utility.yul\":77:82   */\n      dup3\n        /* \"#utility.yul\":73:127   */\n      and\n        /* \"#utility.yul\":62:127   */\n      swap1\n      pop\n        /* \"#utility.yul\":7:133   */\n      swap2\n      swap1\n      pop\n      jump\t// out\n        /* \"#utility.yul\":139:235   */\n    tag_50:\n        /* \"#utility.yul\":176:183   */\n      0x00\n        /* \"#utility.yul\":205:229   */\n      tag_76\n        /* \"#utility.yul\":223:228   */\n      dup3\n        /* \"#utility.yul\":205:229   */\n      tag_49\n      jump\t// in\n    tag_76:\n        /* \"#utility.yul\":194:229   */\n      swap1\n      pop\n        /* \"#utility.yul\":139:235   */\n      swap2\n      swap1\n      pop\n      jump\t// out\n        /* \"#utility.yul\":241:359   */\n    tag_51:\n        /* \"#utility.yul\":328:352   */\n      tag_78\n        /* \"#utility.yul\":346:351   */\n      dup2\n        /* \"#utility.yul\":328:352   */\n      tag_50\n      jump\t// in\n    tag_78:\n        /* \"#utility.yul\":323:326   */\n      dup3\n        /* \"#utility.yul\":316:353   */\n      mstore\n        /* \"#utility.yul\":241:359   */\n      pop\n      pop\n      jump\t// out\n        /* \"#utility.yul\":365:442   */\n    tag_52:\n        /* \"#utility.yul\":402:409   */\n      0x00\n        /* \"#utility.yul\":431:436   */\n      dup2\n        /* \"#utility.yul\":420:436   */\n      swap1\n      pop\n        /* \"#utility.yul\":365:442   */\n      swap2\n      swap1\n      pop\n      jump\t// out\n        /* \"#utility.yul\":448:566   */\n    tag_53:\n        /* \"#utility.yul\":535:559   */\n      tag_81\n        /* \"#utility.yul\":553:558   */\n      dup2\n        /* \"#utility.yul\":535:559   */\n      tag_52\n      jump\t// in\n    tag_81:\n        /* \"#utility.yul\":530:533   */\n      dup3\n        /* \"#utility.yul\":523:560   */\n      mstore\n        /* \"#utility.yul\":448:566   */\n      pop\n      pop\n      jump\t// out\n        /* \"#utility.yul\":572:904   */\n    tag_10:\n        /* \"#utility.yul\":693:697   */\n      0x00\n        /* \"#utility.yul\":731:733   */\n      0x40\n        /* \"#utility.yul\":720:729   */\n      dup3\n        /* \"#utility.yul\":716:734   */\n      add\n        /* \"#utility.yul\":708:734   */\n      swap1\n      pop\n        /* \"#utility.yul\":744:815   */\n      tag_83\n        /* \"#utility.yul\":812:813   */\n      0x00\n        /* \"#utility.yul\":801:810   */\n      dup4\n        /* \"#utility.yul\":797:814   */\n      add\n        /* \"#utility.yul\":788:794   */\n      dup6\n        /* \"#utility.yul\":744:815   */\n      tag_51\n      jump\t// in\n    tag_83:\n        /* \"#utility.yul\":825:897   */\n      tag_84\n        /* \"#utility.yul\":893:895   */\n      0x20\n        /* \"#utility.yul\":882:891   */\n      dup4\n        /* \"#utility.yul\":878:896   */\n      add\n        /* \"#utility.yul\":869:875   */\n      dup5\n        /* \"#utility.yul\":825:897   */\n      tag_53\n      jump\t// in\n    tag_84:\n        /* \"#utility.yul\":572:904   */\n      swap4\n      swap3\n      pop\n      pop\n      pop\n      jump\t// out\n        /* \"#utility.yul\":910:1090   */\n    tag_13:\n        /* \"#utility.yul\":958:1035   */\n      0x4e487b7100000000000000000000000000000000000000000000000000000000\n        /* \"#utility.yul\":955:956   */\n      0x00\n        /* \"#utility.yul\":948:1036   */\n      mstore\n        /* \"#utility.yul\":1055:1059   */\n      0x21\n        /* \"#utility.yul\":1052:1053   */\n      0x04\n        /* \"#utility.yul\":1045:1060   */\n      mstore\n        /* \"#utility.yul\":1079:1083   */\n      0x24\n        /* \"#utility.yul\":1076:1077   */\n      0x00\n        /* \"#utility.yul\":1069:1084   */\n      revert\n        /* \"#utility.yul\":1096:1211   */\n    tag_54:\n        /* \"#utility.yul\":1179:1180   */\n      0x03\n        /* \"#utility.yul\":1172:1177   */\n      dup2\n        /* \"#utility.yul\":1169:1181   */\n      lt\n        /* \"#utility.yul\":1159:1205   */\n      tag_87\n      jumpi\n        /* \"#utility.yul\":1185:1203   */\n      tag_88\n      tag_13\n      jump\t// in\n    tag_88:\n        /* \"#utility.yul\":1159:1205   */\n    tag_87:\n        /* \"#utility.yul\":1096:1211   */\n      pop\n      jump\t// out\n        /* \"#utility.yul\":1217:1348   */\n    tag_55:\n        /* \"#utility.yul\":1264:1271   */\n      0x00\n        /* \"#utility.yul\":1293:1298   */\n      dup2\n        /* \"#utility.yul\":1282:1298   */\n      swap1\n      pop\n        /* \"#utility.yul\":1299:1342   */\n      tag_90\n        /* \"#utility.yul\":1336:1341   */\n      dup3\n        /* \"#utility.yul\":1299:1342   */\n      tag_54\n      jump\t// in\n    tag_90:\n        /* \"#utility.yul\":1217:1348   */\n      swap2\n      swap1\n      pop\n      jump\t// out\n        /* \"#utility.yul\":1354:1485   */\n    tag_56:\n        /* \"#utility.yul\":1412:1421   */\n      0x00\n        /* \"#utility.yul\":1445:1479   */\n      tag_92\n        /* \"#utility.yul\":1473:1478   */\n      dup3\n        /* \"#utility.yul\":1445:1479   */\n      tag_55\n      jump\t// in\n    tag_92:\n        /* \"#utility.yul\":1432:1479   */\n      swap1\n      pop\n        /* \"#utility.yul\":1354:1485   */\n      swap2\n      swap1\n      pop\n      jump\t// out\n        /* \"#utility.yul\":1491:1638   */\n    tag_57:\n        /* \"#utility.yul\":1586:1631   */\n      tag_94\n        /* \"#utility.yul\":1625:1630   */\n      dup2\n        /* \"#utility.yul\":1586:1631   */\n      tag_56\n      jump\t// in\n    tag_94:\n        /* \"#utility.yul\":1581:1584   */\n      dup3\n        /* \"#utility.yul\":1574:1632   */\n      mstore\n        /* \"#utility.yul\":1491:1638   */\n      pop\n      pop\n      jump\t// out\n        /* \"#utility.yul\":1644:1882   */\n    tag_18:\n        /* \"#utility.yul\":1745:1749   */\n      0x00\n        /* \"#utility.yul\":1783:1785   */\n      0x20\n        /* \"#utility.yul\":1772:1781   */\n      dup3\n        /* \"#utility.yul\":1768:1786   */\n      add\n        /* \"#utility.yul\":1760:1786   */\n      swap1\n      pop\n        /* \"#utility.yul\":1796:1875   */\n      tag_96\n        /* \"#utility.yul\":1872:1873   */\n      0x00\n        /* \"#utility.yul\":1861:1870   */\n      dup4\n        /* \"#utility.yul\":1857:1874   */\n      add\n        /* \"#utility.yul\":1848:1854   */\n      dup5\n        /* \"#utility.yul\":1796:1875   */\n      tag_57\n      jump\t// in\n    tag_96:\n        /* \"#utility.yul\":1644:1882   */\n      swap3\n      swap2\n      pop\n      pop\n      jump\t// out\n        /* \"#utility.yul\":1888:2110   */\n    tag_23:\n        /* \"#utility.yul\":1981:1985   */\n      0x00\n        /* \"#utility.yul\":2019:2021   */\n      0x20\n        /* \"#utility.yul\":2008:2017   */\n      dup3\n        /* \"#utility.yul\":2004:2022   */\n      add\n        /* \"#utility.yul\":1996:2022   */\n      swap1\n      pop\n        /* \"#utility.yul\":2032:2103   */\n      tag_98\n        /* \"#utility.yul\":2100:2101   */\n      0x00\n        /* \"#utility.yul\":2089:2098   */\n      dup4\n        /* \"#utility.yul\":2085:2102   */\n      add\n        /* \"#utility.yul\":2076:2082   */\n      dup5\n        /* \"#utility.yul\":2032:2103   */\n      tag_53\n      jump\t// in\n    tag_98:\n        /* \"#utility.yul\":1888:2110   */\n      swap3\n      swap2\n      pop\n      pop\n      jump\t// out\n        /* \"#utility.yul\":2197:2314   */\n    tag_59:\n        /* \"#utility.yul\":2306:2307   */\n      0x00\n        /* \"#utility.yul\":2303:2304   */\n      dup1\n        /* \"#utility.yul\":2296:2308   */\n      revert\n        /* \"#utility.yul\":2443:2547   */\n    tag_61:\n        /* \"#utility.yul\":2488:2495   */\n      0x00\n        /* \"#utility.yul\":2517:2541   */\n      tag_103\n        /* \"#utility.yul\":2535:2540   */\n      dup3\n        /* \"#utility.yul\":2517:2541   */\n      tag_49\n      jump\t// in\n    tag_103:\n        /* \"#utility.yul\":2506:2541   */\n      swap1\n      pop\n        /* \"#utility.yul\":2443:2547   */\n      swap2\n      swap1\n      pop\n      jump\t// out\n        /* \"#utility.yul\":2553:2691   */\n    tag_62:\n        /* \"#utility.yul\":2634:2666   */\n      tag_105\n        /* \"#utility.yul\":2660:2665   */\n      dup2\n        /* \"#utility.yul\":2634:2666   */\n      tag_61\n      jump\t// in\n    tag_105:\n        /* \"#utility.yul\":2627:2632   */\n      dup2\n        /* \"#utility.yul\":2624:2667   */\n      eq\n        /* \"#utility.yul\":2614:2685   */\n      tag_106\n      jumpi\n        /* \"#utility.yul\":2681:2682   */\n      0x00\n        /* \"#utility.yul\":2678:2679   */\n      dup1\n        /* \"#utility.yul\":2671:2683   */\n      revert\n        /* \"#utility.yul\":2614:2685   */\n    tag_106:\n        /* \"#utility.yul\":2553:2691   */\n      pop\n      jump\t// out\n        /* \"#utility.yul\":2697:2852   */\n    tag_63:\n        /* \"#utility.yul\":2751:2756   */\n      0x00\n        /* \"#utility.yul\":2789:2795   */\n      dup2\n        /* \"#utility.yul\":2776:2796   */\n      calldataload\n        /* \"#utility.yul\":2767:2796   */\n      swap1\n      pop\n        /* \"#utility.yul\":2805:2846   */\n      tag_108\n        /* \"#utility.yul\":2840:2845   */\n      dup2\n        /* \"#utility.yul\":2805:2846   */\n      tag_62\n      jump\t// in\n    tag_108:\n        /* \"#utility.yul\":2697:2852   */\n      swap3\n      swap2\n      pop\n      pop\n      jump\t// out\n        /* \"#utility.yul\":2858:2980   */\n    tag_64:\n        /* \"#utility.yul\":2931:2955   */\n      tag_110\n        /* \"#utility.yul\":2949:2954   */\n      dup2\n        /* \"#utility.yul\":2931:2955   */\n      tag_52\n      jump\t// in\n    tag_110:\n        /* \"#utility.yul\":2924:2929   */\n      dup2\n        /* \"#utility.yul\":2921:2956   */\n      eq\n        /* \"#utility.yul\":2911:2974   */\n      tag_111\n      jumpi\n        /* \"#utility.yul\":2970:2971   */\n      0x00\n        /* \"#utility.yul\":2967:2968   */\n      dup1\n        /* \"#utility.yul\":2960:2972   */\n      revert\n        /* \"#utility.yul\":2911:2974   */\n    tag_111:\n        /* \"#utility.yul\":2858:2980   */\n      pop\n      jump\t// out\n        /* \"#utility.yul\":2986:3125   */\n    tag_65:\n        /* \"#utility.yul\":3032:3037   */\n      0x00\n        /* \"#utility.yul\":3070:3076   */\n      dup2\n        /* \"#utility.yul\":3057:3077   */\n      calldataload\n        /* \"#utility.yul\":3048:3077   */\n      swap1\n      pop\n        /* \"#utility.yul\":3086:3119   */\n      tag_113\n        /* \"#utility.yul\":3113:3118   */\n      dup2\n        /* \"#utility.yul\":3086:3119   */\n      tag_64\n      jump\t// in\n    tag_113:\n        /* \"#utility.yul\":2986:3125   */\n      swap3\n      swap2\n      pop\n      pop\n      jump\t// out\n        /* \"#utility.yul\":3131:3621   */\n    tag_26:\n        /* \"#utility.yul\":3207:3213   */\n      0x00\n        /* \"#utility.yul\":3215:3221   */\n      dup1\n        /* \"#utility.yul\":3264:3266   */\n      0x40\n        /* \"#utility.yul\":3252:3261   */\n      dup4\n        /* \"#utility.yul\":3243:3250   */\n      dup6\n        /* \"#utility.yul\":3239:3262   */\n      sub\n        /* \"#utility.yul\":3235:3267   */\n      slt\n        /* \"#utility.yul\":3232:3351   */\n      iszero\n      tag_115\n      jumpi\n        /* \"#utility.yul\":3270:3349   */\n      tag_116\n      tag_59\n      jump\t// in\n    tag_116:\n        /* \"#utility.yul\":3232:3351   */\n    tag_115:\n        /* \"#utility.yul\":3390:3391   */\n      0x00\n        /* \"#utility.yul\":3415:3476   */\n      tag_117\n        /* \"#utility.yul\":3468:3475   */\n      dup6\n        /* \"#utility.yul\":3459:3465   */\n      dup3\n        /* \"#utility.yul\":3448:3457   */\n      dup7\n        /* \"#utility.yul\":3444:3466   */\n      add\n        /* \"#utility.yul\":3415:3476   */\n      tag_63\n      jump\t// in\n    tag_117:\n        /* \"#utility.yul\":3405:3476   */\n      swap3\n      pop\n        /* \"#utility.yul\":3361:3486   */\n      pop\n        /* \"#utility.yul\":3525:3527   */\n      0x20\n        /* \"#utility.yul\":3551:3604   */\n      tag_118\n        /* \"#utility.yul\":3596:3603   */\n      dup6\n        /* \"#utility.yul\":3587:3593   */\n      dup3\n        /* \"#utility.yul\":3576:3585   */\n      dup7\n        /* \"#utility.yul\":3572:3594   */\n      add\n        /* \"#utility.yul\":3551:3604   */\n      tag_65\n      jump\t// in\n    tag_118:\n        /* \"#utility.yul\":3541:3604   */\n      swap2\n      pop\n        /* \"#utility.yul\":3496:3614   */\n      pop\n        /* \"#utility.yul\":3131:3621   */\n      swap3\n      pop\n      swap3\n      swap1\n      pop\n      jump\t// out\n        /* \"#utility.yul\":3627:3749   */\n    tag_66:\n        /* \"#utility.yul\":3700:3724   */\n      tag_120\n        /* \"#utility.yul\":3718:3723   */\n      dup2\n        /* \"#utility.yul\":3700:3724   */\n      tag_50\n      jump\t// in\n    tag_120:\n        /* \"#utility.yul\":3693:3698   */\n      dup2\n        /* \"#utility.yul\":3690:3725   */\n      eq\n        /* \"#utility.yul\":3680:3743   */\n      tag_121\n      jumpi\n        /* \"#utility.yul\":3739:3740   */\n      0x00\n        /* \"#utility.yul\":3736:3737   */\n      dup1\n        /* \"#utility.yul\":3729:3741   */\n      revert\n        /* \"#utility.yul\":3680:3743   */\n    tag_121:\n        /* \"#utility.yul\":3627:3749   */\n      pop\n      jump\t// out\n        /* \"#utility.yul\":3755:3894   */\n    tag_67:\n        /* \"#utility.yul\":3801:3806   */\n      0x00\n        /* \"#utility.yul\":3839:3845   */\n      dup2\n        /* \"#utility.yul\":3826:3846   */\n      calldataload\n        /* \"#utility.yul\":3817:3846   */\n      swap1\n      pop\n        /* \"#utility.yul\":3855:3888   */\n      tag_123\n        /* \"#utility.yul\":3882:3887   */\n      dup2\n        /* \"#utility.yul\":3855:3888   */\n      tag_66\n      jump\t// in\n    tag_123:\n        /* \"#utility.yul\":3755:3894   */\n      swap3\n      swap2\n      pop\n      pop\n      jump\t// out\n        /* \"#utility.yul\":3900:4374   */\n    tag_31:\n        /* \"#utility.yul\":3968:3974   */\n      0x00\n        /* \"#utility.yul\":3976:3982   */\n      dup1\n        /* \"#utility.yul\":4025:4027   */\n      0x40\n        /* \"#utility.yul\":4013:4022   */\n      dup4\n        /* \"#utility.yul\":4004:4011   */\n      dup6\n        /* \"#utility.yul\":4000:4023   */\n      sub\n        /* \"#utility.yul\":3996:4028   */\n      slt\n        /* \"#utility.yul\":3993:4112   */\n      iszero\n      tag_125\n      jumpi\n        /* \"#utility.yul\":4031:4110   */\n      tag_126\n      tag_59\n      jump\t// in\n    tag_126:\n        /* \"#utility.yul\":3993:4112   */\n    tag_125:\n        /* \"#utility.yul\":4151:4152   */\n      0x00\n        /* \"#utility.yul\":4176:4229   */\n      tag_127\n        /* \"#utility.yul\":4221:4228   */\n      dup6\n        /* \"#utility.yul\":4212:4218   */\n      dup3\n        /* \"#utility.yul\":4201:4210   */\n      dup7\n        /* \"#utility.yul\":4197:4219   */\n      add\n        /* \"#utility.yul\":4176:4229   */\n      tag_67\n      jump\t// in\n    tag_127:\n        /* \"#utility.yul\":4166:4229   */\n      swap3\n      pop\n        /* \"#utility.yul\":4122:4239   */\n      pop\n        /* \"#utility.yul\":4278:4280   */\n      0x20\n        /* \"#utility.yul\":4304:4357   */\n      tag_128\n        /* \"#utility.yul\":4349:4356   */\n      dup6\n        /* \"#utility.yul\":4340:4346   */\n      dup3\n        /* \"#utility.yul\":4329:4338   */\n      dup7\n        /* \"#utility.yul\":4325:4347   */\n      add\n        /* \"#utility.yul\":4304:4357   */\n      tag_65\n      jump\t// in\n    tag_128:\n        /* \"#utility.yul\":4294:4357   */\n      swap2\n      pop\n        /* \"#utility.yul\":4249:4367   */\n      pop\n        /* \"#utility.yul\":3900:4374   */\n      swap3\n      pop\n      swap3\n      swap1\n      pop\n      jump\t// out\n        /* \"#utility.yul\":4380:4549   */\n    tag_68:\n        /* \"#utility.yul\":4464:4475   */\n      0x00\n        /* \"#utility.yul\":4498:4504   */\n      dup3\n        /* \"#utility.yul\":4493:4496   */\n      dup3\n        /* \"#utility.yul\":4486:4505   */\n      mstore\n        /* \"#utility.yul\":4538:4542   */\n      0x20\n        /* \"#utility.yul\":4533:4536   */\n      dup3\n        /* \"#utility.yul\":4529:4543   */\n      add\n        /* \"#utility.yul\":4514:4543   */\n      swap1\n      pop\n        /* \"#utility.yul\":4380:4549   */\n      swap3\n      swap2\n      pop\n      pop\n      jump\t// out\n        /* \"#utility.yul\":4555:4715   */\n    tag_69:\n        /* \"#utility.yul\":4695:4707   */\n      0x6e6f2062616c616e636500000000000000000000000000000000000000000000\n        /* \"#utility.yul\":4691:4692   */\n      0x00\n        /* \"#utility.yul\":4683:4689   */\n      dup3\n        /* \"#utility.yul\":4679:4693   */\n      add\n        /* \"#utility.yul\":4672:4708   */\n      mstore\n        /* \"#utility.yul\":4555:4715   */\n      pop\n      jump\t// out\n        /* \"#utility.yul\":4721:5087   */\n    tag_70:\n        /* \"#utility.yul\":4863:4866   */\n      0x00\n        /* \"#utility.yul\":4884:4951   */\n      tag_132\n        /* \"#utility.yul\":4948:4950   */\n      0x0a\n        /* \"#utility.yul\":4943:4946   */\n      dup4\n        /* \"#utility.yul\":4884:4951   */\n      tag_68\n      jump\t// in\n    tag_132:\n        /* \"#utility.yul\":4877:4951   */\n      swap2\n      pop\n        /* \"#utility.yul\":4960:5053   */\n      tag_133\n        /* \"#utility.yul\":5049:5052   */\n      dup3\n        /* \"#utility.yul\":4960:5053   */\n      tag_69\n      jump\t// in\n    tag_133:\n        /* \"#utility.yul\":5078:5080   */\n      0x20\n        /* \"#utility.yul\":5073:5076   */\n      dup3\n        /* \"#utility.yul\":5069:5081   */\n      add\n        /* \"#utility.yul\":5062:5081   */\n      swap1\n      pop\n        /* \"#utility.yul\":4721:5087   */\n      swap2\n      swap1\n      pop\n      jump\t// out\n        /* \"#utility.yul\":5093:5512   */\n    tag_37:\n        /* \"#utility.yul\":5259:5263   */\n      0x00\n        /* \"#utility.yul\":5297:5299   */\n      0x20\n        /* \"#utility.yul\":5286:5295   */\n      dup3\n        /* \"#utility.yul\":5282:5300   */\n      add\n        /* \"#utility.yul\":5274:5300   */\n      swap1\n      pop\n        /* \"#utility.yul\":5346:5355   */\n      dup2\n        /* \"#utility.yul\":5340:5344   */\n      dup2\n        /* \"#utility.yul\":5336:5356   */\n      sub\n        /* \"#utility.yul\":5332:5333   */\n      0x00\n        /* \"#utility.yul\":5321:5330   */\n      dup4\n        /* \"#utility.yul\":5317:5334   */\n      add\n        /* \"#utility.yul\":5310:5357   */\n      mstore\n        /* \"#utility.yul\":5374:5505   */\n      tag_135\n        /* \"#utility.yul\":5500:5504   */\n      dup2\n        /* \"#utility.yul\":5374:5505   */\n      tag_70\n      jump\t// in\n    tag_135:\n        /* \"#utility.yul\":5366:5505   */\n      swap1\n      pop\n        /* \"#utility.yul\":5093:5512   */\n      swap2\n      swap1\n      pop\n      jump\t// out\n        /* \"#utility.yul\":5518:5677   */\n    tag_71:\n        /* \"#utility.yul\":5658:5669   */\n      0x6e6f74206f776e65720000000000000000000000000000000000000000000000\n        /* \"#utility.yul\":5654:5655   */\n      0x00\n        /* \"#utility.yul\":5646:5652   */\n      dup3\n        /* \"#utility.yul\":5642:5656   */\n      add\n        /* \"#utility.yul\":5635:5670   */\n      mstore\n        /* \"#utility.yul\":5518:5677   */\n      pop\n      jump\t// out\n        /* \"#utility.yul\":5683:6048   */\n    tag_72:\n        /* \"#utility.yul\":5825:5828   */\n      0x00\n        /* \"#utility.yul\":5846:5912   */\n      tag_138\n        /* \"#utility.yul\":5910:5911   */\n      0x09\n        /* \"#utility.yul\":5905:5908   */\n      dup4\n        /* \"#utility.yul\":5846:5912   */\n      tag_68\n      jump\t// in\n    tag_138:\n        /* \"#utility.yul\":5839:5912   */\n      swap2\n      pop\n        /* \"#utility.yul\":5921:6014   */\n      tag_139\n        /* \"#utility.yul\":6010:6013   */\n      dup3\n        /* \"#utility.yul\":5921:6014   */\n      tag_71\n      jump\t// in\n    tag_139:\n        /* \"#utility.yul\":6039:6041   */\n      0x20\n        /* \"#utility.yul\":6034:6037   */\n      dup3\n        /* \"#utility.yul\":6030:6042   */\n      add\n        /* \"#utility.yul\":6023:6042   */\n      swap1\n      pop\n        /* \"#utility.yul\":5683:6048   */\n      swap2\n      swap1\n      pop\n      jump\t// out\n        /* \"#utility.yul\":6054:6473   */\n    tag_40:\n        /* \"#utility.yul\":6220:6224   */\n      0x00\n        /* \"#utility.yul\":6258:6260   */\n      0x20\n        /* \"#utility.yul\":6247:6256   */\n      dup3\n        /* \"#utility.yul\":6243:6261   */\n      add\n        /* \"#utility.yul\":6235:6261   */\n      swap1\n      pop\n        /* \"#utility.yul\":6307:6316   */\n      dup2\n        /* \"#utility.yul\":6301:6305   */\n      dup2\n        /* \"#utility.yul\":6297:6317   */\n      sub\n        /* \"#utility.yul\":6293:6294   */\n      0x00\n        /* \"#utility.yul\":6282:6291   */\n      dup4\n        /* \"#utility.yul\":6278:6295   */\n      add\n        /* \"#utility.yul\":6271:6318   */\n      mstore\n        /* \"#utility.yul\":6335:6466   */\n      tag_141\n        /* \"#utility.yul\":6461:6465   */\n      dup2\n        /* \"#utility.yul\":6335:6466   */\n      tag_72\n      jump\t// in\n    tag_141:\n        /* \"#utility.yul\":6327:6466   */\n      swap1\n      pop\n        /* \"#utility.yul\":6054:6473   */\n      swap2\n      swap1\n      pop\n      jump\t// out\n\n    auxdata: 0xa2646970667358221220c62e639fd7b8474049ff218f1174a7df72134b0d66d52359747c0b21110cb0b464736f6c63430008110033\n}\n",
				"bytecode": {
					"linkReferences": {},
					"object": "6080604052336000806101000a81548173ffffffffffffffffffffffffffffffffffffffff021916908373ffffffffffffffffffffffffffffffffffffffff160217905550610681806100536000396000f3fe6080604052600436106100435760003560e01c806365372147146100b1578063b69ef8a8146100dc578063d778180114610107578063e1af091e14610123576100ac565b366100ac577f47e7ef24b3022e382e65b1298581281f0ae273ac4f76464efcf5b06769264f2f3334604051610079929190610371565b60405180910390a160008060146101000a81548160ff021916908360028111156100a6576100a561039a565b5b02179055005b600080fd5b3480156100bd57600080fd5b506100c661014c565b6040516100d39190610411565b60405180910390f35b3480156100e857600080fd5b506100f161015f565b6040516100fe919061042c565b60405180910390f35b610121600480360381019061011c91906104b6565b610167565b005b34801561012f57600080fd5b5061014a60048036038101906101459190610522565b6102af565b005b600060149054906101000a900460ff1681565b600047905090565b60014710156101ab576040517f08c379a00000000000000000000000000000000000000000000000000000000081526004016101a2906105bf565b60405180910390fd5b60008054906101000a900473ffffffffffffffffffffffffffffffffffffffff1673ffffffffffffffffffffffffffffffffffffffff163373ffffffffffffffffffffffffffffffffffffffff1614610239576040517f08c379a00000000000000000000000000000000000000000000000000000000081526004016102309061062b565b60405180910390fd5b8173ffffffffffffffffffffffffffffffffffffffff166108fc829081150290604051600060405180830381858888f1935050505015801561027f573d6000803e3d6000fd5b506002600060146101000a81548160ff021916908360028111156102a6576102a561039a565b5b02179055505050565b7ff3fef3a3f44f9c277339b67d54f015748bd8d6b77a985b0ab6e71126b018c34a82826040516102e0929190610371565b60405180910390a16001600060146101000a81548160ff0219169083600281111561030e5761030d61039a565b5b02179055505050565b600073ffffffffffffffffffffffffffffffffffffffff82169050919050565b600061034282610317565b9050919050565b61035281610337565b82525050565b6000819050919050565b61036b81610358565b82525050565b60006040820190506103866000830185610349565b6103936020830184610362565b9392505050565b7f4e487b7100000000000000000000000000000000000000000000000000000000600052602160045260246000fd5b600381106103da576103d961039a565b5b50565b60008190506103eb826103c9565b919050565b60006103fb826103dd565b9050919050565b61040b816103f0565b82525050565b60006020820190506104266000830184610402565b92915050565b60006020820190506104416000830184610362565b92915050565b600080fd5b600061045782610317565b9050919050565b6104678161044c565b811461047257600080fd5b50565b6000813590506104848161045e565b92915050565b61049381610358565b811461049e57600080fd5b50565b6000813590506104b08161048a565b92915050565b600080604083850312156104cd576104cc610447565b5b60006104db85828601610475565b92505060206104ec858286016104a1565b9150509250929050565b6104ff81610337565b811461050a57600080fd5b50565b60008135905061051c816104f6565b92915050565b6000806040838503121561053957610538610447565b5b60006105478582860161050d565b9250506020610558858286016104a1565b9150509250929050565b600082825260208201905092915050565b7f6e6f2062616c616e636500000000000000000000000000000000000000000000600082015250565b60006105a9600a83610562565b91506105b482610573565b602082019050919050565b600060208201905081810360008301526105d88161059c565b9050919050565b7f6e6f74206f776e65720000000000000000000000000000000000000000000000600082015250565b6000610615600983610562565b9150610620826105df565b602082019050919050565b6000602082019050818103600083015261064481610608565b905091905056fea2646970667358221220c62e639fd7b8474049ff218f1174a7df72134b0d66d52359747c0b21110cb0b464736f6c63430008110033",
					"opcodes": "PUSH1 0x80 PUSH1 0x40 MSTORE CALLER PUSH1 0x0 DUP1 PUSH2 0x100 EXP DUP2 SLOAD DUP2 PUSH20 0xFFFFFFFFFFFFFFFFFFFFFFFFFFFFFFFFFFFFFFFF MUL NOT AND SWAP1 DUP4 PUSH20 0xFFFFFFFFFFFFFFFFFFFFFFFFFFFFFFFFFFFFFFFF AND MUL OR SWAP1 SSTORE POP PUSH2 0x681 DUP1 PUSH2 0x53 PUSH1 0x0 CODECOPY PUSH1 0x0 RETURN INVALID PUSH1 0x80 PUSH1 0x40 MSTORE PUSH1 0x4 CALLDATASIZE LT PUSH2 0x43 JUMPI PUSH1 0x0 CALLDATALOAD PUSH1 0xE0 SHR DUP1 PUSH4 0x65372147 EQ PUSH2 0xB1 JUMPI DUP1 PUSH4 0xB69EF8A8 EQ PUSH2 0xDC JUMPI DUP1 PUSH4 0xD7781801 EQ PUSH2 0x107 JUMPI DUP1 PUSH4 0xE1AF091E EQ PUSH2 0x123 JUMPI PUSH2 0xAC JUMP JUMPDEST CALLDATASIZE PUSH2 0xAC JUMPI PUSH32 0x47E7EF24B3022E382E65B1298581281F0AE273AC4F76464EFCF5B06769264F2F CALLER CALLVALUE PUSH1 0x40 MLOAD PUSH2 0x79 SWAP3 SWAP2 SWAP1 PUSH2 0x371 JUMP JUMPDEST PUSH1 0x40 MLOAD DUP1 SWAP2 SUB SWAP1 LOG1 PUSH1 0x0 DUP1 PUSH1 0x14 PUSH2 0x100 EXP DUP2 SLOAD DUP2 PUSH1 0xFF MUL NOT AND SWAP1 DUP4 PUSH1 0x2 DUP2 GT ISZERO PUSH2 0xA6 JUMPI PUSH2 0xA5 PUSH2 0x39A JUMP JUMPDEST JUMPDEST MUL OR SWAP1 SSTORE STOP JUMPDEST PUSH1 0x0 DUP1 REVERT JUMPDEST CALLVALUE DUP1 ISZERO PUSH2 0xBD JUMPI PUSH1 0x0 DUP1 REVERT JUMPDEST POP PUSH2 0xC6 PUSH2 0x14C JUMP JUMPDEST PUSH1 0x40 MLOAD PUSH2 0xD3 SWAP2 SWAP1 PUSH2 0x411 JUMP JUMPDEST PUSH1 0x40 MLOAD DUP1 SWAP2 SUB SWAP1 RETURN JUMPDEST CALLVALUE DUP1 ISZERO PUSH2 0xE8 JUMPI PUSH1 0x0 DUP1 REVERT JUMPDEST POP PUSH2 0xF1 PUSH2 0x15F JUMP JUMPDEST PUSH1 0x40 MLOAD PUSH2 0xFE SWAP2 SWAP1 PUSH2 0x42C JUMP JUMPDEST PUSH1 0x40 MLOAD DUP1 SWAP2 SUB SWAP1 RETURN JUMPDEST PUSH2 0x121 PUSH1 0x4 DUP1 CALLDATASIZE SUB DUP2 ADD SWAP1 PUSH2 0x11C SWAP2 SWAP1 PUSH2 0x4B6 JUMP JUMPDEST PUSH2 0x167 JUMP JUMPDEST STOP JUMPDEST CALLVALUE DUP1 ISZERO PUSH2 0x12F JUMPI PUSH1 0x0 DUP1 REVERT JUMPDEST POP PUSH2 0x14A PUSH1 0x4 DUP1 CALLDATASIZE SUB DUP2 ADD SWAP1 PUSH2 0x145 SWAP2 SWAP1 PUSH2 0x522 JUMP JUMPDEST PUSH2 0x2AF JUMP JUMPDEST STOP JUMPDEST PUSH1 0x0 PUSH1 0x14 SWAP1 SLOAD SWAP1 PUSH2 0x100 EXP SWAP1 DIV PUSH1 0xFF AND DUP2 JUMP JUMPDEST PUSH1 0x0 SELFBALANCE SWAP1 POP SWAP1 JUMP JUMPDEST PUSH1 0x1 SELFBALANCE LT ISZERO PUSH2 0x1AB JUMPI PUSH1 0x40 MLOAD PUSH32 0x8C379A000000000000000000000000000000000000000000000000000000000 DUP2 MSTORE PUSH1 0x4 ADD PUSH2 0x1A2 SWAP1 PUSH2 0x5BF JUMP JUMPDEST PUSH1 0x40 MLOAD DUP1 SWAP2 SUB SWAP1 REVERT JUMPDEST PUSH1 0x0 DUP1 SLOAD SWAP1 PUSH2 0x100 EXP SWAP1 DIV PUSH20 0xFFFFFFFFFFFFFFFFFFFFFFFFFFFFFFFFFFFFFFFF AND PUSH20 0xFFFFFFFFFFFFFFFFFFFFFFFFFFFFFFFFFFFFFFFF AND CALLER PUSH20 0xFFFFFFFFFFFFFFFFFFFFFFFFFFFFFFFFFFFFFFFF AND EQ PUSH2 0x239 JUMPI PUSH1 0x40 MLOAD PUSH32 0x8C379A000000000000000000000000000000000000000000000000000000000 DUP2 MSTORE PUSH1 0x4 ADD PUSH2 0x230 SWAP1 PUSH2 0x62B JUMP JUMPDEST PUSH1 0x40 MLOAD DUP1 SWAP2 SUB SWAP1 REVERT JUMPDEST DUP2 PUSH20 0xFFFFFFFFFFFFFFFFFFFFFFFFFFFFFFFFFFFFFFFF AND PUSH2 0x8FC DUP3 SWAP1 DUP2 ISZERO MUL SWAP1 PUSH1 0x40 MLOAD PUSH1 0x0 PUSH1 0x40 MLOAD DUP1 DUP4 SUB DUP2 DUP6 DUP9 DUP9 CALL SWAP4 POP POP POP POP ISZERO DUP1 ISZERO PUSH2 0x27F JUMPI RETURNDATASIZE PUSH1 0x0 DUP1 RETURNDATACOPY RETURNDATASIZE PUSH1 0x0 REVERT JUMPDEST POP PUSH1 0x2 PUSH1 0x0 PUSH1 0x14 PUSH2 0x100 EXP DUP2 SLOAD DUP2 PUSH1 0xFF MUL NOT AND SWAP1 DUP4 PUSH1 0x2 DUP2 GT ISZERO PUSH2 0x2A6 JUMPI PUSH2 0x2A5 PUSH2 0x39A JUMP JUMPDEST JUMPDEST MUL OR SWAP1 SSTORE POP POP POP JUMP JUMPDEST PUSH32 0xF3FEF3A3F44F9C277339B67D54F015748BD8D6B77A985B0AB6E71126B018C34A DUP3 DUP3 PUSH1 0x40 MLOAD PUSH2 0x2E0 SWAP3 SWAP2 SWAP1 PUSH2 0x371 JUMP JUMPDEST PUSH1 0x40 MLOAD DUP1 SWAP2 SUB SWAP1 LOG1 PUSH1 0x1 PUSH1 0x0 PUSH1 0x14 PUSH2 0x100 EXP DUP2 SLOAD DUP2 PUSH1 0xFF MUL NOT AND SWAP1 DUP4 PUSH1 0x2 DUP2 GT ISZERO PUSH2 0x30E JUMPI PUSH2 0x30D PUSH2 0x39A JUMP JUMPDEST JUMPDEST MUL OR SWAP1 SSTORE POP POP POP JUMP JUMPDEST PUSH1 0x0 PUSH20 0xFFFFFFFFFFFFFFFFFFFFFFFFFFFFFFFFFFFFFFFF DUP3 AND SWAP1 POP SWAP2 SWAP1 POP JUMP JUMPDEST PUSH1 0x0 PUSH2 0x342 DUP3 PUSH2 0x317 JUMP JUMPDEST SWAP1 POP SWAP2 SWAP1 POP JUMP JUMPDEST PUSH2 0x352 DUP2 PUSH2 0x337 JUMP JUMPDEST DUP3 MSTORE POP POP JUMP JUMPDEST PUSH1 0x0 DUP2 SWAP1 POP SWAP2 SWAP1 POP JUMP JUMPDEST PUSH2 0x36B DUP2 PUSH2 0x358 JUMP JUMPDEST DUP3 MSTORE POP POP JUMP JUMPDEST PUSH1 0x0 PUSH1 0x40 DUP3 ADD SWAP1 POP PUSH2 0x386 PUSH1 0x0 DUP4 ADD DUP6 PUSH2 0x349 JUMP JUMPDEST PUSH2 0x393 PUSH1 0x20 DUP4 ADD DUP5 PUSH2 0x362 JUMP JUMPDEST SWAP4 SWAP3 POP POP POP JUMP JUMPDEST PUSH32 0x4E487B7100000000000000000000000000000000000000000000000000000000 PUSH1 0x0 MSTORE PUSH1 0x21 PUSH1 0x4 MSTORE PUSH1 0x24 PUSH1 0x0 REVERT JUMPDEST PUSH1 0x3 DUP2 LT PUSH2 0x3DA JUMPI PUSH2 0x3D9 PUSH2 0x39A JUMP JUMPDEST JUMPDEST POP JUMP JUMPDEST PUSH1 0x0 DUP2 SWAP1 POP PUSH2 0x3EB DUP3 PUSH2 0x3C9 JUMP JUMPDEST SWAP2 SWAP1 POP JUMP JUMPDEST PUSH1 0x0 PUSH2 0x3FB DUP3 PUSH2 0x3DD JUMP JUMPDEST SWAP1 POP SWAP2 SWAP1 POP JUMP JUMPDEST PUSH2 0x40B DUP2 PUSH2 0x3F0 JUMP JUMPDEST DUP3 MSTORE POP POP JUMP JUMPDEST PUSH1 0x0 PUSH1 0x20 DUP3 ADD SWAP1 POP PUSH2 0x426 PUSH1 0x0 DUP4 ADD DUP5 PUSH2 0x402 JUMP JUMPDEST SWAP3 SWAP2 POP POP JUMP JUMPDEST PUSH1 0x0 PUSH1 0x20 DUP3 ADD SWAP1 POP PUSH2 0x441 PUSH1 0x0 DUP4 ADD DUP5 PUSH2 0x362 JUMP JUMPDEST SWAP3 SWAP2 POP POP JUMP JUMPDEST PUSH1 0x0 DUP1 REVERT JUMPDEST PUSH1 0x0 PUSH2 0x457 DUP3 PUSH2 0x317 JUMP JUMPDEST SWAP1 POP SWAP2 SWAP1 POP JUMP JUMPDEST PUSH2 0x467 DUP2 PUSH2 0x44C JUMP JUMPDEST DUP2 EQ PUSH2 0x472 JUMPI PUSH1 0x0 DUP1 REVERT JUMPDEST POP JUMP JUMPDEST PUSH1 0x0 DUP2 CALLDATALOAD SWAP1 POP PUSH2 0x484 DUP2 PUSH2 0x45E JUMP JUMPDEST SWAP3 SWAP2 POP POP JUMP JUMPDEST PUSH2 0x493 DUP2 PUSH2 0x358 JUMP JUMPDEST DUP2 EQ PUSH2 0x49E JUMPI PUSH1 0x0 DUP1 REVERT JUMPDEST POP JUMP JUMPDEST PUSH1 0x0 DUP2 CALLDATALOAD SWAP1 POP PUSH2 0x4B0 DUP2 PUSH2 0x48A JUMP JUMPDEST SWAP3 SWAP2 POP POP JUMP JUMPDEST PUSH1 0x0 DUP1 PUSH1 0x40 DUP4 DUP6 SUB SLT ISZERO PUSH2 0x4CD JUMPI PUSH2 0x4CC PUSH2 0x447 JUMP JUMPDEST JUMPDEST PUSH1 0x0 PUSH2 0x4DB DUP6 DUP3 DUP7 ADD PUSH2 0x475 JUMP JUMPDEST SWAP3 POP POP PUSH1 0x20 PUSH2 0x4EC DUP6 DUP3 DUP7 ADD PUSH2 0x4A1 JUMP JUMPDEST SWAP2 POP POP SWAP3 POP SWAP3 SWAP1 POP JUMP JUMPDEST PUSH2 0x4FF DUP2 PUSH2 0x337 JUMP JUMPDEST DUP2 EQ PUSH2 0x50A JUMPI PUSH1 0x0 DUP1 REVERT JUMPDEST POP JUMP JUMPDEST PUSH1 0x0 DUP2 CALLDATALOAD SWAP1 POP PUSH2 0x51C DUP2 PUSH2 0x4F6 JUMP JUMPDEST SWAP3 SWAP2 POP POP JUMP JUMPDEST PUSH1 0x0 DUP1 PUSH1 0x40 DUP4 DUP6 SUB SLT ISZERO PUSH2 0x539 JUMPI PUSH2 0x538 PUSH2 0x447 JUMP JUMPDEST JUMPDEST PUSH1 0x0 PUSH2 0x547 DUP6 DUP3 DUP7 ADD PUSH2 0x50D JUMP JUMPDEST SWAP3 POP POP PUSH1 0x20 PUSH2 0x558 DUP6 DUP3 DUP7 ADD PUSH2 0x4A1 JUMP JUMPDEST SWAP2 POP POP SWAP3 POP SWAP3 SWAP1 POP JUMP JUMPDEST PUSH1 0x0 DUP3 DUP3 MSTORE PUSH1 0x20 DUP3 ADD SWAP1 POP SWAP3 SWAP2 POP POP JUMP JUMPDEST PUSH32 0x6E6F2062616C616E636500000000000000000000000000000000000000000000 PUSH1 0x0 DUP3 ADD MSTORE POP JUMP JUMPDEST PUSH1 0x0 PUSH2 0x5A9 PUSH1 0xA DUP4 PUSH2 0x562 JUMP JUMPDEST SWAP2 POP PUSH2 0x5B4 DUP3 PUSH2 0x573 JUMP JUMPDEST PUSH1 0x20 DUP3 ADD SWAP1 POP SWAP2 SWAP1 POP JUMP JUMPDEST PUSH1 0x0 PUSH1 0x20 DUP3 ADD SWAP1 POP DUP2 DUP2 SUB PUSH1 0x0 DUP4 ADD MSTORE PUSH2 0x5D8 DUP2 PUSH2 0x59C JUMP JUMPDEST SWAP1 POP SWAP2 SWAP1 POP JUMP JUMPDEST PUSH32 0x6E6F74206F776E65720000000000000000000000000000000000000000000000 PUSH1 0x0 DUP3 ADD MSTORE POP JUMP JUMPDEST PUSH1 0x0 PUSH2 0x615 PUSH1 0x9 DUP4 PUSH2 0x562 JUMP JUMPDEST SWAP2 POP PUSH2 0x620 DUP3 PUSH2 0x5DF JUMP JUMPDEST PUSH1 0x20 DUP3 ADD SWAP1 POP SWAP2 SWAP1 POP JUMP JUMPDEST PUSH1 0x0 PUSH1 0x20 DUP3 ADD SWAP1 POP DUP2 DUP2 SUB PUSH1 0x0 DUP4 ADD MSTORE PUSH2 0x644 DUP2 PUSH2 0x608 JUMP JUMPDEST SWAP1 POP SWAP2 SWAP1 POP JUMP INVALID LOG2 PUSH5 0x6970667358 0x22 SLT KECCAK256 0xC6 0x2E PUSH4 0x9FD7B847 BLOCKHASH 0x49 SELFDESTRUCT 0x21 DUP16 GT PUSH21 0xA7DF72134B0D66D52359747C0B21110CB0B464736F PUSH13 0x63430008110033000000000000 "
				},
				"gasEstimates": {
					"creation": {
						"codeDepositCost": "333000",
						"executionCost": "24616",
						"totalCost": "357616"
					},
					"external": {
						"balance()": "339",
						"result()": "2588",
						"sendd(address,uint256)": "infinite",
						"withraw(address,uint256)": "infinite"
					}
				},
				"methodIdentifiers": {
					"balance()": "b69ef8a8",
					"result()": "65372147",
					"sendd(address,uint256)": "d7781801",
					"withraw(address,uint256)": "e1af091e"
				}
			},
			"storageLayout": {
				"storage": [
					{
						"astId": 15,
						"contract": "remix ide/PROJECT/MARK-1.sol:send_ether",
						"label": "owner_contract",
						"offset": 0,
						"slot": "0",
						"type": "t_address"
					},
					{
						"astId": 22,
						"contract": "remix ide/PROJECT/MARK-1.sol:send_ether",
						"label": "result",
						"offset": 20,
						"slot": "0",
						"type": "t_enum(results)19"
					}
				],
				"types": {
					"t_address": {
						"encoding": "inplace",
						"label": "address",
						"numberOfBytes": "20"
					},
					"t_enum(results)19": {
						"encoding": "inplace",
						"label": "enum send_ether.results",
						"numberOfBytes": "1"
					}
				}
			},
			"userdoc": {
				"kind": "user",
				"methods": {},
				"version": 1
			}
		}
	}
}