{
	"remix_ide/PROJECT/mm.sol": {
		"mehann": {
			"abi": [
				{
					"inputs": [],
					"stateMutability": "nonpayable",
					"type": "constructor"
				},
				{
					"inputs": [],
					"name": "mee",
					"outputs": [
						{
							"internalType": "uint256",
							"name": "",
							"type": "uint256"
						}
					],
					"stateMutability": "view",
					"type": "function"
				},
				{
					"inputs": [],
					"name": "meeeeee",
					"outputs": [
						{
							"internalType": "uint256",
							"name": "",
							"type": "uint256"
						}
					],
					"stateMutability": "view",
					"type": "function"
				}
			],
			"devdoc": {
				"kind": "dev",
				"methods": {},
				"version": 1
			},
			"evm": {
				"assembly": "    /* \"remix_ide/PROJECT/mm.sol\":56:370  contract mehann{... */\n  mstore(0x40, 0x80)\n    /* \"remix_ide/PROJECT/mm.sol\":93:108  block.timestamp */\n  timestamp\n    /* \"remix_ide/PROJECT/mm.sol\":79:108  uint  current=block.timestamp */\n  0x00\n  sstore\n    /* \"remix_ide/PROJECT/mm.sol\":131:186  constructor(){... */\n  callvalue\n  dup1\n  iszero\n  tag_1\n  jumpi\n  0x00\n  dup1\n  revert\ntag_1:\n  pop\n    /* \"remix_ide/PROJECT/mm.sol\":162:177  block.timestamp */\n  timestamp\n    /* \"remix_ide/PROJECT/mm.sol\":159:161  cu */\n  0x01\n    /* \"remix_ide/PROJECT/mm.sol\":159:177  cu=block.timestamp */\n  dup2\n  swap1\n  sstore\n  pop\n    /* \"remix_ide/PROJECT/mm.sol\":56:370  contract mehann{... */\n  dataSize(sub_0)\n  dup1\n  dataOffset(sub_0)\n  0x00\n  codecopy\n  0x00\n  return\nstop\n\nsub_0: assembly {\n        /* \"remix_ide/PROJECT/mm.sol\":56:370  contract mehann{... */\n      mstore(0x40, 0x80)\n      callvalue\n      dup1\n      iszero\n      tag_1\n      jumpi\n      0x00\n      dup1\n      revert\n    tag_1:\n      pop\n      jumpi(tag_2, lt(calldatasize, 0x04))\n      shr(0xe0, calldataload(0x00))\n      dup1\n      0x6e728fc3\n      eq\n      tag_3\n      jumpi\n      dup1\n      0x78a1e698\n      eq\n      tag_4\n      jumpi\n    tag_2:\n      0x00\n      dup1\n      revert\n        /* \"remix_ide/PROJECT/mm.sol\":285:367  function meeeeee()  public view returns(uint)... */\n    tag_3:\n      tag_5\n      tag_6\n      jump\t// in\n    tag_5:\n      mload(0x40)\n      tag_7\n      swap2\n      swap1\n      tag_8\n      jump\t// in\n    tag_7:\n      mload(0x40)\n      dup1\n      swap2\n      sub\n      swap1\n      return\n        /* \"remix_ide/PROJECT/mm.sol\":193:276  function mee()  public view returns(uint)... */\n    tag_4:\n      tag_9\n      tag_10\n      jump\t// in\n    tag_9:\n      mload(0x40)\n      tag_11\n      swap2\n      swap1\n      tag_8\n      jump\t// in\n    tag_11:\n      mload(0x40)\n      dup1\n      swap2\n      sub\n      swap1\n      return\n        /* \"remix_ide/PROJECT/mm.sol\":285:367  function meeeeee()  public view returns(uint)... */\n    tag_6:\n        /* \"remix_ide/PROJECT/mm.sol\":325:329  uint */\n      0x00\n        /* \"remix_ide/PROJECT/mm.sol\":356:358  cu */\n      sload(0x01)\n        /* \"remix_ide/PROJECT/mm.sol\":349:358  return cu */\n      swap1\n      pop\n        /* \"remix_ide/PROJECT/mm.sol\":285:367  function meeeeee()  public view returns(uint)... */\n      swap1\n      jump\t// out\n        /* \"remix_ide/PROJECT/mm.sol\":193:276  function mee()  public view returns(uint)... */\n    tag_10:\n        /* \"remix_ide/PROJECT/mm.sol\":229:233  uint */\n      0x00\n        /* \"remix_ide/PROJECT/mm.sol\":260:267  current */\n      dup1\n      sload\n        /* \"remix_ide/PROJECT/mm.sol\":253:267  return current */\n      swap1\n      pop\n        /* \"remix_ide/PROJECT/mm.sol\":193:276  function mee()  public view returns(uint)... */\n      swap1\n      jump\t// out\n        /* \"#utility.yul\":7:84   */\n    tag_14:\n        /* \"#utility.yul\":44:51   */\n      0x00\n        /* \"#utility.yul\":73:78   */\n      dup2\n        /* \"#utility.yul\":62:78   */\n      swap1\n      pop\n        /* \"#utility.yul\":7:84   */\n      swap2\n      swap1\n      pop\n      jump\t// out\n        /* \"#utility.yul\":90:208   */\n    tag_15:\n        /* \"#utility.yul\":177:201   */\n      tag_19\n        /* \"#utility.yul\":195:200   */\n      dup2\n        /* \"#utility.yul\":177:201   */\n      tag_14\n      jump\t// in\n    tag_19:\n        /* \"#utility.yul\":172:175   */\n      dup3\n        /* \"#utility.yul\":165:202   */\n      mstore\n        /* \"#utility.yul\":90:208   */\n      pop\n      pop\n      jump\t// out\n        /* \"#utility.yul\":214:436   */\n    tag_8:\n        /* \"#utility.yul\":307:311   */\n      0x00\n        /* \"#utility.yul\":345:347   */\n      0x20\n        /* \"#utility.yul\":334:343   */\n      dup3\n        /* \"#utility.yul\":330:348   */\n      add\n        /* \"#utility.yul\":322:348   */\n      swap1\n      pop\n        /* \"#utility.yul\":358:429   */\n      tag_21\n        /* \"#utility.yul\":426:427   */\n      0x00\n        /* \"#utility.yul\":415:424   */\n      dup4\n        /* \"#utility.yul\":411:428   */\n      add\n        /* \"#utility.yul\":402:408   */\n      dup5\n        /* \"#utility.yul\":358:429   */\n      tag_15\n      jump\t// in\n    tag_21:\n        /* \"#utility.yul\":214:436   */\n      swap3\n      swap2\n      pop\n      pop\n      jump\t// out\n\n    auxdata: 0xa26469706673582212201fb4c010b95d5006837d44e7c2aba1dd4577ada8d0a19334bbe5bec23e17d3af64736f6c63430008110033\n}\n",
				"bytecode": {
					"linkReferences": {},
					"object": "60806040524260005534801561001457600080fd5b504260018190555060e48061002a6000396000f3fe6080604052348015600f57600080fd5b506004361060325760003560e01c80636e728fc314603757806378a1e698146051575b600080fd5b603d606b565b604051604891906095565b60405180910390f35b60576075565b604051606291906095565b60405180910390f35b6000600154905090565b60008054905090565b6000819050919050565b608f81607e565b82525050565b600060208201905060a860008301846088565b9291505056fea26469706673582212201fb4c010b95d5006837d44e7c2aba1dd4577ada8d0a19334bbe5bec23e17d3af64736f6c63430008110033",
					"opcodes": "PUSH1 0x80 PUSH1 0x40 MSTORE TIMESTAMP PUSH1 0x0 SSTORE CALLVALUE DUP1 ISZERO PUSH2 0x14 JUMPI PUSH1 0x0 DUP1 REVERT JUMPDEST POP TIMESTAMP PUSH1 0x1 DUP2 SWAP1 SSTORE POP PUSH1 0xE4 DUP1 PUSH2 0x2A PUSH1 0x0 CODECOPY PUSH1 0x0 RETURN INVALID PUSH1 0x80 PUSH1 0x40 MSTORE CALLVALUE DUP1 ISZERO PUSH1 0xF JUMPI PUSH1 0x0 DUP1 REVERT JUMPDEST POP PUSH1 0x4 CALLDATASIZE LT PUSH1 0x32 JUMPI PUSH1 0x0 CALLDATALOAD PUSH1 0xE0 SHR DUP1 PUSH4 0x6E728FC3 EQ PUSH1 0x37 JUMPI DUP1 PUSH4 0x78A1E698 EQ PUSH1 0x51 JUMPI JUMPDEST PUSH1 0x0 DUP1 REVERT JUMPDEST PUSH1 0x3D PUSH1 0x6B JUMP JUMPDEST PUSH1 0x40 MLOAD PUSH1 0x48 SWAP2 SWAP1 PUSH1 0x95 JUMP JUMPDEST PUSH1 0x40 MLOAD DUP1 SWAP2 SUB SWAP1 RETURN JUMPDEST PUSH1 0x57 PUSH1 0x75 JUMP JUMPDEST PUSH1 0x40 MLOAD PUSH1 0x62 SWAP2 SWAP1 PUSH1 0x95 JUMP JUMPDEST PUSH1 0x40 MLOAD DUP1 SWAP2 SUB SWAP1 RETURN JUMPDEST PUSH1 0x0 PUSH1 0x1 SLOAD SWAP1 POP SWAP1 JUMP JUMPDEST PUSH1 0x0 DUP1 SLOAD SWAP1 POP SWAP1 JUMP JUMPDEST PUSH1 0x0 DUP2 SWAP1 POP SWAP2 SWAP1 POP JUMP JUMPDEST PUSH1 0x8F DUP2 PUSH1 0x7E JUMP JUMPDEST DUP3 MSTORE POP POP JUMP JUMPDEST PUSH1 0x0 PUSH1 0x20 DUP3 ADD SWAP1 POP PUSH1 0xA8 PUSH1 0x0 DUP4 ADD DUP5 PUSH1 0x88 JUMP JUMPDEST SWAP3 SWAP2 POP POP JUMP INVALID LOG2 PUSH5 0x6970667358 0x22 SLT KECCAK256 0x1F 0xB4 0xC0 LT 0xB9 0x5D POP MOD DUP4 PUSH30 0x44E7C2ABA1DD4577ADA8D0A19334BBE5BEC23E17D3AF64736F6C63430008 GT STOP CALLER "
				},
				"gasEstimates": {
					"creation": {
						"codeDepositCost": "45600",
						"executionCost": "44317",
						"totalCost": "89917"
					},
					"external": {
						"mee()": "2437",
						"meeeeee()": "2415"
					}
				},
				"methodIdentifiers": {
					"mee()": "78a1e698",
					"meeeeee()": "6e728fc3"
				}
			},
			"storageLayout": {
				"storage": [
					{
						"astId": 5,
						"contract": "remix_ide/PROJECT/mm.sol:mehann",
						"label": "current",
						"offset": 0,
						"slot": "0",
						"type": "t_uint256"
					},
					{
						"astId": 7,
						"contract": "remix_ide/PROJECT/mm.sol:mehann",
						"label": "cu",
						"offset": 0,
						"slot": "1",
						"type": "t_uint256"
					}
				],
				"types": {
					"t_uint256": {
						"encoding": "inplace",
						"label": "uint256",
						"numberOfBytes": "32"
					}
				}
			},
			"userdoc": {
				"kind": "user",
				"methods": {},
				"version": 1
			}
		}
	}
}