{
	"remix ide/PROJECT/MARK-11.sol": {
		"send_ether": {
			"abi": [
				{
					"inputs": [],
					"stateMutability": "payable",
					"type": "constructor"
				},
				{
					"anonymous": false,
					"inputs": [
						{
							"indexed": false,
							"internalType": "uint256",
							"name": "value",
							"type": "uint256"
						}
					],
					"name": "dep",
					"type": "event"
				},
				{
					"anonymous": false,
					"inputs": [
						{
							"indexed": false,
							"internalType": "uint256",
							"name": "value",
							"type": "uint256"
						}
					],
					"name": "wit",
					"type": "event"
				},
				{
					"inputs": [
						{
							"internalType": "uint256",
							"name": "amount",
							"type": "uint256"
						}
					],
					"name": "Piggywith",
					"outputs": [],
					"stateMutability": "nonpayable",
					"type": "function"
				},
				{
					"inputs": [],
					"name": "balance",
					"outputs": [
						{
							"internalType": "uint256",
							"name": "",
							"type": "uint256"
						}
					],
					"stateMutability": "view",
					"type": "function"
				},
				{
					"inputs": [],
					"name": "res",
					"outputs": [
						{
							"internalType": "string",
							"name": "",
							"type": "string"
						}
					],
					"stateMutability": "view",
					"type": "function"
				},
				{
					"inputs": [
						{
							"internalType": "address payable",
							"name": "_add",
							"type": "address"
						},
						{
							"internalType": "uint256",
							"name": "amount",
							"type": "uint256"
						}
					],
					"name": "sendd",
					"outputs": [],
					"stateMutability": "payable",
					"type": "function"
				},
				{
					"stateMutability": "payable",
					"type": "receive"
				}
			],
			"devdoc": {
				"kind": "dev",
				"methods": {},
				"version": 1
			},
			"evm": {
				"assembly": "    /* \"remix ide/PROJECT/MARK-11.sol\":133:978  contract send_ether{    \r... */\n  mstore(0x40, 0x80)\n    /* \"remix ide/PROJECT/MARK-11.sol\":416:426  msg.sender */\n  caller\n    /* \"remix ide/PROJECT/MARK-11.sol\":401:415  owner_contract */\n  0x00\n  dup1\n    /* \"remix ide/PROJECT/MARK-11.sol\":401:426  owner_contract=msg.sender */\n  0x0100\n  exp\n  dup2\n  sload\n  dup2\n  0xffffffffffffffffffffffffffffffffffffffff\n  mul\n  not\n  and\n  swap1\n  dup4\n  0xffffffffffffffffffffffffffffffffffffffff\n  and\n  mul\n  or\n  swap1\n  sstore\n  pop\n    /* \"remix ide/PROJECT/MARK-11.sol\":133:978  contract send_ether{    \r... */\n  dataSize(sub_0)\n  dup1\n  dataOffset(sub_0)\n  0x00\n  codecopy\n  0x00\n  return\nstop\n\nsub_0: assembly {\n        /* \"remix ide/PROJECT/MARK-11.sol\":133:978  contract send_ether{    \r... */\n      mstore(0x40, 0x80)\n      jumpi(tag_1, lt(calldatasize, 0x04))\n      shr(0xe0, calldataload(0x00))\n      dup1\n      0x49ab6beb\n      eq\n      tag_3\n      jumpi\n      dup1\n      0x6f10e285\n      eq\n      tag_4\n      jumpi\n      dup1\n      0xb69ef8a8\n      eq\n      tag_5\n      jumpi\n      dup1\n      0xd7781801\n      eq\n      tag_6\n      jumpi\n      jump(tag_2)\n    tag_1:\n      jumpi(tag_2, calldatasize)\n        /* \"remix ide/PROJECT/MARK-11.sol\":335:349  dep(msg.value) */\n      0x9e9e2cfb62e2a54c39a5e9d6df903460d2926683b45bbb6e661ba24c5f055e27\n        /* \"remix ide/PROJECT/MARK-11.sol\":339:348  msg.value */\n      callvalue\n        /* \"remix ide/PROJECT/MARK-11.sol\":335:349  dep(msg.value) */\n      mload(0x40)\n      tag_9\n      swap2\n      swap1\n      tag_10\n      jump\t// in\n    tag_9:\n      mload(0x40)\n      dup1\n      swap2\n      sub\n      swap1\n      log1\n        /* \"remix ide/PROJECT/MARK-11.sol\":133:978  contract send_ether{    \r... */\n      stop\n    tag_2:\n      0x00\n      dup1\n      revert\n        /* \"remix ide/PROJECT/MARK-11.sol\":440:617  function Piggywith(uint amount) public\r... */\n    tag_3:\n      callvalue\n      dup1\n      iszero\n      tag_11\n      jumpi\n      0x00\n      dup1\n      revert\n    tag_11:\n      pop\n      tag_12\n      0x04\n      dup1\n      calldatasize\n      sub\n      dup2\n      add\n      swap1\n      tag_13\n      swap2\n      swap1\n      tag_14\n      jump\t// in\n    tag_13:\n      tag_15\n      jump\t// in\n    tag_12:\n      stop\n        /* \"remix ide/PROJECT/MARK-11.sol\":192:210  string  public res */\n    tag_4:\n      callvalue\n      dup1\n      iszero\n      tag_16\n      jumpi\n      0x00\n      dup1\n      revert\n    tag_16:\n      pop\n      tag_17\n      tag_18\n      jump\t// in\n    tag_17:\n      mload(0x40)\n      tag_19\n      swap2\n      swap1\n      tag_20\n      jump\t// in\n    tag_19:\n      mload(0x40)\n      dup1\n      swap2\n      sub\n      swap1\n      return\n        /* \"remix ide/PROJECT/MARK-11.sol\":868:966  function balance() public view returns(uint)\r... */\n    tag_5:\n      callvalue\n      dup1\n      iszero\n      tag_21\n      jumpi\n      0x00\n      dup1\n      revert\n    tag_21:\n      pop\n      tag_22\n      tag_23\n      jump\t// in\n    tag_22:\n      mload(0x40)\n      tag_24\n      swap2\n      swap1\n      tag_10\n      jump\t// in\n    tag_24:\n      mload(0x40)\n      dup1\n      swap2\n      sub\n      swap1\n      return\n        /* \"remix ide/PROJECT/MARK-11.sol\":623:860  function sendd(address payable _add,uint amount) external payable\r... */\n    tag_6:\n      tag_25\n      0x04\n      dup1\n      calldatasize\n      sub\n      dup2\n      add\n      swap1\n      tag_26\n      swap2\n      swap1\n      tag_27\n      jump\t// in\n    tag_26:\n      tag_28\n      jump\t// in\n    tag_25:\n      stop\n        /* \"remix ide/PROJECT/MARK-11.sol\":440:617  function Piggywith(uint amount) public\r... */\n    tag_15:\n        /* \"remix ide/PROJECT/MARK-11.sol\":517:527  msg.sender */\n      caller\n        /* \"remix ide/PROJECT/MARK-11.sol\":501:527  owner_contract==msg.sender */\n      0xffffffffffffffffffffffffffffffffffffffff\n      and\n        /* \"remix ide/PROJECT/MARK-11.sol\":501:515  owner_contract */\n      0x00\n      dup1\n      sload\n      swap1\n      0x0100\n      exp\n      swap1\n      div\n      0xffffffffffffffffffffffffffffffffffffffff\n      and\n        /* \"remix ide/PROJECT/MARK-11.sol\":501:527  owner_contract==msg.sender */\n      0xffffffffffffffffffffffffffffffffffffffff\n      and\n      eq\n        /* \"remix ide/PROJECT/MARK-11.sol\":493:540  require(owner_contract==msg.sender,\"not owner\") */\n      tag_30\n      jumpi\n      mload(0x40)\n      0x08c379a000000000000000000000000000000000000000000000000000000000\n      dup2\n      mstore\n      0x04\n      add\n      tag_31\n      swap1\n      tag_32\n      jump\t// in\n    tag_31:\n      mload(0x40)\n      dup1\n      swap2\n      sub\n      swap1\n      revert\n    tag_30:\n        /* \"remix ide/PROJECT/MARK-11.sol\":554:565  wit(amount) */\n      0x9658f8f30d3594cc1908c0c535f4ed6b71f71874a813b56924fdd3c43136c49a\n        /* \"remix ide/PROJECT/MARK-11.sol\":558:564  amount */\n      dup2\n        /* \"remix ide/PROJECT/MARK-11.sol\":554:565  wit(amount) */\n      mload(0x40)\n      tag_33\n      swap2\n      swap1\n      tag_10\n      jump\t// in\n    tag_33:\n      mload(0x40)\n      dup1\n      swap2\n      sub\n      swap1\n      log1\n        /* \"remix ide/PROJECT/MARK-11.sol\":597:607  msg.sender */\n      caller\n        /* \"remix ide/PROJECT/MARK-11.sol\":576:609  selfdestruct(payable(msg.sender)) */\n      0xffffffffffffffffffffffffffffffffffffffff\n      and\n      selfdestruct\n        /* \"remix ide/PROJECT/MARK-11.sol\":192:210  string  public res */\n    tag_18:\n      0x01\n      dup1\n      sload\n      tag_34\n      swap1\n      tag_35\n      jump\t// in\n    tag_34:\n      dup1\n      0x1f\n      add\n      0x20\n      dup1\n      swap2\n      div\n      mul\n      0x20\n      add\n      mload(0x40)\n      swap1\n      dup2\n      add\n      0x40\n      mstore\n      dup1\n      swap3\n      swap2\n      swap1\n      dup2\n      dup2\n      mstore\n      0x20\n      add\n      dup3\n      dup1\n      sload\n      tag_36\n      swap1\n      tag_35\n      jump\t// in\n    tag_36:\n      dup1\n      iszero\n      tag_37\n      jumpi\n      dup1\n      0x1f\n      lt\n      tag_38\n      jumpi\n      0x0100\n      dup1\n      dup4\n      sload\n      div\n      mul\n      dup4\n      mstore\n      swap2\n      0x20\n      add\n      swap2\n      jump(tag_37)\n    tag_38:\n      dup3\n      add\n      swap2\n      swap1\n      0x00\n      mstore\n      keccak256(0x00, 0x20)\n      swap1\n    tag_39:\n      dup2\n      sload\n      dup2\n      mstore\n      swap1\n      0x01\n      add\n      swap1\n      0x20\n      add\n      dup1\n      dup4\n      gt\n      tag_39\n      jumpi\n      dup3\n      swap1\n      sub\n      0x1f\n      and\n      dup3\n      add\n      swap2\n    tag_37:\n      pop\n      pop\n      pop\n      pop\n      pop\n      dup2\n      jump\t// out\n        /* \"remix ide/PROJECT/MARK-11.sol\":868:966  function balance() public view returns(uint)\r... */\n    tag_23:\n        /* \"remix ide/PROJECT/MARK-11.sol\":907:911  uint */\n      0x00\n        /* \"remix ide/PROJECT/MARK-11.sol\":936:957  address(this).balance */\n      selfbalance\n        /* \"remix ide/PROJECT/MARK-11.sol\":929:958  return(address(this).balance) */\n      swap1\n      pop\n        /* \"remix ide/PROJECT/MARK-11.sol\":868:966  function balance() public view returns(uint)\r... */\n      swap1\n      jump\t// out\n        /* \"remix ide/PROJECT/MARK-11.sol\":623:860  function sendd(address payable _add,uint amount) external payable\r... */\n    tag_28:\n        /* \"remix ide/PROJECT/MARK-11.sol\":738:739  1 */\n      0x01\n        /* \"remix ide/PROJECT/MARK-11.sol\":713:734  address(this).balance */\n      selfbalance\n        /* \"remix ide/PROJECT/MARK-11.sol\":713:739  address(this).balance >= 1 */\n      lt\n      iszero\n        /* \"remix ide/PROJECT/MARK-11.sol\":705:753  require(address(this).balance >= 1,\"no balance\") */\n      tag_42\n      jumpi\n      mload(0x40)\n      0x08c379a000000000000000000000000000000000000000000000000000000000\n      dup2\n      mstore\n      0x04\n      add\n      tag_43\n      swap1\n      tag_44\n      jump\t// in\n    tag_43:\n      mload(0x40)\n      dup1\n      swap2\n      sub\n      swap1\n      revert\n    tag_42:\n        /* \"remix ide/PROJECT/MARK-11.sol\":784:798  owner_contract */\n      0x00\n      dup1\n      sload\n      swap1\n      0x0100\n      exp\n      swap1\n      div\n      0xffffffffffffffffffffffffffffffffffffffff\n      and\n        /* \"remix ide/PROJECT/MARK-11.sol\":772:798  msg.sender==owner_contract */\n      0xffffffffffffffffffffffffffffffffffffffff\n      and\n        /* \"remix ide/PROJECT/MARK-11.sol\":772:782  msg.sender */\n      caller\n        /* \"remix ide/PROJECT/MARK-11.sol\":772:798  msg.sender==owner_contract */\n      0xffffffffffffffffffffffffffffffffffffffff\n      and\n      eq\n        /* \"remix ide/PROJECT/MARK-11.sol\":764:811  require(msg.sender==owner_contract,\"not owner\") */\n      tag_45\n      jumpi\n      mload(0x40)\n      0x08c379a000000000000000000000000000000000000000000000000000000000\n      dup2\n      mstore\n      0x04\n      add\n      tag_46\n      swap1\n      tag_32\n      jump\t// in\n    tag_46:\n      mload(0x40)\n      dup1\n      swap2\n      sub\n      swap1\n      revert\n    tag_45:\n        /* \"remix ide/PROJECT/MARK-11.sol\":822:826  _add */\n      dup2\n        /* \"remix ide/PROJECT/MARK-11.sol\":822:835  _add.transfer */\n      0xffffffffffffffffffffffffffffffffffffffff\n      and\n        /* \"remix ide/PROJECT/MARK-11.sol\":822:843  _add.transfer(amount) */\n      0x08fc\n        /* \"remix ide/PROJECT/MARK-11.sol\":836:842  amount */\n      dup3\n        /* \"remix ide/PROJECT/MARK-11.sol\":822:843  _add.transfer(amount) */\n      swap1\n      dup2\n      iszero\n      mul\n      swap1\n      mload(0x40)\n      0x00\n      mload(0x40)\n      dup1\n      dup4\n      sub\n      dup2\n      dup6\n      dup9\n      dup9\n      call\n      swap4\n      pop\n      pop\n      pop\n      pop\n      iszero\n      dup1\n      iszero\n      tag_48\n      jumpi\n      returndatasize\n      0x00\n      dup1\n      returndatacopy\n      revert(0x00, returndatasize)\n    tag_48:\n      pop\n        /* \"remix ide/PROJECT/MARK-11.sol\":623:860  function sendd(address payable _add,uint amount) external payable\r... */\n      pop\n      pop\n      jump\t// out\n        /* \"#utility.yul\":7:162   */\n    tag_50:\n        /* \"#utility.yul\":61:66   */\n      0x00\n        /* \"#utility.yul\":99:105   */\n      dup2\n        /* \"#utility.yul\":86:106   */\n      calldataload\n        /* \"#utility.yul\":77:106   */\n      swap1\n      pop\n        /* \"#utility.yul\":115:156   */\n      tag_52\n        /* \"#utility.yul\":150:155   */\n      dup2\n        /* \"#utility.yul\":115:156   */\n      tag_53\n      jump\t// in\n    tag_52:\n        /* \"#utility.yul\":7:162   */\n      swap3\n      swap2\n      pop\n      pop\n      jump\t// out\n        /* \"#utility.yul\":168:307   */\n    tag_54:\n        /* \"#utility.yul\":214:219   */\n      0x00\n        /* \"#utility.yul\":252:258   */\n      dup2\n        /* \"#utility.yul\":239:259   */\n      calldataload\n        /* \"#utility.yul\":230:259   */\n      swap1\n      pop\n        /* \"#utility.yul\":268:301   */\n      tag_56\n        /* \"#utility.yul\":295:300   */\n      dup2\n        /* \"#utility.yul\":268:301   */\n      tag_57\n      jump\t// in\n    tag_56:\n        /* \"#utility.yul\":168:307   */\n      swap3\n      swap2\n      pop\n      pop\n      jump\t// out\n        /* \"#utility.yul\":313:803   */\n    tag_27:\n        /* \"#utility.yul\":389:395   */\n      0x00\n        /* \"#utility.yul\":397:403   */\n      dup1\n        /* \"#utility.yul\":446:448   */\n      0x40\n        /* \"#utility.yul\":434:443   */\n      dup4\n        /* \"#utility.yul\":425:432   */\n      dup6\n        /* \"#utility.yul\":421:444   */\n      sub\n        /* \"#utility.yul\":417:449   */\n      slt\n        /* \"#utility.yul\":414:533   */\n      iszero\n      tag_59\n      jumpi\n        /* \"#utility.yul\":452:531   */\n      tag_60\n      tag_61\n      jump\t// in\n    tag_60:\n        /* \"#utility.yul\":414:533   */\n    tag_59:\n        /* \"#utility.yul\":572:573   */\n      0x00\n        /* \"#utility.yul\":597:658   */\n      tag_62\n        /* \"#utility.yul\":650:657   */\n      dup6\n        /* \"#utility.yul\":641:647   */\n      dup3\n        /* \"#utility.yul\":630:639   */\n      dup7\n        /* \"#utility.yul\":626:648   */\n      add\n        /* \"#utility.yul\":597:658   */\n      tag_50\n      jump\t// in\n    tag_62:\n        /* \"#utility.yul\":587:658   */\n      swap3\n      pop\n        /* \"#utility.yul\":543:668   */\n      pop\n        /* \"#utility.yul\":707:709   */\n      0x20\n        /* \"#utility.yul\":733:786   */\n      tag_63\n        /* \"#utility.yul\":778:785   */\n      dup6\n        /* \"#utility.yul\":769:775   */\n      dup3\n        /* \"#utility.yul\":758:767   */\n      dup7\n        /* \"#utility.yul\":754:776   */\n      add\n        /* \"#utility.yul\":733:786   */\n      tag_54\n      jump\t// in\n    tag_63:\n        /* \"#utility.yul\":723:786   */\n      swap2\n      pop\n        /* \"#utility.yul\":678:796   */\n      pop\n        /* \"#utility.yul\":313:803   */\n      swap3\n      pop\n      swap3\n      swap1\n      pop\n      jump\t// out\n        /* \"#utility.yul\":809:1138   */\n    tag_14:\n        /* \"#utility.yul\":868:874   */\n      0x00\n        /* \"#utility.yul\":917:919   */\n      0x20\n        /* \"#utility.yul\":905:914   */\n      dup3\n        /* \"#utility.yul\":896:903   */\n      dup5\n        /* \"#utility.yul\":892:915   */\n      sub\n        /* \"#utility.yul\":888:920   */\n      slt\n        /* \"#utility.yul\":885:1004   */\n      iszero\n      tag_65\n      jumpi\n        /* \"#utility.yul\":923:1002   */\n      tag_66\n      tag_61\n      jump\t// in\n    tag_66:\n        /* \"#utility.yul\":885:1004   */\n    tag_65:\n        /* \"#utility.yul\":1043:1044   */\n      0x00\n        /* \"#utility.yul\":1068:1121   */\n      tag_67\n        /* \"#utility.yul\":1113:1120   */\n      dup5\n        /* \"#utility.yul\":1104:1110   */\n      dup3\n        /* \"#utility.yul\":1093:1102   */\n      dup6\n        /* \"#utility.yul\":1089:1111   */\n      add\n        /* \"#utility.yul\":1068:1121   */\n      tag_54\n      jump\t// in\n    tag_67:\n        /* \"#utility.yul\":1058:1121   */\n      swap2\n      pop\n        /* \"#utility.yul\":1014:1131   */\n      pop\n        /* \"#utility.yul\":809:1138   */\n      swap3\n      swap2\n      pop\n      pop\n      jump\t// out\n        /* \"#utility.yul\":1144:1508   */\n    tag_68:\n        /* \"#utility.yul\":1232:1235   */\n      0x00\n        /* \"#utility.yul\":1260:1299   */\n      tag_70\n        /* \"#utility.yul\":1293:1298   */\n      dup3\n        /* \"#utility.yul\":1260:1299   */\n      tag_71\n      jump\t// in\n    tag_70:\n        /* \"#utility.yul\":1315:1386   */\n      tag_72\n        /* \"#utility.yul\":1379:1385   */\n      dup2\n        /* \"#utility.yul\":1374:1377   */\n      dup6\n        /* \"#utility.yul\":1315:1386   */\n      tag_73\n      jump\t// in\n    tag_72:\n        /* \"#utility.yul\":1308:1386   */\n      swap4\n      pop\n        /* \"#utility.yul\":1395:1447   */\n      tag_74\n        /* \"#utility.yul\":1440:1446   */\n      dup2\n        /* \"#utility.yul\":1435:1438   */\n      dup6\n        /* \"#utility.yul\":1428:1432   */\n      0x20\n        /* \"#utility.yul\":1421:1426   */\n      dup7\n        /* \"#utility.yul\":1417:1433   */\n      add\n        /* \"#utility.yul\":1395:1447   */\n      tag_75\n      jump\t// in\n    tag_74:\n        /* \"#utility.yul\":1472:1501   */\n      tag_76\n        /* \"#utility.yul\":1494:1500   */\n      dup2\n        /* \"#utility.yul\":1472:1501   */\n      tag_77\n      jump\t// in\n    tag_76:\n        /* \"#utility.yul\":1467:1470   */\n      dup5\n        /* \"#utility.yul\":1463:1502   */\n      add\n        /* \"#utility.yul\":1456:1502   */\n      swap2\n      pop\n        /* \"#utility.yul\":1236:1508   */\n      pop\n        /* \"#utility.yul\":1144:1508   */\n      swap3\n      swap2\n      pop\n      pop\n      jump\t// out\n        /* \"#utility.yul\":1514:1880   */\n    tag_78:\n        /* \"#utility.yul\":1656:1659   */\n      0x00\n        /* \"#utility.yul\":1677:1744   */\n      tag_80\n        /* \"#utility.yul\":1741:1743   */\n      0x0a\n        /* \"#utility.yul\":1736:1739   */\n      dup4\n        /* \"#utility.yul\":1677:1744   */\n      tag_73\n      jump\t// in\n    tag_80:\n        /* \"#utility.yul\":1670:1744   */\n      swap2\n      pop\n        /* \"#utility.yul\":1753:1846   */\n      tag_81\n        /* \"#utility.yul\":1842:1845   */\n      dup3\n        /* \"#utility.yul\":1753:1846   */\n      tag_82\n      jump\t// in\n    tag_81:\n        /* \"#utility.yul\":1871:1873   */\n      0x20\n        /* \"#utility.yul\":1866:1869   */\n      dup3\n        /* \"#utility.yul\":1862:1874   */\n      add\n        /* \"#utility.yul\":1855:1874   */\n      swap1\n      pop\n        /* \"#utility.yul\":1514:1880   */\n      swap2\n      swap1\n      pop\n      jump\t// out\n        /* \"#utility.yul\":1886:2251   */\n    tag_83:\n        /* \"#utility.yul\":2028:2031   */\n      0x00\n        /* \"#utility.yul\":2049:2115   */\n      tag_85\n        /* \"#utility.yul\":2113:2114   */\n      0x09\n        /* \"#utility.yul\":2108:2111   */\n      dup4\n        /* \"#utility.yul\":2049:2115   */\n      tag_73\n      jump\t// in\n    tag_85:\n        /* \"#utility.yul\":2042:2115   */\n      swap2\n      pop\n        /* \"#utility.yul\":2124:2217   */\n      tag_86\n        /* \"#utility.yul\":2213:2216   */\n      dup3\n        /* \"#utility.yul\":2124:2217   */\n      tag_87\n      jump\t// in\n    tag_86:\n        /* \"#utility.yul\":2242:2244   */\n      0x20\n        /* \"#utility.yul\":2237:2240   */\n      dup3\n        /* \"#utility.yul\":2233:2245   */\n      add\n        /* \"#utility.yul\":2226:2245   */\n      swap1\n      pop\n        /* \"#utility.yul\":1886:2251   */\n      swap2\n      swap1\n      pop\n      jump\t// out\n        /* \"#utility.yul\":2257:2375   */\n    tag_88:\n        /* \"#utility.yul\":2344:2368   */\n      tag_90\n        /* \"#utility.yul\":2362:2367   */\n      dup2\n        /* \"#utility.yul\":2344:2368   */\n      tag_91\n      jump\t// in\n    tag_90:\n        /* \"#utility.yul\":2339:2342   */\n      dup3\n        /* \"#utility.yul\":2332:2369   */\n      mstore\n        /* \"#utility.yul\":2257:2375   */\n      pop\n      pop\n      jump\t// out\n        /* \"#utility.yul\":2381:2694   */\n    tag_20:\n        /* \"#utility.yul\":2494:2498   */\n      0x00\n        /* \"#utility.yul\":2532:2534   */\n      0x20\n        /* \"#utility.yul\":2521:2530   */\n      dup3\n        /* \"#utility.yul\":2517:2535   */\n      add\n        /* \"#utility.yul\":2509:2535   */\n      swap1\n      pop\n        /* \"#utility.yul\":2581:2590   */\n      dup2\n        /* \"#utility.yul\":2575:2579   */\n      dup2\n        /* \"#utility.yul\":2571:2591   */\n      sub\n        /* \"#utility.yul\":2567:2568   */\n      0x00\n        /* \"#utility.yul\":2556:2565   */\n      dup4\n        /* \"#utility.yul\":2552:2569   */\n      add\n        /* \"#utility.yul\":2545:2592   */\n      mstore\n        /* \"#utility.yul\":2609:2687   */\n      tag_93\n        /* \"#utility.yul\":2682:2686   */\n      dup2\n        /* \"#utility.yul\":2673:2679   */\n      dup5\n        /* \"#utility.yul\":2609:2687   */\n      tag_68\n      jump\t// in\n    tag_93:\n        /* \"#utility.yul\":2601:2687   */\n      swap1\n      pop\n        /* \"#utility.yul\":2381:2694   */\n      swap3\n      swap2\n      pop\n      pop\n      jump\t// out\n        /* \"#utility.yul\":2700:3119   */\n    tag_44:\n        /* \"#utility.yul\":2866:2870   */\n      0x00\n        /* \"#utility.yul\":2904:2906   */\n      0x20\n        /* \"#utility.yul\":2893:2902   */\n      dup3\n        /* \"#utility.yul\":2889:2907   */\n      add\n        /* \"#utility.yul\":2881:2907   */\n      swap1\n      pop\n        /* \"#utility.yul\":2953:2962   */\n      dup2\n        /* \"#utility.yul\":2947:2951   */\n      dup2\n        /* \"#utility.yul\":2943:2963   */\n      sub\n        /* \"#utility.yul\":2939:2940   */\n      0x00\n        /* \"#utility.yul\":2928:2937   */\n      dup4\n        /* \"#utility.yul\":2924:2941   */\n      add\n        /* \"#utility.yul\":2917:2964   */\n      mstore\n        /* \"#utility.yul\":2981:3112   */\n      tag_95\n        /* \"#utility.yul\":3107:3111   */\n      dup2\n        /* \"#utility.yul\":2981:3112   */\n      tag_78\n      jump\t// in\n    tag_95:\n        /* \"#utility.yul\":2973:3112   */\n      swap1\n      pop\n        /* \"#utility.yul\":2700:3119   */\n      swap2\n      swap1\n      pop\n      jump\t// out\n        /* \"#utility.yul\":3125:3544   */\n    tag_32:\n        /* \"#utility.yul\":3291:3295   */\n      0x00\n        /* \"#utility.yul\":3329:3331   */\n      0x20\n        /* \"#utility.yul\":3318:3327   */\n      dup3\n        /* \"#utility.yul\":3314:3332   */\n      add\n        /* \"#utility.yul\":3306:3332   */\n      swap1\n      pop\n        /* \"#utility.yul\":3378:3387   */\n      dup2\n        /* \"#utility.yul\":3372:3376   */\n      dup2\n        /* \"#utility.yul\":3368:3388   */\n      sub\n        /* \"#utility.yul\":3364:3365   */\n      0x00\n        /* \"#utility.yul\":3353:3362   */\n      dup4\n        /* \"#utility.yul\":3349:3366   */\n      add\n        /* \"#utility.yul\":3342:3389   */\n      mstore\n        /* \"#utility.yul\":3406:3537   */\n      tag_97\n        /* \"#utility.yul\":3532:3536   */\n      dup2\n        /* \"#utility.yul\":3406:3537   */\n      tag_83\n      jump\t// in\n    tag_97:\n        /* \"#utility.yul\":3398:3537   */\n      swap1\n      pop\n        /* \"#utility.yul\":3125:3544   */\n      swap2\n      swap1\n      pop\n      jump\t// out\n        /* \"#utility.yul\":3550:3772   */\n    tag_10:\n        /* \"#utility.yul\":3643:3647   */\n      0x00\n        /* \"#utility.yul\":3681:3683   */\n      0x20\n        /* \"#utility.yul\":3670:3679   */\n      dup3\n        /* \"#utility.yul\":3666:3684   */\n      add\n        /* \"#utility.yul\":3658:3684   */\n      swap1\n      pop\n        /* \"#utility.yul\":3694:3765   */\n      tag_99\n        /* \"#utility.yul\":3762:3763   */\n      0x00\n        /* \"#utility.yul\":3751:3760   */\n      dup4\n        /* \"#utility.yul\":3747:3764   */\n      add\n        /* \"#utility.yul\":3738:3744   */\n      dup5\n        /* \"#utility.yul\":3694:3765   */\n      tag_88\n      jump\t// in\n    tag_99:\n        /* \"#utility.yul\":3550:3772   */\n      swap3\n      swap2\n      pop\n      pop\n      jump\t// out\n        /* \"#utility.yul\":3859:3958   */\n    tag_71:\n        /* \"#utility.yul\":3911:3917   */\n      0x00\n        /* \"#utility.yul\":3945:3950   */\n      dup2\n        /* \"#utility.yul\":3939:3951   */\n      mload\n        /* \"#utility.yul\":3929:3951   */\n      swap1\n      pop\n        /* \"#utility.yul\":3859:3958   */\n      swap2\n      swap1\n      pop\n      jump\t// out\n        /* \"#utility.yul\":3964:4133   */\n    tag_73:\n        /* \"#utility.yul\":4048:4059   */\n      0x00\n        /* \"#utility.yul\":4082:4088   */\n      dup3\n        /* \"#utility.yul\":4077:4080   */\n      dup3\n        /* \"#utility.yul\":4070:4089   */\n      mstore\n        /* \"#utility.yul\":4122:4126   */\n      0x20\n        /* \"#utility.yul\":4117:4120   */\n      dup3\n        /* \"#utility.yul\":4113:4127   */\n      add\n        /* \"#utility.yul\":4098:4127   */\n      swap1\n      pop\n        /* \"#utility.yul\":3964:4133   */\n      swap3\n      swap2\n      pop\n      pop\n      jump\t// out\n        /* \"#utility.yul\":4139:4243   */\n    tag_104:\n        /* \"#utility.yul\":4184:4191   */\n      0x00\n        /* \"#utility.yul\":4213:4237   */\n      tag_106\n        /* \"#utility.yul\":4231:4236   */\n      dup3\n        /* \"#utility.yul\":4213:4237   */\n      tag_107\n      jump\t// in\n    tag_106:\n        /* \"#utility.yul\":4202:4237   */\n      swap1\n      pop\n        /* \"#utility.yul\":4139:4243   */\n      swap2\n      swap1\n      pop\n      jump\t// out\n        /* \"#utility.yul\":4249:4375   */\n    tag_107:\n        /* \"#utility.yul\":4286:4293   */\n      0x00\n        /* \"#utility.yul\":4326:4368   */\n      0xffffffffffffffffffffffffffffffffffffffff\n        /* \"#utility.yul\":4319:4324   */\n      dup3\n        /* \"#utility.yul\":4315:4369   */\n      and\n        /* \"#utility.yul\":4304:4369   */\n      swap1\n      pop\n        /* \"#utility.yul\":4249:4375   */\n      swap2\n      swap1\n      pop\n      jump\t// out\n        /* \"#utility.yul\":4381:4458   */\n    tag_91:\n        /* \"#utility.yul\":4418:4425   */\n      0x00\n        /* \"#utility.yul\":4447:4452   */\n      dup2\n        /* \"#utility.yul\":4436:4452   */\n      swap1\n      pop\n        /* \"#utility.yul\":4381:4458   */\n      swap2\n      swap1\n      pop\n      jump\t// out\n        /* \"#utility.yul\":4464:4771   */\n    tag_75:\n        /* \"#utility.yul\":4532:4533   */\n      0x00\n        /* \"#utility.yul\":4542:4655   */\n    tag_111:\n        /* \"#utility.yul\":4556:4562   */\n      dup4\n        /* \"#utility.yul\":4553:4554   */\n      dup2\n        /* \"#utility.yul\":4550:4563   */\n      lt\n        /* \"#utility.yul\":4542:4655   */\n      iszero\n      tag_113\n      jumpi\n        /* \"#utility.yul\":4641:4642   */\n      dup1\n        /* \"#utility.yul\":4636:4639   */\n      dup3\n        /* \"#utility.yul\":4632:4643   */\n      add\n        /* \"#utility.yul\":4626:4644   */\n      mload\n        /* \"#utility.yul\":4622:4623   */\n      dup2\n        /* \"#utility.yul\":4617:4620   */\n      dup5\n        /* \"#utility.yul\":4613:4624   */\n      add\n        /* \"#utility.yul\":4606:4645   */\n      mstore\n        /* \"#utility.yul\":4578:4580   */\n      0x20\n        /* \"#utility.yul\":4575:4576   */\n      dup2\n        /* \"#utility.yul\":4571:4581   */\n      add\n        /* \"#utility.yul\":4566:4581   */\n      swap1\n      pop\n        /* \"#utility.yul\":4542:4655   */\n      jump(tag_111)\n    tag_113:\n        /* \"#utility.yul\":4673:4679   */\n      dup4\n        /* \"#utility.yul\":4670:4671   */\n      dup2\n        /* \"#utility.yul\":4667:4680   */\n      gt\n        /* \"#utility.yul\":4664:4765   */\n      iszero\n      tag_114\n      jumpi\n        /* \"#utility.yul\":4753:4754   */\n      0x00\n        /* \"#utility.yul\":4744:4750   */\n      dup5\n        /* \"#utility.yul\":4739:4742   */\n      dup5\n        /* \"#utility.yul\":4735:4751   */\n      add\n        /* \"#utility.yul\":4728:4755   */\n      mstore\n        /* \"#utility.yul\":4664:4765   */\n    tag_114:\n        /* \"#utility.yul\":4513:4771   */\n      pop\n        /* \"#utility.yul\":4464:4771   */\n      pop\n      pop\n      pop\n      jump\t// out\n        /* \"#utility.yul\":4777:5097   */\n    tag_35:\n        /* \"#utility.yul\":4821:4827   */\n      0x00\n        /* \"#utility.yul\":4858:4859   */\n      0x02\n        /* \"#utility.yul\":4852:4856   */\n      dup3\n        /* \"#utility.yul\":4848:4860   */\n      div\n        /* \"#utility.yul\":4838:4860   */\n      swap1\n      pop\n        /* \"#utility.yul\":4905:4906   */\n      0x01\n        /* \"#utility.yul\":4899:4903   */\n      dup3\n        /* \"#utility.yul\":4895:4907   */\n      and\n        /* \"#utility.yul\":4926:4944   */\n      dup1\n        /* \"#utility.yul\":4916:4997   */\n      tag_116\n      jumpi\n        /* \"#utility.yul\":4982:4986   */\n      0x7f\n        /* \"#utility.yul\":4974:4980   */\n      dup3\n        /* \"#utility.yul\":4970:4987   */\n      and\n        /* \"#utility.yul\":4960:4987   */\n      swap2\n      pop\n        /* \"#utility.yul\":4916:4997   */\n    tag_116:\n        /* \"#utility.yul\":5044:5046   */\n      0x20\n        /* \"#utility.yul\":5036:5042   */\n      dup3\n        /* \"#utility.yul\":5033:5047   */\n      lt\n        /* \"#utility.yul\":5013:5031   */\n      dup2\n        /* \"#utility.yul\":5010:5048   */\n      eq\n        /* \"#utility.yul\":5007:5091   */\n      iszero\n      tag_117\n      jumpi\n        /* \"#utility.yul\":5063:5081   */\n      tag_118\n      tag_119\n      jump\t// in\n    tag_118:\n        /* \"#utility.yul\":5007:5091   */\n    tag_117:\n        /* \"#utility.yul\":4828:5097   */\n      pop\n        /* \"#utility.yul\":4777:5097   */\n      swap2\n      swap1\n      pop\n      jump\t// out\n        /* \"#utility.yul\":5103:5283   */\n    tag_119:\n        /* \"#utility.yul\":5151:5228   */\n      0x4e487b7100000000000000000000000000000000000000000000000000000000\n        /* \"#utility.yul\":5148:5149   */\n      0x00\n        /* \"#utility.yul\":5141:5229   */\n      mstore\n        /* \"#utility.yul\":5248:5252   */\n      0x22\n        /* \"#utility.yul\":5245:5246   */\n      0x04\n        /* \"#utility.yul\":5238:5253   */\n      mstore\n        /* \"#utility.yul\":5272:5276   */\n      0x24\n        /* \"#utility.yul\":5269:5270   */\n      0x00\n        /* \"#utility.yul\":5262:5277   */\n      revert\n        /* \"#utility.yul\":5412:5529   */\n    tag_61:\n        /* \"#utility.yul\":5521:5522   */\n      0x00\n        /* \"#utility.yul\":5518:5519   */\n      dup1\n        /* \"#utility.yul\":5511:5523   */\n      revert\n        /* \"#utility.yul\":5535:5637   */\n    tag_77:\n        /* \"#utility.yul\":5576:5582   */\n      0x00\n        /* \"#utility.yul\":5627:5629   */\n      0x1f\n        /* \"#utility.yul\":5623:5630   */\n      not\n        /* \"#utility.yul\":5618:5620   */\n      0x1f\n        /* \"#utility.yul\":5611:5616   */\n      dup4\n        /* \"#utility.yul\":5607:5621   */\n      add\n        /* \"#utility.yul\":5603:5631   */\n      and\n        /* \"#utility.yul\":5593:5631   */\n      swap1\n      pop\n        /* \"#utility.yul\":5535:5637   */\n      swap2\n      swap1\n      pop\n      jump\t// out\n        /* \"#utility.yul\":5643:5803   */\n    tag_82:\n        /* \"#utility.yul\":5783:5795   */\n      0x6e6f2062616c616e636500000000000000000000000000000000000000000000\n        /* \"#utility.yul\":5779:5780   */\n      0x00\n        /* \"#utility.yul\":5771:5777   */\n      dup3\n        /* \"#utility.yul\":5767:5781   */\n      add\n        /* \"#utility.yul\":5760:5796   */\n      mstore\n        /* \"#utility.yul\":5643:5803   */\n      pop\n      jump\t// out\n        /* \"#utility.yul\":5809:5968   */\n    tag_87:\n        /* \"#utility.yul\":5949:5960   */\n      0x6e6f74206f776e65720000000000000000000000000000000000000000000000\n        /* \"#utility.yul\":5945:5946   */\n      0x00\n        /* \"#utility.yul\":5937:5943   */\n      dup3\n        /* \"#utility.yul\":5933:5947   */\n      add\n        /* \"#utility.yul\":5926:5961   */\n      mstore\n        /* \"#utility.yul\":5809:5968   */\n      pop\n      jump\t// out\n        /* \"#utility.yul\":5974:6112   */\n    tag_53:\n        /* \"#utility.yul\":6055:6087   */\n      tag_128\n        /* \"#utility.yul\":6081:6086   */\n      dup2\n        /* \"#utility.yul\":6055:6087   */\n      tag_104\n      jump\t// in\n    tag_128:\n        /* \"#utility.yul\":6048:6053   */\n      dup2\n        /* \"#utility.yul\":6045:6088   */\n      eq\n        /* \"#utility.yul\":6035:6106   */\n      tag_129\n      jumpi\n        /* \"#utility.yul\":6102:6103   */\n      0x00\n        /* \"#utility.yul\":6099:6100   */\n      dup1\n        /* \"#utility.yul\":6092:6104   */\n      revert\n        /* \"#utility.yul\":6035:6106   */\n    tag_129:\n        /* \"#utility.yul\":5974:6112   */\n      pop\n      jump\t// out\n        /* \"#utility.yul\":6118:6240   */\n    tag_57:\n        /* \"#utility.yul\":6191:6215   */\n      tag_131\n        /* \"#utility.yul\":6209:6214   */\n      dup2\n        /* \"#utility.yul\":6191:6215   */\n      tag_91\n      jump\t// in\n    tag_131:\n        /* \"#utility.yul\":6184:6189   */\n      dup2\n        /* \"#utility.yul\":6181:6216   */\n      eq\n        /* \"#utility.yul\":6171:6234   */\n      tag_132\n      jumpi\n        /* \"#utility.yul\":6230:6231   */\n      0x00\n        /* \"#utility.yul\":6227:6228   */\n      dup1\n        /* \"#utility.yul\":6220:6232   */\n      revert\n        /* \"#utility.yul\":6171:6234   */\n    tag_132:\n        /* \"#utility.yul\":6118:6240   */\n      pop\n      jump\t// out\n\n    auxdata: 0xa26469706673582212208cd26daaea06e75da18c97728851622973b0154fd226ba966cd58b963e20f1cb64736f6c63430008070033\n}\n",
				"bytecode": {
					"linkReferences": {},
					"object": "6080604052336000806101000a81548173ffffffffffffffffffffffffffffffffffffffff021916908373ffffffffffffffffffffffffffffffffffffffff16021790555061070c806100536000396000f3fe6080604052600436106100435760003560e01c806349ab6beb146100865780636f10e285146100af578063b69ef8a8146100da578063d77818011461010557610081565b36610081577f9e9e2cfb62e2a54c39a5e9d6df903460d2926683b45bbb6e661ba24c5f055e27346040516100779190610539565b60405180910390a1005b600080fd5b34801561009257600080fd5b506100ad60048036038101906100a8919061041c565b610121565b005b3480156100bb57600080fd5b506100c46101ff565b6040516100d191906104d7565b60405180910390f35b3480156100e657600080fd5b506100ef61028d565b6040516100fc9190610539565b60405180910390f35b61011f600480360381019061011a91906103dc565b610295565b005b3373ffffffffffffffffffffffffffffffffffffffff1660008054906101000a900473ffffffffffffffffffffffffffffffffffffffff1673ffffffffffffffffffffffffffffffffffffffff16146101af576040517f08c379a00000000000000000000000000000000000000000000000000000000081526004016101a690610519565b60405180910390fd5b7f9658f8f30d3594cc1908c0c535f4ed6b71f71874a813b56924fdd3c43136c49a816040516101de9190610539565b60405180910390a13373ffffffffffffffffffffffffffffffffffffffff16ff5b6001805461020c906105df565b80601f0160208091040260200160405190810160405280929190818152602001828054610238906105df565b80156102855780601f1061025a57610100808354040283529160200191610285565b820191906000526020600020905b81548152906001019060200180831161026857829003601f168201915b505050505081565b600047905090565b60014710156102d9576040517f08c379a00000000000000000000000000000000000000000000000000000000081526004016102d0906104f9565b60405180910390fd5b60008054906101000a900473ffffffffffffffffffffffffffffffffffffffff1673ffffffffffffffffffffffffffffffffffffffff163373ffffffffffffffffffffffffffffffffffffffff1614610367576040517f08c379a000000000000000000000000000000000000000000000000000000000815260040161035e90610519565b60405180910390fd5b8173ffffffffffffffffffffffffffffffffffffffff166108fc829081150290604051600060405180830381858888f193505050501580156103ad573d6000803e3d6000fd5b505050565b6000813590506103c1816106a8565b92915050565b6000813590506103d6816106bf565b92915050565b600080604083850312156103f3576103f2610640565b5b6000610401858286016103b2565b9250506020610412858286016103c7565b9150509250929050565b60006020828403121561043257610431610640565b5b6000610440848285016103c7565b91505092915050565b600061045482610554565b61045e818561055f565b935061046e8185602086016105ac565b61047781610645565b840191505092915050565b600061048f600a8361055f565b915061049a82610656565b602082019050919050565b60006104b260098361055f565b91506104bd8261067f565b602082019050919050565b6104d1816105a2565b82525050565b600060208201905081810360008301526104f18184610449565b905092915050565b6000602082019050818103600083015261051281610482565b9050919050565b60006020820190508181036000830152610532816104a5565b9050919050565b600060208201905061054e60008301846104c8565b92915050565b600081519050919050565b600082825260208201905092915050565b600061057b82610582565b9050919050565b600073ffffffffffffffffffffffffffffffffffffffff82169050919050565b6000819050919050565b60005b838110156105ca5780820151818401526020810190506105af565b838111156105d9576000848401525b50505050565b600060028204905060018216806105f757607f821691505b6020821081141561060b5761060a610611565b5b50919050565b7f4e487b7100000000000000000000000000000000000000000000000000000000600052602260045260246000fd5b600080fd5b6000601f19601f8301169050919050565b7f6e6f2062616c616e636500000000000000000000000000000000000000000000600082015250565b7f6e6f74206f776e65720000000000000000000000000000000000000000000000600082015250565b6106b181610570565b81146106bc57600080fd5b50565b6106c8816105a2565b81146106d357600080fd5b5056fea26469706673582212208cd26daaea06e75da18c97728851622973b0154fd226ba966cd58b963e20f1cb64736f6c63430008070033",
					"opcodes": "PUSH1 0x80 PUSH1 0x40 MSTORE CALLER PUSH1 0x0 DUP1 PUSH2 0x100 EXP DUP2 SLOAD DUP2 PUSH20 0xFFFFFFFFFFFFFFFFFFFFFFFFFFFFFFFFFFFFFFFF MUL NOT AND SWAP1 DUP4 PUSH20 0xFFFFFFFFFFFFFFFFFFFFFFFFFFFFFFFFFFFFFFFF AND MUL OR SWAP1 SSTORE POP PUSH2 0x70C DUP1 PUSH2 0x53 PUSH1 0x0 CODECOPY PUSH1 0x0 RETURN INVALID PUSH1 0x80 PUSH1 0x40 MSTORE PUSH1 0x4 CALLDATASIZE LT PUSH2 0x43 JUMPI PUSH1 0x0 CALLDATALOAD PUSH1 0xE0 SHR DUP1 PUSH4 0x49AB6BEB EQ PUSH2 0x86 JUMPI DUP1 PUSH4 0x6F10E285 EQ PUSH2 0xAF JUMPI DUP1 PUSH4 0xB69EF8A8 EQ PUSH2 0xDA JUMPI DUP1 PUSH4 0xD7781801 EQ PUSH2 0x105 JUMPI PUSH2 0x81 JUMP JUMPDEST CALLDATASIZE PUSH2 0x81 JUMPI PUSH32 0x9E9E2CFB62E2A54C39A5E9D6DF903460D2926683B45BBB6E661BA24C5F055E27 CALLVALUE PUSH1 0x40 MLOAD PUSH2 0x77 SWAP2 SWAP1 PUSH2 0x539 JUMP JUMPDEST PUSH1 0x40 MLOAD DUP1 SWAP2 SUB SWAP1 LOG1 STOP JUMPDEST PUSH1 0x0 DUP1 REVERT JUMPDEST CALLVALUE DUP1 ISZERO PUSH2 0x92 JUMPI PUSH1 0x0 DUP1 REVERT JUMPDEST POP PUSH2 0xAD PUSH1 0x4 DUP1 CALLDATASIZE SUB DUP2 ADD SWAP1 PUSH2 0xA8 SWAP2 SWAP1 PUSH2 0x41C JUMP JUMPDEST PUSH2 0x121 JUMP JUMPDEST STOP JUMPDEST CALLVALUE DUP1 ISZERO PUSH2 0xBB JUMPI PUSH1 0x0 DUP1 REVERT JUMPDEST POP PUSH2 0xC4 PUSH2 0x1FF JUMP JUMPDEST PUSH1 0x40 MLOAD PUSH2 0xD1 SWAP2 SWAP1 PUSH2 0x4D7 JUMP JUMPDEST PUSH1 0x40 MLOAD DUP1 SWAP2 SUB SWAP1 RETURN JUMPDEST CALLVALUE DUP1 ISZERO PUSH2 0xE6 JUMPI PUSH1 0x0 DUP1 REVERT JUMPDEST POP PUSH2 0xEF PUSH2 0x28D JUMP JUMPDEST PUSH1 0x40 MLOAD PUSH2 0xFC SWAP2 SWAP1 PUSH2 0x539 JUMP JUMPDEST PUSH1 0x40 MLOAD DUP1 SWAP2 SUB SWAP1 RETURN JUMPDEST PUSH2 0x11F PUSH1 0x4 DUP1 CALLDATASIZE SUB DUP2 ADD SWAP1 PUSH2 0x11A SWAP2 SWAP1 PUSH2 0x3DC JUMP JUMPDEST PUSH2 0x295 JUMP JUMPDEST STOP JUMPDEST CALLER PUSH20 0xFFFFFFFFFFFFFFFFFFFFFFFFFFFFFFFFFFFFFFFF AND PUSH1 0x0 DUP1 SLOAD SWAP1 PUSH2 0x100 EXP SWAP1 DIV PUSH20 0xFFFFFFFFFFFFFFFFFFFFFFFFFFFFFFFFFFFFFFFF AND PUSH20 0xFFFFFFFFFFFFFFFFFFFFFFFFFFFFFFFFFFFFFFFF AND EQ PUSH2 0x1AF JUMPI PUSH1 0x40 MLOAD PUSH32 0x8C379A000000000000000000000000000000000000000000000000000000000 DUP2 MSTORE PUSH1 0x4 ADD PUSH2 0x1A6 SWAP1 PUSH2 0x519 JUMP JUMPDEST PUSH1 0x40 MLOAD DUP1 SWAP2 SUB SWAP1 REVERT JUMPDEST PUSH32 0x9658F8F30D3594CC1908C0C535F4ED6B71F71874A813B56924FDD3C43136C49A DUP2 PUSH1 0x40 MLOAD PUSH2 0x1DE SWAP2 SWAP1 PUSH2 0x539 JUMP JUMPDEST PUSH1 0x40 MLOAD DUP1 SWAP2 SUB SWAP1 LOG1 CALLER PUSH20 0xFFFFFFFFFFFFFFFFFFFFFFFFFFFFFFFFFFFFFFFF AND SELFDESTRUCT JUMPDEST PUSH1 0x1 DUP1 SLOAD PUSH2 0x20C SWAP1 PUSH2 0x5DF JUMP JUMPDEST DUP1 PUSH1 0x1F ADD PUSH1 0x20 DUP1 SWAP2 DIV MUL PUSH1 0x20 ADD PUSH1 0x40 MLOAD SWAP1 DUP2 ADD PUSH1 0x40 MSTORE DUP1 SWAP3 SWAP2 SWAP1 DUP2 DUP2 MSTORE PUSH1 0x20 ADD DUP3 DUP1 SLOAD PUSH2 0x238 SWAP1 PUSH2 0x5DF JUMP JUMPDEST DUP1 ISZERO PUSH2 0x285 JUMPI DUP1 PUSH1 0x1F LT PUSH2 0x25A JUMPI PUSH2 0x100 DUP1 DUP4 SLOAD DIV MUL DUP4 MSTORE SWAP2 PUSH1 0x20 ADD SWAP2 PUSH2 0x285 JUMP JUMPDEST DUP3 ADD SWAP2 SWAP1 PUSH1 0x0 MSTORE PUSH1 0x20 PUSH1 0x0 KECCAK256 SWAP1 JUMPDEST DUP2 SLOAD DUP2 MSTORE SWAP1 PUSH1 0x1 ADD SWAP1 PUSH1 0x20 ADD DUP1 DUP4 GT PUSH2 0x268 JUMPI DUP3 SWAP1 SUB PUSH1 0x1F AND DUP3 ADD SWAP2 JUMPDEST POP POP POP POP POP DUP2 JUMP JUMPDEST PUSH1 0x0 SELFBALANCE SWAP1 POP SWAP1 JUMP JUMPDEST PUSH1 0x1 SELFBALANCE LT ISZERO PUSH2 0x2D9 JUMPI PUSH1 0x40 MLOAD PUSH32 0x8C379A000000000000000000000000000000000000000000000000000000000 DUP2 MSTORE PUSH1 0x4 ADD PUSH2 0x2D0 SWAP1 PUSH2 0x4F9 JUMP JUMPDEST PUSH1 0x40 MLOAD DUP1 SWAP2 SUB SWAP1 REVERT JUMPDEST PUSH1 0x0 DUP1 SLOAD SWAP1 PUSH2 0x100 EXP SWAP1 DIV PUSH20 0xFFFFFFFFFFFFFFFFFFFFFFFFFFFFFFFFFFFFFFFF AND PUSH20 0xFFFFFFFFFFFFFFFFFFFFFFFFFFFFFFFFFFFFFFFF AND CALLER PUSH20 0xFFFFFFFFFFFFFFFFFFFFFFFFFFFFFFFFFFFFFFFF AND EQ PUSH2 0x367 JUMPI PUSH1 0x40 MLOAD PUSH32 0x8C379A000000000000000000000000000000000000000000000000000000000 DUP2 MSTORE PUSH1 0x4 ADD PUSH2 0x35E SWAP1 PUSH2 0x519 JUMP JUMPDEST PUSH1 0x40 MLOAD DUP1 SWAP2 SUB SWAP1 REVERT JUMPDEST DUP2 PUSH20 0xFFFFFFFFFFFFFFFFFFFFFFFFFFFFFFFFFFFFFFFF AND PUSH2 0x8FC DUP3 SWAP1 DUP2 ISZERO MUL SWAP1 PUSH1 0x40 MLOAD PUSH1 0x0 PUSH1 0x40 MLOAD DUP1 DUP4 SUB DUP2 DUP6 DUP9 DUP9 CALL SWAP4 POP POP POP POP ISZERO DUP1 ISZERO PUSH2 0x3AD JUMPI RETURNDATASIZE PUSH1 0x0 DUP1 RETURNDATACOPY RETURNDATASIZE PUSH1 0x0 REVERT JUMPDEST POP POP POP JUMP JUMPDEST PUSH1 0x0 DUP2 CALLDATALOAD SWAP1 POP PUSH2 0x3C1 DUP2 PUSH2 0x6A8 JUMP JUMPDEST SWAP3 SWAP2 POP POP JUMP JUMPDEST PUSH1 0x0 DUP2 CALLDATALOAD SWAP1 POP PUSH2 0x3D6 DUP2 PUSH2 0x6BF JUMP JUMPDEST SWAP3 SWAP2 POP POP JUMP JUMPDEST PUSH1 0x0 DUP1 PUSH1 0x40 DUP4 DUP6 SUB SLT ISZERO PUSH2 0x3F3 JUMPI PUSH2 0x3F2 PUSH2 0x640 JUMP JUMPDEST JUMPDEST PUSH1 0x0 PUSH2 0x401 DUP6 DUP3 DUP7 ADD PUSH2 0x3B2 JUMP JUMPDEST SWAP3 POP POP PUSH1 0x20 PUSH2 0x412 DUP6 DUP3 DUP7 ADD PUSH2 0x3C7 JUMP JUMPDEST SWAP2 POP POP SWAP3 POP SWAP3 SWAP1 POP JUMP JUMPDEST PUSH1 0x0 PUSH1 0x20 DUP3 DUP5 SUB SLT ISZERO PUSH2 0x432 JUMPI PUSH2 0x431 PUSH2 0x640 JUMP JUMPDEST JUMPDEST PUSH1 0x0 PUSH2 0x440 DUP5 DUP3 DUP6 ADD PUSH2 0x3C7 JUMP JUMPDEST SWAP2 POP POP SWAP3 SWAP2 POP POP JUMP JUMPDEST PUSH1 0x0 PUSH2 0x454 DUP3 PUSH2 0x554 JUMP JUMPDEST PUSH2 0x45E DUP2 DUP6 PUSH2 0x55F JUMP JUMPDEST SWAP4 POP PUSH2 0x46E DUP2 DUP6 PUSH1 0x20 DUP7 ADD PUSH2 0x5AC JUMP JUMPDEST PUSH2 0x477 DUP2 PUSH2 0x645 JUMP JUMPDEST DUP5 ADD SWAP2 POP POP SWAP3 SWAP2 POP POP JUMP JUMPDEST PUSH1 0x0 PUSH2 0x48F PUSH1 0xA DUP4 PUSH2 0x55F JUMP JUMPDEST SWAP2 POP PUSH2 0x49A DUP3 PUSH2 0x656 JUMP JUMPDEST PUSH1 0x20 DUP3 ADD SWAP1 POP SWAP2 SWAP1 POP JUMP JUMPDEST PUSH1 0x0 PUSH2 0x4B2 PUSH1 0x9 DUP4 PUSH2 0x55F JUMP JUMPDEST SWAP2 POP PUSH2 0x4BD DUP3 PUSH2 0x67F JUMP JUMPDEST PUSH1 0x20 DUP3 ADD SWAP1 POP SWAP2 SWAP1 POP JUMP JUMPDEST PUSH2 0x4D1 DUP2 PUSH2 0x5A2 JUMP JUMPDEST DUP3 MSTORE POP POP JUMP JUMPDEST PUSH1 0x0 PUSH1 0x20 DUP3 ADD SWAP1 POP DUP2 DUP2 SUB PUSH1 0x0 DUP4 ADD MSTORE PUSH2 0x4F1 DUP2 DUP5 PUSH2 0x449 JUMP JUMPDEST SWAP1 POP SWAP3 SWAP2 POP POP JUMP JUMPDEST PUSH1 0x0 PUSH1 0x20 DUP3 ADD SWAP1 POP DUP2 DUP2 SUB PUSH1 0x0 DUP4 ADD MSTORE PUSH2 0x512 DUP2 PUSH2 0x482 JUMP JUMPDEST SWAP1 POP SWAP2 SWAP1 POP JUMP JUMPDEST PUSH1 0x0 PUSH1 0x20 DUP3 ADD SWAP1 POP DUP2 DUP2 SUB PUSH1 0x0 DUP4 ADD MSTORE PUSH2 0x532 DUP2 PUSH2 0x4A5 JUMP JUMPDEST SWAP1 POP SWAP2 SWAP1 POP JUMP JUMPDEST PUSH1 0x0 PUSH1 0x20 DUP3 ADD SWAP1 POP PUSH2 0x54E PUSH1 0x0 DUP4 ADD DUP5 PUSH2 0x4C8 JUMP JUMPDEST SWAP3 SWAP2 POP POP JUMP JUMPDEST PUSH1 0x0 DUP2 MLOAD SWAP1 POP SWAP2 SWAP1 POP JUMP JUMPDEST PUSH1 0x0 DUP3 DUP3 MSTORE PUSH1 0x20 DUP3 ADD SWAP1 POP SWAP3 SWAP2 POP POP JUMP JUMPDEST PUSH1 0x0 PUSH2 0x57B DUP3 PUSH2 0x582 JUMP JUMPDEST SWAP1 POP SWAP2 SWAP1 POP JUMP JUMPDEST PUSH1 0x0 PUSH20 0xFFFFFFFFFFFFFFFFFFFFFFFFFFFFFFFFFFFFFFFF DUP3 AND SWAP1 POP SWAP2 SWAP1 POP JUMP JUMPDEST PUSH1 0x0 DUP2 SWAP1 POP SWAP2 SWAP1 POP JUMP JUMPDEST PUSH1 0x0 JUMPDEST DUP4 DUP2 LT ISZERO PUSH2 0x5CA JUMPI DUP1 DUP3 ADD MLOAD DUP2 DUP5 ADD MSTORE PUSH1 0x20 DUP2 ADD SWAP1 POP PUSH2 0x5AF JUMP JUMPDEST DUP4 DUP2 GT ISZERO PUSH2 0x5D9 JUMPI PUSH1 0x0 DUP5 DUP5 ADD MSTORE JUMPDEST POP POP POP POP JUMP JUMPDEST PUSH1 0x0 PUSH1 0x2 DUP3 DIV SWAP1 POP PUSH1 0x1 DUP3 AND DUP1 PUSH2 0x5F7 JUMPI PUSH1 0x7F DUP3 AND SWAP2 POP JUMPDEST PUSH1 0x20 DUP3 LT DUP2 EQ ISZERO PUSH2 0x60B JUMPI PUSH2 0x60A PUSH2 0x611 JUMP JUMPDEST JUMPDEST POP SWAP2 SWAP1 POP JUMP JUMPDEST PUSH32 0x4E487B7100000000000000000000000000000000000000000000000000000000 PUSH1 0x0 MSTORE PUSH1 0x22 PUSH1 0x4 MSTORE PUSH1 0x24 PUSH1 0x0 REVERT JUMPDEST PUSH1 0x0 DUP1 REVERT JUMPDEST PUSH1 0x0 PUSH1 0x1F NOT PUSH1 0x1F DUP4 ADD AND SWAP1 POP SWAP2 SWAP1 POP JUMP JUMPDEST PUSH32 0x6E6F2062616C616E636500000000000000000000000000000000000000000000 PUSH1 0x0 DUP3 ADD MSTORE POP JUMP JUMPDEST PUSH32 0x6E6F74206F776E65720000000000000000000000000000000000000000000000 PUSH1 0x0 DUP3 ADD MSTORE POP JUMP JUMPDEST PUSH2 0x6B1 DUP2 PUSH2 0x570 JUMP JUMPDEST DUP2 EQ PUSH2 0x6BC JUMPI PUSH1 0x0 DUP1 REVERT JUMPDEST POP JUMP JUMPDEST PUSH2 0x6C8 DUP2 PUSH2 0x5A2 JUMP JUMPDEST DUP2 EQ PUSH2 0x6D3 JUMPI PUSH1 0x0 DUP1 REVERT JUMPDEST POP JUMP INVALID LOG2 PUSH5 0x6970667358 0x22 SLT KECCAK256 DUP13 0xD2 PUSH14 0xAAEA06E75DA18C97728851622973 0xB0 ISZERO 0x4F 0xD2 0x26 0xBA SWAP7 PUSH13 0xD58B963E20F1CB64736F6C6343 STOP ADDMOD SMOD STOP CALLER "
				},
				"gasEstimates": {
					"creation": {
						"codeDepositCost": "360800",
						"executionCost": "24641",
						"totalCost": "385441"
					},
					"external": {
						"Piggywith(uint256)": "infinite",
						"balance()": "361",
						"res()": "infinite",
						"sendd(address,uint256)": "infinite"
					}
				},
				"methodIdentifiers": {
					"Piggywith(uint256)": "49ab6beb",
					"balance()": "b69ef8a8",
					"res()": "6f10e285",
					"sendd(address,uint256)": "d7781801"
				}
			},
			"storageLayout": {
				"storage": [
					{
						"astId": 3,
						"contract": "remix ide/PROJECT/MARK-11.sol:send_ether",
						"label": "owner_contract",
						"offset": 0,
						"slot": "0",
						"type": "t_address"
					},
					{
						"astId": 5,
						"contract": "remix ide/PROJECT/MARK-11.sol:send_ether",
						"label": "res",
						"offset": 0,
						"slot": "1",
						"type": "t_string_storage"
					}
				],
				"types": {
					"t_address": {
						"encoding": "inplace",
						"label": "address",
						"numberOfBytes": "20"
					},
					"t_string_storage": {
						"encoding": "bytes",
						"label": "string",
						"numberOfBytes": "32"
					}
				}
			},
			"userdoc": {
				"kind": "user",
				"methods": {},
				"version": 1
			}
		}
	}
}