{
	"remix_ide/PROJECT/MARK_11TA.sol": {
		"send_ether": {
			"abi": [
				{
					"inputs": [],
					"stateMutability": "payable",
					"type": "constructor"
				},
				{
					"anonymous": false,
					"inputs": [
						{
							"indexed": false,
							"internalType": "uint256",
							"name": "value",
							"type": "uint256"
						}
					],
					"name": "dep",
					"type": "event"
				},
				{
					"anonymous": false,
					"inputs": [
						{
							"indexed": false,
							"internalType": "uint256",
							"name": "value",
							"type": "uint256"
						}
					],
					"name": "wit",
					"type": "event"
				},
				{
					"inputs": [
						{
							"internalType": "uint256",
							"name": "amount",
							"type": "uint256"
						}
					],
					"name": "Piggywith",
					"outputs": [],
					"stateMutability": "nonpayable",
					"type": "function"
				},
				{
					"inputs": [],
					"name": "balance",
					"outputs": [
						{
							"internalType": "uint256",
							"name": "",
							"type": "uint256"
						}
					],
					"stateMutability": "view",
					"type": "function"
				},
				{
					"inputs": [
						{
							"internalType": "address payable",
							"name": "_add",
							"type": "address"
						},
						{
							"internalType": "uint256",
							"name": "amount",
							"type": "uint256"
						}
					],
					"name": "sendd",
					"outputs": [],
					"stateMutability": "payable",
					"type": "function"
				},
				{
					"stateMutability": "payable",
					"type": "receive"
				}
			],
			"devdoc": {
				"kind": "dev",
				"methods": {},
				"version": 1
			},
			"evm": {
				"assembly": "    /* \"remix_ide/PROJECT/MARK_11TA.sol\":134:1295  contract send_ether{    ... */\n  mstore(0x40, 0xe0)\n    /* \"remix_ide/PROJECT/MARK_11TA.sol\":513:523  msg.sender */\n  caller\n    /* \"remix_ide/PROJECT/MARK_11TA.sol\":498:512  owner_contract */\n  0x00\n  dup1\n    /* \"remix_ide/PROJECT/MARK_11TA.sol\":498:523  owner_contract=msg.sender */\n  0x0100\n  exp\n  dup2\n  sload\n  dup2\n  0xffffffffffffffffffffffffffffffffffffffff\n  mul\n  not\n  and\n  swap1\n  dup4\n  0xffffffffffffffffffffffffffffffffffffffff\n  and\n  mul\n  or\n  swap1\n  sstore\n  pop\n    /* \"remix_ide/PROJECT/MARK_11TA.sol\":542:557  block.timestamp */\n  timestamp\n    /* \"remix_ide/PROJECT/MARK_11TA.sol\":534:557  current=block.timestamp */\n  0x80\n  dup2\n  dup2\n  mstore\n  pop\n  pop\n    /* \"remix_ide/PROJECT/MARK_11TA.sol\":579:588  1 minutes */\n  0x3c\n    /* \"remix_ide/PROJECT/MARK_11TA.sol\":568:588  duraction= 1 minutes */\n  0xa0\n  dup2\n  dup2\n  mstore\n  pop\n  pop\n    /* \"remix_ide/PROJECT/MARK_11TA.sol\":613:622  duraction */\n  mload(0xa0)\n    /* \"remix_ide/PROJECT/MARK_11TA.sol\":605:612  current */\n  mload(0x80)\n    /* \"remix_ide/PROJECT/MARK_11TA.sol\":605:622  current+duraction */\n  tag_3\n  swap2\n  swap1\n  tag_4\n  jump\t// in\ntag_3:\n    /* \"remix_ide/PROJECT/MARK_11TA.sol\":599:622  total=current+duraction */\n  0xc0\n  dup2\n  dup2\n  mstore\n  pop\n  pop\n    /* \"remix_ide/PROJECT/MARK_11TA.sol\":134:1295  contract send_ether{    ... */\n  jump(tag_5)\n    /* \"#utility.yul\":7:84   */\ntag_6:\n    /* \"#utility.yul\":44:51   */\n  0x00\n    /* \"#utility.yul\":73:78   */\n  dup2\n    /* \"#utility.yul\":62:78   */\n  swap1\n  pop\n    /* \"#utility.yul\":7:84   */\n  swap2\n  swap1\n  pop\n  jump\t// out\n    /* \"#utility.yul\":90:270   */\ntag_7:\n    /* \"#utility.yul\":138:215   */\n  0x4e487b7100000000000000000000000000000000000000000000000000000000\n    /* \"#utility.yul\":135:136   */\n  0x00\n    /* \"#utility.yul\":128:216   */\n  mstore\n    /* \"#utility.yul\":235:239   */\n  0x11\n    /* \"#utility.yul\":232:233   */\n  0x04\n    /* \"#utility.yul\":225:240   */\n  mstore\n    /* \"#utility.yul\":259:263   */\n  0x24\n    /* \"#utility.yul\":256:257   */\n  0x00\n    /* \"#utility.yul\":249:264   */\n  revert\n    /* \"#utility.yul\":276:467   */\ntag_4:\n    /* \"#utility.yul\":316:319   */\n  0x00\n    /* \"#utility.yul\":335:355   */\n  tag_12\n    /* \"#utility.yul\":353:354   */\n  dup3\n    /* \"#utility.yul\":335:355   */\n  tag_6\n  jump\t// in\ntag_12:\n    /* \"#utility.yul\":330:355   */\n  swap2\n  pop\n    /* \"#utility.yul\":369:389   */\n  tag_13\n    /* \"#utility.yul\":387:388   */\n  dup4\n    /* \"#utility.yul\":369:389   */\n  tag_6\n  jump\t// in\ntag_13:\n    /* \"#utility.yul\":364:389   */\n  swap3\n  pop\n    /* \"#utility.yul\":412:413   */\n  dup3\n    /* \"#utility.yul\":409:410   */\n  dup3\n    /* \"#utility.yul\":405:414   */\n  add\n    /* \"#utility.yul\":398:414   */\n  swap1\n  pop\n    /* \"#utility.yul\":433:436   */\n  dup1\n    /* \"#utility.yul\":430:431   */\n  dup3\n    /* \"#utility.yul\":427:437   */\n  gt\n    /* \"#utility.yul\":424:460   */\n  iszero\n  tag_14\n  jumpi\n    /* \"#utility.yul\":440:458   */\n  tag_15\n  tag_7\n  jump\t// in\ntag_15:\n    /* \"#utility.yul\":424:460   */\ntag_14:\n    /* \"#utility.yul\":276:467   */\n  swap3\n  swap2\n  pop\n  pop\n  jump\t// out\n    /* \"remix_ide/PROJECT/MARK_11TA.sol\":134:1295  contract send_ether{    ... */\ntag_5:\n  mload(0x80)\n  mload(0xa0)\n  mload(0xc0)\n  codecopy(0x00, dataOffset(sub_0), dataSize(sub_0))\n  0x00\n  assignImmutable(\"0x52f1a9b320cab38e5da8a8f97989383aab0a49165fc91c737310e4f7e9821021\")\n  0x00\n  assignImmutable(\"0xceebf77a833b30520287ddd9478ff51abbdffa30aa90a8d655dba0e8a79ce0c1\")\n  0x00\n  assignImmutable(\"0x2a80e1ef1d7842f27f2e6be0972bb708b9a135c38860dbe73c27c3486c34f4de\")\n  return(0x00, dataSize(sub_0))\nstop\n\nsub_0: assembly {\n        /* \"remix_ide/PROJECT/MARK_11TA.sol\":134:1295  contract send_ether{    ... */\n      mstore(0x40, 0x80)\n      jumpi(tag_1, lt(calldatasize, 0x04))\n      shr(0xe0, calldataload(0x00))\n      dup1\n      0x49ab6beb\n      eq\n      tag_3\n      jumpi\n      dup1\n      0xb69ef8a8\n      eq\n      tag_4\n      jumpi\n      dup1\n      0xd7781801\n      eq\n      tag_5\n      jumpi\n      jump(tag_2)\n    tag_1:\n      jumpi(tag_2, calldatasize)\n        /* \"remix_ide/PROJECT/MARK_11TA.sol\":432:446  dep(msg.value) */\n      0x9e9e2cfb62e2a54c39a5e9d6df903460d2926683b45bbb6e661ba24c5f055e27\n        /* \"remix_ide/PROJECT/MARK_11TA.sol\":436:445  msg.value */\n      callvalue\n        /* \"remix_ide/PROJECT/MARK_11TA.sol\":432:446  dep(msg.value) */\n      mload(0x40)\n      tag_8\n      swap2\n      swap1\n      tag_9\n      jump\t// in\n    tag_8:\n      mload(0x40)\n      dup1\n      swap2\n      sub\n      swap1\n      log1\n        /* \"remix_ide/PROJECT/MARK_11TA.sol\":134:1295  contract send_ether{    ... */\n      stop\n    tag_2:\n      0x00\n      dup1\n      revert\n        /* \"remix_ide/PROJECT/MARK_11TA.sol\":757:934  function Piggywith(uint amount) public... */\n    tag_3:\n      callvalue\n      dup1\n      iszero\n      tag_10\n      jumpi\n      0x00\n      dup1\n      revert\n    tag_10:\n      pop\n      tag_11\n      0x04\n      dup1\n      calldatasize\n      sub\n      dup2\n      add\n      swap1\n      tag_12\n      swap2\n      swap1\n      tag_13\n      jump\t// in\n    tag_12:\n      tag_14\n      jump\t// in\n    tag_11:\n      stop\n        /* \"remix_ide/PROJECT/MARK_11TA.sol\":1185:1283  function balance() public view returns(uint)... */\n    tag_4:\n      callvalue\n      dup1\n      iszero\n      tag_15\n      jumpi\n      0x00\n      dup1\n      revert\n    tag_15:\n      pop\n      tag_16\n      tag_17\n      jump\t// in\n    tag_16:\n      mload(0x40)\n      tag_18\n      swap2\n      swap1\n      tag_9\n      jump\t// in\n    tag_18:\n      mload(0x40)\n      dup1\n      swap2\n      sub\n      swap1\n      return\n        /* \"remix_ide/PROJECT/MARK_11TA.sol\":940:1177  function sendd(address payable _add,uint amount) external payable... */\n    tag_5:\n      tag_19\n      0x04\n      dup1\n      calldatasize\n      sub\n      dup2\n      add\n      swap1\n      tag_20\n      swap2\n      swap1\n      tag_21\n      jump\t// in\n    tag_20:\n      tag_22\n      jump\t// in\n    tag_19:\n      stop\n        /* \"remix_ide/PROJECT/MARK_11TA.sol\":757:934  function Piggywith(uint amount) public... */\n    tag_14:\n        /* \"remix_ide/PROJECT/MARK_11TA.sol\":834:844  msg.sender */\n      caller\n        /* \"remix_ide/PROJECT/MARK_11TA.sol\":818:844  owner_contract==msg.sender */\n      0xffffffffffffffffffffffffffffffffffffffff\n      and\n        /* \"remix_ide/PROJECT/MARK_11TA.sol\":818:832  owner_contract */\n      0x00\n      dup1\n      sload\n      swap1\n      0x0100\n      exp\n      swap1\n      div\n      0xffffffffffffffffffffffffffffffffffffffff\n      and\n        /* \"remix_ide/PROJECT/MARK_11TA.sol\":818:844  owner_contract==msg.sender */\n      0xffffffffffffffffffffffffffffffffffffffff\n      and\n      eq\n        /* \"remix_ide/PROJECT/MARK_11TA.sol\":810:857  require(owner_contract==msg.sender,\"not owner\") */\n      tag_24\n      jumpi\n      mload(0x40)\n      0x08c379a000000000000000000000000000000000000000000000000000000000\n      dup2\n      mstore\n      0x04\n      add\n      tag_25\n      swap1\n      tag_26\n      jump\t// in\n    tag_25:\n      mload(0x40)\n      dup1\n      swap2\n      sub\n      swap1\n      revert\n    tag_24:\n        /* \"remix_ide/PROJECT/MARK_11TA.sol\":871:882  wit(amount) */\n      0x9658f8f30d3594cc1908c0c535f4ed6b71f71874a813b56924fdd3c43136c49a\n        /* \"remix_ide/PROJECT/MARK_11TA.sol\":875:881  amount */\n      dup2\n        /* \"remix_ide/PROJECT/MARK_11TA.sol\":871:882  wit(amount) */\n      mload(0x40)\n      tag_27\n      swap2\n      swap1\n      tag_9\n      jump\t// in\n    tag_27:\n      mload(0x40)\n      dup1\n      swap2\n      sub\n      swap1\n      log1\n        /* \"remix_ide/PROJECT/MARK_11TA.sol\":914:924  msg.sender */\n      caller\n        /* \"remix_ide/PROJECT/MARK_11TA.sol\":893:926  selfdestruct(payable(msg.sender)) */\n      0xffffffffffffffffffffffffffffffffffffffff\n      and\n      selfdestruct\n        /* \"remix_ide/PROJECT/MARK_11TA.sol\":1185:1283  function balance() public view returns(uint)... */\n    tag_17:\n        /* \"remix_ide/PROJECT/MARK_11TA.sol\":1224:1228  uint */\n      0x00\n        /* \"remix_ide/PROJECT/MARK_11TA.sol\":1253:1274  address(this).balance */\n      selfbalance\n        /* \"remix_ide/PROJECT/MARK_11TA.sol\":1246:1275  return(address(this).balance) */\n      swap1\n      pop\n        /* \"remix_ide/PROJECT/MARK_11TA.sol\":1185:1283  function balance() public view returns(uint)... */\n      swap1\n      jump\t// out\n        /* \"remix_ide/PROJECT/MARK_11TA.sol\":940:1177  function sendd(address payable _add,uint amount) external payable... */\n    tag_22:\n        /* \"remix_ide/PROJECT/MARK_11TA.sol\":1055:1056  1 */\n      0x01\n        /* \"remix_ide/PROJECT/MARK_11TA.sol\":1030:1051  address(this).balance */\n      selfbalance\n        /* \"remix_ide/PROJECT/MARK_11TA.sol\":1030:1056  address(this).balance >= 1 */\n      lt\n      iszero\n        /* \"remix_ide/PROJECT/MARK_11TA.sol\":1022:1070  require(address(this).balance >= 1,\"no balance\") */\n      tag_30\n      jumpi\n      mload(0x40)\n      0x08c379a000000000000000000000000000000000000000000000000000000000\n      dup2\n      mstore\n      0x04\n      add\n      tag_31\n      swap1\n      tag_32\n      jump\t// in\n    tag_31:\n      mload(0x40)\n      dup1\n      swap2\n      sub\n      swap1\n      revert\n    tag_30:\n        /* \"remix_ide/PROJECT/MARK_11TA.sol\":1101:1115  owner_contract */\n      0x00\n      dup1\n      sload\n      swap1\n      0x0100\n      exp\n      swap1\n      div\n      0xffffffffffffffffffffffffffffffffffffffff\n      and\n        /* \"remix_ide/PROJECT/MARK_11TA.sol\":1089:1115  msg.sender==owner_contract */\n      0xffffffffffffffffffffffffffffffffffffffff\n      and\n        /* \"remix_ide/PROJECT/MARK_11TA.sol\":1089:1099  msg.sender */\n      caller\n        /* \"remix_ide/PROJECT/MARK_11TA.sol\":1089:1115  msg.sender==owner_contract */\n      0xffffffffffffffffffffffffffffffffffffffff\n      and\n      eq\n        /* \"remix_ide/PROJECT/MARK_11TA.sol\":1081:1128  require(msg.sender==owner_contract,\"not owner\") */\n      tag_33\n      jumpi\n      mload(0x40)\n      0x08c379a000000000000000000000000000000000000000000000000000000000\n      dup2\n      mstore\n      0x04\n      add\n      tag_34\n      swap1\n      tag_26\n      jump\t// in\n    tag_34:\n      mload(0x40)\n      dup1\n      swap2\n      sub\n      swap1\n      revert\n    tag_33:\n        /* \"remix_ide/PROJECT/MARK_11TA.sol\":1139:1143  _add */\n      dup2\n        /* \"remix_ide/PROJECT/MARK_11TA.sol\":1139:1152  _add.transfer */\n      0xffffffffffffffffffffffffffffffffffffffff\n      and\n        /* \"remix_ide/PROJECT/MARK_11TA.sol\":1139:1160  _add.transfer(amount) */\n      0x08fc\n        /* \"remix_ide/PROJECT/MARK_11TA.sol\":1153:1159  amount */\n      dup3\n        /* \"remix_ide/PROJECT/MARK_11TA.sol\":1139:1160  _add.transfer(amount) */\n      swap1\n      dup2\n      iszero\n      mul\n      swap1\n      mload(0x40)\n      0x00\n      mload(0x40)\n      dup1\n      dup4\n      sub\n      dup2\n      dup6\n      dup9\n      dup9\n      call\n      swap4\n      pop\n      pop\n      pop\n      pop\n      iszero\n      dup1\n      iszero\n      tag_36\n      jumpi\n      returndatasize\n      0x00\n      dup1\n      returndatacopy\n      revert(0x00, returndatasize)\n    tag_36:\n      pop\n        /* \"remix_ide/PROJECT/MARK_11TA.sol\":940:1177  function sendd(address payable _add,uint amount) external payable... */\n      pop\n      pop\n      jump\t// out\n        /* \"#utility.yul\":7:84   */\n    tag_37:\n        /* \"#utility.yul\":44:51   */\n      0x00\n        /* \"#utility.yul\":73:78   */\n      dup2\n        /* \"#utility.yul\":62:78   */\n      swap1\n      pop\n        /* \"#utility.yul\":7:84   */\n      swap2\n      swap1\n      pop\n      jump\t// out\n        /* \"#utility.yul\":90:208   */\n    tag_38:\n        /* \"#utility.yul\":177:201   */\n      tag_56\n        /* \"#utility.yul\":195:200   */\n      dup2\n        /* \"#utility.yul\":177:201   */\n      tag_37\n      jump\t// in\n    tag_56:\n        /* \"#utility.yul\":172:175   */\n      dup3\n        /* \"#utility.yul\":165:202   */\n      mstore\n        /* \"#utility.yul\":90:208   */\n      pop\n      pop\n      jump\t// out\n        /* \"#utility.yul\":214:436   */\n    tag_9:\n        /* \"#utility.yul\":307:311   */\n      0x00\n        /* \"#utility.yul\":345:347   */\n      0x20\n        /* \"#utility.yul\":334:343   */\n      dup3\n        /* \"#utility.yul\":330:348   */\n      add\n        /* \"#utility.yul\":322:348   */\n      swap1\n      pop\n        /* \"#utility.yul\":358:429   */\n      tag_58\n        /* \"#utility.yul\":426:427   */\n      0x00\n        /* \"#utility.yul\":415:424   */\n      dup4\n        /* \"#utility.yul\":411:428   */\n      add\n        /* \"#utility.yul\":402:408   */\n      dup5\n        /* \"#utility.yul\":358:429   */\n      tag_38\n      jump\t// in\n    tag_58:\n        /* \"#utility.yul\":214:436   */\n      swap3\n      swap2\n      pop\n      pop\n      jump\t// out\n        /* \"#utility.yul\":523:640   */\n    tag_40:\n        /* \"#utility.yul\":632:633   */\n      0x00\n        /* \"#utility.yul\":629:630   */\n      dup1\n        /* \"#utility.yul\":622:634   */\n      revert\n        /* \"#utility.yul\":769:891   */\n    tag_42:\n        /* \"#utility.yul\":842:866   */\n      tag_63\n        /* \"#utility.yul\":860:865   */\n      dup2\n        /* \"#utility.yul\":842:866   */\n      tag_37\n      jump\t// in\n    tag_63:\n        /* \"#utility.yul\":835:840   */\n      dup2\n        /* \"#utility.yul\":832:867   */\n      eq\n        /* \"#utility.yul\":822:885   */\n      tag_64\n      jumpi\n        /* \"#utility.yul\":881:882   */\n      0x00\n        /* \"#utility.yul\":878:879   */\n      dup1\n        /* \"#utility.yul\":871:883   */\n      revert\n        /* \"#utility.yul\":822:885   */\n    tag_64:\n        /* \"#utility.yul\":769:891   */\n      pop\n      jump\t// out\n        /* \"#utility.yul\":897:1036   */\n    tag_43:\n        /* \"#utility.yul\":943:948   */\n      0x00\n        /* \"#utility.yul\":981:987   */\n      dup2\n        /* \"#utility.yul\":968:988   */\n      calldataload\n        /* \"#utility.yul\":959:988   */\n      swap1\n      pop\n        /* \"#utility.yul\":997:1030   */\n      tag_66\n        /* \"#utility.yul\":1024:1029   */\n      dup2\n        /* \"#utility.yul\":997:1030   */\n      tag_42\n      jump\t// in\n    tag_66:\n        /* \"#utility.yul\":897:1036   */\n      swap3\n      swap2\n      pop\n      pop\n      jump\t// out\n        /* \"#utility.yul\":1042:1371   */\n    tag_13:\n        /* \"#utility.yul\":1101:1107   */\n      0x00\n        /* \"#utility.yul\":1150:1152   */\n      0x20\n        /* \"#utility.yul\":1138:1147   */\n      dup3\n        /* \"#utility.yul\":1129:1136   */\n      dup5\n        /* \"#utility.yul\":1125:1148   */\n      sub\n        /* \"#utility.yul\":1121:1153   */\n      slt\n        /* \"#utility.yul\":1118:1237   */\n      iszero\n      tag_68\n      jumpi\n        /* \"#utility.yul\":1156:1235   */\n      tag_69\n      tag_40\n      jump\t// in\n    tag_69:\n        /* \"#utility.yul\":1118:1237   */\n    tag_68:\n        /* \"#utility.yul\":1276:1277   */\n      0x00\n        /* \"#utility.yul\":1301:1354   */\n      tag_70\n        /* \"#utility.yul\":1346:1353   */\n      dup5\n        /* \"#utility.yul\":1337:1343   */\n      dup3\n        /* \"#utility.yul\":1326:1335   */\n      dup6\n        /* \"#utility.yul\":1322:1344   */\n      add\n        /* \"#utility.yul\":1301:1354   */\n      tag_43\n      jump\t// in\n    tag_70:\n        /* \"#utility.yul\":1291:1354   */\n      swap2\n      pop\n        /* \"#utility.yul\":1247:1364   */\n      pop\n        /* \"#utility.yul\":1042:1371   */\n      swap3\n      swap2\n      pop\n      pop\n      jump\t// out\n        /* \"#utility.yul\":1377:1503   */\n    tag_44:\n        /* \"#utility.yul\":1414:1421   */\n      0x00\n        /* \"#utility.yul\":1454:1496   */\n      0xffffffffffffffffffffffffffffffffffffffff\n        /* \"#utility.yul\":1447:1452   */\n      dup3\n        /* \"#utility.yul\":1443:1497   */\n      and\n        /* \"#utility.yul\":1432:1497   */\n      swap1\n      pop\n        /* \"#utility.yul\":1377:1503   */\n      swap2\n      swap1\n      pop\n      jump\t// out\n        /* \"#utility.yul\":1509:1613   */\n    tag_45:\n        /* \"#utility.yul\":1554:1561   */\n      0x00\n        /* \"#utility.yul\":1583:1607   */\n      tag_73\n        /* \"#utility.yul\":1601:1606   */\n      dup3\n        /* \"#utility.yul\":1583:1607   */\n      tag_44\n      jump\t// in\n    tag_73:\n        /* \"#utility.yul\":1572:1607   */\n      swap1\n      pop\n        /* \"#utility.yul\":1509:1613   */\n      swap2\n      swap1\n      pop\n      jump\t// out\n        /* \"#utility.yul\":1619:1757   */\n    tag_46:\n        /* \"#utility.yul\":1700:1732   */\n      tag_75\n        /* \"#utility.yul\":1726:1731   */\n      dup2\n        /* \"#utility.yul\":1700:1732   */\n      tag_45\n      jump\t// in\n    tag_75:\n        /* \"#utility.yul\":1693:1698   */\n      dup2\n        /* \"#utility.yul\":1690:1733   */\n      eq\n        /* \"#utility.yul\":1680:1751   */\n      tag_76\n      jumpi\n        /* \"#utility.yul\":1747:1748   */\n      0x00\n        /* \"#utility.yul\":1744:1745   */\n      dup1\n        /* \"#utility.yul\":1737:1749   */\n      revert\n        /* \"#utility.yul\":1680:1751   */\n    tag_76:\n        /* \"#utility.yul\":1619:1757   */\n      pop\n      jump\t// out\n        /* \"#utility.yul\":1763:1918   */\n    tag_47:\n        /* \"#utility.yul\":1817:1822   */\n      0x00\n        /* \"#utility.yul\":1855:1861   */\n      dup2\n        /* \"#utility.yul\":1842:1862   */\n      calldataload\n        /* \"#utility.yul\":1833:1862   */\n      swap1\n      pop\n        /* \"#utility.yul\":1871:1912   */\n      tag_78\n        /* \"#utility.yul\":1906:1911   */\n      dup2\n        /* \"#utility.yul\":1871:1912   */\n      tag_46\n      jump\t// in\n    tag_78:\n        /* \"#utility.yul\":1763:1918   */\n      swap3\n      swap2\n      pop\n      pop\n      jump\t// out\n        /* \"#utility.yul\":1924:2414   */\n    tag_21:\n        /* \"#utility.yul\":2000:2006   */\n      0x00\n        /* \"#utility.yul\":2008:2014   */\n      dup1\n        /* \"#utility.yul\":2057:2059   */\n      0x40\n        /* \"#utility.yul\":2045:2054   */\n      dup4\n        /* \"#utility.yul\":2036:2043   */\n      dup6\n        /* \"#utility.yul\":2032:2055   */\n      sub\n        /* \"#utility.yul\":2028:2060   */\n      slt\n        /* \"#utility.yul\":2025:2144   */\n      iszero\n      tag_80\n      jumpi\n        /* \"#utility.yul\":2063:2142   */\n      tag_81\n      tag_40\n      jump\t// in\n    tag_81:\n        /* \"#utility.yul\":2025:2144   */\n    tag_80:\n        /* \"#utility.yul\":2183:2184   */\n      0x00\n        /* \"#utility.yul\":2208:2269   */\n      tag_82\n        /* \"#utility.yul\":2261:2268   */\n      dup6\n        /* \"#utility.yul\":2252:2258   */\n      dup3\n        /* \"#utility.yul\":2241:2250   */\n      dup7\n        /* \"#utility.yul\":2237:2259   */\n      add\n        /* \"#utility.yul\":2208:2269   */\n      tag_47\n      jump\t// in\n    tag_82:\n        /* \"#utility.yul\":2198:2269   */\n      swap3\n      pop\n        /* \"#utility.yul\":2154:2279   */\n      pop\n        /* \"#utility.yul\":2318:2320   */\n      0x20\n        /* \"#utility.yul\":2344:2397   */\n      tag_83\n        /* \"#utility.yul\":2389:2396   */\n      dup6\n        /* \"#utility.yul\":2380:2386   */\n      dup3\n        /* \"#utility.yul\":2369:2378   */\n      dup7\n        /* \"#utility.yul\":2365:2387   */\n      add\n        /* \"#utility.yul\":2344:2397   */\n      tag_43\n      jump\t// in\n    tag_83:\n        /* \"#utility.yul\":2334:2397   */\n      swap2\n      pop\n        /* \"#utility.yul\":2289:2407   */\n      pop\n        /* \"#utility.yul\":1924:2414   */\n      swap3\n      pop\n      swap3\n      swap1\n      pop\n      jump\t// out\n        /* \"#utility.yul\":2420:2589   */\n    tag_48:\n        /* \"#utility.yul\":2504:2515   */\n      0x00\n        /* \"#utility.yul\":2538:2544   */\n      dup3\n        /* \"#utility.yul\":2533:2536   */\n      dup3\n        /* \"#utility.yul\":2526:2545   */\n      mstore\n        /* \"#utility.yul\":2578:2582   */\n      0x20\n        /* \"#utility.yul\":2573:2576   */\n      dup3\n        /* \"#utility.yul\":2569:2583   */\n      add\n        /* \"#utility.yul\":2554:2583   */\n      swap1\n      pop\n        /* \"#utility.yul\":2420:2589   */\n      swap3\n      swap2\n      pop\n      pop\n      jump\t// out\n        /* \"#utility.yul\":2595:2754   */\n    tag_49:\n        /* \"#utility.yul\":2735:2746   */\n      0x6e6f74206f776e65720000000000000000000000000000000000000000000000\n        /* \"#utility.yul\":2731:2732   */\n      0x00\n        /* \"#utility.yul\":2723:2729   */\n      dup3\n        /* \"#utility.yul\":2719:2733   */\n      add\n        /* \"#utility.yul\":2712:2747   */\n      mstore\n        /* \"#utility.yul\":2595:2754   */\n      pop\n      jump\t// out\n        /* \"#utility.yul\":2760:3125   */\n    tag_50:\n        /* \"#utility.yul\":2902:2905   */\n      0x00\n        /* \"#utility.yul\":2923:2989   */\n      tag_87\n        /* \"#utility.yul\":2987:2988   */\n      0x09\n        /* \"#utility.yul\":2982:2985   */\n      dup4\n        /* \"#utility.yul\":2923:2989   */\n      tag_48\n      jump\t// in\n    tag_87:\n        /* \"#utility.yul\":2916:2989   */\n      swap2\n      pop\n        /* \"#utility.yul\":2998:3091   */\n      tag_88\n        /* \"#utility.yul\":3087:3090   */\n      dup3\n        /* \"#utility.yul\":2998:3091   */\n      tag_49\n      jump\t// in\n    tag_88:\n        /* \"#utility.yul\":3116:3118   */\n      0x20\n        /* \"#utility.yul\":3111:3114   */\n      dup3\n        /* \"#utility.yul\":3107:3119   */\n      add\n        /* \"#utility.yul\":3100:3119   */\n      swap1\n      pop\n        /* \"#utility.yul\":2760:3125   */\n      swap2\n      swap1\n      pop\n      jump\t// out\n        /* \"#utility.yul\":3131:3550   */\n    tag_26:\n        /* \"#utility.yul\":3297:3301   */\n      0x00\n        /* \"#utility.yul\":3335:3337   */\n      0x20\n        /* \"#utility.yul\":3324:3333   */\n      dup3\n        /* \"#utility.yul\":3320:3338   */\n      add\n        /* \"#utility.yul\":3312:3338   */\n      swap1\n      pop\n        /* \"#utility.yul\":3384:3393   */\n      dup2\n        /* \"#utility.yul\":3378:3382   */\n      dup2\n        /* \"#utility.yul\":3374:3394   */\n      sub\n        /* \"#utility.yul\":3370:3371   */\n      0x00\n        /* \"#utility.yul\":3359:3368   */\n      dup4\n        /* \"#utility.yul\":3355:3372   */\n      add\n        /* \"#utility.yul\":3348:3395   */\n      mstore\n        /* \"#utility.yul\":3412:3543   */\n      tag_90\n        /* \"#utility.yul\":3538:3542   */\n      dup2\n        /* \"#utility.yul\":3412:3543   */\n      tag_50\n      jump\t// in\n    tag_90:\n        /* \"#utility.yul\":3404:3543   */\n      swap1\n      pop\n        /* \"#utility.yul\":3131:3550   */\n      swap2\n      swap1\n      pop\n      jump\t// out\n        /* \"#utility.yul\":3556:3716   */\n    tag_51:\n        /* \"#utility.yul\":3696:3708   */\n      0x6e6f2062616c616e636500000000000000000000000000000000000000000000\n        /* \"#utility.yul\":3692:3693   */\n      0x00\n        /* \"#utility.yul\":3684:3690   */\n      dup3\n        /* \"#utility.yul\":3680:3694   */\n      add\n        /* \"#utility.yul\":3673:3709   */\n      mstore\n        /* \"#utility.yul\":3556:3716   */\n      pop\n      jump\t// out\n        /* \"#utility.yul\":3722:4088   */\n    tag_52:\n        /* \"#utility.yul\":3864:3867   */\n      0x00\n        /* \"#utility.yul\":3885:3952   */\n      tag_93\n        /* \"#utility.yul\":3949:3951   */\n      0x0a\n        /* \"#utility.yul\":3944:3947   */\n      dup4\n        /* \"#utility.yul\":3885:3952   */\n      tag_48\n      jump\t// in\n    tag_93:\n        /* \"#utility.yul\":3878:3952   */\n      swap2\n      pop\n        /* \"#utility.yul\":3961:4054   */\n      tag_94\n        /* \"#utility.yul\":4050:4053   */\n      dup3\n        /* \"#utility.yul\":3961:4054   */\n      tag_51\n      jump\t// in\n    tag_94:\n        /* \"#utility.yul\":4079:4081   */\n      0x20\n        /* \"#utility.yul\":4074:4077   */\n      dup3\n        /* \"#utility.yul\":4070:4082   */\n      add\n        /* \"#utility.yul\":4063:4082   */\n      swap1\n      pop\n        /* \"#utility.yul\":3722:4088   */\n      swap2\n      swap1\n      pop\n      jump\t// out\n        /* \"#utility.yul\":4094:4513   */\n    tag_32:\n        /* \"#utility.yul\":4260:4264   */\n      0x00\n        /* \"#utility.yul\":4298:4300   */\n      0x20\n        /* \"#utility.yul\":4287:4296   */\n      dup3\n        /* \"#utility.yul\":4283:4301   */\n      add\n        /* \"#utility.yul\":4275:4301   */\n      swap1\n      pop\n        /* \"#utility.yul\":4347:4356   */\n      dup2\n        /* \"#utility.yul\":4341:4345   */\n      dup2\n        /* \"#utility.yul\":4337:4357   */\n      sub\n        /* \"#utility.yul\":4333:4334   */\n      0x00\n        /* \"#utility.yul\":4322:4331   */\n      dup4\n        /* \"#utility.yul\":4318:4335   */\n      add\n        /* \"#utility.yul\":4311:4358   */\n      mstore\n        /* \"#utility.yul\":4375:4506   */\n      tag_96\n        /* \"#utility.yul\":4501:4505   */\n      dup2\n        /* \"#utility.yul\":4375:4506   */\n      tag_52\n      jump\t// in\n    tag_96:\n        /* \"#utility.yul\":4367:4506   */\n      swap1\n      pop\n        /* \"#utility.yul\":4094:4513   */\n      swap2\n      swap1\n      pop\n      jump\t// out\n\n    auxdata: 0xa26469706673582212201a6920cbd0032cf5b30f13e336bae4e0468a70c3da41174c131fa1c101e81bbd64736f6c63430008110033\n}\n",
				"bytecode": {
					"linkReferences": {},
					"object": "60e0604052336000806101000a81548173ffffffffffffffffffffffffffffffffffffffff021916908373ffffffffffffffffffffffffffffffffffffffff1602179055504260808181525050603c60a0818152505060a05160805161006591906100aa565b60c081815250506100de565b6000819050919050565b7f4e487b7100000000000000000000000000000000000000000000000000000000600052601160045260246000fd5b60006100b582610071565b91506100c083610071565b92508282019050808211156100d8576100d761007b565b5b92915050565b60805160a05160c05161053d61010460003960005050600050506000505061053d6000f3fe6080604052600436106100385760003560e01c806349ab6beb1461007b578063b69ef8a8146100a4578063d7781801146100cf57610076565b36610076577f9e9e2cfb62e2a54c39a5e9d6df903460d2926683b45bbb6e661ba24c5f055e273460405161006c9190610307565b60405180910390a1005b600080fd5b34801561008757600080fd5b506100a2600480360381019061009d9190610353565b6100eb565b005b3480156100b057600080fd5b506100b96101c9565b6040516100c69190610307565b60405180910390f35b6100e960048036038101906100e491906103de565b6101d1565b005b3373ffffffffffffffffffffffffffffffffffffffff1660008054906101000a900473ffffffffffffffffffffffffffffffffffffffff1673ffffffffffffffffffffffffffffffffffffffff1614610179576040517f08c379a00000000000000000000000000000000000000000000000000000000081526004016101709061047b565b60405180910390fd5b7f9658f8f30d3594cc1908c0c535f4ed6b71f71874a813b56924fdd3c43136c49a816040516101a89190610307565b60405180910390a13373ffffffffffffffffffffffffffffffffffffffff16ff5b600047905090565b6001471015610215576040517f08c379a000000000000000000000000000000000000000000000000000000000815260040161020c906104e7565b60405180910390fd5b60008054906101000a900473ffffffffffffffffffffffffffffffffffffffff1673ffffffffffffffffffffffffffffffffffffffff163373ffffffffffffffffffffffffffffffffffffffff16146102a3576040517f08c379a000000000000000000000000000000000000000000000000000000000815260040161029a9061047b565b60405180910390fd5b8173ffffffffffffffffffffffffffffffffffffffff166108fc829081150290604051600060405180830381858888f193505050501580156102e9573d6000803e3d6000fd5b505050565b6000819050919050565b610301816102ee565b82525050565b600060208201905061031c60008301846102f8565b92915050565b600080fd5b610330816102ee565b811461033b57600080fd5b50565b60008135905061034d81610327565b92915050565b60006020828403121561036957610368610322565b5b60006103778482850161033e565b91505092915050565b600073ffffffffffffffffffffffffffffffffffffffff82169050919050565b60006103ab82610380565b9050919050565b6103bb816103a0565b81146103c657600080fd5b50565b6000813590506103d8816103b2565b92915050565b600080604083850312156103f5576103f4610322565b5b6000610403858286016103c9565b92505060206104148582860161033e565b9150509250929050565b600082825260208201905092915050565b7f6e6f74206f776e65720000000000000000000000000000000000000000000000600082015250565b600061046560098361041e565b91506104708261042f565b602082019050919050565b6000602082019050818103600083015261049481610458565b9050919050565b7f6e6f2062616c616e636500000000000000000000000000000000000000000000600082015250565b60006104d1600a8361041e565b91506104dc8261049b565b602082019050919050565b60006020820190508181036000830152610500816104c4565b905091905056fea26469706673582212201a6920cbd0032cf5b30f13e336bae4e0468a70c3da41174c131fa1c101e81bbd64736f6c63430008110033",
					"opcodes": "PUSH1 0xE0 PUSH1 0x40 MSTORE CALLER PUSH1 0x0 DUP1 PUSH2 0x100 EXP DUP2 SLOAD DUP2 PUSH20 0xFFFFFFFFFFFFFFFFFFFFFFFFFFFFFFFFFFFFFFFF MUL NOT AND SWAP1 DUP4 PUSH20 0xFFFFFFFFFFFFFFFFFFFFFFFFFFFFFFFFFFFFFFFF AND MUL OR SWAP1 SSTORE POP TIMESTAMP PUSH1 0x80 DUP2 DUP2 MSTORE POP POP PUSH1 0x3C PUSH1 0xA0 DUP2 DUP2 MSTORE POP POP PUSH1 0xA0 MLOAD PUSH1 0x80 MLOAD PUSH2 0x65 SWAP2 SWAP1 PUSH2 0xAA JUMP JUMPDEST PUSH1 0xC0 DUP2 DUP2 MSTORE POP POP PUSH2 0xDE JUMP JUMPDEST PUSH1 0x0 DUP2 SWAP1 POP SWAP2 SWAP1 POP JUMP JUMPDEST PUSH32 0x4E487B7100000000000000000000000000000000000000000000000000000000 PUSH1 0x0 MSTORE PUSH1 0x11 PUSH1 0x4 MSTORE PUSH1 0x24 PUSH1 0x0 REVERT JUMPDEST PUSH1 0x0 PUSH2 0xB5 DUP3 PUSH2 0x71 JUMP JUMPDEST SWAP2 POP PUSH2 0xC0 DUP4 PUSH2 0x71 JUMP JUMPDEST SWAP3 POP DUP3 DUP3 ADD SWAP1 POP DUP1 DUP3 GT ISZERO PUSH2 0xD8 JUMPI PUSH2 0xD7 PUSH2 0x7B JUMP JUMPDEST JUMPDEST SWAP3 SWAP2 POP POP JUMP JUMPDEST PUSH1 0x80 MLOAD PUSH1 0xA0 MLOAD PUSH1 0xC0 MLOAD PUSH2 0x53D PUSH2 0x104 PUSH1 0x0 CODECOPY PUSH1 0x0 POP POP PUSH1 0x0 POP POP PUSH1 0x0 POP POP PUSH2 0x53D PUSH1 0x0 RETURN INVALID PUSH1 0x80 PUSH1 0x40 MSTORE PUSH1 0x4 CALLDATASIZE LT PUSH2 0x38 JUMPI PUSH1 0x0 CALLDATALOAD PUSH1 0xE0 SHR DUP1 PUSH4 0x49AB6BEB EQ PUSH2 0x7B JUMPI DUP1 PUSH4 0xB69EF8A8 EQ PUSH2 0xA4 JUMPI DUP1 PUSH4 0xD7781801 EQ PUSH2 0xCF JUMPI PUSH2 0x76 JUMP JUMPDEST CALLDATASIZE PUSH2 0x76 JUMPI PUSH32 0x9E9E2CFB62E2A54C39A5E9D6DF903460D2926683B45BBB6E661BA24C5F055E27 CALLVALUE PUSH1 0x40 MLOAD PUSH2 0x6C SWAP2 SWAP1 PUSH2 0x307 JUMP JUMPDEST PUSH1 0x40 MLOAD DUP1 SWAP2 SUB SWAP1 LOG1 STOP JUMPDEST PUSH1 0x0 DUP1 REVERT JUMPDEST CALLVALUE DUP1 ISZERO PUSH2 0x87 JUMPI PUSH1 0x0 DUP1 REVERT JUMPDEST POP PUSH2 0xA2 PUSH1 0x4 DUP1 CALLDATASIZE SUB DUP2 ADD SWAP1 PUSH2 0x9D SWAP2 SWAP1 PUSH2 0x353 JUMP JUMPDEST PUSH2 0xEB JUMP JUMPDEST STOP JUMPDEST CALLVALUE DUP1 ISZERO PUSH2 0xB0 JUMPI PUSH1 0x0 DUP1 REVERT JUMPDEST POP PUSH2 0xB9 PUSH2 0x1C9 JUMP JUMPDEST PUSH1 0x40 MLOAD PUSH2 0xC6 SWAP2 SWAP1 PUSH2 0x307 JUMP JUMPDEST PUSH1 0x40 MLOAD DUP1 SWAP2 SUB SWAP1 RETURN JUMPDEST PUSH2 0xE9 PUSH1 0x4 DUP1 CALLDATASIZE SUB DUP2 ADD SWAP1 PUSH2 0xE4 SWAP2 SWAP1 PUSH2 0x3DE JUMP JUMPDEST PUSH2 0x1D1 JUMP JUMPDEST STOP JUMPDEST CALLER PUSH20 0xFFFFFFFFFFFFFFFFFFFFFFFFFFFFFFFFFFFFFFFF AND PUSH1 0x0 DUP1 SLOAD SWAP1 PUSH2 0x100 EXP SWAP1 DIV PUSH20 0xFFFFFFFFFFFFFFFFFFFFFFFFFFFFFFFFFFFFFFFF AND PUSH20 0xFFFFFFFFFFFFFFFFFFFFFFFFFFFFFFFFFFFFFFFF AND EQ PUSH2 0x179 JUMPI PUSH1 0x40 MLOAD PUSH32 0x8C379A000000000000000000000000000000000000000000000000000000000 DUP2 MSTORE PUSH1 0x4 ADD PUSH2 0x170 SWAP1 PUSH2 0x47B JUMP JUMPDEST PUSH1 0x40 MLOAD DUP1 SWAP2 SUB SWAP1 REVERT JUMPDEST PUSH32 0x9658F8F30D3594CC1908C0C535F4ED6B71F71874A813B56924FDD3C43136C49A DUP2 PUSH1 0x40 MLOAD PUSH2 0x1A8 SWAP2 SWAP1 PUSH2 0x307 JUMP JUMPDEST PUSH1 0x40 MLOAD DUP1 SWAP2 SUB SWAP1 LOG1 CALLER PUSH20 0xFFFFFFFFFFFFFFFFFFFFFFFFFFFFFFFFFFFFFFFF AND SELFDESTRUCT JUMPDEST PUSH1 0x0 SELFBALANCE SWAP1 POP SWAP1 JUMP JUMPDEST PUSH1 0x1 SELFBALANCE LT ISZERO PUSH2 0x215 JUMPI PUSH1 0x40 MLOAD PUSH32 0x8C379A000000000000000000000000000000000000000000000000000000000 DUP2 MSTORE PUSH1 0x4 ADD PUSH2 0x20C SWAP1 PUSH2 0x4E7 JUMP JUMPDEST PUSH1 0x40 MLOAD DUP1 SWAP2 SUB SWAP1 REVERT JUMPDEST PUSH1 0x0 DUP1 SLOAD SWAP1 PUSH2 0x100 EXP SWAP1 DIV PUSH20 0xFFFFFFFFFFFFFFFFFFFFFFFFFFFFFFFFFFFFFFFF AND PUSH20 0xFFFFFFFFFFFFFFFFFFFFFFFFFFFFFFFFFFFFFFFF AND CALLER PUSH20 0xFFFFFFFFFFFFFFFFFFFFFFFFFFFFFFFFFFFFFFFF AND EQ PUSH2 0x2A3 JUMPI PUSH1 0x40 MLOAD PUSH32 0x8C379A000000000000000000000000000000000000000000000000000000000 DUP2 MSTORE PUSH1 0x4 ADD PUSH2 0x29A SWAP1 PUSH2 0x47B JUMP JUMPDEST PUSH1 0x40 MLOAD DUP1 SWAP2 SUB SWAP1 REVERT JUMPDEST DUP2 PUSH20 0xFFFFFFFFFFFFFFFFFFFFFFFFFFFFFFFFFFFFFFFF AND PUSH2 0x8FC DUP3 SWAP1 DUP2 ISZERO MUL SWAP1 PUSH1 0x40 MLOAD PUSH1 0x0 PUSH1 0x40 MLOAD DUP1 DUP4 SUB DUP2 DUP6 DUP9 DUP9 CALL SWAP4 POP POP POP POP ISZERO DUP1 ISZERO PUSH2 0x2E9 JUMPI RETURNDATASIZE PUSH1 0x0 DUP1 RETURNDATACOPY RETURNDATASIZE PUSH1 0x0 REVERT JUMPDEST POP POP POP JUMP JUMPDEST PUSH1 0x0 DUP2 SWAP1 POP SWAP2 SWAP1 POP JUMP JUMPDEST PUSH2 0x301 DUP2 PUSH2 0x2EE JUMP JUMPDEST DUP3 MSTORE POP POP JUMP JUMPDEST PUSH1 0x0 PUSH1 0x20 DUP3 ADD SWAP1 POP PUSH2 0x31C PUSH1 0x0 DUP4 ADD DUP5 PUSH2 0x2F8 JUMP JUMPDEST SWAP3 SWAP2 POP POP JUMP JUMPDEST PUSH1 0x0 DUP1 REVERT JUMPDEST PUSH2 0x330 DUP2 PUSH2 0x2EE JUMP JUMPDEST DUP2 EQ PUSH2 0x33B JUMPI PUSH1 0x0 DUP1 REVERT JUMPDEST POP JUMP JUMPDEST PUSH1 0x0 DUP2 CALLDATALOAD SWAP1 POP PUSH2 0x34D DUP2 PUSH2 0x327 JUMP JUMPDEST SWAP3 SWAP2 POP POP JUMP JUMPDEST PUSH1 0x0 PUSH1 0x20 DUP3 DUP5 SUB SLT ISZERO PUSH2 0x369 JUMPI PUSH2 0x368 PUSH2 0x322 JUMP JUMPDEST JUMPDEST PUSH1 0x0 PUSH2 0x377 DUP5 DUP3 DUP6 ADD PUSH2 0x33E JUMP JUMPDEST SWAP2 POP POP SWAP3 SWAP2 POP POP JUMP JUMPDEST PUSH1 0x0 PUSH20 0xFFFFFFFFFFFFFFFFFFFFFFFFFFFFFFFFFFFFFFFF DUP3 AND SWAP1 POP SWAP2 SWAP1 POP JUMP JUMPDEST PUSH1 0x0 PUSH2 0x3AB DUP3 PUSH2 0x380 JUMP JUMPDEST SWAP1 POP SWAP2 SWAP1 POP JUMP JUMPDEST PUSH2 0x3BB DUP2 PUSH2 0x3A0 JUMP JUMPDEST DUP2 EQ PUSH2 0x3C6 JUMPI PUSH1 0x0 DUP1 REVERT JUMPDEST POP JUMP JUMPDEST PUSH1 0x0 DUP2 CALLDATALOAD SWAP1 POP PUSH2 0x3D8 DUP2 PUSH2 0x3B2 JUMP JUMPDEST SWAP3 SWAP2 POP POP JUMP JUMPDEST PUSH1 0x0 DUP1 PUSH1 0x40 DUP4 DUP6 SUB SLT ISZERO PUSH2 0x3F5 JUMPI PUSH2 0x3F4 PUSH2 0x322 JUMP JUMPDEST JUMPDEST PUSH1 0x0 PUSH2 0x403 DUP6 DUP3 DUP7 ADD PUSH2 0x3C9 JUMP JUMPDEST SWAP3 POP POP PUSH1 0x20 PUSH2 0x414 DUP6 DUP3 DUP7 ADD PUSH2 0x33E JUMP JUMPDEST SWAP2 POP POP SWAP3 POP SWAP3 SWAP1 POP JUMP JUMPDEST PUSH1 0x0 DUP3 DUP3 MSTORE PUSH1 0x20 DUP3 ADD SWAP1 POP SWAP3 SWAP2 POP POP JUMP JUMPDEST PUSH32 0x6E6F74206F776E65720000000000000000000000000000000000000000000000 PUSH1 0x0 DUP3 ADD MSTORE POP JUMP JUMPDEST PUSH1 0x0 PUSH2 0x465 PUSH1 0x9 DUP4 PUSH2 0x41E JUMP JUMPDEST SWAP2 POP PUSH2 0x470 DUP3 PUSH2 0x42F JUMP JUMPDEST PUSH1 0x20 DUP3 ADD SWAP1 POP SWAP2 SWAP1 POP JUMP JUMPDEST PUSH1 0x0 PUSH1 0x20 DUP3 ADD SWAP1 POP DUP2 DUP2 SUB PUSH1 0x0 DUP4 ADD MSTORE PUSH2 0x494 DUP2 PUSH2 0x458 JUMP JUMPDEST SWAP1 POP SWAP2 SWAP1 POP JUMP JUMPDEST PUSH32 0x6E6F2062616C616E636500000000000000000000000000000000000000000000 PUSH1 0x0 DUP3 ADD MSTORE POP JUMP JUMPDEST PUSH1 0x0 PUSH2 0x4D1 PUSH1 0xA DUP4 PUSH2 0x41E JUMP JUMPDEST SWAP2 POP PUSH2 0x4DC DUP3 PUSH2 0x49B JUMP JUMPDEST PUSH1 0x20 DUP3 ADD SWAP1 POP SWAP2 SWAP1 POP JUMP JUMPDEST PUSH1 0x0 PUSH1 0x20 DUP3 ADD SWAP1 POP DUP2 DUP2 SUB PUSH1 0x0 DUP4 ADD MSTORE PUSH2 0x500 DUP2 PUSH2 0x4C4 JUMP JUMPDEST SWAP1 POP SWAP2 SWAP1 POP JUMP INVALID LOG2 PUSH5 0x6970667358 0x22 SLT KECCAK256 BYTE PUSH10 0x20CBD0032CF5B30F13E3 CALLDATASIZE 0xBA 0xE4 0xE0 CHAINID DUP11 PUSH17 0xC3DA41174C131FA1C101E81BBD64736F6C PUSH4 0x43000811 STOP CALLER "
				},
				"gasEstimates": {
					"creation": {
						"codeDepositCost": "268200",
						"executionCost": "infinite",
						"totalCost": "infinite"
					},
					"external": {
						"Piggywith(uint256)": "infinite",
						"balance()": "339",
						"sendd(address,uint256)": "infinite"
					}
				},
				"methodIdentifiers": {
					"Piggywith(uint256)": "49ab6beb",
					"balance()": "b69ef8a8",
					"sendd(address,uint256)": "d7781801"
				}
			},
			"storageLayout": {
				"storage": [
					{
						"astId": 9,
						"contract": "remix_ide/PROJECT/MARK_11TA.sol:send_ether",
						"label": "owner_contract",
						"offset": 0,
						"slot": "0",
						"type": "t_address"
					},
					{
						"astId": 11,
						"contract": "remix_ide/PROJECT/MARK_11TA.sol:send_ether",
						"label": "res",
						"offset": 0,
						"slot": "1",
						"type": "t_string_storage"
					}
				],
				"types": {
					"t_address": {
						"encoding": "inplace",
						"label": "address",
						"numberOfBytes": "20"
					},
					"t_string_storage": {
						"encoding": "bytes",
						"label": "string",
						"numberOfBytes": "32"
					}
				}
			},
			"userdoc": {
				"kind": "user",
				"methods": {},
				"version": 1
			}
		}
	}
}