{
	"remix ide/PROJECT/drug.sol": {
		"trace_drug": {
			"abi": [
				{
					"inputs": [
						{
							"internalType": "uint256",
							"name": "indexx",
							"type": "uint256"
						}
					],
					"name": "access",
					"outputs": [
						{
							"internalType": "uint256",
							"name": "",
							"type": "uint256"
						},
						{
							"internalType": "string",
							"name": "",
							"type": "string"
						},
						{
							"internalType": "uint256",
							"name": "",
							"type": "uint256"
						},
						{
							"internalType": "uint256",
							"name": "",
							"type": "uint256"
						}
					],
					"stateMutability": "view",
					"type": "function"
				},
				{
					"inputs": [
						{
							"internalType": "uint256",
							"name": "",
							"type": "uint256"
						}
					],
					"name": "drugs",
					"outputs": [
						{
							"internalType": "uint256",
							"name": "serial_no",
							"type": "uint256"
						},
						{
							"internalType": "string",
							"name": "drug_name",
							"type": "string"
						},
						{
							"internalType": "uint256",
							"name": "drug_quantity",
							"type": "uint256"
						},
						{
							"internalType": "uint256",
							"name": "drug_value",
							"type": "uint256"
						}
					],
					"stateMutability": "view",
					"type": "function"
				},
				{
					"inputs": [
						{
							"internalType": "uint256",
							"name": "no",
							"type": "uint256"
						},
						{
							"internalType": "string",
							"name": "name",
							"type": "string"
						},
						{
							"internalType": "uint256",
							"name": "weight",
							"type": "uint256"
						},
						{
							"internalType": "uint256",
							"name": "amount",
							"type": "uint256"
						}
					],
					"name": "insert_data",
					"outputs": [],
					"stateMutability": "nonpayable",
					"type": "function"
				},
				{
					"inputs": [],
					"name": "show",
					"outputs": [
						{
							"internalType": "string",
							"name": "",
							"type": "string"
						}
					],
					"stateMutability": "view",
					"type": "function"
				},
				{
					"inputs": [
						{
							"internalType": "uint256",
							"name": "index1",
							"type": "uint256"
						},
						{
							"internalType": "string",
							"name": "name1",
							"type": "string"
						}
					],
					"name": "up_name",
					"outputs": [],
					"stateMutability": "nonpayable",
					"type": "function"
				},
				{
					"inputs": [
						{
							"internalType": "uint256",
							"name": "index2",
							"type": "uint256"
						},
						{
							"internalType": "uint256",
							"name": "weight1",
							"type": "uint256"
						}
					],
					"name": "up_quantity",
					"outputs": [],
					"stateMutability": "nonpayable",
					"type": "function"
				},
				{
					"inputs": [
						{
							"internalType": "uint256",
							"name": "index3",
							"type": "uint256"
						},
						{
							"internalType": "uint256",
							"name": "amount1",
							"type": "uint256"
						}
					],
					"name": "up_value",
					"outputs": [],
					"stateMutability": "nonpayable",
					"type": "function"
				},
				{
					"inputs": [
						{
							"internalType": "uint256",
							"name": "index0",
							"type": "uint256"
						},
						{
							"internalType": "uint256",
							"name": "no1",
							"type": "uint256"
						}
					],
					"name": "update_data",
					"outputs": [],
					"stateMutability": "nonpayable",
					"type": "function"
				}
			],
			"devdoc": {
				"kind": "dev",
				"methods": {},
				"version": 1
			},
			"evm": {
				"assembly": "    /* \"remix ide/PROJECT/drug.sol\":55:1687  contract trace_drug\r... */\n  mstore(0x40, 0x80)\n    /* \"remix ide/PROJECT/drug.sol\":207:367  string s=\"use index \"\r... */\n  mload(0x40)\n  dup1\n  0x80\n  add\n  0x40\n  mstore\n  dup1\n  0x55\n  dup2\n  mstore\n  0x20\n  add\n  data_f0fbcc4762b76e6d81144b22bcfd88381b19db3122d6c72ffc361d27a9817ebd\n  0x55\n  swap2\n  codecopy\n  0x00\n  swap1\n  dup1\n  mload\n  swap1\n  0x20\n  add\n  swap1\n  tag_1\n  swap3\n  swap2\n  swap1\n  tag_2\n  jump\t// in\ntag_1:\n  pop\n    /* \"remix ide/PROJECT/drug.sol\":520:530  msg.sender */\n  caller\n    /* \"remix ide/PROJECT/drug.sol\":506:530  address owner=msg.sender */\n  0x01\n  exp(0x0100, 0x00)\n  dup2\n  sload\n  dup2\n  0xffffffffffffffffffffffffffffffffffffffff\n  mul\n  not\n  and\n  swap1\n  dup4\n  0xffffffffffffffffffffffffffffffffffffffff\n  and\n  mul\n  or\n  swap1\n  sstore\n  pop\n    /* \"remix ide/PROJECT/drug.sol\":55:1687  contract trace_drug\r... */\n  callvalue\n  dup1\n  iszero\n  tag_3\n  jumpi\n  0x00\n  dup1\n  revert\ntag_3:\n  pop\n  jump(tag_4)\ntag_2:\n  dup3\n  dup1\n  sload\n  tag_5\n  swap1\n  tag_6\n  jump\t// in\ntag_5:\n  swap1\n  0x00\n  mstore\n  keccak256(0x00, 0x20)\n  swap1\n  0x1f\n  add\n  0x20\n  swap1\n  div\n  dup2\n  add\n  swap3\n  dup3\n  tag_8\n  jumpi\n  0x00\n  dup6\n  sstore\n  jump(tag_7)\ntag_8:\n  dup3\n  0x1f\n  lt\n  tag_9\n  jumpi\n  dup1\n  mload\n  not(0xff)\n  and\n  dup4\n  dup1\n  add\n  or\n  dup6\n  sstore\n  jump(tag_7)\ntag_9:\n  dup3\n  dup1\n  add\n  0x01\n  add\n  dup6\n  sstore\n  dup3\n  iszero\n  tag_7\n  jumpi\n  swap2\n  dup3\n  add\ntag_10:\n  dup3\n  dup2\n  gt\n  iszero\n  tag_11\n  jumpi\n  dup3\n  mload\n  dup3\n  sstore\n  swap2\n  0x20\n  add\n  swap2\n  swap1\n  0x01\n  add\n  swap1\n  jump(tag_10)\ntag_11:\ntag_7:\n  pop\n  swap1\n  pop\n  tag_12\n  swap2\n  swap1\n  tag_13\n  jump\t// in\ntag_12:\n  pop\n  swap1\n  jump\t// out\ntag_13:\ntag_14:\n  dup1\n  dup3\n  gt\n  iszero\n  tag_15\n  jumpi\n  0x00\n  dup2\n  0x00\n  swap1\n  sstore\n  pop\n  0x01\n  add\n  jump(tag_14)\ntag_15:\n  pop\n  swap1\n  jump\t// out\n    /* \"#utility.yul\":7:327   */\ntag_6:\n    /* \"#utility.yul\":51:57   */\n  0x00\n    /* \"#utility.yul\":88:89   */\n  0x02\n    /* \"#utility.yul\":82:86   */\n  dup3\n    /* \"#utility.yul\":78:90   */\n  div\n    /* \"#utility.yul\":68:90   */\n  swap1\n  pop\n    /* \"#utility.yul\":135:136   */\n  0x01\n    /* \"#utility.yul\":129:133   */\n  dup3\n    /* \"#utility.yul\":125:137   */\n  and\n    /* \"#utility.yul\":156:174   */\n  dup1\n    /* \"#utility.yul\":146:227   */\n  tag_18\n  jumpi\n    /* \"#utility.yul\":212:216   */\n  0x7f\n    /* \"#utility.yul\":204:210   */\n  dup3\n    /* \"#utility.yul\":200:217   */\n  and\n    /* \"#utility.yul\":190:217   */\n  swap2\n  pop\n    /* \"#utility.yul\":146:227   */\ntag_18:\n    /* \"#utility.yul\":274:276   */\n  0x20\n    /* \"#utility.yul\":266:272   */\n  dup3\n    /* \"#utility.yul\":263:277   */\n  lt\n    /* \"#utility.yul\":243:261   */\n  dup2\n    /* \"#utility.yul\":240:278   */\n  eq\n    /* \"#utility.yul\":237:321   */\n  iszero\n  tag_19\n  jumpi\n    /* \"#utility.yul\":293:311   */\n  tag_20\n  tag_21\n  jump\t// in\ntag_20:\n    /* \"#utility.yul\":237:321   */\ntag_19:\n    /* \"#utility.yul\":58:327   */\n  pop\n    /* \"#utility.yul\":7:327   */\n  swap2\n  swap1\n  pop\n  jump\t// out\n    /* \"#utility.yul\":333:513   */\ntag_21:\n    /* \"#utility.yul\":381:458   */\n  0x4e487b7100000000000000000000000000000000000000000000000000000000\n    /* \"#utility.yul\":378:379   */\n  0x00\n    /* \"#utility.yul\":371:459   */\n  mstore\n    /* \"#utility.yul\":478:482   */\n  0x22\n    /* \"#utility.yul\":475:476   */\n  0x04\n    /* \"#utility.yul\":468:483   */\n  mstore\n    /* \"#utility.yul\":502:506   */\n  0x24\n    /* \"#utility.yul\":499:500   */\n  0x00\n    /* \"#utility.yul\":492:507   */\n  revert\n    /* \"remix ide/PROJECT/drug.sol\":55:1687  contract trace_drug\r... */\ntag_4:\n  dataSize(sub_0)\n  dup1\n  dataOffset(sub_0)\n  0x00\n  codecopy\n  0x00\n  return\nstop\ndata_f0fbcc4762b76e6d81144b22bcfd88381b19db3122d6c72ffc361d27a9817ebd 75736520696e64657820303d73657269616c5f6e6f3a6e6f20313d647275675f6e616d653a6e616d6520323d647275675f7175616e746974793a77656967687420333d647275675f76616c75653a616d6f756e7420\n\nsub_0: assembly {\n        /* \"remix ide/PROJECT/drug.sol\":55:1687  contract trace_drug\r... */\n      mstore(0x40, 0x80)\n      callvalue\n      dup1\n      iszero\n      tag_1\n      jumpi\n      0x00\n      dup1\n      revert\n    tag_1:\n      pop\n      jumpi(tag_2, lt(calldatasize, 0x04))\n      shr(0xe0, calldataload(0x00))\n      dup1\n      0x96698d2e\n      gt\n      tag_11\n      jumpi\n      dup1\n      0x96698d2e\n      eq\n      tag_7\n      jumpi\n      dup1\n      0xafa3590f\n      eq\n      tag_8\n      jumpi\n      dup1\n      0xcc80f6f3\n      eq\n      tag_9\n      jumpi\n      dup1\n      0xfca5e61e\n      eq\n      tag_10\n      jumpi\n      jump(tag_2)\n    tag_11:\n      dup1\n      0x32e342e6\n      eq\n      tag_3\n      jumpi\n      dup1\n      0x5923e919\n      eq\n      tag_4\n      jumpi\n      dup1\n      0x60f1fc32\n      eq\n      tag_5\n      jumpi\n      dup1\n      0x803ad4de\n      eq\n      tag_6\n      jumpi\n    tag_2:\n      0x00\n      dup1\n      revert\n        /* \"remix ide/PROJECT/drug.sol\":828:950  function update_data(uint index0, uint no1)  public\r... */\n    tag_3:\n      tag_12\n      0x04\n      dup1\n      calldatasize\n      sub\n      dup2\n      add\n      swap1\n      tag_13\n      swap2\n      swap1\n      tag_14\n      jump\t// in\n    tag_13:\n      tag_15\n      jump\t// in\n    tag_12:\n      stop\n        /* \"remix ide/PROJECT/drug.sol\":1100:1234  function up_quantity(uint index2, uint weight1) public{\r... */\n    tag_4:\n      tag_16\n      0x04\n      dup1\n      calldatasize\n      sub\n      dup2\n      add\n      swap1\n      tag_17\n      swap2\n      swap1\n      tag_14\n      jump\t// in\n    tag_17:\n      tag_18\n      jump\t// in\n    tag_16:\n      stop\n        /* \"remix ide/PROJECT/drug.sol\":956:1094  function up_name(uint index1, string memory name1)  public\r... */\n    tag_5:\n      tag_19\n      0x04\n      dup1\n      calldatasize\n      sub\n      dup2\n      add\n      swap1\n      tag_20\n      swap2\n      swap1\n      tag_21\n      jump\t// in\n    tag_20:\n      tag_22\n      jump\t// in\n    tag_19:\n      stop\n        /* \"remix ide/PROJECT/drug.sol\":1463:1684  function access(uint indexx) view public returns(uint,string memory,uint,uint)\r... */\n    tag_6:\n      tag_23\n      0x04\n      dup1\n      calldatasize\n      sub\n      dup2\n      add\n      swap1\n      tag_24\n      swap2\n      swap1\n      tag_25\n      jump\t// in\n    tag_24:\n      tag_26\n      jump\t// in\n    tag_23:\n      mload(0x40)\n      tag_27\n      swap5\n      swap4\n      swap3\n      swap2\n      swap1\n      tag_28\n      jump\t// in\n    tag_27:\n      mload(0x40)\n      dup1\n      swap2\n      sub\n      swap1\n      return\n        /* \"remix ide/PROJECT/drug.sol\":1240:1368  function up_value(uint index3, uint amount1) public{\r... */\n    tag_7:\n      tag_29\n      0x04\n      dup1\n      calldatasize\n      sub\n      dup2\n      add\n      swap1\n      tag_30\n      swap2\n      swap1\n      tag_14\n      jump\t// in\n    tag_30:\n      tag_31\n      jump\t// in\n    tag_29:\n      stop\n        /* \"remix ide/PROJECT/drug.sol\":563:822  function insert_data(uint no,string memory name, uint weight, uint amount) public \r... */\n    tag_8:\n      tag_32\n      0x04\n      dup1\n      calldatasize\n      sub\n      dup2\n      add\n      swap1\n      tag_33\n      swap2\n      swap1\n      tag_34\n      jump\t// in\n    tag_33:\n      tag_35\n      jump\t// in\n    tag_32:\n      stop\n        /* \"remix ide/PROJECT/drug.sol\":1374:1457  function show() public view returns(string memory)\r... */\n    tag_9:\n      tag_36\n      tag_37\n      jump\t// in\n    tag_36:\n      mload(0x40)\n      tag_38\n      swap2\n      swap1\n      tag_39\n      jump\t// in\n    tag_38:\n      mload(0x40)\n      dup1\n      swap2\n      sub\n      swap1\n      return\n        /* \"remix ide/PROJECT/drug.sol\":537:556  drug[] public drugs */\n    tag_10:\n      tag_40\n      0x04\n      dup1\n      calldatasize\n      sub\n      dup2\n      add\n      swap1\n      tag_41\n      swap2\n      swap1\n      tag_25\n      jump\t// in\n    tag_41:\n      tag_42\n      jump\t// in\n    tag_40:\n      mload(0x40)\n      tag_43\n      swap5\n      swap4\n      swap3\n      swap2\n      swap1\n      tag_28\n      jump\t// in\n    tag_43:\n      mload(0x40)\n      dup1\n      swap2\n      sub\n      swap1\n      return\n        /* \"remix ide/PROJECT/drug.sol\":828:950  function update_data(uint index0, uint no1)  public\r... */\n    tag_15:\n        /* \"remix ide/PROJECT/drug.sol\":939:942  no1 */\n      dup1\n        /* \"remix ide/PROJECT/drug.sol\":915:920  drugs */\n      0x02\n        /* \"remix ide/PROJECT/drug.sol\":921:927  index0 */\n      dup4\n        /* \"remix ide/PROJECT/drug.sol\":915:928  drugs[index0] */\n      dup2\n      sload\n      dup2\n      lt\n      tag_45\n      jumpi\n      tag_46\n      tag_47\n      jump\t// in\n    tag_46:\n    tag_45:\n      swap1\n      0x00\n      mstore\n      keccak256(0x00, 0x20)\n      swap1\n      0x04\n      mul\n      add\n        /* \"remix ide/PROJECT/drug.sol\":915:938  drugs[index0].serial_no */\n      0x00\n      add\n        /* \"remix ide/PROJECT/drug.sol\":915:942  drugs[index0].serial_no=no1 */\n      dup2\n      swap1\n      sstore\n      pop\n        /* \"remix ide/PROJECT/drug.sol\":828:950  function update_data(uint index0, uint no1)  public\r... */\n      pop\n      pop\n      jump\t// out\n        /* \"remix ide/PROJECT/drug.sol\":1100:1234  function up_quantity(uint index2, uint weight1) public{\r... */\n    tag_18:\n        /* \"remix ide/PROJECT/drug.sol\":1219:1226  weight1 */\n      dup1\n        /* \"remix ide/PROJECT/drug.sol\":1191:1196  drugs */\n      0x02\n        /* \"remix ide/PROJECT/drug.sol\":1197:1203  index2 */\n      dup4\n        /* \"remix ide/PROJECT/drug.sol\":1191:1204  drugs[index2] */\n      dup2\n      sload\n      dup2\n      lt\n      tag_50\n      jumpi\n      tag_51\n      tag_47\n      jump\t// in\n    tag_51:\n    tag_50:\n      swap1\n      0x00\n      mstore\n      keccak256(0x00, 0x20)\n      swap1\n      0x04\n      mul\n      add\n        /* \"remix ide/PROJECT/drug.sol\":1191:1218  drugs[index2].drug_quantity */\n      0x02\n      add\n        /* \"remix ide/PROJECT/drug.sol\":1191:1226  drugs[index2].drug_quantity=weight1 */\n      dup2\n      swap1\n      sstore\n      pop\n        /* \"remix ide/PROJECT/drug.sol\":1100:1234  function up_quantity(uint index2, uint weight1) public{\r... */\n      pop\n      pop\n      jump\t// out\n        /* \"remix ide/PROJECT/drug.sol\":956:1094  function up_name(uint index1, string memory name1)  public\r... */\n    tag_22:\n        /* \"remix ide/PROJECT/drug.sol\":1081:1086  name1 */\n      dup1\n        /* \"remix ide/PROJECT/drug.sol\":1057:1062  drugs */\n      0x02\n        /* \"remix ide/PROJECT/drug.sol\":1063:1069  index1 */\n      dup4\n        /* \"remix ide/PROJECT/drug.sol\":1057:1070  drugs[index1] */\n      dup2\n      sload\n      dup2\n      lt\n      tag_54\n      jumpi\n      tag_55\n      tag_47\n      jump\t// in\n    tag_55:\n    tag_54:\n      swap1\n      0x00\n      mstore\n      keccak256(0x00, 0x20)\n      swap1\n      0x04\n      mul\n      add\n        /* \"remix ide/PROJECT/drug.sol\":1057:1080  drugs[index1].drug_name */\n      0x01\n      add\n        /* \"remix ide/PROJECT/drug.sol\":1057:1086  drugs[index1].drug_name=name1 */\n      swap1\n      dup1\n      mload\n      swap1\n      0x20\n      add\n      swap1\n      tag_57\n      swap3\n      swap2\n      swap1\n      tag_58\n      jump\t// in\n    tag_57:\n      pop\n        /* \"remix ide/PROJECT/drug.sol\":956:1094  function up_name(uint index1, string memory name1)  public\r... */\n      pop\n      pop\n      jump\t// out\n        /* \"remix ide/PROJECT/drug.sol\":1463:1684  function access(uint indexx) view public returns(uint,string memory,uint,uint)\r... */\n    tag_26:\n        /* \"remix ide/PROJECT/drug.sol\":1512:1516  uint */\n      0x00\n        /* \"remix ide/PROJECT/drug.sol\":1517:1530  string memory */\n      0x60\n        /* \"remix ide/PROJECT/drug.sol\":1531:1535  uint */\n      0x00\n        /* \"remix ide/PROJECT/drug.sol\":1536:1540  uint */\n      dup1\n        /* \"remix ide/PROJECT/drug.sol\":1558:1575  drug memory drrug */\n      0x00\n        /* \"remix ide/PROJECT/drug.sol\":1576:1581  drugs */\n      0x02\n        /* \"remix ide/PROJECT/drug.sol\":1582:1588  indexx */\n      dup7\n        /* \"remix ide/PROJECT/drug.sol\":1576:1589  drugs[indexx] */\n      dup2\n      sload\n      dup2\n      lt\n      tag_60\n      jumpi\n      tag_61\n      tag_47\n      jump\t// in\n    tag_61:\n    tag_60:\n      swap1\n      0x00\n      mstore\n      keccak256(0x00, 0x20)\n      swap1\n      0x04\n      mul\n      add\n        /* \"remix ide/PROJECT/drug.sol\":1558:1589  drug memory drrug=drugs[indexx] */\n      mload(0x40)\n      dup1\n      0x80\n      add\n      0x40\n      mstore\n      swap1\n      dup2\n      0x00\n      dup3\n      add\n      sload\n      dup2\n      mstore\n      0x20\n      add\n      0x01\n      dup3\n      add\n      dup1\n      sload\n      tag_63\n      swap1\n      tag_64\n      jump\t// in\n    tag_63:\n      dup1\n      0x1f\n      add\n      0x20\n      dup1\n      swap2\n      div\n      mul\n      0x20\n      add\n      mload(0x40)\n      swap1\n      dup2\n      add\n      0x40\n      mstore\n      dup1\n      swap3\n      swap2\n      swap1\n      dup2\n      dup2\n      mstore\n      0x20\n      add\n      dup3\n      dup1\n      sload\n      tag_65\n      swap1\n      tag_64\n      jump\t// in\n    tag_65:\n      dup1\n      iszero\n      tag_66\n      jumpi\n      dup1\n      0x1f\n      lt\n      tag_67\n      jumpi\n      0x0100\n      dup1\n      dup4\n      sload\n      div\n      mul\n      dup4\n      mstore\n      swap2\n      0x20\n      add\n      swap2\n      jump(tag_66)\n    tag_67:\n      dup3\n      add\n      swap2\n      swap1\n      0x00\n      mstore\n      keccak256(0x00, 0x20)\n      swap1\n    tag_68:\n      dup2\n      sload\n      dup2\n      mstore\n      swap1\n      0x01\n      add\n      swap1\n      0x20\n      add\n      dup1\n      dup4\n      gt\n      tag_68\n      jumpi\n      dup3\n      swap1\n      sub\n      0x1f\n      and\n      dup3\n      add\n      swap2\n    tag_66:\n      pop\n      pop\n      pop\n      pop\n      pop\n      dup2\n      mstore\n      0x20\n      add\n      0x02\n      dup3\n      add\n      sload\n      dup2\n      mstore\n      0x20\n      add\n      0x03\n      dup3\n      add\n      sload\n      dup2\n      mstore\n      pop\n      pop\n      swap1\n      pop\n        /* \"remix ide/PROJECT/drug.sol\":1607:1612  drrug */\n      dup1\n        /* \"remix ide/PROJECT/drug.sol\":1607:1622  drrug.serial_no */\n      0x00\n      add\n      mload\n        /* \"remix ide/PROJECT/drug.sol\":1623:1628  drrug */\n      dup2\n        /* \"remix ide/PROJECT/drug.sol\":1623:1638  drrug.drug_name */\n      0x20\n      add\n      mload\n        /* \"remix ide/PROJECT/drug.sol\":1639:1644  drrug */\n      dup3\n        /* \"remix ide/PROJECT/drug.sol\":1639:1658  drrug.drug_quantity */\n      0x40\n      add\n      mload\n        /* \"remix ide/PROJECT/drug.sol\":1659:1664  drrug */\n      dup4\n        /* \"remix ide/PROJECT/drug.sol\":1659:1675  drrug.drug_value */\n      0x60\n      add\n      mload\n        /* \"remix ide/PROJECT/drug.sol\":1600:1676  return(drrug.serial_no,drrug.drug_name,drrug.drug_quantity,drrug.drug_value) */\n      swap5\n      pop\n      swap5\n      pop\n      swap5\n      pop\n      swap5\n      pop\n      pop\n        /* \"remix ide/PROJECT/drug.sol\":1463:1684  function access(uint indexx) view public returns(uint,string memory,uint,uint)\r... */\n      swap2\n      swap4\n      pop\n      swap2\n      swap4\n      jump\t// out\n        /* \"remix ide/PROJECT/drug.sol\":1240:1368  function up_value(uint index3, uint amount1) public{\r... */\n    tag_31:\n        /* \"remix ide/PROJECT/drug.sol\":1353:1360  amount1 */\n      dup1\n        /* \"remix ide/PROJECT/drug.sol\":1328:1333  drugs */\n      0x02\n        /* \"remix ide/PROJECT/drug.sol\":1334:1340  index3 */\n      dup4\n        /* \"remix ide/PROJECT/drug.sol\":1328:1341  drugs[index3] */\n      dup2\n      sload\n      dup2\n      lt\n      tag_70\n      jumpi\n      tag_71\n      tag_47\n      jump\t// in\n    tag_71:\n    tag_70:\n      swap1\n      0x00\n      mstore\n      keccak256(0x00, 0x20)\n      swap1\n      0x04\n      mul\n      add\n        /* \"remix ide/PROJECT/drug.sol\":1328:1352  drugs[index3].drug_value */\n      0x03\n      add\n        /* \"remix ide/PROJECT/drug.sol\":1328:1360  drugs[index3].drug_value=amount1 */\n      dup2\n      swap1\n      sstore\n      pop\n        /* \"remix ide/PROJECT/drug.sol\":1240:1368  function up_value(uint index3, uint amount1) public{\r... */\n      pop\n      pop\n      jump\t// out\n        /* \"remix ide/PROJECT/drug.sol\":563:822  function insert_data(uint no,string memory name, uint weight, uint amount) public \r... */\n    tag_35:\n        /* \"remix ide/PROJECT/drug.sol\":662:667  drugs */\n      0x02\n        /* \"remix ide/PROJECT/drug.sol\":673:813  drug({\r... */\n      mload(0x40)\n      dup1\n      0x80\n      add\n      0x40\n      mstore\n      dup1\n        /* \"remix ide/PROJECT/drug.sol\":703:705  no */\n      dup7\n        /* \"remix ide/PROJECT/drug.sol\":673:813  drug({\r... */\n      dup2\n      mstore\n      0x20\n      add\n        /* \"remix ide/PROJECT/drug.sol\":730:734  name */\n      dup6\n        /* \"remix ide/PROJECT/drug.sol\":673:813  drug({\r... */\n      dup2\n      mstore\n      0x20\n      add\n        /* \"remix ide/PROJECT/drug.sol\":763:769  weight */\n      dup5\n        /* \"remix ide/PROJECT/drug.sol\":673:813  drug({\r... */\n      dup2\n      mstore\n      0x20\n      add\n        /* \"remix ide/PROJECT/drug.sol\":795:801  amount */\n      dup4\n        /* \"remix ide/PROJECT/drug.sol\":673:813  drug({\r... */\n      dup2\n      mstore\n      pop\n        /* \"remix ide/PROJECT/drug.sol\":662:814  drugs.push(drug({\r... */\n      swap1\n      dup1\n      0x01\n      dup2\n      sload\n      add\n      dup1\n      dup3\n      sstore\n      dup1\n      swap2\n      pop\n      pop\n      0x01\n      swap1\n      sub\n      swap1\n      0x00\n      mstore\n      keccak256(0x00, 0x20)\n      swap1\n      0x04\n      mul\n      add\n      0x00\n      swap1\n      swap2\n      swap1\n      swap2\n      swap1\n      swap2\n      pop\n      0x00\n      dup3\n      add\n      mload\n      dup2\n      0x00\n      add\n      sstore\n      0x20\n      dup3\n      add\n      mload\n      dup2\n      0x01\n      add\n      swap1\n      dup1\n      mload\n      swap1\n      0x20\n      add\n      swap1\n      tag_75\n      swap3\n      swap2\n      swap1\n      tag_58\n      jump\t// in\n    tag_75:\n      pop\n      0x40\n      dup3\n      add\n      mload\n      dup2\n      0x02\n      add\n      sstore\n      0x60\n      dup3\n      add\n      mload\n      dup2\n      0x03\n      add\n      sstore\n      pop\n      pop\n        /* \"remix ide/PROJECT/drug.sol\":563:822  function insert_data(uint no,string memory name, uint weight, uint amount) public \r... */\n      pop\n      pop\n      pop\n      pop\n      jump\t// out\n        /* \"remix ide/PROJECT/drug.sol\":1374:1457  function show() public view returns(string memory)\r... */\n    tag_37:\n        /* \"remix ide/PROJECT/drug.sol\":1410:1423  string memory */\n      0x60\n        /* \"remix ide/PROJECT/drug.sol\":1448:1449  s */\n      0x00\n        /* \"remix ide/PROJECT/drug.sol\":1441:1449  return s */\n      dup1\n      sload\n      tag_77\n      swap1\n      tag_64\n      jump\t// in\n    tag_77:\n      dup1\n      0x1f\n      add\n      0x20\n      dup1\n      swap2\n      div\n      mul\n      0x20\n      add\n      mload(0x40)\n      swap1\n      dup2\n      add\n      0x40\n      mstore\n      dup1\n      swap3\n      swap2\n      swap1\n      dup2\n      dup2\n      mstore\n      0x20\n      add\n      dup3\n      dup1\n      sload\n      tag_78\n      swap1\n      tag_64\n      jump\t// in\n    tag_78:\n      dup1\n      iszero\n      tag_79\n      jumpi\n      dup1\n      0x1f\n      lt\n      tag_80\n      jumpi\n      0x0100\n      dup1\n      dup4\n      sload\n      div\n      mul\n      dup4\n      mstore\n      swap2\n      0x20\n      add\n      swap2\n      jump(tag_79)\n    tag_80:\n      dup3\n      add\n      swap2\n      swap1\n      0x00\n      mstore\n      keccak256(0x00, 0x20)\n      swap1\n    tag_81:\n      dup2\n      sload\n      dup2\n      mstore\n      swap1\n      0x01\n      add\n      swap1\n      0x20\n      add\n      dup1\n      dup4\n      gt\n      tag_81\n      jumpi\n      dup3\n      swap1\n      sub\n      0x1f\n      and\n      dup3\n      add\n      swap2\n    tag_79:\n      pop\n      pop\n      pop\n      pop\n      pop\n      swap1\n      pop\n        /* \"remix ide/PROJECT/drug.sol\":1374:1457  function show() public view returns(string memory)\r... */\n      swap1\n      jump\t// out\n        /* \"remix ide/PROJECT/drug.sol\":537:556  drug[] public drugs */\n    tag_42:\n      0x02\n      dup2\n      dup2\n      sload\n      dup2\n      lt\n      tag_82\n      jumpi\n      0x00\n      dup1\n      revert\n    tag_82:\n      swap1\n      0x00\n      mstore\n      keccak256(0x00, 0x20)\n      swap1\n      0x04\n      mul\n      add\n      0x00\n      swap2\n      pop\n      swap1\n      pop\n      dup1\n      0x00\n      add\n      sload\n      swap1\n      dup1\n      0x01\n      add\n      dup1\n      sload\n      tag_84\n      swap1\n      tag_64\n      jump\t// in\n    tag_84:\n      dup1\n      0x1f\n      add\n      0x20\n      dup1\n      swap2\n      div\n      mul\n      0x20\n      add\n      mload(0x40)\n      swap1\n      dup2\n      add\n      0x40\n      mstore\n      dup1\n      swap3\n      swap2\n      swap1\n      dup2\n      dup2\n      mstore\n      0x20\n      add\n      dup3\n      dup1\n      sload\n      tag_85\n      swap1\n      tag_64\n      jump\t// in\n    tag_85:\n      dup1\n      iszero\n      tag_86\n      jumpi\n      dup1\n      0x1f\n      lt\n      tag_87\n      jumpi\n      0x0100\n      dup1\n      dup4\n      sload\n      div\n      mul\n      dup4\n      mstore\n      swap2\n      0x20\n      add\n      swap2\n      jump(tag_86)\n    tag_87:\n      dup3\n      add\n      swap2\n      swap1\n      0x00\n      mstore\n      keccak256(0x00, 0x20)\n      swap1\n    tag_88:\n      dup2\n      sload\n      dup2\n      mstore\n      swap1\n      0x01\n      add\n      swap1\n      0x20\n      add\n      dup1\n      dup4\n      gt\n      tag_88\n      jumpi\n      dup3\n      swap1\n      sub\n      0x1f\n      and\n      dup3\n      add\n      swap2\n    tag_86:\n      pop\n      pop\n      pop\n      pop\n      pop\n      swap1\n      dup1\n      0x02\n      add\n      sload\n      swap1\n      dup1\n      0x03\n      add\n      sload\n      swap1\n      pop\n      dup5\n      jump\t// out\n    tag_58:\n      dup3\n      dup1\n      sload\n      tag_89\n      swap1\n      tag_64\n      jump\t// in\n    tag_89:\n      swap1\n      0x00\n      mstore\n      keccak256(0x00, 0x20)\n      swap1\n      0x1f\n      add\n      0x20\n      swap1\n      div\n      dup2\n      add\n      swap3\n      dup3\n      tag_91\n      jumpi\n      0x00\n      dup6\n      sstore\n      jump(tag_90)\n    tag_91:\n      dup3\n      0x1f\n      lt\n      tag_92\n      jumpi\n      dup1\n      mload\n      not(0xff)\n      and\n      dup4\n      dup1\n      add\n      or\n      dup6\n      sstore\n      jump(tag_90)\n    tag_92:\n      dup3\n      dup1\n      add\n      0x01\n      add\n      dup6\n      sstore\n      dup3\n      iszero\n      tag_90\n      jumpi\n      swap2\n      dup3\n      add\n    tag_93:\n      dup3\n      dup2\n      gt\n      iszero\n      tag_94\n      jumpi\n      dup3\n      mload\n      dup3\n      sstore\n      swap2\n      0x20\n      add\n      swap2\n      swap1\n      0x01\n      add\n      swap1\n      jump(tag_93)\n    tag_94:\n    tag_90:\n      pop\n      swap1\n      pop\n      tag_95\n      swap2\n      swap1\n      tag_96\n      jump\t// in\n    tag_95:\n      pop\n      swap1\n      jump\t// out\n    tag_96:\n    tag_97:\n      dup1\n      dup3\n      gt\n      iszero\n      tag_98\n      jumpi\n      0x00\n      dup2\n      0x00\n      swap1\n      sstore\n      pop\n      0x01\n      add\n      jump(tag_97)\n    tag_98:\n      pop\n      swap1\n      jump\t// out\n        /* \"#utility.yul\":7:419   */\n    tag_100:\n        /* \"#utility.yul\":85:90   */\n      0x00\n        /* \"#utility.yul\":110:176   */\n      tag_102\n        /* \"#utility.yul\":126:175   */\n      tag_103\n        /* \"#utility.yul\":168:174   */\n      dup5\n        /* \"#utility.yul\":126:175   */\n      tag_104\n      jump\t// in\n    tag_103:\n        /* \"#utility.yul\":110:176   */\n      tag_105\n      jump\t// in\n    tag_102:\n        /* \"#utility.yul\":101:176   */\n      swap1\n      pop\n        /* \"#utility.yul\":199:205   */\n      dup3\n        /* \"#utility.yul\":192:197   */\n      dup2\n        /* \"#utility.yul\":185:206   */\n      mstore\n        /* \"#utility.yul\":237:241   */\n      0x20\n        /* \"#utility.yul\":230:235   */\n      dup2\n        /* \"#utility.yul\":226:242   */\n      add\n        /* \"#utility.yul\":275:278   */\n      dup5\n        /* \"#utility.yul\":266:272   */\n      dup5\n        /* \"#utility.yul\":261:264   */\n      dup5\n        /* \"#utility.yul\":257:273   */\n      add\n        /* \"#utility.yul\":254:279   */\n      gt\n        /* \"#utility.yul\":251:363   */\n      iszero\n      tag_106\n      jumpi\n        /* \"#utility.yul\":282:361   */\n      tag_107\n      tag_108\n      jump\t// in\n    tag_107:\n        /* \"#utility.yul\":251:363   */\n    tag_106:\n        /* \"#utility.yul\":372:413   */\n      tag_109\n        /* \"#utility.yul\":406:412   */\n      dup5\n        /* \"#utility.yul\":401:404   */\n      dup3\n        /* \"#utility.yul\":396:399   */\n      dup6\n        /* \"#utility.yul\":372:413   */\n      tag_110\n      jump\t// in\n    tag_109:\n        /* \"#utility.yul\":91:419   */\n      pop\n        /* \"#utility.yul\":7:419   */\n      swap4\n      swap3\n      pop\n      pop\n      pop\n      jump\t// out\n        /* \"#utility.yul\":439:779   */\n    tag_111:\n        /* \"#utility.yul\":495:500   */\n      0x00\n        /* \"#utility.yul\":544:547   */\n      dup3\n        /* \"#utility.yul\":537:541   */\n      0x1f\n        /* \"#utility.yul\":529:535   */\n      dup4\n        /* \"#utility.yul\":525:542   */\n      add\n        /* \"#utility.yul\":521:548   */\n      slt\n        /* \"#utility.yul\":511:633   */\n      tag_113\n      jumpi\n        /* \"#utility.yul\":552:631   */\n      tag_114\n      tag_115\n      jump\t// in\n    tag_114:\n        /* \"#utility.yul\":511:633   */\n    tag_113:\n        /* \"#utility.yul\":669:675   */\n      dup2\n        /* \"#utility.yul\":656:676   */\n      calldataload\n        /* \"#utility.yul\":694:773   */\n      tag_116\n        /* \"#utility.yul\":769:772   */\n      dup5\n        /* \"#utility.yul\":761:767   */\n      dup3\n        /* \"#utility.yul\":754:758   */\n      0x20\n        /* \"#utility.yul\":746:752   */\n      dup7\n        /* \"#utility.yul\":742:759   */\n      add\n        /* \"#utility.yul\":694:773   */\n      tag_100\n      jump\t// in\n    tag_116:\n        /* \"#utility.yul\":685:773   */\n      swap2\n      pop\n        /* \"#utility.yul\":501:779   */\n      pop\n        /* \"#utility.yul\":439:779   */\n      swap3\n      swap2\n      pop\n      pop\n      jump\t// out\n        /* \"#utility.yul\":785:924   */\n    tag_117:\n        /* \"#utility.yul\":831:836   */\n      0x00\n        /* \"#utility.yul\":869:875   */\n      dup2\n        /* \"#utility.yul\":856:876   */\n      calldataload\n        /* \"#utility.yul\":847:876   */\n      swap1\n      pop\n        /* \"#utility.yul\":885:918   */\n      tag_119\n        /* \"#utility.yul\":912:917   */\n      dup2\n        /* \"#utility.yul\":885:918   */\n      tag_120\n      jump\t// in\n    tag_119:\n        /* \"#utility.yul\":785:924   */\n      swap3\n      swap2\n      pop\n      pop\n      jump\t// out\n        /* \"#utility.yul\":930:1259   */\n    tag_25:\n        /* \"#utility.yul\":989:995   */\n      0x00\n        /* \"#utility.yul\":1038:1040   */\n      0x20\n        /* \"#utility.yul\":1026:1035   */\n      dup3\n        /* \"#utility.yul\":1017:1024   */\n      dup5\n        /* \"#utility.yul\":1013:1036   */\n      sub\n        /* \"#utility.yul\":1009:1041   */\n      slt\n        /* \"#utility.yul\":1006:1125   */\n      iszero\n      tag_122\n      jumpi\n        /* \"#utility.yul\":1044:1123   */\n      tag_123\n      tag_124\n      jump\t// in\n    tag_123:\n        /* \"#utility.yul\":1006:1125   */\n    tag_122:\n        /* \"#utility.yul\":1164:1165   */\n      0x00\n        /* \"#utility.yul\":1189:1242   */\n      tag_125\n        /* \"#utility.yul\":1234:1241   */\n      dup5\n        /* \"#utility.yul\":1225:1231   */\n      dup3\n        /* \"#utility.yul\":1214:1223   */\n      dup6\n        /* \"#utility.yul\":1210:1232   */\n      add\n        /* \"#utility.yul\":1189:1242   */\n      tag_117\n      jump\t// in\n    tag_125:\n        /* \"#utility.yul\":1179:1242   */\n      swap2\n      pop\n        /* \"#utility.yul\":1135:1252   */\n      pop\n        /* \"#utility.yul\":930:1259   */\n      swap3\n      swap2\n      pop\n      pop\n      jump\t// out\n        /* \"#utility.yul\":1265:1919   */\n    tag_21:\n        /* \"#utility.yul\":1343:1349   */\n      0x00\n        /* \"#utility.yul\":1351:1357   */\n      dup1\n        /* \"#utility.yul\":1400:1402   */\n      0x40\n        /* \"#utility.yul\":1388:1397   */\n      dup4\n        /* \"#utility.yul\":1379:1386   */\n      dup6\n        /* \"#utility.yul\":1375:1398   */\n      sub\n        /* \"#utility.yul\":1371:1403   */\n      slt\n        /* \"#utility.yul\":1368:1487   */\n      iszero\n      tag_127\n      jumpi\n        /* \"#utility.yul\":1406:1485   */\n      tag_128\n      tag_124\n      jump\t// in\n    tag_128:\n        /* \"#utility.yul\":1368:1487   */\n    tag_127:\n        /* \"#utility.yul\":1526:1527   */\n      0x00\n        /* \"#utility.yul\":1551:1604   */\n      tag_129\n        /* \"#utility.yul\":1596:1603   */\n      dup6\n        /* \"#utility.yul\":1587:1593   */\n      dup3\n        /* \"#utility.yul\":1576:1585   */\n      dup7\n        /* \"#utility.yul\":1572:1594   */\n      add\n        /* \"#utility.yul\":1551:1604   */\n      tag_117\n      jump\t// in\n    tag_129:\n        /* \"#utility.yul\":1541:1604   */\n      swap3\n      pop\n        /* \"#utility.yul\":1497:1614   */\n      pop\n        /* \"#utility.yul\":1681:1683   */\n      0x20\n        /* \"#utility.yul\":1670:1679   */\n      dup4\n        /* \"#utility.yul\":1666:1684   */\n      add\n        /* \"#utility.yul\":1653:1685   */\n      calldataload\n        /* \"#utility.yul\":1712:1730   */\n      0xffffffffffffffff\n        /* \"#utility.yul\":1704:1710   */\n      dup2\n        /* \"#utility.yul\":1701:1731   */\n      gt\n        /* \"#utility.yul\":1698:1815   */\n      iszero\n      tag_130\n      jumpi\n        /* \"#utility.yul\":1734:1813   */\n      tag_131\n      tag_132\n      jump\t// in\n    tag_131:\n        /* \"#utility.yul\":1698:1815   */\n    tag_130:\n        /* \"#utility.yul\":1839:1902   */\n      tag_133\n        /* \"#utility.yul\":1894:1901   */\n      dup6\n        /* \"#utility.yul\":1885:1891   */\n      dup3\n        /* \"#utility.yul\":1874:1883   */\n      dup7\n        /* \"#utility.yul\":1870:1892   */\n      add\n        /* \"#utility.yul\":1839:1902   */\n      tag_111\n      jump\t// in\n    tag_133:\n        /* \"#utility.yul\":1829:1902   */\n      swap2\n      pop\n        /* \"#utility.yul\":1624:1912   */\n      pop\n        /* \"#utility.yul\":1265:1919   */\n      swap3\n      pop\n      swap3\n      swap1\n      pop\n      jump\t// out\n        /* \"#utility.yul\":1925:2870   */\n    tag_34:\n        /* \"#utility.yul\":2021:2027   */\n      0x00\n        /* \"#utility.yul\":2029:2035   */\n      dup1\n        /* \"#utility.yul\":2037:2043   */\n      0x00\n        /* \"#utility.yul\":2045:2051   */\n      dup1\n        /* \"#utility.yul\":2094:2097   */\n      0x80\n        /* \"#utility.yul\":2082:2091   */\n      dup6\n        /* \"#utility.yul\":2073:2080   */\n      dup8\n        /* \"#utility.yul\":2069:2092   */\n      sub\n        /* \"#utility.yul\":2065:2098   */\n      slt\n        /* \"#utility.yul\":2062:2182   */\n      iszero\n      tag_135\n      jumpi\n        /* \"#utility.yul\":2101:2180   */\n      tag_136\n      tag_124\n      jump\t// in\n    tag_136:\n        /* \"#utility.yul\":2062:2182   */\n    tag_135:\n        /* \"#utility.yul\":2221:2222   */\n      0x00\n        /* \"#utility.yul\":2246:2299   */\n      tag_137\n        /* \"#utility.yul\":2291:2298   */\n      dup8\n        /* \"#utility.yul\":2282:2288   */\n      dup3\n        /* \"#utility.yul\":2271:2280   */\n      dup9\n        /* \"#utility.yul\":2267:2289   */\n      add\n        /* \"#utility.yul\":2246:2299   */\n      tag_117\n      jump\t// in\n    tag_137:\n        /* \"#utility.yul\":2236:2299   */\n      swap5\n      pop\n        /* \"#utility.yul\":2192:2309   */\n      pop\n        /* \"#utility.yul\":2376:2378   */\n      0x20\n        /* \"#utility.yul\":2365:2374   */\n      dup6\n        /* \"#utility.yul\":2361:2379   */\n      add\n        /* \"#utility.yul\":2348:2380   */\n      calldataload\n        /* \"#utility.yul\":2407:2425   */\n      0xffffffffffffffff\n        /* \"#utility.yul\":2399:2405   */\n      dup2\n        /* \"#utility.yul\":2396:2426   */\n      gt\n        /* \"#utility.yul\":2393:2510   */\n      iszero\n      tag_138\n      jumpi\n        /* \"#utility.yul\":2429:2508   */\n      tag_139\n      tag_132\n      jump\t// in\n    tag_139:\n        /* \"#utility.yul\":2393:2510   */\n    tag_138:\n        /* \"#utility.yul\":2534:2597   */\n      tag_140\n        /* \"#utility.yul\":2589:2596   */\n      dup8\n        /* \"#utility.yul\":2580:2586   */\n      dup3\n        /* \"#utility.yul\":2569:2578   */\n      dup9\n        /* \"#utility.yul\":2565:2587   */\n      add\n        /* \"#utility.yul\":2534:2597   */\n      tag_111\n      jump\t// in\n    tag_140:\n        /* \"#utility.yul\":2524:2597   */\n      swap4\n      pop\n        /* \"#utility.yul\":2319:2607   */\n      pop\n        /* \"#utility.yul\":2646:2648   */\n      0x40\n        /* \"#utility.yul\":2672:2725   */\n      tag_141\n        /* \"#utility.yul\":2717:2724   */\n      dup8\n        /* \"#utility.yul\":2708:2714   */\n      dup3\n        /* \"#utility.yul\":2697:2706   */\n      dup9\n        /* \"#utility.yul\":2693:2715   */\n      add\n        /* \"#utility.yul\":2672:2725   */\n      tag_117\n      jump\t// in\n    tag_141:\n        /* \"#utility.yul\":2662:2725   */\n      swap3\n      pop\n        /* \"#utility.yul\":2617:2735   */\n      pop\n        /* \"#utility.yul\":2774:2776   */\n      0x60\n        /* \"#utility.yul\":2800:2853   */\n      tag_142\n        /* \"#utility.yul\":2845:2852   */\n      dup8\n        /* \"#utility.yul\":2836:2842   */\n      dup3\n        /* \"#utility.yul\":2825:2834   */\n      dup9\n        /* \"#utility.yul\":2821:2843   */\n      add\n        /* \"#utility.yul\":2800:2853   */\n      tag_117\n      jump\t// in\n    tag_142:\n        /* \"#utility.yul\":2790:2853   */\n      swap2\n      pop\n        /* \"#utility.yul\":2745:2863   */\n      pop\n        /* \"#utility.yul\":1925:2870   */\n      swap3\n      swap6\n      swap2\n      swap5\n      pop\n      swap3\n      pop\n      jump\t// out\n        /* \"#utility.yul\":2876:3350   */\n    tag_14:\n        /* \"#utility.yul\":2944:2950   */\n      0x00\n        /* \"#utility.yul\":2952:2958   */\n      dup1\n        /* \"#utility.yul\":3001:3003   */\n      0x40\n        /* \"#utility.yul\":2989:2998   */\n      dup4\n        /* \"#utility.yul\":2980:2987   */\n      dup6\n        /* \"#utility.yul\":2976:2999   */\n      sub\n        /* \"#utility.yul\":2972:3004   */\n      slt\n        /* \"#utility.yul\":2969:3088   */\n      iszero\n      tag_144\n      jumpi\n        /* \"#utility.yul\":3007:3086   */\n      tag_145\n      tag_124\n      jump\t// in\n    tag_145:\n        /* \"#utility.yul\":2969:3088   */\n    tag_144:\n        /* \"#utility.yul\":3127:3128   */\n      0x00\n        /* \"#utility.yul\":3152:3205   */\n      tag_146\n        /* \"#utility.yul\":3197:3204   */\n      dup6\n        /* \"#utility.yul\":3188:3194   */\n      dup3\n        /* \"#utility.yul\":3177:3186   */\n      dup7\n        /* \"#utility.yul\":3173:3195   */\n      add\n        /* \"#utility.yul\":3152:3205   */\n      tag_117\n      jump\t// in\n    tag_146:\n        /* \"#utility.yul\":3142:3205   */\n      swap3\n      pop\n        /* \"#utility.yul\":3098:3215   */\n      pop\n        /* \"#utility.yul\":3254:3256   */\n      0x20\n        /* \"#utility.yul\":3280:3333   */\n      tag_147\n        /* \"#utility.yul\":3325:3332   */\n      dup6\n        /* \"#utility.yul\":3316:3322   */\n      dup3\n        /* \"#utility.yul\":3305:3314   */\n      dup7\n        /* \"#utility.yul\":3301:3323   */\n      add\n        /* \"#utility.yul\":3280:3333   */\n      tag_117\n      jump\t// in\n    tag_147:\n        /* \"#utility.yul\":3270:3333   */\n      swap2\n      pop\n        /* \"#utility.yul\":3225:3343   */\n      pop\n        /* \"#utility.yul\":2876:3350   */\n      swap3\n      pop\n      swap3\n      swap1\n      pop\n      jump\t// out\n        /* \"#utility.yul\":3356:3720   */\n    tag_148:\n        /* \"#utility.yul\":3444:3447   */\n      0x00\n        /* \"#utility.yul\":3472:3511   */\n      tag_150\n        /* \"#utility.yul\":3505:3510   */\n      dup3\n        /* \"#utility.yul\":3472:3511   */\n      tag_151\n      jump\t// in\n    tag_150:\n        /* \"#utility.yul\":3527:3598   */\n      tag_152\n        /* \"#utility.yul\":3591:3597   */\n      dup2\n        /* \"#utility.yul\":3586:3589   */\n      dup6\n        /* \"#utility.yul\":3527:3598   */\n      tag_153\n      jump\t// in\n    tag_152:\n        /* \"#utility.yul\":3520:3598   */\n      swap4\n      pop\n        /* \"#utility.yul\":3607:3659   */\n      tag_154\n        /* \"#utility.yul\":3652:3658   */\n      dup2\n        /* \"#utility.yul\":3647:3650   */\n      dup6\n        /* \"#utility.yul\":3640:3644   */\n      0x20\n        /* \"#utility.yul\":3633:3638   */\n      dup7\n        /* \"#utility.yul\":3629:3645   */\n      add\n        /* \"#utility.yul\":3607:3659   */\n      tag_155\n      jump\t// in\n    tag_154:\n        /* \"#utility.yul\":3684:3713   */\n      tag_156\n        /* \"#utility.yul\":3706:3712   */\n      dup2\n        /* \"#utility.yul\":3684:3713   */\n      tag_157\n      jump\t// in\n    tag_156:\n        /* \"#utility.yul\":3679:3682   */\n      dup5\n        /* \"#utility.yul\":3675:3714   */\n      add\n        /* \"#utility.yul\":3668:3714   */\n      swap2\n      pop\n        /* \"#utility.yul\":3448:3720   */\n      pop\n        /* \"#utility.yul\":3356:3720   */\n      swap3\n      swap2\n      pop\n      pop\n      jump\t// out\n        /* \"#utility.yul\":3726:3844   */\n    tag_158:\n        /* \"#utility.yul\":3813:3837   */\n      tag_160\n        /* \"#utility.yul\":3831:3836   */\n      dup2\n        /* \"#utility.yul\":3813:3837   */\n      tag_161\n      jump\t// in\n    tag_160:\n        /* \"#utility.yul\":3808:3811   */\n      dup3\n        /* \"#utility.yul\":3801:3838   */\n      mstore\n        /* \"#utility.yul\":3726:3844   */\n      pop\n      pop\n      jump\t// out\n        /* \"#utility.yul\":3850:4163   */\n    tag_39:\n        /* \"#utility.yul\":3963:3967   */\n      0x00\n        /* \"#utility.yul\":4001:4003   */\n      0x20\n        /* \"#utility.yul\":3990:3999   */\n      dup3\n        /* \"#utility.yul\":3986:4004   */\n      add\n        /* \"#utility.yul\":3978:4004   */\n      swap1\n      pop\n        /* \"#utility.yul\":4050:4059   */\n      dup2\n        /* \"#utility.yul\":4044:4048   */\n      dup2\n        /* \"#utility.yul\":4040:4060   */\n      sub\n        /* \"#utility.yul\":4036:4037   */\n      0x00\n        /* \"#utility.yul\":4025:4034   */\n      dup4\n        /* \"#utility.yul\":4021:4038   */\n      add\n        /* \"#utility.yul\":4014:4061   */\n      mstore\n        /* \"#utility.yul\":4078:4156   */\n      tag_163\n        /* \"#utility.yul\":4151:4155   */\n      dup2\n        /* \"#utility.yul\":4142:4148   */\n      dup5\n        /* \"#utility.yul\":4078:4156   */\n      tag_148\n      jump\t// in\n    tag_163:\n        /* \"#utility.yul\":4070:4156   */\n      swap1\n      pop\n        /* \"#utility.yul\":3850:4163   */\n      swap3\n      swap2\n      pop\n      pop\n      jump\t// out\n        /* \"#utility.yul\":4169:4813   */\n    tag_28:\n        /* \"#utility.yul\":4366:4370   */\n      0x00\n        /* \"#utility.yul\":4404:4407   */\n      0x80\n        /* \"#utility.yul\":4393:4402   */\n      dup3\n        /* \"#utility.yul\":4389:4408   */\n      add\n        /* \"#utility.yul\":4381:4408   */\n      swap1\n      pop\n        /* \"#utility.yul\":4418:4489   */\n      tag_165\n        /* \"#utility.yul\":4486:4487   */\n      0x00\n        /* \"#utility.yul\":4475:4484   */\n      dup4\n        /* \"#utility.yul\":4471:4488   */\n      add\n        /* \"#utility.yul\":4462:4468   */\n      dup8\n        /* \"#utility.yul\":4418:4489   */\n      tag_158\n      jump\t// in\n    tag_165:\n        /* \"#utility.yul\":4536:4545   */\n      dup2\n        /* \"#utility.yul\":4530:4534   */\n      dup2\n        /* \"#utility.yul\":4526:4546   */\n      sub\n        /* \"#utility.yul\":4521:4523   */\n      0x20\n        /* \"#utility.yul\":4510:4519   */\n      dup4\n        /* \"#utility.yul\":4506:4524   */\n      add\n        /* \"#utility.yul\":4499:4547   */\n      mstore\n        /* \"#utility.yul\":4564:4642   */\n      tag_166\n        /* \"#utility.yul\":4637:4641   */\n      dup2\n        /* \"#utility.yul\":4628:4634   */\n      dup7\n        /* \"#utility.yul\":4564:4642   */\n      tag_148\n      jump\t// in\n    tag_166:\n        /* \"#utility.yul\":4556:4642   */\n      swap1\n      pop\n        /* \"#utility.yul\":4652:4724   */\n      tag_167\n        /* \"#utility.yul\":4720:4722   */\n      0x40\n        /* \"#utility.yul\":4709:4718   */\n      dup4\n        /* \"#utility.yul\":4705:4723   */\n      add\n        /* \"#utility.yul\":4696:4702   */\n      dup6\n        /* \"#utility.yul\":4652:4724   */\n      tag_158\n      jump\t// in\n    tag_167:\n        /* \"#utility.yul\":4734:4806   */\n      tag_168\n        /* \"#utility.yul\":4802:4804   */\n      0x60\n        /* \"#utility.yul\":4791:4800   */\n      dup4\n        /* \"#utility.yul\":4787:4805   */\n      add\n        /* \"#utility.yul\":4778:4784   */\n      dup5\n        /* \"#utility.yul\":4734:4806   */\n      tag_158\n      jump\t// in\n    tag_168:\n        /* \"#utility.yul\":4169:4813   */\n      swap6\n      swap5\n      pop\n      pop\n      pop\n      pop\n      pop\n      jump\t// out\n        /* \"#utility.yul\":4819:4948   */\n    tag_105:\n        /* \"#utility.yul\":4853:4859   */\n      0x00\n        /* \"#utility.yul\":4880:4900   */\n      tag_170\n      tag_171\n      jump\t// in\n    tag_170:\n        /* \"#utility.yul\":4870:4900   */\n      swap1\n      pop\n        /* \"#utility.yul\":4909:4942   */\n      tag_172\n        /* \"#utility.yul\":4937:4941   */\n      dup3\n        /* \"#utility.yul\":4929:4935   */\n      dup3\n        /* \"#utility.yul\":4909:4942   */\n      tag_173\n      jump\t// in\n    tag_172:\n        /* \"#utility.yul\":4819:4948   */\n      swap2\n      swap1\n      pop\n      jump\t// out\n        /* \"#utility.yul\":4954:5029   */\n    tag_171:\n        /* \"#utility.yul\":4987:4993   */\n      0x00\n        /* \"#utility.yul\":5020:5022   */\n      0x40\n        /* \"#utility.yul\":5014:5023   */\n      mload\n        /* \"#utility.yul\":5004:5023   */\n      swap1\n      pop\n        /* \"#utility.yul\":4954:5029   */\n      swap1\n      jump\t// out\n        /* \"#utility.yul\":5035:5343   */\n    tag_104:\n        /* \"#utility.yul\":5097:5101   */\n      0x00\n        /* \"#utility.yul\":5187:5205   */\n      0xffffffffffffffff\n        /* \"#utility.yul\":5179:5185   */\n      dup3\n        /* \"#utility.yul\":5176:5206   */\n      gt\n        /* \"#utility.yul\":5173:5229   */\n      iszero\n      tag_176\n      jumpi\n        /* \"#utility.yul\":5209:5227   */\n      tag_177\n      tag_178\n      jump\t// in\n    tag_177:\n        /* \"#utility.yul\":5173:5229   */\n    tag_176:\n        /* \"#utility.yul\":5247:5276   */\n      tag_179\n        /* \"#utility.yul\":5269:5275   */\n      dup3\n        /* \"#utility.yul\":5247:5276   */\n      tag_157\n      jump\t// in\n    tag_179:\n        /* \"#utility.yul\":5239:5276   */\n      swap1\n      pop\n        /* \"#utility.yul\":5331:5335   */\n      0x20\n        /* \"#utility.yul\":5325:5329   */\n      dup2\n        /* \"#utility.yul\":5321:5336   */\n      add\n        /* \"#utility.yul\":5313:5336   */\n      swap1\n      pop\n        /* \"#utility.yul\":5035:5343   */\n      swap2\n      swap1\n      pop\n      jump\t// out\n        /* \"#utility.yul\":5349:5448   */\n    tag_151:\n        /* \"#utility.yul\":5401:5407   */\n      0x00\n        /* \"#utility.yul\":5435:5440   */\n      dup2\n        /* \"#utility.yul\":5429:5441   */\n      mload\n        /* \"#utility.yul\":5419:5441   */\n      swap1\n      pop\n        /* \"#utility.yul\":5349:5448   */\n      swap2\n      swap1\n      pop\n      jump\t// out\n        /* \"#utility.yul\":5454:5623   */\n    tag_153:\n        /* \"#utility.yul\":5538:5549   */\n      0x00\n        /* \"#utility.yul\":5572:5578   */\n      dup3\n        /* \"#utility.yul\":5567:5570   */\n      dup3\n        /* \"#utility.yul\":5560:5579   */\n      mstore\n        /* \"#utility.yul\":5612:5616   */\n      0x20\n        /* \"#utility.yul\":5607:5610   */\n      dup3\n        /* \"#utility.yul\":5603:5617   */\n      add\n        /* \"#utility.yul\":5588:5617   */\n      swap1\n      pop\n        /* \"#utility.yul\":5454:5623   */\n      swap3\n      swap2\n      pop\n      pop\n      jump\t// out\n        /* \"#utility.yul\":5629:5706   */\n    tag_161:\n        /* \"#utility.yul\":5666:5673   */\n      0x00\n        /* \"#utility.yul\":5695:5700   */\n      dup2\n        /* \"#utility.yul\":5684:5700   */\n      swap1\n      pop\n        /* \"#utility.yul\":5629:5706   */\n      swap2\n      swap1\n      pop\n      jump\t// out\n        /* \"#utility.yul\":5712:5866   */\n    tag_110:\n        /* \"#utility.yul\":5796:5802   */\n      dup3\n        /* \"#utility.yul\":5791:5794   */\n      dup2\n        /* \"#utility.yul\":5786:5789   */\n      dup4\n        /* \"#utility.yul\":5773:5803   */\n      calldatacopy\n        /* \"#utility.yul\":5858:5859   */\n      0x00\n        /* \"#utility.yul\":5849:5855   */\n      dup4\n        /* \"#utility.yul\":5844:5847   */\n      dup4\n        /* \"#utility.yul\":5840:5856   */\n      add\n        /* \"#utility.yul\":5833:5860   */\n      mstore\n        /* \"#utility.yul\":5712:5866   */\n      pop\n      pop\n      pop\n      jump\t// out\n        /* \"#utility.yul\":5872:6179   */\n    tag_155:\n        /* \"#utility.yul\":5940:5941   */\n      0x00\n        /* \"#utility.yul\":5950:6063   */\n    tag_185:\n        /* \"#utility.yul\":5964:5970   */\n      dup4\n        /* \"#utility.yul\":5961:5962   */\n      dup2\n        /* \"#utility.yul\":5958:5971   */\n      lt\n        /* \"#utility.yul\":5950:6063   */\n      iszero\n      tag_187\n      jumpi\n        /* \"#utility.yul\":6049:6050   */\n      dup1\n        /* \"#utility.yul\":6044:6047   */\n      dup3\n        /* \"#utility.yul\":6040:6051   */\n      add\n        /* \"#utility.yul\":6034:6052   */\n      mload\n        /* \"#utility.yul\":6030:6031   */\n      dup2\n        /* \"#utility.yul\":6025:6028   */\n      dup5\n        /* \"#utility.yul\":6021:6032   */\n      add\n        /* \"#utility.yul\":6014:6053   */\n      mstore\n        /* \"#utility.yul\":5986:5988   */\n      0x20\n        /* \"#utility.yul\":5983:5984   */\n      dup2\n        /* \"#utility.yul\":5979:5989   */\n      add\n        /* \"#utility.yul\":5974:5989   */\n      swap1\n      pop\n        /* \"#utility.yul\":5950:6063   */\n      jump(tag_185)\n    tag_187:\n        /* \"#utility.yul\":6081:6087   */\n      dup4\n        /* \"#utility.yul\":6078:6079   */\n      dup2\n        /* \"#utility.yul\":6075:6088   */\n      gt\n        /* \"#utility.yul\":6072:6173   */\n      iszero\n      tag_188\n      jumpi\n        /* \"#utility.yul\":6161:6162   */\n      0x00\n        /* \"#utility.yul\":6152:6158   */\n      dup5\n        /* \"#utility.yul\":6147:6150   */\n      dup5\n        /* \"#utility.yul\":6143:6159   */\n      add\n        /* \"#utility.yul\":6136:6163   */\n      mstore\n        /* \"#utility.yul\":6072:6173   */\n    tag_188:\n        /* \"#utility.yul\":5921:6179   */\n      pop\n        /* \"#utility.yul\":5872:6179   */\n      pop\n      pop\n      pop\n      jump\t// out\n        /* \"#utility.yul\":6185:6505   */\n    tag_64:\n        /* \"#utility.yul\":6229:6235   */\n      0x00\n        /* \"#utility.yul\":6266:6267   */\n      0x02\n        /* \"#utility.yul\":6260:6264   */\n      dup3\n        /* \"#utility.yul\":6256:6268   */\n      div\n        /* \"#utility.yul\":6246:6268   */\n      swap1\n      pop\n        /* \"#utility.yul\":6313:6314   */\n      0x01\n        /* \"#utility.yul\":6307:6311   */\n      dup3\n        /* \"#utility.yul\":6303:6315   */\n      and\n        /* \"#utility.yul\":6334:6352   */\n      dup1\n        /* \"#utility.yul\":6324:6405   */\n      tag_190\n      jumpi\n        /* \"#utility.yul\":6390:6394   */\n      0x7f\n        /* \"#utility.yul\":6382:6388   */\n      dup3\n        /* \"#utility.yul\":6378:6395   */\n      and\n        /* \"#utility.yul\":6368:6395   */\n      swap2\n      pop\n        /* \"#utility.yul\":6324:6405   */\n    tag_190:\n        /* \"#utility.yul\":6452:6454   */\n      0x20\n        /* \"#utility.yul\":6444:6450   */\n      dup3\n        /* \"#utility.yul\":6441:6455   */\n      lt\n        /* \"#utility.yul\":6421:6439   */\n      dup2\n        /* \"#utility.yul\":6418:6456   */\n      eq\n        /* \"#utility.yul\":6415:6499   */\n      iszero\n      tag_191\n      jumpi\n        /* \"#utility.yul\":6471:6489   */\n      tag_192\n      tag_193\n      jump\t// in\n    tag_192:\n        /* \"#utility.yul\":6415:6499   */\n    tag_191:\n        /* \"#utility.yul\":6236:6505   */\n      pop\n        /* \"#utility.yul\":6185:6505   */\n      swap2\n      swap1\n      pop\n      jump\t// out\n        /* \"#utility.yul\":6511:6792   */\n    tag_173:\n        /* \"#utility.yul\":6594:6621   */\n      tag_195\n        /* \"#utility.yul\":6616:6620   */\n      dup3\n        /* \"#utility.yul\":6594:6621   */\n      tag_157\n      jump\t// in\n    tag_195:\n        /* \"#utility.yul\":6586:6592   */\n      dup2\n        /* \"#utility.yul\":6582:6622   */\n      add\n        /* \"#utility.yul\":6724:6730   */\n      dup2\n        /* \"#utility.yul\":6712:6722   */\n      dup2\n        /* \"#utility.yul\":6709:6731   */\n      lt\n        /* \"#utility.yul\":6688:6706   */\n      0xffffffffffffffff\n        /* \"#utility.yul\":6676:6686   */\n      dup3\n        /* \"#utility.yul\":6673:6707   */\n      gt\n        /* \"#utility.yul\":6670:6732   */\n      or\n        /* \"#utility.yul\":6667:6755   */\n      iszero\n      tag_196\n      jumpi\n        /* \"#utility.yul\":6735:6753   */\n      tag_197\n      tag_178\n      jump\t// in\n    tag_197:\n        /* \"#utility.yul\":6667:6755   */\n    tag_196:\n        /* \"#utility.yul\":6775:6785   */\n      dup1\n        /* \"#utility.yul\":6771:6773   */\n      0x40\n        /* \"#utility.yul\":6764:6786   */\n      mstore\n        /* \"#utility.yul\":6554:6792   */\n      pop\n        /* \"#utility.yul\":6511:6792   */\n      pop\n      pop\n      jump\t// out\n        /* \"#utility.yul\":6798:6978   */\n    tag_193:\n        /* \"#utility.yul\":6846:6923   */\n      0x4e487b7100000000000000000000000000000000000000000000000000000000\n        /* \"#utility.yul\":6843:6844   */\n      0x00\n        /* \"#utility.yul\":6836:6924   */\n      mstore\n        /* \"#utility.yul\":6943:6947   */\n      0x22\n        /* \"#utility.yul\":6940:6941   */\n      0x04\n        /* \"#utility.yul\":6933:6948   */\n      mstore\n        /* \"#utility.yul\":6967:6971   */\n      0x24\n        /* \"#utility.yul\":6964:6965   */\n      0x00\n        /* \"#utility.yul\":6957:6972   */\n      revert\n        /* \"#utility.yul\":6984:7164   */\n    tag_47:\n        /* \"#utility.yul\":7032:7109   */\n      0x4e487b7100000000000000000000000000000000000000000000000000000000\n        /* \"#utility.yul\":7029:7030   */\n      0x00\n        /* \"#utility.yul\":7022:7110   */\n      mstore\n        /* \"#utility.yul\":7129:7133   */\n      0x32\n        /* \"#utility.yul\":7126:7127   */\n      0x04\n        /* \"#utility.yul\":7119:7134   */\n      mstore\n        /* \"#utility.yul\":7153:7157   */\n      0x24\n        /* \"#utility.yul\":7150:7151   */\n      0x00\n        /* \"#utility.yul\":7143:7158   */\n      revert\n        /* \"#utility.yul\":7170:7350   */\n    tag_178:\n        /* \"#utility.yul\":7218:7295   */\n      0x4e487b7100000000000000000000000000000000000000000000000000000000\n        /* \"#utility.yul\":7215:7216   */\n      0x00\n        /* \"#utility.yul\":7208:7296   */\n      mstore\n        /* \"#utility.yul\":7315:7319   */\n      0x41\n        /* \"#utility.yul\":7312:7313   */\n      0x04\n        /* \"#utility.yul\":7305:7320   */\n      mstore\n        /* \"#utility.yul\":7339:7343   */\n      0x24\n        /* \"#utility.yul\":7336:7337   */\n      0x00\n        /* \"#utility.yul\":7329:7344   */\n      revert\n        /* \"#utility.yul\":7356:7473   */\n    tag_115:\n        /* \"#utility.yul\":7465:7466   */\n      0x00\n        /* \"#utility.yul\":7462:7463   */\n      dup1\n        /* \"#utility.yul\":7455:7467   */\n      revert\n        /* \"#utility.yul\":7479:7596   */\n    tag_108:\n        /* \"#utility.yul\":7588:7589   */\n      0x00\n        /* \"#utility.yul\":7585:7586   */\n      dup1\n        /* \"#utility.yul\":7578:7590   */\n      revert\n        /* \"#utility.yul\":7602:7719   */\n    tag_132:\n        /* \"#utility.yul\":7711:7712   */\n      0x00\n        /* \"#utility.yul\":7708:7709   */\n      dup1\n        /* \"#utility.yul\":7701:7713   */\n      revert\n        /* \"#utility.yul\":7725:7842   */\n    tag_124:\n        /* \"#utility.yul\":7834:7835   */\n      0x00\n        /* \"#utility.yul\":7831:7832   */\n      dup1\n        /* \"#utility.yul\":7824:7836   */\n      revert\n        /* \"#utility.yul\":7848:7950   */\n    tag_157:\n        /* \"#utility.yul\":7889:7895   */\n      0x00\n        /* \"#utility.yul\":7940:7942   */\n      0x1f\n        /* \"#utility.yul\":7936:7943   */\n      not\n        /* \"#utility.yul\":7931:7933   */\n      0x1f\n        /* \"#utility.yul\":7924:7929   */\n      dup4\n        /* \"#utility.yul\":7920:7934   */\n      add\n        /* \"#utility.yul\":7916:7944   */\n      and\n        /* \"#utility.yul\":7906:7944   */\n      swap1\n      pop\n        /* \"#utility.yul\":7848:7950   */\n      swap2\n      swap1\n      pop\n      jump\t// out\n        /* \"#utility.yul\":7956:8078   */\n    tag_120:\n        /* \"#utility.yul\":8029:8053   */\n      tag_207\n        /* \"#utility.yul\":8047:8052   */\n      dup2\n        /* \"#utility.yul\":8029:8053   */\n      tag_161\n      jump\t// in\n    tag_207:\n        /* \"#utility.yul\":8022:8027   */\n      dup2\n        /* \"#utility.yul\":8019:8054   */\n      eq\n        /* \"#utility.yul\":8009:8072   */\n      tag_208\n      jumpi\n        /* \"#utility.yul\":8068:8069   */\n      0x00\n        /* \"#utility.yul\":8065:8066   */\n      dup1\n        /* \"#utility.yul\":8058:8070   */\n      revert\n        /* \"#utility.yul\":8009:8072   */\n    tag_208:\n        /* \"#utility.yul\":7956:8078   */\n      pop\n      jump\t// out\n\n    auxdata: 0xa2646970667358221220fac80831865acd16bccede679afd05ab22b56ef516f37360827c0224ea9e374064736f6c63430008070033\n}\n",
				"bytecode": {
					"linkReferences": {},
					"object": "6080604052604051806080016040528060558152602001610c3d6055913960009080519060200190610032929190610086565b5033600160006101000a81548173ffffffffffffffffffffffffffffffffffffffff021916908373ffffffffffffffffffffffffffffffffffffffff16021790555034801561008057600080fd5b5061018a565b82805461009290610129565b90600052602060002090601f0160209004810192826100b457600085556100fb565b82601f106100cd57805160ff19168380011785556100fb565b828001600101855582156100fb579182015b828111156100fa5782518255916020019190600101906100df565b5b509050610108919061010c565b5090565b5b8082111561012557600081600090555060010161010d565b5090565b6000600282049050600182168061014157607f821691505b602082108114156101555761015461015b565b5b50919050565b7f4e487b7100000000000000000000000000000000000000000000000000000000600052602260045260246000fd5b610aa4806101996000396000f3fe608060405234801561001057600080fd5b50600436106100885760003560e01c806396698d2e1161005b57806396698d2e14610114578063afa3590f14610130578063cc80f6f31461014c578063fca5e61e1461016a57610088565b806332e342e61461008d5780635923e919146100a957806360f1fc32146100c5578063803ad4de146100e1575b600080fd5b6100a760048036038101906100a2919061078e565b61019d565b005b6100c360048036038101906100be919061078e565b6101cb565b005b6100df60048036038101906100da91906106af565b6101f9565b005b6100fb60048036038101906100f69190610682565b610237565b60405161010b9493929190610838565b60405180910390f35b61012e6004803603810190610129919061078e565b610343565b005b61014a6004803603810190610145919061070b565b610371565b005b610154610400565b6040516101619190610816565b60405180910390f35b610184600480360381019061017f9190610682565b610492565b6040516101949493929190610838565b60405180910390f35b80600283815481106101b2576101b16109d4565b5b9060005260206000209060040201600001819055505050565b80600283815481106101e0576101df6109d4565b5b9060005260206000209060040201600201819055505050565b806002838154811061020e5761020d6109d4565b5b9060005260206000209060040201600101908051906020019061023292919061055a565b505050565b60006060600080600060028681548110610254576102536109d4565b5b90600052602060002090600402016040518060800160405290816000820154815260200160018201805461028790610942565b80601f01602080910402602001604051908101604052809291908181526020018280546102b390610942565b80156103005780601f106102d557610100808354040283529160200191610300565b820191906000526020600020905b8154815290600101906020018083116102e357829003601f168201915b5050505050815260200160028201548152602001600382015481525050905080600001518160200151826040015183606001519450945094509450509193509193565b8060028381548110610358576103576109d4565b5b9060005260206000209060040201600301819055505050565b600260405180608001604052808681526020018581526020018481526020018381525090806001815401808255809150506001900390600052602060002090600402016000909190919091506000820151816000015560208201518160010190805190602001906103e392919061055a565b506040820151816002015560608201518160030155505050505050565b60606000805461040f90610942565b80601f016020809104026020016040519081016040528092919081815260200182805461043b90610942565b80156104885780601f1061045d57610100808354040283529160200191610488565b820191906000526020600020905b81548152906001019060200180831161046b57829003601f168201915b5050505050905090565b600281815481106104a257600080fd5b90600052602060002090600402016000915090508060000154908060010180546104cb90610942565b80601f01602080910402602001604051908101604052809291908181526020018280546104f790610942565b80156105445780601f1061051957610100808354040283529160200191610544565b820191906000526020600020905b81548152906001019060200180831161052757829003601f168201915b5050505050908060020154908060030154905084565b82805461056690610942565b90600052602060002090601f01602090048101928261058857600085556105cf565b82601f106105a157805160ff19168380011785556105cf565b828001600101855582156105cf579182015b828111156105ce5782518255916020019190600101906105b3565b5b5090506105dc91906105e0565b5090565b5b808211156105f95760008160009055506001016105e1565b5090565b600061061061060b846108a9565b610884565b90508281526020810184848401111561062c5761062b610a37565b5b610637848285610900565b509392505050565b600082601f83011261065457610653610a32565b5b81356106648482602086016105fd565b91505092915050565b60008135905061067c81610a57565b92915050565b60006020828403121561069857610697610a41565b5b60006106a68482850161066d565b91505092915050565b600080604083850312156106c6576106c5610a41565b5b60006106d48582860161066d565b925050602083013567ffffffffffffffff8111156106f5576106f4610a3c565b5b6107018582860161063f565b9150509250929050565b6000806000806080858703121561072557610724610a41565b5b60006107338782880161066d565b945050602085013567ffffffffffffffff81111561075457610753610a3c565b5b6107608782880161063f565b93505060406107718782880161066d565b92505060606107828782880161066d565b91505092959194509250565b600080604083850312156107a5576107a4610a41565b5b60006107b38582860161066d565b92505060206107c48582860161066d565b9150509250929050565b60006107d9826108da565b6107e381856108e5565b93506107f381856020860161090f565b6107fc81610a46565b840191505092915050565b610810816108f6565b82525050565b6000602082019050818103600083015261083081846107ce565b905092915050565b600060808201905061084d6000830187610807565b818103602083015261085f81866107ce565b905061086e6040830185610807565b61087b6060830184610807565b95945050505050565b600061088e61089f565b905061089a8282610974565b919050565b6000604051905090565b600067ffffffffffffffff8211156108c4576108c3610a03565b5b6108cd82610a46565b9050602081019050919050565b600081519050919050565b600082825260208201905092915050565b6000819050919050565b82818337600083830152505050565b60005b8381101561092d578082015181840152602081019050610912565b8381111561093c576000848401525b50505050565b6000600282049050600182168061095a57607f821691505b6020821081141561096e5761096d6109a5565b5b50919050565b61097d82610a46565b810181811067ffffffffffffffff8211171561099c5761099b610a03565b5b80604052505050565b7f4e487b7100000000000000000000000000000000000000000000000000000000600052602260045260246000fd5b7f4e487b7100000000000000000000000000000000000000000000000000000000600052603260045260246000fd5b7f4e487b7100000000000000000000000000000000000000000000000000000000600052604160045260246000fd5b600080fd5b600080fd5b600080fd5b600080fd5b6000601f19601f8301169050919050565b610a60816108f6565b8114610a6b57600080fd5b5056fea2646970667358221220fac80831865acd16bccede679afd05ab22b56ef516f37360827c0224ea9e374064736f6c6343000807003375736520696e64657820303d73657269616c5f6e6f3a6e6f20313d647275675f6e616d653a6e616d6520323d647275675f7175616e746974793a77656967687420333d647275675f76616c75653a616d6f756e7420",
					"opcodes": "PUSH1 0x80 PUSH1 0x40 MSTORE PUSH1 0x40 MLOAD DUP1 PUSH1 0x80 ADD PUSH1 0x40 MSTORE DUP1 PUSH1 0x55 DUP2 MSTORE PUSH1 0x20 ADD PUSH2 0xC3D PUSH1 0x55 SWAP2 CODECOPY PUSH1 0x0 SWAP1 DUP1 MLOAD SWAP1 PUSH1 0x20 ADD SWAP1 PUSH2 0x32 SWAP3 SWAP2 SWAP1 PUSH2 0x86 JUMP JUMPDEST POP CALLER PUSH1 0x1 PUSH1 0x0 PUSH2 0x100 EXP DUP2 SLOAD DUP2 PUSH20 0xFFFFFFFFFFFFFFFFFFFFFFFFFFFFFFFFFFFFFFFF MUL NOT AND SWAP1 DUP4 PUSH20 0xFFFFFFFFFFFFFFFFFFFFFFFFFFFFFFFFFFFFFFFF AND MUL OR SWAP1 SSTORE POP CALLVALUE DUP1 ISZERO PUSH2 0x80 JUMPI PUSH1 0x0 DUP1 REVERT JUMPDEST POP PUSH2 0x18A JUMP JUMPDEST DUP3 DUP1 SLOAD PUSH2 0x92 SWAP1 PUSH2 0x129 JUMP JUMPDEST SWAP1 PUSH1 0x0 MSTORE PUSH1 0x20 PUSH1 0x0 KECCAK256 SWAP1 PUSH1 0x1F ADD PUSH1 0x20 SWAP1 DIV DUP2 ADD SWAP3 DUP3 PUSH2 0xB4 JUMPI PUSH1 0x0 DUP6 SSTORE PUSH2 0xFB JUMP JUMPDEST DUP3 PUSH1 0x1F LT PUSH2 0xCD JUMPI DUP1 MLOAD PUSH1 0xFF NOT AND DUP4 DUP1 ADD OR DUP6 SSTORE PUSH2 0xFB JUMP JUMPDEST DUP3 DUP1 ADD PUSH1 0x1 ADD DUP6 SSTORE DUP3 ISZERO PUSH2 0xFB JUMPI SWAP2 DUP3 ADD JUMPDEST DUP3 DUP2 GT ISZERO PUSH2 0xFA JUMPI DUP3 MLOAD DUP3 SSTORE SWAP2 PUSH1 0x20 ADD SWAP2 SWAP1 PUSH1 0x1 ADD SWAP1 PUSH2 0xDF JUMP JUMPDEST JUMPDEST POP SWAP1 POP PUSH2 0x108 SWAP2 SWAP1 PUSH2 0x10C JUMP JUMPDEST POP SWAP1 JUMP JUMPDEST JUMPDEST DUP1 DUP3 GT ISZERO PUSH2 0x125 JUMPI PUSH1 0x0 DUP2 PUSH1 0x0 SWAP1 SSTORE POP PUSH1 0x1 ADD PUSH2 0x10D JUMP JUMPDEST POP SWAP1 JUMP JUMPDEST PUSH1 0x0 PUSH1 0x2 DUP3 DIV SWAP1 POP PUSH1 0x1 DUP3 AND DUP1 PUSH2 0x141 JUMPI PUSH1 0x7F DUP3 AND SWAP2 POP JUMPDEST PUSH1 0x20 DUP3 LT DUP2 EQ ISZERO PUSH2 0x155 JUMPI PUSH2 0x154 PUSH2 0x15B JUMP JUMPDEST JUMPDEST POP SWAP2 SWAP1 POP JUMP JUMPDEST PUSH32 0x4E487B7100000000000000000000000000000000000000000000000000000000 PUSH1 0x0 MSTORE PUSH1 0x22 PUSH1 0x4 MSTORE PUSH1 0x24 PUSH1 0x0 REVERT JUMPDEST PUSH2 0xAA4 DUP1 PUSH2 0x199 PUSH1 0x0 CODECOPY PUSH1 0x0 RETURN INVALID PUSH1 0x80 PUSH1 0x40 MSTORE CALLVALUE DUP1 ISZERO PUSH2 0x10 JUMPI PUSH1 0x0 DUP1 REVERT JUMPDEST POP PUSH1 0x4 CALLDATASIZE LT PUSH2 0x88 JUMPI PUSH1 0x0 CALLDATALOAD PUSH1 0xE0 SHR DUP1 PUSH4 0x96698D2E GT PUSH2 0x5B JUMPI DUP1 PUSH4 0x96698D2E EQ PUSH2 0x114 JUMPI DUP1 PUSH4 0xAFA3590F EQ PUSH2 0x130 JUMPI DUP1 PUSH4 0xCC80F6F3 EQ PUSH2 0x14C JUMPI DUP1 PUSH4 0xFCA5E61E EQ PUSH2 0x16A JUMPI PUSH2 0x88 JUMP JUMPDEST DUP1 PUSH4 0x32E342E6 EQ PUSH2 0x8D JUMPI DUP1 PUSH4 0x5923E919 EQ PUSH2 0xA9 JUMPI DUP1 PUSH4 0x60F1FC32 EQ PUSH2 0xC5 JUMPI DUP1 PUSH4 0x803AD4DE EQ PUSH2 0xE1 JUMPI JUMPDEST PUSH1 0x0 DUP1 REVERT JUMPDEST PUSH2 0xA7 PUSH1 0x4 DUP1 CALLDATASIZE SUB DUP2 ADD SWAP1 PUSH2 0xA2 SWAP2 SWAP1 PUSH2 0x78E JUMP JUMPDEST PUSH2 0x19D JUMP JUMPDEST STOP JUMPDEST PUSH2 0xC3 PUSH1 0x4 DUP1 CALLDATASIZE SUB DUP2 ADD SWAP1 PUSH2 0xBE SWAP2 SWAP1 PUSH2 0x78E JUMP JUMPDEST PUSH2 0x1CB JUMP JUMPDEST STOP JUMPDEST PUSH2 0xDF PUSH1 0x4 DUP1 CALLDATASIZE SUB DUP2 ADD SWAP1 PUSH2 0xDA SWAP2 SWAP1 PUSH2 0x6AF JUMP JUMPDEST PUSH2 0x1F9 JUMP JUMPDEST STOP JUMPDEST PUSH2 0xFB PUSH1 0x4 DUP1 CALLDATASIZE SUB DUP2 ADD SWAP1 PUSH2 0xF6 SWAP2 SWAP1 PUSH2 0x682 JUMP JUMPDEST PUSH2 0x237 JUMP JUMPDEST PUSH1 0x40 MLOAD PUSH2 0x10B SWAP5 SWAP4 SWAP3 SWAP2 SWAP1 PUSH2 0x838 JUMP JUMPDEST PUSH1 0x40 MLOAD DUP1 SWAP2 SUB SWAP1 RETURN JUMPDEST PUSH2 0x12E PUSH1 0x4 DUP1 CALLDATASIZE SUB DUP2 ADD SWAP1 PUSH2 0x129 SWAP2 SWAP1 PUSH2 0x78E JUMP JUMPDEST PUSH2 0x343 JUMP JUMPDEST STOP JUMPDEST PUSH2 0x14A PUSH1 0x4 DUP1 CALLDATASIZE SUB DUP2 ADD SWAP1 PUSH2 0x145 SWAP2 SWAP1 PUSH2 0x70B JUMP JUMPDEST PUSH2 0x371 JUMP JUMPDEST STOP JUMPDEST PUSH2 0x154 PUSH2 0x400 JUMP JUMPDEST PUSH1 0x40 MLOAD PUSH2 0x161 SWAP2 SWAP1 PUSH2 0x816 JUMP JUMPDEST PUSH1 0x40 MLOAD DUP1 SWAP2 SUB SWAP1 RETURN JUMPDEST PUSH2 0x184 PUSH1 0x4 DUP1 CALLDATASIZE SUB DUP2 ADD SWAP1 PUSH2 0x17F SWAP2 SWAP1 PUSH2 0x682 JUMP JUMPDEST PUSH2 0x492 JUMP JUMPDEST PUSH1 0x40 MLOAD PUSH2 0x194 SWAP5 SWAP4 SWAP3 SWAP2 SWAP1 PUSH2 0x838 JUMP JUMPDEST PUSH1 0x40 MLOAD DUP1 SWAP2 SUB SWAP1 RETURN JUMPDEST DUP1 PUSH1 0x2 DUP4 DUP2 SLOAD DUP2 LT PUSH2 0x1B2 JUMPI PUSH2 0x1B1 PUSH2 0x9D4 JUMP JUMPDEST JUMPDEST SWAP1 PUSH1 0x0 MSTORE PUSH1 0x20 PUSH1 0x0 KECCAK256 SWAP1 PUSH1 0x4 MUL ADD PUSH1 0x0 ADD DUP2 SWAP1 SSTORE POP POP POP JUMP JUMPDEST DUP1 PUSH1 0x2 DUP4 DUP2 SLOAD DUP2 LT PUSH2 0x1E0 JUMPI PUSH2 0x1DF PUSH2 0x9D4 JUMP JUMPDEST JUMPDEST SWAP1 PUSH1 0x0 MSTORE PUSH1 0x20 PUSH1 0x0 KECCAK256 SWAP1 PUSH1 0x4 MUL ADD PUSH1 0x2 ADD DUP2 SWAP1 SSTORE POP POP POP JUMP JUMPDEST DUP1 PUSH1 0x2 DUP4 DUP2 SLOAD DUP2 LT PUSH2 0x20E JUMPI PUSH2 0x20D PUSH2 0x9D4 JUMP JUMPDEST JUMPDEST SWAP1 PUSH1 0x0 MSTORE PUSH1 0x20 PUSH1 0x0 KECCAK256 SWAP1 PUSH1 0x4 MUL ADD PUSH1 0x1 ADD SWAP1 DUP1 MLOAD SWAP1 PUSH1 0x20 ADD SWAP1 PUSH2 0x232 SWAP3 SWAP2 SWAP1 PUSH2 0x55A JUMP JUMPDEST POP POP POP JUMP JUMPDEST PUSH1 0x0 PUSH1 0x60 PUSH1 0x0 DUP1 PUSH1 0x0 PUSH1 0x2 DUP7 DUP2 SLOAD DUP2 LT PUSH2 0x254 JUMPI PUSH2 0x253 PUSH2 0x9D4 JUMP JUMPDEST JUMPDEST SWAP1 PUSH1 0x0 MSTORE PUSH1 0x20 PUSH1 0x0 KECCAK256 SWAP1 PUSH1 0x4 MUL ADD PUSH1 0x40 MLOAD DUP1 PUSH1 0x80 ADD PUSH1 0x40 MSTORE SWAP1 DUP2 PUSH1 0x0 DUP3 ADD SLOAD DUP2 MSTORE PUSH1 0x20 ADD PUSH1 0x1 DUP3 ADD DUP1 SLOAD PUSH2 0x287 SWAP1 PUSH2 0x942 JUMP JUMPDEST DUP1 PUSH1 0x1F ADD PUSH1 0x20 DUP1 SWAP2 DIV MUL PUSH1 0x20 ADD PUSH1 0x40 MLOAD SWAP1 DUP2 ADD PUSH1 0x40 MSTORE DUP1 SWAP3 SWAP2 SWAP1 DUP2 DUP2 MSTORE PUSH1 0x20 ADD DUP3 DUP1 SLOAD PUSH2 0x2B3 SWAP1 PUSH2 0x942 JUMP JUMPDEST DUP1 ISZERO PUSH2 0x300 JUMPI DUP1 PUSH1 0x1F LT PUSH2 0x2D5 JUMPI PUSH2 0x100 DUP1 DUP4 SLOAD DIV MUL DUP4 MSTORE SWAP2 PUSH1 0x20 ADD SWAP2 PUSH2 0x300 JUMP JUMPDEST DUP3 ADD SWAP2 SWAP1 PUSH1 0x0 MSTORE PUSH1 0x20 PUSH1 0x0 KECCAK256 SWAP1 JUMPDEST DUP2 SLOAD DUP2 MSTORE SWAP1 PUSH1 0x1 ADD SWAP1 PUSH1 0x20 ADD DUP1 DUP4 GT PUSH2 0x2E3 JUMPI DUP3 SWAP1 SUB PUSH1 0x1F AND DUP3 ADD SWAP2 JUMPDEST POP POP POP POP POP DUP2 MSTORE PUSH1 0x20 ADD PUSH1 0x2 DUP3 ADD SLOAD DUP2 MSTORE PUSH1 0x20 ADD PUSH1 0x3 DUP3 ADD SLOAD DUP2 MSTORE POP POP SWAP1 POP DUP1 PUSH1 0x0 ADD MLOAD DUP2 PUSH1 0x20 ADD MLOAD DUP3 PUSH1 0x40 ADD MLOAD DUP4 PUSH1 0x60 ADD MLOAD SWAP5 POP SWAP5 POP SWAP5 POP SWAP5 POP POP SWAP2 SWAP4 POP SWAP2 SWAP4 JUMP JUMPDEST DUP1 PUSH1 0x2 DUP4 DUP2 SLOAD DUP2 LT PUSH2 0x358 JUMPI PUSH2 0x357 PUSH2 0x9D4 JUMP JUMPDEST JUMPDEST SWAP1 PUSH1 0x0 MSTORE PUSH1 0x20 PUSH1 0x0 KECCAK256 SWAP1 PUSH1 0x4 MUL ADD PUSH1 0x3 ADD DUP2 SWAP1 SSTORE POP POP POP JUMP JUMPDEST PUSH1 0x2 PUSH1 0x40 MLOAD DUP1 PUSH1 0x80 ADD PUSH1 0x40 MSTORE DUP1 DUP7 DUP2 MSTORE PUSH1 0x20 ADD DUP6 DUP2 MSTORE PUSH1 0x20 ADD DUP5 DUP2 MSTORE PUSH1 0x20 ADD DUP4 DUP2 MSTORE POP SWAP1 DUP1 PUSH1 0x1 DUP2 SLOAD ADD DUP1 DUP3 SSTORE DUP1 SWAP2 POP POP PUSH1 0x1 SWAP1 SUB SWAP1 PUSH1 0x0 MSTORE PUSH1 0x20 PUSH1 0x0 KECCAK256 SWAP1 PUSH1 0x4 MUL ADD PUSH1 0x0 SWAP1 SWAP2 SWAP1 SWAP2 SWAP1 SWAP2 POP PUSH1 0x0 DUP3 ADD MLOAD DUP2 PUSH1 0x0 ADD SSTORE PUSH1 0x20 DUP3 ADD MLOAD DUP2 PUSH1 0x1 ADD SWAP1 DUP1 MLOAD SWAP1 PUSH1 0x20 ADD SWAP1 PUSH2 0x3E3 SWAP3 SWAP2 SWAP1 PUSH2 0x55A JUMP JUMPDEST POP PUSH1 0x40 DUP3 ADD MLOAD DUP2 PUSH1 0x2 ADD SSTORE PUSH1 0x60 DUP3 ADD MLOAD DUP2 PUSH1 0x3 ADD SSTORE POP POP POP POP POP POP JUMP JUMPDEST PUSH1 0x60 PUSH1 0x0 DUP1 SLOAD PUSH2 0x40F SWAP1 PUSH2 0x942 JUMP JUMPDEST DUP1 PUSH1 0x1F ADD PUSH1 0x20 DUP1 SWAP2 DIV MUL PUSH1 0x20 ADD PUSH1 0x40 MLOAD SWAP1 DUP2 ADD PUSH1 0x40 MSTORE DUP1 SWAP3 SWAP2 SWAP1 DUP2 DUP2 MSTORE PUSH1 0x20 ADD DUP3 DUP1 SLOAD PUSH2 0x43B SWAP1 PUSH2 0x942 JUMP JUMPDEST DUP1 ISZERO PUSH2 0x488 JUMPI DUP1 PUSH1 0x1F LT PUSH2 0x45D JUMPI PUSH2 0x100 DUP1 DUP4 SLOAD DIV MUL DUP4 MSTORE SWAP2 PUSH1 0x20 ADD SWAP2 PUSH2 0x488 JUMP JUMPDEST DUP3 ADD SWAP2 SWAP1 PUSH1 0x0 MSTORE PUSH1 0x20 PUSH1 0x0 KECCAK256 SWAP1 JUMPDEST DUP2 SLOAD DUP2 MSTORE SWAP1 PUSH1 0x1 ADD SWAP1 PUSH1 0x20 ADD DUP1 DUP4 GT PUSH2 0x46B JUMPI DUP3 SWAP1 SUB PUSH1 0x1F AND DUP3 ADD SWAP2 JUMPDEST POP POP POP POP POP SWAP1 POP SWAP1 JUMP JUMPDEST PUSH1 0x2 DUP2 DUP2 SLOAD DUP2 LT PUSH2 0x4A2 JUMPI PUSH1 0x0 DUP1 REVERT JUMPDEST SWAP1 PUSH1 0x0 MSTORE PUSH1 0x20 PUSH1 0x0 KECCAK256 SWAP1 PUSH1 0x4 MUL ADD PUSH1 0x0 SWAP2 POP SWAP1 POP DUP1 PUSH1 0x0 ADD SLOAD SWAP1 DUP1 PUSH1 0x1 ADD DUP1 SLOAD PUSH2 0x4CB SWAP1 PUSH2 0x942 JUMP JUMPDEST DUP1 PUSH1 0x1F ADD PUSH1 0x20 DUP1 SWAP2 DIV MUL PUSH1 0x20 ADD PUSH1 0x40 MLOAD SWAP1 DUP2 ADD PUSH1 0x40 MSTORE DUP1 SWAP3 SWAP2 SWAP1 DUP2 DUP2 MSTORE PUSH1 0x20 ADD DUP3 DUP1 SLOAD PUSH2 0x4F7 SWAP1 PUSH2 0x942 JUMP JUMPDEST DUP1 ISZERO PUSH2 0x544 JUMPI DUP1 PUSH1 0x1F LT PUSH2 0x519 JUMPI PUSH2 0x100 DUP1 DUP4 SLOAD DIV MUL DUP4 MSTORE SWAP2 PUSH1 0x20 ADD SWAP2 PUSH2 0x544 JUMP JUMPDEST DUP3 ADD SWAP2 SWAP1 PUSH1 0x0 MSTORE PUSH1 0x20 PUSH1 0x0 KECCAK256 SWAP1 JUMPDEST DUP2 SLOAD DUP2 MSTORE SWAP1 PUSH1 0x1 ADD SWAP1 PUSH1 0x20 ADD DUP1 DUP4 GT PUSH2 0x527 JUMPI DUP3 SWAP1 SUB PUSH1 0x1F AND DUP3 ADD SWAP2 JUMPDEST POP POP POP POP POP SWAP1 DUP1 PUSH1 0x2 ADD SLOAD SWAP1 DUP1 PUSH1 0x3 ADD SLOAD SWAP1 POP DUP5 JUMP JUMPDEST DUP3 DUP1 SLOAD PUSH2 0x566 SWAP1 PUSH2 0x942 JUMP JUMPDEST SWAP1 PUSH1 0x0 MSTORE PUSH1 0x20 PUSH1 0x0 KECCAK256 SWAP1 PUSH1 0x1F ADD PUSH1 0x20 SWAP1 DIV DUP2 ADD SWAP3 DUP3 PUSH2 0x588 JUMPI PUSH1 0x0 DUP6 SSTORE PUSH2 0x5CF JUMP JUMPDEST DUP3 PUSH1 0x1F LT PUSH2 0x5A1 JUMPI DUP1 MLOAD PUSH1 0xFF NOT AND DUP4 DUP1 ADD OR DUP6 SSTORE PUSH2 0x5CF JUMP JUMPDEST DUP3 DUP1 ADD PUSH1 0x1 ADD DUP6 SSTORE DUP3 ISZERO PUSH2 0x5CF JUMPI SWAP2 DUP3 ADD JUMPDEST DUP3 DUP2 GT ISZERO PUSH2 0x5CE JUMPI DUP3 MLOAD DUP3 SSTORE SWAP2 PUSH1 0x20 ADD SWAP2 SWAP1 PUSH1 0x1 ADD SWAP1 PUSH2 0x5B3 JUMP JUMPDEST JUMPDEST POP SWAP1 POP PUSH2 0x5DC SWAP2 SWAP1 PUSH2 0x5E0 JUMP JUMPDEST POP SWAP1 JUMP JUMPDEST JUMPDEST DUP1 DUP3 GT ISZERO PUSH2 0x5F9 JUMPI PUSH1 0x0 DUP2 PUSH1 0x0 SWAP1 SSTORE POP PUSH1 0x1 ADD PUSH2 0x5E1 JUMP JUMPDEST POP SWAP1 JUMP JUMPDEST PUSH1 0x0 PUSH2 0x610 PUSH2 0x60B DUP5 PUSH2 0x8A9 JUMP JUMPDEST PUSH2 0x884 JUMP JUMPDEST SWAP1 POP DUP3 DUP2 MSTORE PUSH1 0x20 DUP2 ADD DUP5 DUP5 DUP5 ADD GT ISZERO PUSH2 0x62C JUMPI PUSH2 0x62B PUSH2 0xA37 JUMP JUMPDEST JUMPDEST PUSH2 0x637 DUP5 DUP3 DUP6 PUSH2 0x900 JUMP JUMPDEST POP SWAP4 SWAP3 POP POP POP JUMP JUMPDEST PUSH1 0x0 DUP3 PUSH1 0x1F DUP4 ADD SLT PUSH2 0x654 JUMPI PUSH2 0x653 PUSH2 0xA32 JUMP JUMPDEST JUMPDEST DUP2 CALLDATALOAD PUSH2 0x664 DUP5 DUP3 PUSH1 0x20 DUP7 ADD PUSH2 0x5FD JUMP JUMPDEST SWAP2 POP POP SWAP3 SWAP2 POP POP JUMP JUMPDEST PUSH1 0x0 DUP2 CALLDATALOAD SWAP1 POP PUSH2 0x67C DUP2 PUSH2 0xA57 JUMP JUMPDEST SWAP3 SWAP2 POP POP JUMP JUMPDEST PUSH1 0x0 PUSH1 0x20 DUP3 DUP5 SUB SLT ISZERO PUSH2 0x698 JUMPI PUSH2 0x697 PUSH2 0xA41 JUMP JUMPDEST JUMPDEST PUSH1 0x0 PUSH2 0x6A6 DUP5 DUP3 DUP6 ADD PUSH2 0x66D JUMP JUMPDEST SWAP2 POP POP SWAP3 SWAP2 POP POP JUMP JUMPDEST PUSH1 0x0 DUP1 PUSH1 0x40 DUP4 DUP6 SUB SLT ISZERO PUSH2 0x6C6 JUMPI PUSH2 0x6C5 PUSH2 0xA41 JUMP JUMPDEST JUMPDEST PUSH1 0x0 PUSH2 0x6D4 DUP6 DUP3 DUP7 ADD PUSH2 0x66D JUMP JUMPDEST SWAP3 POP POP PUSH1 0x20 DUP4 ADD CALLDATALOAD PUSH8 0xFFFFFFFFFFFFFFFF DUP2 GT ISZERO PUSH2 0x6F5 JUMPI PUSH2 0x6F4 PUSH2 0xA3C JUMP JUMPDEST JUMPDEST PUSH2 0x701 DUP6 DUP3 DUP7 ADD PUSH2 0x63F JUMP JUMPDEST SWAP2 POP POP SWAP3 POP SWAP3 SWAP1 POP JUMP JUMPDEST PUSH1 0x0 DUP1 PUSH1 0x0 DUP1 PUSH1 0x80 DUP6 DUP8 SUB SLT ISZERO PUSH2 0x725 JUMPI PUSH2 0x724 PUSH2 0xA41 JUMP JUMPDEST JUMPDEST PUSH1 0x0 PUSH2 0x733 DUP8 DUP3 DUP9 ADD PUSH2 0x66D JUMP JUMPDEST SWAP5 POP POP PUSH1 0x20 DUP6 ADD CALLDATALOAD PUSH8 0xFFFFFFFFFFFFFFFF DUP2 GT ISZERO PUSH2 0x754 JUMPI PUSH2 0x753 PUSH2 0xA3C JUMP JUMPDEST JUMPDEST PUSH2 0x760 DUP8 DUP3 DUP9 ADD PUSH2 0x63F JUMP JUMPDEST SWAP4 POP POP PUSH1 0x40 PUSH2 0x771 DUP8 DUP3 DUP9 ADD PUSH2 0x66D JUMP JUMPDEST SWAP3 POP POP PUSH1 0x60 PUSH2 0x782 DUP8 DUP3 DUP9 ADD PUSH2 0x66D JUMP JUMPDEST SWAP2 POP POP SWAP3 SWAP6 SWAP2 SWAP5 POP SWAP3 POP JUMP JUMPDEST PUSH1 0x0 DUP1 PUSH1 0x40 DUP4 DUP6 SUB SLT ISZERO PUSH2 0x7A5 JUMPI PUSH2 0x7A4 PUSH2 0xA41 JUMP JUMPDEST JUMPDEST PUSH1 0x0 PUSH2 0x7B3 DUP6 DUP3 DUP7 ADD PUSH2 0x66D JUMP JUMPDEST SWAP3 POP POP PUSH1 0x20 PUSH2 0x7C4 DUP6 DUP3 DUP7 ADD PUSH2 0x66D JUMP JUMPDEST SWAP2 POP POP SWAP3 POP SWAP3 SWAP1 POP JUMP JUMPDEST PUSH1 0x0 PUSH2 0x7D9 DUP3 PUSH2 0x8DA JUMP JUMPDEST PUSH2 0x7E3 DUP2 DUP6 PUSH2 0x8E5 JUMP JUMPDEST SWAP4 POP PUSH2 0x7F3 DUP2 DUP6 PUSH1 0x20 DUP7 ADD PUSH2 0x90F JUMP JUMPDEST PUSH2 0x7FC DUP2 PUSH2 0xA46 JUMP JUMPDEST DUP5 ADD SWAP2 POP POP SWAP3 SWAP2 POP POP JUMP JUMPDEST PUSH2 0x810 DUP2 PUSH2 0x8F6 JUMP JUMPDEST DUP3 MSTORE POP POP JUMP JUMPDEST PUSH1 0x0 PUSH1 0x20 DUP3 ADD SWAP1 POP DUP2 DUP2 SUB PUSH1 0x0 DUP4 ADD MSTORE PUSH2 0x830 DUP2 DUP5 PUSH2 0x7CE JUMP JUMPDEST SWAP1 POP SWAP3 SWAP2 POP POP JUMP JUMPDEST PUSH1 0x0 PUSH1 0x80 DUP3 ADD SWAP1 POP PUSH2 0x84D PUSH1 0x0 DUP4 ADD DUP8 PUSH2 0x807 JUMP JUMPDEST DUP2 DUP2 SUB PUSH1 0x20 DUP4 ADD MSTORE PUSH2 0x85F DUP2 DUP7 PUSH2 0x7CE JUMP JUMPDEST SWAP1 POP PUSH2 0x86E PUSH1 0x40 DUP4 ADD DUP6 PUSH2 0x807 JUMP JUMPDEST PUSH2 0x87B PUSH1 0x60 DUP4 ADD DUP5 PUSH2 0x807 JUMP JUMPDEST SWAP6 SWAP5 POP POP POP POP POP JUMP JUMPDEST PUSH1 0x0 PUSH2 0x88E PUSH2 0x89F JUMP JUMPDEST SWAP1 POP PUSH2 0x89A DUP3 DUP3 PUSH2 0x974 JUMP JUMPDEST SWAP2 SWAP1 POP JUMP JUMPDEST PUSH1 0x0 PUSH1 0x40 MLOAD SWAP1 POP SWAP1 JUMP JUMPDEST PUSH1 0x0 PUSH8 0xFFFFFFFFFFFFFFFF DUP3 GT ISZERO PUSH2 0x8C4 JUMPI PUSH2 0x8C3 PUSH2 0xA03 JUMP JUMPDEST JUMPDEST PUSH2 0x8CD DUP3 PUSH2 0xA46 JUMP JUMPDEST SWAP1 POP PUSH1 0x20 DUP2 ADD SWAP1 POP SWAP2 SWAP1 POP JUMP JUMPDEST PUSH1 0x0 DUP2 MLOAD SWAP1 POP SWAP2 SWAP1 POP JUMP JUMPDEST PUSH1 0x0 DUP3 DUP3 MSTORE PUSH1 0x20 DUP3 ADD SWAP1 POP SWAP3 SWAP2 POP POP JUMP JUMPDEST PUSH1 0x0 DUP2 SWAP1 POP SWAP2 SWAP1 POP JUMP JUMPDEST DUP3 DUP2 DUP4 CALLDATACOPY PUSH1 0x0 DUP4 DUP4 ADD MSTORE POP POP POP JUMP JUMPDEST PUSH1 0x0 JUMPDEST DUP4 DUP2 LT ISZERO PUSH2 0x92D JUMPI DUP1 DUP3 ADD MLOAD DUP2 DUP5 ADD MSTORE PUSH1 0x20 DUP2 ADD SWAP1 POP PUSH2 0x912 JUMP JUMPDEST DUP4 DUP2 GT ISZERO PUSH2 0x93C JUMPI PUSH1 0x0 DUP5 DUP5 ADD MSTORE JUMPDEST POP POP POP POP JUMP JUMPDEST PUSH1 0x0 PUSH1 0x2 DUP3 DIV SWAP1 POP PUSH1 0x1 DUP3 AND DUP1 PUSH2 0x95A JUMPI PUSH1 0x7F DUP3 AND SWAP2 POP JUMPDEST PUSH1 0x20 DUP3 LT DUP2 EQ ISZERO PUSH2 0x96E JUMPI PUSH2 0x96D PUSH2 0x9A5 JUMP JUMPDEST JUMPDEST POP SWAP2 SWAP1 POP JUMP JUMPDEST PUSH2 0x97D DUP3 PUSH2 0xA46 JUMP JUMPDEST DUP2 ADD DUP2 DUP2 LT PUSH8 0xFFFFFFFFFFFFFFFF DUP3 GT OR ISZERO PUSH2 0x99C JUMPI PUSH2 0x99B PUSH2 0xA03 JUMP JUMPDEST JUMPDEST DUP1 PUSH1 0x40 MSTORE POP POP POP JUMP JUMPDEST PUSH32 0x4E487B7100000000000000000000000000000000000000000000000000000000 PUSH1 0x0 MSTORE PUSH1 0x22 PUSH1 0x4 MSTORE PUSH1 0x24 PUSH1 0x0 REVERT JUMPDEST PUSH32 0x4E487B7100000000000000000000000000000000000000000000000000000000 PUSH1 0x0 MSTORE PUSH1 0x32 PUSH1 0x4 MSTORE PUSH1 0x24 PUSH1 0x0 REVERT JUMPDEST PUSH32 0x4E487B7100000000000000000000000000000000000000000000000000000000 PUSH1 0x0 MSTORE PUSH1 0x41 PUSH1 0x4 MSTORE PUSH1 0x24 PUSH1 0x0 REVERT JUMPDEST PUSH1 0x0 DUP1 REVERT JUMPDEST PUSH1 0x0 DUP1 REVERT JUMPDEST PUSH1 0x0 DUP1 REVERT JUMPDEST PUSH1 0x0 DUP1 REVERT JUMPDEST PUSH1 0x0 PUSH1 0x1F NOT PUSH1 0x1F DUP4 ADD AND SWAP1 POP SWAP2 SWAP1 POP JUMP JUMPDEST PUSH2 0xA60 DUP2 PUSH2 0x8F6 JUMP JUMPDEST DUP2 EQ PUSH2 0xA6B JUMPI PUSH1 0x0 DUP1 REVERT JUMPDEST POP JUMP INVALID LOG2 PUSH5 0x6970667358 0x22 SLT KECCAK256 STATICCALL 0xC8 ADDMOD BALANCE DUP7 GAS 0xCD AND 0xBC 0xCE 0xDE PUSH8 0x9AFD05AB22B56EF5 AND RETURN PUSH20 0x60827C0224EA9E374064736F6C63430008070033 PUSH22 0x736520696E64657820303D73657269616C5F6E6F3A6E PUSH16 0x20313D647275675F6E616D653A6E616D PUSH6 0x20323D647275 PUSH8 0x5F7175616E746974 PUSH26 0x3A77656967687420333D647275675F76616C75653A616D6F756E PUSH21 0x200000000000000000000000000000000000000000 "
				},
				"gasEstimates": {
					"creation": {
						"codeDepositCost": "544800",
						"executionCost": "infinite",
						"totalCost": "infinite"
					},
					"external": {
						"access(uint256)": "infinite",
						"drugs(uint256)": "infinite",
						"insert_data(uint256,string,uint256,uint256)": "infinite",
						"show()": "infinite",
						"up_name(uint256,string)": "infinite",
						"up_quantity(uint256,uint256)": "infinite",
						"up_value(uint256,uint256)": "infinite",
						"update_data(uint256,uint256)": "infinite"
					}
				},
				"methodIdentifiers": {
					"access(uint256)": "803ad4de",
					"drugs(uint256)": "fca5e61e",
					"insert_data(uint256,string,uint256,uint256)": "afa3590f",
					"show()": "cc80f6f3",
					"up_name(uint256,string)": "60f1fc32",
					"up_quantity(uint256,uint256)": "5923e919",
					"up_value(uint256,uint256)": "96698d2e",
					"update_data(uint256,uint256)": "32e342e6"
				}
			},
			"storageLayout": {
				"storage": [
					{
						"astId": 4,
						"contract": "remix ide/PROJECT/drug.sol:trace_drug",
						"label": "s",
						"offset": 0,
						"slot": "0",
						"type": "t_string_storage"
					},
					{
						"astId": 17,
						"contract": "remix ide/PROJECT/drug.sol:trace_drug",
						"label": "owner",
						"offset": 0,
						"slot": "1",
						"type": "t_address"
					},
					{
						"astId": 21,
						"contract": "remix ide/PROJECT/drug.sol:trace_drug",
						"label": "drugs",
						"offset": 0,
						"slot": "2",
						"type": "t_array(t_struct(drug)13_storage)dyn_storage"
					}
				],
				"types": {
					"t_address": {
						"encoding": "inplace",
						"label": "address",
						"numberOfBytes": "20"
					},
					"t_array(t_struct(drug)13_storage)dyn_storage": {
						"base": "t_struct(drug)13_storage",
						"encoding": "dynamic_array",
						"label": "struct trace_drug.drug[]",
						"numberOfBytes": "32"
					},
					"t_string_storage": {
						"encoding": "bytes",
						"label": "string",
						"numberOfBytes": "32"
					},
					"t_struct(drug)13_storage": {
						"encoding": "inplace",
						"label": "struct trace_drug.drug",
						"members": [
							{
								"astId": 6,
								"contract": "remix ide/PROJECT/drug.sol:trace_drug",
								"label": "serial_no",
								"offset": 0,
								"slot": "0",
								"type": "t_uint256"
							},
							{
								"astId": 8,
								"contract": "remix ide/PROJECT/drug.sol:trace_drug",
								"label": "drug_name",
								"offset": 0,
								"slot": "1",
								"type": "t_string_storage"
							},
							{
								"astId": 10,
								"contract": "remix ide/PROJECT/drug.sol:trace_drug",
								"label": "drug_quantity",
								"offset": 0,
								"slot": "2",
								"type": "t_uint256"
							},
							{
								"astId": 12,
								"contract": "remix ide/PROJECT/drug.sol:trace_drug",
								"label": "drug_value",
								"offset": 0,
								"slot": "3",
								"type": "t_uint256"
							}
						],
						"numberOfBytes": "128"
					},
					"t_uint256": {
						"encoding": "inplace",
						"label": "uint256",
						"numberOfBytes": "32"
					}
				}
			},
			"userdoc": {
				"kind": "user",
				"methods": {},
				"version": 1
			}
		}
	}
}