{
	"remix_ide/PROJECT/saran.sol": {
		"time_lock": {
			"abi": [
				{
					"anonymous": false,
					"inputs": [
						{
							"indexed": false,
							"internalType": "address",
							"name": "",
							"type": "address"
						},
						{
							"indexed": false,
							"internalType": "uint256",
							"name": "",
							"type": "uint256"
						}
					],
					"name": "get",
					"type": "event"
				},
				{
					"inputs": [],
					"name": "balance",
					"outputs": [
						{
							"internalType": "uint256",
							"name": "",
							"type": "uint256"
						}
					],
					"stateMutability": "view",
					"type": "function"
				},
				{
					"inputs": [
						{
							"internalType": "address payable",
							"name": "_receiver",
							"type": "address"
						},
						{
							"internalType": "uint256",
							"name": "_amount",
							"type": "uint256"
						}
					],
					"name": "send",
					"outputs": [],
					"stateMutability": "nonpayable",
					"type": "function"
				},
				{
					"stateMutability": "payable",
					"type": "receive"
				}
			],
			"devdoc": {
				"kind": "dev",
				"methods": {},
				"version": 1
			},
			"evm": {
				"assembly": "    /* \"remix_ide/PROJECT/saran.sol\":56:872  contract time_lock{... */\n  mstore(0x40, 0x80)\n    /* \"remix_ide/PROJECT/saran.sol\":95:110  block.timestamp */\n  timestamp\n    /* \"remix_ide/PROJECT/saran.sol\":81:110  uint  current=block.timestamp */\n  0x00\n  sstore\n    /* \"remix_ide/PROJECT/saran.sol\":133:142  1 minutes */\n  0x3c\n    /* \"remix_ide/PROJECT/saran.sol\":117:142  uint  duraction=1 minutes */\n  0x01\n  sstore\n    /* \"remix_ide/PROJECT/saran.sol\":169:178  duraction */\n  sload(0x01)\n    /* \"remix_ide/PROJECT/saran.sol\":161:168  current */\n  sload(0x00)\n    /* \"remix_ide/PROJECT/saran.sol\":161:178  current+duraction */\n  tag_1\n  swap2\n  swap1\n  tag_2\n  jump\t// in\ntag_1:\n    /* \"remix_ide/PROJECT/saran.sol\":149:178  uint  total=current+duraction */\n  0x02\n  sstore\n    /* \"remix_ide/PROJECT/saran.sol\":199:209  msg.sender */\n  caller\n    /* \"remix_ide/PROJECT/saran.sol\":185:209  address owner=msg.sender */\n  0x03\n  exp(0x0100, 0x00)\n  dup2\n  sload\n  dup2\n  0xffffffffffffffffffffffffffffffffffffffff\n  mul\n  not\n  and\n  swap1\n  dup4\n  0xffffffffffffffffffffffffffffffffffffffff\n  and\n  mul\n  or\n  swap1\n  sstore\n  pop\n    /* \"remix_ide/PROJECT/saran.sol\":56:872  contract time_lock{... */\n  callvalue\n  dup1\n  iszero\n  tag_3\n  jumpi\n  0x00\n  dup1\n  revert\ntag_3:\n  pop\n  jump(tag_4)\n    /* \"#utility.yul\":7:84   */\ntag_5:\n    /* \"#utility.yul\":44:51   */\n  0x00\n    /* \"#utility.yul\":73:78   */\n  dup2\n    /* \"#utility.yul\":62:78   */\n  swap1\n  pop\n    /* \"#utility.yul\":7:84   */\n  swap2\n  swap1\n  pop\n  jump\t// out\n    /* \"#utility.yul\":90:270   */\ntag_6:\n    /* \"#utility.yul\":138:215   */\n  0x4e487b7100000000000000000000000000000000000000000000000000000000\n    /* \"#utility.yul\":135:136   */\n  0x00\n    /* \"#utility.yul\":128:216   */\n  mstore\n    /* \"#utility.yul\":235:239   */\n  0x11\n    /* \"#utility.yul\":232:233   */\n  0x04\n    /* \"#utility.yul\":225:240   */\n  mstore\n    /* \"#utility.yul\":259:263   */\n  0x24\n    /* \"#utility.yul\":256:257   */\n  0x00\n    /* \"#utility.yul\":249:264   */\n  revert\n    /* \"#utility.yul\":276:467   */\ntag_2:\n    /* \"#utility.yul\":316:319   */\n  0x00\n    /* \"#utility.yul\":335:355   */\n  tag_11\n    /* \"#utility.yul\":353:354   */\n  dup3\n    /* \"#utility.yul\":335:355   */\n  tag_5\n  jump\t// in\ntag_11:\n    /* \"#utility.yul\":330:355   */\n  swap2\n  pop\n    /* \"#utility.yul\":369:389   */\n  tag_12\n    /* \"#utility.yul\":387:388   */\n  dup4\n    /* \"#utility.yul\":369:389   */\n  tag_5\n  jump\t// in\ntag_12:\n    /* \"#utility.yul\":364:389   */\n  swap3\n  pop\n    /* \"#utility.yul\":412:413   */\n  dup3\n    /* \"#utility.yul\":409:410   */\n  dup3\n    /* \"#utility.yul\":405:414   */\n  add\n    /* \"#utility.yul\":398:414   */\n  swap1\n  pop\n    /* \"#utility.yul\":433:436   */\n  dup1\n    /* \"#utility.yul\":430:431   */\n  dup3\n    /* \"#utility.yul\":427:437   */\n  gt\n    /* \"#utility.yul\":424:460   */\n  iszero\n  tag_13\n  jumpi\n    /* \"#utility.yul\":440:458   */\n  tag_14\n  tag_6\n  jump\t// in\ntag_14:\n    /* \"#utility.yul\":424:460   */\ntag_13:\n    /* \"#utility.yul\":276:467   */\n  swap3\n  swap2\n  pop\n  pop\n  jump\t// out\n    /* \"remix_ide/PROJECT/saran.sol\":56:872  contract time_lock{... */\ntag_4:\n  dataSize(sub_0)\n  dup1\n  dataOffset(sub_0)\n  0x00\n  codecopy\n  0x00\n  return\nstop\n\nsub_0: assembly {\n        /* \"remix_ide/PROJECT/saran.sol\":56:872  contract time_lock{... */\n      mstore(0x40, 0x80)\n      jumpi(tag_1, lt(calldatasize, 0x04))\n      shr(0xe0, calldataload(0x00))\n      dup1\n      0xb69ef8a8\n      eq\n      tag_3\n      jumpi\n      dup1\n      0xd0679d34\n      eq\n      tag_4\n      jumpi\n      jump(tag_2)\n    tag_1:\n      jumpi(tag_2, calldatasize)\n        /* \"remix_ide/PROJECT/saran.sol\":288:293  total */\n      sload(0x02)\n        /* \"remix_ide/PROJECT/saran.sol\":269:284  block.timestamp */\n      timestamp\n        /* \"remix_ide/PROJECT/saran.sol\":269:293  block.timestamp >= total */\n      lt\n      iszero\n        /* \"remix_ide/PROJECT/saran.sol\":261:321  require(block.timestamp >= total,\"wait until the time over\") */\n      tag_7\n      jumpi\n      mload(0x40)\n      0x08c379a000000000000000000000000000000000000000000000000000000000\n      dup2\n      mstore\n      0x04\n      add\n      tag_8\n      swap1\n      tag_9\n      jump\t// in\n    tag_8:\n      mload(0x40)\n      dup1\n      swap2\n      sub\n      swap1\n      revert\n    tag_7:\n        /* \"remix_ide/PROJECT/saran.sol\":456:481  get(msg.sender,msg.value) */\n      0xb464631b380afceb0bd13badeaed5df2811470f57a443999ed8638dd9bb8ca0b\n        /* \"remix_ide/PROJECT/saran.sol\":460:470  msg.sender */\n      caller\n        /* \"remix_ide/PROJECT/saran.sol\":471:480  msg.value */\n      callvalue\n        /* \"remix_ide/PROJECT/saran.sol\":456:481  get(msg.sender,msg.value) */\n      mload(0x40)\n      tag_11\n      swap3\n      swap2\n      swap1\n      tag_12\n      jump\t// in\n    tag_11:\n      mload(0x40)\n      dup1\n      swap2\n      sub\n      swap1\n      log1\n        /* \"remix_ide/PROJECT/saran.sol\":56:872  contract time_lock{... */\n      stop\n    tag_2:\n      0x00\n      dup1\n      revert\n        /* \"remix_ide/PROJECT/saran.sol\":762:867  function balance() public view virtual  returns(uint) {... */\n    tag_3:\n      callvalue\n      dup1\n      iszero\n      tag_13\n      jumpi\n      0x00\n      dup1\n      revert\n    tag_13:\n      pop\n      tag_14\n      tag_15\n      jump\t// in\n    tag_14:\n      mload(0x40)\n      tag_16\n      swap2\n      swap1\n      tag_17\n      jump\t// in\n    tag_16:\n      mload(0x40)\n      dup1\n      swap2\n      sub\n      swap1\n      return\n        /* \"remix_ide/PROJECT/saran.sol\":503:756  function send(address payable _receiver,uint _amount) public condition virtual  {... */\n    tag_4:\n      callvalue\n      dup1\n      iszero\n      tag_18\n      jumpi\n      0x00\n      dup1\n      revert\n    tag_18:\n      pop\n      tag_19\n      0x04\n      dup1\n      calldatasize\n      sub\n      dup2\n      add\n      swap1\n      tag_20\n      swap2\n      swap1\n      tag_21\n      jump\t// in\n    tag_20:\n      tag_22\n      jump\t// in\n    tag_19:\n      stop\n        /* \"remix_ide/PROJECT/saran.sol\":762:867  function balance() public view virtual  returns(uint) {... */\n    tag_15:\n        /* \"remix_ide/PROJECT/saran.sol\":810:814  uint */\n      0x00\n        /* \"remix_ide/PROJECT/saran.sol\":834:855  address(this).balance */\n      selfbalance\n        /* \"remix_ide/PROJECT/saran.sol\":827:856  return(address(this).balance) */\n      swap1\n      pop\n        /* \"remix_ide/PROJECT/saran.sol\":762:867  function balance() public view virtual  returns(uint) {... */\n      swap1\n      jump\t// out\n        /* \"remix_ide/PROJECT/saran.sol\":503:756  function send(address payable _receiver,uint _amount) public condition virtual  {... */\n    tag_22:\n        /* \"remix_ide/PROJECT/saran.sol\":288:293  total */\n      sload(0x02)\n        /* \"remix_ide/PROJECT/saran.sol\":269:284  block.timestamp */\n      timestamp\n        /* \"remix_ide/PROJECT/saran.sol\":269:293  block.timestamp >= total */\n      lt\n      iszero\n        /* \"remix_ide/PROJECT/saran.sol\":261:321  require(block.timestamp >= total,\"wait until the time over\") */\n      tag_25\n      jumpi\n      mload(0x40)\n      0x08c379a000000000000000000000000000000000000000000000000000000000\n      dup2\n      mstore\n      0x04\n      add\n      tag_26\n      swap1\n      tag_9\n      jump\t// in\n    tag_26:\n      mload(0x40)\n      dup1\n      swap2\n      sub\n      swap1\n      revert\n    tag_25:\n        /* \"remix_ide/PROJECT/saran.sol\":613:623  msg.sender */\n      caller\n        /* \"remix_ide/PROJECT/saran.sol\":606:623  owner==msg.sender */\n      0xffffffffffffffffffffffffffffffffffffffff\n      and\n        /* \"remix_ide/PROJECT/saran.sol\":606:611  owner */\n      0x03\n      0x00\n      swap1\n      sload\n      swap1\n      0x0100\n      exp\n      swap1\n      div\n      0xffffffffffffffffffffffffffffffffffffffff\n      and\n        /* \"remix_ide/PROJECT/saran.sol\":606:623  owner==msg.sender */\n      0xffffffffffffffffffffffffffffffffffffffff\n      and\n      eq\n        /* \"remix_ide/PROJECT/saran.sol\":598:636  require(owner==msg.sender,\"not owner\") */\n      tag_28\n      jumpi\n      mload(0x40)\n      0x08c379a000000000000000000000000000000000000000000000000000000000\n      dup2\n      mstore\n      0x04\n      add\n      tag_29\n      swap1\n      tag_30\n      jump\t// in\n    tag_29:\n      mload(0x40)\n      dup1\n      swap2\n      sub\n      swap1\n      revert\n    tag_28:\n        /* \"remix_ide/PROJECT/saran.sol\":720:729  _receiver */\n      dup2\n        /* \"remix_ide/PROJECT/saran.sol\":711:739  payable( _receiver).transfer */\n      0xffffffffffffffffffffffffffffffffffffffff\n      and\n        /* \"remix_ide/PROJECT/saran.sol\":711:748  payable( _receiver).transfer(_amount) */\n      0x08fc\n        /* \"remix_ide/PROJECT/saran.sol\":740:747  _amount */\n      dup3\n        /* \"remix_ide/PROJECT/saran.sol\":711:748  payable( _receiver).transfer(_amount) */\n      swap1\n      dup2\n      iszero\n      mul\n      swap1\n      mload(0x40)\n      0x00\n      mload(0x40)\n      dup1\n      dup4\n      sub\n      dup2\n      dup6\n      dup9\n      dup9\n      call\n      swap4\n      pop\n      pop\n      pop\n      pop\n      iszero\n      dup1\n      iszero\n      tag_32\n      jumpi\n      returndatasize\n      0x00\n      dup1\n      returndatacopy\n      revert(0x00, returndatasize)\n    tag_32:\n      pop\n        /* \"remix_ide/PROJECT/saran.sol\":503:756  function send(address payable _receiver,uint _amount) public condition virtual  {... */\n      pop\n      pop\n      jump\t// out\n        /* \"#utility.yul\":7:176   */\n    tag_33:\n        /* \"#utility.yul\":91:102   */\n      0x00\n        /* \"#utility.yul\":125:131   */\n      dup3\n        /* \"#utility.yul\":120:123   */\n      dup3\n        /* \"#utility.yul\":113:132   */\n      mstore\n        /* \"#utility.yul\":165:169   */\n      0x20\n        /* \"#utility.yul\":160:163   */\n      dup3\n        /* \"#utility.yul\":156:170   */\n      add\n        /* \"#utility.yul\":141:170   */\n      swap1\n      pop\n        /* \"#utility.yul\":7:176   */\n      swap3\n      swap2\n      pop\n      pop\n      jump\t// out\n        /* \"#utility.yul\":182:356   */\n    tag_34:\n        /* \"#utility.yul\":322:348   */\n      0x7761697420756e74696c207468652074696d65206f7665720000000000000000\n        /* \"#utility.yul\":318:319   */\n      0x00\n        /* \"#utility.yul\":310:316   */\n      dup3\n        /* \"#utility.yul\":306:320   */\n      add\n        /* \"#utility.yul\":299:349   */\n      mstore\n        /* \"#utility.yul\":182:356   */\n      pop\n      jump\t// out\n        /* \"#utility.yul\":362:728   */\n    tag_35:\n        /* \"#utility.yul\":504:507   */\n      0x00\n        /* \"#utility.yul\":525:592   */\n      tag_55\n        /* \"#utility.yul\":589:591   */\n      0x18\n        /* \"#utility.yul\":584:587   */\n      dup4\n        /* \"#utility.yul\":525:592   */\n      tag_33\n      jump\t// in\n    tag_55:\n        /* \"#utility.yul\":518:592   */\n      swap2\n      pop\n        /* \"#utility.yul\":601:694   */\n      tag_56\n        /* \"#utility.yul\":690:693   */\n      dup3\n        /* \"#utility.yul\":601:694   */\n      tag_34\n      jump\t// in\n    tag_56:\n        /* \"#utility.yul\":719:721   */\n      0x20\n        /* \"#utility.yul\":714:717   */\n      dup3\n        /* \"#utility.yul\":710:722   */\n      add\n        /* \"#utility.yul\":703:722   */\n      swap1\n      pop\n        /* \"#utility.yul\":362:728   */\n      swap2\n      swap1\n      pop\n      jump\t// out\n        /* \"#utility.yul\":734:1153   */\n    tag_9:\n        /* \"#utility.yul\":900:904   */\n      0x00\n        /* \"#utility.yul\":938:940   */\n      0x20\n        /* \"#utility.yul\":927:936   */\n      dup3\n        /* \"#utility.yul\":923:941   */\n      add\n        /* \"#utility.yul\":915:941   */\n      swap1\n      pop\n        /* \"#utility.yul\":987:996   */\n      dup2\n        /* \"#utility.yul\":981:985   */\n      dup2\n        /* \"#utility.yul\":977:997   */\n      sub\n        /* \"#utility.yul\":973:974   */\n      0x00\n        /* \"#utility.yul\":962:971   */\n      dup4\n        /* \"#utility.yul\":958:975   */\n      add\n        /* \"#utility.yul\":951:998   */\n      mstore\n        /* \"#utility.yul\":1015:1146   */\n      tag_58\n        /* \"#utility.yul\":1141:1145   */\n      dup2\n        /* \"#utility.yul\":1015:1146   */\n      tag_35\n      jump\t// in\n    tag_58:\n        /* \"#utility.yul\":1007:1146   */\n      swap1\n      pop\n        /* \"#utility.yul\":734:1153   */\n      swap2\n      swap1\n      pop\n      jump\t// out\n        /* \"#utility.yul\":1159:1285   */\n    tag_36:\n        /* \"#utility.yul\":1196:1203   */\n      0x00\n        /* \"#utility.yul\":1236:1278   */\n      0xffffffffffffffffffffffffffffffffffffffff\n        /* \"#utility.yul\":1229:1234   */\n      dup3\n        /* \"#utility.yul\":1225:1279   */\n      and\n        /* \"#utility.yul\":1214:1279   */\n      swap1\n      pop\n        /* \"#utility.yul\":1159:1285   */\n      swap2\n      swap1\n      pop\n      jump\t// out\n        /* \"#utility.yul\":1291:1387   */\n    tag_37:\n        /* \"#utility.yul\":1328:1335   */\n      0x00\n        /* \"#utility.yul\":1357:1381   */\n      tag_61\n        /* \"#utility.yul\":1375:1380   */\n      dup3\n        /* \"#utility.yul\":1357:1381   */\n      tag_36\n      jump\t// in\n    tag_61:\n        /* \"#utility.yul\":1346:1381   */\n      swap1\n      pop\n        /* \"#utility.yul\":1291:1387   */\n      swap2\n      swap1\n      pop\n      jump\t// out\n        /* \"#utility.yul\":1393:1511   */\n    tag_38:\n        /* \"#utility.yul\":1480:1504   */\n      tag_63\n        /* \"#utility.yul\":1498:1503   */\n      dup2\n        /* \"#utility.yul\":1480:1504   */\n      tag_37\n      jump\t// in\n    tag_63:\n        /* \"#utility.yul\":1475:1478   */\n      dup3\n        /* \"#utility.yul\":1468:1505   */\n      mstore\n        /* \"#utility.yul\":1393:1511   */\n      pop\n      pop\n      jump\t// out\n        /* \"#utility.yul\":1517:1594   */\n    tag_39:\n        /* \"#utility.yul\":1554:1561   */\n      0x00\n        /* \"#utility.yul\":1583:1588   */\n      dup2\n        /* \"#utility.yul\":1572:1588   */\n      swap1\n      pop\n        /* \"#utility.yul\":1517:1594   */\n      swap2\n      swap1\n      pop\n      jump\t// out\n        /* \"#utility.yul\":1600:1718   */\n    tag_40:\n        /* \"#utility.yul\":1687:1711   */\n      tag_66\n        /* \"#utility.yul\":1705:1710   */\n      dup2\n        /* \"#utility.yul\":1687:1711   */\n      tag_39\n      jump\t// in\n    tag_66:\n        /* \"#utility.yul\":1682:1685   */\n      dup3\n        /* \"#utility.yul\":1675:1712   */\n      mstore\n        /* \"#utility.yul\":1600:1718   */\n      pop\n      pop\n      jump\t// out\n        /* \"#utility.yul\":1724:2056   */\n    tag_12:\n        /* \"#utility.yul\":1845:1849   */\n      0x00\n        /* \"#utility.yul\":1883:1885   */\n      0x40\n        /* \"#utility.yul\":1872:1881   */\n      dup3\n        /* \"#utility.yul\":1868:1886   */\n      add\n        /* \"#utility.yul\":1860:1886   */\n      swap1\n      pop\n        /* \"#utility.yul\":1896:1967   */\n      tag_68\n        /* \"#utility.yul\":1964:1965   */\n      0x00\n        /* \"#utility.yul\":1953:1962   */\n      dup4\n        /* \"#utility.yul\":1949:1966   */\n      add\n        /* \"#utility.yul\":1940:1946   */\n      dup6\n        /* \"#utility.yul\":1896:1967   */\n      tag_38\n      jump\t// in\n    tag_68:\n        /* \"#utility.yul\":1977:2049   */\n      tag_69\n        /* \"#utility.yul\":2045:2047   */\n      0x20\n        /* \"#utility.yul\":2034:2043   */\n      dup4\n        /* \"#utility.yul\":2030:2048   */\n      add\n        /* \"#utility.yul\":2021:2027   */\n      dup5\n        /* \"#utility.yul\":1977:2049   */\n      tag_40\n      jump\t// in\n    tag_69:\n        /* \"#utility.yul\":1724:2056   */\n      swap4\n      swap3\n      pop\n      pop\n      pop\n      jump\t// out\n        /* \"#utility.yul\":2062:2284   */\n    tag_17:\n        /* \"#utility.yul\":2155:2159   */\n      0x00\n        /* \"#utility.yul\":2193:2195   */\n      0x20\n        /* \"#utility.yul\":2182:2191   */\n      dup3\n        /* \"#utility.yul\":2178:2196   */\n      add\n        /* \"#utility.yul\":2170:2196   */\n      swap1\n      pop\n        /* \"#utility.yul\":2206:2277   */\n      tag_71\n        /* \"#utility.yul\":2274:2275   */\n      0x00\n        /* \"#utility.yul\":2263:2272   */\n      dup4\n        /* \"#utility.yul\":2259:2276   */\n      add\n        /* \"#utility.yul\":2250:2256   */\n      dup5\n        /* \"#utility.yul\":2206:2277   */\n      tag_40\n      jump\t// in\n    tag_71:\n        /* \"#utility.yul\":2062:2284   */\n      swap3\n      swap2\n      pop\n      pop\n      jump\t// out\n        /* \"#utility.yul\":2371:2488   */\n    tag_42:\n        /* \"#utility.yul\":2480:2481   */\n      0x00\n        /* \"#utility.yul\":2477:2478   */\n      dup1\n        /* \"#utility.yul\":2470:2482   */\n      revert\n        /* \"#utility.yul\":2617:2721   */\n    tag_44:\n        /* \"#utility.yul\":2662:2669   */\n      0x00\n        /* \"#utility.yul\":2691:2715   */\n      tag_76\n        /* \"#utility.yul\":2709:2714   */\n      dup3\n        /* \"#utility.yul\":2691:2715   */\n      tag_36\n      jump\t// in\n    tag_76:\n        /* \"#utility.yul\":2680:2715   */\n      swap1\n      pop\n        /* \"#utility.yul\":2617:2721   */\n      swap2\n      swap1\n      pop\n      jump\t// out\n        /* \"#utility.yul\":2727:2865   */\n    tag_45:\n        /* \"#utility.yul\":2808:2840   */\n      tag_78\n        /* \"#utility.yul\":2834:2839   */\n      dup2\n        /* \"#utility.yul\":2808:2840   */\n      tag_44\n      jump\t// in\n    tag_78:\n        /* \"#utility.yul\":2801:2806   */\n      dup2\n        /* \"#utility.yul\":2798:2841   */\n      eq\n        /* \"#utility.yul\":2788:2859   */\n      tag_79\n      jumpi\n        /* \"#utility.yul\":2855:2856   */\n      0x00\n        /* \"#utility.yul\":2852:2853   */\n      dup1\n        /* \"#utility.yul\":2845:2857   */\n      revert\n        /* \"#utility.yul\":2788:2859   */\n    tag_79:\n        /* \"#utility.yul\":2727:2865   */\n      pop\n      jump\t// out\n        /* \"#utility.yul\":2871:3026   */\n    tag_46:\n        /* \"#utility.yul\":2925:2930   */\n      0x00\n        /* \"#utility.yul\":2963:2969   */\n      dup2\n        /* \"#utility.yul\":2950:2970   */\n      calldataload\n        /* \"#utility.yul\":2941:2970   */\n      swap1\n      pop\n        /* \"#utility.yul\":2979:3020   */\n      tag_81\n        /* \"#utility.yul\":3014:3019   */\n      dup2\n        /* \"#utility.yul\":2979:3020   */\n      tag_45\n      jump\t// in\n    tag_81:\n        /* \"#utility.yul\":2871:3026   */\n      swap3\n      swap2\n      pop\n      pop\n      jump\t// out\n        /* \"#utility.yul\":3032:3154   */\n    tag_47:\n        /* \"#utility.yul\":3105:3129   */\n      tag_83\n        /* \"#utility.yul\":3123:3128   */\n      dup2\n        /* \"#utility.yul\":3105:3129   */\n      tag_39\n      jump\t// in\n    tag_83:\n        /* \"#utility.yul\":3098:3103   */\n      dup2\n        /* \"#utility.yul\":3095:3130   */\n      eq\n        /* \"#utility.yul\":3085:3148   */\n      tag_84\n      jumpi\n        /* \"#utility.yul\":3144:3145   */\n      0x00\n        /* \"#utility.yul\":3141:3142   */\n      dup1\n        /* \"#utility.yul\":3134:3146   */\n      revert\n        /* \"#utility.yul\":3085:3148   */\n    tag_84:\n        /* \"#utility.yul\":3032:3154   */\n      pop\n      jump\t// out\n        /* \"#utility.yul\":3160:3299   */\n    tag_48:\n        /* \"#utility.yul\":3206:3211   */\n      0x00\n        /* \"#utility.yul\":3244:3250   */\n      dup2\n        /* \"#utility.yul\":3231:3251   */\n      calldataload\n        /* \"#utility.yul\":3222:3251   */\n      swap1\n      pop\n        /* \"#utility.yul\":3260:3293   */\n      tag_86\n        /* \"#utility.yul\":3287:3292   */\n      dup2\n        /* \"#utility.yul\":3260:3293   */\n      tag_47\n      jump\t// in\n    tag_86:\n        /* \"#utility.yul\":3160:3299   */\n      swap3\n      swap2\n      pop\n      pop\n      jump\t// out\n        /* \"#utility.yul\":3305:3795   */\n    tag_21:\n        /* \"#utility.yul\":3381:3387   */\n      0x00\n        /* \"#utility.yul\":3389:3395   */\n      dup1\n        /* \"#utility.yul\":3438:3440   */\n      0x40\n        /* \"#utility.yul\":3426:3435   */\n      dup4\n        /* \"#utility.yul\":3417:3424   */\n      dup6\n        /* \"#utility.yul\":3413:3436   */\n      sub\n        /* \"#utility.yul\":3409:3441   */\n      slt\n        /* \"#utility.yul\":3406:3525   */\n      iszero\n      tag_88\n      jumpi\n        /* \"#utility.yul\":3444:3523   */\n      tag_89\n      tag_42\n      jump\t// in\n    tag_89:\n        /* \"#utility.yul\":3406:3525   */\n    tag_88:\n        /* \"#utility.yul\":3564:3565   */\n      0x00\n        /* \"#utility.yul\":3589:3650   */\n      tag_90\n        /* \"#utility.yul\":3642:3649   */\n      dup6\n        /* \"#utility.yul\":3633:3639   */\n      dup3\n        /* \"#utility.yul\":3622:3631   */\n      dup7\n        /* \"#utility.yul\":3618:3640   */\n      add\n        /* \"#utility.yul\":3589:3650   */\n      tag_46\n      jump\t// in\n    tag_90:\n        /* \"#utility.yul\":3579:3650   */\n      swap3\n      pop\n        /* \"#utility.yul\":3535:3660   */\n      pop\n        /* \"#utility.yul\":3699:3701   */\n      0x20\n        /* \"#utility.yul\":3725:3778   */\n      tag_91\n        /* \"#utility.yul\":3770:3777   */\n      dup6\n        /* \"#utility.yul\":3761:3767   */\n      dup3\n        /* \"#utility.yul\":3750:3759   */\n      dup7\n        /* \"#utility.yul\":3746:3768   */\n      add\n        /* \"#utility.yul\":3725:3778   */\n      tag_48\n      jump\t// in\n    tag_91:\n        /* \"#utility.yul\":3715:3778   */\n      swap2\n      pop\n        /* \"#utility.yul\":3670:3788   */\n      pop\n        /* \"#utility.yul\":3305:3795   */\n      swap3\n      pop\n      swap3\n      swap1\n      pop\n      jump\t// out\n        /* \"#utility.yul\":3801:3960   */\n    tag_49:\n        /* \"#utility.yul\":3941:3952   */\n      0x6e6f74206f776e65720000000000000000000000000000000000000000000000\n        /* \"#utility.yul\":3937:3938   */\n      0x00\n        /* \"#utility.yul\":3929:3935   */\n      dup3\n        /* \"#utility.yul\":3925:3939   */\n      add\n        /* \"#utility.yul\":3918:3953   */\n      mstore\n        /* \"#utility.yul\":3801:3960   */\n      pop\n      jump\t// out\n        /* \"#utility.yul\":3966:4331   */\n    tag_50:\n        /* \"#utility.yul\":4108:4111   */\n      0x00\n        /* \"#utility.yul\":4129:4195   */\n      tag_94\n        /* \"#utility.yul\":4193:4194   */\n      0x09\n        /* \"#utility.yul\":4188:4191   */\n      dup4\n        /* \"#utility.yul\":4129:4195   */\n      tag_33\n      jump\t// in\n    tag_94:\n        /* \"#utility.yul\":4122:4195   */\n      swap2\n      pop\n        /* \"#utility.yul\":4204:4297   */\n      tag_95\n        /* \"#utility.yul\":4293:4296   */\n      dup3\n        /* \"#utility.yul\":4204:4297   */\n      tag_49\n      jump\t// in\n    tag_95:\n        /* \"#utility.yul\":4322:4324   */\n      0x20\n        /* \"#utility.yul\":4317:4320   */\n      dup3\n        /* \"#utility.yul\":4313:4325   */\n      add\n        /* \"#utility.yul\":4306:4325   */\n      swap1\n      pop\n        /* \"#utility.yul\":3966:4331   */\n      swap2\n      swap1\n      pop\n      jump\t// out\n        /* \"#utility.yul\":4337:4756   */\n    tag_30:\n        /* \"#utility.yul\":4503:4507   */\n      0x00\n        /* \"#utility.yul\":4541:4543   */\n      0x20\n        /* \"#utility.yul\":4530:4539   */\n      dup3\n        /* \"#utility.yul\":4526:4544   */\n      add\n        /* \"#utility.yul\":4518:4544   */\n      swap1\n      pop\n        /* \"#utility.yul\":4590:4599   */\n      dup2\n        /* \"#utility.yul\":4584:4588   */\n      dup2\n        /* \"#utility.yul\":4580:4600   */\n      sub\n        /* \"#utility.yul\":4576:4577   */\n      0x00\n        /* \"#utility.yul\":4565:4574   */\n      dup4\n        /* \"#utility.yul\":4561:4578   */\n      add\n        /* \"#utility.yul\":4554:4601   */\n      mstore\n        /* \"#utility.yul\":4618:4749   */\n      tag_97\n        /* \"#utility.yul\":4744:4748   */\n      dup2\n        /* \"#utility.yul\":4618:4749   */\n      tag_50\n      jump\t// in\n    tag_97:\n        /* \"#utility.yul\":4610:4749   */\n      swap1\n      pop\n        /* \"#utility.yul\":4337:4756   */\n      swap2\n      swap1\n      pop\n      jump\t// out\n\n    auxdata: 0xa264697066735822122095f4ad199ca486ecce03c42b2165b1770bad6e8834c97163b427b751fc0931e964736f6c63430008110033\n}\n",
				"bytecode": {
					"linkReferences": {},
					"object": "608060405242600055603c60015560015460005461001d91906100ac565b60025533600360006101000a81548173ffffffffffffffffffffffffffffffffffffffff021916908373ffffffffffffffffffffffffffffffffffffffff16021790555034801561006d57600080fd5b506100e0565b6000819050919050565b7f4e487b7100000000000000000000000000000000000000000000000000000000600052601160045260246000fd5b60006100b782610073565b91506100c283610073565b92508282019050808211156100da576100d961007d565b5b92915050565b61049f806100ef6000396000f3fe60806040526004361061002d5760003560e01c8063b69ef8a8146100b7578063d0679d34146100e2576100b2565b366100b257600254421015610077576040517f08c379a000000000000000000000000000000000000000000000000000000000815260040161006e90610290565b60405180910390fd5b7fb464631b380afceb0bd13badeaed5df2811470f57a443999ed8638dd9bb8ca0b33346040516100a892919061030a565b60405180910390a1005b600080fd5b3480156100c357600080fd5b506100cc61010b565b6040516100d99190610333565b60405180910390f35b3480156100ee57600080fd5b50610109600480360381019061010491906103bd565b610113565b005b600047905090565b600254421015610158576040517f08c379a000000000000000000000000000000000000000000000000000000000815260040161014f90610290565b60405180910390fd5b3373ffffffffffffffffffffffffffffffffffffffff16600360009054906101000a900473ffffffffffffffffffffffffffffffffffffffff1673ffffffffffffffffffffffffffffffffffffffff16146101e8576040517f08c379a00000000000000000000000000000000000000000000000000000000081526004016101df90610449565b60405180910390fd5b8173ffffffffffffffffffffffffffffffffffffffff166108fc829081150290604051600060405180830381858888f1935050505015801561022e573d6000803e3d6000fd5b505050565b600082825260208201905092915050565b7f7761697420756e74696c207468652074696d65206f7665720000000000000000600082015250565b600061027a601883610233565b915061028582610244565b602082019050919050565b600060208201905081810360008301526102a98161026d565b9050919050565b600073ffffffffffffffffffffffffffffffffffffffff82169050919050565b60006102db826102b0565b9050919050565b6102eb816102d0565b82525050565b6000819050919050565b610304816102f1565b82525050565b600060408201905061031f60008301856102e2565b61032c60208301846102fb565b9392505050565b600060208201905061034860008301846102fb565b92915050565b600080fd5b600061035e826102b0565b9050919050565b61036e81610353565b811461037957600080fd5b50565b60008135905061038b81610365565b92915050565b61039a816102f1565b81146103a557600080fd5b50565b6000813590506103b781610391565b92915050565b600080604083850312156103d4576103d361034e565b5b60006103e28582860161037c565b92505060206103f3858286016103a8565b9150509250929050565b7f6e6f74206f776e65720000000000000000000000000000000000000000000000600082015250565b6000610433600983610233565b915061043e826103fd565b602082019050919050565b6000602082019050818103600083015261046281610426565b905091905056fea264697066735822122095f4ad199ca486ecce03c42b2165b1770bad6e8834c97163b427b751fc0931e964736f6c63430008110033",
					"opcodes": "PUSH1 0x80 PUSH1 0x40 MSTORE TIMESTAMP PUSH1 0x0 SSTORE PUSH1 0x3C PUSH1 0x1 SSTORE PUSH1 0x1 SLOAD PUSH1 0x0 SLOAD PUSH2 0x1D SWAP2 SWAP1 PUSH2 0xAC JUMP JUMPDEST PUSH1 0x2 SSTORE CALLER PUSH1 0x3 PUSH1 0x0 PUSH2 0x100 EXP DUP2 SLOAD DUP2 PUSH20 0xFFFFFFFFFFFFFFFFFFFFFFFFFFFFFFFFFFFFFFFF MUL NOT AND SWAP1 DUP4 PUSH20 0xFFFFFFFFFFFFFFFFFFFFFFFFFFFFFFFFFFFFFFFF AND MUL OR SWAP1 SSTORE POP CALLVALUE DUP1 ISZERO PUSH2 0x6D JUMPI PUSH1 0x0 DUP1 REVERT JUMPDEST POP PUSH2 0xE0 JUMP JUMPDEST PUSH1 0x0 DUP2 SWAP1 POP SWAP2 SWAP1 POP JUMP JUMPDEST PUSH32 0x4E487B7100000000000000000000000000000000000000000000000000000000 PUSH1 0x0 MSTORE PUSH1 0x11 PUSH1 0x4 MSTORE PUSH1 0x24 PUSH1 0x0 REVERT JUMPDEST PUSH1 0x0 PUSH2 0xB7 DUP3 PUSH2 0x73 JUMP JUMPDEST SWAP2 POP PUSH2 0xC2 DUP4 PUSH2 0x73 JUMP JUMPDEST SWAP3 POP DUP3 DUP3 ADD SWAP1 POP DUP1 DUP3 GT ISZERO PUSH2 0xDA JUMPI PUSH2 0xD9 PUSH2 0x7D JUMP JUMPDEST JUMPDEST SWAP3 SWAP2 POP POP JUMP JUMPDEST PUSH2 0x49F DUP1 PUSH2 0xEF PUSH1 0x0 CODECOPY PUSH1 0x0 RETURN INVALID PUSH1 0x80 PUSH1 0x40 MSTORE PUSH1 0x4 CALLDATASIZE LT PUSH2 0x2D JUMPI PUSH1 0x0 CALLDATALOAD PUSH1 0xE0 SHR DUP1 PUSH4 0xB69EF8A8 EQ PUSH2 0xB7 JUMPI DUP1 PUSH4 0xD0679D34 EQ PUSH2 0xE2 JUMPI PUSH2 0xB2 JUMP JUMPDEST CALLDATASIZE PUSH2 0xB2 JUMPI PUSH1 0x2 SLOAD TIMESTAMP LT ISZERO PUSH2 0x77 JUMPI PUSH1 0x40 MLOAD PUSH32 0x8C379A000000000000000000000000000000000000000000000000000000000 DUP2 MSTORE PUSH1 0x4 ADD PUSH2 0x6E SWAP1 PUSH2 0x290 JUMP JUMPDEST PUSH1 0x40 MLOAD DUP1 SWAP2 SUB SWAP1 REVERT JUMPDEST PUSH32 0xB464631B380AFCEB0BD13BADEAED5DF2811470F57A443999ED8638DD9BB8CA0B CALLER CALLVALUE PUSH1 0x40 MLOAD PUSH2 0xA8 SWAP3 SWAP2 SWAP1 PUSH2 0x30A JUMP JUMPDEST PUSH1 0x40 MLOAD DUP1 SWAP2 SUB SWAP1 LOG1 STOP JUMPDEST PUSH1 0x0 DUP1 REVERT JUMPDEST CALLVALUE DUP1 ISZERO PUSH2 0xC3 JUMPI PUSH1 0x0 DUP1 REVERT JUMPDEST POP PUSH2 0xCC PUSH2 0x10B JUMP JUMPDEST PUSH1 0x40 MLOAD PUSH2 0xD9 SWAP2 SWAP1 PUSH2 0x333 JUMP JUMPDEST PUSH1 0x40 MLOAD DUP1 SWAP2 SUB SWAP1 RETURN JUMPDEST CALLVALUE DUP1 ISZERO PUSH2 0xEE JUMPI PUSH1 0x0 DUP1 REVERT JUMPDEST POP PUSH2 0x109 PUSH1 0x4 DUP1 CALLDATASIZE SUB DUP2 ADD SWAP1 PUSH2 0x104 SWAP2 SWAP1 PUSH2 0x3BD JUMP JUMPDEST PUSH2 0x113 JUMP JUMPDEST STOP JUMPDEST PUSH1 0x0 SELFBALANCE SWAP1 POP SWAP1 JUMP JUMPDEST PUSH1 0x2 SLOAD TIMESTAMP LT ISZERO PUSH2 0x158 JUMPI PUSH1 0x40 MLOAD PUSH32 0x8C379A000000000000000000000000000000000000000000000000000000000 DUP2 MSTORE PUSH1 0x4 ADD PUSH2 0x14F SWAP1 PUSH2 0x290 JUMP JUMPDEST PUSH1 0x40 MLOAD DUP1 SWAP2 SUB SWAP1 REVERT JUMPDEST CALLER PUSH20 0xFFFFFFFFFFFFFFFFFFFFFFFFFFFFFFFFFFFFFFFF AND PUSH1 0x3 PUSH1 0x0 SWAP1 SLOAD SWAP1 PUSH2 0x100 EXP SWAP1 DIV PUSH20 0xFFFFFFFFFFFFFFFFFFFFFFFFFFFFFFFFFFFFFFFF AND PUSH20 0xFFFFFFFFFFFFFFFFFFFFFFFFFFFFFFFFFFFFFFFF AND EQ PUSH2 0x1E8 JUMPI PUSH1 0x40 MLOAD PUSH32 0x8C379A000000000000000000000000000000000000000000000000000000000 DUP2 MSTORE PUSH1 0x4 ADD PUSH2 0x1DF SWAP1 PUSH2 0x449 JUMP JUMPDEST PUSH1 0x40 MLOAD DUP1 SWAP2 SUB SWAP1 REVERT JUMPDEST DUP2 PUSH20 0xFFFFFFFFFFFFFFFFFFFFFFFFFFFFFFFFFFFFFFFF AND PUSH2 0x8FC DUP3 SWAP1 DUP2 ISZERO MUL SWAP1 PUSH1 0x40 MLOAD PUSH1 0x0 PUSH1 0x40 MLOAD DUP1 DUP4 SUB DUP2 DUP6 DUP9 DUP9 CALL SWAP4 POP POP POP POP ISZERO DUP1 ISZERO PUSH2 0x22E JUMPI RETURNDATASIZE PUSH1 0x0 DUP1 RETURNDATACOPY RETURNDATASIZE PUSH1 0x0 REVERT JUMPDEST POP POP POP JUMP JUMPDEST PUSH1 0x0 DUP3 DUP3 MSTORE PUSH1 0x20 DUP3 ADD SWAP1 POP SWAP3 SWAP2 POP POP JUMP JUMPDEST PUSH32 0x7761697420756E74696C207468652074696D65206F7665720000000000000000 PUSH1 0x0 DUP3 ADD MSTORE POP JUMP JUMPDEST PUSH1 0x0 PUSH2 0x27A PUSH1 0x18 DUP4 PUSH2 0x233 JUMP JUMPDEST SWAP2 POP PUSH2 0x285 DUP3 PUSH2 0x244 JUMP JUMPDEST PUSH1 0x20 DUP3 ADD SWAP1 POP SWAP2 SWAP1 POP JUMP JUMPDEST PUSH1 0x0 PUSH1 0x20 DUP3 ADD SWAP1 POP DUP2 DUP2 SUB PUSH1 0x0 DUP4 ADD MSTORE PUSH2 0x2A9 DUP2 PUSH2 0x26D JUMP JUMPDEST SWAP1 POP SWAP2 SWAP1 POP JUMP JUMPDEST PUSH1 0x0 PUSH20 0xFFFFFFFFFFFFFFFFFFFFFFFFFFFFFFFFFFFFFFFF DUP3 AND SWAP1 POP SWAP2 SWAP1 POP JUMP JUMPDEST PUSH1 0x0 PUSH2 0x2DB DUP3 PUSH2 0x2B0 JUMP JUMPDEST SWAP1 POP SWAP2 SWAP1 POP JUMP JUMPDEST PUSH2 0x2EB DUP2 PUSH2 0x2D0 JUMP JUMPDEST DUP3 MSTORE POP POP JUMP JUMPDEST PUSH1 0x0 DUP2 SWAP1 POP SWAP2 SWAP1 POP JUMP JUMPDEST PUSH2 0x304 DUP2 PUSH2 0x2F1 JUMP JUMPDEST DUP3 MSTORE POP POP JUMP JUMPDEST PUSH1 0x0 PUSH1 0x40 DUP3 ADD SWAP1 POP PUSH2 0x31F PUSH1 0x0 DUP4 ADD DUP6 PUSH2 0x2E2 JUMP JUMPDEST PUSH2 0x32C PUSH1 0x20 DUP4 ADD DUP5 PUSH2 0x2FB JUMP JUMPDEST SWAP4 SWAP3 POP POP POP JUMP JUMPDEST PUSH1 0x0 PUSH1 0x20 DUP3 ADD SWAP1 POP PUSH2 0x348 PUSH1 0x0 DUP4 ADD DUP5 PUSH2 0x2FB JUMP JUMPDEST SWAP3 SWAP2 POP POP JUMP JUMPDEST PUSH1 0x0 DUP1 REVERT JUMPDEST PUSH1 0x0 PUSH2 0x35E DUP3 PUSH2 0x2B0 JUMP JUMPDEST SWAP1 POP SWAP2 SWAP1 POP JUMP JUMPDEST PUSH2 0x36E DUP2 PUSH2 0x353 JUMP JUMPDEST DUP2 EQ PUSH2 0x379 JUMPI PUSH1 0x0 DUP1 REVERT JUMPDEST POP JUMP JUMPDEST PUSH1 0x0 DUP2 CALLDATALOAD SWAP1 POP PUSH2 0x38B DUP2 PUSH2 0x365 JUMP JUMPDEST SWAP3 SWAP2 POP POP JUMP JUMPDEST PUSH2 0x39A DUP2 PUSH2 0x2F1 JUMP JUMPDEST DUP2 EQ PUSH2 0x3A5 JUMPI PUSH1 0x0 DUP1 REVERT JUMPDEST POP JUMP JUMPDEST PUSH1 0x0 DUP2 CALLDATALOAD SWAP1 POP PUSH2 0x3B7 DUP2 PUSH2 0x391 JUMP JUMPDEST SWAP3 SWAP2 POP POP JUMP JUMPDEST PUSH1 0x0 DUP1 PUSH1 0x40 DUP4 DUP6 SUB SLT ISZERO PUSH2 0x3D4 JUMPI PUSH2 0x3D3 PUSH2 0x34E JUMP JUMPDEST JUMPDEST PUSH1 0x0 PUSH2 0x3E2 DUP6 DUP3 DUP7 ADD PUSH2 0x37C JUMP JUMPDEST SWAP3 POP POP PUSH1 0x20 PUSH2 0x3F3 DUP6 DUP3 DUP7 ADD PUSH2 0x3A8 JUMP JUMPDEST SWAP2 POP POP SWAP3 POP SWAP3 SWAP1 POP JUMP JUMPDEST PUSH32 0x6E6F74206F776E65720000000000000000000000000000000000000000000000 PUSH1 0x0 DUP3 ADD MSTORE POP JUMP JUMPDEST PUSH1 0x0 PUSH2 0x433 PUSH1 0x9 DUP4 PUSH2 0x233 JUMP JUMPDEST SWAP2 POP PUSH2 0x43E DUP3 PUSH2 0x3FD JUMP JUMPDEST PUSH1 0x20 DUP3 ADD SWAP1 POP SWAP2 SWAP1 POP JUMP JUMPDEST PUSH1 0x0 PUSH1 0x20 DUP3 ADD SWAP1 POP DUP2 DUP2 SUB PUSH1 0x0 DUP4 ADD MSTORE PUSH2 0x462 DUP2 PUSH2 0x426 JUMP JUMPDEST SWAP1 POP SWAP2 SWAP1 POP JUMP INVALID LOG2 PUSH5 0x6970667358 0x22 SLT KECCAK256 SWAP6 DELEGATECALL 0xAD NOT SWAP13 LOG4 DUP7 0xEC 0xCE SUB 0xC4 0x2B 0x21 PUSH6 0xB1770BAD6E88 CALLVALUE 0xC9 PUSH18 0x63B427B751FC0931E964736F6C6343000811 STOP CALLER "
				},
				"gasEstimates": {
					"creation": {
						"codeDepositCost": "236600",
						"executionCost": "infinite",
						"totalCost": "infinite"
					},
					"external": {
						"balance()": "317",
						"send(address,uint256)": "infinite"
					}
				},
				"methodIdentifiers": {
					"balance()": "b69ef8a8",
					"send(address,uint256)": "d0679d34"
				}
			},
			"storageLayout": {
				"storage": [
					{
						"astId": 5,
						"contract": "remix_ide/PROJECT/saran.sol:time_lock",
						"label": "current",
						"offset": 0,
						"slot": "0",
						"type": "t_uint256"
					},
					{
						"astId": 8,
						"contract": "remix_ide/PROJECT/saran.sol:time_lock",
						"label": "duraction",
						"offset": 0,
						"slot": "1",
						"type": "t_uint256"
					},
					{
						"astId": 13,
						"contract": "remix_ide/PROJECT/saran.sol:time_lock",
						"label": "total",
						"offset": 0,
						"slot": "2",
						"type": "t_uint256"
					},
					{
						"astId": 17,
						"contract": "remix_ide/PROJECT/saran.sol:time_lock",
						"label": "owner",
						"offset": 0,
						"slot": "3",
						"type": "t_address"
					}
				],
				"types": {
					"t_address": {
						"encoding": "inplace",
						"label": "address",
						"numberOfBytes": "20"
					},
					"t_uint256": {
						"encoding": "inplace",
						"label": "uint256",
						"numberOfBytes": "32"
					}
				}
			},
			"userdoc": {
				"kind": "user",
				"methods": {},
				"version": 1
			}
		}
	}
}