{
	"remix ide/PROJECT/rama.sol": {
		"receive_ether": {
			"abi": [
				{
					"inputs": [],
					"stateMutability": "payable",
					"type": "constructor"
				},
				{
					"inputs": [],
					"name": "balance",
					"outputs": [
						{
							"internalType": "uint256",
							"name": "",
							"type": "uint256"
						}
					],
					"stateMutability": "view",
					"type": "function"
				},
				{
					"inputs": [
						{
							"internalType": "address payable",
							"name": "_add",
							"type": "address"
						},
						{
							"internalType": "uint256",
							"name": "amount",
							"type": "uint256"
						}
					],
					"name": "sendd",
					"outputs": [],
					"stateMutability": "payable",
					"type": "function"
				},
				{
					"stateMutability": "payable",
					"type": "receive"
				}
			],
			"devdoc": {
				"kind": "dev",
				"methods": {},
				"version": 1
			},
			"evm": {
				"assembly": "    /* \"remix ide/PROJECT/rama.sol\":1108:1622  contract receive_ether{\r... */\n  mstore(0x40, 0x80)\n    /* \"remix ide/PROJECT/rama.sol\":1268:1278  msg.sender */\n  caller\n    /* \"remix ide/PROJECT/rama.sol\":1253:1267  owner_contract */\n  0x00\n  dup1\n    /* \"remix ide/PROJECT/rama.sol\":1253:1278  owner_contract=msg.sender */\n  0x0100\n  exp\n  dup2\n  sload\n  dup2\n  0xffffffffffffffffffffffffffffffffffffffff\n  mul\n  not\n  and\n  swap1\n  dup4\n  0xffffffffffffffffffffffffffffffffffffffff\n  and\n  mul\n  or\n  swap1\n  sstore\n  pop\n    /* \"remix ide/PROJECT/rama.sol\":1108:1622  contract receive_ether{\r... */\n  dataSize(sub_0)\n  dup1\n  dataOffset(sub_0)\n  0x00\n  codecopy\n  0x00\n  return\nstop\n\nsub_0: assembly {\n        /* \"remix ide/PROJECT/rama.sol\":1108:1622  contract receive_ether{\r... */\n      mstore(0x40, 0x80)\n      jumpi(tag_1, lt(calldatasize, 0x04))\n      shr(0xe0, calldataload(0x00))\n      dup1\n      0xb69ef8a8\n      eq\n      tag_3\n      jumpi\n      dup1\n      0xd7781801\n      eq\n      tag_4\n      jumpi\n      jump(tag_2)\n    tag_1:\n      jumpi(tag_2, calldatasize)\n      stop\n    tag_2:\n      0x00\n      dup1\n      revert\n        /* \"remix ide/PROJECT/rama.sol\":1520:1614  function balance() external view returns(uint){\r... */\n    tag_3:\n      callvalue\n      dup1\n      iszero\n      tag_7\n      jumpi\n      0x00\n      dup1\n      revert\n    tag_7:\n      pop\n      tag_8\n      tag_9\n      jump\t// in\n    tag_8:\n      mload(0x40)\n      tag_10\n      swap2\n      swap1\n      tag_11\n      jump\t// in\n    tag_10:\n      mload(0x40)\n      dup1\n      swap2\n      sub\n      swap1\n      return\n        /* \"remix ide/PROJECT/rama.sol\":1292:1514  function sendd(address payable _add,uint amount) external payable{\r... */\n    tag_4:\n      tag_12\n      0x04\n      dup1\n      calldatasize\n      sub\n      dup2\n      add\n      swap1\n      tag_13\n      swap2\n      swap1\n      tag_14\n      jump\t// in\n    tag_13:\n      tag_15\n      jump\t// in\n    tag_12:\n      stop\n        /* \"remix ide/PROJECT/rama.sol\":1520:1614  function balance() external view returns(uint){\r... */\n    tag_9:\n        /* \"remix ide/PROJECT/rama.sol\":1561:1565  uint */\n      0x00\n        /* \"remix ide/PROJECT/rama.sol\":1584:1605  address(this).balance */\n      selfbalance\n        /* \"remix ide/PROJECT/rama.sol\":1577:1606  return(address(this).balance) */\n      swap1\n      pop\n        /* \"remix ide/PROJECT/rama.sol\":1520:1614  function balance() external view returns(uint){\r... */\n      swap1\n      jump\t// out\n        /* \"remix ide/PROJECT/rama.sol\":1292:1514  function sendd(address payable _add,uint amount) external payable{\r... */\n    tag_15:\n        /* \"remix ide/PROJECT/rama.sol\":1401:1402  1 */\n      0x01\n        /* \"remix ide/PROJECT/rama.sol\":1376:1397  address(this).balance */\n      selfbalance\n        /* \"remix ide/PROJECT/rama.sol\":1376:1402  address(this).balance >= 1 */\n      lt\n      iszero\n        /* \"remix ide/PROJECT/rama.sol\":1368:1416  require(address(this).balance >= 1,\"no balance\") */\n      tag_18\n      jumpi\n      mload(0x40)\n      0x08c379a000000000000000000000000000000000000000000000000000000000\n      dup2\n      mstore\n      0x04\n      add\n      tag_19\n      swap1\n      tag_20\n      jump\t// in\n    tag_19:\n      mload(0x40)\n      dup1\n      swap2\n      sub\n      swap1\n      revert\n    tag_18:\n        /* \"remix ide/PROJECT/rama.sol\":1447:1461  owner_contract */\n      0x00\n      dup1\n      sload\n      swap1\n      0x0100\n      exp\n      swap1\n      div\n      0xffffffffffffffffffffffffffffffffffffffff\n      and\n        /* \"remix ide/PROJECT/rama.sol\":1435:1461  msg.sender==owner_contract */\n      0xffffffffffffffffffffffffffffffffffffffff\n      and\n        /* \"remix ide/PROJECT/rama.sol\":1435:1445  msg.sender */\n      caller\n        /* \"remix ide/PROJECT/rama.sol\":1435:1461  msg.sender==owner_contract */\n      0xffffffffffffffffffffffffffffffffffffffff\n      and\n      eq\n        /* \"remix ide/PROJECT/rama.sol\":1427:1474  require(msg.sender==owner_contract,\"not owner\") */\n      tag_21\n      jumpi\n      mload(0x40)\n      0x08c379a000000000000000000000000000000000000000000000000000000000\n      dup2\n      mstore\n      0x04\n      add\n      tag_22\n      swap1\n      tag_23\n      jump\t// in\n    tag_22:\n      mload(0x40)\n      dup1\n      swap2\n      sub\n      swap1\n      revert\n    tag_21:\n        /* \"remix ide/PROJECT/rama.sol\":1485:1489  _add */\n      dup2\n        /* \"remix ide/PROJECT/rama.sol\":1485:1498  _add.transfer */\n      0xffffffffffffffffffffffffffffffffffffffff\n      and\n        /* \"remix ide/PROJECT/rama.sol\":1485:1506  _add.transfer(amount) */\n      0x08fc\n        /* \"remix ide/PROJECT/rama.sol\":1499:1505  amount */\n      dup3\n        /* \"remix ide/PROJECT/rama.sol\":1485:1506  _add.transfer(amount) */\n      swap1\n      dup2\n      iszero\n      mul\n      swap1\n      mload(0x40)\n      0x00\n      mload(0x40)\n      dup1\n      dup4\n      sub\n      dup2\n      dup6\n      dup9\n      dup9\n      call\n      swap4\n      pop\n      pop\n      pop\n      pop\n      iszero\n      dup1\n      iszero\n      tag_25\n      jumpi\n      returndatasize\n      0x00\n      dup1\n      returndatacopy\n      revert(0x00, returndatasize)\n    tag_25:\n      pop\n        /* \"remix ide/PROJECT/rama.sol\":1292:1514  function sendd(address payable _add,uint amount) external payable{\r... */\n      pop\n      pop\n      jump\t// out\n        /* \"#utility.yul\":7:162   */\n    tag_27:\n        /* \"#utility.yul\":61:66   */\n      0x00\n        /* \"#utility.yul\":99:105   */\n      dup2\n        /* \"#utility.yul\":86:106   */\n      calldataload\n        /* \"#utility.yul\":77:106   */\n      swap1\n      pop\n        /* \"#utility.yul\":115:156   */\n      tag_29\n        /* \"#utility.yul\":150:155   */\n      dup2\n        /* \"#utility.yul\":115:156   */\n      tag_30\n      jump\t// in\n    tag_29:\n        /* \"#utility.yul\":7:162   */\n      swap3\n      swap2\n      pop\n      pop\n      jump\t// out\n        /* \"#utility.yul\":168:307   */\n    tag_31:\n        /* \"#utility.yul\":214:219   */\n      0x00\n        /* \"#utility.yul\":252:258   */\n      dup2\n        /* \"#utility.yul\":239:259   */\n      calldataload\n        /* \"#utility.yul\":230:259   */\n      swap1\n      pop\n        /* \"#utility.yul\":268:301   */\n      tag_33\n        /* \"#utility.yul\":295:300   */\n      dup2\n        /* \"#utility.yul\":268:301   */\n      tag_34\n      jump\t// in\n    tag_33:\n        /* \"#utility.yul\":168:307   */\n      swap3\n      swap2\n      pop\n      pop\n      jump\t// out\n        /* \"#utility.yul\":313:803   */\n    tag_14:\n        /* \"#utility.yul\":389:395   */\n      0x00\n        /* \"#utility.yul\":397:403   */\n      dup1\n        /* \"#utility.yul\":446:448   */\n      0x40\n        /* \"#utility.yul\":434:443   */\n      dup4\n        /* \"#utility.yul\":425:432   */\n      dup6\n        /* \"#utility.yul\":421:444   */\n      sub\n        /* \"#utility.yul\":417:449   */\n      slt\n        /* \"#utility.yul\":414:533   */\n      iszero\n      tag_36\n      jumpi\n        /* \"#utility.yul\":452:531   */\n      tag_37\n      tag_38\n      jump\t// in\n    tag_37:\n        /* \"#utility.yul\":414:533   */\n    tag_36:\n        /* \"#utility.yul\":572:573   */\n      0x00\n        /* \"#utility.yul\":597:658   */\n      tag_39\n        /* \"#utility.yul\":650:657   */\n      dup6\n        /* \"#utility.yul\":641:647   */\n      dup3\n        /* \"#utility.yul\":630:639   */\n      dup7\n        /* \"#utility.yul\":626:648   */\n      add\n        /* \"#utility.yul\":597:658   */\n      tag_27\n      jump\t// in\n    tag_39:\n        /* \"#utility.yul\":587:658   */\n      swap3\n      pop\n        /* \"#utility.yul\":543:668   */\n      pop\n        /* \"#utility.yul\":707:709   */\n      0x20\n        /* \"#utility.yul\":733:786   */\n      tag_40\n        /* \"#utility.yul\":778:785   */\n      dup6\n        /* \"#utility.yul\":769:775   */\n      dup3\n        /* \"#utility.yul\":758:767   */\n      dup7\n        /* \"#utility.yul\":754:776   */\n      add\n        /* \"#utility.yul\":733:786   */\n      tag_31\n      jump\t// in\n    tag_40:\n        /* \"#utility.yul\":723:786   */\n      swap2\n      pop\n        /* \"#utility.yul\":678:796   */\n      pop\n        /* \"#utility.yul\":313:803   */\n      swap3\n      pop\n      swap3\n      swap1\n      pop\n      jump\t// out\n        /* \"#utility.yul\":809:1175   */\n    tag_41:\n        /* \"#utility.yul\":951:954   */\n      0x00\n        /* \"#utility.yul\":972:1039   */\n      tag_43\n        /* \"#utility.yul\":1036:1038   */\n      0x0a\n        /* \"#utility.yul\":1031:1034   */\n      dup4\n        /* \"#utility.yul\":972:1039   */\n      tag_44\n      jump\t// in\n    tag_43:\n        /* \"#utility.yul\":965:1039   */\n      swap2\n      pop\n        /* \"#utility.yul\":1048:1141   */\n      tag_45\n        /* \"#utility.yul\":1137:1140   */\n      dup3\n        /* \"#utility.yul\":1048:1141   */\n      tag_46\n      jump\t// in\n    tag_45:\n        /* \"#utility.yul\":1166:1168   */\n      0x20\n        /* \"#utility.yul\":1161:1164   */\n      dup3\n        /* \"#utility.yul\":1157:1169   */\n      add\n        /* \"#utility.yul\":1150:1169   */\n      swap1\n      pop\n        /* \"#utility.yul\":809:1175   */\n      swap2\n      swap1\n      pop\n      jump\t// out\n        /* \"#utility.yul\":1181:1546   */\n    tag_47:\n        /* \"#utility.yul\":1323:1326   */\n      0x00\n        /* \"#utility.yul\":1344:1410   */\n      tag_49\n        /* \"#utility.yul\":1408:1409   */\n      0x09\n        /* \"#utility.yul\":1403:1406   */\n      dup4\n        /* \"#utility.yul\":1344:1410   */\n      tag_44\n      jump\t// in\n    tag_49:\n        /* \"#utility.yul\":1337:1410   */\n      swap2\n      pop\n        /* \"#utility.yul\":1419:1512   */\n      tag_50\n        /* \"#utility.yul\":1508:1511   */\n      dup3\n        /* \"#utility.yul\":1419:1512   */\n      tag_51\n      jump\t// in\n    tag_50:\n        /* \"#utility.yul\":1537:1539   */\n      0x20\n        /* \"#utility.yul\":1532:1535   */\n      dup3\n        /* \"#utility.yul\":1528:1540   */\n      add\n        /* \"#utility.yul\":1521:1540   */\n      swap1\n      pop\n        /* \"#utility.yul\":1181:1546   */\n      swap2\n      swap1\n      pop\n      jump\t// out\n        /* \"#utility.yul\":1552:1670   */\n    tag_52:\n        /* \"#utility.yul\":1639:1663   */\n      tag_54\n        /* \"#utility.yul\":1657:1662   */\n      dup2\n        /* \"#utility.yul\":1639:1663   */\n      tag_55\n      jump\t// in\n    tag_54:\n        /* \"#utility.yul\":1634:1637   */\n      dup3\n        /* \"#utility.yul\":1627:1664   */\n      mstore\n        /* \"#utility.yul\":1552:1670   */\n      pop\n      pop\n      jump\t// out\n        /* \"#utility.yul\":1676:2095   */\n    tag_20:\n        /* \"#utility.yul\":1842:1846   */\n      0x00\n        /* \"#utility.yul\":1880:1882   */\n      0x20\n        /* \"#utility.yul\":1869:1878   */\n      dup3\n        /* \"#utility.yul\":1865:1883   */\n      add\n        /* \"#utility.yul\":1857:1883   */\n      swap1\n      pop\n        /* \"#utility.yul\":1929:1938   */\n      dup2\n        /* \"#utility.yul\":1923:1927   */\n      dup2\n        /* \"#utility.yul\":1919:1939   */\n      sub\n        /* \"#utility.yul\":1915:1916   */\n      0x00\n        /* \"#utility.yul\":1904:1913   */\n      dup4\n        /* \"#utility.yul\":1900:1917   */\n      add\n        /* \"#utility.yul\":1893:1940   */\n      mstore\n        /* \"#utility.yul\":1957:2088   */\n      tag_57\n        /* \"#utility.yul\":2083:2087   */\n      dup2\n        /* \"#utility.yul\":1957:2088   */\n      tag_41\n      jump\t// in\n    tag_57:\n        /* \"#utility.yul\":1949:2088   */\n      swap1\n      pop\n        /* \"#utility.yul\":1676:2095   */\n      swap2\n      swap1\n      pop\n      jump\t// out\n        /* \"#utility.yul\":2101:2520   */\n    tag_23:\n        /* \"#utility.yul\":2267:2271   */\n      0x00\n        /* \"#utility.yul\":2305:2307   */\n      0x20\n        /* \"#utility.yul\":2294:2303   */\n      dup3\n        /* \"#utility.yul\":2290:2308   */\n      add\n        /* \"#utility.yul\":2282:2308   */\n      swap1\n      pop\n        /* \"#utility.yul\":2354:2363   */\n      dup2\n        /* \"#utility.yul\":2348:2352   */\n      dup2\n        /* \"#utility.yul\":2344:2364   */\n      sub\n        /* \"#utility.yul\":2340:2341   */\n      0x00\n        /* \"#utility.yul\":2329:2338   */\n      dup4\n        /* \"#utility.yul\":2325:2342   */\n      add\n        /* \"#utility.yul\":2318:2365   */\n      mstore\n        /* \"#utility.yul\":2382:2513   */\n      tag_59\n        /* \"#utility.yul\":2508:2512   */\n      dup2\n        /* \"#utility.yul\":2382:2513   */\n      tag_47\n      jump\t// in\n    tag_59:\n        /* \"#utility.yul\":2374:2513   */\n      swap1\n      pop\n        /* \"#utility.yul\":2101:2520   */\n      swap2\n      swap1\n      pop\n      jump\t// out\n        /* \"#utility.yul\":2526:2748   */\n    tag_11:\n        /* \"#utility.yul\":2619:2623   */\n      0x00\n        /* \"#utility.yul\":2657:2659   */\n      0x20\n        /* \"#utility.yul\":2646:2655   */\n      dup3\n        /* \"#utility.yul\":2642:2660   */\n      add\n        /* \"#utility.yul\":2634:2660   */\n      swap1\n      pop\n        /* \"#utility.yul\":2670:2741   */\n      tag_61\n        /* \"#utility.yul\":2738:2739   */\n      0x00\n        /* \"#utility.yul\":2727:2736   */\n      dup4\n        /* \"#utility.yul\":2723:2740   */\n      add\n        /* \"#utility.yul\":2714:2720   */\n      dup5\n        /* \"#utility.yul\":2670:2741   */\n      tag_52\n      jump\t// in\n    tag_61:\n        /* \"#utility.yul\":2526:2748   */\n      swap3\n      swap2\n      pop\n      pop\n      jump\t// out\n        /* \"#utility.yul\":2835:3004   */\n    tag_44:\n        /* \"#utility.yul\":2919:2930   */\n      0x00\n        /* \"#utility.yul\":2953:2959   */\n      dup3\n        /* \"#utility.yul\":2948:2951   */\n      dup3\n        /* \"#utility.yul\":2941:2960   */\n      mstore\n        /* \"#utility.yul\":2993:2997   */\n      0x20\n        /* \"#utility.yul\":2988:2991   */\n      dup3\n        /* \"#utility.yul\":2984:2998   */\n      add\n        /* \"#utility.yul\":2969:2998   */\n      swap1\n      pop\n        /* \"#utility.yul\":2835:3004   */\n      swap3\n      swap2\n      pop\n      pop\n      jump\t// out\n        /* \"#utility.yul\":3010:3114   */\n    tag_65:\n        /* \"#utility.yul\":3055:3062   */\n      0x00\n        /* \"#utility.yul\":3084:3108   */\n      tag_67\n        /* \"#utility.yul\":3102:3107   */\n      dup3\n        /* \"#utility.yul\":3084:3108   */\n      tag_68\n      jump\t// in\n    tag_67:\n        /* \"#utility.yul\":3073:3108   */\n      swap1\n      pop\n        /* \"#utility.yul\":3010:3114   */\n      swap2\n      swap1\n      pop\n      jump\t// out\n        /* \"#utility.yul\":3120:3246   */\n    tag_68:\n        /* \"#utility.yul\":3157:3164   */\n      0x00\n        /* \"#utility.yul\":3197:3239   */\n      0xffffffffffffffffffffffffffffffffffffffff\n        /* \"#utility.yul\":3190:3195   */\n      dup3\n        /* \"#utility.yul\":3186:3240   */\n      and\n        /* \"#utility.yul\":3175:3240   */\n      swap1\n      pop\n        /* \"#utility.yul\":3120:3246   */\n      swap2\n      swap1\n      pop\n      jump\t// out\n        /* \"#utility.yul\":3252:3329   */\n    tag_55:\n        /* \"#utility.yul\":3289:3296   */\n      0x00\n        /* \"#utility.yul\":3318:3323   */\n      dup2\n        /* \"#utility.yul\":3307:3323   */\n      swap1\n      pop\n        /* \"#utility.yul\":3252:3329   */\n      swap2\n      swap1\n      pop\n      jump\t// out\n        /* \"#utility.yul\":3458:3575   */\n    tag_38:\n        /* \"#utility.yul\":3567:3568   */\n      0x00\n        /* \"#utility.yul\":3564:3565   */\n      dup1\n        /* \"#utility.yul\":3557:3569   */\n      revert\n        /* \"#utility.yul\":3581:3741   */\n    tag_46:\n        /* \"#utility.yul\":3721:3733   */\n      0x6e6f2062616c616e636500000000000000000000000000000000000000000000\n        /* \"#utility.yul\":3717:3718   */\n      0x00\n        /* \"#utility.yul\":3709:3715   */\n      dup3\n        /* \"#utility.yul\":3705:3719   */\n      add\n        /* \"#utility.yul\":3698:3734   */\n      mstore\n        /* \"#utility.yul\":3581:3741   */\n      pop\n      jump\t// out\n        /* \"#utility.yul\":3747:3906   */\n    tag_51:\n        /* \"#utility.yul\":3887:3898   */\n      0x6e6f74206f776e65720000000000000000000000000000000000000000000000\n        /* \"#utility.yul\":3883:3884   */\n      0x00\n        /* \"#utility.yul\":3875:3881   */\n      dup3\n        /* \"#utility.yul\":3871:3885   */\n      add\n        /* \"#utility.yul\":3864:3899   */\n      mstore\n        /* \"#utility.yul\":3747:3906   */\n      pop\n      jump\t// out\n        /* \"#utility.yul\":3912:4050   */\n    tag_30:\n        /* \"#utility.yul\":3993:4025   */\n      tag_77\n        /* \"#utility.yul\":4019:4024   */\n      dup2\n        /* \"#utility.yul\":3993:4025   */\n      tag_65\n      jump\t// in\n    tag_77:\n        /* \"#utility.yul\":3986:3991   */\n      dup2\n        /* \"#utility.yul\":3983:4026   */\n      eq\n        /* \"#utility.yul\":3973:4044   */\n      tag_78\n      jumpi\n        /* \"#utility.yul\":4040:4041   */\n      0x00\n        /* \"#utility.yul\":4037:4038   */\n      dup1\n        /* \"#utility.yul\":4030:4042   */\n      revert\n        /* \"#utility.yul\":3973:4044   */\n    tag_78:\n        /* \"#utility.yul\":3912:4050   */\n      pop\n      jump\t// out\n        /* \"#utility.yul\":4056:4178   */\n    tag_34:\n        /* \"#utility.yul\":4129:4153   */\n      tag_80\n        /* \"#utility.yul\":4147:4152   */\n      dup2\n        /* \"#utility.yul\":4129:4153   */\n      tag_55\n      jump\t// in\n    tag_80:\n        /* \"#utility.yul\":4122:4127   */\n      dup2\n        /* \"#utility.yul\":4119:4154   */\n      eq\n        /* \"#utility.yul\":4109:4172   */\n      tag_81\n      jumpi\n        /* \"#utility.yul\":4168:4169   */\n      0x00\n        /* \"#utility.yul\":4165:4166   */\n      dup1\n        /* \"#utility.yul\":4158:4170   */\n      revert\n        /* \"#utility.yul\":4109:4172   */\n    tag_81:\n        /* \"#utility.yul\":4056:4178   */\n      pop\n      jump\t// out\n\n    auxdata: 0xa2646970667358221220357901edcdc7738c0085d76bcb4412384334a0746e388b5a59299af7bb02568064736f6c63430008070033\n}\n",
				"bytecode": {
					"linkReferences": {},
					"object": "6080604052336000806101000a81548173ffffffffffffffffffffffffffffffffffffffff021916908373ffffffffffffffffffffffffffffffffffffffff1602179055506103c7806100536000396000f3fe60806040526004361061002d5760003560e01c8063b69ef8a814610039578063d77818011461006457610034565b3661003457005b600080fd5b34801561004557600080fd5b5061004e610080565b60405161005b91906102a4565b60405180910390f35b61007e600480360381019061007991906101cf565b610088565b005b600047905090565b60014710156100cc576040517f08c379a00000000000000000000000000000000000000000000000000000000081526004016100c390610264565b60405180910390fd5b60008054906101000a900473ffffffffffffffffffffffffffffffffffffffff1673ffffffffffffffffffffffffffffffffffffffff163373ffffffffffffffffffffffffffffffffffffffff161461015a576040517f08c379a000000000000000000000000000000000000000000000000000000000815260040161015190610284565b60405180910390fd5b8173ffffffffffffffffffffffffffffffffffffffff166108fc829081150290604051600060405180830381858888f193505050501580156101a0573d6000803e3d6000fd5b505050565b6000813590506101b481610363565b92915050565b6000813590506101c98161037a565b92915050565b600080604083850312156101e6576101e561030c565b5b60006101f4858286016101a5565b9250506020610205858286016101ba565b9150509250929050565b600061021c600a836102bf565b915061022782610311565b602082019050919050565b600061023f6009836102bf565b915061024a8261033a565b602082019050919050565b61025e81610302565b82525050565b6000602082019050818103600083015261027d8161020f565b9050919050565b6000602082019050818103600083015261029d81610232565b9050919050565b60006020820190506102b96000830184610255565b92915050565b600082825260208201905092915050565b60006102db826102e2565b9050919050565b600073ffffffffffffffffffffffffffffffffffffffff82169050919050565b6000819050919050565b600080fd5b7f6e6f2062616c616e636500000000000000000000000000000000000000000000600082015250565b7f6e6f74206f776e65720000000000000000000000000000000000000000000000600082015250565b61036c816102d0565b811461037757600080fd5b50565b61038381610302565b811461038e57600080fd5b5056fea2646970667358221220357901edcdc7738c0085d76bcb4412384334a0746e388b5a59299af7bb02568064736f6c63430008070033",
					"opcodes": "PUSH1 0x80 PUSH1 0x40 MSTORE CALLER PUSH1 0x0 DUP1 PUSH2 0x100 EXP DUP2 SLOAD DUP2 PUSH20 0xFFFFFFFFFFFFFFFFFFFFFFFFFFFFFFFFFFFFFFFF MUL NOT AND SWAP1 DUP4 PUSH20 0xFFFFFFFFFFFFFFFFFFFFFFFFFFFFFFFFFFFFFFFF AND MUL OR SWAP1 SSTORE POP PUSH2 0x3C7 DUP1 PUSH2 0x53 PUSH1 0x0 CODECOPY PUSH1 0x0 RETURN INVALID PUSH1 0x80 PUSH1 0x40 MSTORE PUSH1 0x4 CALLDATASIZE LT PUSH2 0x2D JUMPI PUSH1 0x0 CALLDATALOAD PUSH1 0xE0 SHR DUP1 PUSH4 0xB69EF8A8 EQ PUSH2 0x39 JUMPI DUP1 PUSH4 0xD7781801 EQ PUSH2 0x64 JUMPI PUSH2 0x34 JUMP JUMPDEST CALLDATASIZE PUSH2 0x34 JUMPI STOP JUMPDEST PUSH1 0x0 DUP1 REVERT JUMPDEST CALLVALUE DUP1 ISZERO PUSH2 0x45 JUMPI PUSH1 0x0 DUP1 REVERT JUMPDEST POP PUSH2 0x4E PUSH2 0x80 JUMP JUMPDEST PUSH1 0x40 MLOAD PUSH2 0x5B SWAP2 SWAP1 PUSH2 0x2A4 JUMP JUMPDEST PUSH1 0x40 MLOAD DUP1 SWAP2 SUB SWAP1 RETURN JUMPDEST PUSH2 0x7E PUSH1 0x4 DUP1 CALLDATASIZE SUB DUP2 ADD SWAP1 PUSH2 0x79 SWAP2 SWAP1 PUSH2 0x1CF JUMP JUMPDEST PUSH2 0x88 JUMP JUMPDEST STOP JUMPDEST PUSH1 0x0 SELFBALANCE SWAP1 POP SWAP1 JUMP JUMPDEST PUSH1 0x1 SELFBALANCE LT ISZERO PUSH2 0xCC JUMPI PUSH1 0x40 MLOAD PUSH32 0x8C379A000000000000000000000000000000000000000000000000000000000 DUP2 MSTORE PUSH1 0x4 ADD PUSH2 0xC3 SWAP1 PUSH2 0x264 JUMP JUMPDEST PUSH1 0x40 MLOAD DUP1 SWAP2 SUB SWAP1 REVERT JUMPDEST PUSH1 0x0 DUP1 SLOAD SWAP1 PUSH2 0x100 EXP SWAP1 DIV PUSH20 0xFFFFFFFFFFFFFFFFFFFFFFFFFFFFFFFFFFFFFFFF AND PUSH20 0xFFFFFFFFFFFFFFFFFFFFFFFFFFFFFFFFFFFFFFFF AND CALLER PUSH20 0xFFFFFFFFFFFFFFFFFFFFFFFFFFFFFFFFFFFFFFFF AND EQ PUSH2 0x15A JUMPI PUSH1 0x40 MLOAD PUSH32 0x8C379A000000000000000000000000000000000000000000000000000000000 DUP2 MSTORE PUSH1 0x4 ADD PUSH2 0x151 SWAP1 PUSH2 0x284 JUMP JUMPDEST PUSH1 0x40 MLOAD DUP1 SWAP2 SUB SWAP1 REVERT JUMPDEST DUP2 PUSH20 0xFFFFFFFFFFFFFFFFFFFFFFFFFFFFFFFFFFFFFFFF AND PUSH2 0x8FC DUP3 SWAP1 DUP2 ISZERO MUL SWAP1 PUSH1 0x40 MLOAD PUSH1 0x0 PUSH1 0x40 MLOAD DUP1 DUP4 SUB DUP2 DUP6 DUP9 DUP9 CALL SWAP4 POP POP POP POP ISZERO DUP1 ISZERO PUSH2 0x1A0 JUMPI RETURNDATASIZE PUSH1 0x0 DUP1 RETURNDATACOPY RETURNDATASIZE PUSH1 0x0 REVERT JUMPDEST POP POP POP JUMP JUMPDEST PUSH1 0x0 DUP2 CALLDATALOAD SWAP1 POP PUSH2 0x1B4 DUP2 PUSH2 0x363 JUMP JUMPDEST SWAP3 SWAP2 POP POP JUMP JUMPDEST PUSH1 0x0 DUP2 CALLDATALOAD SWAP1 POP PUSH2 0x1C9 DUP2 PUSH2 0x37A JUMP JUMPDEST SWAP3 SWAP2 POP POP JUMP JUMPDEST PUSH1 0x0 DUP1 PUSH1 0x40 DUP4 DUP6 SUB SLT ISZERO PUSH2 0x1E6 JUMPI PUSH2 0x1E5 PUSH2 0x30C JUMP JUMPDEST JUMPDEST PUSH1 0x0 PUSH2 0x1F4 DUP6 DUP3 DUP7 ADD PUSH2 0x1A5 JUMP JUMPDEST SWAP3 POP POP PUSH1 0x20 PUSH2 0x205 DUP6 DUP3 DUP7 ADD PUSH2 0x1BA JUMP JUMPDEST SWAP2 POP POP SWAP3 POP SWAP3 SWAP1 POP JUMP JUMPDEST PUSH1 0x0 PUSH2 0x21C PUSH1 0xA DUP4 PUSH2 0x2BF JUMP JUMPDEST SWAP2 POP PUSH2 0x227 DUP3 PUSH2 0x311 JUMP JUMPDEST PUSH1 0x20 DUP3 ADD SWAP1 POP SWAP2 SWAP1 POP JUMP JUMPDEST PUSH1 0x0 PUSH2 0x23F PUSH1 0x9 DUP4 PUSH2 0x2BF JUMP JUMPDEST SWAP2 POP PUSH2 0x24A DUP3 PUSH2 0x33A JUMP JUMPDEST PUSH1 0x20 DUP3 ADD SWAP1 POP SWAP2 SWAP1 POP JUMP JUMPDEST PUSH2 0x25E DUP2 PUSH2 0x302 JUMP JUMPDEST DUP3 MSTORE POP POP JUMP JUMPDEST PUSH1 0x0 PUSH1 0x20 DUP3 ADD SWAP1 POP DUP2 DUP2 SUB PUSH1 0x0 DUP4 ADD MSTORE PUSH2 0x27D DUP2 PUSH2 0x20F JUMP JUMPDEST SWAP1 POP SWAP2 SWAP1 POP JUMP JUMPDEST PUSH1 0x0 PUSH1 0x20 DUP3 ADD SWAP1 POP DUP2 DUP2 SUB PUSH1 0x0 DUP4 ADD MSTORE PUSH2 0x29D DUP2 PUSH2 0x232 JUMP JUMPDEST SWAP1 POP SWAP2 SWAP1 POP JUMP JUMPDEST PUSH1 0x0 PUSH1 0x20 DUP3 ADD SWAP1 POP PUSH2 0x2B9 PUSH1 0x0 DUP4 ADD DUP5 PUSH2 0x255 JUMP JUMPDEST SWAP3 SWAP2 POP POP JUMP JUMPDEST PUSH1 0x0 DUP3 DUP3 MSTORE PUSH1 0x20 DUP3 ADD SWAP1 POP SWAP3 SWAP2 POP POP JUMP JUMPDEST PUSH1 0x0 PUSH2 0x2DB DUP3 PUSH2 0x2E2 JUMP JUMPDEST SWAP1 POP SWAP2 SWAP1 POP JUMP JUMPDEST PUSH1 0x0 PUSH20 0xFFFFFFFFFFFFFFFFFFFFFFFFFFFFFFFFFFFFFFFF DUP3 AND SWAP1 POP SWAP2 SWAP1 POP JUMP JUMPDEST PUSH1 0x0 DUP2 SWAP1 POP SWAP2 SWAP1 POP JUMP JUMPDEST PUSH1 0x0 DUP1 REVERT JUMPDEST PUSH32 0x6E6F2062616C616E636500000000000000000000000000000000000000000000 PUSH1 0x0 DUP3 ADD MSTORE POP JUMP JUMPDEST PUSH32 0x6E6F74206F776E65720000000000000000000000000000000000000000000000 PUSH1 0x0 DUP3 ADD MSTORE POP JUMP JUMPDEST PUSH2 0x36C DUP2 PUSH2 0x2D0 JUMP JUMPDEST DUP2 EQ PUSH2 0x377 JUMPI PUSH1 0x0 DUP1 REVERT JUMPDEST POP JUMP JUMPDEST PUSH2 0x383 DUP2 PUSH2 0x302 JUMP JUMPDEST DUP2 EQ PUSH2 0x38E JUMPI PUSH1 0x0 DUP1 REVERT JUMPDEST POP JUMP INVALID LOG2 PUSH5 0x6970667358 0x22 SLT KECCAK256 CALLDATALOAD PUSH26 0x1EDCDC7738C0085D76BCB4412384334A0746E388B5A59299AF7 0xBB MUL JUMP DUP1 PUSH5 0x736F6C6343 STOP ADDMOD SMOD STOP CALLER "
				},
				"gasEstimates": {
					"creation": {
						"codeDepositCost": "193400",
						"executionCost": "24480",
						"totalCost": "217880"
					},
					"external": {
						"balance()": "317",
						"sendd(address,uint256)": "infinite"
					}
				},
				"methodIdentifiers": {
					"balance()": "b69ef8a8",
					"sendd(address,uint256)": "d7781801"
				}
			},
			"storageLayout": {
				"storage": [
					{
						"astId": 119,
						"contract": "remix ide/PROJECT/rama.sol:receive_ether",
						"label": "owner_contract",
						"offset": 0,
						"slot": "0",
						"type": "t_address"
					}
				],
				"types": {
					"t_address": {
						"encoding": "inplace",
						"label": "address",
						"numberOfBytes": "20"
					}
				}
			},
			"userdoc": {
				"kind": "user",
				"methods": {},
				"version": 1
			}
		}
	}
}