{
	"remix ide/PROJECT/rama.sol": {
		"send_ether": {
			"abi": [
				{
					"inputs": [],
					"stateMutability": "payable",
					"type": "constructor"
				},
				{
					"anonymous": false,
					"inputs": [
						{
							"indexed": false,
							"internalType": "address",
							"name": "",
							"type": "address"
						},
						{
							"indexed": false,
							"internalType": "uint256",
							"name": "",
							"type": "uint256"
						}
					],
					"name": "deposit",
					"type": "event"
				},
				{
					"anonymous": false,
					"inputs": [
						{
							"indexed": false,
							"internalType": "address",
							"name": "",
							"type": "address"
						},
						{
							"indexed": false,
							"internalType": "uint256",
							"name": "",
							"type": "uint256"
						}
					],
					"name": "withdraw",
					"type": "event"
				},
				{
					"inputs": [],
					"name": "balance",
					"outputs": [
						{
							"internalType": "uint256",
							"name": "",
							"type": "uint256"
						}
					],
					"stateMutability": "view",
					"type": "function"
				},
				{
					"inputs": [],
					"name": "result",
					"outputs": [
						{
							"internalType": "enum send_ether.results",
							"name": "",
							"type": "uint8"
						}
					],
					"stateMutability": "view",
					"type": "function"
				},
				{
					"inputs": [
						{
							"internalType": "address payable",
							"name": "_add",
							"type": "address"
						},
						{
							"internalType": "uint256",
							"name": "amount",
							"type": "uint256"
						}
					],
					"name": "sendd",
					"outputs": [],
					"stateMutability": "payable",
					"type": "function"
				},
				{
					"inputs": [
						{
							"internalType": "address",
							"name": "_address",
							"type": "address"
						},
						{
							"internalType": "uint256",
							"name": "_amount",
							"type": "uint256"
						}
					],
					"name": "withraw",
					"outputs": [],
					"stateMutability": "nonpayable",
					"type": "function"
				},
				{
					"stateMutability": "payable",
					"type": "receive"
				}
			],
			"devdoc": {
				"kind": "dev",
				"methods": {},
				"version": 1
			},
			"evm": {
				"assembly": "    /* \"remix ide/PROJECT/rama.sol\":55:1106  contract send_ether{\r... */\n  mstore(0x40, 0x80)\n    /* \"remix ide/PROJECT/rama.sol\":528:538  msg.sender */\n  caller\n    /* \"remix ide/PROJECT/rama.sol\":513:527  owner_contract */\n  0x00\n  dup1\n    /* \"remix ide/PROJECT/rama.sol\":513:538  owner_contract=msg.sender */\n  0x0100\n  exp\n  dup2\n  sload\n  dup2\n  0xffffffffffffffffffffffffffffffffffffffff\n  mul\n  not\n  and\n  swap1\n  dup4\n  0xffffffffffffffffffffffffffffffffffffffff\n  and\n  mul\n  or\n  swap1\n  sstore\n  pop\n    /* \"remix ide/PROJECT/rama.sol\":55:1106  contract send_ether{\r... */\n  dataSize(sub_0)\n  dup1\n  dataOffset(sub_0)\n  0x00\n  codecopy\n  0x00\n  return\nstop\n\nsub_0: assembly {\n        /* \"remix ide/PROJECT/rama.sol\":55:1106  contract send_ether{\r... */\n      mstore(0x40, 0x80)\n      jumpi(tag_1, lt(calldatasize, 0x04))\n      shr(0xe0, calldataload(0x00))\n      dup1\n      0x65372147\n      eq\n      tag_3\n      jumpi\n      dup1\n      0xb69ef8a8\n      eq\n      tag_4\n      jumpi\n      dup1\n      0xd7781801\n      eq\n      tag_5\n      jumpi\n      dup1\n      0xe1af091e\n      eq\n      tag_6\n      jumpi\n      jump(tag_2)\n    tag_1:\n      jumpi(tag_2, calldatasize)\n        /* \"remix ide/PROJECT/rama.sol\":389:418  deposit(msg.sender,msg.value) */\n      0x47e7ef24b3022e382e65b1298581281f0ae273ac4f76464efcf5b06769264f2f\n        /* \"remix ide/PROJECT/rama.sol\":397:407  msg.sender */\n      caller\n        /* \"remix ide/PROJECT/rama.sol\":408:417  msg.value */\n      callvalue\n        /* \"remix ide/PROJECT/rama.sol\":389:418  deposit(msg.sender,msg.value) */\n      mload(0x40)\n      tag_9\n      swap3\n      swap2\n      swap1\n      tag_10\n      jump\t// in\n    tag_9:\n      mload(0x40)\n      dup1\n      swap2\n      sub\n      swap1\n      log1\n        /* \"remix ide/PROJECT/rama.sol\":436:460  results.amount_deposited */\n      0x00\n        /* \"remix ide/PROJECT/rama.sol\":429:435  result */\n      dup1\n      0x14\n        /* \"remix ide/PROJECT/rama.sol\":429:460  result=results.amount_deposited */\n      0x0100\n      exp\n      dup2\n      sload\n      dup2\n      0xff\n      mul\n      not\n      and\n      swap1\n      dup4\n      0x02\n      dup2\n      gt\n      iszero\n      tag_11\n      jumpi\n      tag_12\n      tag_13\n      jump\t// in\n    tag_12:\n    tag_11:\n      mul\n      or\n      swap1\n      sstore\n      pop\n        /* \"remix ide/PROJECT/rama.sol\":55:1106  contract send_ether{\r... */\n      stop\n    tag_2:\n      0x00\n      dup1\n      revert\n        /* \"remix ide/PROJECT/rama.sol\":293:314  results public result */\n    tag_3:\n      callvalue\n      dup1\n      iszero\n      tag_14\n      jumpi\n      0x00\n      dup1\n      revert\n    tag_14:\n      pop\n      tag_15\n      tag_16\n      jump\t// in\n    tag_15:\n      mload(0x40)\n      tag_17\n      swap2\n      swap1\n      tag_18\n      jump\t// in\n    tag_17:\n      mload(0x40)\n      dup1\n      swap2\n      sub\n      swap1\n      return\n        /* \"remix ide/PROJECT/rama.sol\":1009:1103  function balance() external view returns(uint){\r... */\n    tag_4:\n      callvalue\n      dup1\n      iszero\n      tag_19\n      jumpi\n      0x00\n      dup1\n      revert\n    tag_19:\n      pop\n      tag_20\n      tag_21\n      jump\t// in\n    tag_20:\n      mload(0x40)\n      tag_22\n      swap2\n      swap1\n      tag_23\n      jump\t// in\n    tag_22:\n      mload(0x40)\n      dup1\n      swap2\n      sub\n      swap1\n      return\n        /* \"remix ide/PROJECT/rama.sol\":726:1001  function sendd(address payable _add,uint amount) external payable \r... */\n    tag_5:\n      tag_24\n      0x04\n      dup1\n      calldatasize\n      sub\n      dup2\n      add\n      swap1\n      tag_25\n      swap2\n      swap1\n      tag_26\n      jump\t// in\n    tag_25:\n      tag_27\n      jump\t// in\n    tag_24:\n      stop\n        /* \"remix ide/PROJECT/rama.sol\":552:720  function withraw(address _address,uint _amount) public \r... */\n    tag_6:\n      callvalue\n      dup1\n      iszero\n      tag_28\n      jumpi\n      0x00\n      dup1\n      revert\n    tag_28:\n      pop\n      tag_29\n      0x04\n      dup1\n      calldatasize\n      sub\n      dup2\n      add\n      swap1\n      tag_30\n      swap2\n      swap1\n      tag_31\n      jump\t// in\n    tag_30:\n      tag_32\n      jump\t// in\n    tag_29:\n      stop\n        /* \"remix ide/PROJECT/rama.sol\":293:314  results public result */\n    tag_16:\n      0x00\n      0x14\n      swap1\n      sload\n      swap1\n      0x0100\n      exp\n      swap1\n      div\n      0xff\n      and\n      dup2\n      jump\t// out\n        /* \"remix ide/PROJECT/rama.sol\":1009:1103  function balance() external view returns(uint){\r... */\n    tag_21:\n        /* \"remix ide/PROJECT/rama.sol\":1050:1054  uint */\n      0x00\n        /* \"remix ide/PROJECT/rama.sol\":1073:1094  address(this).balance */\n      selfbalance\n        /* \"remix ide/PROJECT/rama.sol\":1066:1095  return(address(this).balance) */\n      swap1\n      pop\n        /* \"remix ide/PROJECT/rama.sol\":1009:1103  function balance() external view returns(uint){\r... */\n      swap1\n      jump\t// out\n        /* \"remix ide/PROJECT/rama.sol\":726:1001  function sendd(address payable _add,uint amount) external payable \r... */\n    tag_27:\n        /* \"remix ide/PROJECT/rama.sol\":842:843  1 */\n      0x01\n        /* \"remix ide/PROJECT/rama.sol\":817:838  address(this).balance */\n      selfbalance\n        /* \"remix ide/PROJECT/rama.sol\":817:843  address(this).balance >= 1 */\n      lt\n      iszero\n        /* \"remix ide/PROJECT/rama.sol\":809:857  require(address(this).balance >= 1,\"no balance\") */\n      tag_35\n      jumpi\n      mload(0x40)\n      0x08c379a000000000000000000000000000000000000000000000000000000000\n      dup2\n      mstore\n      0x04\n      add\n      tag_36\n      swap1\n      tag_37\n      jump\t// in\n    tag_36:\n      mload(0x40)\n      dup1\n      swap2\n      sub\n      swap1\n      revert\n    tag_35:\n        /* \"remix ide/PROJECT/rama.sol\":888:902  owner_contract */\n      0x00\n      dup1\n      sload\n      swap1\n      0x0100\n      exp\n      swap1\n      div\n      0xffffffffffffffffffffffffffffffffffffffff\n      and\n        /* \"remix ide/PROJECT/rama.sol\":876:902  msg.sender==owner_contract */\n      0xffffffffffffffffffffffffffffffffffffffff\n      and\n        /* \"remix ide/PROJECT/rama.sol\":876:886  msg.sender */\n      caller\n        /* \"remix ide/PROJECT/rama.sol\":876:902  msg.sender==owner_contract */\n      0xffffffffffffffffffffffffffffffffffffffff\n      and\n      eq\n        /* \"remix ide/PROJECT/rama.sol\":868:915  require(msg.sender==owner_contract,\"not owner\") */\n      tag_38\n      jumpi\n      mload(0x40)\n      0x08c379a000000000000000000000000000000000000000000000000000000000\n      dup2\n      mstore\n      0x04\n      add\n      tag_39\n      swap1\n      tag_40\n      jump\t// in\n    tag_39:\n      mload(0x40)\n      dup1\n      swap2\n      sub\n      swap1\n      revert\n    tag_38:\n        /* \"remix ide/PROJECT/rama.sol\":926:930  _add */\n      dup2\n        /* \"remix ide/PROJECT/rama.sol\":926:939  _add.transfer */\n      0xffffffffffffffffffffffffffffffffffffffff\n      and\n        /* \"remix ide/PROJECT/rama.sol\":926:947  _add.transfer(amount) */\n      0x08fc\n        /* \"remix ide/PROJECT/rama.sol\":940:946  amount */\n      dup3\n        /* \"remix ide/PROJECT/rama.sol\":926:947  _add.transfer(amount) */\n      swap1\n      dup2\n      iszero\n      mul\n      swap1\n      mload(0x40)\n      0x00\n      mload(0x40)\n      dup1\n      dup4\n      sub\n      dup2\n      dup6\n      dup9\n      dup9\n      call\n      swap4\n      pop\n      pop\n      pop\n      pop\n      iszero\n      dup1\n      iszero\n      tag_42\n      jumpi\n      returndatasize\n      0x00\n      dup1\n      returndatacopy\n      revert(0x00, returndatasize)\n    tag_42:\n      pop\n        /* \"remix ide/PROJECT/rama.sol\":965:984  results.amount_sent */\n      0x02\n        /* \"remix ide/PROJECT/rama.sol\":958:964  result */\n      0x00\n      0x14\n        /* \"remix ide/PROJECT/rama.sol\":958:984  result=results.amount_sent */\n      0x0100\n      exp\n      dup2\n      sload\n      dup2\n      0xff\n      mul\n      not\n      and\n      swap1\n      dup4\n      0x02\n      dup2\n      gt\n      iszero\n      tag_43\n      jumpi\n      tag_44\n      tag_13\n      jump\t// in\n    tag_44:\n    tag_43:\n      mul\n      or\n      swap1\n      sstore\n      pop\n        /* \"remix ide/PROJECT/rama.sol\":726:1001  function sendd(address payable _add,uint amount) external payable \r... */\n      pop\n      pop\n      jump\t// out\n        /* \"remix ide/PROJECT/rama.sol\":552:720  function withraw(address _address,uint _amount) public \r... */\n    tag_32:\n        /* \"remix ide/PROJECT/rama.sol\":629:655  withdraw(_address,_amount) */\n      0xf3fef3a3f44f9c277339b67d54f015748bd8d6b77a985b0ab6e71126b018c34a\n        /* \"remix ide/PROJECT/rama.sol\":638:646  _address */\n      dup3\n        /* \"remix ide/PROJECT/rama.sol\":647:654  _amount */\n      dup3\n        /* \"remix ide/PROJECT/rama.sol\":629:655  withdraw(_address,_amount) */\n      mload(0x40)\n      tag_46\n      swap3\n      swap2\n      swap1\n      tag_10\n      jump\t// in\n    tag_46:\n      mload(0x40)\n      dup1\n      swap2\n      sub\n      swap1\n      log1\n        /* \"remix ide/PROJECT/rama.sol\":673:710  results.amount_successfully_withdrawl */\n      0x01\n        /* \"remix ide/PROJECT/rama.sol\":666:672  result */\n      0x00\n      0x14\n        /* \"remix ide/PROJECT/rama.sol\":666:710  result=results.amount_successfully_withdrawl */\n      0x0100\n      exp\n      dup2\n      sload\n      dup2\n      0xff\n      mul\n      not\n      and\n      swap1\n      dup4\n      0x02\n      dup2\n      gt\n      iszero\n      tag_47\n      jumpi\n      tag_48\n      tag_13\n      jump\t// in\n    tag_48:\n    tag_47:\n      mul\n      or\n      swap1\n      sstore\n      pop\n        /* \"remix ide/PROJECT/rama.sol\":552:720  function withraw(address _address,uint _amount) public \r... */\n      pop\n      pop\n      jump\t// out\n        /* \"#utility.yul\":7:146   */\n    tag_50:\n        /* \"#utility.yul\":53:58   */\n      0x00\n        /* \"#utility.yul\":91:97   */\n      dup2\n        /* \"#utility.yul\":78:98   */\n      calldataload\n        /* \"#utility.yul\":69:98   */\n      swap1\n      pop\n        /* \"#utility.yul\":107:140   */\n      tag_52\n        /* \"#utility.yul\":134:139   */\n      dup2\n        /* \"#utility.yul\":107:140   */\n      tag_53\n      jump\t// in\n    tag_52:\n        /* \"#utility.yul\":7:146   */\n      swap3\n      swap2\n      pop\n      pop\n      jump\t// out\n        /* \"#utility.yul\":152:307   */\n    tag_54:\n        /* \"#utility.yul\":206:211   */\n      0x00\n        /* \"#utility.yul\":244:250   */\n      dup2\n        /* \"#utility.yul\":231:251   */\n      calldataload\n        /* \"#utility.yul\":222:251   */\n      swap1\n      pop\n        /* \"#utility.yul\":260:301   */\n      tag_56\n        /* \"#utility.yul\":295:300   */\n      dup2\n        /* \"#utility.yul\":260:301   */\n      tag_57\n      jump\t// in\n    tag_56:\n        /* \"#utility.yul\":152:307   */\n      swap3\n      swap2\n      pop\n      pop\n      jump\t// out\n        /* \"#utility.yul\":313:452   */\n    tag_58:\n        /* \"#utility.yul\":359:364   */\n      0x00\n        /* \"#utility.yul\":397:403   */\n      dup2\n        /* \"#utility.yul\":384:404   */\n      calldataload\n        /* \"#utility.yul\":375:404   */\n      swap1\n      pop\n        /* \"#utility.yul\":413:446   */\n      tag_60\n        /* \"#utility.yul\":440:445   */\n      dup2\n        /* \"#utility.yul\":413:446   */\n      tag_61\n      jump\t// in\n    tag_60:\n        /* \"#utility.yul\":313:452   */\n      swap3\n      swap2\n      pop\n      pop\n      jump\t// out\n        /* \"#utility.yul\":458:948   */\n    tag_26:\n        /* \"#utility.yul\":534:540   */\n      0x00\n        /* \"#utility.yul\":542:548   */\n      dup1\n        /* \"#utility.yul\":591:593   */\n      0x40\n        /* \"#utility.yul\":579:588   */\n      dup4\n        /* \"#utility.yul\":570:577   */\n      dup6\n        /* \"#utility.yul\":566:589   */\n      sub\n        /* \"#utility.yul\":562:594   */\n      slt\n        /* \"#utility.yul\":559:678   */\n      iszero\n      tag_63\n      jumpi\n        /* \"#utility.yul\":597:676   */\n      tag_64\n      tag_65\n      jump\t// in\n    tag_64:\n        /* \"#utility.yul\":559:678   */\n    tag_63:\n        /* \"#utility.yul\":717:718   */\n      0x00\n        /* \"#utility.yul\":742:803   */\n      tag_66\n        /* \"#utility.yul\":795:802   */\n      dup6\n        /* \"#utility.yul\":786:792   */\n      dup3\n        /* \"#utility.yul\":775:784   */\n      dup7\n        /* \"#utility.yul\":771:793   */\n      add\n        /* \"#utility.yul\":742:803   */\n      tag_54\n      jump\t// in\n    tag_66:\n        /* \"#utility.yul\":732:803   */\n      swap3\n      pop\n        /* \"#utility.yul\":688:813   */\n      pop\n        /* \"#utility.yul\":852:854   */\n      0x20\n        /* \"#utility.yul\":878:931   */\n      tag_67\n        /* \"#utility.yul\":923:930   */\n      dup6\n        /* \"#utility.yul\":914:920   */\n      dup3\n        /* \"#utility.yul\":903:912   */\n      dup7\n        /* \"#utility.yul\":899:921   */\n      add\n        /* \"#utility.yul\":878:931   */\n      tag_58\n      jump\t// in\n    tag_67:\n        /* \"#utility.yul\":868:931   */\n      swap2\n      pop\n        /* \"#utility.yul\":823:941   */\n      pop\n        /* \"#utility.yul\":458:948   */\n      swap3\n      pop\n      swap3\n      swap1\n      pop\n      jump\t// out\n        /* \"#utility.yul\":954:1428   */\n    tag_31:\n        /* \"#utility.yul\":1022:1028   */\n      0x00\n        /* \"#utility.yul\":1030:1036   */\n      dup1\n        /* \"#utility.yul\":1079:1081   */\n      0x40\n        /* \"#utility.yul\":1067:1076   */\n      dup4\n        /* \"#utility.yul\":1058:1065   */\n      dup6\n        /* \"#utility.yul\":1054:1077   */\n      sub\n        /* \"#utility.yul\":1050:1082   */\n      slt\n        /* \"#utility.yul\":1047:1166   */\n      iszero\n      tag_69\n      jumpi\n        /* \"#utility.yul\":1085:1164   */\n      tag_70\n      tag_65\n      jump\t// in\n    tag_70:\n        /* \"#utility.yul\":1047:1166   */\n    tag_69:\n        /* \"#utility.yul\":1205:1206   */\n      0x00\n        /* \"#utility.yul\":1230:1283   */\n      tag_71\n        /* \"#utility.yul\":1275:1282   */\n      dup6\n        /* \"#utility.yul\":1266:1272   */\n      dup3\n        /* \"#utility.yul\":1255:1264   */\n      dup7\n        /* \"#utility.yul\":1251:1273   */\n      add\n        /* \"#utility.yul\":1230:1283   */\n      tag_50\n      jump\t// in\n    tag_71:\n        /* \"#utility.yul\":1220:1283   */\n      swap3\n      pop\n        /* \"#utility.yul\":1176:1293   */\n      pop\n        /* \"#utility.yul\":1332:1334   */\n      0x20\n        /* \"#utility.yul\":1358:1411   */\n      tag_72\n        /* \"#utility.yul\":1403:1410   */\n      dup6\n        /* \"#utility.yul\":1394:1400   */\n      dup3\n        /* \"#utility.yul\":1383:1392   */\n      dup7\n        /* \"#utility.yul\":1379:1401   */\n      add\n        /* \"#utility.yul\":1358:1411   */\n      tag_58\n      jump\t// in\n    tag_72:\n        /* \"#utility.yul\":1348:1411   */\n      swap2\n      pop\n        /* \"#utility.yul\":1303:1421   */\n      pop\n        /* \"#utility.yul\":954:1428   */\n      swap3\n      pop\n      swap3\n      swap1\n      pop\n      jump\t// out\n        /* \"#utility.yul\":1434:1552   */\n    tag_73:\n        /* \"#utility.yul\":1521:1545   */\n      tag_75\n        /* \"#utility.yul\":1539:1544   */\n      dup2\n        /* \"#utility.yul\":1521:1545   */\n      tag_76\n      jump\t// in\n    tag_75:\n        /* \"#utility.yul\":1516:1519   */\n      dup3\n        /* \"#utility.yul\":1509:1546   */\n      mstore\n        /* \"#utility.yul\":1434:1552   */\n      pop\n      pop\n      jump\t// out\n        /* \"#utility.yul\":1558:1705   */\n    tag_77:\n        /* \"#utility.yul\":1653:1698   */\n      tag_79\n        /* \"#utility.yul\":1692:1697   */\n      dup2\n        /* \"#utility.yul\":1653:1698   */\n      tag_80\n      jump\t// in\n    tag_79:\n        /* \"#utility.yul\":1648:1651   */\n      dup3\n        /* \"#utility.yul\":1641:1699   */\n      mstore\n        /* \"#utility.yul\":1558:1705   */\n      pop\n      pop\n      jump\t// out\n        /* \"#utility.yul\":1711:2077   */\n    tag_81:\n        /* \"#utility.yul\":1853:1856   */\n      0x00\n        /* \"#utility.yul\":1874:1941   */\n      tag_83\n        /* \"#utility.yul\":1938:1940   */\n      0x0a\n        /* \"#utility.yul\":1933:1936   */\n      dup4\n        /* \"#utility.yul\":1874:1941   */\n      tag_84\n      jump\t// in\n    tag_83:\n        /* \"#utility.yul\":1867:1941   */\n      swap2\n      pop\n        /* \"#utility.yul\":1950:2043   */\n      tag_85\n        /* \"#utility.yul\":2039:2042   */\n      dup3\n        /* \"#utility.yul\":1950:2043   */\n      tag_86\n      jump\t// in\n    tag_85:\n        /* \"#utility.yul\":2068:2070   */\n      0x20\n        /* \"#utility.yul\":2063:2066   */\n      dup3\n        /* \"#utility.yul\":2059:2071   */\n      add\n        /* \"#utility.yul\":2052:2071   */\n      swap1\n      pop\n        /* \"#utility.yul\":1711:2077   */\n      swap2\n      swap1\n      pop\n      jump\t// out\n        /* \"#utility.yul\":2083:2448   */\n    tag_87:\n        /* \"#utility.yul\":2225:2228   */\n      0x00\n        /* \"#utility.yul\":2246:2312   */\n      tag_89\n        /* \"#utility.yul\":2310:2311   */\n      0x09\n        /* \"#utility.yul\":2305:2308   */\n      dup4\n        /* \"#utility.yul\":2246:2312   */\n      tag_84\n      jump\t// in\n    tag_89:\n        /* \"#utility.yul\":2239:2312   */\n      swap2\n      pop\n        /* \"#utility.yul\":2321:2414   */\n      tag_90\n        /* \"#utility.yul\":2410:2413   */\n      dup3\n        /* \"#utility.yul\":2321:2414   */\n      tag_91\n      jump\t// in\n    tag_90:\n        /* \"#utility.yul\":2439:2441   */\n      0x20\n        /* \"#utility.yul\":2434:2437   */\n      dup3\n        /* \"#utility.yul\":2430:2442   */\n      add\n        /* \"#utility.yul\":2423:2442   */\n      swap1\n      pop\n        /* \"#utility.yul\":2083:2448   */\n      swap2\n      swap1\n      pop\n      jump\t// out\n        /* \"#utility.yul\":2454:2572   */\n    tag_92:\n        /* \"#utility.yul\":2541:2565   */\n      tag_94\n        /* \"#utility.yul\":2559:2564   */\n      dup2\n        /* \"#utility.yul\":2541:2565   */\n      tag_95\n      jump\t// in\n    tag_94:\n        /* \"#utility.yul\":2536:2539   */\n      dup3\n        /* \"#utility.yul\":2529:2566   */\n      mstore\n        /* \"#utility.yul\":2454:2572   */\n      pop\n      pop\n      jump\t// out\n        /* \"#utility.yul\":2578:2910   */\n    tag_10:\n        /* \"#utility.yul\":2699:2703   */\n      0x00\n        /* \"#utility.yul\":2737:2739   */\n      0x40\n        /* \"#utility.yul\":2726:2735   */\n      dup3\n        /* \"#utility.yul\":2722:2740   */\n      add\n        /* \"#utility.yul\":2714:2740   */\n      swap1\n      pop\n        /* \"#utility.yul\":2750:2821   */\n      tag_97\n        /* \"#utility.yul\":2818:2819   */\n      0x00\n        /* \"#utility.yul\":2807:2816   */\n      dup4\n        /* \"#utility.yul\":2803:2820   */\n      add\n        /* \"#utility.yul\":2794:2800   */\n      dup6\n        /* \"#utility.yul\":2750:2821   */\n      tag_73\n      jump\t// in\n    tag_97:\n        /* \"#utility.yul\":2831:2903   */\n      tag_98\n        /* \"#utility.yul\":2899:2901   */\n      0x20\n        /* \"#utility.yul\":2888:2897   */\n      dup4\n        /* \"#utility.yul\":2884:2902   */\n      add\n        /* \"#utility.yul\":2875:2881   */\n      dup5\n        /* \"#utility.yul\":2831:2903   */\n      tag_92\n      jump\t// in\n    tag_98:\n        /* \"#utility.yul\":2578:2910   */\n      swap4\n      swap3\n      pop\n      pop\n      pop\n      jump\t// out\n        /* \"#utility.yul\":2916:3154   */\n    tag_18:\n        /* \"#utility.yul\":3017:3021   */\n      0x00\n        /* \"#utility.yul\":3055:3057   */\n      0x20\n        /* \"#utility.yul\":3044:3053   */\n      dup3\n        /* \"#utility.yul\":3040:3058   */\n      add\n        /* \"#utility.yul\":3032:3058   */\n      swap1\n      pop\n        /* \"#utility.yul\":3068:3147   */\n      tag_100\n        /* \"#utility.yul\":3144:3145   */\n      0x00\n        /* \"#utility.yul\":3133:3142   */\n      dup4\n        /* \"#utility.yul\":3129:3146   */\n      add\n        /* \"#utility.yul\":3120:3126   */\n      dup5\n        /* \"#utility.yul\":3068:3147   */\n      tag_77\n      jump\t// in\n    tag_100:\n        /* \"#utility.yul\":2916:3154   */\n      swap3\n      swap2\n      pop\n      pop\n      jump\t// out\n        /* \"#utility.yul\":3160:3579   */\n    tag_37:\n        /* \"#utility.yul\":3326:3330   */\n      0x00\n        /* \"#utility.yul\":3364:3366   */\n      0x20\n        /* \"#utility.yul\":3353:3362   */\n      dup3\n        /* \"#utility.yul\":3349:3367   */\n      add\n        /* \"#utility.yul\":3341:3367   */\n      swap1\n      pop\n        /* \"#utility.yul\":3413:3422   */\n      dup2\n        /* \"#utility.yul\":3407:3411   */\n      dup2\n        /* \"#utility.yul\":3403:3423   */\n      sub\n        /* \"#utility.yul\":3399:3400   */\n      0x00\n        /* \"#utility.yul\":3388:3397   */\n      dup4\n        /* \"#utility.yul\":3384:3401   */\n      add\n        /* \"#utility.yul\":3377:3424   */\n      mstore\n        /* \"#utility.yul\":3441:3572   */\n      tag_102\n        /* \"#utility.yul\":3567:3571   */\n      dup2\n        /* \"#utility.yul\":3441:3572   */\n      tag_81\n      jump\t// in\n    tag_102:\n        /* \"#utility.yul\":3433:3572   */\n      swap1\n      pop\n        /* \"#utility.yul\":3160:3579   */\n      swap2\n      swap1\n      pop\n      jump\t// out\n        /* \"#utility.yul\":3585:4004   */\n    tag_40:\n        /* \"#utility.yul\":3751:3755   */\n      0x00\n        /* \"#utility.yul\":3789:3791   */\n      0x20\n        /* \"#utility.yul\":3778:3787   */\n      dup3\n        /* \"#utility.yul\":3774:3792   */\n      add\n        /* \"#utility.yul\":3766:3792   */\n      swap1\n      pop\n        /* \"#utility.yul\":3838:3847   */\n      dup2\n        /* \"#utility.yul\":3832:3836   */\n      dup2\n        /* \"#utility.yul\":3828:3848   */\n      sub\n        /* \"#utility.yul\":3824:3825   */\n      0x00\n        /* \"#utility.yul\":3813:3822   */\n      dup4\n        /* \"#utility.yul\":3809:3826   */\n      add\n        /* \"#utility.yul\":3802:3849   */\n      mstore\n        /* \"#utility.yul\":3866:3997   */\n      tag_104\n        /* \"#utility.yul\":3992:3996   */\n      dup2\n        /* \"#utility.yul\":3866:3997   */\n      tag_87\n      jump\t// in\n    tag_104:\n        /* \"#utility.yul\":3858:3997   */\n      swap1\n      pop\n        /* \"#utility.yul\":3585:4004   */\n      swap2\n      swap1\n      pop\n      jump\t// out\n        /* \"#utility.yul\":4010:4232   */\n    tag_23:\n        /* \"#utility.yul\":4103:4107   */\n      0x00\n        /* \"#utility.yul\":4141:4143   */\n      0x20\n        /* \"#utility.yul\":4130:4139   */\n      dup3\n        /* \"#utility.yul\":4126:4144   */\n      add\n        /* \"#utility.yul\":4118:4144   */\n      swap1\n      pop\n        /* \"#utility.yul\":4154:4225   */\n      tag_106\n        /* \"#utility.yul\":4222:4223   */\n      0x00\n        /* \"#utility.yul\":4211:4220   */\n      dup4\n        /* \"#utility.yul\":4207:4224   */\n      add\n        /* \"#utility.yul\":4198:4204   */\n      dup5\n        /* \"#utility.yul\":4154:4225   */\n      tag_92\n      jump\t// in\n    tag_106:\n        /* \"#utility.yul\":4010:4232   */\n      swap3\n      swap2\n      pop\n      pop\n      jump\t// out\n        /* \"#utility.yul\":4319:4488   */\n    tag_84:\n        /* \"#utility.yul\":4403:4414   */\n      0x00\n        /* \"#utility.yul\":4437:4443   */\n      dup3\n        /* \"#utility.yul\":4432:4435   */\n      dup3\n        /* \"#utility.yul\":4425:4444   */\n      mstore\n        /* \"#utility.yul\":4477:4481   */\n      0x20\n        /* \"#utility.yul\":4472:4475   */\n      dup3\n        /* \"#utility.yul\":4468:4482   */\n      add\n        /* \"#utility.yul\":4453:4482   */\n      swap1\n      pop\n        /* \"#utility.yul\":4319:4488   */\n      swap3\n      swap2\n      pop\n      pop\n      jump\t// out\n        /* \"#utility.yul\":4494:4590   */\n    tag_76:\n        /* \"#utility.yul\":4531:4538   */\n      0x00\n        /* \"#utility.yul\":4560:4584   */\n      tag_111\n        /* \"#utility.yul\":4578:4583   */\n      dup3\n        /* \"#utility.yul\":4560:4584   */\n      tag_112\n      jump\t// in\n    tag_111:\n        /* \"#utility.yul\":4549:4584   */\n      swap1\n      pop\n        /* \"#utility.yul\":4494:4590   */\n      swap2\n      swap1\n      pop\n      jump\t// out\n        /* \"#utility.yul\":4596:4700   */\n    tag_113:\n        /* \"#utility.yul\":4641:4648   */\n      0x00\n        /* \"#utility.yul\":4670:4694   */\n      tag_115\n        /* \"#utility.yul\":4688:4693   */\n      dup3\n        /* \"#utility.yul\":4670:4694   */\n      tag_112\n      jump\t// in\n    tag_115:\n        /* \"#utility.yul\":4659:4694   */\n      swap1\n      pop\n        /* \"#utility.yul\":4596:4700   */\n      swap2\n      swap1\n      pop\n      jump\t// out\n        /* \"#utility.yul\":4706:4837   */\n    tag_116:\n        /* \"#utility.yul\":4753:4760   */\n      0x00\n        /* \"#utility.yul\":4782:4787   */\n      dup2\n        /* \"#utility.yul\":4771:4787   */\n      swap1\n      pop\n        /* \"#utility.yul\":4788:4831   */\n      tag_118\n        /* \"#utility.yul\":4825:4830   */\n      dup3\n        /* \"#utility.yul\":4788:4831   */\n      tag_119\n      jump\t// in\n    tag_118:\n        /* \"#utility.yul\":4706:4837   */\n      swap2\n      swap1\n      pop\n      jump\t// out\n        /* \"#utility.yul\":4843:4969   */\n    tag_112:\n        /* \"#utility.yul\":4880:4887   */\n      0x00\n        /* \"#utility.yul\":4920:4962   */\n      0xffffffffffffffffffffffffffffffffffffffff\n        /* \"#utility.yul\":4913:4918   */\n      dup3\n        /* \"#utility.yul\":4909:4963   */\n      and\n        /* \"#utility.yul\":4898:4963   */\n      swap1\n      pop\n        /* \"#utility.yul\":4843:4969   */\n      swap2\n      swap1\n      pop\n      jump\t// out\n        /* \"#utility.yul\":4975:5052   */\n    tag_95:\n        /* \"#utility.yul\":5012:5019   */\n      0x00\n        /* \"#utility.yul\":5041:5046   */\n      dup2\n        /* \"#utility.yul\":5030:5046   */\n      swap1\n      pop\n        /* \"#utility.yul\":4975:5052   */\n      swap2\n      swap1\n      pop\n      jump\t// out\n        /* \"#utility.yul\":5058:5189   */\n    tag_80:\n        /* \"#utility.yul\":5116:5125   */\n      0x00\n        /* \"#utility.yul\":5149:5183   */\n      tag_123\n        /* \"#utility.yul\":5177:5182   */\n      dup3\n        /* \"#utility.yul\":5149:5183   */\n      tag_116\n      jump\t// in\n    tag_123:\n        /* \"#utility.yul\":5136:5183   */\n      swap1\n      pop\n        /* \"#utility.yul\":5058:5189   */\n      swap2\n      swap1\n      pop\n      jump\t// out\n        /* \"#utility.yul\":5195:5375   */\n    tag_13:\n        /* \"#utility.yul\":5243:5320   */\n      0x4e487b7100000000000000000000000000000000000000000000000000000000\n        /* \"#utility.yul\":5240:5241   */\n      0x00\n        /* \"#utility.yul\":5233:5321   */\n      mstore\n        /* \"#utility.yul\":5340:5344   */\n      0x21\n        /* \"#utility.yul\":5337:5338   */\n      0x04\n        /* \"#utility.yul\":5330:5345   */\n      mstore\n        /* \"#utility.yul\":5364:5368   */\n      0x24\n        /* \"#utility.yul\":5361:5362   */\n      0x00\n        /* \"#utility.yul\":5354:5369   */\n      revert\n        /* \"#utility.yul\":5504:5621   */\n    tag_65:\n        /* \"#utility.yul\":5613:5614   */\n      0x00\n        /* \"#utility.yul\":5610:5611   */\n      dup1\n        /* \"#utility.yul\":5603:5615   */\n      revert\n        /* \"#utility.yul\":5627:5787   */\n    tag_86:\n        /* \"#utility.yul\":5767:5779   */\n      0x6e6f2062616c616e636500000000000000000000000000000000000000000000\n        /* \"#utility.yul\":5763:5764   */\n      0x00\n        /* \"#utility.yul\":5755:5761   */\n      dup3\n        /* \"#utility.yul\":5751:5765   */\n      add\n        /* \"#utility.yul\":5744:5780   */\n      mstore\n        /* \"#utility.yul\":5627:5787   */\n      pop\n      jump\t// out\n        /* \"#utility.yul\":5793:5952   */\n    tag_91:\n        /* \"#utility.yul\":5933:5944   */\n      0x6e6f74206f776e65720000000000000000000000000000000000000000000000\n        /* \"#utility.yul\":5929:5930   */\n      0x00\n        /* \"#utility.yul\":5921:5927   */\n      dup3\n        /* \"#utility.yul\":5917:5931   */\n      add\n        /* \"#utility.yul\":5910:5945   */\n      mstore\n        /* \"#utility.yul\":5793:5952   */\n      pop\n      jump\t// out\n        /* \"#utility.yul\":5958:6073   */\n    tag_119:\n        /* \"#utility.yul\":6041:6042   */\n      0x03\n        /* \"#utility.yul\":6034:6039   */\n      dup2\n        /* \"#utility.yul\":6031:6043   */\n      lt\n        /* \"#utility.yul\":6021:6067   */\n      tag_131\n      jumpi\n        /* \"#utility.yul\":6047:6065   */\n      tag_132\n      tag_13\n      jump\t// in\n    tag_132:\n        /* \"#utility.yul\":6021:6067   */\n    tag_131:\n        /* \"#utility.yul\":5958:6073   */\n      pop\n      jump\t// out\n        /* \"#utility.yul\":6079:6201   */\n    tag_53:\n        /* \"#utility.yul\":6152:6176   */\n      tag_134\n        /* \"#utility.yul\":6170:6175   */\n      dup2\n        /* \"#utility.yul\":6152:6176   */\n      tag_76\n      jump\t// in\n    tag_134:\n        /* \"#utility.yul\":6145:6150   */\n      dup2\n        /* \"#utility.yul\":6142:6177   */\n      eq\n        /* \"#utility.yul\":6132:6195   */\n      tag_135\n      jumpi\n        /* \"#utility.yul\":6191:6192   */\n      0x00\n        /* \"#utility.yul\":6188:6189   */\n      dup1\n        /* \"#utility.yul\":6181:6193   */\n      revert\n        /* \"#utility.yul\":6132:6195   */\n    tag_135:\n        /* \"#utility.yul\":6079:6201   */\n      pop\n      jump\t// out\n        /* \"#utility.yul\":6207:6345   */\n    tag_57:\n        /* \"#utility.yul\":6288:6320   */\n      tag_137\n        /* \"#utility.yul\":6314:6319   */\n      dup2\n        /* \"#utility.yul\":6288:6320   */\n      tag_113\n      jump\t// in\n    tag_137:\n        /* \"#utility.yul\":6281:6286   */\n      dup2\n        /* \"#utility.yul\":6278:6321   */\n      eq\n        /* \"#utility.yul\":6268:6339   */\n      tag_138\n      jumpi\n        /* \"#utility.yul\":6335:6336   */\n      0x00\n        /* \"#utility.yul\":6332:6333   */\n      dup1\n        /* \"#utility.yul\":6325:6337   */\n      revert\n        /* \"#utility.yul\":6268:6339   */\n    tag_138:\n        /* \"#utility.yul\":6207:6345   */\n      pop\n      jump\t// out\n        /* \"#utility.yul\":6351:6473   */\n    tag_61:\n        /* \"#utility.yul\":6424:6448   */\n      tag_140\n        /* \"#utility.yul\":6442:6447   */\n      dup2\n        /* \"#utility.yul\":6424:6448   */\n      tag_95\n      jump\t// in\n    tag_140:\n        /* \"#utility.yul\":6417:6422   */\n      dup2\n        /* \"#utility.yul\":6414:6449   */\n      eq\n        /* \"#utility.yul\":6404:6467   */\n      tag_141\n      jumpi\n        /* \"#utility.yul\":6463:6464   */\n      0x00\n        /* \"#utility.yul\":6460:6461   */\n      dup1\n        /* \"#utility.yul\":6453:6465   */\n      revert\n        /* \"#utility.yul\":6404:6467   */\n    tag_141:\n        /* \"#utility.yul\":6351:6473   */\n      pop\n      jump\t// out\n\n    auxdata: 0xa26469706673582212206b0cbf8504637c1b6a2648a4308612438cbe14420c029117ae6d87844c01e3d464736f6c63430008070033\n}\n",
				"bytecode": {
					"linkReferences": {},
					"object": "6080604052336000806101000a81548173ffffffffffffffffffffffffffffffffffffffff021916908373ffffffffffffffffffffffffffffffffffffffff160217905550610682806100536000396000f3fe6080604052600436106100435760003560e01c806365372147146100b2578063b69ef8a8146100dd578063d778180114610108578063e1af091e14610124576100ad565b366100ad577f47e7ef24b3022e382e65b1298581281f0ae273ac4f76464efcf5b06769264f2f333460405161007992919061044a565b60405180910390a160008060146101000a81548160ff021916908360028111156100a6576100a561056d565b5b0217905550005b600080fd5b3480156100be57600080fd5b506100c761014d565b6040516100d49190610473565b60405180910390f35b3480156100e957600080fd5b506100f2610160565b6040516100ff91906104ce565b60405180910390f35b610122600480360381019061011d9190610357565b610168565b005b34801561013057600080fd5b5061014b60048036038101906101469190610397565b6102b0565b005b600060149054906101000a900460ff1681565b600047905090565b60014710156101ac576040517f08c379a00000000000000000000000000000000000000000000000000000000081526004016101a39061048e565b60405180910390fd5b60008054906101000a900473ffffffffffffffffffffffffffffffffffffffff1673ffffffffffffffffffffffffffffffffffffffff163373ffffffffffffffffffffffffffffffffffffffff161461023a576040517f08c379a0000000000000000000000000000000000000000000000000000000008152600401610231906104ae565b60405180910390fd5b8173ffffffffffffffffffffffffffffffffffffffff166108fc829081150290604051600060405180830381858888f19350505050158015610280573d6000803e3d6000fd5b506002600060146101000a81548160ff021916908360028111156102a7576102a661056d565b5b02179055505050565b7ff3fef3a3f44f9c277339b67d54f015748bd8d6b77a985b0ab6e71126b018c34a82826040516102e192919061044a565b60405180910390a16001600060146101000a81548160ff0219169083600281111561030f5761030e61056d565b5b02179055505050565b60008135905061032781610607565b92915050565b60008135905061033c8161061e565b92915050565b60008135905061035181610635565b92915050565b6000806040838503121561036e5761036d61059c565b5b600061037c8582860161032d565b925050602061038d85828601610342565b9150509250929050565b600080604083850312156103ae576103ad61059c565b5b60006103bc85828601610318565b92505060206103cd85828601610342565b9150509250929050565b6103e0816104fa565b82525050565b6103ef8161055b565b82525050565b6000610402600a836104e9565b915061040d826105a1565b602082019050919050565b60006104256009836104e9565b9150610430826105ca565b602082019050919050565b61044481610551565b82525050565b600060408201905061045f60008301856103d7565b61046c602083018461043b565b9392505050565b600060208201905061048860008301846103e6565b92915050565b600060208201905081810360008301526104a7816103f5565b9050919050565b600060208201905081810360008301526104c781610418565b9050919050565b60006020820190506104e3600083018461043b565b92915050565b600082825260208201905092915050565b600061050582610531565b9050919050565b600061051782610531565b9050919050565b600081905061052c826105f3565b919050565b600073ffffffffffffffffffffffffffffffffffffffff82169050919050565b6000819050919050565b60006105668261051e565b9050919050565b7f4e487b7100000000000000000000000000000000000000000000000000000000600052602160045260246000fd5b600080fd5b7f6e6f2062616c616e636500000000000000000000000000000000000000000000600082015250565b7f6e6f74206f776e65720000000000000000000000000000000000000000000000600082015250565b600381106106045761060361056d565b5b50565b610610816104fa565b811461061b57600080fd5b50565b6106278161050c565b811461063257600080fd5b50565b61063e81610551565b811461064957600080fd5b5056fea26469706673582212206b0cbf8504637c1b6a2648a4308612438cbe14420c029117ae6d87844c01e3d464736f6c63430008070033",
					"opcodes": "PUSH1 0x80 PUSH1 0x40 MSTORE CALLER PUSH1 0x0 DUP1 PUSH2 0x100 EXP DUP2 SLOAD DUP2 PUSH20 0xFFFFFFFFFFFFFFFFFFFFFFFFFFFFFFFFFFFFFFFF MUL NOT AND SWAP1 DUP4 PUSH20 0xFFFFFFFFFFFFFFFFFFFFFFFFFFFFFFFFFFFFFFFF AND MUL OR SWAP1 SSTORE POP PUSH2 0x682 DUP1 PUSH2 0x53 PUSH1 0x0 CODECOPY PUSH1 0x0 RETURN INVALID PUSH1 0x80 PUSH1 0x40 MSTORE PUSH1 0x4 CALLDATASIZE LT PUSH2 0x43 JUMPI PUSH1 0x0 CALLDATALOAD PUSH1 0xE0 SHR DUP1 PUSH4 0x65372147 EQ PUSH2 0xB2 JUMPI DUP1 PUSH4 0xB69EF8A8 EQ PUSH2 0xDD JUMPI DUP1 PUSH4 0xD7781801 EQ PUSH2 0x108 JUMPI DUP1 PUSH4 0xE1AF091E EQ PUSH2 0x124 JUMPI PUSH2 0xAD JUMP JUMPDEST CALLDATASIZE PUSH2 0xAD JUMPI PUSH32 0x47E7EF24B3022E382E65B1298581281F0AE273AC4F76464EFCF5B06769264F2F CALLER CALLVALUE PUSH1 0x40 MLOAD PUSH2 0x79 SWAP3 SWAP2 SWAP1 PUSH2 0x44A JUMP JUMPDEST PUSH1 0x40 MLOAD DUP1 SWAP2 SUB SWAP1 LOG1 PUSH1 0x0 DUP1 PUSH1 0x14 PUSH2 0x100 EXP DUP2 SLOAD DUP2 PUSH1 0xFF MUL NOT AND SWAP1 DUP4 PUSH1 0x2 DUP2 GT ISZERO PUSH2 0xA6 JUMPI PUSH2 0xA5 PUSH2 0x56D JUMP JUMPDEST JUMPDEST MUL OR SWAP1 SSTORE POP STOP JUMPDEST PUSH1 0x0 DUP1 REVERT JUMPDEST CALLVALUE DUP1 ISZERO PUSH2 0xBE JUMPI PUSH1 0x0 DUP1 REVERT JUMPDEST POP PUSH2 0xC7 PUSH2 0x14D JUMP JUMPDEST PUSH1 0x40 MLOAD PUSH2 0xD4 SWAP2 SWAP1 PUSH2 0x473 JUMP JUMPDEST PUSH1 0x40 MLOAD DUP1 SWAP2 SUB SWAP1 RETURN JUMPDEST CALLVALUE DUP1 ISZERO PUSH2 0xE9 JUMPI PUSH1 0x0 DUP1 REVERT JUMPDEST POP PUSH2 0xF2 PUSH2 0x160 JUMP JUMPDEST PUSH1 0x40 MLOAD PUSH2 0xFF SWAP2 SWAP1 PUSH2 0x4CE JUMP JUMPDEST PUSH1 0x40 MLOAD DUP1 SWAP2 SUB SWAP1 RETURN JUMPDEST PUSH2 0x122 PUSH1 0x4 DUP1 CALLDATASIZE SUB DUP2 ADD SWAP1 PUSH2 0x11D SWAP2 SWAP1 PUSH2 0x357 JUMP JUMPDEST PUSH2 0x168 JUMP JUMPDEST STOP JUMPDEST CALLVALUE DUP1 ISZERO PUSH2 0x130 JUMPI PUSH1 0x0 DUP1 REVERT JUMPDEST POP PUSH2 0x14B PUSH1 0x4 DUP1 CALLDATASIZE SUB DUP2 ADD SWAP1 PUSH2 0x146 SWAP2 SWAP1 PUSH2 0x397 JUMP JUMPDEST PUSH2 0x2B0 JUMP JUMPDEST STOP JUMPDEST PUSH1 0x0 PUSH1 0x14 SWAP1 SLOAD SWAP1 PUSH2 0x100 EXP SWAP1 DIV PUSH1 0xFF AND DUP2 JUMP JUMPDEST PUSH1 0x0 SELFBALANCE SWAP1 POP SWAP1 JUMP JUMPDEST PUSH1 0x1 SELFBALANCE LT ISZERO PUSH2 0x1AC JUMPI PUSH1 0x40 MLOAD PUSH32 0x8C379A000000000000000000000000000000000000000000000000000000000 DUP2 MSTORE PUSH1 0x4 ADD PUSH2 0x1A3 SWAP1 PUSH2 0x48E JUMP JUMPDEST PUSH1 0x40 MLOAD DUP1 SWAP2 SUB SWAP1 REVERT JUMPDEST PUSH1 0x0 DUP1 SLOAD SWAP1 PUSH2 0x100 EXP SWAP1 DIV PUSH20 0xFFFFFFFFFFFFFFFFFFFFFFFFFFFFFFFFFFFFFFFF AND PUSH20 0xFFFFFFFFFFFFFFFFFFFFFFFFFFFFFFFFFFFFFFFF AND CALLER PUSH20 0xFFFFFFFFFFFFFFFFFFFFFFFFFFFFFFFFFFFFFFFF AND EQ PUSH2 0x23A JUMPI PUSH1 0x40 MLOAD PUSH32 0x8C379A000000000000000000000000000000000000000000000000000000000 DUP2 MSTORE PUSH1 0x4 ADD PUSH2 0x231 SWAP1 PUSH2 0x4AE JUMP JUMPDEST PUSH1 0x40 MLOAD DUP1 SWAP2 SUB SWAP1 REVERT JUMPDEST DUP2 PUSH20 0xFFFFFFFFFFFFFFFFFFFFFFFFFFFFFFFFFFFFFFFF AND PUSH2 0x8FC DUP3 SWAP1 DUP2 ISZERO MUL SWAP1 PUSH1 0x40 MLOAD PUSH1 0x0 PUSH1 0x40 MLOAD DUP1 DUP4 SUB DUP2 DUP6 DUP9 DUP9 CALL SWAP4 POP POP POP POP ISZERO DUP1 ISZERO PUSH2 0x280 JUMPI RETURNDATASIZE PUSH1 0x0 DUP1 RETURNDATACOPY RETURNDATASIZE PUSH1 0x0 REVERT JUMPDEST POP PUSH1 0x2 PUSH1 0x0 PUSH1 0x14 PUSH2 0x100 EXP DUP2 SLOAD DUP2 PUSH1 0xFF MUL NOT AND SWAP1 DUP4 PUSH1 0x2 DUP2 GT ISZERO PUSH2 0x2A7 JUMPI PUSH2 0x2A6 PUSH2 0x56D JUMP JUMPDEST JUMPDEST MUL OR SWAP1 SSTORE POP POP POP JUMP JUMPDEST PUSH32 0xF3FEF3A3F44F9C277339B67D54F015748BD8D6B77A985B0AB6E71126B018C34A DUP3 DUP3 PUSH1 0x40 MLOAD PUSH2 0x2E1 SWAP3 SWAP2 SWAP1 PUSH2 0x44A JUMP JUMPDEST PUSH1 0x40 MLOAD DUP1 SWAP2 SUB SWAP1 LOG1 PUSH1 0x1 PUSH1 0x0 PUSH1 0x14 PUSH2 0x100 EXP DUP2 SLOAD DUP2 PUSH1 0xFF MUL NOT AND SWAP1 DUP4 PUSH1 0x2 DUP2 GT ISZERO PUSH2 0x30F JUMPI PUSH2 0x30E PUSH2 0x56D JUMP JUMPDEST JUMPDEST MUL OR SWAP1 SSTORE POP POP POP JUMP JUMPDEST PUSH1 0x0 DUP2 CALLDATALOAD SWAP1 POP PUSH2 0x327 DUP2 PUSH2 0x607 JUMP JUMPDEST SWAP3 SWAP2 POP POP JUMP JUMPDEST PUSH1 0x0 DUP2 CALLDATALOAD SWAP1 POP PUSH2 0x33C DUP2 PUSH2 0x61E JUMP JUMPDEST SWAP3 SWAP2 POP POP JUMP JUMPDEST PUSH1 0x0 DUP2 CALLDATALOAD SWAP1 POP PUSH2 0x351 DUP2 PUSH2 0x635 JUMP JUMPDEST SWAP3 SWAP2 POP POP JUMP JUMPDEST PUSH1 0x0 DUP1 PUSH1 0x40 DUP4 DUP6 SUB SLT ISZERO PUSH2 0x36E JUMPI PUSH2 0x36D PUSH2 0x59C JUMP JUMPDEST JUMPDEST PUSH1 0x0 PUSH2 0x37C DUP6 DUP3 DUP7 ADD PUSH2 0x32D JUMP JUMPDEST SWAP3 POP POP PUSH1 0x20 PUSH2 0x38D DUP6 DUP3 DUP7 ADD PUSH2 0x342 JUMP JUMPDEST SWAP2 POP POP SWAP3 POP SWAP3 SWAP1 POP JUMP JUMPDEST PUSH1 0x0 DUP1 PUSH1 0x40 DUP4 DUP6 SUB SLT ISZERO PUSH2 0x3AE JUMPI PUSH2 0x3AD PUSH2 0x59C JUMP JUMPDEST JUMPDEST PUSH1 0x0 PUSH2 0x3BC DUP6 DUP3 DUP7 ADD PUSH2 0x318 JUMP JUMPDEST SWAP3 POP POP PUSH1 0x20 PUSH2 0x3CD DUP6 DUP3 DUP7 ADD PUSH2 0x342 JUMP JUMPDEST SWAP2 POP POP SWAP3 POP SWAP3 SWAP1 POP JUMP JUMPDEST PUSH2 0x3E0 DUP2 PUSH2 0x4FA JUMP JUMPDEST DUP3 MSTORE POP POP JUMP JUMPDEST PUSH2 0x3EF DUP2 PUSH2 0x55B JUMP JUMPDEST DUP3 MSTORE POP POP JUMP JUMPDEST PUSH1 0x0 PUSH2 0x402 PUSH1 0xA DUP4 PUSH2 0x4E9 JUMP JUMPDEST SWAP2 POP PUSH2 0x40D DUP3 PUSH2 0x5A1 JUMP JUMPDEST PUSH1 0x20 DUP3 ADD SWAP1 POP SWAP2 SWAP1 POP JUMP JUMPDEST PUSH1 0x0 PUSH2 0x425 PUSH1 0x9 DUP4 PUSH2 0x4E9 JUMP JUMPDEST SWAP2 POP PUSH2 0x430 DUP3 PUSH2 0x5CA JUMP JUMPDEST PUSH1 0x20 DUP3 ADD SWAP1 POP SWAP2 SWAP1 POP JUMP JUMPDEST PUSH2 0x444 DUP2 PUSH2 0x551 JUMP JUMPDEST DUP3 MSTORE POP POP JUMP JUMPDEST PUSH1 0x0 PUSH1 0x40 DUP3 ADD SWAP1 POP PUSH2 0x45F PUSH1 0x0 DUP4 ADD DUP6 PUSH2 0x3D7 JUMP JUMPDEST PUSH2 0x46C PUSH1 0x20 DUP4 ADD DUP5 PUSH2 0x43B JUMP JUMPDEST SWAP4 SWAP3 POP POP POP JUMP JUMPDEST PUSH1 0x0 PUSH1 0x20 DUP3 ADD SWAP1 POP PUSH2 0x488 PUSH1 0x0 DUP4 ADD DUP5 PUSH2 0x3E6 JUMP JUMPDEST SWAP3 SWAP2 POP POP JUMP JUMPDEST PUSH1 0x0 PUSH1 0x20 DUP3 ADD SWAP1 POP DUP2 DUP2 SUB PUSH1 0x0 DUP4 ADD MSTORE PUSH2 0x4A7 DUP2 PUSH2 0x3F5 JUMP JUMPDEST SWAP1 POP SWAP2 SWAP1 POP JUMP JUMPDEST PUSH1 0x0 PUSH1 0x20 DUP3 ADD SWAP1 POP DUP2 DUP2 SUB PUSH1 0x0 DUP4 ADD MSTORE PUSH2 0x4C7 DUP2 PUSH2 0x418 JUMP JUMPDEST SWAP1 POP SWAP2 SWAP1 POP JUMP JUMPDEST PUSH1 0x0 PUSH1 0x20 DUP3 ADD SWAP1 POP PUSH2 0x4E3 PUSH1 0x0 DUP4 ADD DUP5 PUSH2 0x43B JUMP JUMPDEST SWAP3 SWAP2 POP POP JUMP JUMPDEST PUSH1 0x0 DUP3 DUP3 MSTORE PUSH1 0x20 DUP3 ADD SWAP1 POP SWAP3 SWAP2 POP POP JUMP JUMPDEST PUSH1 0x0 PUSH2 0x505 DUP3 PUSH2 0x531 JUMP JUMPDEST SWAP1 POP SWAP2 SWAP1 POP JUMP JUMPDEST PUSH1 0x0 PUSH2 0x517 DUP3 PUSH2 0x531 JUMP JUMPDEST SWAP1 POP SWAP2 SWAP1 POP JUMP JUMPDEST PUSH1 0x0 DUP2 SWAP1 POP PUSH2 0x52C DUP3 PUSH2 0x5F3 JUMP JUMPDEST SWAP2 SWAP1 POP JUMP JUMPDEST PUSH1 0x0 PUSH20 0xFFFFFFFFFFFFFFFFFFFFFFFFFFFFFFFFFFFFFFFF DUP3 AND SWAP1 POP SWAP2 SWAP1 POP JUMP JUMPDEST PUSH1 0x0 DUP2 SWAP1 POP SWAP2 SWAP1 POP JUMP JUMPDEST PUSH1 0x0 PUSH2 0x566 DUP3 PUSH2 0x51E JUMP JUMPDEST SWAP1 POP SWAP2 SWAP1 POP JUMP JUMPDEST PUSH32 0x4E487B7100000000000000000000000000000000000000000000000000000000 PUSH1 0x0 MSTORE PUSH1 0x21 PUSH1 0x4 MSTORE PUSH1 0x24 PUSH1 0x0 REVERT JUMPDEST PUSH1 0x0 DUP1 REVERT JUMPDEST PUSH32 0x6E6F2062616C616E636500000000000000000000000000000000000000000000 PUSH1 0x0 DUP3 ADD MSTORE POP JUMP JUMPDEST PUSH32 0x6E6F74206F776E65720000000000000000000000000000000000000000000000 PUSH1 0x0 DUP3 ADD MSTORE POP JUMP JUMPDEST PUSH1 0x3 DUP2 LT PUSH2 0x604 JUMPI PUSH2 0x603 PUSH2 0x56D JUMP JUMPDEST JUMPDEST POP JUMP JUMPDEST PUSH2 0x610 DUP2 PUSH2 0x4FA JUMP JUMPDEST DUP2 EQ PUSH2 0x61B JUMPI PUSH1 0x0 DUP1 REVERT JUMPDEST POP JUMP JUMPDEST PUSH2 0x627 DUP2 PUSH2 0x50C JUMP JUMPDEST DUP2 EQ PUSH2 0x632 JUMPI PUSH1 0x0 DUP1 REVERT JUMPDEST POP JUMP JUMPDEST PUSH2 0x63E DUP2 PUSH2 0x551 JUMP JUMPDEST DUP2 EQ PUSH2 0x649 JUMPI PUSH1 0x0 DUP1 REVERT JUMPDEST POP JUMP INVALID LOG2 PUSH5 0x6970667358 0x22 SLT KECCAK256 PUSH12 0xCBF8504637C1B6A2648A430 DUP7 SLT NUMBER DUP13 0xBE EQ TIMESTAMP 0xC MUL SWAP2 OR 0xAE PUSH14 0x87844C01E3D464736F6C63430008 SMOD STOP CALLER "
				},
				"gasEstimates": {
					"creation": {
						"codeDepositCost": "333200",
						"executionCost": "24616",
						"totalCost": "357816"
					},
					"external": {
						"balance()": "339",
						"result()": "2588",
						"sendd(address,uint256)": "infinite",
						"withraw(address,uint256)": "infinite"
					}
				},
				"methodIdentifiers": {
					"balance()": "b69ef8a8",
					"result()": "65372147",
					"sendd(address,uint256)": "d7781801",
					"withraw(address,uint256)": "e1af091e"
				}
			},
			"storageLayout": {
				"storage": [
					{
						"astId": 15,
						"contract": "remix ide/PROJECT/rama.sol:send_ether",
						"label": "owner_contract",
						"offset": 0,
						"slot": "0",
						"type": "t_address"
					},
					{
						"astId": 22,
						"contract": "remix ide/PROJECT/rama.sol:send_ether",
						"label": "result",
						"offset": 20,
						"slot": "0",
						"type": "t_enum(results)19"
					}
				],
				"types": {
					"t_address": {
						"encoding": "inplace",
						"label": "address",
						"numberOfBytes": "20"
					},
					"t_enum(results)19": {
						"encoding": "inplace",
						"label": "enum send_ether.results",
						"numberOfBytes": "1"
					}
				}
			},
			"userdoc": {
				"kind": "user",
				"methods": {},
				"version": 1
			}
		}
	}
}