{
	"remix_ide/PROJECT/ETHER_WALLET.sol": {
		"send_ether": {
			"abi": [
				{
					"inputs": [],
					"stateMutability": "payable",
					"type": "constructor"
				},
				{
					"anonymous": false,
					"inputs": [
						{
							"indexed": false,
							"internalType": "address",
							"name": "",
							"type": "address"
						},
						{
							"indexed": false,
							"internalType": "uint256",
							"name": "",
							"type": "uint256"
						}
					],
					"name": "deposit",
					"type": "event"
				},
				{
					"anonymous": false,
					"inputs": [
						{
							"indexed": false,
							"internalType": "address",
							"name": "",
							"type": "address"
						},
						{
							"indexed": false,
							"internalType": "uint256",
							"name": "",
							"type": "uint256"
						}
					],
					"name": "withdraw",
					"type": "event"
				},
				{
					"inputs": [],
					"name": "balance",
					"outputs": [
						{
							"internalType": "uint256",
							"name": "",
							"type": "uint256"
						}
					],
					"stateMutability": "view",
					"type": "function"
				},
				{
					"inputs": [
						{
							"internalType": "address payable",
							"name": "_add",
							"type": "address"
						},
						{
							"internalType": "uint256",
							"name": "amount",
							"type": "uint256"
						}
					],
					"name": "sendd",
					"outputs": [],
					"stateMutability": "payable",
					"type": "function"
				},
				{
					"inputs": [
						{
							"internalType": "address",
							"name": "_address",
							"type": "address"
						},
						{
							"internalType": "uint256",
							"name": "_amount",
							"type": "uint256"
						}
					],
					"name": "withraw",
					"outputs": [],
					"stateMutability": "nonpayable",
					"type": "function"
				},
				{
					"stateMutability": "payable",
					"type": "receive"
				}
			],
			"devdoc": {
				"kind": "dev",
				"methods": {},
				"version": 1
			},
			"evm": {
				"assembly": "    /* \"remix_ide/PROJECT/ETHER_WALLET.sol\":56:1428  contract send_ether{... */\n  mstore(0x40, 0xe0)\n    /* \"remix_ide/PROJECT/ETHER_WALLET.sol\":618:628  msg.sender */\n  caller\n    /* \"remix_ide/PROJECT/ETHER_WALLET.sol\":603:617  owner_contract */\n  0x00\n  dup1\n    /* \"remix_ide/PROJECT/ETHER_WALLET.sol\":603:628  owner_contract=msg.sender */\n  0x0100\n  exp\n  dup2\n  sload\n  dup2\n  0xffffffffffffffffffffffffffffffffffffffff\n  mul\n  not\n  and\n  swap1\n  dup4\n  0xffffffffffffffffffffffffffffffffffffffff\n  and\n  mul\n  or\n  swap1\n  sstore\n  pop\n    /* \"remix_ide/PROJECT/ETHER_WALLET.sol\":647:662  block.timestamp */\n  timestamp\n    /* \"remix_ide/PROJECT/ETHER_WALLET.sol\":639:662  current=block.timestamp */\n  0x80\n  dup2\n  dup2\n  mstore\n  pop\n  pop\n    /* \"remix_ide/PROJECT/ETHER_WALLET.sol\":684:693  1 minutes */\n  0x3c\n    /* \"remix_ide/PROJECT/ETHER_WALLET.sol\":673:693  duraction= 1 minutes */\n  0xa0\n  dup2\n  dup2\n  mstore\n  pop\n  pop\n    /* \"remix_ide/PROJECT/ETHER_WALLET.sol\":719:728  duraction */\n  mload(0xa0)\n    /* \"remix_ide/PROJECT/ETHER_WALLET.sol\":711:718  current */\n  mload(0x80)\n    /* \"remix_ide/PROJECT/ETHER_WALLET.sol\":711:728  current+duraction */\n  tag_3\n  swap2\n  swap1\n  tag_4\n  jump\t// in\ntag_3:\n    /* \"remix_ide/PROJECT/ETHER_WALLET.sol\":704:728  total= current+duraction */\n  0xc0\n  dup2\n  dup2\n  mstore\n  pop\n  pop\n    /* \"remix_ide/PROJECT/ETHER_WALLET.sol\":56:1428  contract send_ether{... */\n  jump(tag_5)\n    /* \"#utility.yul\":7:84   */\ntag_6:\n    /* \"#utility.yul\":44:51   */\n  0x00\n    /* \"#utility.yul\":73:78   */\n  dup2\n    /* \"#utility.yul\":62:78   */\n  swap1\n  pop\n    /* \"#utility.yul\":7:84   */\n  swap2\n  swap1\n  pop\n  jump\t// out\n    /* \"#utility.yul\":90:270   */\ntag_7:\n    /* \"#utility.yul\":138:215   */\n  0x4e487b7100000000000000000000000000000000000000000000000000000000\n    /* \"#utility.yul\":135:136   */\n  0x00\n    /* \"#utility.yul\":128:216   */\n  mstore\n    /* \"#utility.yul\":235:239   */\n  0x11\n    /* \"#utility.yul\":232:233   */\n  0x04\n    /* \"#utility.yul\":225:240   */\n  mstore\n    /* \"#utility.yul\":259:263   */\n  0x24\n    /* \"#utility.yul\":256:257   */\n  0x00\n    /* \"#utility.yul\":249:264   */\n  revert\n    /* \"#utility.yul\":276:467   */\ntag_4:\n    /* \"#utility.yul\":316:319   */\n  0x00\n    /* \"#utility.yul\":335:355   */\n  tag_12\n    /* \"#utility.yul\":353:354   */\n  dup3\n    /* \"#utility.yul\":335:355   */\n  tag_6\n  jump\t// in\ntag_12:\n    /* \"#utility.yul\":330:355   */\n  swap2\n  pop\n    /* \"#utility.yul\":369:389   */\n  tag_13\n    /* \"#utility.yul\":387:388   */\n  dup4\n    /* \"#utility.yul\":369:389   */\n  tag_6\n  jump\t// in\ntag_13:\n    /* \"#utility.yul\":364:389   */\n  swap3\n  pop\n    /* \"#utility.yul\":412:413   */\n  dup3\n    /* \"#utility.yul\":409:410   */\n  dup3\n    /* \"#utility.yul\":405:414   */\n  add\n    /* \"#utility.yul\":398:414   */\n  swap1\n  pop\n    /* \"#utility.yul\":433:436   */\n  dup1\n    /* \"#utility.yul\":430:431   */\n  dup3\n    /* \"#utility.yul\":427:437   */\n  gt\n    /* \"#utility.yul\":424:460   */\n  iszero\n  tag_14\n  jumpi\n    /* \"#utility.yul\":440:458   */\n  tag_15\n  tag_7\n  jump\t// in\ntag_15:\n    /* \"#utility.yul\":424:460   */\ntag_14:\n    /* \"#utility.yul\":276:467   */\n  swap3\n  swap2\n  pop\n  pop\n  jump\t// out\n    /* \"remix_ide/PROJECT/ETHER_WALLET.sol\":56:1428  contract send_ether{... */\ntag_5:\n  mload(0x80)\n  mload(0xa0)\n  mload(0xc0)\n  codecopy(0x00, dataOffset(sub_0), dataSize(sub_0))\n  0x00\n  assignImmutable(\"0x52f1a9b320cab38e5da8a8f97989383aab0a49165fc91c737310e4f7e9821021\")\n  0x00\n  assignImmutable(\"0xceebf77a833b30520287ddd9478ff51abbdffa30aa90a8d655dba0e8a79ce0c1\")\n  0x00\n  assignImmutable(\"0x2a80e1ef1d7842f27f2e6be0972bb708b9a135c38860dbe73c27c3486c34f4de\")\n  return(0x00, dataSize(sub_0))\nstop\n\nsub_0: assembly {\n        /* \"remix_ide/PROJECT/ETHER_WALLET.sol\":56:1428  contract send_ether{... */\n      mstore(0x40, 0x80)\n      jumpi(tag_1, lt(calldatasize, 0x04))\n      shr(0xe0, calldataload(0x00))\n      dup1\n      0xb69ef8a8\n      eq\n      tag_3\n      jumpi\n      dup1\n      0xd7781801\n      eq\n      tag_4\n      jumpi\n      dup1\n      0xe1af091e\n      eq\n      tag_5\n      jumpi\n      jump(tag_2)\n    tag_1:\n      jumpi(tag_2, calldatasize)\n        /* \"remix_ide/PROJECT/ETHER_WALLET.sol\":479:508  deposit(msg.sender,msg.value) */\n      0x47e7ef24b3022e382e65b1298581281f0ae273ac4f76464efcf5b06769264f2f\n        /* \"remix_ide/PROJECT/ETHER_WALLET.sol\":487:497  msg.sender */\n      caller\n        /* \"remix_ide/PROJECT/ETHER_WALLET.sol\":498:507  msg.value */\n      callvalue\n        /* \"remix_ide/PROJECT/ETHER_WALLET.sol\":479:508  deposit(msg.sender,msg.value) */\n      mload(0x40)\n      tag_8\n      swap3\n      swap2\n      swap1\n      tag_9\n      jump\t// in\n    tag_8:\n      mload(0x40)\n      dup1\n      swap2\n      sub\n      swap1\n      log1\n        /* \"remix_ide/PROJECT/ETHER_WALLET.sol\":526:550  results.amount_deposited */\n      0x00\n        /* \"remix_ide/PROJECT/ETHER_WALLET.sol\":519:525  result */\n      dup1\n      0x14\n        /* \"remix_ide/PROJECT/ETHER_WALLET.sol\":519:550  result=results.amount_deposited */\n      0x0100\n      exp\n      dup2\n      sload\n      dup2\n      0xff\n      mul\n      not\n      and\n      swap1\n      dup4\n      0x02\n      dup2\n      gt\n      iszero\n      tag_10\n      jumpi\n      tag_11\n      tag_12\n      jump\t// in\n    tag_11:\n    tag_10:\n      mul\n      or\n      swap1\n      sstore\n      stop\n        /* \"remix_ide/PROJECT/ETHER_WALLET.sol\":56:1428  contract send_ether{... */\n    tag_2:\n      0x00\n      dup1\n      revert\n        /* \"remix_ide/PROJECT/ETHER_WALLET.sol\":1331:1425  function balance() external view returns(uint){... */\n    tag_3:\n      callvalue\n      dup1\n      iszero\n      tag_13\n      jumpi\n      0x00\n      dup1\n      revert\n    tag_13:\n      pop\n      tag_14\n      tag_15\n      jump\t// in\n    tag_14:\n      mload(0x40)\n      tag_16\n      swap2\n      swap1\n      tag_17\n      jump\t// in\n    tag_16:\n      mload(0x40)\n      dup1\n      swap2\n      sub\n      swap1\n      return\n        /* \"remix_ide/PROJECT/ETHER_WALLET.sol\":1039:1323  function sendd(address payable _add,uint amount) external payable condition... */\n    tag_4:\n      tag_18\n      0x04\n      dup1\n      calldatasize\n      sub\n      dup2\n      add\n      swap1\n      tag_19\n      swap2\n      swap1\n      tag_20\n      jump\t// in\n    tag_19:\n      tag_21\n      jump\t// in\n    tag_18:\n      stop\n        /* \"remix_ide/PROJECT/ETHER_WALLET.sol\":864:1033  function withraw(address _address, uint _amount) public ... */\n    tag_5:\n      callvalue\n      dup1\n      iszero\n      tag_22\n      jumpi\n      0x00\n      dup1\n      revert\n    tag_22:\n      pop\n      tag_23\n      0x04\n      dup1\n      calldatasize\n      sub\n      dup2\n      add\n      swap1\n      tag_24\n      swap2\n      swap1\n      tag_25\n      jump\t// in\n    tag_24:\n      tag_26\n      jump\t// in\n    tag_23:\n      stop\n        /* \"remix_ide/PROJECT/ETHER_WALLET.sol\":1331:1425  function balance() external view returns(uint){... */\n    tag_15:\n        /* \"remix_ide/PROJECT/ETHER_WALLET.sol\":1372:1376  uint */\n      0x00\n        /* \"remix_ide/PROJECT/ETHER_WALLET.sol\":1395:1416  address(this).balance */\n      selfbalance\n        /* \"remix_ide/PROJECT/ETHER_WALLET.sol\":1388:1417  return(address(this).balance) */\n      swap1\n      pop\n        /* \"remix_ide/PROJECT/ETHER_WALLET.sol\":1331:1425  function balance() external view returns(uint){... */\n      swap1\n      jump\t// out\n        /* \"remix_ide/PROJECT/ETHER_WALLET.sol\":1039:1323  function sendd(address payable _add,uint amount) external payable condition... */\n    tag_21:\n        /* \"remix_ide/PROJECT/ETHER_WALLET.sol\":805:810  total */\n      immutable(\"0x52f1a9b320cab38e5da8a8f97989383aab0a49165fc91c737310e4f7e9821021\")\n        /* \"remix_ide/PROJECT/ETHER_WALLET.sol\":787:802  block.timestamp */\n      timestamp\n        /* \"remix_ide/PROJECT/ETHER_WALLET.sol\":787:810  block.timestamp > total */\n      gt\n        /* \"remix_ide/PROJECT/ETHER_WALLET.sol\":779:838  require(block.timestamp > total,\"wait until the time over\") */\n      tag_29\n      jumpi\n      mload(0x40)\n      0x08c379a000000000000000000000000000000000000000000000000000000000\n      dup2\n      mstore\n      0x04\n      add\n      tag_30\n      swap1\n      tag_31\n      jump\t// in\n    tag_30:\n      mload(0x40)\n      dup1\n      swap2\n      sub\n      swap1\n      revert\n    tag_29:\n        /* \"remix_ide/PROJECT/ETHER_WALLET.sol\":1164:1165  1 */\n      0x01\n        /* \"remix_ide/PROJECT/ETHER_WALLET.sol\":1139:1160  address(this).balance */\n      selfbalance\n        /* \"remix_ide/PROJECT/ETHER_WALLET.sol\":1139:1165  address(this).balance >= 1 */\n      lt\n      iszero\n        /* \"remix_ide/PROJECT/ETHER_WALLET.sol\":1131:1179  require(address(this).balance >= 1,\"no balance\") */\n      tag_33\n      jumpi\n      mload(0x40)\n      0x08c379a000000000000000000000000000000000000000000000000000000000\n      dup2\n      mstore\n      0x04\n      add\n      tag_34\n      swap1\n      tag_35\n      jump\t// in\n    tag_34:\n      mload(0x40)\n      dup1\n      swap2\n      sub\n      swap1\n      revert\n    tag_33:\n        /* \"remix_ide/PROJECT/ETHER_WALLET.sol\":1210:1224  owner_contract */\n      0x00\n      dup1\n      sload\n      swap1\n      0x0100\n      exp\n      swap1\n      div\n      0xffffffffffffffffffffffffffffffffffffffff\n      and\n        /* \"remix_ide/PROJECT/ETHER_WALLET.sol\":1198:1224  msg.sender==owner_contract */\n      0xffffffffffffffffffffffffffffffffffffffff\n      and\n        /* \"remix_ide/PROJECT/ETHER_WALLET.sol\":1198:1208  msg.sender */\n      caller\n        /* \"remix_ide/PROJECT/ETHER_WALLET.sol\":1198:1224  msg.sender==owner_contract */\n      0xffffffffffffffffffffffffffffffffffffffff\n      and\n      eq\n        /* \"remix_ide/PROJECT/ETHER_WALLET.sol\":1190:1237  require(msg.sender==owner_contract,\"not owner\") */\n      tag_36\n      jumpi\n      mload(0x40)\n      0x08c379a000000000000000000000000000000000000000000000000000000000\n      dup2\n      mstore\n      0x04\n      add\n      tag_37\n      swap1\n      tag_38\n      jump\t// in\n    tag_37:\n      mload(0x40)\n      dup1\n      swap2\n      sub\n      swap1\n      revert\n    tag_36:\n        /* \"remix_ide/PROJECT/ETHER_WALLET.sol\":1248:1252  _add */\n      dup2\n        /* \"remix_ide/PROJECT/ETHER_WALLET.sol\":1248:1261  _add.transfer */\n      0xffffffffffffffffffffffffffffffffffffffff\n      and\n        /* \"remix_ide/PROJECT/ETHER_WALLET.sol\":1248:1269  _add.transfer(amount) */\n      0x08fc\n        /* \"remix_ide/PROJECT/ETHER_WALLET.sol\":1262:1268  amount */\n      dup3\n        /* \"remix_ide/PROJECT/ETHER_WALLET.sol\":1248:1269  _add.transfer(amount) */\n      swap1\n      dup2\n      iszero\n      mul\n      swap1\n      mload(0x40)\n      0x00\n      mload(0x40)\n      dup1\n      dup4\n      sub\n      dup2\n      dup6\n      dup9\n      dup9\n      call\n      swap4\n      pop\n      pop\n      pop\n      pop\n      iszero\n      dup1\n      iszero\n      tag_40\n      jumpi\n      returndatasize\n      0x00\n      dup1\n      returndatacopy\n      revert(0x00, returndatasize)\n    tag_40:\n      pop\n        /* \"remix_ide/PROJECT/ETHER_WALLET.sol\":1287:1306  results.amount_sent */\n      0x02\n        /* \"remix_ide/PROJECT/ETHER_WALLET.sol\":1280:1286  result */\n      0x00\n      0x14\n        /* \"remix_ide/PROJECT/ETHER_WALLET.sol\":1280:1306  result=results.amount_sent */\n      0x0100\n      exp\n      dup2\n      sload\n      dup2\n      0xff\n      mul\n      not\n      and\n      swap1\n      dup4\n      0x02\n      dup2\n      gt\n      iszero\n      tag_41\n      jumpi\n      tag_42\n      tag_12\n      jump\t// in\n    tag_42:\n    tag_41:\n      mul\n      or\n      swap1\n      sstore\n      pop\n        /* \"remix_ide/PROJECT/ETHER_WALLET.sol\":1039:1323  function sendd(address payable _add,uint amount) external payable condition... */\n      pop\n      pop\n      jump\t// out\n        /* \"remix_ide/PROJECT/ETHER_WALLET.sol\":864:1033  function withraw(address _address, uint _amount) public ... */\n    tag_26:\n        /* \"remix_ide/PROJECT/ETHER_WALLET.sol\":942:968  withdraw(_address,_amount) */\n      0xf3fef3a3f44f9c277339b67d54f015748bd8d6b77a985b0ab6e71126b018c34a\n        /* \"remix_ide/PROJECT/ETHER_WALLET.sol\":951:959  _address */\n      dup3\n        /* \"remix_ide/PROJECT/ETHER_WALLET.sol\":960:967  _amount */\n      dup3\n        /* \"remix_ide/PROJECT/ETHER_WALLET.sol\":942:968  withdraw(_address,_amount) */\n      mload(0x40)\n      tag_44\n      swap3\n      swap2\n      swap1\n      tag_9\n      jump\t// in\n    tag_44:\n      mload(0x40)\n      dup1\n      swap2\n      sub\n      swap1\n      log1\n        /* \"remix_ide/PROJECT/ETHER_WALLET.sol\":986:1023  results.amount_successfully_withdrawl */\n      0x01\n        /* \"remix_ide/PROJECT/ETHER_WALLET.sol\":979:985  result */\n      0x00\n      0x14\n        /* \"remix_ide/PROJECT/ETHER_WALLET.sol\":979:1023  result=results.amount_successfully_withdrawl */\n      0x0100\n      exp\n      dup2\n      sload\n      dup2\n      0xff\n      mul\n      not\n      and\n      swap1\n      dup4\n      0x02\n      dup2\n      gt\n      iszero\n      tag_45\n      jumpi\n      tag_46\n      tag_12\n      jump\t// in\n    tag_46:\n    tag_45:\n      mul\n      or\n      swap1\n      sstore\n      pop\n        /* \"remix_ide/PROJECT/ETHER_WALLET.sol\":864:1033  function withraw(address _address, uint _amount) public ... */\n      pop\n      pop\n      jump\t// out\n        /* \"#utility.yul\":7:133   */\n    tag_47:\n        /* \"#utility.yul\":44:51   */\n      0x00\n        /* \"#utility.yul\":84:126   */\n      0xffffffffffffffffffffffffffffffffffffffff\n        /* \"#utility.yul\":77:82   */\n      dup3\n        /* \"#utility.yul\":73:127   */\n      and\n        /* \"#utility.yul\":62:127   */\n      swap1\n      pop\n        /* \"#utility.yul\":7:133   */\n      swap2\n      swap1\n      pop\n      jump\t// out\n        /* \"#utility.yul\":139:235   */\n    tag_48:\n        /* \"#utility.yul\":176:183   */\n      0x00\n        /* \"#utility.yul\":205:229   */\n      tag_72\n        /* \"#utility.yul\":223:228   */\n      dup3\n        /* \"#utility.yul\":205:229   */\n      tag_47\n      jump\t// in\n    tag_72:\n        /* \"#utility.yul\":194:229   */\n      swap1\n      pop\n        /* \"#utility.yul\":139:235   */\n      swap2\n      swap1\n      pop\n      jump\t// out\n        /* \"#utility.yul\":241:359   */\n    tag_49:\n        /* \"#utility.yul\":328:352   */\n      tag_74\n        /* \"#utility.yul\":346:351   */\n      dup2\n        /* \"#utility.yul\":328:352   */\n      tag_48\n      jump\t// in\n    tag_74:\n        /* \"#utility.yul\":323:326   */\n      dup3\n        /* \"#utility.yul\":316:353   */\n      mstore\n        /* \"#utility.yul\":241:359   */\n      pop\n      pop\n      jump\t// out\n        /* \"#utility.yul\":365:442   */\n    tag_50:\n        /* \"#utility.yul\":402:409   */\n      0x00\n        /* \"#utility.yul\":431:436   */\n      dup2\n        /* \"#utility.yul\":420:436   */\n      swap1\n      pop\n        /* \"#utility.yul\":365:442   */\n      swap2\n      swap1\n      pop\n      jump\t// out\n        /* \"#utility.yul\":448:566   */\n    tag_51:\n        /* \"#utility.yul\":535:559   */\n      tag_77\n        /* \"#utility.yul\":553:558   */\n      dup2\n        /* \"#utility.yul\":535:559   */\n      tag_50\n      jump\t// in\n    tag_77:\n        /* \"#utility.yul\":530:533   */\n      dup3\n        /* \"#utility.yul\":523:560   */\n      mstore\n        /* \"#utility.yul\":448:566   */\n      pop\n      pop\n      jump\t// out\n        /* \"#utility.yul\":572:904   */\n    tag_9:\n        /* \"#utility.yul\":693:697   */\n      0x00\n        /* \"#utility.yul\":731:733   */\n      0x40\n        /* \"#utility.yul\":720:729   */\n      dup3\n        /* \"#utility.yul\":716:734   */\n      add\n        /* \"#utility.yul\":708:734   */\n      swap1\n      pop\n        /* \"#utility.yul\":744:815   */\n      tag_79\n        /* \"#utility.yul\":812:813   */\n      0x00\n        /* \"#utility.yul\":801:810   */\n      dup4\n        /* \"#utility.yul\":797:814   */\n      add\n        /* \"#utility.yul\":788:794   */\n      dup6\n        /* \"#utility.yul\":744:815   */\n      tag_49\n      jump\t// in\n    tag_79:\n        /* \"#utility.yul\":825:897   */\n      tag_80\n        /* \"#utility.yul\":893:895   */\n      0x20\n        /* \"#utility.yul\":882:891   */\n      dup4\n        /* \"#utility.yul\":878:896   */\n      add\n        /* \"#utility.yul\":869:875   */\n      dup5\n        /* \"#utility.yul\":825:897   */\n      tag_51\n      jump\t// in\n    tag_80:\n        /* \"#utility.yul\":572:904   */\n      swap4\n      swap3\n      pop\n      pop\n      pop\n      jump\t// out\n        /* \"#utility.yul\":910:1090   */\n    tag_12:\n        /* \"#utility.yul\":958:1035   */\n      0x4e487b7100000000000000000000000000000000000000000000000000000000\n        /* \"#utility.yul\":955:956   */\n      0x00\n        /* \"#utility.yul\":948:1036   */\n      mstore\n        /* \"#utility.yul\":1055:1059   */\n      0x21\n        /* \"#utility.yul\":1052:1053   */\n      0x04\n        /* \"#utility.yul\":1045:1060   */\n      mstore\n        /* \"#utility.yul\":1079:1083   */\n      0x24\n        /* \"#utility.yul\":1076:1077   */\n      0x00\n        /* \"#utility.yul\":1069:1084   */\n      revert\n        /* \"#utility.yul\":1096:1318   */\n    tag_17:\n        /* \"#utility.yul\":1189:1193   */\n      0x00\n        /* \"#utility.yul\":1227:1229   */\n      0x20\n        /* \"#utility.yul\":1216:1225   */\n      dup3\n        /* \"#utility.yul\":1212:1230   */\n      add\n        /* \"#utility.yul\":1204:1230   */\n      swap1\n      pop\n        /* \"#utility.yul\":1240:1311   */\n      tag_83\n        /* \"#utility.yul\":1308:1309   */\n      0x00\n        /* \"#utility.yul\":1297:1306   */\n      dup4\n        /* \"#utility.yul\":1293:1310   */\n      add\n        /* \"#utility.yul\":1284:1290   */\n      dup5\n        /* \"#utility.yul\":1240:1311   */\n      tag_51\n      jump\t// in\n    tag_83:\n        /* \"#utility.yul\":1096:1318   */\n      swap3\n      swap2\n      pop\n      pop\n      jump\t// out\n        /* \"#utility.yul\":1405:1522   */\n    tag_53:\n        /* \"#utility.yul\":1514:1515   */\n      0x00\n        /* \"#utility.yul\":1511:1512   */\n      dup1\n        /* \"#utility.yul\":1504:1516   */\n      revert\n        /* \"#utility.yul\":1651:1755   */\n    tag_55:\n        /* \"#utility.yul\":1696:1703   */\n      0x00\n        /* \"#utility.yul\":1725:1749   */\n      tag_88\n        /* \"#utility.yul\":1743:1748   */\n      dup3\n        /* \"#utility.yul\":1725:1749   */\n      tag_47\n      jump\t// in\n    tag_88:\n        /* \"#utility.yul\":1714:1749   */\n      swap1\n      pop\n        /* \"#utility.yul\":1651:1755   */\n      swap2\n      swap1\n      pop\n      jump\t// out\n        /* \"#utility.yul\":1761:1899   */\n    tag_56:\n        /* \"#utility.yul\":1842:1874   */\n      tag_90\n        /* \"#utility.yul\":1868:1873   */\n      dup2\n        /* \"#utility.yul\":1842:1874   */\n      tag_55\n      jump\t// in\n    tag_90:\n        /* \"#utility.yul\":1835:1840   */\n      dup2\n        /* \"#utility.yul\":1832:1875   */\n      eq\n        /* \"#utility.yul\":1822:1893   */\n      tag_91\n      jumpi\n        /* \"#utility.yul\":1889:1890   */\n      0x00\n        /* \"#utility.yul\":1886:1887   */\n      dup1\n        /* \"#utility.yul\":1879:1891   */\n      revert\n        /* \"#utility.yul\":1822:1893   */\n    tag_91:\n        /* \"#utility.yul\":1761:1899   */\n      pop\n      jump\t// out\n        /* \"#utility.yul\":1905:2060   */\n    tag_57:\n        /* \"#utility.yul\":1959:1964   */\n      0x00\n        /* \"#utility.yul\":1997:2003   */\n      dup2\n        /* \"#utility.yul\":1984:2004   */\n      calldataload\n        /* \"#utility.yul\":1975:2004   */\n      swap1\n      pop\n        /* \"#utility.yul\":2013:2054   */\n      tag_93\n        /* \"#utility.yul\":2048:2053   */\n      dup2\n        /* \"#utility.yul\":2013:2054   */\n      tag_56\n      jump\t// in\n    tag_93:\n        /* \"#utility.yul\":1905:2060   */\n      swap3\n      swap2\n      pop\n      pop\n      jump\t// out\n        /* \"#utility.yul\":2066:2188   */\n    tag_58:\n        /* \"#utility.yul\":2139:2163   */\n      tag_95\n        /* \"#utility.yul\":2157:2162   */\n      dup2\n        /* \"#utility.yul\":2139:2163   */\n      tag_50\n      jump\t// in\n    tag_95:\n        /* \"#utility.yul\":2132:2137   */\n      dup2\n        /* \"#utility.yul\":2129:2164   */\n      eq\n        /* \"#utility.yul\":2119:2182   */\n      tag_96\n      jumpi\n        /* \"#utility.yul\":2178:2179   */\n      0x00\n        /* \"#utility.yul\":2175:2176   */\n      dup1\n        /* \"#utility.yul\":2168:2180   */\n      revert\n        /* \"#utility.yul\":2119:2182   */\n    tag_96:\n        /* \"#utility.yul\":2066:2188   */\n      pop\n      jump\t// out\n        /* \"#utility.yul\":2194:2333   */\n    tag_59:\n        /* \"#utility.yul\":2240:2245   */\n      0x00\n        /* \"#utility.yul\":2278:2284   */\n      dup2\n        /* \"#utility.yul\":2265:2285   */\n      calldataload\n        /* \"#utility.yul\":2256:2285   */\n      swap1\n      pop\n        /* \"#utility.yul\":2294:2327   */\n      tag_98\n        /* \"#utility.yul\":2321:2326   */\n      dup2\n        /* \"#utility.yul\":2294:2327   */\n      tag_58\n      jump\t// in\n    tag_98:\n        /* \"#utility.yul\":2194:2333   */\n      swap3\n      swap2\n      pop\n      pop\n      jump\t// out\n        /* \"#utility.yul\":2339:2829   */\n    tag_20:\n        /* \"#utility.yul\":2415:2421   */\n      0x00\n        /* \"#utility.yul\":2423:2429   */\n      dup1\n        /* \"#utility.yul\":2472:2474   */\n      0x40\n        /* \"#utility.yul\":2460:2469   */\n      dup4\n        /* \"#utility.yul\":2451:2458   */\n      dup6\n        /* \"#utility.yul\":2447:2470   */\n      sub\n        /* \"#utility.yul\":2443:2475   */\n      slt\n        /* \"#utility.yul\":2440:2559   */\n      iszero\n      tag_100\n      jumpi\n        /* \"#utility.yul\":2478:2557   */\n      tag_101\n      tag_53\n      jump\t// in\n    tag_101:\n        /* \"#utility.yul\":2440:2559   */\n    tag_100:\n        /* \"#utility.yul\":2598:2599   */\n      0x00\n        /* \"#utility.yul\":2623:2684   */\n      tag_102\n        /* \"#utility.yul\":2676:2683   */\n      dup6\n        /* \"#utility.yul\":2667:2673   */\n      dup3\n        /* \"#utility.yul\":2656:2665   */\n      dup7\n        /* \"#utility.yul\":2652:2674   */\n      add\n        /* \"#utility.yul\":2623:2684   */\n      tag_57\n      jump\t// in\n    tag_102:\n        /* \"#utility.yul\":2613:2684   */\n      swap3\n      pop\n        /* \"#utility.yul\":2569:2694   */\n      pop\n        /* \"#utility.yul\":2733:2735   */\n      0x20\n        /* \"#utility.yul\":2759:2812   */\n      tag_103\n        /* \"#utility.yul\":2804:2811   */\n      dup6\n        /* \"#utility.yul\":2795:2801   */\n      dup3\n        /* \"#utility.yul\":2784:2793   */\n      dup7\n        /* \"#utility.yul\":2780:2802   */\n      add\n        /* \"#utility.yul\":2759:2812   */\n      tag_59\n      jump\t// in\n    tag_103:\n        /* \"#utility.yul\":2749:2812   */\n      swap2\n      pop\n        /* \"#utility.yul\":2704:2822   */\n      pop\n        /* \"#utility.yul\":2339:2829   */\n      swap3\n      pop\n      swap3\n      swap1\n      pop\n      jump\t// out\n        /* \"#utility.yul\":2835:2957   */\n    tag_60:\n        /* \"#utility.yul\":2908:2932   */\n      tag_105\n        /* \"#utility.yul\":2926:2931   */\n      dup2\n        /* \"#utility.yul\":2908:2932   */\n      tag_48\n      jump\t// in\n    tag_105:\n        /* \"#utility.yul\":2901:2906   */\n      dup2\n        /* \"#utility.yul\":2898:2933   */\n      eq\n        /* \"#utility.yul\":2888:2951   */\n      tag_106\n      jumpi\n        /* \"#utility.yul\":2947:2948   */\n      0x00\n        /* \"#utility.yul\":2944:2945   */\n      dup1\n        /* \"#utility.yul\":2937:2949   */\n      revert\n        /* \"#utility.yul\":2888:2951   */\n    tag_106:\n        /* \"#utility.yul\":2835:2957   */\n      pop\n      jump\t// out\n        /* \"#utility.yul\":2963:3102   */\n    tag_61:\n        /* \"#utility.yul\":3009:3014   */\n      0x00\n        /* \"#utility.yul\":3047:3053   */\n      dup2\n        /* \"#utility.yul\":3034:3054   */\n      calldataload\n        /* \"#utility.yul\":3025:3054   */\n      swap1\n      pop\n        /* \"#utility.yul\":3063:3096   */\n      tag_108\n        /* \"#utility.yul\":3090:3095   */\n      dup2\n        /* \"#utility.yul\":3063:3096   */\n      tag_60\n      jump\t// in\n    tag_108:\n        /* \"#utility.yul\":2963:3102   */\n      swap3\n      swap2\n      pop\n      pop\n      jump\t// out\n        /* \"#utility.yul\":3108:3582   */\n    tag_25:\n        /* \"#utility.yul\":3176:3182   */\n      0x00\n        /* \"#utility.yul\":3184:3190   */\n      dup1\n        /* \"#utility.yul\":3233:3235   */\n      0x40\n        /* \"#utility.yul\":3221:3230   */\n      dup4\n        /* \"#utility.yul\":3212:3219   */\n      dup6\n        /* \"#utility.yul\":3208:3231   */\n      sub\n        /* \"#utility.yul\":3204:3236   */\n      slt\n        /* \"#utility.yul\":3201:3320   */\n      iszero\n      tag_110\n      jumpi\n        /* \"#utility.yul\":3239:3318   */\n      tag_111\n      tag_53\n      jump\t// in\n    tag_111:\n        /* \"#utility.yul\":3201:3320   */\n    tag_110:\n        /* \"#utility.yul\":3359:3360   */\n      0x00\n        /* \"#utility.yul\":3384:3437   */\n      tag_112\n        /* \"#utility.yul\":3429:3436   */\n      dup6\n        /* \"#utility.yul\":3420:3426   */\n      dup3\n        /* \"#utility.yul\":3409:3418   */\n      dup7\n        /* \"#utility.yul\":3405:3427   */\n      add\n        /* \"#utility.yul\":3384:3437   */\n      tag_61\n      jump\t// in\n    tag_112:\n        /* \"#utility.yul\":3374:3437   */\n      swap3\n      pop\n        /* \"#utility.yul\":3330:3447   */\n      pop\n        /* \"#utility.yul\":3486:3488   */\n      0x20\n        /* \"#utility.yul\":3512:3565   */\n      tag_113\n        /* \"#utility.yul\":3557:3564   */\n      dup6\n        /* \"#utility.yul\":3548:3554   */\n      dup3\n        /* \"#utility.yul\":3537:3546   */\n      dup7\n        /* \"#utility.yul\":3533:3555   */\n      add\n        /* \"#utility.yul\":3512:3565   */\n      tag_59\n      jump\t// in\n    tag_113:\n        /* \"#utility.yul\":3502:3565   */\n      swap2\n      pop\n        /* \"#utility.yul\":3457:3575   */\n      pop\n        /* \"#utility.yul\":3108:3582   */\n      swap3\n      pop\n      swap3\n      swap1\n      pop\n      jump\t// out\n        /* \"#utility.yul\":3588:3757   */\n    tag_62:\n        /* \"#utility.yul\":3672:3683   */\n      0x00\n        /* \"#utility.yul\":3706:3712   */\n      dup3\n        /* \"#utility.yul\":3701:3704   */\n      dup3\n        /* \"#utility.yul\":3694:3713   */\n      mstore\n        /* \"#utility.yul\":3746:3750   */\n      0x20\n        /* \"#utility.yul\":3741:3744   */\n      dup3\n        /* \"#utility.yul\":3737:3751   */\n      add\n        /* \"#utility.yul\":3722:3751   */\n      swap1\n      pop\n        /* \"#utility.yul\":3588:3757   */\n      swap3\n      swap2\n      pop\n      pop\n      jump\t// out\n        /* \"#utility.yul\":3763:3937   */\n    tag_63:\n        /* \"#utility.yul\":3903:3929   */\n      0x7761697420756e74696c207468652074696d65206f7665720000000000000000\n        /* \"#utility.yul\":3899:3900   */\n      0x00\n        /* \"#utility.yul\":3891:3897   */\n      dup3\n        /* \"#utility.yul\":3887:3901   */\n      add\n        /* \"#utility.yul\":3880:3930   */\n      mstore\n        /* \"#utility.yul\":3763:3937   */\n      pop\n      jump\t// out\n        /* \"#utility.yul\":3943:4309   */\n    tag_64:\n        /* \"#utility.yul\":4085:4088   */\n      0x00\n        /* \"#utility.yul\":4106:4173   */\n      tag_117\n        /* \"#utility.yul\":4170:4172   */\n      0x18\n        /* \"#utility.yul\":4165:4168   */\n      dup4\n        /* \"#utility.yul\":4106:4173   */\n      tag_62\n      jump\t// in\n    tag_117:\n        /* \"#utility.yul\":4099:4173   */\n      swap2\n      pop\n        /* \"#utility.yul\":4182:4275   */\n      tag_118\n        /* \"#utility.yul\":4271:4274   */\n      dup3\n        /* \"#utility.yul\":4182:4275   */\n      tag_63\n      jump\t// in\n    tag_118:\n        /* \"#utility.yul\":4300:4302   */\n      0x20\n        /* \"#utility.yul\":4295:4298   */\n      dup3\n        /* \"#utility.yul\":4291:4303   */\n      add\n        /* \"#utility.yul\":4284:4303   */\n      swap1\n      pop\n        /* \"#utility.yul\":3943:4309   */\n      swap2\n      swap1\n      pop\n      jump\t// out\n        /* \"#utility.yul\":4315:4734   */\n    tag_31:\n        /* \"#utility.yul\":4481:4485   */\n      0x00\n        /* \"#utility.yul\":4519:4521   */\n      0x20\n        /* \"#utility.yul\":4508:4517   */\n      dup3\n        /* \"#utility.yul\":4504:4522   */\n      add\n        /* \"#utility.yul\":4496:4522   */\n      swap1\n      pop\n        /* \"#utility.yul\":4568:4577   */\n      dup2\n        /* \"#utility.yul\":4562:4566   */\n      dup2\n        /* \"#utility.yul\":4558:4578   */\n      sub\n        /* \"#utility.yul\":4554:4555   */\n      0x00\n        /* \"#utility.yul\":4543:4552   */\n      dup4\n        /* \"#utility.yul\":4539:4556   */\n      add\n        /* \"#utility.yul\":4532:4579   */\n      mstore\n        /* \"#utility.yul\":4596:4727   */\n      tag_120\n        /* \"#utility.yul\":4722:4726   */\n      dup2\n        /* \"#utility.yul\":4596:4727   */\n      tag_64\n      jump\t// in\n    tag_120:\n        /* \"#utility.yul\":4588:4727   */\n      swap1\n      pop\n        /* \"#utility.yul\":4315:4734   */\n      swap2\n      swap1\n      pop\n      jump\t// out\n        /* \"#utility.yul\":4740:4900   */\n    tag_65:\n        /* \"#utility.yul\":4880:4892   */\n      0x6e6f2062616c616e636500000000000000000000000000000000000000000000\n        /* \"#utility.yul\":4876:4877   */\n      0x00\n        /* \"#utility.yul\":4868:4874   */\n      dup3\n        /* \"#utility.yul\":4864:4878   */\n      add\n        /* \"#utility.yul\":4857:4893   */\n      mstore\n        /* \"#utility.yul\":4740:4900   */\n      pop\n      jump\t// out\n        /* \"#utility.yul\":4906:5272   */\n    tag_66:\n        /* \"#utility.yul\":5048:5051   */\n      0x00\n        /* \"#utility.yul\":5069:5136   */\n      tag_123\n        /* \"#utility.yul\":5133:5135   */\n      0x0a\n        /* \"#utility.yul\":5128:5131   */\n      dup4\n        /* \"#utility.yul\":5069:5136   */\n      tag_62\n      jump\t// in\n    tag_123:\n        /* \"#utility.yul\":5062:5136   */\n      swap2\n      pop\n        /* \"#utility.yul\":5145:5238   */\n      tag_124\n        /* \"#utility.yul\":5234:5237   */\n      dup3\n        /* \"#utility.yul\":5145:5238   */\n      tag_65\n      jump\t// in\n    tag_124:\n        /* \"#utility.yul\":5263:5265   */\n      0x20\n        /* \"#utility.yul\":5258:5261   */\n      dup3\n        /* \"#utility.yul\":5254:5266   */\n      add\n        /* \"#utility.yul\":5247:5266   */\n      swap1\n      pop\n        /* \"#utility.yul\":4906:5272   */\n      swap2\n      swap1\n      pop\n      jump\t// out\n        /* \"#utility.yul\":5278:5697   */\n    tag_35:\n        /* \"#utility.yul\":5444:5448   */\n      0x00\n        /* \"#utility.yul\":5482:5484   */\n      0x20\n        /* \"#utility.yul\":5471:5480   */\n      dup3\n        /* \"#utility.yul\":5467:5485   */\n      add\n        /* \"#utility.yul\":5459:5485   */\n      swap1\n      pop\n        /* \"#utility.yul\":5531:5540   */\n      dup2\n        /* \"#utility.yul\":5525:5529   */\n      dup2\n        /* \"#utility.yul\":5521:5541   */\n      sub\n        /* \"#utility.yul\":5517:5518   */\n      0x00\n        /* \"#utility.yul\":5506:5515   */\n      dup4\n        /* \"#utility.yul\":5502:5519   */\n      add\n        /* \"#utility.yul\":5495:5542   */\n      mstore\n        /* \"#utility.yul\":5559:5690   */\n      tag_126\n        /* \"#utility.yul\":5685:5689   */\n      dup2\n        /* \"#utility.yul\":5559:5690   */\n      tag_66\n      jump\t// in\n    tag_126:\n        /* \"#utility.yul\":5551:5690   */\n      swap1\n      pop\n        /* \"#utility.yul\":5278:5697   */\n      swap2\n      swap1\n      pop\n      jump\t// out\n        /* \"#utility.yul\":5703:5862   */\n    tag_67:\n        /* \"#utility.yul\":5843:5854   */\n      0x6e6f74206f776e65720000000000000000000000000000000000000000000000\n        /* \"#utility.yul\":5839:5840   */\n      0x00\n        /* \"#utility.yul\":5831:5837   */\n      dup3\n        /* \"#utility.yul\":5827:5841   */\n      add\n        /* \"#utility.yul\":5820:5855   */\n      mstore\n        /* \"#utility.yul\":5703:5862   */\n      pop\n      jump\t// out\n        /* \"#utility.yul\":5868:6233   */\n    tag_68:\n        /* \"#utility.yul\":6010:6013   */\n      0x00\n        /* \"#utility.yul\":6031:6097   */\n      tag_129\n        /* \"#utility.yul\":6095:6096   */\n      0x09\n        /* \"#utility.yul\":6090:6093   */\n      dup4\n        /* \"#utility.yul\":6031:6097   */\n      tag_62\n      jump\t// in\n    tag_129:\n        /* \"#utility.yul\":6024:6097   */\n      swap2\n      pop\n        /* \"#utility.yul\":6106:6199   */\n      tag_130\n        /* \"#utility.yul\":6195:6198   */\n      dup3\n        /* \"#utility.yul\":6106:6199   */\n      tag_67\n      jump\t// in\n    tag_130:\n        /* \"#utility.yul\":6224:6226   */\n      0x20\n        /* \"#utility.yul\":6219:6222   */\n      dup3\n        /* \"#utility.yul\":6215:6227   */\n      add\n        /* \"#utility.yul\":6208:6227   */\n      swap1\n      pop\n        /* \"#utility.yul\":5868:6233   */\n      swap2\n      swap1\n      pop\n      jump\t// out\n        /* \"#utility.yul\":6239:6658   */\n    tag_38:\n        /* \"#utility.yul\":6405:6409   */\n      0x00\n        /* \"#utility.yul\":6443:6445   */\n      0x20\n        /* \"#utility.yul\":6432:6441   */\n      dup3\n        /* \"#utility.yul\":6428:6446   */\n      add\n        /* \"#utility.yul\":6420:6446   */\n      swap1\n      pop\n        /* \"#utility.yul\":6492:6501   */\n      dup2\n        /* \"#utility.yul\":6486:6490   */\n      dup2\n        /* \"#utility.yul\":6482:6502   */\n      sub\n        /* \"#utility.yul\":6478:6479   */\n      0x00\n        /* \"#utility.yul\":6467:6476   */\n      dup4\n        /* \"#utility.yul\":6463:6480   */\n      add\n        /* \"#utility.yul\":6456:6503   */\n      mstore\n        /* \"#utility.yul\":6520:6651   */\n      tag_132\n        /* \"#utility.yul\":6646:6650   */\n      dup2\n        /* \"#utility.yul\":6520:6651   */\n      tag_68\n      jump\t// in\n    tag_132:\n        /* \"#utility.yul\":6512:6651   */\n      swap1\n      pop\n        /* \"#utility.yul\":6239:6658   */\n      swap2\n      swap1\n      pop\n      jump\t// out\n\n    auxdata: 0xa2646970667358221220315a85d874853b2fba105c7cbdc1d177c03fc548bb1264222f9dfbbc23338db164736f6c63430008110033\n}\n",
				"bytecode": {
					"linkReferences": {},
					"object": "60e0604052336000806101000a81548173ffffffffffffffffffffffffffffffffffffffff021916908373ffffffffffffffffffffffffffffffffffffffff1602179055504260808181525050603c60a0818152505060a05160805161006591906100aa565b60c081815250506100de565b6000819050919050565b7f4e487b7100000000000000000000000000000000000000000000000000000000600052601160045260246000fd5b60006100b582610071565b91506100c083610071565b92508282019050808211156100d8576100d761007b565b5b92915050565b60805160a05160c0516106a36101076000396000610120015260005050600050506106a36000f3fe6080604052600436106100385760003560e01c8063b69ef8a8146100a6578063d7781801146100d1578063e1af091e146100ed576100a1565b366100a1577f47e7ef24b3022e382e65b1298581281f0ae273ac4f76464efcf5b06769264f2f333460405161006e92919061038a565b60405180910390a160008060146101000a81548160ff0219169083600281111561009b5761009a6103b3565b5b02179055005b600080fd5b3480156100b257600080fd5b506100bb610116565b6040516100c891906103e2565b60405180910390f35b6100eb60048036038101906100e6919061046c565b61011e565b005b3480156100f957600080fd5b50610114600480360381019061010f91906104d8565b6102c8565b005b600047905090565b7f00000000000000000000000000000000000000000000000000000000000000004211610180576040517f08c379a000000000000000000000000000000000000000000000000000000000815260040161017790610575565b60405180910390fd5b60014710156101c4576040517f08c379a00000000000000000000000000000000000000000000000000000000081526004016101bb906105e1565b60405180910390fd5b60008054906101000a900473ffffffffffffffffffffffffffffffffffffffff1673ffffffffffffffffffffffffffffffffffffffff163373ffffffffffffffffffffffffffffffffffffffff1614610252576040517f08c379a00000000000000000000000000000000000000000000000000000000081526004016102499061064d565b60405180910390fd5b8173ffffffffffffffffffffffffffffffffffffffff166108fc829081150290604051600060405180830381858888f19350505050158015610298573d6000803e3d6000fd5b506002600060146101000a81548160ff021916908360028111156102bf576102be6103b3565b5b02179055505050565b7ff3fef3a3f44f9c277339b67d54f015748bd8d6b77a985b0ab6e71126b018c34a82826040516102f992919061038a565b60405180910390a16001600060146101000a81548160ff02191690836002811115610327576103266103b3565b5b02179055505050565b600073ffffffffffffffffffffffffffffffffffffffff82169050919050565b600061035b82610330565b9050919050565b61036b81610350565b82525050565b6000819050919050565b61038481610371565b82525050565b600060408201905061039f6000830185610362565b6103ac602083018461037b565b9392505050565b7f4e487b7100000000000000000000000000000000000000000000000000000000600052602160045260246000fd5b60006020820190506103f7600083018461037b565b92915050565b600080fd5b600061040d82610330565b9050919050565b61041d81610402565b811461042857600080fd5b50565b60008135905061043a81610414565b92915050565b61044981610371565b811461045457600080fd5b50565b60008135905061046681610440565b92915050565b60008060408385031215610483576104826103fd565b5b60006104918582860161042b565b92505060206104a285828601610457565b9150509250929050565b6104b581610350565b81146104c057600080fd5b50565b6000813590506104d2816104ac565b92915050565b600080604083850312156104ef576104ee6103fd565b5b60006104fd858286016104c3565b925050602061050e85828601610457565b9150509250929050565b600082825260208201905092915050565b7f7761697420756e74696c207468652074696d65206f7665720000000000000000600082015250565b600061055f601883610518565b915061056a82610529565b602082019050919050565b6000602082019050818103600083015261058e81610552565b9050919050565b7f6e6f2062616c616e636500000000000000000000000000000000000000000000600082015250565b60006105cb600a83610518565b91506105d682610595565b602082019050919050565b600060208201905081810360008301526105fa816105be565b9050919050565b7f6e6f74206f776e65720000000000000000000000000000000000000000000000600082015250565b6000610637600983610518565b915061064282610601565b602082019050919050565b600060208201905081810360008301526106668161062a565b905091905056fea2646970667358221220315a85d874853b2fba105c7cbdc1d177c03fc548bb1264222f9dfbbc23338db164736f6c63430008110033",
					"opcodes": "PUSH1 0xE0 PUSH1 0x40 MSTORE CALLER PUSH1 0x0 DUP1 PUSH2 0x100 EXP DUP2 SLOAD DUP2 PUSH20 0xFFFFFFFFFFFFFFFFFFFFFFFFFFFFFFFFFFFFFFFF MUL NOT AND SWAP1 DUP4 PUSH20 0xFFFFFFFFFFFFFFFFFFFFFFFFFFFFFFFFFFFFFFFF AND MUL OR SWAP1 SSTORE POP TIMESTAMP PUSH1 0x80 DUP2 DUP2 MSTORE POP POP PUSH1 0x3C PUSH1 0xA0 DUP2 DUP2 MSTORE POP POP PUSH1 0xA0 MLOAD PUSH1 0x80 MLOAD PUSH2 0x65 SWAP2 SWAP1 PUSH2 0xAA JUMP JUMPDEST PUSH1 0xC0 DUP2 DUP2 MSTORE POP POP PUSH2 0xDE JUMP JUMPDEST PUSH1 0x0 DUP2 SWAP1 POP SWAP2 SWAP1 POP JUMP JUMPDEST PUSH32 0x4E487B7100000000000000000000000000000000000000000000000000000000 PUSH1 0x0 MSTORE PUSH1 0x11 PUSH1 0x4 MSTORE PUSH1 0x24 PUSH1 0x0 REVERT JUMPDEST PUSH1 0x0 PUSH2 0xB5 DUP3 PUSH2 0x71 JUMP JUMPDEST SWAP2 POP PUSH2 0xC0 DUP4 PUSH2 0x71 JUMP JUMPDEST SWAP3 POP DUP3 DUP3 ADD SWAP1 POP DUP1 DUP3 GT ISZERO PUSH2 0xD8 JUMPI PUSH2 0xD7 PUSH2 0x7B JUMP JUMPDEST JUMPDEST SWAP3 SWAP2 POP POP JUMP JUMPDEST PUSH1 0x80 MLOAD PUSH1 0xA0 MLOAD PUSH1 0xC0 MLOAD PUSH2 0x6A3 PUSH2 0x107 PUSH1 0x0 CODECOPY PUSH1 0x0 PUSH2 0x120 ADD MSTORE PUSH1 0x0 POP POP PUSH1 0x0 POP POP PUSH2 0x6A3 PUSH1 0x0 RETURN INVALID PUSH1 0x80 PUSH1 0x40 MSTORE PUSH1 0x4 CALLDATASIZE LT PUSH2 0x38 JUMPI PUSH1 0x0 CALLDATALOAD PUSH1 0xE0 SHR DUP1 PUSH4 0xB69EF8A8 EQ PUSH2 0xA6 JUMPI DUP1 PUSH4 0xD7781801 EQ PUSH2 0xD1 JUMPI DUP1 PUSH4 0xE1AF091E EQ PUSH2 0xED JUMPI PUSH2 0xA1 JUMP JUMPDEST CALLDATASIZE PUSH2 0xA1 JUMPI PUSH32 0x47E7EF24B3022E382E65B1298581281F0AE273AC4F76464EFCF5B06769264F2F CALLER CALLVALUE PUSH1 0x40 MLOAD PUSH2 0x6E SWAP3 SWAP2 SWAP1 PUSH2 0x38A JUMP JUMPDEST PUSH1 0x40 MLOAD DUP1 SWAP2 SUB SWAP1 LOG1 PUSH1 0x0 DUP1 PUSH1 0x14 PUSH2 0x100 EXP DUP2 SLOAD DUP2 PUSH1 0xFF MUL NOT AND SWAP1 DUP4 PUSH1 0x2 DUP2 GT ISZERO PUSH2 0x9B JUMPI PUSH2 0x9A PUSH2 0x3B3 JUMP JUMPDEST JUMPDEST MUL OR SWAP1 SSTORE STOP JUMPDEST PUSH1 0x0 DUP1 REVERT JUMPDEST CALLVALUE DUP1 ISZERO PUSH2 0xB2 JUMPI PUSH1 0x0 DUP1 REVERT JUMPDEST POP PUSH2 0xBB PUSH2 0x116 JUMP JUMPDEST PUSH1 0x40 MLOAD PUSH2 0xC8 SWAP2 SWAP1 PUSH2 0x3E2 JUMP JUMPDEST PUSH1 0x40 MLOAD DUP1 SWAP2 SUB SWAP1 RETURN JUMPDEST PUSH2 0xEB PUSH1 0x4 DUP1 CALLDATASIZE SUB DUP2 ADD SWAP1 PUSH2 0xE6 SWAP2 SWAP1 PUSH2 0x46C JUMP JUMPDEST PUSH2 0x11E JUMP JUMPDEST STOP JUMPDEST CALLVALUE DUP1 ISZERO PUSH2 0xF9 JUMPI PUSH1 0x0 DUP1 REVERT JUMPDEST POP PUSH2 0x114 PUSH1 0x4 DUP1 CALLDATASIZE SUB DUP2 ADD SWAP1 PUSH2 0x10F SWAP2 SWAP1 PUSH2 0x4D8 JUMP JUMPDEST PUSH2 0x2C8 JUMP JUMPDEST STOP JUMPDEST PUSH1 0x0 SELFBALANCE SWAP1 POP SWAP1 JUMP JUMPDEST PUSH32 0x0 TIMESTAMP GT PUSH2 0x180 JUMPI PUSH1 0x40 MLOAD PUSH32 0x8C379A000000000000000000000000000000000000000000000000000000000 DUP2 MSTORE PUSH1 0x4 ADD PUSH2 0x177 SWAP1 PUSH2 0x575 JUMP JUMPDEST PUSH1 0x40 MLOAD DUP1 SWAP2 SUB SWAP1 REVERT JUMPDEST PUSH1 0x1 SELFBALANCE LT ISZERO PUSH2 0x1C4 JUMPI PUSH1 0x40 MLOAD PUSH32 0x8C379A000000000000000000000000000000000000000000000000000000000 DUP2 MSTORE PUSH1 0x4 ADD PUSH2 0x1BB SWAP1 PUSH2 0x5E1 JUMP JUMPDEST PUSH1 0x40 MLOAD DUP1 SWAP2 SUB SWAP1 REVERT JUMPDEST PUSH1 0x0 DUP1 SLOAD SWAP1 PUSH2 0x100 EXP SWAP1 DIV PUSH20 0xFFFFFFFFFFFFFFFFFFFFFFFFFFFFFFFFFFFFFFFF AND PUSH20 0xFFFFFFFFFFFFFFFFFFFFFFFFFFFFFFFFFFFFFFFF AND CALLER PUSH20 0xFFFFFFFFFFFFFFFFFFFFFFFFFFFFFFFFFFFFFFFF AND EQ PUSH2 0x252 JUMPI PUSH1 0x40 MLOAD PUSH32 0x8C379A000000000000000000000000000000000000000000000000000000000 DUP2 MSTORE PUSH1 0x4 ADD PUSH2 0x249 SWAP1 PUSH2 0x64D JUMP JUMPDEST PUSH1 0x40 MLOAD DUP1 SWAP2 SUB SWAP1 REVERT JUMPDEST DUP2 PUSH20 0xFFFFFFFFFFFFFFFFFFFFFFFFFFFFFFFFFFFFFFFF AND PUSH2 0x8FC DUP3 SWAP1 DUP2 ISZERO MUL SWAP1 PUSH1 0x40 MLOAD PUSH1 0x0 PUSH1 0x40 MLOAD DUP1 DUP4 SUB DUP2 DUP6 DUP9 DUP9 CALL SWAP4 POP POP POP POP ISZERO DUP1 ISZERO PUSH2 0x298 JUMPI RETURNDATASIZE PUSH1 0x0 DUP1 RETURNDATACOPY RETURNDATASIZE PUSH1 0x0 REVERT JUMPDEST POP PUSH1 0x2 PUSH1 0x0 PUSH1 0x14 PUSH2 0x100 EXP DUP2 SLOAD DUP2 PUSH1 0xFF MUL NOT AND SWAP1 DUP4 PUSH1 0x2 DUP2 GT ISZERO PUSH2 0x2BF JUMPI PUSH2 0x2BE PUSH2 0x3B3 JUMP JUMPDEST JUMPDEST MUL OR SWAP1 SSTORE POP POP POP JUMP JUMPDEST PUSH32 0xF3FEF3A3F44F9C277339B67D54F015748BD8D6B77A985B0AB6E71126B018C34A DUP3 DUP3 PUSH1 0x40 MLOAD PUSH2 0x2F9 SWAP3 SWAP2 SWAP1 PUSH2 0x38A JUMP JUMPDEST PUSH1 0x40 MLOAD DUP1 SWAP2 SUB SWAP1 LOG1 PUSH1 0x1 PUSH1 0x0 PUSH1 0x14 PUSH2 0x100 EXP DUP2 SLOAD DUP2 PUSH1 0xFF MUL NOT AND SWAP1 DUP4 PUSH1 0x2 DUP2 GT ISZERO PUSH2 0x327 JUMPI PUSH2 0x326 PUSH2 0x3B3 JUMP JUMPDEST JUMPDEST MUL OR SWAP1 SSTORE POP POP POP JUMP JUMPDEST PUSH1 0x0 PUSH20 0xFFFFFFFFFFFFFFFFFFFFFFFFFFFFFFFFFFFFFFFF DUP3 AND SWAP1 POP SWAP2 SWAP1 POP JUMP JUMPDEST PUSH1 0x0 PUSH2 0x35B DUP3 PUSH2 0x330 JUMP JUMPDEST SWAP1 POP SWAP2 SWAP1 POP JUMP JUMPDEST PUSH2 0x36B DUP2 PUSH2 0x350 JUMP JUMPDEST DUP3 MSTORE POP POP JUMP JUMPDEST PUSH1 0x0 DUP2 SWAP1 POP SWAP2 SWAP1 POP JUMP JUMPDEST PUSH2 0x384 DUP2 PUSH2 0x371 JUMP JUMPDEST DUP3 MSTORE POP POP JUMP JUMPDEST PUSH1 0x0 PUSH1 0x40 DUP3 ADD SWAP1 POP PUSH2 0x39F PUSH1 0x0 DUP4 ADD DUP6 PUSH2 0x362 JUMP JUMPDEST PUSH2 0x3AC PUSH1 0x20 DUP4 ADD DUP5 PUSH2 0x37B JUMP JUMPDEST SWAP4 SWAP3 POP POP POP JUMP JUMPDEST PUSH32 0x4E487B7100000000000000000000000000000000000000000000000000000000 PUSH1 0x0 MSTORE PUSH1 0x21 PUSH1 0x4 MSTORE PUSH1 0x24 PUSH1 0x0 REVERT JUMPDEST PUSH1 0x0 PUSH1 0x20 DUP3 ADD SWAP1 POP PUSH2 0x3F7 PUSH1 0x0 DUP4 ADD DUP5 PUSH2 0x37B JUMP JUMPDEST SWAP3 SWAP2 POP POP JUMP JUMPDEST PUSH1 0x0 DUP1 REVERT JUMPDEST PUSH1 0x0 PUSH2 0x40D DUP3 PUSH2 0x330 JUMP JUMPDEST SWAP1 POP SWAP2 SWAP1 POP JUMP JUMPDEST PUSH2 0x41D DUP2 PUSH2 0x402 JUMP JUMPDEST DUP2 EQ PUSH2 0x428 JUMPI PUSH1 0x0 DUP1 REVERT JUMPDEST POP JUMP JUMPDEST PUSH1 0x0 DUP2 CALLDATALOAD SWAP1 POP PUSH2 0x43A DUP2 PUSH2 0x414 JUMP JUMPDEST SWAP3 SWAP2 POP POP JUMP JUMPDEST PUSH2 0x449 DUP2 PUSH2 0x371 JUMP JUMPDEST DUP2 EQ PUSH2 0x454 JUMPI PUSH1 0x0 DUP1 REVERT JUMPDEST POP JUMP JUMPDEST PUSH1 0x0 DUP2 CALLDATALOAD SWAP1 POP PUSH2 0x466 DUP2 PUSH2 0x440 JUMP JUMPDEST SWAP3 SWAP2 POP POP JUMP JUMPDEST PUSH1 0x0 DUP1 PUSH1 0x40 DUP4 DUP6 SUB SLT ISZERO PUSH2 0x483 JUMPI PUSH2 0x482 PUSH2 0x3FD JUMP JUMPDEST JUMPDEST PUSH1 0x0 PUSH2 0x491 DUP6 DUP3 DUP7 ADD PUSH2 0x42B JUMP JUMPDEST SWAP3 POP POP PUSH1 0x20 PUSH2 0x4A2 DUP6 DUP3 DUP7 ADD PUSH2 0x457 JUMP JUMPDEST SWAP2 POP POP SWAP3 POP SWAP3 SWAP1 POP JUMP JUMPDEST PUSH2 0x4B5 DUP2 PUSH2 0x350 JUMP JUMPDEST DUP2 EQ PUSH2 0x4C0 JUMPI PUSH1 0x0 DUP1 REVERT JUMPDEST POP JUMP JUMPDEST PUSH1 0x0 DUP2 CALLDATALOAD SWAP1 POP PUSH2 0x4D2 DUP2 PUSH2 0x4AC JUMP JUMPDEST SWAP3 SWAP2 POP POP JUMP JUMPDEST PUSH1 0x0 DUP1 PUSH1 0x40 DUP4 DUP6 SUB SLT ISZERO PUSH2 0x4EF JUMPI PUSH2 0x4EE PUSH2 0x3FD JUMP JUMPDEST JUMPDEST PUSH1 0x0 PUSH2 0x4FD DUP6 DUP3 DUP7 ADD PUSH2 0x4C3 JUMP JUMPDEST SWAP3 POP POP PUSH1 0x20 PUSH2 0x50E DUP6 DUP3 DUP7 ADD PUSH2 0x457 JUMP JUMPDEST SWAP2 POP POP SWAP3 POP SWAP3 SWAP1 POP JUMP JUMPDEST PUSH1 0x0 DUP3 DUP3 MSTORE PUSH1 0x20 DUP3 ADD SWAP1 POP SWAP3 SWAP2 POP POP JUMP JUMPDEST PUSH32 0x7761697420756E74696C207468652074696D65206F7665720000000000000000 PUSH1 0x0 DUP3 ADD MSTORE POP JUMP JUMPDEST PUSH1 0x0 PUSH2 0x55F PUSH1 0x18 DUP4 PUSH2 0x518 JUMP JUMPDEST SWAP2 POP PUSH2 0x56A DUP3 PUSH2 0x529 JUMP JUMPDEST PUSH1 0x20 DUP3 ADD SWAP1 POP SWAP2 SWAP1 POP JUMP JUMPDEST PUSH1 0x0 PUSH1 0x20 DUP3 ADD SWAP1 POP DUP2 DUP2 SUB PUSH1 0x0 DUP4 ADD MSTORE PUSH2 0x58E DUP2 PUSH2 0x552 JUMP JUMPDEST SWAP1 POP SWAP2 SWAP1 POP JUMP JUMPDEST PUSH32 0x6E6F2062616C616E636500000000000000000000000000000000000000000000 PUSH1 0x0 DUP3 ADD MSTORE POP JUMP JUMPDEST PUSH1 0x0 PUSH2 0x5CB PUSH1 0xA DUP4 PUSH2 0x518 JUMP JUMPDEST SWAP2 POP PUSH2 0x5D6 DUP3 PUSH2 0x595 JUMP JUMPDEST PUSH1 0x20 DUP3 ADD SWAP1 POP SWAP2 SWAP1 POP JUMP JUMPDEST PUSH1 0x0 PUSH1 0x20 DUP3 ADD SWAP1 POP DUP2 DUP2 SUB PUSH1 0x0 DUP4 ADD MSTORE PUSH2 0x5FA DUP2 PUSH2 0x5BE JUMP JUMPDEST SWAP1 POP SWAP2 SWAP1 POP JUMP JUMPDEST PUSH32 0x6E6F74206F776E65720000000000000000000000000000000000000000000000 PUSH1 0x0 DUP3 ADD MSTORE POP JUMP JUMPDEST PUSH1 0x0 PUSH2 0x637 PUSH1 0x9 DUP4 PUSH2 0x518 JUMP JUMPDEST SWAP2 POP PUSH2 0x642 DUP3 PUSH2 0x601 JUMP JUMPDEST PUSH1 0x20 DUP3 ADD SWAP1 POP SWAP2 SWAP1 POP JUMP JUMPDEST PUSH1 0x0 PUSH1 0x20 DUP3 ADD SWAP1 POP DUP2 DUP2 SUB PUSH1 0x0 DUP4 ADD MSTORE PUSH2 0x666 DUP2 PUSH2 0x62A JUMP JUMPDEST SWAP1 POP SWAP2 SWAP1 POP JUMP INVALID LOG2 PUSH5 0x6970667358 0x22 SLT KECCAK256 BALANCE GAS DUP6 0xD8 PUSH21 0x853B2FBA105C7CBDC1D177C03FC548BB1264222F9D 0xFB 0xBC 0x23 CALLER DUP14 0xB1 PUSH5 0x736F6C6343 STOP ADDMOD GT STOP CALLER "
				},
				"gasEstimates": {
					"creation": {
						"codeDepositCost": "339800",
						"executionCost": "infinite",
						"totalCost": "infinite"
					},
					"external": {
						"balance()": "317",
						"sendd(address,uint256)": "infinite",
						"withraw(address,uint256)": "infinite"
					}
				},
				"methodIdentifiers": {
					"balance()": "b69ef8a8",
					"sendd(address,uint256)": "d7781801",
					"withraw(address,uint256)": "e1af091e"
				}
			},
			"storageLayout": {
				"storage": [
					{
						"astId": 21,
						"contract": "remix_ide/PROJECT/ETHER_WALLET.sol:send_ether",
						"label": "owner_contract",
						"offset": 0,
						"slot": "0",
						"type": "t_address"
					},
					{
						"astId": 28,
						"contract": "remix_ide/PROJECT/ETHER_WALLET.sol:send_ether",
						"label": "result",
						"offset": 20,
						"slot": "0",
						"type": "t_enum(results)25"
					}
				],
				"types": {
					"t_address": {
						"encoding": "inplace",
						"label": "address",
						"numberOfBytes": "20"
					},
					"t_enum(results)25": {
						"encoding": "inplace",
						"label": "enum send_ether.results",
						"numberOfBytes": "1"
					}
				}
			},
			"userdoc": {
				"kind": "user",
				"methods": {},
				"version": 1
			}
		}
	}
}