{
	"data": {
		"bytecode": {
			"linkReferences": {},
			"object": "608060405260008055600060015534801561001957600080fd5b50610196806100296000396000f3fe608060405234801561001057600080fd5b50600436106100365760003560e01c806302a2cf0b1461003b5780634df7e3d014610059575b600080fd5b610043610077565b60405161005091906100ce565b60405180910390f35b6100616100af565b60405161006e91906100ce565b60405180910390f35b60005b6001600081548092919061008d90610118565b9190505550600560015403156100a757600080541461007a575b600154905090565b60015481565b6000819050919050565b6100c8816100b5565b82525050565b60006020820190506100e360008301846100bf565b92915050565b7f4e487b7100000000000000000000000000000000000000000000000000000000600052601160045260246000fd5b6000610123826100b5565b91507fffffffffffffffffffffffffffffffffffffffffffffffffffffffffffffffff8203610155576101546100e9565b5b60018201905091905056fea264697066735822122011ed61f6bbdc2247dcd4909f8f2f0befe56ceae850b518cd25b9a5c1e7582c6064736f6c63430008110033",
			"opcodes": "PUSH1 0x80 PUSH1 0x40 MSTORE PUSH1 0x0 DUP1 SSTORE PUSH1 0x0 PUSH1 0x1 SSTORE CALLVALUE DUP1 ISZERO PUSH2 0x19 JUMPI PUSH1 0x0 DUP1 REVERT JUMPDEST POP PUSH2 0x196 DUP1 PUSH2 0x29 PUSH1 0x0 CODECOPY PUSH1 0x0 RETURN INVALID PUSH1 0x80 PUSH1 0x40 MSTORE CALLVALUE DUP1 ISZERO PUSH2 0x10 JUMPI PUSH1 0x0 DUP1 REVERT JUMPDEST POP PUSH1 0x4 CALLDATASIZE LT PUSH2 0x36 JUMPI PUSH1 0x0 CALLDATALOAD PUSH1 0xE0 SHR DUP1 PUSH4 0x2A2CF0B EQ PUSH2 0x3B JUMPI DUP1 PUSH4 0x4DF7E3D0 EQ PUSH2 0x59 JUMPI JUMPDEST PUSH1 0x0 DUP1 REVERT JUMPDEST PUSH2 0x43 PUSH2 0x77 JUMP JUMPDEST PUSH1 0x40 MLOAD PUSH2 0x50 SWAP2 SWAP1 PUSH2 0xCE JUMP JUMPDEST PUSH1 0x40 MLOAD DUP1 SWAP2 SUB SWAP1 RETURN JUMPDEST PUSH2 0x61 PUSH2 0xAF JUMP JUMPDEST PUSH1 0x40 MLOAD PUSH2 0x6E SWAP2 SWAP1 PUSH2 0xCE JUMP JUMPDEST PUSH1 0x40 MLOAD DUP1 SWAP2 SUB SWAP1 RETURN JUMPDEST PUSH1 0x0 JUMPDEST PUSH1 0x1 PUSH1 0x0 DUP2 SLOAD DUP1 SWAP3 SWAP2 SWAP1 PUSH2 0x8D SWAP1 PUSH2 0x118 JUMP JUMPDEST SWAP2 SWAP1 POP SSTORE POP PUSH1 0x5 PUSH1 0x1 SLOAD SUB ISZERO PUSH2 0xA7 JUMPI PUSH1 0x0 DUP1 SLOAD EQ PUSH2 0x7A JUMPI JUMPDEST PUSH1 0x1 SLOAD SWAP1 POP SWAP1 JUMP JUMPDEST PUSH1 0x1 SLOAD DUP2 JUMP JUMPDEST PUSH1 0x0 DUP2 SWAP1 POP SWAP2 SWAP1 POP JUMP JUMPDEST PUSH2 0xC8 DUP2 PUSH2 0xB5 JUMP JUMPDEST DUP3 MSTORE POP POP JUMP JUMPDEST PUSH1 0x0 PUSH1 0x20 DUP3 ADD SWAP1 POP PUSH2 0xE3 PUSH1 0x0 DUP4 ADD DUP5 PUSH2 0xBF JUMP JUMPDEST SWAP3 SWAP2 POP POP JUMP JUMPDEST PUSH32 0x4E487B7100000000000000000000000000000000000000000000000000000000 PUSH1 0x0 MSTORE PUSH1 0x11 PUSH1 0x4 MSTORE PUSH1 0x24 PUSH1 0x0 REVERT JUMPDEST PUSH1 0x0 PUSH2 0x123 DUP3 PUSH2 0xB5 JUMP JUMPDEST SWAP2 POP PUSH32 0xFFFFFFFFFFFFFFFFFFFFFFFFFFFFFFFFFFFFFFFFFFFFFFFFFFFFFFFFFFFFFFFF DUP3 SUB PUSH2 0x155 JUMPI PUSH2 0x154 PUSH2 0xE9 JUMP JUMPDEST JUMPDEST PUSH1 0x1 DUP3 ADD SWAP1 POP SWAP2 SWAP1 POP JUMP INVALID LOG2 PUSH5 0x6970667358 0x22 SLT KECCAK256 GT 0xED PUSH2 0xF6BB 0xDC 0x22 SELFBALANCE 0xDC 0xD4 SWAP1 SWAP16 DUP16 0x2F SIGNEXTEND 0xEF 0xE5 PUSH13 0xEAE850B518CD25B9A5C1E7582C PUSH1 0x64 PUSH20 0x6F6C634300081100330000000000000000000000 "
		},
		"gasEstimates": {
			"creation": {
				"codeDepositCost": "81200",
				"executionCost": "10141",
				"totalCost": "91341"
			},
			"external": {
				"b()": "2429",
				"dowhile()": "infinite"
			}
		},
		"methodIdentifiers": {
			"b()": "4df7e3d0",
			"dowhile()": "02a2cf0b"
		}
	},
	"abi": [
		{
			"inputs": [],
			"name": "b",
			"outputs": [
				{
					"internalType": "uint256",
					"name": "",
					"type": "uint256"
				}
			],
			"stateMutability": "view",
			"type": "function"
		},
		{
			"inputs": [],
			"name": "dowhile",
			"outputs": [
				{
					"internalType": "uint256",
					"name": "",
					"type": "uint256"
				}
			],
			"stateMutability": "nonpayable",
			"type": "function"
		}
	]
}